:100000000C9484000C94EB1B0C94A1000C94A100A4
:100010000C94A1000C94A1000C94A1000C943E1728
:100020000C94A1000C94A1000C94A1000C94A100CC
:100030000C94A1000C94A1000C94A1000C94A100BC
:100040000C94A1000C94A1000C943B0C0C94110C8A
:100050000C94A1000C94E10A0C94A1000C94A10052
:100060000C94690B0C94A100CF00670033001900B9
:100070000C000001020304050607FFFFFFFFFFFF5E
:1000800008FF4573320000FFB100570100004557DB
:10009000300001FFB100811700004542490010FF08
:1000A000B1005701000045574B0011FFB100570147
:1000B00000004542480012FFB1005701000046739E
:1000C000CA00C0FFFC00000000000A4E445053323A
:1000D000302E323532002E02060347063D07060851
:1000E000050B060D210E620F7610CA11831213152F
:1000F00035181819161B4320FB23E9242A2500264E
:100100001F2C812D352E090011241FBECFEFD8E002
:10011000DEBFCDBF11E0A0E0B1E0E2ECFDE302C044
:1001200005900D92AA30B107D9F724E0AAE0B1E01A
:1001300001C01D92A831B207E1F70E9461160C942C
:10014000DF1E0C9400009C01CB0144E050E0B9019B
:100150000C94AF1E9C01CB0144E050E0B9010C941B
:10016000C71EEF92FF920F931F93CF93DF93EB0184
:100170007A01FC010281138181818236B1F058F449
:100180008434E9F018F4823479F50FC08735A9F08A
:10019000813651F517C08337A9F018F4843621F55C
:1001A0000EC0873751F08A37F9F481E08883C8019F
:1001B0000E94BF1EF701808315C082E001C084E069
:1001C00088830AC0C8010E94BF1E9881981708F44E
:1001D000892F88830F5F1F4F488150E0B801C70106
:1001E0000E94AF1E80E001C083E0DF91CF911F919C
:1001F0000F91FF90EF9008950F931F93CF93DF938C
:10020000EB01DA01FC016281738181818236D1F0D8
:1002100068F4843431F120F4823409F042C012C011
:100220008735B1F0813609F03CC02DC0833759F1D4
:1002300020F4843609F035C014C0873749F08A3776
:1002400009F02FC081E08883FB0164916C9319C091
:1002500082E08883FB01859194918C9311969C9305
:1002600010C084E08883FB0105911591259134919C
:100270000C9311961C93119712962C931297139628
:100280003C9380E00FC0FB0114918881811708F432
:10029000182F6F5F7F4F412F50E0CD010E94901EBD
:1002A000188383E0DF91CF911F910F910895EF9212
:1002B000FF920F931F93CF93DF931F92CDB7DEB7BB
:1002C000FC01262F8A01E280F38081818236B1F021
:1002D00058F48434A9F018F4823439F50FC0873506
:1002E000D9F0813611F50EC0833761F018F48436E9
:1002F000E1F406C0873781F08A37B9F421E00DC0F8
:1003000024E00BC0622FC70129830E94D11E8FEF0A
:10031000E81AF80A298101C022E0422F50E0B70113
:10032000C8010E94C71E80E001C083E00F90DF91EA
:10033000CF911F910F91FF90EF9008958F7021E062
:1003400030E002C0220F331F8150E0F7C901089549
:100350008F7099278E589F4FFC0184910895CF93F9
:10036000DF930E94A8018F3F69F0C0917B01D0917B
:100370007C010E949E01C823D92381E0CD2B19F472
:1003800080E001C082E0DF91CF9108950F931F9329
:10039000CF93DF938B01EA01FC01828193810E945C
:1003A000A80192E0F8019083E82FF0E0EE0FFF1F24
:1003B000E253FE4F808191819983888380E0DF91B1
:1003C000CF911F910F910895CF93DF93EA01FC0124
:1003D000828193810E94A80190E0FC01EE0FFF1F33
:1003E000E253FE4F2881398131832083FC01EB5396
:1003F000FE4F21E0208380E0DF91CF91089520918E
:10040000640020FF10C02FEF2093310120932E01B4
:10041000209164002E7F209364002FE020937C00C5
:100420002FED20937A00FC01828193810E94A80124
:1004300090E0FC01EB53FE4F2081215020832223CA
:1004400011F080E0089520E42083FC01EE0FFF1FEF
:10045000DF01AE5CBE4F2D913C91285F3F4F54E0D1
:10046000369527955A95E1F7E253FE4F80819181A9
:100470008217930731F33183208381E008959C0133
:100480002770332781E001C0880F21503109E0F740
:100490000895887F992740978930910528F4FC01B9
:1004A000EF5FFE4F808108958FEF08951F93CF93E4
:1004B000DF93EC010E943F02182F9E01287F332713
:1004C0002031310521F02831310599F403C0807CB9
:1004D00081F402C082FD0DC0CE010E944902E82FC6
:1004E000F0E0E35BFE4F9081912381E019F480E01E
:1004F00001C082E0DF91CF911F9108950F931F9368
:10050000CF93DF931F92CDB7DEB78C0169830E9432
:100510003F02087F112769810031110521F0083160
:100520001105A1F40AC097B1662319F0982B97B969
:100530000DC08095892387B909C09AB1662319F047
:10054000982B9AB903C0809589238AB90F90DF91BF
:10055000CF911F910F9108950F931F93CF93DF9326
:100560001F92CDB7DEB78C0169830E943F02087FDE
:10057000112769810031110521F008311105A1F41D
:100580000AC098B1662319F0982B98B90DC08095D0
:10059000892388B909C09BB1662319F0982B9BB9B0
:1005A00003C0809589238BB90F90DF91CF911F9164
:1005B0000F9108950F931F93CF93DF93FC01C28196
:1005C000D381DA011C9180818934A9F4CE010E9483
:1005D0004902082FCE010E943F02E02FF0E0E15BCC
:1005E000FE4F112319F09081982B03C080959081C4
:1005F000982390831CC08F3451F481818E3609F486
:100600001095612F6170CE010E94AC0210C0803540
:1006100071F481818E3609F4109581E090E06D9738
:1006200011F480E090E0FC01ED53FE4F108380E078
:10063000DF91CF911F910F910895EF92FF920F9349
:100640001F93CF93DF938C01FC01C281D381808102
:10065000893499F5CE01887F99278031910519F069
:10066000489729F402C0F6B003C0F9B001C0F12CDC
:10067000CE010E944902E82ECE010E943F02F801FD
:1006800091819E3609F4F094F822EE2DF0E0DF011E
:10069000AF5ABE4F9C91292F2823F21619F08927B3
:1006A0008C9341C0E15BFE4F9081292F2823F216E5
:1006B000D1F18927808381E037C08035A1F5CD3124
:1006C000D105C1F468B58091C301681761F186173F
:1006D00010F4615001C06F5F68BD862F81508E3F5E
:1006E00030F084B58F7D84BD8DE190E016C084B577
:1006F000806218C067B58091C4016817A1F08617A1
:1007000010F4615001C06F5F67BD862F81508E3F2E
:1007100038F084B58F7784BDCE010E94AC0203C04F
:1007200084B5806884BD80E0DF91CF911F910F91E7
:10073000FF90EF900895DF92EF92FF920F931F9337
:10074000CF93DF938C01FC01C281D381CE010E9443
:100750005602811169C0CE010E944902D82E811132
:1007600017C0CE010E94AF01813009F45DC0811134
:100770000FC0E0907B01F0907C01CE010E94A801A7
:100780000E949E018E299F2990937C0180937B017A
:10079000CE010E943F022D2D30E0F901E35BFE4FB8
:1007A0009081982B90838095F901E15BFE4F9081B9
:1007B00098239083F901EF5AFE4F908198239083FC
:1007C000F80180818F3411F461E014C0803589F420
:1007D00061E0CE010E947E0284B5807A71F480913E
:1007E00064008F7D8093640083E084BD84E085BDD8
:1007F00004C060E0CE010E947E02F80181818E3645
:1008000021F461E0CE010E94AC028FEA9AE0F80187
:10081000978386838AED92E0918780878DE193E0CC
:100820009387828780E001C082E0DF91CF911F91A2
:100830000F91FF90EF90DF900895EF92FF920F934A
:100840001F93CF93DF938C01FC01C281D381CE0132
:100850000E944902F82ECE010E943F022F2D30E067
:100860008095F901E35BFE4F908198239083F90115
:10087000E15BFE4F908198239083F901EF5AFE4F80
:10088000908198239083F11016C0CE010E94AF0191
:10089000813089F4E0907B01F0907C01CE010E94D0
:1008A000A8010E949E01809590958E219F21909392
:1008B0007C0180937B01F8018081803591F484B5BF
:1008C000CD31D10511F48F7D01C08F7784BD84B502
:1008D000807A39F414BC15BC8091640080628093E6
:1008E000640060E0CE010E94AC0260E0CE01DF91C6
:1008F000CF911F910F91FF90EF900C947E020F9378
:100900001F93880F8093540160932D0140935501EC
:1009100020935A01109357010093560164EA54E85A
:1009200077C06093BC008091BC0087FFFCCF8091B2
:10093000B900883029F08091B900803109F036C0C3
:1009400090912D018091540191FD01C081608093AF
:10095000BB005093BC008091BC0087FFFCCF80910E
:10096000B900883129F08091B900803409F01EC0A7
:1009700080912D0181FD20C040E041C0E0915601F1
:10098000F0915701E80FF11D90819093BB008F5FAC
:100990005093BC009091BC0097FFFCCF9091550103
:1009A000891758F49091B900983239F084E980930E
:1009B000BC008091B90039C080E090915501891741
:1009C000E8F280912D018D7F21C0842F90E0019667
:1009D00030E08217930714F484EC01C084E880931C
:1009E000BC008091BC0087FFFCCFE0915601F091E4
:1009F0005701E40FF11D8091BB0080834F5F209170
:100A00005A01421710F380912D018E7F80932D01A2
:100A100080912D01837009F084CF84E98093BC001C
:100A200010922D01109254018FEF1F910F91089594
:100A3000FC01228120FF11C084E0FB0180838091B2
:100A40009A0190919B01A0919C01B0919D01FA01A6
:100A500080839183A283B3830AC082E0FB018083F9
:100A60008091980190919901FA019183808380E0AF
:100A70000895FC012281FA0120FF0DC0808191813F
:100A8000A281B38180939A0190939B01A0939C01D2
:100A9000B0939D0106C080819181909399018093CC
:100AA000980180E008953F924F925F926F927F92FB
:100AB0008F929F92AF92BF92CF92DF92EF92FF926E
:100AC0000F931F93CF93DF9300D000D0CDB7DEB745
:100AD000809197018D3011F080E038C18EE08093D5
:100AE00097010091290130902A0110912B01109259
:100AF0002D01C0909E01D0909F01E090A001F09048
:100B0000A10120EAC21A2FE0D20AE108F108A701E8
:100B10009601C701B6010E94231E2B013C018CE007
:100B200075946794579447948A95D1F7A0918F0153
:100B3000B0919001A30192010E947C1E4B015C01C7
:100B4000A0918301B0918401A70196010E947C1EAF
:100B500069837A838B839C83E0918101F091820188
:100B6000A0918501B09186010E947C1E6B017C01E1
:100B70009DE0F594E794D794C7949A95D1F7A09106
:100B80008D01B0918E01A30192010E947C1EBB27B2
:100B900097FDB095AB2FC80ED91EEA1EFB1E32E0A2
:100BA000C30ED11CE11CF11C32E0F594E794D794FC
:100BB000C7943A95D1F740E8D40EE11CF11CA091FE
:100BC0008701B0918801A70196010E94711E6B01F7
:100BD0007C014FE0F694E794D794C7944A95D1F7F7
:100BE000832D90E0A0E0B0E02227382F492F5A2F24
:100BF000402B212B65E056954795379527956A95AB
:100C0000D1F7CF01AA2797FDA095BA2F72E0880FE0
:100C1000991FAA1FBB1F7A95D1F7EBE0B594A79453
:100C200097948794EA95D1F749805A806B807C80AD
:100C3000FBE07594679457944794FA95D1F7840C28
:100C4000951CA61CB71C880D991DAA1DBB1D880FDD
:100C5000991FAA1FBB1F281B390B4A0B5B0BAAE667
:100C6000B8E10E94711E97FD0BC0660F771F881FA9
:100C7000991FA70196010E94331E49015A010AC01B
:100C8000A70196010E94331E49015A01880C991C44
:100C9000AA1CBB1C9927B7FC9A958B2D7A2D692D20
:100CA0009B01AC010E94231E9B01AC01AEEDBBE099
:100CB0000E94711E6C01FF24D7FCF094EF2CA3E47A
:100CC000B3EEA50194010E947F1EBB2797FDB0954E
:100CD000AB2FC80ED91EEA1EFB1E2FECC20E2EE053
:100CE000D21EE11CF11CA4E0F594E794D794C794BC
:100CF000AA95D1F7C80CD91CEA1CFB1C80919A015B
:100D000090919B01A0919C01B0919D018C159D0536
:100D1000AE05BF0548F426013701481A590A6A0A88
:100D20007B0AD301C20104C08C199D09AE09BF0919
:100D30004597A105B10508F4CFCEC0929A01D09293
:100D40009B01E0929C01F0929D0181E00F900F9039
:100D50000F900F90DF91CF911F910F91FF90EF9027
:100D6000DF90CF90BF90AF909F908F907F906F90CB
:100D70005F904F903F900895FC01228120FF08C0B2
:100D800081E0FB0180838091A301FA0180830AC086
:100D900082E0FB0180838091A4019091A501FA017A
:100DA0009183808380E00895FC012281FA0120FF75
:100DB00004C080818093A30106C0808191819093BB
:100DC000A5018093A40180E008958091A20187305D
:100DD00011F080E0089588E08093A20180912901BC
:100DE00040912A0124E0829FC0011124429546953A
:100DF00046954370482B10922D015091A301842FEA
:100E000090E0252F30E0541718F4821B930B04C098
:100E1000B901681B790BCB010297D8F24093A3016B
:100E200081E0089522E0FB012083FC01228120FF64
:100E300005C08091A9019091AA0104C08091A701E9
:100E40009091A801FA019183808380E00895FC01CC
:100E50002281FA018081918120FF05C09093AA012F
:100E60008093A90104C09093A8018093A70180E01A
:100E700008958091A601813111F080E0089582E10A
:100E80008093A6018091290120912A0122952F703B
:100E900030E1839FC0011124822B10922D012091FB
:100EA000A9013091AA012817390728F4AC01421B87
:100EB000530B9A0102C0281B390B23303105E8F28D
:100EC0009093AA018093A90181E0089522E0DB01BB
:100ED0002C93DC011296ED91FC911397E770FF279C
:100EE000EE0FFF1FED54FE4F80819181FA01918337
:100EF000808380E00895DC011296ED91FC911397B8
:100F0000E770FF27EE0FFF1FED54FE4FDA018D91C2
:100F10009C919183808380E0089581E0FB01808330
:100F2000809154018695FA01808380E00895FA014A
:100F3000808180937F0180E00895CA01209128017B
:100F4000FB012083409128012AE031E050E0B90103
:100F50000E94A61E1092280110927E0180E0089542
:100F600080912D01811102C08FEF3AC08091540110
:100F700090917F01981729F080937F011092800152
:100F800031C080912D01837190E0419724F080EC75
:100F9000809380010EC0809180018F5F80938001DB
:100FA000803C61F41092BC00809164008068809362
:100FB000640080E180932D0181E00895811112C0C9
:100FC000809164008F778093640080E28093B80002
:100FD0008FEF8093BB0094E09093BC0010922D01A2
:100FE00080937F0180E0089580912801882371F02B
:100FF00080912801883160F49091280180917E01D0
:10100000981731F08091280180937E0180E0089547
:1010100081E00895CF93C62FBA0180915C018111C0
:1010200012C02DE531E04C2F50E0C9010E94A61EF0
:1010300010925B01C0935C018091C100806280933B
:10104000C10080E001C081E0CF9108950F931F930C
:1010500090912D0194FD14C0880F809354016093EA
:101060002D014093550120935A011093570100938D
:101070005601109259011092580185EA8093BC00E4
:101080001F910F9108950F931F93CF93DF93FC014E
:1010900082819381EC01C770DD2720912D0120739F
:1010A00081F0C555DE4F8881811101C058C080E4B0
:1010B000888380912D0185FF52C080E280932D01AD
:1010C0004EC020912D01237009F049C0FE01E55565
:1010D000FE4F2081213061F028F02230A1F0233032
:1010E000C9F536C020912D0123FD39C021E02083B0
:1010F0001092290109E211E022E041E06BE0892F22
:101100000E94260827C03091290120912A01932F9F
:1011100080E0822B23E02083AE01440F551FFA01AB
:10112000ED54FE4F208131812817390728F4BC0186
:10113000621B730B9B0102C0281B390B2034310545
:1011400038F0FA01ED54FE4F9183808381E008C0AE
:1011500010922D01C555DE4F88818F5F888380E016
:10116000DF91CF911F910F9108950F931F93CF930C
:10117000DF9380912D01807381F08091A601811110
:1011800001C08FC080E48093A60180912D0185FF6E
:1011900088C080E280932D0184C080912D018370EE
:1011A00009F07FC08091A601863001F148F48130BA
:1011B000E9F0A8F0843031F1853009F06DC028C025
:1011C0008B30C1F130F48930E9F08A3009F064C025
:1011D0001FC08E30B9F08F3009F05EC019C0809109
:1011E0002D0183FD5EC081E08093A60183E08093A2
:1011F000290181E180932A0109E211E020E042E027
:101200006AE014C01092290109E211E021E00CC04B
:101210009091290190FF02C0815041C081E08093EC
:10122000290109E211E022E041E06BE080E40E9444
:10123000260832C0C091290180912A0186958695A1
:1012400020E4C29FE0011124C82B83E08093290190
:1012500081E080932A0109E211E020E042E06AE0A7
:1012600080E40E9426088091A7019091A8018C1724
:101270009D0728F49E01281B390BC90102C08C1B55
:101280009D0B069748F0D093A801C093A7018CE06E
:101290008093A60181E006C08091A6018F5F8093B4
:1012A000A60180E0DF91CF911F910F9108950F93D8
:1012B0001F9380912D01807381F08091A201811193
:1012C00001C061C080E48093A20180912D0185FF5F
:1012D0005AC080E280932D0156C080912D01837009
:1012E00009F051C08091A201813071F030F084305A
:1012F00089F0853009F042C016C080912D0183FD30
:1013000042C081E08093A20100E010E020E040E0D4
:101310006AE005C009E211E024E040E069E087E20C
:101320000E9426082BC080912901807C11F084E066
:1013300028C080912B0120912C012695269530E420
:10134000839FC0011124822B2091A4013091A5011B
:101350002817390728F4AC01421B530B9A0102C02D
:10136000281B390B2730310548F09093A501809355
:10137000A40186E08093A20181E006C08091A201D1
:101380008F5F8093A20180E01F910F910895CF920B
:10139000DF92EF92FF920F931F9380912D01807344
:1013A00081F080919701811101C0D1C080E48093C8
:1013B000970180912D0185FFCAC080E280932D01A5
:1013C000C6C080912D01837009F0C1C08091970142
:1013D000843039F148F48130F9F0B8F0823009F105
:1013E000833009F0AFC018C0883009F4A0C030F4D1
:1013F0008530F1F0863009F0A5C08EC0893009F43F
:101400008BC08B3009F09EC092C080912D0183FD6E
:101410009EC081E08093970184EF809329018EE242
:101420007EC086EF8093290109E211E022E085C0A9
:101430003091290120912A01932F80E0AC01422BA9
:101440009A0140E050E080918B0190918C01281B23
:10145000390B41095109A0918901B0918A010E947B
:10146000711E6B017C013FE0F594E794D794C7941B
:101470003A95D1F76091930170919401882777FD97
:101480008095982F4BE0660F771F881F991F4A950C
:10149000D1F72091950130919601442737FD409571
:1014A000542F2C0D3D1D4E1D5F1D0E94551E2C0DF1
:1014B0003D1D4E1D5F1D20939E0130939F01409363
:1014C000A0015093A101DA01C9010896A11DB11D27
:1014D00054E0B595A795979587955A95D1F79C01B6
:1014E00040919801509199014817590718F4841BAD
:1014F000950B03C0CA01821B930BA0E0B0E00297DA
:10150000A105B105FCF086E0809397013093990125
:101510002093980181E01CC084EF8093290180937F
:101520002A0109E211E020E042E06AE008C086EF0B
:101530008093290109E211E023E041E06BE087E7B5
:101540000E942608809197018F5F8093970180E029
:101550001F910F91FF90EF90DF90CF900895DF9251
:10156000EF92FF920F931F93CF93DF93EC017B01D8
:101570008A018A819B819C01287F33272031310594
:1015800021F02831310529F402C0D6B003C0D9B00A
:1015900001C0D12C0E943F0299819E3609F4D0945B
:1015A00091E0F7019083D82209F490E0F80190834C
:1015B00080E0DF91CF911F910F91FF90EF90DF902E
:1015C00008951F920F920FB60F9211242F933F93FD
:1015D0004F938F939F93EF93FF93209178003091D7
:1015E000790040912E01403170F580912F0190914A
:1015F0003001820F931F9093300180932F0141118E
:1016000034C020917C002F3059F0E0913101E93055
:1016100038F4F0E0EE0FFF1FEE5CFE4F9183808305
:10162000809131018F5F01C0822F893048F5282FCA
:101630002F5FE82FF0E0EC5BFE4F90819F30A1F32D
:101640008093310112C0403F81F41092300110921A
:101650002F01E0913101E93028F4F0E0EC5BFE4F1E
:10166000808101C08FE080937C0080912E018150A9
:1016700080932E0180917A00806580937A0010C05B
:101680008FEF8093310180932E0180E180937A0067
:101690008FE080937C00809164008160809364007F
:1016A000FF91EF919F918F914F913F912F910F90CB
:1016B0000FBE0F901F90189510924D0110924F0180
:1016C0001092510110924E0110925001109252014D
:1016D00008951F920F920FB60F9211242F933F93EC
:1016E0004F935F936F937F938F939F93AF93BF932A
:1016F000EF93FF938091B900887F883221F140F405
:101700008031A1F08831F9F0883009F076C00EC040
:10171000803409F448C020F4803309F06EC026C03C
:10172000803599F1883509F068C049C0109253019D
:1017300090912D018091540191FD01C081608093B1
:10174000BB0085E85BC080915301909155018917DA
:1017500068F4E0915601F0915701E80FF11D908176
:101760009093BB008F5F80935301EBCF80912D014D
:101770008D7F80932D0180912D0180FF02C085EA2D
:101780003DC084E98093BC0030C080915301E0915A
:101790005601F0915701E80FF11D9091BB00908325
:1017A0008F5F809353012091530130E080915A0163
:1017B00090E001972817390724F685EC1FC0809127
:1017C0005301E0915601F0915701E80FF11D9091FE
:1017D000BB0090838F5F8093530184E98093BC00AA
:1017E00080912D018E7F80932D01E0915801F09121
:1017F0005901309729F0099503C084E98093BC0012
:10180000FF91EF91BF91AF919F918F917F916F91D8
:101810005F914F913F912F910F900FBE0F901F90AE
:1018200018951F920F920FB60F9211248F939F93CA
:10183000EF93FF9380915B0190915C01891758F4BD
:10184000E82FF0E0E35AFE4F90819093C6008F5F3F
:1018500080935B0107C010925C018091C1008F7D75
:101860008093C100FF91EF919F918F910F900FBED8
:101870000F901F9018951F920F920FB60F92112480
:101880008F939F93EF93FF939091C60080912801CF
:101890008D3150F480912801E82FF0E0E65FFE4F93
:1018A00090838F5F80932801FF91EF919F918F919B
:1018B0000F900FBE0F901F90189580E180937A00D3
:1018C0008FE080937C00809164008160809364004D
:1018D00010927C0110927B01109231018FEF809366
:1018E0002E01E4E4F1E08FE0819391E0ED34F9071B
:1018F000D9F70E945C0B8091C1008F768093C10064
:101900008091C100887129F4809164008D7F80935B
:1019100064008091C100877F8093C1008091C100E5
:10192000887129F4809164008260809364008FEF55
:1019300080937D0110925B0110925C0110927E01F8
:101940001092280110922D018093540110927F0172
:10195000109259011092580108952F923F924F9280
:101960005F926F927F928F929F92AF92BF92CF922F
:10197000DF92EF92FF920F931F93CF93DF931F920B
:10198000CDB7DEB71092BC00809164008068809370
:10199000640084E190E00E94560281113CC285E11E
:1019A00090E00E945602811136C284E190E00E94CC
:1019B0003F02182F85E190E00E943F02812B96B1F3
:1019C0009823981328C2809164008F7780936400D5
:1019D00080E28093B8008FEF8093BB0084E0809317
:1019E000BC000E949D187C01009709F414C280ED90
:1019F00089838E010F5F1F4F21E041E063E087E79D
:101A00000E947F048F3F09F0C0C08981853509F0AD
:101A1000BCC08AEA90E0909382018093810101E842
:101A200011E026E141E063E087E70E947F04109225
:101A30009701109299011092980110929A011092B8
:101A40009B0110929C0110929D01809181019091C7
:101A5000820198278927982790938201809381019A
:101A600080918301909184019827892798279093EA
:101A7000840180938301809185019091860198274C
:101A8000892798279093860180938501809187010B
:101A900090918801982789279827909388018093AF
:101AA00087018091890190918A0198278927982739
:101AB00090938A018093890180918B0190918C0190
:101AC00098278927982790938C0180938B01809188
:101AD0008D0190918E0198278927982790938E01E8
:101AE00080938D0180918F01909190019827892793
:101AF00098279093900180938F018091910190910C
:101B000092019827892798279093920180939101B9
:101B10008091930190919401982789279827909319
:101B2000940180939301809195019091960198275B
:101B30008927982790939601809395010E949D187C
:101B40006C01009711F158E1A52E55E0B52EFC016E
:101B5000B782A68209E315E01187008787EC99E038
:101B60009387828764E5962E908287E7818380E061
:101B700097E7938382830E949D18FC01009739F4B4
:101B80008FEF9FEFF60195838483912C11C0B7826C
:101B9000A6821187008783E595E0938782879082EC
:101BA00084E4818381E097E79383828342E0942EEB
:101BB00000E010E020E040E062E087E20E947F0465
:101BC0008F3F09F02FC01092A2011092A301109232
:101BD000A5011092A4010E949D186C01009711F1BB
:101BE0002CEBA22E26E0B22EFC01B782A68204EDD9
:101BF00016E01187008787E599E09387828734E5AF
:101C0000832E808287E7818380E097E293838283BB
:101C10000E949D18FC01009739F48FEF9FEFF601A9
:101C20009583848380E010C0B782A68211870087E5
:101C300085EE96E093878287808282E4818381E0CB
:101C400097E29383828382E0582E590C81E1898345
:101C50008E010F5F1F4F21E041E063E080E40E94AE
:101C60007F048F3F09F035C08981803591F510924E
:101C7000A6011092A8011092A7011092AA01109239
:101C8000A9010E949D186C01009719F1B2E1AB2ED9
:101C9000B7E0BB2EFC01B782A68207E217E01187EE
:101CA000008785EB98E09387828784E5882E808281
:101CB00097E5992E918280E090E4938382830E943D
:101CC0009D18FC01009739F48FEF9FEFF601958383
:101CD000848380E00FC0B782A6821187008789E3E2
:101CE00097E0938782878082918281E090E493835A
:101CF000828382E0580E58E4C52ED12C412C66E632
:101D0000A62E67E0B62E7BE7872E77E0972EE3E4DA
:101D10006E2EE8E07E2EF4E53F2EA7E72A2EF1E0B6
:101D2000F093290110922A0109E211E020E042E03B
:101D300062E08C2D0E947F048F3F11F5042D10E08E
:101D4000F801E555FE4F80E88083F801EE0FFF1F94
:101D5000ED54FE4F118210820E949D18FC010097E5
:101D6000C9F0B782A68291868086738662863082A9
:101D700021829C2D8827802B912B938382834394EF
:101D8000EFE4CE16D10431F0FFEFCF1ADF0A87E07F
:101D9000841528F6540C69F48FEF9FEFF7019583B3
:101DA00084831092BC0080916400806880936400FA
:101DB00032C010922D018FEF8093540110927F0159
:101DC000109259011092580189E4F701808380E74D
:101DD000818384E190E093838283C7010E949B0307
:101DE00085E190E0F70193838283C7010E949B0302
:101DF0008DE897E0F7019783868387E997E09187DD
:101E0000808780EB97E09387828784E5808382E4F4
:101E10008183138212820F90DF91CF911F910F91D6
:101E2000FF90EF90DF90CF90BF90AF909F908F90FA
:101E30007F906F905F904F903F902F900895EF921A
:101E4000FF920F931F93CF93DF93CDB7DEB72C97FD
:101E50000FB6F894DEBF0FBECDBF8C01DC018C91B4
:101E6000813548F48F3408F04EC0813441F0893414
:101E700009F007C148C0833509F003C148C0F80123
:101E8000F280E3808F2D9E2D0E94AF018111F7C05B
:101E90008F2D9E2D0E94A80126EC31E0D8011796C7
:101EA0003C932E93169724EE31E019963C932E9393
:101EB00018972FEF31E01B963C932E931A97282FFB
:101EC00030E0F901EB53FE4F1082A901440F551F7A
:101ED000FA01E253FE4F11821082FA01EE5CFE4FCE
:101EE00011821082F901EC5BFE4FF08200917B01C0
:101EF00010917C010E949E01802B912B90937C017C
:101F000080937B01BAC0C8010E949B03BBC0F8014B
:101F10008181843709F055C089E190E00E94560222
:101F20008111ADC020917D012F3F19F58091640092
:101F30008D7F80936400D8011296ED91FC911397E8
:101F4000E0937D01FF27EE0FFF1FE859FF4F8591BA
:101F500094919C012227307F232B31F09F70209198
:101F6000C00022602093C0009093C5008093C400FD
:101F700008C030E0F801828193812817390709F001
:101F80007EC08091C10088608093C10086E080930C
:101F9000C2008FE489838EE68A8389E190E09C8386
:101FA0008B83D80117961C921E9216978AE098E0B0
:101FB00019969C938E9318971B961C921E921A97B3
:101FC00058C0823709F05BC088E190E00E94560259
:101FD000811155C020917D012F3F19F5809164003A
:101FE0008D7F80936400D8011296ED91FC91139738
:101FF000E0937D01FF27EE0FFF1FE859FF4F85910A
:1020000094919C012227307F232B31F09F702091E7
:10201000C00022602093C0009093C5008093C4004C
:1020200007C030E0F801828193812817390739F51C
:102030008091C10080698093C10086E08093C200D6
:1020400089E489838EE68A8388E190E09C838B8390
:102050008DE997E0D80117969C938E931697199661
:102060001C921E92189784EF97E01B969C938E9378
:102070001A97CE0101960E949B0380E003C082E084
:1020800001C083E02C960FB6F894DEBF0FBECDBF23
:10209000DF91CF911F910F91FF90EF900895EF92F4
:1020A000FF920F931F93CF93DF931F92CDB7DEB7AD
:1020B0007C01FC012081213540F42F3428F52134A6
:1020C00041F0293409F046C01FC0233509F042C051
:1020D00035C0FC010281138100311105D8F5C8011A
:1020E0000E94AF018230B1F1F7018181893629F078
:1020F000863729F0853671F503C0006C01C0006495
:10210000F7011383028322C0F70102811381C80102
:1021100029830E94560229818230E1F0F7018181F2
:102120008E3611F08037B1F4203509F00FC00D3133
:10213000110561F00E31110549F00CC0FC0121813F
:1021400082819381059730F4223711F480E003C037
:102150002437E1F383E00F90DF91CF911F910F912E
:10216000FF90EF9008951F93CF93DF93FC01808140
:10217000813548F48F3408F068C0813441F08934E7
:1021800009F069C062C0833509F065C02EC0C28104
:10219000D381CE010E94AF01813009F05CC0CE0135
:1021A0000E94A801182FC0917B01D0917C010E9450
:1021B0009E01809590958C239D2390937C01809324
:1021C0007B01892B59F480E180937A008FE0809322
:1021D0007C0090916400916090936400E12FF0E0A6
:1021E000EC5BFE4F8FE0808336C081818437A9F499
:1021F0008091C100877F8093C1008091C100887168
:1022000029F4809164008260809364008FE480836D
:102210008EE6818389E190E016C08237E1F48091F7
:10222000C1008F768093C1008091C100887129F42C
:10223000809164008D7F8093640089E480838EE6C2
:10224000818388E190E093838283CF01DF91CF91F6
:102250001F910C941D04DF91CF911F910895FC01F3
:102260008081DB018C93818111968C93CB01029646
:10227000628173812081213411F46F7077270E946D
:10228000F11D8E5F0895E6EAF2E01192119282E06C
:10229000EA3BF807D1F70895E6EAF2E080E090E043
:1022A00021913191232B81F443E2489F9001499F72
:1022B000300D112426543D4FFC01EE0FFF1FEA554F
:1022C000FD4F3183208306C001968A30910541F786
:1022D00020E030E0C901089520E030E063E2629F31
:1022E000A001639F500D112446545D4F841795073C
:1022F00041F4F901EE0FFF1FEA55FD4F11821082E4
:1023000008952F5F3F4F2A30310549F70895809196
:10231000FC019091FD0101968F3F2FEF920709F08C
:1023200002C081E090E09093FD018093FC01209138
:10233000FC013091FD01322723273227C90108957E
:10234000E091E9012E2F2F5F243008F024503091C6
:10235000E801231304C00E946C118FEF0895F0E090
:10236000EE0FFF1FE651FE4F918380832093E9011A
:1023700080E008951092E9011092E8011092F301B3
:102380001092F2010E9443111092E1018FE38093B9
:10239000E2011092E4011092E30183E08093E501F1
:1023A0001092FD011092FC018FEF809300020C94BB
:1023B0002A1A0E944C11009751F02091E001FC0173
:1023C000208322E0218326E122830C94A01108952A
:1023D0000F931F93CF93DF931F92CDB7DEB78C017E
:1023E000FC0182818C3031F4F80183818076803267
:1023F00031F407C08231C1F38A30E9F502C080347C
:10240000D1F58091F301282F2F5F243008F024505C
:102410008091F2012817B9F129830E944C11AC0177
:102420002981009781F183E2F801DA0101900D9290
:102430008A95E1F7F80182818C3009F402C082317B
:1024400021F4FA01838180688383E091F301809114
:10245000F201E81307C01092E4011092E3018FE04B
:102460008093E201F0E0EE0FFF1FEC50FE4F51832E
:1024700040832093F301C8010F90DF91CF911F910A
:102480000F910C94A011C8010E946C118FEF0F9056
:10249000DF91CF911F910F9108952091F2018091CA
:1024A000F301821721F1E22FF0E0EE0FFF1FEC5055
:1024B000FE4F808191812F5F2093F2010E946C1169
:1024C0008091F201843018F084508093F201909151
:1024D000F3018091F201981307C01092E401109269
:1024E000E3018FE38093E20183E08093E5010895A7
:1024F00081E02091E8019091E901291301C080E079
:102500000895E091E8018091E901E81789F08E2FA4
:102510008F5F843008F402C08E2F83508093E801CF
:10252000F0E0EE0FFF1FE651FE4F2081318102C027
:1025300020E030E0C90108959093E7018093E6011F
:102540000895CF92DF92EF92FF920F931F93CF9354
:10255000DF9300D0CDB7DEB78C017901842F885F7F
:102560008432D0F54A8369830E944C116C014A8100
:102570006981009789F18091E001D6018C93842FC5
:10258000895F11968C9311978CE012968C93129719
:1025900013966C93139710270127102715961C93F9
:1025A0000E9314974A830E948711F60197838683BE
:1025B00038964A8150E0B701CF010E94A61EC6019D
:1025C0000F900F90DF91CF911F910F91FF90EF909F
:1025D000DF90CF900C94E8118FEF0F900F90DF9168
:1025E000CF911F910F91FF90EF90DF90CF900895C2
:1025F000EF92FF920F931F93CF93DF93E82E162F46
:10260000F42E052F862F8A5F843228F50E944C1104
:10261000EC01009701F18091E0018883812F8B5FAD
:10262000898382E18A83EB820E9487119D838C8358
:102630009E012A5F3F4F412F50E06F2D702FC9013F
:102640000E94A61ECE01DF91CF911F910F91FF90A6
:10265000EF900C94E8118FEFDF91CF911F910F91C4
:10266000FF90EF900895DF92EF92FF920F931F93E8
:10267000CF93DF938C01F62ED42EE52E862F895F23
:10268000843250F50E944C11EC01009729F18091A1
:10269000E00188838F2D8A5F89838AE08A831027EF
:1026A000012710271C830B830E9487119E838D8333
:1026B0009E01295F3F4F4F2D50E06D2D7E2DC901AA
:1026C0000E94A61ECE01DF91CF911F910F91FF9026
:1026D000EF90DF900C94E8118FEFDF91CF911F9175
:1026E0000F91FF90EF90DF9008950C94BA11EF9244
:1026F000FF920F931F93CF93DF939091E201992361
:1027000021F091509093E20150C19091E1019330FA
:1027100009F4F2C050F42091E3013091E4019130CA
:1027200009F446C008F0ADC00CC0953009F40FC1E3
:1027300008F401C1963009F420C1973009F035C181
:102740002AC121153105F1F0215031093093E401FE
:102750002093E3012D30310509F429C1232B09F021
:1027600024C18091E501882341F081508093E501E7
:102770008FE38093E20183E01BC1F894299A0C94C3
:10278000000013C18FE38093E2018EE090E090930C
:10279000E4018093E3010E944C11009709F405C104
:1027A000FC01108223E0218321E02283138260C098
:1027B0008FE38093E2012115310509F068C0809113
:1027C000E501882309F457C081508093E50189E031
:1027D00090E09093E4018093E3010E944C11EC019E
:1027E000009709F4E2C08091E00188838091FC01A8
:1027F0009091FD01892B19F484E08B8301C01B8229
:1028000081E08C8381E09CE29E838D837E01F7E0F2
:10281000EF0EF11C84E189838E010F5F1F4F97013A
:10282000A80161E080E09FEF0E94B11989818230A8
:10283000C8F486E089839701A80161E080EC9FEFEE
:102840000E94B1191981212F30E0CE01820F931F10
:10285000FC014FE547831F5F198308960E94D71D2F
:10286000810F898389818A5F898384E08A83CE018D
:102870000E94A0119AC083E08093E5011092E101CB
:1028800094C09FE39093E2012115310539F0215066
:1028900031093093E4012093E30187C09091E50171
:1028A000992351F091509093E5012091F20190917C
:1028B000F301291307C003C00E94BA1176C0811129
:1028C00074C066C00E944C11009791F0E091F20133
:1028D000F0E0EE0FFF1FEC50FE4F0190F081E02D75
:1028E00023E2DC0101900D922A95E1F70E94A011EC
:1028F0008FE08093E20159C08FE38093E2010E9450
:102900004C11009781F024E0FC01218328E122830F
:102910002091E6013091E7013227232732273483C3
:1029200023830E94A0118091E501882321F081502A
:102930008093E5013AC085E08093E1018091E60152
:102940009091E7019093E4018093E30130C080917E
:10295000E3019091E401009731F001979093E40135
:102960008093E30122C08FE38093E20186E08093AD
:10297000E10183E08093E5011BC08FE38093E201D6
:102980008091E501882309F497CF81508093E50178
:102990000E94D9110AC0882311F081E004C08FE39E
:1029A0008093E20184E08093E10180E001C082E055
:1029B000DF91CF911F910F91FF90EF9008950F93AA
:1029C0001F93CF93DF93EC018A818B3009F49CC075
:1029D00078F4823069F130F4882351F1813009F0C4
:1029E00062C118C0853099F18A3009F05CC16DC0B0
:1029F000833109F40FC138F48C3009F4A6C08D304E
:102A000009F051C1E9C0873109F41BC1883109F0CF
:102A10004AC13EC18091E101811145C18FE090E042
:102A20009093E4018093E30183E08093E5013BC14F
:102A30008091E101811137C188818093E00181E0BB
:102A40008093E1011092E4011092E3012CC1809186
:102A5000E101813009F027C18FE38093E2018B818E
:102A6000811130C082E08093E1011092E401109264
:102A7000E30183E08093E5011092FF011092FE01D3
:102A80000E946A1D8F3F09F40EC18091FC01909154
:102A9000FD01892B09F007C186E189838E010D5F55
:102AA0001F4FAE014F5F5F4F980161E080EC9FEFD9
:102AB0000E94B1199801498161E280EC9FEF0E9468
:102AC000A112F1C00E94BA1185C08091E10182304B
:102AD00008F4E9C08D819E81982789279827209145
:102AE000FE013091FF018217930749F09093FF0197
:102AF0008093FE01CE010E94BA188093000287E005
:102B000089838BE08A8360C08091E101823009F083
:102B1000CAC0E091F201F0E0EE0FFF1FEC50FE4F53
:102B20000190F081E02D82818A3009F0BCC08F8154
:102B3000811106C08B819C8198278927982702C024
:102B400080E090E00E949C1962C08091E101823097
:102B500019F0863009F0A7C08FE38093E20183E08B
:102B60008093E5018E819F8198278927982720915E
:102B7000FE013091FF018217930709F496C09093EC
:102B8000FF018093FE019E01285F3F4F498147501E
:102B90006B8160688C819D819827892798270E9486
:102BA0005D1A809300028B818076803209F07BC0B1
:102BB00087E089838DE08A838C819D819C838B83D0
:102BC0008E819F819E838D83809100028F83CE01B1
:102BD0000E94A01181E06DC08091E101823009F076
:102BE00062C0E091F201F0E0EE0FFF1FEC50FE4FEB
:102BF0000190F081E02D82818C3009F054C0268153
:102C000037818D819E812817390709F04CC00E94B9
:102C10004D1249C08091E101823009F044C0E09139
:102C2000F201F0E0EE0FFF1FEC50FE4F0190F0813B
:102C3000E02D82818231B9F5248135818E819F8199
:102C4000E2CF9091E8018091E90198132CC023E034
:102C50002093E5018FE38093E2018091E1018230CE
:102C600089F48CE291E09093E4018093E3018091F8
:102C7000E6019091E701892BB1F02093E1011092D8
:102C8000E20111C0863079F487E08093E1010BC046
:102C90008091E101833009F015CF84E08093E10158
:102CA0008FE38093E20180E004C08B8187FFFBCF3C
:102CB0007ACFDF91CF911F910F9108958091E1011B
:102CC0000895CF93DF931F92CDB7DEB7F894A89500
:102CD00088E10FB6F89480936000109260000FBEF8
:102CE00080E880BF83EA809364000E9443110E94C1
:102CF0009F1A0E9475130E94F31C1092010280E239
:102D00008093B60082E08093B0001092B2009FE3FF
:102D10009093B30087BB809370008AE08093B100EA
:102D20008091B6008F71E1F783B7817F83BF78947C
:102D30000FEF1FEF80E2C82E92E0D92E2FE3B22EC4
:102D40003AE0A32E44E0942E55E0852E67E1762EDE
:102D50000E946D1D7C01009739F00E94DF148111E3
:102D600003C0C7010E946C110E947812882341F0B1
:102D70000E947A1D882321F00E9481120E948E1DDC
:102D80008091010280FF72C0809101028E7F80934A
:102D900001020E94C31D0E945E168983823029F5BC
:102DA0000F3F8FEF180739F40E94451B8C010F3F2E
:102DB0009FEF190719F10E944C117C010097F1F067
:102DC00079829C01AE014F5F5F4F60E8C8010E94AD
:102DD000B1199701498160E2C8010E94A112C7019F
:102DE0000E946C110FEF1FEF09C0863039F40F3FBE
:102DF0008FEF180719F40E94451B8C0181E00F3FEB
:102E00009FEF190709F480E00E94771389838230CD
:102E100091F4909201028AE00E94531D1092B0003A
:102E20008092B1008091B6008F71E1F783B7817F06
:102E3000866083BF1BC08330C9F483B7817F83BFA3
:102E40008BE00E94531DC092B600D092B000109249
:102E5000B200B092B300D7BAD0927000A092B10085
:102E60008091B6008F71E1F71092010283B7816003
:102E700083BF889583B78E7F83BF6ACF1F920F92DF
:102E80000FB60F9211242F938F939F93809101027D
:102E900081FF1AC08091840090918500109281007A
:102EA0008B3B2CE3920720F4809166008F5F06C075
:102EB00088359D4328F0809166008150809366009C
:102EC000809101028D7F0EC08091010282FD0CC0B5
:102ED000109285001092840082E08093810080919E
:102EE00001028260809301028091010281608093DF
:102EF00001029F918F912F910F900FBE0F901F9005
:102F000018950F931F93CF93DF9300D01F92CDB7E7
:102F1000DEB78C01FA01808191814A835B836983EA
:102F20000E949C124A815B816981C8010F900F90B9
:102F30000F90DF91CF911F910F910C945701FC01DD
:102F400020812F3401F128F42134B9F0293431F4EF
:102F50001AC02035E1F0233509F415C0FC01818148
:102F6000873559F028F4823491F0843461F409C033
:102F7000843629F0873739F408C082E0089584E860
:102F8000089584E0089580E0089582E8089581E03E
:102F90000895FF920F931F93CF93DF938C016111DC
:102FA0001EC0E6E0F2E040E050E012C0801791075A
:102FB00049F48CE0849F9001859F300D11242E5F91
:102FC0003D4F31C04F5F5F4F3C964C30510549F14A
:102FD000808191818F3F2FEF920741F722C06130AE
:102FE00001F5C0E0D0E08CE0F82EFC9EB001FD9E23
:102FF000700D11246E577F4F4CE050E084E992E051
:103000000E94901E809198029091990280179107DA
:1030100029F02196C630D10541F703C024E932E0FA
:1030200002C020E030E0C901DF91CF911F910F91E4
:10303000FF900895BF92CF92DF92EF92FF920F938D
:103040001F93CF93DF9300D000D0CDB7DEB7B82E5B
:1030500000E010E0C82ED12C8CE0B89E7001112445
:1030600082E092E0E80EF91EBE016F5F7F4FC8015B
:103070000E94A30044E050E0B701CE0101960E94F7
:10308000991E009771F48FEF89838A838FEF9FEFEA
:103090009C838B83BE016F5F7F4FC8010E94AA0093
:1030A00006C00C5F1F4F90E000331907E9F62CE0D3
:1030B0002C9DC0012D9D900D11248E5F9D4F0E946F
:1030C000B3106CE00DC0629FD001639FB00D11245E
:1030D000AE5FBD4F862F01900D928A95E1F7B394B4
:1030E0008AE08B1558F49CE0B99EF0011124EE5F44
:1030F000FD4F8FEF9FEF9583848311C02B2D30E020
:10310000C9010196689FF001699FF00D1124EE5FDF
:10311000FD4F448155814F3F5F4FA9F6E4CF0F909B
:103120000F900F900F90DF91CF911F910F91FF9013
:10313000EF90DF90CF90BF900895E6E0F2E020E0BE
:1031400030E080819181019659F48CE0829FF001FA
:10315000839FF00D1124EE5FFD4F1582148208C08D
:103160002F5F3F4F3C962C30310559F7E0E0F0E0FF
:10317000CF0108956F927F928F929F92AF92BF92EC
:10318000CF92DF92EF92FF920F931F93CF93DF9333
:10319000CDB7DEB728970FB6F894DEBF0FBECDBF10
:1031A0008C01FC0187818D8380858E83918120E055
:1031B00030E03996402F40955AE01CC08191682F2D
:1031C00060536A3068F038872F835E01F5E0AF0EF8
:1031D000B11CC5010E944F10982E882381F096C023
:1031E000B901569F9001579F300D1124205331098A
:1031F000280F311D842F8E0F891700F3E4CFF801BB
:10320000E380F480FE24EF24FE2426E0C22E22E098
:10321000D22E00E010E03CE0832E7A2C6B2C20C0F4
:10322000809EB001819E700D11246E5F7D4F44E041
:1032300050E0872D962D0E94991E009709F464C0D6
:10324000AE14BF0421F4E114F10409F056C00F5F7D
:103250001F4FFCE0CF0ED11C0C30110509F44DC0FE
:10326000F601A080B180FFEFAF16BF06C9F648C0D7
:103270008CE0809F6001819FD00C112462E072E09D
:10328000C60ED71E4D815E816F817885F601408321
:10329000518362837383C6010E941F0F982E811190
:1032A0002CC0F601F582E48200E010E0BE016F5F01
:1032B0007F4FC8010E94A30044E050E0BE016F5F51
:1032C0007F4FCE0105960E94991E0097F9F08981E3
:1032D00081508E3F38F0BE016B5F7F4FC8010E9466
:1032E000AA0014C00C5F1F4FF0E000331F07F1F677
:1032F0000DC0802F0E941A1809C092E0992E06C0B6
:10330000E114F104D1F3B4CFEF2899F3892D289675
:103310000FB6F894DEBF0FBECDBFDF91CF911F91E6
:103320000F91FF90EF90DF90CF90BF90AF909F9064
:103330008F907F906F900895E0919202009749F0EE
:103340002CE0E29FF0011124EE5FFD4F9583848312
:103350000895EC3018F48E2F0E941A1810929202E1
:103360000895AF92BF92DF92EF92FF920F931F9357
:10337000CF93DF931F92CDB7DEB7D62E7A018901A6
:1033800063700E94C9175C01009709F454C0DC0106
:103390001696ED91FC911797309709F44EC0A8014D
:1033A000B7010995482FD7FE49C0811147C0C50113
:1033B00049830E949F17498187FF1DC08F7718C0DE
:1033C0009801280F311DF90131979081911108C0A2
:1033D000F9013297908197FF0AC0F70180832EC0D0
:1033E0009F3FD9F7F9013297908197FFF6CF81502F
:1033F000823030F7F2CF882309F1F801E80FF11D90
:10340000DF0111979C9197FF04C010828F5F10C05D
:103410008150813069F09801280F311DF9013197F1
:103420009081911105C0F9013297908197FFF0CFFB
:10343000D7018C9303C042E001C043E0842F0F907A
:10344000DF91CF911F910F91FF90EF90DF90BF9090
:10345000AF900895CF93DF9300D01F92CDB7DEB722
:10346000109292028FE380939302E6E0F2E0808173
:1034700091810196A1F40E94891C82E08B839E01B8
:103480002F5F3F4FAE014D5F5F4F61E081E09FEFE7
:103490000E94B11989819A810E949C1208C01182F0
:1034A00010823C9682E0E639F80709F7E4CF0F90E6
:1034B0000F900F90DF91CF910895EF92FF920F93AD
:1034C0001F93CF93DF93E62EF42E890163700E9441
:1034D000C917EC01009749F188859985892B39F145
:1034E000E7FE17C0CE010E949F178F77F81678F479
:1034F000F801EF0DF11D31979081990F990BF801AB
:10350000EF0DF11D9083F394F812F9CF02C08111F1
:10351000F82EE885F985A8016F2DCE01DF91CF91B6
:103520001F910F91FF90EF90099482E001C083E01A
:10353000DF91CF911F910F91FF90EF900895EF923F
:10354000FF920F931F93CF93DF9300D000D0CDB79E
:10355000DEB781E08B839E012C5F3F4FAE014D5F54
:103560005F4F61E080E09FEF0E94B1191C811F3F17
:1035700009F041C01C829E012C5F3F4F40E061E09A
:1035800080E09FEF0E945D1A1C839E012C5F3F4FDD
:1035900041E061E080E19FEF0E945D1A1C829E0184
:1035A0002C5F3F4F40E061E080E09FEF0E945D1A9A
:1035B00084ED9DE29A8389839E012F5F3F4F42E015
:1035C00061E081E19FEF0E945D1A8CE08C839E0197
:1035D0002C5F3F4F41E061E082E19FEF0E945D1A66
:1035E0001A8219829E012F5F3F4F42E061E081E025
:1035F0009FEF0E945D1A20E03CE08FEF9FEF329F2B
:10360000F0011124EE5FFD4F958384832F5F2C30F2
:10361000B0F32C83109292028FE3809393020E9466
:103620005D0C1C82F12C4CE0E42E1FC0EF9C80014D
:1036300011240E5F1D4F24E0829FC0011124B801A8
:10364000805090400E94A300F801808181508E3FFD
:1036500048F4C8010E941F0F811104C0F8011582AF
:103660001482F3948C818F5F8C838C818C30F0F288
:103670000E94AD0C0F900F900F900F90DF91CF91A3
:103680001F910F91FF90EF900895EF92FF920F938B
:103690001F93CF93DF931F92CDB7DEB76CE0E62E7A
:1036A00040C00115110541F50E944C118C01009795
:1036B00009F45FC080919202F89EC0011124B80104
:1036C0008E5F9D4F0E942F118983A801682F80E093
:1036D00090E00E94331381110BC0E0919202FE9E94
:1036E000F0011124EE5FFD4F80E090EF958384831D
:1036F000C8010E946C113DC0011580EF1807C9F187
:103700001A96ED91FC911B97309731F480919202BB
:103710008F5F8093920205C0CD0109958823B1F394
:103720002AC0A0919202AC3080F45CE0F52EEA9EB3
:10373000D0011124AE5FBD4F14960D911C911597C9
:103740000F3F8FEF180709F0ACCF109292028091D3
:103750009302882371F0815080939302811109C0F4
:1037600083E28983AE014F5F5F4F61E080E20E9498
:10377000F8120FEF1FEFC8010F90DF91CF911F914B
:103780000F91FF90EF9008952A981C99FECF8EBD5F
:103790000DB407FEFDCF2A9A08952A981C99FECFF2
:1037A0008EBD0DB407FEFDCF6EBD0DB407FEFDCF7F
:1037B0002A9A08951EBC0DB407FEFDCF8EB508955C
:1037C0002A981C99FECF8EBD0DB407FEFDCF0E9436
:1037D000DA1B2A9A08951F920F920FB60F921124A6
:1037E000EF92FF920F931F932F933F934F935F930B
:1037F0006F937F938F939F93AF93BF93CF93DF93F9
:10380000EF93FF9385EF0E94E01B9091A00295300B
:1038100061F0973009F450C0933009F051C08D30F9
:1038200009F04EC0299A85E05BC0813009F048C09C
:103830008BEF0E94E01BC82F8BEF0E94E01BC81388
:10384000FACF2C2F2F7730E027303105CCF1C7FD90
:1038500037C0C232A8F58CEFF82EFC0E0E944C1136
:10386000EC01009769F12A981C99FECF8FEF8EBD6D
:103870000DB407FEFDCF0E94DA1B0E94DA1BEC2E6E
:103880000C2F1D2F05C00E94DA1BF80181938F01B8
:10389000802F8E198F15B8F30E94DA1B0E94DA1B55
:1038A0002A9A87FF05C0D093A202C093A10208C044
:1038B000CE010E946C1104C0833111F488E010C065
:1038C00085B18C7F85B986E30E94C41B8BE30E947F
:1038D000C41B8AE30E94C41B84E30E94C41B83E0D0
:1038E0008093A002FF91EF91DF91CF91BF91AF91B3
:1038F0009F918F917F916F915F914F913F912F9108
:103900001F910F91FF90EF900F900FBE0F901F909F
:103910001895CF93DF9300D000D01F92CDB7DEB7BC
:1039200082E08B839E012F5F3F4FAE014D5F5F4F63
:1039300061E081E19FEF0E94B1199E012C5F3F4F32
:10394000AE014D5F5F4F61E080E19FEF0E94B119D2
:103950009E012B5F3F4FAE014D5F5F4F61E082E103
:103960009FEF0E94B1192091A3023091A40221156A
:10397000310569F089819A812817390741F0692F4B
:1039800084E00E94CD1B698185E00E94CD1B898166
:103990009A819093A4028093A3028091A502882328
:1039A00031F06C81861719F089E00E94CD1B8C8163
:1039B0008093A5026D816695669566956D8380916D
:1039C00000018F3F29F0861719F08AE00E94CD1B75
:1039D0008D81809300010F900F900F900F900F90AA
:1039E000DF91CF910895CF93DF931DBA84E185B91C
:1039F0008FE284B980E58CBD81E08DBD52985A9AE2
:103A0000809369008DE08A95F1F700002A988AE199
:103A10008A95F1F700C02A9A8AE68A95F1F700C0E4
:103A20002A981C99FECF80E38EBD0DB407FEFDCF12
:103A30001C99FECF2A9AC0E0D0E0CE01880F991FD2
:103A4000FC01EA52FF4F6491FC01EB52FF4F84915D
:103A50000E94CD1B2196C931D10579F7C091A302EF
:103A60006091A40284E00E94CD1B6C2F85E00E942F
:103A7000CD1B6091A50289E00E94CD1B60910001E1
:103A80008AE00E94CD1B60E58EE30E94CD1B82E0A0
:103A90008093A0021092A2021092A10281E08DBB3D
:103AA000DF91CF910895CF93C82F8A3049F486E3F0
:103AB0000E94C41B89E30E94C41BC093A00208C0DB
:103AC0008B3031F486E30E94C41B82E08093A00215
:103AD000CF9108958091A50208952091A10230917F
:103AE000A2022115310521F01092A2021092A1022A
:103AF000C90108958091A002833011F080E00895FB
:103B000088EF0E94E01B84FFF9CF289A86E30E9489
:103B1000C41B8BE30E94C41B81E00895FC0141811A
:103B20009C012F5F3F4F2A981C99FECF5FE75EBD37
:103B30000DB407FEFDCF542F5E5F5EBD0DB407FED2
:103B4000FDCFFC0150815EBD0DB407FEFDCF50914D
:103B5000A5025EBD0DB407FEFDCF522FF90105C0D1
:103B600021912EBD0DB407FEFDCF2E2F251B24174E
:103B7000B8F32A9A0E946C1185E30E94C41B87E067
:103B80008093A00208958091A002823079F486E3A8
:103B90000E94C41B8BE30E94C41B8AE30E94C41BC7
:103BA00084E30E94C41B83E08093A0020895609187
:103BB000A5020E94DD1D82E00895262F22952F7018
:103BC0002A3010F0295C01C0205DFC0120836F7059
:103BD0006A3010F0695C01C0605DFC01618382E0C5
:103BE0000895FC0181E020E137E240E090E004C06C
:103BF000621B730B9F5F41E062177307C8F7283E93
:103C000053E0350789F0203157E2350721F024369B
:103C1000310539F403C028EE33E008C02AE030E073
:103C200005C021E030E002C024E630E0442329F062
:103C3000905D91938F5F41E090E02A303105E0F68E
:103C4000605D60830895DB018F939F930E94711ED6
:103C5000BF91AF91A29F800D911DA39F900DB29F28
:103C6000900D11240895A1E21A2EAA1BBB1BFD0181
:103C70000DC0AA1FBB1FEE1FFF1FA217B307E4074B
:103C8000F50720F0A21BB30BE40BF50B661F771FA3
:103C9000881F991F1A9469F7609570958095909583
:103CA0009B01AC01BD01CF010895052E97FB16F4D1
:103CB000009407D057FD0DD00E94331E07FC09D099
:103CC0007EF490958095709561957F4F8F4F9F4FB3
:103CD000089550954095309521953F4F4F4F5F4F38
:103CE00008950E94841EA59F900DB49F900DA49FDF
:103CF000800D911D11240895B7FF0C94711E0E9430
:103D0000711E821B930B0895A29FB001B39FC00147
:103D1000A39F01D0B29F700D811D1124911D0895A4
:103D2000FB01DC0102C005900D9241505040D8F7D4
:103D30000895FB01DC0104C08D910190801921F4EC
:103D400041505040C8F7881B990B0895FB01DC01D6
:103D500002C001900D9241505040D8F70895DC0107
:103D6000CB01FC01F999FECF06C0F2BDE1BDF89A86
:103D7000319600B40D9241505040B8F70895F9992A
:103D8000FECF92BD81BDF89A992780B50895DC01D8
:103D9000CB0103C02D910E94D21E41505040D0F75C
:103DA0000895262FF999FECF1FBA92BD81BD20BD7F
:103DB0000FB6F894FA9AF99A0FBE01960895F894FE
:023DC000FFCF33
:0A3DC200FF00FFFFFFFFFFFFFF01FE
:00000001FF
