:020000040800F2
:10000000002000205D700008AD700008AD70000891
:1000100000000000000000000000000000000000E0
:10002000000000000000000000000000AD700008AB
:100030000000000000000000AD700008412800082A
:10004000AD700008AD700008AD700008AD7000081C
:10005000AD700008AD700008AD700008AD7000080C
:10006000AD700008AD700008AD700008AD700008FC
:10007000AD700008AD700008AD700008AD700008EC
:10008000AD700008AD700008AD700008AD700008DC
:10009000AD700008AD700008AD700008AD700008CC
:1000A000A11F0008AD700008AD700008AD70000819
:0C00B000AD700008AD700008AD700008D5
:1000BC0010B5064C2378002B07D1054B002B02D032
:1000CC00044800E000BF0123237010BD3400002061
:1000DC00000000002C710008084B10B5002B03D059
:1000EC000749084800E000BF07480368002B00D10F
:1000FC0010BD064B002BFBD09847F9E70000000021
:10010C00380000202C710008340000200000000092
:10011C00002243088B4274D303098B425FD3030A3A
:10012C008B4244D3030B8B4228D3030C8B420DD34D
:10013C00FF22090212BA030C8B4202D312120902DB
:10014C0065D0030B8B4219D300E0090AC30B8B4219
:10015C0001D3CB03C01A5241830B8B4201D38B03C7
:10016C00C01A5241430B8B4201D34B03C01A52416C
:10017C00030B8B4201D30B03C01A5241C30A8B42AF
:10018C0001D3CB02C01A5241830A8B4201D38B029A
:10019C00C01A5241430A8B4201D34B02C01A52413E
:1001AC00030A8B4201D30B02C01A5241CDD2C309B0
:1001BC008B4201D3CB01C01A524183098B4201D32C
:1001CC008B01C01A524143098B4201D34B01C01A17
:1001DC00524103098B4201D30B01C01A5241C3088F
:1001EC008B4201D3CB00C01A524183088B4201D3FE
:1001FC008B00C01A524143088B4201D34B00C01AEA
:10020C005241411A00D20146524110467047FFE755
:10021C0001B5002000F0F0F802BDC0460029F7D06F
:10022C0076E7704703460B437FD4002243088B428A
:10023C0074D303098B425FD3030A8B4244D3030B61
:10024C008B4228D3030C8B420DD3FF22090212BA26
:10025C00030C8B4202D31212090265D0030B8B42A2
:10026C0019D300E0090AC30B8B4201D3CB03C01A8C
:10027C005241830B8B4201D38B03C01A5241430B67
:10028C008B4201D34B03C01A5241030B8B4201D357
:10029C000B03C01A5241C30A8B4201D3CB02C01AC2
:1002AC005241830A8B4201D38B02C01A5241430A3A
:1002BC008B4201D34B02C01A5241030A8B4201D329
:1002CC000B02C01A5241CDD2C3098B4201D3CB01D0
:1002DC00C01A524183098B4201D38B01C01A52417F
:1002EC0043098B4201D34B01C01A524103098B4283
:1002FC0001D30B01C01A5241C3088B4201D3CB006E
:10030C00C01A524183088B4201D38B00C01A524150
:10031C0043088B4201D34B00C01A5241411A00D200
:10032C0001465241104670475DE0CA0F00D0494269
:10033C00031000D34042534000229C4603098B42D9
:10034C002DD3030A8B4212D3FC22890112BA030A61
:10035C008B420CD3890192118B4208D389019211E3
:10036C008B4204D389013AD0921100E08909C30968
:10037C008B4201D3CB01C01A524183098B4201D36A
:10038C008B01C01A524143098B4201D34B01C01A55
:10039C00524103098B4201D30B01C01A5241C308CD
:1003AC008B4201D3CB00C01A524183088B4201D33C
:1003BC008B00C01A5241D9D243088B4201D34B0057
:1003CC00C01A5241411A00D20146634652415B1099
:1003DC00104601D34042002B00D54942704763467A
:1003EC005B1000D3404201B5002000F005F802BDBF
:1003FC000029F8D016E770477047C046F0B55F4645
:10040C0056464D464446F0B489B0954B1A68802147
:10041C0049020A431A601B689B0301D501F08BFA51
:10042C0000238F4880218902A022D2010133046865
:10043C000C4203D19342F9D101F073FA1121894A8C
:10044C00116087494868884A02404A60874A93424B
:10045C0006D8834A5368882149030B4353600CE048
:10046C007F4B1968824A1140196059680A405A60DA
:10047C005A68A02189030A435A607E4B7E4A136056
:10048C007E4A13607E4A1360754A136880214904C2
:10049C000B43136080239B0411681942FCD0704BF2
:1004AC005A6803218A435A60596802220A435A60E7
:1004BC0019000C224B681340082BFBD1684BDA69EE
:1004CC00802149050A43DA616E490A6880204000A0
:1004DC0002430A601B6A1B042AD4614B1B6ADB07AC
:1004EC0008D45F4B1A6AC0239B00134080229200F1
:1004FC00934209D05A4B1A6A802149020A431A6264
:10050C00196A5B4A0A401A62554A516A01230B4325
:10051C0053620223516A0B42FCD0514B1A6A802160
:10052C0089000A431A621A6A802109020A431A6274
:10053C004B4A516A01230B4353620223516A0B420B
:10054C00FCD0514BCA225A62773A5A62DB68DB06FE
:10055C0014D44D4AD16880230B43D3604023D16817
:10056C000B42FCD0484B494A1A61DA6880218A4315
:10057C00DA601A008023D1680B42FCD1384B5A69DF
:10058C00BC21C9030A435A61596940220A435A6182
:10059C0001223F4B9A6000213E4B196006323E4BC4
:1005AC00083393433D4A136051603D4A1160FF216B
:1005BC00C900516059601A603A4E3B4C294B9A461F
:1005CC003A4B994604E08023DB009C466444664425
:1005DC0053463422DA602788354B9F4211D1A30A47
:1005EC009B021A68013201D101F0E9F901F0ADF971
:1005FC001168013101D001F0A8F904329A42F7D107
:10060C0058E0FF233A009A4302D0FBB2052B03DDDE
:10061C00200002F0BFF94DE04E454ED83B0AFF2BAF
:10062C0000D100239BB298463500FF239B462B88B4
:10063C003A005A40594611420BD11B0AFF2B05D0E8
:10064C00434503D9280002F0A5F902E0200002F08E
:10065C00A1F98023DB009C4665444D45E7D9B2E700
:10066C0000100240002002400FF8C3FFFF4F0000B3
:10067C00FFFFFEFF006CDC021000002014000020C5
:10068C001800002000700040002800403F017C0052
:10069C000030024094000020A8000020E00D002053
:1006AC00840F002000E4000800E00008FFFF0008B1
:1006BC00FFFF00004E4500D885E7002204AB5A71BD
:1006CC000232002106A802F0E5FADA4908000A30E5
:1006DC0000230A789B189BB201318142F9D107AAF9
:1006EC0013800A2104AA517106AA12889A4244D096
:1006FC0004AB0633FF241C7001220939CE4806F0E6
:10070C0039FA04AB07331C7001220121CB4806F0E7
:10071C0031FA06AECA4B3380330002220121C9489C
:10072C0006F028FA04AB5D1D0C232B702B00012264
:10073C000121C54806F01EFA5023338033000222F3
:10074C000121C24806F016FA2C70012289212800DA
:10075C0002F0B0F901228D21280002F0ABF9002340
:10076C002B702B0000220121FF20000206F002FA60
:10077C000222002107A802F09DF9B54B1D0091350E
:10078C00FF35012252421A801433AB42FBD11422A2
:10079C0006AB1A800022AF4B1A80AF4C2034AE4B04
:1007AC0004C39C42FCD1AD4F00233B80AC4E338044
:1007BC00AC480380AC490B80AC4A13807B807380BF
:1007CC0043804B805380AA4EFF20AA4900229855A3
:1007DC005F007A5201330A2BF9D1A74B00221A7011
:1007EC005A7001F03DFB1A2001F00EFB1B2001F0AA
:1007FC000BFB0222C0210901A04801F071FD8023EE
:10080C001B029E4EC0200001190032690240824238
:10081C0010D001339BB2002BF7D10022C02109016B
:10082C00964801F05DFD1A2001F0D8FA1B2001F06A
:10083C00D5FA2EE08B4201D901F08CF8013B9BB22A
:10084C00002BE2D18A225200C02109018B4801F011
:10085C0047FD8B4BD9698020C0030143D9611A69CC
:10086C0002431A611969874A0A401A61864B874A02
:10087C001A6101221A60864BC62189005A58FF2042
:10088C0082435A50802252041A60824B1868002806
:10089C0004D1814F00260023994605E006F0E6F9C5
:1008AC0000227C4B1A60F4E7300001F057FEBA4688
:1008BC003B689846002B0AD05868002801D006F0F7
:1008CC00D5F9404606F0D2F953464A461A6001362D
:1008DC00F6B20437022EE7D1704B9A88704B9A42CD
:1008EC0007D0704B01226E4811001E88864227D11A
:1008FC0000E00021694E8B005A189200B2180025B6
:10090C009580694890606948D060694810615818B2
:10091C008000702787556120507055800122654BEF
:10092C001A70654B00221A70644B1D60644D0422D2
:10093C008521280002F0AEF92B68013308D104E0C0
:10094C0001321433AB42CFD105E000225C4B1A606C
:10095C005C4805F043FC002206AB1A8000230026FD
:10096C004E4A904604E00136B6B2142E01D135E061
:10097C004B493700B20092199200424492888A4245
:10098C00F1D1B20091469519AD00444A94466544A4
:10099C0099001E3189B20422280002F07BF94B46E3
:1009AC009B199B003D4A9B5C013BDBB2FD2B0ED897
:1009BC00280005F035FC002809D10136B6B24B46AB
:1009CC00DB199B00354A9446634400229A8006AAA0
:1009DC00138801339BB21380132BC9D901F00CFD82
:1009EC0006F05CF908220421244801F079FC00226D
:1009FC00354B1A70354B1868FA218900FFF788FBC4
:100A0C000238334B984213D8324A506032490B6A41
:100A1C001B021B0AC020000603430B6200239360D9
:100A2C000733136062B6284B9A462C4B9B4657E013
:100A3C00FEE7C046B073000810FF000014FF000072
:100A4C00D42D000011FF000012FF000008FF000071
:100A5C00F80D00205E000020A8080020880000206F
:100A6C00C80800205400002090000020A4000020A2
:100A7C00740000206000002050000020000400489A
:100A8C0000100240FFFFBFFF005800405D3E3020C9
:100A9C0000E100E0580000209C000020F40D002034
:100AAC00FFFF00000C0E0020F9320008F93400089A
:100ABC00BD3600081C0000205C000020CC08002083
:100ACC0084000020453500088C0000201000002018
:100ADC00FFFFFF0010E000E000ED00E0DD0D002066
:100AEC00C74B1B78002B00D1B5E28022D202C54B3C
:100AFC009A6153461B78013BDBB252461370C24DD0
:100B0C002B68002B00D098470435A542F8D15B46E2
:100B1C001B78052B3BD1BD4B1B88132B01D800F048
:100B2C0022FF0022B94B1A8000F01DFF8B005B18CE
:100B3C009B00F3189D88002D05D1C9B200220A2014
:100B4C0006F058F917E0B24B9D4214D08B005B189D
:100B5C009B00FB181B69002B0DD0880040188000EF
:100B6C00AC4A944660449847002804D02A002021BF
:100B7C000C2006F03FF9A54B1988013189B2198078
:100B8C00A54B1B78162B60D11329CFD95DE0042B14
:100B9C0058D19E4B1988132918D88B005B189B00D1
:100BAC009C4AD3189A889A4B9A420AD09A4B1B7833
:100BBC00162B01D000F0DCFEC9B20A2006F01AF99F
:100BCC0043E00131914B198000F0D2FE904B9942D9
:100BDC002CD0924B994204D8F92252428B4B1A805A
:100BEC0006E08F4B994203D840225242874B1A8021
:100BFC00894B1B78162B01D000F0BAFE834B1D8855
:100C0C000121280005F074FF002809D02A003121A9
:100C1C000C2006F0EFF87D4A13880133138014E0A2
:100C2C0001225242794B1A8000F0A2FE7A4B1B78BB
:100C3C00162B01D000F09CFE00222021122006F081
:100C4C00D9F802E00022714B1A80764B1B88002BDE
:100C5C0006D0013B9BB2734A1380002B00D0FAE103
:100C6C00714B1A78052A00D9F5E193006F4AD358D5
:100C7C009F466F4B1B78002B08D0013BDBB26C4AB4
:100C8C001370654A12780C2A31D106E00122654BAB
:100C9C001A800022644B1A70DDE10322D31A9BB236
:100CAC000C21594389B2980018188200801880B220
:100CBC0005F0B0FF5B4B18805E4B1D682B7A6022F1
:100CCC001340202B0FD1382006F042F80500594E66
:100CDC003822316806F01BFA3268137A80214942B7
:100CEC000B431372B4E116224B4B1A70B0E10A2A73
:100CFC0018D1073AD31A9BB20C21594389B29800E8
:100D0C0018188200801880B205F084FF454B1880BB
:100D1C00382006F01DF80500464B1968382206F0FD
:100D2C00F6F995E1382006F013F80500043001229D
:100D3C00414906F0ECF902236B71AB711433EB7182
:100D4C003E4A384B1A8083E101F056FB05F0A6FFB2
:100D5C000A22344B1A807EE1354B1B78002B26D0AF
:100D6C00013BDBB2324A13700321C91AFA2252003A
:100D7C005143643189B20420C01A424390B205F049
:100D8C0049FF284B1880382005F0E2FF05002C4B5A
:100D9C009A682C4B1A601A682B4B1A8001222B492B
:100DAC002B4806F0A5F90026002815D111E0294B97
:100DBC001B78022B06D80133264A137003221C4BD6
:100DCC001A7048E1244A174B1A800022164B1A70ED
:100DDC0041E10123EB720126281D01221F4906F077
:100DEC0096F94323EB711B4B1B782B72164B1B880C
:100DFC001A0A6A72AB720536F3B26B71AB7127E1EA
:100E0C008C00002000040048A80800205E00002090
:100E1C00FFFF0000F40D0020D80D002006FF00009D
:100E2C00BFFF0000F20D0020DD0D00204471000812
:100E3C00DC0D0020EC0D00208C0F00203075000024
:100E4C0010E000E000300240DA0D0020A88000081D
:100E5C00F00D0020E80D0020B80B0000DC7300083A
:100E6C00D94B1B78002B23D0013BDBB2D64A137035
:100E7C000326F11AFA2252005143643189B204203C
:100E8C00C01A424390B205F0C5FED04B18803820F2
:100E9C0005F05EFF050004300122CD4906F037F95C
:100EAC006E71AE710123EB71CA4B1B782B72CFE0C4
:100EBC00C84B1B78022B06D80133C64A1370032289
:100ECC00C14B1A70C7E0C44AC04B1A800022C34BF6
:100EDC001A70C0E0BC4B1B78002B54D0013BBA4AB3
:100EEC0013706421FA20400005F094FEB74B188073
:100EFC00382005F02DFF050004300122B84906F01A
:100F0C0006F90423EB712B72033B6B72AB722B3320
:100F1C00EB722F000C3707AE153B33703B003200E1
:100F2C000121FF20000205F039FE3378012B25D872
:100F3C0007AE062333703B0032000121A94805F0AF
:100F4C002DFE3278531CF9185F20B8543370A64B21
:100F5C001B781A0910003030092A01D937321000D9
:100F6C0008700F2213401A003032092B01D9373385
:100F7C001A004A7007AB1B780233DBB20633DBB2C4
:100F8C006B71AB7164E00022984B1A800132914B6B
:100F9C001A7002328C4B1A706421FA20400005F052
:100FAC0039FE8A4B188002228C4B1A7053E0864B08
:100FBC001B78002B1AD0013BDBB2834A137003223F
:100FCC00D31A9BB20C21594389B29800181882008D
:100FDC00801880B205F01EFE7C4B1880844B1B7869
:100FEC0019000A39F722114211D106E00122774B80
:100FFC001A800022794B1A702DE0382005F0A8FEDB
:10100C0005007C4B1968382206F081F820E00C2B87
:10101C001AD1784B1D682B7A60221340202B0FD1EC
:10102C00382005F095FE0500724E3822316806F026
:10103C006EF83268137A802149420B43137207E031
:10104C0016226B4B1A7003E01622694B1A7002E0E1
:10105C00280001F03BFCF52001F0DCF801287FD1E1
:10106C00F73001F0D7F8030670D50422624B9A6171
:10107C001025FF27FB2001F0CDF80300013DEDB258
:10108C00B84203D00700002DF4D105E0002D03D0A9
:10109C00073BDBB22B2B06D93A2001F0F1F83420B8
:1010AC0001F0EEF81CE5382005F052FE05007E1F1D
:1010BC00F6B24671802252014F4B9A62190080227F
:1010CC00D2010B691342FCD1FF21022001F094F8EC
:1010DC000021022001F090F80021022001F08CF890
:1010EC000021022001F088F82871002E0CD0AE1DD2
:1010FC00063FFFB20737EF190021022001F07CF800
:10110C0030700136B742F7D10021022001F074F89B
:10111C000021022001F070F880225201364B9A61B6
:10112C00030609D4280005F0A1FD3A2001F0A8F827
:10113C00342001F0A5F8D3E43A2001F0A1F83420D2
:10114C0001F09EF8002D00D0A8E0C9E43B2001F08E
:10115C0097F83A2001F094F8342001F091F8BFE4AC
:10116C000D2800D0BCE4254B5B7A002B00D1B7E4F2
:10117C000422214B9A61224B1B78002B0DD0214A63
:10118C001268D2B220490978914200D1A8E41E49D4
:10119C000A70013B1A4A1370A2E4F82001F03AF8E5
:1011AC00C30639D4194B1B78002B35D0013B174A99
:1011BC001370174B9A68174B1A601B680722134061
:1011CC0003330F4A13708BE4DC0D0020F20D00206A
:1011DC00DC730008E80D0020B80B0000DD0D0020CA
:1011EC008C0F0020C0FF0000F00D0020DA0D002055
:1011FC00D80D0020EC0D0020000400480400002055
:10120C007E000020800000209800002000000020BC
:10121C0010E000E0003002400022BD4B1A70053295
:10122C00BC4B1A70BC4805F007FD071E00D157E4F3
:10123C00467980225201B94B9A6219008022D20160
:10124C000B691342FCD17F21022000F0D5FFB11CA9
:10125C00C9B2022000F0D0FF3979022000F0CCFF97
:10126C00AF4B1978022000F0C7FF002E0BD0BD1D2C
:10127C00013EF6B20736BE192978022000F0BCFFF9
:10128C000135B542F8D180225201A44B9A61380045
:10129C0005F0ECFC352000F0F3FF21E42E1D0122BB
:1012AC00A049300005F024FFEB79442B00D933E33F
:1012BC009B009D4AD3589F469C4B1B78022B00D019
:1012CC002AE301223100974805F021FF0122984BB7
:1012DC001A700326954B1E706421C82005F09AFCE9
:1012EC00944B1880944B1E7016E3904B1B78022B7A
:1012FC0000D011E3904B18780321091AFA235B00F4
:10130C005943643189B20422101A434398B205F050
:10131C0081FC884B1880FFE2844B1B78022B00D099
:10132C00FAE2012231007F4805F0F1FE03267F4BE3
:10133C001E706421C82005F06DFC7E4B18807E4B1E
:10134C001E70E9E2002800D0E6E22B7A002B00D0D8
:10135C00E2E2764B1B78032B00D0DDE20422734BC8
:10136C001A70C432734B1A80C53A734B1A70D3E29D
:10137C006E4B1B78052B00D0CEE2002801D0FFF776
:10138C00AFFB6E4B1B78162B02D1C822694B1A800F
:10139C002F7B06AB1F706A7B5A70A9790E00093E31
:1013AC00F3B298460326042B00D934E1082900D166
:1013BC00E6E22E000F36A97B30235B429C468C4420
:1013CC006346092B00D91AE1B446464400238846EB
:1013DC00614694460200080006E001788846013018
:1013EC003039092900D90CE199005B185B004344A2
:1013FC00303B9BB2B042F0D110006246C1E26E3A73
:10140C00FD210A4207D1FF200F2B01D84C4AD05C9A
:10141C00FF38431E98410123184048E06E3AFD21E5
:10142C0003260A4200D0F6E00F2B00D9F3E0444922
:10143C00C95CFF2900D1EEE01F2B00D9EBE05B006B
:10144C00404A985AFF38431E9841C0B22FE0762A82
:10145C0005D1180000F020FD0238431E98410123ED
:10146C00184024E01909C9B20F2003400326012BB0
:10147C0000D9D0E0042900D9CDE0723AFD231A42FC
:10148C0000D0C8E017E0423AD1B238290ED88A0011
:10149C002D498A5897465B0902E09B0800E05B08DF
:1014AC0000200F229A424041C0B200E000200326E7
:1014BC00002800D1AFE02F7A3B026F7A1F43234BF9
:1014CC009846234B0093002699464346B8462F0076
:1014DC001D000195AB884B4504D1009B4B450DD1AC
:1014EC0000960BE00422290006A805F001FE002856
:1014FC0030D0019B9B88434500D184E00136B6B2C5
:10150C001435142EE5D13D004746009E24E0C0461C
:10151C007E00002000000020040000200004004891
:10152C00F00D00208C0F00205C710008DD0D0020F8
:10153C00E80D0020F20D0020DC0D0020D80D00205D
:10154C00A0730008BC73000870720008F40D002032
:10155C00FFFF00003D004746C94B9E4256D0B046A7
:10156C00B3009B199B00C74AD3189A88C44B9A4264
:10157C0035D102269F424ED0C24843469B0042467C
:10158C009A18920006991150101804F049FE061E84
:10159C003ED143469B0043449B00BA4AD3189F80DC
:1015AC001E2707AB984604223900404601F072FB17
:1015BC000422414606A805F09BFD00282BD043468B
:1015CC001B78013BDBB2FD2B05D90422390006A8A0
:1015DC0001F070FA1FE004376E2FE4D11BE0A84B2A
:1015EC009F4204D1F0B205F0EFF8002613E0B300EF
:1015FC0043449B00A34AD3189F8000260BE003268C
:10160C0009E0032607E03D00022604E0012602E083
:10161C00022600E003262E7307236B71AB71043393
:10162C00EB71280001F052F9FFF75AFA002800D0AC
:10163C0072E1954B1B78043B012B00D96CE1934B69
:10164C001B780A2B00D067E1914B186842896B8993
:10165C009A4200D060E105F009FB16228B4B1A7000
:10166C002B7B002B07D12A7A13026A7A1A43844BFC
:10167C009A4201D109E00022864B1B889900CB18B5
:10168C009B008049CB189A8003E0824B187805F0B8
:10169C009BF8804A138801331380C8227E4B1A8032
:1016AC00C53A7E4B1A7037E1002800D034E1764BF6
:1016BC001B78052B00D02FE12B7A190000936B7A45
:1016CC001B02AA7A13431BB202939BB20193EB7ACF
:1016DC001B022A7B13431BB203939FB24BB2002B0A
:1016EC0003DA6F4B1B88BB4234D00099019805F08C
:1016FC00FFF98046002827D0C368002B26D0AE798E
:10170C00073EF6B20D239946A94405F0C9F97F238B
:10171C00184086420ED24B469B19013B1B78DB09C5
:10172C005B42DBB24946721C8B55D6B2B042FAD141
:10173C0089460600002800D006004346DB684A466E
:10174C0031004046984702E0022000E00320287355
:10175C00534B1F806023009A1340202B00D0DBE0FA
:10176C004A4B1B78162B02D1C8224B4B1A800723ED
:10177C006B71AB710633EB71019B1B0A2B726B46C1
:10178C001B7A6B723F0AAF726B461B7BEB722800A5
:10179C0001F09CF8FFF7A4F9002800D0BCE03A4B0C
:1017AC001B78043B012B00D9B6E0384B1B780C2B73
:1017BC0000D0B1E0364B1868C27AAB7A9A4200D0AE
:1017CC00AAE0027BEB7A9A4200D0A5E005F04EFA33
:1017DC0016222E4B1A70133A304B1A70C5322E4B00
:1017EC001A8099E0002800D096E0274B1B78042B38
:1017FC0000D091E0254B1B78122B00D08CE0244BB1
:10180C001868427AEB7A9A4200D085E0827A2B7B78
:10181C009A4200D080E005F029FA16221B4B1A7070
:10182C00113A194B1A70023A1C4B1A70C5321A4BEA
:10183C001A8071E000286FD1134B1B78052B6BD1EC
:10184C00184A154B1A800322144B1A7064E00E4B85
:10185C001B78022B08D80123134A13700E4A1380ED
:10186C0003220E4B1A7057E0002855D10A220A4B5E
:10187C001A80073A094B1A700022034B1A704BE07E
:10188C00FFFF0000F40D0020DD0D0020D80D00201E
:10189C00EC0D00205E000020F20D0020DC0D00207D
:1018AC00EA0D002030750000E80D00204B4B1B7832
:1018BC00012B31D14A4B18780321091AFA235B000A
:1018CC005943643189B20422101A434398B205F08B
:1018DC00A1F9444B18801FE0404B1B78012B1BD106
:1018EC006B7A1A02AB7A404909881343994213D197
:1018FC0001223E493E4805F0FBFB00285BD04CE042
:10190C003300012201213B4805F034F90022334B0E
:10191C001A700132334B1A80280005F0A7F9FFF733
:10192C00DFF81122344B1A60344A5168344B0B40A7
:10193C005360FEF795FD11222F4B1A602F4A516808
:10194C002F4B0B405360FEF784FD200001F022F872
:10195C00FEF7B0FE0B00FEF758FF2A4B19882A4EF3
:10196C003700FFF7E3F8294B1B78162BF5D02DE049
:10197C001C4B1B88002B01D1FFF719FBFFF769F9F2
:10198C00002306A94B8039004139CEB2122E00D962
:10199C0040E6B1001E4E71588F46AB79052BBBD17A
:1019AC00B4E72E000B3601223100114805F0A0FBE4
:1019BC000028B1D0A4E7AB79062BADD1F1E71A1D05
:1019CC008021C9008C466344FEF712FE054B1B8830
:1019DC00002B01D1FFF74DF9FFF73BF9DD0D00208E
:1019EC00DC0D0020F20D0020DA0D0020A88000088C
:1019FC00F00D002010FF00000020024000100240FB
:101A0C000FF8C3FF5E000020F40D0020D80D00205D
:101A1C0054730008F0B55F4656464D464446F0B444
:101A2C0083B03D4B9846002400239C463B4B9A4682
:101A3C0053461B5F99463A4B1E5F4D46B543ADB2BC
:101A4C00002D34D06346062B06D843461B68002B6A
:101A5C0004D01F69BFB202E0002700E000272F402E
:101A6C001021012301961A002A401AD02D48005B40
:101A7C003E004640164206D090431A003A401043AE
:101A8C00284A10530DE02848005B3E004640324087
:101A9C0007D05040244E3053244820180688324337
:101AAC0002805B009BB201390029DCD1019E4B46C0
:101ABC009E43B3B2002B18D01B4A125B134008D0C4
:101ACC006146062911D841460968002918D08B6156
:101ADC0016E09643B6B2002E07D06346062B04D808
:101AEC0043461B68002B00D09E6263460133DBB279
:101AFC009C46023404239946C844042C98D104E033
:101B0C009643B6B2002EF0D0EAE703B03CBC904648
:101B1C009946A246AB46F0BDA47F0008C808002039
:101B2C008800002054000020A40000209000002019
:101B3C00F0B54488FF230F2C01D80F4B1B5D0F24ED
:101B4C001C400125A540ACB2A4461B095B000B4C04
:101B5C001C5B0B4FDE5BAE43DE5343786E2B01D127
:101B6C00E3439CB201230B70634623401C00631EAD
:101B7C009C4114700020F0BDA0730008A40000204C
:101B8C00900000204288FF230F2A01D8074B9B5C52
:101B9C001A0952000F210B4001209840044BD35AD4
:101BAC001840431E9841C0B27047C046A07300084D
:101BBC0090000020F0B54188FF230F2901D8114B6C
:101BCC005B5C0F21194001278F4014781B09F943E6
:101BDC0009B20D4D5E00725B0A40725340786E285C
:101BEC0001D1E443E4B2E20705D508495B005A5A37
:101BFC003A435A5204E005485B001A5A0A401A52FA
:101C0C000020F0BDA073000890000020A40000206C
:101C1C004288FF23102A01D8064B9B5C07221A40EE
:101C2C0001209040DB08044AD35C1840431E9841C5
:101C3C00C0B27047D07F000850000020072202403D
:101C4C0001239340C008002904D0054A115C0B43C2
:101C5C00135403E002490A5C9A430A547047C04685
:101C6C005000002010B52D4B1B88002B1BD12C4B8A
:101C7C001B782C4AD25CFF2A0AD10133DBB20A2B27
:101C8C0002D0274A137048E00022254B1A7044E01A
:101C9C00012211009940244B9962204B1A8000229A
:101CAC00224B1A6039E0224A11884A1D934213DAFA
:101CBC001D4A106C946804212143916001339BB23E
:101CCC00164A1380042B28D9184B00B240101A68FE
:101CDC0094466044186020E0144C01312068FEF7F3
:101CEC00A1FA20600E4B1C786200124BD35E984216
:101CFC0006D063000F4A985201212000FFF79EFF87
:101D0C000022064B1A800134E4B20A2C02D0044B98
:101D1C001C7002E00022024B1A7010BDDA08002081
:101D2C00D20800207400002000240140DC080020B0
:101D3C00D60800206000002070B515004388FF24F1
:101D4C00102B01D8074AD45C00212000FFF776FF46
:101D5C0064006B781B022A781343034AA3520020B9
:101D6C0070BDC046D07F00086000002070B50E002A
:101D7C0015004388FF24102B01D8084AD45C00219D
:101D8C002000FFF75BFF02233370054B6400E25A1F
:101D9C002A70E35E1B126B70002070BDD07F0008B0
:101DAC00600000200C4BDB68DB070BD5002803D14F
:101DBC0011E0002802D10DE0074901220138CB685F
:101DCC001A42F6D1044BDB681420184043425841A8
:101DDC00C0B200E0002070470020024002090F232F
:101DEC0018400E3B8340DB431BB205485200115A8E
:101DFC00194011520349505A034053527047C04680
:101E0C0088000020C80800200F22024001239340C4
:101E1C009BB2000904494000425A1A4342520349FA
:101E2C00425A13434352704788000020C8080020D0
:101E3C000F220240012393409BB202095000064935
:101E4C00415A0120194206D15000044A805A0340DD
:101E5C00581E8341D8B27047C80800208800002063
:101E6C0010B582B06B46DA1D02231370074C2300A9
:101E7C000121074804F092FE2288064B9A4202D9AF
:101E8C005022024B1A8002B010BDC046D60800206A
:101E9C0008FF0000E8FD000010B50223102813D83D
:101EAC000A4B1A5C0223FF2A0ED0094B985C0123C3
:101EBC00FF2809D10F2A04D8064B985C0023FE2872
:101ECC0002D0FFF7B5FF0300180010BDD07F00084B
:101EDC0074000020C07F0008114B1A6801210A43CE
:101EEC001A6058680F4A02405A6018680E4A02403D
:101EFC001A6018680D4A02401A6058680C4A024071
:101F0C005A60DA6A0F208243DA62186B094A02407F
:101F1C001A635A6B8A435A6300229A607047C04610
:101F2C00001002400CB8FFF8FFFFF6FEFFFFFBFFAE
:101F3C00FFFFC0FFACFEFFFF002802D0012811D02C
:101F4C0021E0124B1B680120DB071DD50F4B5B6892
:101F5C000020002B18D10D4A136801218B4313600C
:101F6C00013011E00A4B1B680120DB070CD5084B34
:101F7C005B680020002B07D1054A136801218B43B5
:101F8C001360013000E001207047C0461C00024085
:101F9C00440002405C4B9B69E022D20013420BD000
:101FAC00594A136801218B431360584B1A685179B5
:101FBC0080230B435371A6E0DA0643D51022524B13
:101FCC00DA61534B1B78002B09D10F3A4E4B1A6038
:101FDC004E4B1A68517940230B43537193E04B4B92
:101FEC001B685A79D20700D48DE0494A1278D2B2D4
:101FFC009A715A7992071DD5DA79D2B2002A00D19A
:10200C0001321B795B0043490B4312041A433E4BCC
:10201C005A605A68802189010A435A60196804225F
:10202C000A431A601A6842218A431A600022384B0C
:10203C001A7068E00122344B1A60344B1B680F3263
:10204C005A7160E0304A126852071BD55A0719D5ED
:10205C002E4B18682E4A1378DBB2591CC9B211707A
:10206C002949496AC9B2C3181972C3791278DBB20B
:10207C00934248D80122244B1A60244B1B680F3220
:10208C005A7140E0204A126892070FD59A070DD575
:10209C001E4B18681E490A78D3B25A1CD2B20A7069
:1020AC00C3181B7ADBB2184A93622CE05A061FD570
:1020BC00164B1A68D379DBB2002B00D1013312799D
:1020CC00520014490A431B0413430F4A53605368CC
:1020DC00802189010B435360116804230B43136067
:1020EC00136842218B4313600022094B1A700AE0DB
:1020FC009B0608D5044B2022DA611F3A1A60034B69
:10210C001B680F325A71704700580040580000206D
:10211C00D808002000040002334B9B69E022D20057
:10212C0013420BD0304A136801218B4313602F4BA1
:10213C001A68517980230B43537154E01B0452D419
:10214C00294B1A6801218A431A600021284A117010
:10215C00264A126850790831014351715279D2B232
:10216C00912119606139D961D30723D51F4B1968A7
:10217C0008798B7940001B0403431B4843608B791F
:10218C00002B04D001000068022303430B6093076B
:10219C000AD4154B5A68802189040A435A6019687D
:1021AC0020220A431A6018E00F4A116840230B439F
:1021BC00136012E00D4B1A68D379DBB2002B00D1FF
:1021CC000133127952000B490A431B041343064A8C
:1021DC005360116804230B431360034A5368802136
:1021EC0089010B4353607047005800405800002091
:1021FC00D8080020000400028000054BC25811735F
:10220C00012193681942FCD0107BC0B27047C046C4
:10221C00E073000810B5010080225201094B9A624C
:10222C001C008022D20123691342FCD10220FFF74B
:10223C00E3FF00210220FFF7DFFF80225201014B58
:10224C009A6110BD0004004810B50C0080225201A8
:10225C000A4B9A6219008022D2010B691342FCD1FD
:10226C0001000220FFF7C8FF21000220FFF7C4FF86
:10227C0080225201014B9A6110BDC04600040048F7
:10228C0010B5010080225201074B9A621C0080227B
:10229C00D20123691342FCD10220FFF7ADFF80224B
:1022AC005201014B9A6110BD00040048102812D84D
:1022BC004000094BC35AFF2B0DD01A06D20E9200C8
:1022CC0006481058002806D0032213409A00130029
:1022DC003433C31819607047BC7300085C7F000866
:1022EC00F0B55F4656464D464446F0B485B0894637
:1022FC000323032111408A465107C90F0291D110C3
:10230C0019408C4651110B4003931205130F019386
:10231C00002301229046023A624493464F460093B2
:10232C0041469940394247D05C0005680322A240DF
:10233C00D2431540056005686646A64035430560E6
:10234C005D46012D0FD88568154085608568039E14
:10235C00A6403543856045688D4345604168029DC4
:10236C009D4029434160C1680A40C260C268514621
:10237C00A1400A43C2606246022A1DD19AB2072AC2
:10238C000CD8009A9600026A0F21B1408A4302626F
:10239C00026A0199B1400A4302620DE01A00083A40
:1023AC009200416A0F249440A1434162416A019C0E
:1023BC00944022000A4342620133102BAFD105B086
:1023CC003CBC90469946A246AB46F0BD70B50A009F
:1023DC000309062B0CD89B0006495D58002D07D02D
:1023EC000F2404400123A34099B22800FFF778FF83
:1023FC0070BDC046A47F000830B583B04B4C01E0E3
:10240C0004F034FC200004F017FC0028F8D16B46D3
:10241C00DC1C01232370464B22000121454804F0AB
:10242C00BDFB6B46073322000121434804F0B6FB89
:10243C000223237001AB22000121404804F0AEFBC3
:10244C0068211C20FFF7C2FF3D4880235B0183619C
:10245C003C4AD3698021C9010B43D3617022E0212E
:10246C000902FFF73DFF384B1A685208374B9A4266
:10247C0009D90023354901339BB252088A4203D94A
:10248C00072BF8D100E00023DB00C122920013439C
:10249C002F4A1360B8235B01536007231361D16982
:1024AC002C4B0B40D361116840230B431360244B1E
:1024BC00802252019A629A619A6219008022D2019A
:1024CC000B691342FCD130210220FFF795FE1C4909
:1024DC008022D2010B691342FCD180225201184B8D
:1024EC009A611D4C2500363561782078FFF7ACFEDB
:1024FC000234AC42F8D10E4B19780920FFF7A4FE38
:10250C0001AC2188090A0420FFF79EFE21780520E2
:10251C00FFF79AFE6B46D9790A20FFF795FE5021FA
:10252C003E20FFF791FE03B030BDC04604000020F2
:10253C00F00D002010FF000012FF000011FF000042
:10254C00000400480010024014000020A02E63007C
:10255C0000380040FFF70000F073000810B50028A9
:10256C0002D0012820D03FE0204A136801218B4380
:10257C00136000231E4A13601E4A13601E4BDA6858
:10258C008021C9010A43DA60D9681C4A1140D9601C
:10259C0099690A409A6100210A20FFF717FF002170
:1025AC000920FFF713FF20E0154A136801218B4324
:1025BC0013600023134A1360134A13600E4B1A69FD
:1025CC00802189020A431A611969104A1140196164
:1025DC00D9690A40DA6100210320FFF7F7FE0021D8
:1025EC000220FFF7F3FE00E0FEE710BD00380140CB
:1025FC001C0002403000024000100240FFBFFFFFF1
:10260C00004400404400024058000240FFFFFDFF20
:10261C0010B5140089005C4BC958002802D0012861
:10262C0051D0AEE0594B9B695B0416D4574B9A6959
:10263C008020C00102439A615869012202435A6109
:10264C004808534B1B68C018FDF762FD514BD8600E
:10265C0000221A605A609A6004E04E4A1368012105
:10266C008B431360E30718D5882149000A20FFF734
:10267C00ADFE494B494A9A60494ADA6040225A6099
:10268C00A1211960434B18689D3901431960996861
:10269C000A439A600022434B1A80A3070DD5882168
:1026AC0049000920FFF792FE3A4B196808220A43A9
:1026BC001A60996880220A439A60364A116801238D
:1026CC000B4313605EE0314BDB699B0316D42F4B3D
:1026DC00DA69802080020243DA61586901220243E0
:1026EC005A614808304B1B68C018FDF711FD2F4B81
:1026FC00D86000221A605A609A6004E02B4A136872
:10270C0001218B431360E30718D58821490003206E
:10271C00FFF75CFE264B274A9A60274ADA60402274
:10272C005A60A1211960214B18689D390143196029
:10273C0099680A439A600022204B1A80A3070DD592
:10274C00882149000220FFF741FE184B1968082226
:10275C000A431A60996880220A439A6063070AD573
:10276C00882149000120FFF731FE104A936880212F
:10277C00C9010B4393600D4A116801230B4313608D
:10278C0000E0FEE710BDC0462874000800100240AF
:10279C00180000200038014030000240243801406D
:1027AC002809002088090020140000200044004063
:1027BC005800024024440040900D0020D00D002011
:1027CC0010B50F282BD8174B185CFF2905D1FD2805
:1027DC0027D80021FFF7FAFD23E0FD2802D81821A5
:1027EC00FFF7F4FD104B9B699B051AD40E4A9369B5
:1027FC00802189000B4393610C4A93688021090660
:10280C000B4393609368002BFCDB084B084ADA609F
:10281C0007225A619968063A0A439A6001E0FF2937
:10282C00E0D110BDC07F0008001002400024014020
:10283C0020900000124A136801331360114B1B885F
:10284C0001339BB2104A934202D80E4A138006E021
:10285C0000220C4B1A800D4A1368013313600C4B89
:10286C001B88092B03D80133094A138007E0094A56
:10287C0013780133DBB213700122054B1A807047B9
:10288C0080000020D4080020E6030000D40D0020B6
:10289C00D00800208C000020054B1B68002B00D1B9
:1028AC00FEE7013B024A1360002B00D162B6704771
:1028BC009400002072B6044A136801331360BFF30E
:1028CC004F8FBFF36F8F70479400002010B5041E1C
:1028DC0022D0FFF7EFFF00232360114B1B68002B66
:1028EC0005D10F4B1C605C6001225A7211E00C4A3E
:1028FC00127A002A07D00A49497A0131914202DD45
:10290C00FFF7CAFF08E01C60054B1C605A7A0132C5
:10291C005A72FFF7C1FF02E0200004F0A7F910BDC6
:10292C0004000020F0B5474680B407000E00B0202C
:10293C000003FFF737FA041E21D0FFF7BBFF124D3F
:10294C00124B6B60124B6B602B6901229046134348
:10295C002B613E80B0200003FFF724FA04002B69A2
:10296C00424693432B613B889BB29E4200D000248D
:10297C00054A116980230B431361FFF78DFF20007B
:10298C0004BC9046F0BDC0460020024023016745C0
:10299C00AB89EFCDF8B50600B0200003FFF702FAC3
:1029AC00041E1FD0FFF786FF0F4D104B6B60104BB2
:1029BC006B602B6902273B432B61B60AB6026E6132
:1029CC002A69402313432B61B0200003FFF7EAF977
:1029DC0004002B69BB432B612A69802313432B61B1
:1029EC00FFF75AFF2000F8BD002002402301674585
:1029FC00AB89EFCD70B501304000264B98423FD9E2
:102A0C00254BC418254B9C4660440123214A06E003
:102A1C0021498C4664440133DBB2A0422ED094424F
:102A2C00F6D82FE002789A4203D100E01C48201817
:102A3C002FE08022D200944660448842F2D1184E96
:102A4C0080256D001D433288164B9A420DD129000A
:102A5C003000FFF767FF002801D0A01919E03422DD
:102A6C00114BDA603000FFF795FF8023DB009C46AA
:102A7C0066440E4B9E42E6D100200AE0002008E09E
:102A8C0004000023064A12789A42CFD0084807491E
:102A9C00C8E770BDFF03000002FCFFFF0CE8FFFF5E
:102AAC0000E00008FFFF00000020024000000108C9
:102ABC0000E40008F0B55F4656464D464446F0B477
:102ACC0085B0039002910192002A00D1C8E0684BB6
:102ADC009B460298FFF78EFF80468405A40D802349
:102AEC00DB001C1B6408019A944200D91400002CD2
:102AFC0000D1A7E0039E270045465E4B99465E4BEE
:102B0C009A4631784B46194389B22B8899420BD09F
:102B1C0053450FD12800FFF705FF002804D13422BC
:102B2C00564BDA60474606E00235013F0136002F6E
:102B3C00E7D187E047464E4B1B68514A9918514ADA
:102B4C00914201D89B0502D04F4B494A13605B461A
:102B5C001E6808234D4848498022D200944666449A
:102B6C00864200D9484E32888A4206D0013BDBB2FD
:102B7C00002BF1D13E4B1E6072E03D4B1E60002ECF
:102B8C006ED0BD0AAD022988414B994203D8013160
:102B9C00FF3189B203E0FF231940013319433000A0
:102BAC00FFF7C0FE002806D13422344BDA60300027
:102BBC00FFF7F0FEBFE702350236AF4218D92E4BB5
:102BCC0098462988338899420ED0434504D1300069
:102BDC00FFF7A8FE002807D13422284BDA60B00A90
:102BEC008002FFF7D7FEA6E702350236AF42E8D8DF
:102BFC0064006319A219DC43A405A40D013416006A
:102C0C009D1A1D4B9846A95B338899420ED04345BB
:102C1C0004D13000FFF786FE002807D13422174B71
:102C2C00DA60B00A8002FFF7B5FE84E70236023C98
:102C3C00002CE8D13800FFF7ADFE019B002B00D033
:102C4C0047E70DE0019B1B1B0193029B9C46A44490
:102C5C0063460293039B9C46A44463460393ECE7B0
:102C6C0005B03CBC90469946A246AB46F0BDC0466A
:102C7C002000002000FFFFFFFFFF000000200240AB
:102C8C000020FFF7FF1F000000E00008FFFF000816
:102C9C00FFFE0000F8B50600151E13D00C00002036
:102CAC00761AFF27830502D12000FFF7A3FE002828
:102CBC0001D1375502E00378335502300134013D20
:102CCC00002DEFD1F8BDC04670B51E4B1C681F22FD
:102CDC0025009543A21C1A601B4B1B689D4210D00B
:102CEC0080231B019A4204D98122184B1A70184870
:102CFC0027E0154B1D602022290089311548FFF76C
:102D0C00C9FF641B134B1D5D0134202C15D180238E
:102D1C001B010C4A12689A4204D981220B4B1A707F
:102D2C000B480EE0084B19680A0020321A60A931D2
:102D3C0020220848FFF7AEFF0024064B185D000266
:102D4C00284370BD24090020240000202009002005
:102D5C00FFFF00006809002070B50F4B1C681F2294
:102D6C0025009543621C1A600C4B1B689D420FD0CA
:102D7C000B4B9A4204D981220A4B1A70FF200AE0AD
:102D8C00064B1D602022290089310748FFF782FF7E
:102D9C00641B054B185D70BD240900202400002025
:102DAC00FF070000200900206809002043880F223B
:102DBC0013409B000A4A9B58002B0BD0197A5A7A65
:102DCC00914209D0DA7A1020104007D110210A4321
:102DDC00DA7204E0002002E0002000E001207047DD
:102DEC009C000020F0B557464646C0B48C460E7881
:102DFC0043880F2119408A468900174BCB58197A02
:102E0C00587A002E1CD0814219D00023124CA046B7
:102E1C005446A700441CE4B245467D592D68285CF5
:102E2C0010702000372C00D900200133DBB29E42F9
:102E3C0006D001328842EDD108001E0000E00026C9
:102E4C0053469B00044A9B58587263461E700020E0
:102E5C000CBC90469A46F0BD9C00002042884378FA
:102E6C00423BD9B238292FD88B001849CB589F46F2
:102E7C001F231340012001009940520919E003233C
:102E8C001340DB00FF2001009940920811E0012360
:102E9C0013401B010E4801009940520809E09200B2
:102EAC000C4BD3580C495058181A431E9841C0B2B9
:102EBC000BE09200074BD058074BD35858400840B2
:102ECC00431E9841C0B200E00020704740740008D7
:102EDC00FFFF000090090020E0080020F0B5002959
:102EEC001AD0013989B20131551880260B4F14784C
:102EFC000823011261400E4203D04000784080B29A
:102F0C0001E0400080B26400E4B2013BDBB2002B74
:102F1C00EFD10132AA42EAD1F0BDC0460580FFFFD5
:102F2C008022014B1A707047200900200E4B1B6841
:102F3C00FE2B0DD80D4A990088580B490860981C37
:102F4C000B49086001339B009A580A4B1A600AE03F
:102F5C0080225200934203D10022074B1A7002E0E8
:102F6C008522054B1A70704728000020900900201C
:102F7C0030000020240900202009002070B50E4BE1
:102F8C001B680E4A1268934212D20D4909688B4293
:102F9C000ED90C499C0065580B4806686650013BDD
:102FAC00054C23609C006250044A1360056002E0EB
:102FBC008722064B1A7070BD3000002028000020BC
:102FCC008400002090090020240900202009002002
:102FDC0070B582B00E001400094D2B6801930322CA
:102FEC0001A9200004F093F86B680193E01C032204
:102FFC0001A904F08CF806233370002002B070BDD8
:10300C0000280040F0B55F4656464D464446F0B4A5
:10301C0083B014000320062900D094E04D4D2E6897
:10302C006F6800230093019303222100684604F08B
:10303C006EF8E11C032201A804F069F8EA68802309
:10304C001343EB6029004022CB681A42FCD0424B60
:10305C001A6AC0239B00134080229200934263D1D2
:10306C00019B9F4260D13B4B1F697F047B0C9C46AC
:10307C00310A0F2529400B015B1A990032090727E9
:10308C0013003B409A00D3185B00CB182A00324047
:10309C009B18320C2A40E124240162439B18320B0A
:1030AC003A409620800042439B18360D03229046EE
:1030BC0016402A4A934656439B19009A160A2E40EC
:1030CC0031018E1BB100894616093E40B1008A467B
:1030DC00564476004E442900114089464E44110C4A
:1030EC000D406C433419150B3D4068432018120DEC
:1030FC0041460A40594651434218591D8A4208D943
:10310C00852149008C4504D9124A1369013B13618E
:10311C000AE00532934207D96023FF339C4503D85C
:10312C000C4A1369013313610A4B019A5A60009AD5
:10313C001A60DA6880218A43DA6019008022CB6831
:10314C001A42FCD1002003B03CBC90469946A246E2
:10315C00AB46F0BD0028004000100240A08C0000DF
:10316C0070B5140042884378423BD9B2382942D812
:10317C008B002249CB589F461F21114001238B40C5
:10318C005209217800290AD1DB431D4892001158BD
:10319C00194011501B495058034053502BE018480C
:1031AC00920011581943115016495058034353506B
:1031BC0021E0237812498B5412498B541BE05200A6
:1031CC0095B20F4840190222210003F0A0FF0D48D0
:1031DC0040190222210003F09AFF0CE095000848E8
:1031EC0040190422210003F092FF064840190422E2
:1031FC00210003F08CFF002070BDC0462475000830
:10320C0090090020E0080020F0B583B00D001400F8
:10321C0042884378423BD9B238294BD88B00274996
:10322C00CB589F461F21114001238B40520990001F
:10323C0023494158194207D001212170214902002C
:10324C0040580343535006E0002121701D49920061
:10325C0050589843505001232B7000202BE0184BF2
:10326C009B5C18498B54237001232B70002022E0A7
:10327C00520096B2124FBF1902223900200003F0FF
:10328C0046FF104880190222390003F040FF022348
:10329C002B7000200FE09200094BD3580193094981
:1032AC005350042201A9200003F031FF04232B709A
:1032BC00002000E0022003B0F0BDC04608760008F4
:1032CC0090090020E008002010B502F019FFFEF76D
:1032DC00C7FD002010BDC04610B50323172902D826
:1032EC0002F00EFF0300180010BDC04610B5100010
:1032FC00084C23681A780A701A78591C03F007FFD7
:10330C00206803F0B3FC00232360034A13700020F1
:10331C0010BDC046CC0800205C000020F0B547462C
:10332C0080B40125424E01E00135EDB26C1EE4B2D1
:10333C00A3009B59002B75D0DA7AD20712D55B68A3
:10334C00002B0FD02000FEF7F7FD00280AD0384FD5
:10335C00A3009846DB59586803F088FC4346DB59B8
:10336C0000225A60A300324A9B58DA7A920759D548
:10337C00002C02D0012C09D054E02E4A51682E4A60
:10338C0010884022121A8A42CED007E02B4A51688C
:10339C002B4A10884022121A8A4246D0197A4A1CAB
:1033AC00D2B2372A00D90022587A90423AD01B6800
:1033BC005918002C02D0012C0DD019E01E4F3B885F
:1033CC00581C80B238801F4FFB5C3F2811D9002756
:1033DC00194807800DE01A4F3B88581C80B2388082
:1033EC00194FFB5C3F2804D900271548078000E0E3
:1033FC0000230B70A4000E4BE3581A72597A8A42C0
:10340C0002D9521AD2B202E0521A3832D2B21B2A64
:10341C0004D8DA7A10218A43DA7203E0D97A1022BE
:10342C000A43DA72012D00D87EE704BC9046F0BD49
:10343C009C00002030000240880900205800024007
:10344C00D00D002028090020900D0020F0B5474633
:10345C0080B40E00150043880F241C40A2001E4BA4
:10346C00D358002B34D00020002932D05B680130B7
:10347C00002B2ED12000FEF75FFD03000120002B56
:10348C0027D0373003F064FC0700831D98463200C8
:10349C002900180003F03BFE002C02D0012C09D0AF
:1034AC0010E00E4B0E4A9A604246DA605E60912242
:1034BC001A6007E00B4B0C4A9A604246DA605E6079
:1034CC0091221A60A400044BE3585F60002000E0D6
:1034DC00012004BC9046F0BD9C0000201C00024062
:1034EC0028380140440002402844004070B50C00CC
:1034FC0015000B4B1B680120002B0FD1373003F04C
:10350C0027FC074B1860002807D0047001302200FC
:10351C00290003F0FCFD002000E0012070BDC04636
:10352C00CC08002010B55178090213781943408853
:10353C00FEF7BCFE002010BDF0B5474680B44E4BE4
:10354C001B78002B41D080235B004C4A13604C4A03
:10355C0013604C4B1B78002B09D00023494A137085
:10356C0001214942484A1160484A136076E004221E
:10357C00464B1A6072E0013CA4B2002C03D18422A9
:10358C00434B1A7072E02B681F22190091435E1A8C
:10359C0001332B603A6891420DD03E4A934203D9D5
:1035AC0081223B4B1A7061E043461960893120221D
:1035BC003948FFF76FFB384B9B5D9B00374A9B5894
:1035CC009847334B1B78012BD5D0314B1C78002CF2
:1035DC004FD00022284B1A70314B1B68002B48D15E
:1035EC00382003F0B5FB2E4B1860002841D0042383
:1035FC0043708470224B1B68C3701A0A02711A0C38
:10360C0042711A0E8271013BFE2B03D89B00254A96
:10361C009B5801E001235B42C3711A0A02721A0C17
:10362C0042721B0E8372154B1B68C3721A0A02730B
:10363C001A0C42731B0E8373144B1B68C3731A0A48
:10364C0002741A0C42741B0E837412230370002232
:10365C000F4B1A700132144B1A700AE001220C4BFA
:10366C001A70124C094D084FB8468CE7084B1C7861
:10367C00AFE704BC9046F0BD1C00002028000020E1
:10368C00300000202C000020240000202409002001
:10369C0020090020FF070000680900204877000877
:1036AC00CC080020900900205C000020FEFF0000E8
:1036BC00F0B585B0774B1B780120002B00D0E7E0EC
:1036CC00754B1C68002C00D1E1E063780B2B00D902
:1036DC00D4E09B00714AD3589F46714B1B78002B4A
:1036EC0002D0FA23A37006E00023A37001336D4AC5
:1036FC0013706B4A1370684B1B6802221A705A7055
:10370C00C0E00023664A13700222227002326270FB
:10371C00A370B7E0062363702378052B04D0022333
:10372C002370FB33A370ADE0E3781B02A2781A433D
:10373C00170065792D0223792B431E00D2188023A4
:10374C001B019A4204DD02232370FA33A37099E023
:10375C000134002E19D0544B0193331C372E00D951
:10376C0037239DB2390089312A002000FFF792FAE5
:10377C00220029000198FFF7B1FB0190EB199FB2D1
:10378C00751BAEB2002EE8D101E0474B0193424BC2
:10379C001B6804221A7002325A7000229A70019A25
:1037AC00DA70160A1E716DE0257808236370063BEB
:1037BC0023703B4B1B78002B02D0FA23A37061E0E3
:1037CC00ABB2052B02D8FD23A3705BE0E678360282
:1037DC00A1780E437219053A802109018A4202DD53
:1037EC00FC23A3704EE0271D053B99B23A002E48EE
:1037FC00FFF774FB635D1B026219013A12781343E5
:10380C00834202D0FB23A3703CE00023A3706A1F09
:10381C00310089313800FFF74DF933E02378052B5F
:10382C0006D0022323700A336370F133A37029E0AE
:10383C00022323700A336370194B1B78002B02D0C0
:10384C00FA23A3701EE0A11C042203A803F05FFC62
:10385C00039BFD2B04D9104B1B6887229A7011E037
:10386C00124A126893420DD0104A13600A4B186822
:10387C00023004228521FFF71DF903E00223237097
:10388C00FC33A3700122034B1A70012000E00020CE
:10389C0005B0F0BD5C000020CC080020EC760008E0
:1038AC001C0000202C000020FFFF000084000020E2
:1038BC0070B582B0FFF750FA0A2800D929E18000D0
:1038CC009E4B1B589F4602F051FA01909C4B1B6873
:1038DC00002B00D030E1382003F03AFA984B1860F6
:1038EC00002800D128E10022964B1A70964B1A68DA
:1038FC00964B1A600430042201A903F008FC904B8B
:10390C001B68597903220A405A71DA79002A03D0CC
:10391C00597902220A435A719A79002A04D05979AA
:10392C0001220A435A7107E1FEF7F6FB04E1844BCE
:10393C001968002937D04C79E4B21F2322009A432E
:10394C0000D0EAE0804B1B68804A12689B1AFA2B65
:10395C0000D8E8E04B791B0704D57D4A1368012198
:10396C008B431360764B19684A79202313434B71B0
:10397C000431042201A803F0CAFB714C206803F047
:10398C0075F9002323600CE000226E4B1A706C4B0F
:10399C001868C379002B04D103F068F90022684B36
:1039AC001A60019800E0002002F07AF9C4E002F0FD
:1039BC00DDF9634B1968002900D1BDE04B79072272
:1039CC00934300D0B8E08A79D2B25E4B1B789A420E
:1039DC0000D8B1E05A1CD2B25A4C2270C0B2CB18EB
:1039EC0018728B79DBB29A4200D0A5E0FEF794FBFB
:1039FC00A2E0534B186800281BD043790024DB0647
:103A0C0018D5C379DBB24F4A1278934205D9511CB1
:103A1C004C4B19708218147AE4B2C379DBB2494A60
:103A2C0012789A4206D103F021F90022444B1A6015
:103A3C0000E00024200002F033F97DE0454B1B78B8
:103A4C00052B02D101F07AFD76E001F091FD73E0D7
:103A5C003D4B186802F024F96EE03F4B186802F0F9
:103A6C001FF969E03D4B9A683D4B1A60186802F0EB
:103A7C0017F961E03B4B1B681D0A0F2425402901F7
:103A8C004A1B9500190907260A00324091008A1832
:103A9C005200AA18200018401218180C0440E125F6
:103AAC002D016C4310191A0B32409624A4002100EE
:103ABC00514342189B029B0F2B484343D01802F0F2
:103ACC00EFF839E0274B5B689A06920F91008A1841
:103ADC0052000F242000184010181D0A2540802287
:103AEC0052011A4000D00A22190D0F2631408C00C9
:103AFC00611849001C0C34400919090600020843DE
:103B0C001B045B0F0343A8180004184302F0C8F809
:103B1C0012E08822154B1A700EE00431042201A821
:103B2C0003F0F5FA29E70431042201A803F0EFFAB7
:103B3C00E30600D528E734E702B070BD1C77000817
:103B4C0058000020D20D0020800000208C0900209D
:103B5C0000580040DD0D0020D40D002010E000E0E6
:103B6C000030024000280040A08C000020090020FA
:103B7C0070B50C4B1C680C4B1B689C420ED2A300FE
:103B8C000A4A9D5802F0B6F9854203D08322084BAD
:103B9C001A7006E00134034B1C6002E08722044BD0
:103BAC001A7070BD30000020280000209009002001
:103BBC002009002070B50E4B1C68651E0D4B1B6850
:103BCC009D4210D9FFF780F80B49AD000B4B1A68DA
:103BDC006A50023C064A1460A500094A16686E50E9
:103BEC001460186002E08722064B1A7070BDC04644
:103BFC0030000020840000209009002024090020BF
:103C0C00280000202009002010B5FFF75DF8014BBB
:103C1C00186010BD2409002010B50E4B1B680E4A0D
:103C2C001268934211D2591C0A4A11609B000B4A2C
:103C3C009B58002B04D0FFF747F8094B186007E09E
:103C4C00074A13680233136002E08722054B1A708F
:103C5C0010BDC04630000020280000209009002034
:103C6C00240900202009002010B50E4B1B680E4AB9
:103C7C001268934211D2591C0A4A11609B000B4ADC
:103C8C009B58002B04D1FFF71FF8094B186007E075
:103C9C00074A13680233136002E08722054B1A703F
:103CAC0010BDC046300000202800002090090020E4
:103CBC002409002020090020094B1B68094A1268BE
:103CCC00934208D2591C064A11609B00064A9A5826
:103CDC00064B1A6002E08722054B1A707047C046EB
:103CEC00300000202800002090090020240900202A
:103CFC00200900200C4B1A680C4B1B689A420FD2FF
:103D0C00103BFF2B08D8501C07490860084992004B
:103D1C0052589B005A5006E08222064B1A7002E061
:103D2C008722044B1A7070473000002028000020B6
:103D3C0090090020200900200C4B1A680C4B1B68C2
:103D4C009A420FD20F3BFF2B08D8501C0749086032
:103D5C000849920052589B005A5006E08222064BAA
:103D6C001A7002E08722044B1A7070473000002052
:103D7C002800002090090020200900200C4B1A6814
:103D8C000C4B1B689A420FD20E3BFF2B08D8501CD1
:103D9C00074908600849920052589B005A5006E0A7
:103DAC008222064B1A7002E08722044B1A7070476D
:103DBC00300000202800002090090020200900205D
:103DCC000C4B1A680C4B1B689A420FD20D3BFF2B05
:103DDC0008D8501C074908600849920052589B00AB
:103DEC005A5006E08222064B1A7002E08722044BDE
:103DFC001A70704730000020280000209009002025
:103E0C00200900200C4B1A680C4B1B689A420FD2ED
:103E1C000C3BFF2B08D8501C07490860084992003E
:103E2C0052589B005A5006E08222064B1A7002E050
:103E3C008722044B1A7070473000002028000020A5
:103E4C0090090020200900200C4B1A680C4B1B68B1
:103E5C009A420FD20B3BFF2B08D8501C0749086025
:103E6C000849920052589B005A5006E08222064B99
:103E7C001A7002E08722044B1A7070473000002041
:103E8C002800002090090020200900200C4B1A6803
:103E9C000C4B1B689A420FD20A3BFF2B08D8501CC4
:103EAC00074908600849920052589B005A5006E096
:103EBC008222064B1A7002E08722044B1A7070475C
:103ECC00300000202800002090090020200900204C
:103EDC000C4B1A680C4B1B689A420FD2093BFF2BF8
:103EEC0008D8501C074908600849920052589B009A
:103EFC005A5006E08222064B1A7002E08722044BCD
:103F0C001A70704730000020280000209009002013
:103F1C00200900200C4B1A680C4B1B689A420FD2DC
:103F2C00083BFF2B08D8501C074908600849920031
:103F3C0052589B005A5006E08222064B1A7002E03F
:103F4C008722044B1A707047300000202800002094
:103F5C0090090020200900200C4B1A680C4B1B68A0
:103F6C009A420FD2073BFF2B08D8501C0749086018
:103F7C000849920052589B005A5006E08222064B88
:103F8C001A7002E08722044B1A7070473000002030
:103F9C002800002090090020200900200C4B1A68F2
:103FAC000C4B1B689A420FD2063BFF2B08D8501CB7
:103FBC00074908600849920052589B005A5006E085
:103FCC008222064B1A7002E08722044B1A7070474B
:103FDC00300000202800002090090020200900203B
:103FEC000C4B1A680C4B1B689A420FD2053BFF2BEB
:103FFC0008D8501C074908600849920052589B0089
:10400C005A5006E08222064B1A7002E08722044BBB
:10401C001A70704730000020280000209009002002
:10402C00200900200C4B1A680C4B1B689A420FD2CB
:10403C00043BFF2B08D8501C074908600849920024
:10404C0052589B005A5006E08222064B1A7002E02E
:10405C008722044B1A707047300000202800002083
:10406C0090090020200900200C4B1A680C4B1B688F
:10407C009A420FD2033BFF2B08D8501C074908600B
:10408C000849920052589B005A5006E08222064B77
:10409C001A7002E08722044B1A707047300000201F
:1040AC002800002090090020200900200C4B1A68E1
:1040BC000C4B1B689A420FD2023BFF2B08D8501CAA
:1040CC00074908600849920052589B005A5006E074
:1040DC008222064B1A7002E08722044B1A7070473A
:1040EC00300000202800002090090020200900202A
:1040FC000C4B1A680C4B1B689A420FD2013BFF2BDE
:10410C0008D8501C074908600849920052589B0077
:10411C005A5006E08222064B1A7002E08722044BAA
:10412C001A707047300000202800002090090020F1
:10413C00200900200C4B1A680C4B1B689A420FD2BA
:10414C001133FF2B08D8501C07490860084992000E
:10415C0052589B005A5006E08222064B1A7002E01D
:10416C008722044B1A707047300000202800002072
:10417C0090090020200900200C4B1A680C4B1B687E
:10418C009A420FD21033FF2B08D8501C07490860F5
:10419C000849920052589B005A5006E08222064B66
:1041AC001A7002E08722044B1A707047300000200E
:1041BC002800002090090020200900200C4B1A68D0
:1041CC000C4B1B689A420FD20F33FF2B08D8501C94
:1041DC00074908600849920052589B005A5006E063
:1041EC008222064B1A7002E08722044B1A70704729
:1041FC003000002028000020900900202009002019
:10420C000C4B1A680C4B1B689A420FD20E33FF2BC7
:10421C0008D8501C074908600849920052589B0066
:10422C005A5006E08222064B1A7002E08722044B99
:10423C001A707047300000202800002090090020E0
:10424C00200900200C4B1A680C4B1B689A420FD2A9
:10425C000D33FF2B08D8501C074908600849920001
:10426C0052589B005A5006E08222064B1A7002E00C
:10427C008722044B1A707047300000202800002061
:10428C0090090020200900200C4B1A680C4B1B686D
:10429C009A420FD20C33FF2B08D8501C07490860E8
:1042AC000849920052589B005A5006E08222064B55
:1042BC001A7002E08722044B1A70704730000020FD
:1042CC002800002090090020200900200C4B1A68BF
:1042DC000C4B1B689A420FD20B33FF2B08D8501C87
:1042EC00074908600849920052589B005A5006E052
:1042FC008222064B1A7002E08722044B1A70704718
:10430C003000002028000020900900202009002007
:10431C000C4B1A680C4B1B689A420FD20A33FF2BBA
:10432C0008D8501C074908600849920052589B0055
:10433C005A5006E08222064B1A7002E08722044B88
:10434C001A707047300000202800002090090020CF
:10435C00200900200C4B1A680C4B1B689A420FD298
:10436C000933FF2B08D8501C0749086008499200F4
:10437C0052589B005A5006E08222064B1A7002E0FB
:10438C008722044B1A707047300000202800002050
:10439C0090090020200900200C4B1A680C4B1B685C
:1043AC009A420FD20833FF2B08D8501C07490860DB
:1043BC000849920052589B005A5006E08222064B44
:1043CC001A7002E08722044B1A70704730000020EC
:1043DC002800002090090020200900200C4B1A68AE
:1043EC000C4B1B689A420FD20733FF2B08D8501C7A
:1043FC00074908600849920052589B005A5006E041
:10440C008222064B1A7002E08722044B1A70704706
:10441C0030000020280000209009002020090020F6
:10442C000C4B1A680C4B1B689A420FD20633FF2BAD
:10443C0008D8501C074908600849920052589B0044
:10444C005A5006E08222064B1A7002E08722044B77
:10445C001A707047300000202800002090090020BE
:10446C00200900200C4B1A680C4B1B689A420FD287
:10447C000533FF2B08D8501C0749086008499200E7
:10448C0052589B005A5006E08222064B1A7002E0EA
:10449C008722044B1A70704730000020280000203F
:1044AC0090090020200900200C4B1A680C4B1B684B
:1044BC009A420FD20433FF2B08D8501C07490860CE
:1044CC000849920052589B005A5006E08222064B33
:1044DC001A7002E08722044B1A70704730000020DB
:1044EC002800002090090020200900200C4B1A689D
:1044FC000C4B1B689A420FD20333FF2B08D8501C6D
:10450C00074908600849920052589B005A5006E02F
:10451C008222064B1A7002E08722044B1A707047F5
:10452C0030000020280000209009002020090020E5
:10453C000C4B1A680C4B1B689A420FD20233FF2BA0
:10454C0008D8501C074908600849920052589B0033
:10455C005A5006E08222064B1A7002E08722044B66
:10456C001A707047300000202800002090090020AD
:10457C00200900200D4B1B680D4A1268934211D97B
:10458C000C4A1268103AFF2A08D8013B07490B6005
:10459C000949920052589B005A5006E08222074B60
:1045AC001A7002E08722054B1A7070473000002009
:1045BC008400002028000020900900202009002001
:1045CC0010B5244B1A68244B1B689A423ED901F053
:1045DC0091FC204A1368013B1360C2B2492A04D0F3
:1045EC004F2A02D0412A2CD11EE0010C00220F29A7
:1045FC0028D81A4A515C0022FF2923D00C096400E8
:10460C000F3211400E3A8A401549615A114000048C
:10461C00000E6E2804D00A00511E8A41D2B211E05D
:10462C004A424A41D2B20DE0000C0022102809D8AF
:10463C000C4A115C0022092904D849000A4A8A5EF6
:10464C0000E000229B0009495A5002E08722084BE7
:10465C001A7010BD3000002084000020A0730008E8
:10466C00A4000020D07F00086000002090090020EA
:10467C002009002010B5234B1A68234B1B689A4263
:10468C003CD201F037FC1F4A1368591C11609B0087
:10469C001E4A9958C3B24F2B02D0502B25D030E074
:1046AC00030C0F2B2DD81A4AD35CFF2B29D01A09D7
:1046BC000F2423400E3C9C400004000E6E2803D0B7
:1046CC004B1E9941C9B202E04B425941C9B2002973
:1046DC0005D010495200535A1C43545211E00D4955
:1046EC005200535AA34353520BE00B4B994200D93F
:1046FC00190089B2000CFDF7D9FD02E08722074BA7
:10470C001A7010BD300000202800002090090020F5
:10471C00A0730008A4000020FFFF00002009002067
:10472C0010B501F023FB040001F020FBFF2C03D893
:10473C00A400034BE05002E08222024B1A7010BD21
:10474C00900900202009002010B5FEF7BDFA0400E6
:10475C0001F00CFBFF2C03D8A400034BE05002E04B
:10476C008222024B1A7010BD9009002020090020F3
:10477C0010B501F0FBFA0400FEF7A6FA041901F0DB
:10478C00F5FAFF2C03D8A400034BE05002E0822280
:10479C00024B1A7010BDC046900900202009002061
:1047AC0010B5FEF791FA040001F0E0FA81B2200096
:1047BC0001F090FA10BDC04610B501F0D7FA040014
:1047CC00FEF782FA6400241801F0D0FA81B22000BE
:1047DC0001F080FA10BDC04610B501F0C7FA040014
:1047EC0001F0C4FA81B2200001F074FA10BDC04689
:1047FC0010B5FEF769FA040001F0B8FAC1B2200056
:10480C0001F07EFA10BDC04610B501F0AFFA0400FD
:10481C00FEF75AFAA400241801F0A8FAC1B220003D
:10482C0001F06EFA10BDC04610B501F09FFA0400FD
:10483C0001F09CFAC1B2200001F062FA10BDC04632
:10484C0010B5FEF741FA040001F090FA411E8841C0
:10485C00C1B2200001F06AFA10BDC04610B501F0DB
:10486C0085FA0400FEF730FA6401241801F07EFA90
:10487C000100481E8141C9B2200001F057FA10BD59
:10488C0010B501F073FA040001F070FA411E884172
:10489C00C1B2200001F04AFA10BDC04610B501F0BB
:1048AC0065FA0400FEF758FA041901F05FFAFF2CC0
:1048BC0003D8A400034BE05002E08222024B1A7092
:1048CC0010BDC046900900202009002010B501F051
:1048DC004DFA0400FEF740FA6400241801F046FA81
:1048EC0081B2200001F0F6F910BDC04610B501F000
:1048FC003DFA0400FEF730FAA400241801F036FA51
:10490C00C1B2200001F0FCF910BDC04610B501F099
:10491C002DFA0400FEF720FA6401241801F026FA9F
:10492C000100481E8141C9B2200001F0FFF910BD01
:10493C0010B5FEF7C9F9FF2803D88000044BC05806
:10494C0003E08222034B1A70002001F0A9F910BD7C
:10495C00900900202009002010B501F007FA04008E
:10496C00FEF7B2F90019FF2803D88000044BC05899
:10497C0003E08222034B1A70002001F091F910BD64
:10498C00900900202009002010B501F0EFF9040077
:10499C00FEF7E2F90019FF2803D88000044BC05839
:1049AC0003E08222034B1A70002001F079F910BD4C
:1049BC00900900202009002010B501F0D7F9FF283C
:1049CC0003D88000044BC05803E08222034B1A70BA
:1049DC00002001F065F910BD90090020200900208D
:1049EC0010B5FEF771F901F021FA01F059F910BD7B
:1049FC0010B501F0BBF90400FEF766F9640020184D
:104A0C0001F014FA01F04CF910BDC04610B501F0DC
:104A1C00ADF90400FEF7A0F96400201801F006FAC5
:104A2C0001F03EF910BDC04610B501F09FF901F040
:104A3C00FDF901F035F910BD10B5FEF745F901F09F
:104A4C00D3F901F02DF910BD10B501F08FF9040068
:104A5C00FEF73AF96400201801F0C6F901F020F9CC
:104A6C0010BDC04610B501F081F90400FEF774F9D1
:104A7C006400201801F0B8F901F012F910BDC0461D
:104A8C0010B501F073F901F0AFF901F009F910BD9F
:104A9C0010B5FEF719F901F0FFF901F001F910BD9D
:104AAC0010B501F063F90400FEF70EF9A40020180C
:104ABC0001F0F2F901F0F4F810BDC04610B501F0A8
:104ACC0055F90400FEF748F9A400201801F0E4F9A8
:104ADC0001F0E6F810BDC04610B501F047F901F041
:104AEC00DBF901F0DDF810BD10B5FEF7EDF801F0C3
:104AFC00B5F901F0D5F810BD10B501F037F9040087
:104B0C00FEF7E2F8A400201801F0A8F901F0C8F8AB
:104B1C0010BDC04610B501F029F90400FEF71CF9D0
:104B2C00A400201801F09AF901F0BAF810BDC046A3
:104B3C0010B501F01BF901F091F901F0B1F810BDBD
:104B4C0010B5FEF7C1F801F0BDF901F0A9F810BDE0
:104B5C0010B501F00BF90400FEF7B6F8640120184B
:104B6C0001F0B0F901F09CF810BDC04610B501F091
:104B7C00FDF80400FEF7F0F86401201801F0A2F92A
:104B8C0001F08EF810BDC04610B501F0EFF801F041
:104B9C0099F901F085F810BD0D4B1B680D4A126890
:104BAC00934211D90C4A12680F3AFF2A08D8013BDC
:104BBC0007490B600949920052589B005A5006E075
:104BCC008222074B1A7002E08722054B1A7070473D
:104BDC0030000020840000202800002090090020D4
:104BEC00200900200D4B1B680D4A1268934211D905
:104BFC000C4A12680E3AFF2A08D8013B07490B6091
:104C0C000949920052589B005A5006E08222074BE9
:104C1C001A7002E08722054B1A7070473000002092
:104C2C00840000202800002090090020200900208A
:104C3C000D4B1B680D4A1268934211D90C4A12682D
:104C4C000D3AFF2A08D8013B07490B60094992002D
:104C5C0052589B005A5006E08222074B1A7002E011
:104C6C008722054B1A70704730000020840000200A
:104C7C002800002090090020200900200D4B1B6803
:104C8C000D4A1268934211D90C4A12680C3AFF2A49
:104C9C0008D8013B07490B600949920052589B0008
:104CAC005A5006E08222074B1A7002E08722054B0D
:104CBC001A7070473000002084000020280000206B
:104CCC0090090020200900200D4B1B680D4A12682A
:104CDC00934211D90C4A12680B3AFF2A08D8013BAF
:104CEC0007490B600949920052589B005A5006E044
:104CFC008222074B1A7002E08722054B1A7070470C
:104D0C0030000020840000202800002090090020A2
:104D1C00200900200D4B1B680D4A1268934211D9D3
:104D2C000C4A12680A3AFF2A08D8013B07490B6063
:104D3C000949920052589B005A5006E08222074BB8
:104D4C001A7002E08722054B1A7070473000002061
:104D5C008400002028000020900900202009002059
:104D6C000D4B1B680D4A1268934211D90C4A1268FC
:104D7C00093AFF2A08D8013B07490B600949920000
:104D8C0052589B005A5006E08222074B1A7002E0E0
:104D9C008722054B1A7070473000002084000020D9
:104DAC002800002090090020200900200D4B1B68D2
:104DBC000D4A1268934211D90C4A1268083AFF2A1C
:104DCC0008D8013B07490B600949920052589B00D7
:104DDC005A5006E08222074B1A7002E08722054BDC
:104DEC001A7070473000002084000020280000203A
:104DFC0090090020200900200D4B1B680D4A1268F9
:104E0C00934211D90C4A1268073AFF2A08D8013B81
:104E1C0007490B600949920052589B005A5006E012
:104E2C008222074B1A7002E08722054B1A707047DA
:104E3C003000002084000020280000209009002071
:104E4C00200900200D4B1B680D4A1268934211D9A2
:104E5C000C4A1268063AFF2A08D8013B07490B6036
:104E6C000949920052589B005A5006E08222074B87
:104E7C001A7002E08722054B1A7070473000002030
:104E8C008400002028000020900900202009002028
:104E9C000D4B1B680D4A1268934211D90C4A1268CB
:104EAC00053AFF2A08D8013B07490B6009499200D3
:104EBC0052589B005A5006E08222074B1A7002E0AF
:104ECC008722054B1A7070473000002084000020A8
:104EDC002800002090090020200900200D4B1B68A1
:104EEC000D4A1268934211D90C4A1268043AFF2AEF
:104EFC0008D8013B07490B600949920052589B00A6
:104F0C005A5006E08222074B1A7002E08722054BAA
:104F1C001A70704730000020840000202800002008
:104F2C0090090020200900200D4B1B680D4A1268C7
:104F3C00934211D90C4A1268033AFF2A08D8013B54
:104F4C0007490B600949920052589B005A5006E0E1
:104F5C008222074B1A7002E08722054B1A707047A9
:104F6C003000002084000020280000209009002040
:104F7C00200900200D4B1B680D4A1268934211D971
:104F8C000C4A1268023AFF2A08D8013B07490B6009
:104F9C000949920052589B005A5006E08222074B56
:104FAC001A7002E08722054B1A70704730000020FF
:104FBC0084000020280000209009002020090020F7
:104FCC000D4B1B680D4A1268934211D90C4A12689A
:104FDC00013AFF2A08D8013B07490B6009499200A6
:104FEC0052589B005A5006E08222074B1A7002E07E
:104FFC008722054B1A707047300000208400002077
:10500C002800002090090020200900200D4B1B686F
:10501C000D4A1268934211D90C4A12681132FF2AB8
:10502C0008D8013B07490B600949920052589B0074
:10503C005A5006E08222074B1A7002E08722054B79
:10504C001A707047300000208400002028000020D7
:10505C0090090020200900200D4B1B680D4A126896
:10506C00934211D90C4A12681032FF2A08D8013B1E
:10507C0007490B600949920052589B005A5006E0B0
:10508C008222074B1A7002E08722054B1A70704778
:10509C00300000208400002028000020900900200F
:1050AC00200900200D4B1B680D4A1268934211D940
:1050BC000C4A12680F32FF2A08D8013B07490B60D3
:1050CC000949920052589B005A5006E08222074B25
:1050DC001A7002E08722054B1A70704730000020CE
:1050EC0084000020280000209009002020090020C6
:1050FC000D4B1B680D4A1268934211D90C4A126869
:10510C000E32FF2A08D8013B07490B60094992006F
:10511C0052589B005A5006E08222074B1A7002E04C
:10512C008722054B1A707047300000208400002045
:10513C002800002090090020200900200D4B1B683E
:10514C000D4A1268934211D90C4A12680D32FF2A8B
:10515C0008D8013B07490B600949920052589B0043
:10516C005A5006E08222074B1A7002E08722054B48
:10517C001A707047300000208400002028000020A6
:10518C0090090020200900200D4B1B680D4A126865
:10519C00934211D90C4A12680C32FF2A08D8013BF1
:1051AC0007490B600949920052589B005A5006E07F
:1051BC008222074B1A7002E08722054B1A70704747
:1051CC0030000020840000202800002090090020DE
:1051DC00200900200D4B1B680D4A1268934211D90F
:1051EC000C4A12680B32FF2A08D8013B07490B60A6
:1051FC000949920052589B005A5006E08222074BF4
:10520C001A7002E08722054B1A707047300000209C
:10521C008400002028000020900900202009002094
:10522C000D4B1B680D4A1268934211D90C4A126837
:10523C000A32FF2A08D8013B07490B600949920042
:10524C0052589B005A5006E08222074B1A7002E01B
:10525C008722054B1A707047300000208400002014
:10526C002800002090090020200900200D4B1B680D
:10527C000D4A1268934211D90C4A12680932FF2A5E
:10528C0008D8013B07490B600949920052589B0012
:10529C005A5006E08222074B1A7002E08722054B17
:1052AC001A70704730000020840000202800002075
:1052BC0090090020200900200D4B1B680D4A126834
:1052CC00934211D90C4A12680832FF2A08D8013BC4
:1052DC0007490B600949920052589B005A5006E04E
:1052EC008222074B1A7002E08722054B1A70704716
:1052FC0030000020840000202800002090090020AD
:10530C00200900200D4B1B680D4A1268934211D9DD
:10531C000C4A12680732FF2A08D8013B07490B6078
:10532C000949920052589B005A5006E08222074BC2
:10533C001A7002E08722054B1A707047300000206B
:10534C008400002028000020900900202009002063
:10535C000D4B1B680D4A1268934211D90C4A126806
:10536C000632FF2A08D8013B07490B600949920015
:10537C0052589B005A5006E08222074B1A7002E0EA
:10538C008722054B1A7070473000002084000020E3
:10539C002800002090090020200900200D4B1B68DC
:1053AC000D4A1268934211D90C4A12680532FF2A31
:1053BC0008D8013B07490B600949920052589B00E1
:1053CC005A5006E08222074B1A7002E08722054BE6
:1053DC001A70704730000020840000202800002044
:1053EC0090090020200900200D4B1B680D4A126803
:1053FC00934211D90C4A12680432FF2A08D8013B97
:10540C0007490B600949920052589B005A5006E01C
:10541C008222074B1A7002E08722054B1A707047E4
:10542C00300000208400002028000020900900207B
:10543C00200900200D4B1B680D4A1268934211D9AC
:10544C000C4A12680332FF2A08D8013B07490B604B
:10545C000949920052589B005A5006E08222074B91
:10546C001A7002E08722054B1A707047300000203A
:10547C008400002028000020900900202009002032
:10548C000D4B1B680D4A1268934211D90C4A1268D5
:10549C000232FF2A08D8013B07490B6009499200E8
:1054AC0052589B005A5006E08222074B1A7002E0B9
:1054BC008722054B1A7070473000002084000020B2
:1054CC00280000209009002020090020094B1B68AF
:1054DC00094A1268934208D9013B064A13609B00A3
:1054EC0080210906054A995002E08722044B1A7064
:1054FC007047C04630000020840000209009002036
:10550C0020090020094B1B68094A1268934208D9EC
:10551C00013B064A13609B0001214942054A995000
:10552C0002E08722044B1A707047C04630000020FE
:10553C00840000209009002020090020084B1B68E3
:10554C00084A1268934207D9013B054A13609B0035
:10555C000121054A995002E08722044B1A707047CA
:10556C003000002084000020900900202009002039
:10557C00084B1B68084A1268934207D9013B054A3D
:10558C0013609B000021054A995002E08722044BCE
:10559C001A70704730000020840000209009002011
:1055AC0020090020084B1B68084A1268934206D257
:1055BC0007499B005A58504242415A5002E08722F8
:1055CC00044B1A707047C0463000002028000020A1
:1055DC00900900202009002030B50C4B1A68531C90
:1055EC000B4909688B420CD208490B6009499B0096
:1055FC00920054585858E517C20F84426A415A50C9
:10560C0002E08722044B1A7030BDC04630000020E7
:10561C0028000020900900202009002010B50C4B18
:10562C001A68531C0B4909688B420CD208490B6051
:10563C0009499B009200012052585C58A24200DCA0
:10564C000020585002E08722044B1A7010BDC0464F
:10565C0030000020280000209009002020090020A4
:10566C0030B50C4B1A68531C0B4909688B420CD291
:10567C0008490B6009499B00920050585C58C50FB3
:10568C00E21784426A415A5002E08722044B1A7096
:10569C0030BDC046300000202800002090090020BA
:1056AC002009002010B50C4B1A68531C0B490968D3
:1056BC008B420CD208490B6009499B0092000120D7
:1056CC0052585C58A24200DB0020585002E087225E
:1056DC00044B1A7010BDC04630000020280000207A
:1056EC0090090020200900200B4B1A68531C0B4911
:1056FC0009688B420BD208490B6009499B00920048
:10570C0052585858121A501E82415A5002E08722A1
:10571C00044B1A707047C04630000020280000204F
:10572C00900900202009002010B50B4B1A68531C5F
:10573C000A4909688B420BD207490B6008499B0048
:10574C00920052585858121A544254415C5002E07C
:10575C008722044B1A7010BD300000202800002056
:10576C009009002020090020074B1B68074A12688B
:10577C00934205D206499B005A5852425A5002E0B5
:10578C008722044B1A70704730000020280000203C
:10579C009009002020090020074B1B68074A12685B
:1057AC00934205D206499B005A58013A5A5002E0DE
:1057BC008722044B1A70704730000020280000200C
:1057CC009009002020090020074B1B68074A12682B
:1057DC00934205D206499B005A5801325A5002E0B6
:1057EC008722044B1A7070473000002028000020DC
:1057FC00900900202009002070B50B4B1A68531C2F
:10580C000A4909688B420AD207490B60084D9C0073
:10581C00920051596059FAF7EBFD615102E0872271
:10582C00044B1A7070BDC0463000002028000020C8
:10583C00900900202009002070B50E4B1A68531CEB
:10584C000D4909688B4211D20A490B6092000B4931
:10585C005158002906D0094D9C006059FAF7E2FC1A
:10586C00605106E08622064B1A7002E08722044B38
:10587C001A7070BD30000020280000209009002014
:10588C00200900200A4B1A68531C0A4909688B42EC
:10589C0009D207490B6008499B009200525858588E
:1058AC0042435A5002E08722044B1A707047C0469C
:1058BC003000002028000020900900202009002042
:1058CC000A4B1A68531C0A4909688B4209D20749CA
:1058DC000B6008499B00920052585858821A5A5033
:1058EC0002E08722044B1A707047C046300000203B
:1058FC002800002090090020200900200A4B1A687B
:10590C00531C0A4909688B420AD207490B600849A3
:10591C009B00920052585858844662445A5002E0F8
:10592C008722044B1A70704730000020280000209A
:10593C0090090020200900200A4B1A68531C0A49C0
:10594C0009688B4209D207490B6008499B009200F9
:10595C005258585842405A5002E08722044B1A7051
:10596C007047C0463000002028000020900900201D
:10597C00200900200A4B1A68531C0A4909688B42FB
:10598C0009D207490B6008499B009200525858589D
:10599C0002435A5002E08722044B1A707047C046EB
:1059AC003000002028000020900900202009002051
:1059BC000A4B1A68531C0A4909688B4209D20749D9
:1059CC000B6008499B0092005258585802405A509C
:1059DC0002E08722044B1A707047C046300000204A
:1059EC00280000209009002020090020074B1B688C
:1059FC00074A1268934205D206499B005A58D24373
:105A0C005A5002E08722044B1A7070473000002075
:105A1C0028000020900900202009002010B5094B17
:105A2C001A68531C084909688B4207D2074992002F
:105A3C0050589B005C585450585002E08722044B3D
:105A4C001A7010BD300000202800002090090020A2
:105A5C0020090020094B1A68531C094909688B421C
:105A6C0007D206490B600749920052589B005A50C6
:105A7C0002E08722044B1A707047C04630000020A9
:105A8C00280000209009002020090020064B1B68EC
:105A9C00064A1268934203D20133034A136002E0B0
:105AAC008722034B1A70704730000020280000201A
:105ABC00200900200B4B1B680B4A126893420CD236
:105ACC000A4A1268934208D9094A99008958013B3D
