:020000040800F2
:1000000000200020911D0008E11D0008E11D0008EE
:1000100000000000000000000000000000000000E0
:10002000000000000000000000000000E11D0008CA
:100030000000000000000000E11D000801050008AC
:10004000E11D0008E11D0008E11D0008E11D000898
:10005000E11D0008310800086D080008A908000823
:10006000E11D0008E11D0008E11D0008E11D000878
:10007000E11D0008E11D0008E11D0008E11D000868
:10008000E11D0008E11D0008E11D0008E11D000858
:10009000E11D0008E11D0008E11D0008E11D000848
:1000A00061180008E11D0008E11D0008E11D0008BD
:0C00B000E11D0008E11D0008E11D000832
:1000BC0010B5064C2378002B07D1054B002B02D032
:1000CC00044800E000BF0123237010BD3C00002059
:1000DC0000000000FC790008084B10B5002B03D081
:1000EC000749084800E000BF07480368002B00D10F
:1000FC0010BD064B002BFBD09847F9E70000000021
:10010C0040000020FC7900083C00002000000000AA
:10011C00002243088B4274D303098B425FD3030A3A
:10012C008B4244D3030B8B4228D3030C8B420DD34D
:10013C00FF22090212BA030C8B4202D312120902DB
:10014C0065D0030B8B4219D300E0090AC30B8B4219
:10015C0001D3CB03C01A5241830B8B4201D38B03C7
:10016C00C01A5241430B8B4201D34B03C01A52416C
:10017C00030B8B4201D30B03C01A5241C30A8B42AF
:10018C0001D3CB02C01A5241830A8B4201D38B029A
:10019C00C01A5241430A8B4201D34B02C01A52413E
:1001AC00030A8B4201D30B02C01A5241CDD2C309B0
:1001BC008B4201D3CB01C01A524183098B4201D32C
:1001CC008B01C01A524143098B4201D34B01C01A17
:1001DC00524103098B4201D30B01C01A5241C3088F
:1001EC008B4201D3CB00C01A524183088B4201D3FE
:1001FC008B00C01A524143088B4201D34B00C01AEA
:10020C005241411A00D20146524110467047FFE755
:10021C0001B5002000F0F0F802BDC0460029F7D06F
:10022C0076E7704703460B437FD4002243088B428A
:10023C0074D303098B425FD3030A8B4244D3030B61
:10024C008B4228D3030C8B420DD3FF22090212BA26
:10025C00030C8B4202D31212090265D0030B8B42A2
:10026C0019D300E0090AC30B8B4201D3CB03C01A8C
:10027C005241830B8B4201D38B03C01A5241430B67
:10028C008B4201D34B03C01A5241030B8B4201D357
:10029C000B03C01A5241C30A8B4201D3CB02C01AC2
:1002AC005241830A8B4201D38B02C01A5241430A3A
:1002BC008B4201D34B02C01A5241030A8B4201D329
:1002CC000B02C01A5241CDD2C3098B4201D3CB01D0
:1002DC00C01A524183098B4201D38B01C01A52417F
:1002EC0043098B4201D34B01C01A524103098B4283
:1002FC0001D30B01C01A5241C3088B4201D3CB006E
:10030C00C01A524183088B4201D38B00C01A524150
:10031C0043088B4201D34B00C01A5241411A00D200
:10032C0001465241104670475DE0CA0F00D0494269
:10033C00031000D34042534000229C4603098B42D9
:10034C002DD3030A8B4212D3FC22890112BA030A61
:10035C008B420CD3890192118B4208D389019211E3
:10036C008B4204D389013AD0921100E08909C30968
:10037C008B4201D3CB01C01A524183098B4201D36A
:10038C008B01C01A524143098B4201D34B01C01A55
:10039C00524103098B4201D30B01C01A5241C308CD
:1003AC008B4201D3CB00C01A524183088B4201D33C
:1003BC008B00C01A5241D9D243088B4201D34B0057
:1003CC00C01A5241411A00D20146634652415B1099
:1003DC00104601D34042002B00D54942704763467A
:1003EC005B1000D3404201B5002000F005F802BDBF
:1003FC000029F8D016E770477047C04672B6044A19
:10040C00136801331360BFF34F8FBFF36F8F7047C7
:10041C005C000020054B1B68002B00D1FEE7013B64
:10042C00024A1360002B00D162B670475C000020BA
:10043C0010B500F08DF800F04BFF00F00DF9064AF6
:10044C00516940230B4353610122044B9A600022F3
:10045C00034B1A6010BDC046001002400030024031
:10046C005C00002010B50E4B1868FA218900FFF7CC
:10047C004FFE02380B4B98420FD80B4A50600B4979
:10048C000B6A1B021B0AC020000603430B620023ED
:10049C0093600733136062B600E0FEE710BDC04600
:1004AC0008000020FFFFFF0010E000E000ED00E07E
:1004BC00024B9A68024B1A601868704710E000E013
:1004CC0000300240034B9A68034B1A60186880B2E4
:1004DC007047C04610E000E000300240014B186845
:1004EC007047C04664000020014B18687047C04636
:1004FC006800002010B5114A136801331360104BCB
:10050C001B8801339BB20F4A934202D80C4A1380CA
:10051C0006E000220A4B1A800B4A13680133136061
:10052C000A4B1B88092B03D80133084A138004E0BB
:10053C0006F084FB0122054B1A8010BD64000020DC
:10054C0060000020E6030000680000205800002036
:10055C0010B5384B1A688021C9020A431A601A6810
:10056C00802149020A431A601B689B0357D400235D
:10057C00304880218902A024E401013302680A4238
:10058C0002D1A342F9D141E011212B4A1160294932
:10059C0048682A4A02404A60294A934206D8254AAA
:1005AC005368882149030B4353600CE0214B1968B5
:1005BC00244A1140196059680A405A605A68A021AF
:1005CC0089030A435A60204B204A1360204A136067
:1005DC00204A1360174A1368802149040B431360A7
:1005EC001100802292040B681342FCD0114B5A6804
:1005FC0003218A435A60596802220A435A6019003F
:10060C000C224B681340082BFBD111E011220A4B32
:10061C001A60084A5168094B0B405360C6E7112217
:10062C00054B1A60034A5168044B0B405360B6E704
:10063C0010BDC04600100240002002400FF8C3FF5E
:10064C00FF4F0000FFFFFEFF006CDC0208000020E3
:10065C000000002004000020034A5369BC21C90398
:10066C000B4353617047C04600100240F0B55F4623
:10067C0056464D464446F0B485B0894603230321C3
:10068C0011408A465107C90F0291D11019408C466E
:10069C0051110B4003931205130F019300230122F8
:1006AC009046023A624493464F4600934146994025
:1006BC00394247D05C0005680322A240D243154062
:1006CC00056005686646A640354305605D46012D0C
:1006DC000FD88568154085608568039EA640354314
:1006EC00856045688D4345604168029D9D40294366
:1006FC004160C1680A40C260C2685146A1400A43C9
:10070C00C2606246022A1DD19AB2072A0CD8009AFE
:10071C009600026A0F21B1408A430262026A019973
:10072C00B1400A4302620DE01A00083A9200416A95
:10073C000F249440A1434162416A019C94402200E1
:10074C000A4342620133102BAFD105B03CBC90463A
:10075C009946A246AB46F0BDF0B52D4DAB690124D0
:10076C002343AB610F250540AE002A4BF250AB087A
:10077C009B00294A944663449E68032202409200DF
:10078C000F279740BE439E609E68000990403043FF
:10079C0098602200AA40214B1868104318605C68CE
:1007AC00D04304405C601404240C5C61CB0704D57A
:1007BC001A4CE3681343E36003E0184CE36803400E
:1007CC00E3608B0704D515498B681A438A6003E0F4
:1007DC00124B9A6810409860012D06D90023032211
:1007EC00AA425B410432D31A00E005230C49C1250F
:1007FC00AD004859DBB203221A40D200FF249440CA
:10080C00A04348511F2213401E3A9A400A60F0BD83
:10081C00001002406C000020000001400004014068
:10082C0000E100E010B50C4B5B69DB0707D501223A
:10083C00094B5A61094B1B68002B00D09847064B9B
:10084C005B699B0707D50222034B5A61034B5B681C
:10085C00002B00D0984710BD000401406C00002014
:10086C0010B50C4B5B695B0707D50422094B5A6129
:10087C00094B9B68002B00D09847064B5B691B0704
:10088C0007D50822034B5A61034BDB68002B00D0C1
:10089C00984710BD000401406C000020F8B50A4DCB
:1008AC00103504240127094E3B00A34072691A42FB
:1008BC0004D073612B68002B00D0984701340435A9
:1008CC00102CF1D1F8BDC0466C0000200004014092
:1008DC00FF23102801D8024B1B5C18007047C04640
:1008EC00247A0008FF230F2801D8024B1B5C180048
:1008FC007047C046147A000810B50F282BD8174B38
:10090C00185CFF2905D1FD2827D8002100F042F8FA
:10091C0023E0FD2802D8182100F03CF8104B9B690D
:10092C009B051AD40E4A9369802189000B4393616D
:10093C000C4A9368802109060B4393609368002B43
:10094C00FCDB084B084ADA6007225A619968063AC0
:10095C000A439A6001E0FF29E0D110BD147A000827
:10096C00001002400024014020900000012383402D
:10097C00014A93627047C04600240140044B186C36
:10098C0000B2996804220A439A6040107047C0462E
:10099C000024014070B50A000309062B0CD89B00FB
:1009AC0006495D58002D07D00F2404400123A340B5
:1009BC0099B22800FFF75AFE70BDC0468C7A000829
:1009CC00FF23572801D8024B1B5C18007047C04608
:1009DC00347A0008062807D88000054BC358002B32
:1009EC0004D0186980B202E0002000E000207047BB
:1009FC008C7A0008062805D88000034BC358002BBE
:100A0C0000D099617047C0468C7A0008062805D83A
:100A1C008000034BC358002B00D099627047C0462E
:100A2C008C7A00080C4BDB68DB070BD5002803D154
:100A3C0011E0002802D10DE0074901220138CB68F2
:100A4C001A42F6D1044BDB6814201840434258413B
:100A5C00C0B200E00020704700200240F8B506004C
:100A6C00B0200003FFF7DEFF041E1FD0FFF7C6FC0B
:100A7C000F4D104B6B60104B6B602B6902273B4387
:100A8C002B61B60AB6026E612A69402313432B61AF
:100A9C00B0200003FFF7C6FF04002B69BB432B619A
:100AAC002A69802313432B61FFF7B4FC2000F8BDA7
:100ABC000020024023016745AB89EFCDF0B54746D6
:100ACC0080B407000E00B0200003FFF7ABFF041E3C
:100ADC0021D0FFF793FC124D124B6B60124B6B60E5
:100AEC002B690122904613432B613E80B0200003FA
:100AFC00FFF798FF04002B69424693432B613B8818
:100B0C009BB29E4200D00024054A116980230B43FE
:100B1C001361FFF77FFC200004BC9046F0BDC0467B
:100B2C000020024023016745AB89EFCD70B5013041
:100B3C004000264B98423FD9254BC418254B9C4668
:100B4C0060440123214A06E021498C466444013368
:100B5C00DBB2A0422ED09442F6D82FE002789A4213
:100B6C0003D100E01C4820182FE08022D2009446CC
:100B7C0060448842F2D1184E80256D001D433288A6
:100B8C00164B9A420DD129003000FFF797FF002831
:100B9C0001D0A01919E03422114BDA603000FFF7B4
:100BAC005DFF8023DB009C4666440E4B9E42E6D1E3
:100BBC0000200AE0002008E004000023064A127816
:100BCC009A42CFD008480749C8E770BDFF03000020
:100BDC0002FCFFFF0CE8FFFF00E00008FFFF000035
:100BEC00002002400000010800E40008F8B55F4650
:100BFC0056464D464446F0B4304B9846304E314B39
:100C0C009B46314F04E08023DB009C466644E04465
:100C1C005B463422DA6035882C4B9D420CD1B20AEB
:100C2C009202136801333DD038E01968013135D197
:100C3C0004339342F9D12EE0FF232A009A4302D0C9
:100C4C00EBB2052B03DD3000FFF708FF23E0B845BE
:100C5C002ED82B0AFF2B00D100239BB29A46444678
:100C6C00FF23994623882A005A40494611420BD14A
:100C7C001B0AFF2B05D09A4503D22000FFF7EEFE8E
:100C8C0002E03000FFF7EAFE8023DB009C46644460
:100C9C00BC42E7D9B7E7B845B5D909E03000FFF752
:100CAC00DDFEF8E7131D8021C9008C466244BCE7C9
:100CBC003CBC90469946A246AB46F8BD00E4000801
:100CCC0000E0000800200240FFFF0008FFFF0000CA
:100CDC00F8B50600151E13D00C000020761AFF275D
:100CEC00830502D12000FFF721FF002801D13755E1
:100CFC0002E00378335502300134013D002DEFD171
:100D0C00F8BDC046F0B55F4656464D464446F0B475
:100D1C0085B0039002910192002A00D1C8E0684B83
:100D2C009B460298FFF702FF80468405A40D8023A2
:100D3C00DB001C1B6408019A944200D91400002C9F
:100D4C0000D1A7E0039E270045465E4B99465E4BBB
:100D5C009A4631784B46194389B22B8899420BD06D
:100D6C0053450FD12800FFF7A9FE002804D13422E7
:100D7C00564BDA60474606E00235013F0136002F3C
:100D8C00E7D187E047464E4B1B68514A9918514AA8
:100D9C00914201D89B0502D04F4B494A13605B46E8
:100DAC001E6808234D4848498022D2009446664468
:100DBC00864200D9484E32888A4206D0013BDBB2CB
:100DCC00002BF1D13E4B1E6072E03D4B1E60002E9D
:100DDC006ED0BD0AAD022988414B994203D801312E
:100DEC00FF3189B203E0FF2319400133194330006E
:100DFC00FFF764FE002806D13422344BDA60300051
:100E0C00FFF72CFEBFE702350236AF4218D92E4B46
:100E1C0098462988338899420ED0434504D1300036
:100E2C00FFF74CFE002807D13422284BDA60B00AB9
:100E3C008002FFF713FEA6E702350236AF42E8D870
:100E4C0064006319A219DC43A405A40D0134160037
:100E5C009D1A1D4B9846A95B338899420ED0434589
:100E6C0004D13000FFF72AFE002807D13422174B9B
:100E7C00DA60B00A8002FFF7F1FD84E70236023C2B
:100E8C00002CE8D13800FFF7E9FD019B002B00D0C6
:100E9C0047E70DE0019B1B1B0193029B9C46A4445E
:100EAC0063460293039B9C46A44463460393ECE77E
:100EBC0005B03CBC90469946A246AB46F0BDC04638
:100ECC000C00002000FFFFFFFFFF0000002002408D
:100EDC000020FFF7FF1F000000E00008FFFF0008E4
:100EEC00FFFE00000023532806D84000034BC35AD2
:100EFC00FF3B581E8341DBB218007047387B00085B
:100F0C0040000B4BC35A1A06D20E92000949525894
:100F1C00002A0AD0126A03210B409B000320984040
:100F2C001040431E9841C0B200E001207047C046FB
:100F3C00387B00088C7B000870B504000E00FFF7AE
:100F4C003FFD6400744BE55AF02109012940102340
:100F5C001943FFF71FFD2B06DB0E9AB2112A00D99D
:100F6C00D9E09B006D4AD3589F466D4A9369802106
:100F7C0009010B4393616B4B18686B4C39E0684A61
:100F8C00D16901230B43D361684B18688024E405B5
:100F9C002FE0634AD16902230B43D361634B18687A
:100FAC00634C26E05E4AD369802149000B43D36130
:100FBC005E4B18685F4C1CE0594A936980214902CA
:100FCC000B439361574B18685B4C12E0544A93697E
:100FDC00802189020B439361524B1868574C08E0EF
:100FEC004F4A93698021C9020B4393614D4B18689A
:100FFC00534C5449FFF78CF803005A1E9341C01A06
:10100C0080232360A062504BE36203231D40012D1B
:10101C0021D0002D04D0022D38D0032D53D06EE0FA
:10102C0000236363A269FF231B021340A361A2691F
:10103C0068231343A361226A012313432362002E06
:10104C0004D0226A02231343236258E0236A02224B
:10105C009343236253E00023A363A369FF2213404D
:10106C00A361A369D022D2011343A361226A102386
:10107C0013432362002E04D0226A202313432362DD
:10108C003DE0236A20229343236238E00023E3638C
:10109C00E269FF231B021340E361E26968231343F7
:1010AC00E361236A8022520013432362002E05D091
:1010BC00236A0132FF321343236220E0226A234B5E
:1010CC00134023621BE000232364E369FF221340D7
:1010DC00E361E369D022D2011343E361236A8022E6
:1010EC00520113432362002E05D0236A8022920101
:1010FC001343236203E0226A154B13402362636C93
:10110C008022120213436364226801231A43226073
:10111C0062691343636170BD387B0008A87A0008CC
:10112C000010024004000020002C014000000020B0
:10113C0000040040002000400040014000440140F9
:10114C00004801409CFF6300FEFF0000FFFDFFFF15
:10115C00FFDFFFFF10B50400FFF732FC0021FFF7A3
:10116C0019FC6400254BE25A1106C90E8800244B69
:10117C00C358002B41D0186A03242240920094409B
:10118C00A0431862186A1F4A104236D1586C1E4A86
:10119C0002405A641A68012082431A6011292CD823
:1011AC0089001A4B5B589F46194A9169194B0B40A1
:1011BC00936122E0164AD36901218B43D3611CE071
:1011CC00134AD36902218B43D36116E0104AD169CB
:1011DC00114B0B40D36110E00D4A91690F4B0B4042
:1011EC0093610AE00A4A91690D4B0B40936104E04C
:1011FC00074A91690B4B0B40936110BD387B00087B
:10120C008C7B000811110000FF7FFFFFF07A0008B3
:10121C0000100240FFF7FFFFFFFEFFFFFFFFFEFF86
:10122C00FFFFFDFFFFFFFBFF2A2812D84000094BF0
:10123C00C35AFF2B0DD01A06D20E92000648105836
:10124C00002806D0032213409A0013003433C3182D
:10125C0019607047387B00088C7B000870B58025BE
:10126C006D01084C682229002000FFF7FFF9A561E9
:10127C0001211B20FFF78EFB034A0821022000F0FE
:10128C008BF970BD00040048A025260070B5010044
:10129C00044C80256D01A562022000F0E1F9A561E6
:1012AC0070BDC0460004004810B50120FFF792FB4A
:1012BC00C00A012358400123184010BD10B5034A41
:1012CC0001211B20FFF748FA10BDC0461120000871
:1012DC00224BDA69802149050A43DA6120490A6800
:1012EC008020400002430A601B6A832212021340D2
:1012FC00934213D0194B1A6A802149020A431A628D
:10130C00196A184A0A401A621A6AC02189000A43EB
:10131C001A621A6A802109020A431A62124BCA2203
:10132C005A62773A5A62DB68DB0615D40E4AD168EA
:10133C0080230B43D36011004022CB681A42FCD0AF
:10134C00094B0A4A1A61DA6880218A43DA6019006B
:10135C008022CB681A42FCD17047C0460010024074
:10136C0000700040FFFFFEFF00280040CF077C000C
:10137C00F0B55F4656464D464446F0B483B0050082
:10138C004D4C2668676800230193009303220100EB
:10139C0001A806F024FBE91C0322684606F01FFB9B
:1013AC00E26880231343E36021004022CB681A4299
:1013BC00FCD0424B1A6AC0239B001340802292003F
:1013CC00934263D1009B9F4260D13B4B1F697F04CA
:1013DC007B0C9C46330A0F252B401A01D31A99001B
:1013EC003209072713003B409A00D3185B00CB1837
:1013FC002A0032409B18320C2A40E124240162431B
:10140C009B18320B3A409620800042439B18360DB5
:10141C000322904616402A4A934656439B19019A3A
:10142C00160A2E4031018E1BB100894616093E402A
:10143C00B1008A46564476004E4429001140894634
:10144C004E44110C0D406C433419150B3D40684350
:10145C002018120D41460A40594651434218591D55
:10146C008A4208D9852149008C4504D9124A13694E
:10147C00013B13610AE00532934207D96023FF3325
:10148C009C4503D80C4A1369013313610A4B009A2B
:10149C005A60019A1A60DA6880218A43DA6019006E
:1014AC008022CB681A42FCD103B03CBC90469946D2
:1014BC00A246AB46F0BDC0460028004000100240DA
:1014CC00A08C000030B583B00400084D2B6801934C
:1014DC00032201A906F083FA6B680193E01C032236
:1014EC0001A906F07CFA062003B030BD00280040AC
:1014FC0070B5134B1B681D0A0F24254029014A1B8C
:10150C009500190907260A00324091008A185200EA
:10151C00AA18200018401218180C0440E1252D01BF
:10152C006C4310191A0B32409624A400210051432D
:10153C0042189B029B0F03484343D01870BDC04612
:10154C0000280040A08C000070B5124B5B689A0616
:10155C00920F9000821852000F21080018401018AA
:10156C001A0A114080256D011D4000D00A251A0D64
:10157C000F2422409600B21852001E0C344014194D
:10158C002406000220431B045B0F0343681800046D
:10159C00184370BD0028004070B50D0014000228DF
:1015AC0017D1294AD3698021C9010B43D361702219
:1015BC00E02109022548FFF759F8254B196849081D
:1015CC002200244B9C4200D91A000023914201D8DE
:1015DC0007E0FEE701339BB24908914201D9072B82
:1015EC00F8D1DB00C122920013431B4A13602B0776
:1015FC0004D5F0221201184B5A6003E0B8225201B4
:10160C00154B5A606B0704D5134A116880230B43A2
:10161C001360EB0704D5104A116801230B431360C8
:10162C00AB0704D50C4A116802230B4313600A4B19
:10163C0007221A61D969094A0A40DA6119684022FD
:10164C000A431A6070BDC0460010024000040048F6
:10165C000000002080A8120100380040FFF70000B5
:10166C008000054BC258D160012193681942FCD00F
:10167C00D06880B27047C046D47B000856230370F4
:10168C0001330B707047C04610B5002841D00222C0
:10169C00C0212E48FEF7EAFF80231B022B48C021F5
:1016AC001C0002690A40C02A0AD001339BB2002BED
:1016BC00F7D10022C0212548FEF7D8FF002043E0D7
:1016CC00A3423FD8013B9BB2002BEAD11422C0218C
:1016DC001E48FEF7CBFF1E4BD9698020C003014387
:1016EC00D9611A6902431A6119691A4A0A401A61C6
:1016FC00194B1A4A1A6101221A60194BC62189002A
:10170C005A58FF2082435A50802252041A60FE38E5
:10171C001AE0802149048023114AD1500C4B1A69DC
:10172C008021C9030A431A6119690A4A11401961D7
:10173C00D9690A40DA610022C0210448FEF796FFFD
:10174C00012001E02300ACE710BDC04600140048A6
:10175C0000100240FFFFBFFF005800405D3E3020EC
:10176C0000E100E0024A136801218B4313607047CB
:10177C0000580040334B9B69E022D20013420BD03F
:10178C00304A136801218B4313602F4B1A6851792F
:10179C0080230B43537154E01B0452D4294B1A6819
:1017AC0001218A431A600021284A1170264A1268C6
:1017BC0050790831014351715279D2B2912119609B
:1017CC006139D961D30723D51F4B196808798B79F7
:1017DC0040001B0403431B4843608B79002B04D04F
:1017EC0001000068022303430B6093070AD4154BD6
:1017FC005A68802189040A435A60196820220A43D6
:10180C001A6018E00F4A116840230B43136012E072
:10181C000D4B1A68D379DBB2002B00D1013312794E
:10182C0052000B490A431B041343064A53601168C8
:10183C0004230B431360034A5368802189010B4333
:10184C00536070470058004054060020AC00002044
:10185C00000400025C4B9B69E022D20013420BD0C7
:10186C00594A136801218B431360584B1A685179FC
:10187C0080230B435371A6E0DA0643D51022524B5A
:10188C00DA61534B1B78002B09D10F3A4E4B1A607F
:10189C004E4B1A68517940230B43537193E04B4BD9
:1018AC001B685A79D20700D48DE0494A1278D2B21B
:1018BC009A715A7992071DD5DA79D2B2002A00D1E1
:1018CC0001321B795B0043490B4312041A433E4B14
:1018DC005A605A68802189010A435A6019680422A7
:1018EC000A431A601A6842218A431A600022384B54
:1018FC001A7068E00122344B1A60344B1B680F32AB
:10190C005A7160E0304A126852071BD55A0719D534
:10191C002E4B18682E4A1378DBB2591CC9B21170C1
:10192C002949496AC9B2C3181972C3791278DBB252
:10193C00934248D80122244B1A60244B1B680F3267
:10194C005A7140E0204A126892070FD59A070DD5BC
:10195C001E4B18681E490A78D3B25A1CD2B20A70B0
:10196C00C3181B7ADBB2184A93622CE05A061FD5B7
:10197C00164B1A68D379DBB2002B00D101331279E4
:10198C00520014490A431B0413430F4A5360536813
:10199C00802189010B435360116804230B431360AE
:1019AC00136842218B4313600022094B1A700AE022
:1019BC009B0608D5044B2022DA611F3A1A60034BB0
:1019CC001B680F325A7170470058004054060020B3
:1019DC00AC0000200004000210B5140089005B4B21
:1019EC00C958002851D0012800D0ACE0584B9B6955
:1019FC005B0416D4564B9A698020C00102439A614D
:101A0C005869012202435A614808524B1B68C0189E
:101A1C00FEF77EFB504BD86000221A605A609A6029
:101A2C0004E04D4A136801218B431360E30717D57B
:101A3C0010211720FEF7AEFF484B494A9A60494ADD
:101A4C00DA6040225A60A1211960434B18689D3915
:101A5C000143196099680A439A600022424B1A802C
:101A6C00A3070CD510211620FEF794FF3A4B1968EA
:101A7C0008220A431A60996880220A439A60364AFF
:101A8C00116801230B4313605EE0314BDB699B0350
:101A9C0016D42F4BDA69802080020243DA61586930
:101AAC00012202435A614808304B1B68C018FEF7EC
:101ABC002FFB2F4BD86000221A605A609A6004E00A
:101ACC002B4A136801218B431360E30718D5882137
:101ADC0049000320FEF75EFF264B274A9A60274AEF
:101AEC00DA6040225A60A1211960214B18689D3997
:101AFC000143196099680A439A600022204B1A80AE
:101B0C00A3070DD5882149000220FEF743FF184B8F
:101B1C00196808220A431A60996880220A439A605D
:101B2C0063070AD5882149000120FEF733FF104ACC
:101B3C0093688021C9010B4393600D4A11680123FE
:101B4C000B43136000E0FEE710BDC046E47B0008C9
:101B5C000010024004000020003801403000024018
:101B6C0024380140F0000020320100200000002049
:101B7C00004400405800024024440040B0000020C3
:101B8C003001002000280CD0012815D10B4B5A68CD
:101B9C000B4B18884023181A801A431E9841C0B268
:101BAC000BE0084B5A68084B18884023181A801A07
:101BBC00431E9841C0B200E0002070473000024044
:101BCC0032010020580002403001002000280ED0C5
:101BDC00012819D10D490A88531C9BB20B800C4962
:101BEC00885C3F2B11D90022084B1A800DE0094963
:101BFC000A88531C9BB20B800749885C3F2B04D985
:101C0C000022044B1A8000E00020704732010020B3
:101C1C00F000002030010020B0000020002811D07E
:101C2C00012820D1114B1B68DB071DD50F4B5B68BE
:101C3C000020002B18D10D4A136801218B4313602F
:101C4C00013011E00A4B1B680120DB070CD5084B57
:101C5C005B680020002B07D1054A136801218B43D8
:101C6C001360013000E001207047C0461C000240A8
:101C7C0044000240002809D001280ED1074B084827
:101C8C009860DA60596091221A6006E0054B0648AC
:101C9C009860DA60596091221A6070471C0002400B
:101CAC00283801404400024028440040002806D057
:101CBC00012809D117230B70013B137007E0032394
:101CCC000B70013B137002E0FF230B701370704715
:101CDC0010B5002821D001283FD1214A13680121D9
:101CEC008B43136000231F4A13601F4A13601F4B62
:101CFC00DA688021C9010A43DA60D9681C4A1140AC
:101D0C00D96099690A409A6100211630FEF742FEAB
:101D1C0000211620FEF73EFE20E0164A1368012132
:101D2C008B4313600023144A1360144A13600F4B47
:101D3C001A69802189020A431A611969104A1140F3
:101D4C001961D9690A40DA6100210320FEF722FEED
:101D5C0000210220FEF71EFE00E0FEE710BDC0468B
:101D6C00003801401C0002403000024000100240CC
:101D7C00FFBFFFFF004400404400024058000240F7
:101D8C00FFFFFDFF0D488546002103E00C4B5B581F
:101D9C00435004310B480C4B42189A42F6D30B4A71
:101DAC0002E0002313600432094B9A42F9D300F08D
:101DBC0013F805F0DFFD04F013FFFEE70020002010
:101DCC0034890008000000203C0000203C0000206A
:101DDC00B0130020FEE70000114B1A6801210A43E2
:101DEC001A6058680F4A02405A6018680E4A02403E
:101DFC001A6018680D4A02401A6058680C4A024072
:101E0C005A60DA6A0F208243DA62186B094A024080
:101E1C001A635A6B8A435A6300229A607047C04611
:101E2C00001002400CB8FFF8FFFFF6FEFFFFFBFFAF
:101E3C00FFFFC0FFACFEFFFF10B5134B1B68002B60
:101E4C000AD00120FFF7EAFE002805D00E4C2068CE
:101E5C0004F064FF002323600C4B5B7A002B12D040
:101E6C000120FFF7DBFE00280DD0084804F09AFF94
:101E7C00054B1860002806D0421D41790131C9B2CA
:101E8C000120FFF7F7FE10BD3C01002010000020E0
:101E9C0010B582B00C4C01E004F040FF200004F0BF
:101EAC0081FF0028F8D16B46DA1D01231370074B14
:101EBC000121074804F022FA032204210120FFF734
:101ECC008BFD02B010BDC046100000203501002073
:101EDC0010FF000010B504000100064804F036FFA6
:101EEC00002803D1200004F019FF01E0FFF7A4FF44
:101EFC0010BDC04610000020F0B5474680B4FFF777
:101F0C009BFF2C4D2C4C2D4E33E00120FFF75EFE39
:101F1C000700FEF7E3FA28802378002B0ED1BB1EB6
:101F2C00DBB22F2B25D8382004F0A6FE244B1860EA
:101F3C00214B1F700022214B1A701AE03278312A83
:101F4C0009D81F4909688846501C84461B486146BD
:101F5C00017042449771194A1278934209D1184B77
:101F6C001868184B1B78037142710022124B1A70BF
:101F7C001CE00120FFF706FE0028C6D10E4B1B7893
:101F8C00002B12D0FEF7AAFA0004000C094B1B8898
:101F9C00C31A0020642B09D90022074B1A70084B76
:101FAC00186804F0BBFE002000E0002004BC904642
:101FBC00F0BDC0463601002034010020380100205D
:101FCC0040010020350100200048704735010020F9
:101FDC0070B50B8808228025094E1C1244402542FE
:101FEC0003D05B0073409BB201E05B009BB24000EE
:101FFC00C0B2013AD2B2002AEFD10B8070BDC046FC
:10200C000580FFFF70B50020FFF740F9430406D5AB
:10201C008348FFF73BF90022824B1A70FEE0030461
:10202C0000D4E9E07F4B1A780A2A00D9E4E0930047
:10203C007D4AD3589F46B0200002FFF727F9C4B25F
:10204C00231F2F2B00D9D7E0784901235B420B804B
:10205C002000FFF7BDFF0322724B1A70023CE4B262
:10206C00734B1C70734B1B685C71D7E0B020000283
:10207C00FFF70CF9C0B2002804D06F4B1B798342D8
:10208C0000D0B9E06949FFF7A3FF0422654B1A7031
:10209C00C4E0B0200002FFF7F9F8C4B26349200095
:1020AC00FFF796FF634B1B681C710022634B1A7081
:1020BC0005325C4B1A70B1E0B0200002FFF7E6F875
:1020CC00C4B25E4B1D785A4B1B789D420BD25749BC
:1020DC002000FFF77DFF574B1B68691C574A117096
:1020EC005D19AC719AE09D4209D1504B1B881B0ABB
:1020FC00A34200D080E00135504B1D708EE04B4B5D
:10210C001B789C4278D14E48FFF7C0F84D48FFF73A
:10211C00BDF80622434B1A7080E04B48FFF7B6F827
:10212C000022464B1A7008323E4B1A7076E0434B35
:10213C001C78414B1E5D012C04D93C493000FFF743
:10214C0047FF03E001225242384B1A803B4D0134C9
:10215C002C70B82000023043FFF798F82B78052B31
:10216C005CD10022354B1A7009322E4B1A7055E097
:10217C00364D2A68314C2378591C2170D3189E791E
:10218C00B82000023043FFF781F828493000FFF7F0
:10219C001FFF2B685A7923789A423FD10A22214B90
:1021AC001A700022254B1A7038E0244B1B78002B38
:1021BC0003D11E4B1888000A14E0012B02D11B4BD3
:1021CC0018780FE0022B0CD01D48FFF75FF8204861
:1021DC00FFF75CF80B22134B1A700022174B1A7086
:1021EC001CE0FF20B8231B021843FFF74FF8134ADB
:1021FC0013780133137011E01148FFF747F81148B9
:10220C00FFF744F81248FFF741F81248FFF73EF881
:10221C001148FFF73BF80222024B1A7070BDC04602
:10222C00018200005A010020FC7B000858010020AC
:10223C004D010020540100204801002050010020D5
:10224C001982000081CA0000AAB800005C010020BD
:10225C0067800000D982000083CA0000F0B583B00B
:10226C00354C01E004F05AFD200004F09BFD0028E1
:10227C00F8D1324B1868002804D004F04FFD00222E
:10228C002E4B1A606B469C1D012323702C4D2B1D6D
:10229C00220001212B4804F031F86B46DE1D33007F
:1022AC0022000121284804F029F80223237001AFF1
:1022BC003B0022000121254804F020F83B881A0A33
:1022CC002A706B703678B300F618C823DB009C4676
:1022DC006644FEF7C3FF0020FEF7D8FF1C48FEF74C
:1022EC00D5FFB8200002FEF7D1FF0020FEF7CEFF8D
:1022FC00FEF7DAFF0028F8D1164C25001835208897
:10230C00FEF7C4FF0234AC42F9D113480643B0B215
:10231C00FEF7BCFF0A4B5878CE231B021843FEF77E
:10232C00B5FF01220D4B1A700D48FEF7AFFFFEF7FB
:10233C00C5FF03B0F0BDC0461C0000205C010020AE
:10234C004801002010FF000012FF000011FF0000E8
:10235C0001820000587C000800A0FFFF5A010020F9
:10236C001982000010B504000100044804F0EEFCD2
:10237C00002802D1200004F0D1FC10BD1C0000206C
:10238C0010B5524B1A780B2A00D987E09300504AAB
:10239C00D3589F4600224F4B1A80FFF75FFF002057
:1023AC0093E04D4B1B68002B04D1382004F064FCE7
:1023BC00494B18600022474B1A800232434B1A706B
:1023CC004648FEF763FF4648FEF760FF00207CE0BE
:1023DC000022404B1A80404B18681A6001323B4B6C
:1023EC001A7072E000223B4B1A803E4B5B7A002045
:1023FC00002B6AD03C4B1B78002B0ED0FEF76EF8EE
:10240C00C0B23A4B1B7883425ED0384B1870364AB8
:10241C001378013B1370002057E00020FEF736FFC5
:10242C00C3050FD5324B1B78002B0BD0013B304A28
:10243C001370FEF747F80723184003302A4B187027
:10244C00002042E0274804F0ADFC2A4B186000281D
:10245C003BD0294A4379023393700379D37000221D
:10246C00214B1A700532224B1A700232174B1A701C
:10247C002248FEF70BFF2248FEF708FF2148FEF723
:10248C0005FF002021E01B4C206804F047FC0023D2
:10249C00236001220D4B1A70002016E00D4A1388A0
:1024AC00013B9BB213800020002B0ED11348FEF78A
:1024BC00EDFE1548FEF7EAFE1448FEF7E7FE012292
:1024CC00024B1A70002000E0002010BD5A010020C1
:1024DC00287C00084E01002054010020D982000005
:1024EC0083CA00001C000020510100204401002080
:1024FC00280000205C010020480100201982000007
:10250C00E78000003982000081CA0000678000006B
:10251C00014804307047C0464801002010B540887F
:10252C00FEF7D6F90722024001239340C008C0B23F
:10253C00034A105C1840431E9841C0B210BDC046FF
:10254C007801002070B514004088FEF7C1F9C3086B
:10255C00DBB2084D0722024001219140EA5C8A431C
:10256C00EA54400063781B0222781343024A8352D8
:10257C00002070BD780100207C01002010B5FEF712
:10258C00A7F90223FF280CD0074B1A5C0123FF2A62
:10259C0007D1FEF7A7F90023FE2802D000F0DEFADF
:1025AC000300180010BDC0466401002010B52C4B70
:1025BC001B88002B19D12B4B18782B4B195CFF293E
:1025CC000AD10130C0B2102802D0264B187046E058
:1025DC000022244B1A7042E0FEF7C8F90122204B6E
:1025EC001A800022214B1A6039E0214A11884A1DB9
:1025FC0093420EDAFEF7C2F9194A138801339BB2E3
:10260C001380042B2BD9194B1A689446604418601C
:10261C0025E0164C01312068FDF704FE2060114BBB
:10262C001B785900134A8A5E90420BD05A0011490C
:10263C005052DA08104C0720184001218140A05C50
:10264C000143A1540021064A11800133DBB2102B47
:10265C0002D0044A137002E00022024B1A7010BD23
:10266C007601002060010020640100209C01002004
:10267C00740100207C0100207801002070B50D0051
:10268C0014004088FEF724F9C308DBB2084E072279
:10269C00024001219140F25C8A43F25402232B70D8
:1026AC004000044BC35E23701B126370002070BD8E
:1026BC00780100207C01002010B582B06B46DA1D39
:1026CC0002231370074C23000121074803F016FE68
:1026DC002288064B9A4202D95022024B1A8002B031
:1026EC0010BDC0467401002008FF0000E8FD00008A
:1026FC0010B50A4A0A4B1C002034FF200021107030
:10270C00198001320233A342F9D1064B00221A7010
:10271C005A709A70FFF7D0FF10BDC04664010020BC
:10272C007C0100207801002010B54378762B06D16F
:10273C004088FFF723FF0238431E984100E0002039
:10274C0010BDC04670B5040045882800FFF716FF81
:10275C000223002821D12800FEF7BAF8050063787F
:10276C00762B01D0FF2200E001220D4B5A55280098
:10277C00FEF7B8F8FD2801D800F008FA084B595DAF
:10278C002800FEF7B9F8074BA360074BE360074B33
:10279C002361074804F0B0F90023180070BDC0464F
:1027AC00640100208926000851250008292500080D
:1027BC00B925000810B544882000FFF7DFFE01287A
:1027CC0010D12000FEF784F80400FF22064B1A54A7
:1027DC00FF21FEF791F82000FEF784F8FD2801D8C0
:1027EC0000F0E8F910BDC0466401002010B5408827
:1027FC00FEF76EF800230F2802D84000014BC35E91
:10280C00180010BD7C0100200048704729250008E5
:10281C0010B54088FEF7D4F80309DBB25B000F2239
:10282C0010400E3A82401000034A9B5A1840431E37
:10283C009841C0B210BDC046B8010020F0B5574653
:10284C004E464546E0B42E4E002400239A462D4BAE
:10285C0098462D4BE35A2D4AA55A9D432AD05046F3
:10286C00FEF7B8F80100294010200123B1461A00E8
:10287C002A4019D04646A75B0E007E40164206D071
:10288C0097431A000A4017431E4AA7520CE04E46C3
:10289C0037880E007E40324006D057404E46378077
:1028AC001B4EA75B3A43A2535B009BB20138002836
:1028BC00DDD14E46154BE35A134AA55A9D432DB212
:1028CC00A9B200290FD0B1463388194002D0504626
:1028DC00FEF790F84B461B889D43A9B2002902D005
:1028EC005046FEF793F857460137FBB29A4602342E
:1028FC0002360C2CADD11CBC90469946A246F0BDBC
:10290C00C4010020A0010020AC010020D001002057
:10291C00B8010020F8B5040015004088FEF750F807
:10292C000F230340012199402D780009C0B2CB43FD
:10293C001BB20C4E4700BA5B1A40BA5362786E2A2F
:10294C0001D1ED43EDB2EA0705D5074B4000C25A61
:10295C001143C15204E0044A4000815A0B40835297
:10296C000020F8BDB8010020C4010020F0B5474696
:10297C0080B406000D0090464088FEF721F80F2326
:10298C00034001229A4097B20009C0B240000B4BA1
:10299C00C35A0B4C015B9143015372786E2A01D1DF
:1029AC00DA4393B201222A703B405A1E93414246AD
:1029BC001370002004BC9046F0BDC046C40100203A
:1029CC00B801002070B50023074E0022074D084CBB
:1029DC00084809499A535A531A531A525A520233F5
:1029EC000C2BF7D170BDC046AC010020D0010020EB
:1029FC00A0010020B8010020C401002010B54278CD
:102A0C006E3AFD2100230A4206D14088FDF7D8FF1B
:102A1C000300FF3B581E8341180010BDF8B506009B
:102A2C004088FDF7CDFF0409E4B20F2202400123D8
:102A3C0093409FB26100314A895A022239425BD1DC
:102A4C0062002F49515A0222394255D1DB431DB243
:102A5C002C4A61008B5A2B408B5233784F2B20D150
:102A6C00294BF3600821FDF795FF254A61008B5A2D
:102A7C003B438B527378702B09D139002000FDF742
:102A8C00C5FF224A6400A35A1D40A55230E039000C
:102A9C002000FDF7AFFF1D4A6400A35A1F43A75245
:102AAC0026E01B4BB360184BF3601A4B3361134A8F
:102ABC0061008B5A3B438B527378702B0CD10221E3
:102ACC00FDF768FF144A6400A35A2B40A3520F4A27
:102ADC00A35A1D40A5520BE00121FDF75BFF0E4AE6
:102AEC006400A35A3B43A352084AA35A1F43A7525C
:102AFC000A4804F001F800221000F8BDD0010020B3
:102B0C00AC010020B801002021290008C4010020DC
:102B1C00792900081D280008A00100204928000878
:102B2C0010B54088FDF74CFF0209D2B20F210140CD
:102B3C0001238B40DB431BB2064C5200115B194046
:102B4C0011530549545A234053520021FDF722FFDB
:102B5C0010BDC046AC010020D00100200F22024065
:102B6C00012393409BB2020950000649415A0120AF
:102B7C00194206D15000044A805A0340581E834122
:102B8C00D8B27047D0010020AC0100200F220240C7
:102B9C00012393409BB2000904494000425A1A4356
:102BAC0042520349425A134343527047AC0100202E
:102BBC00D001002002090F2318400E3B8340DB4359
:102BCC001BB205485200115A194011520349505A70
:102BDC00034053527047C046AC010020D001002086
:102BEC0010B504004088FDF7EBFE0023FF2813D03E
:102BFC000209D2B252000F3318400E3B83400749F2
:102C0C00525A134062786E2A03D0581E8341DBB2AD
:102C1C0002E058424341DBB2180010BDC401002051
:102C2C0070B504000D004088FDF7CAFEFF2817D0D0
:102C3C000309DBB20F2210400E3A824061786E29F4
:102C4C0001D16D394D40002D05D006495B00585A15
:102C5C0002435A5204E003485B00195A914319523B
:102C6C0070BDC046C4010020004870471D280008F4
:102C7C00084B984209D8420992001F230340064989
:102C8C005058D8400123184003E08222034B1A709D
:102C9C0000207047FF1F0000280200201C020020AB
:102CAC00074B984207D883089B0003221040054A23
:102CBC00D318185C03E08222034B1A700020704773
:102CCC00FF030000280200201C0200200A4B98423F
:102CDC000DD883089B0003221040084AD3181B5CB4
:102CEC00DA091800002A06D00548184303E08222AE
:102CFC00044B1A7000207047FF03000028020020CC
:102D0C0000FFFFFF1C020020084B984208D8430824
:102D1C009B00012210404000054A1018C05A03E0E5
:102D2C008222044B1A7000207047C046FF0100003D
:102D3C00280200201C0200200C4B984210D843089B
:102D4C009B00012210404000094A1018C25AD30BB4
:102D5C00DB039BB21000002B06D00648104303E0A7
:102D6C008222054B1A7000207047C046FF010000FC
:102D7C00280200200000FFFF1C020020084B1B68EB
:102D8C00084A1268934206D2591C054A11609B00EE
:102D9C00054A985803E08722044B1A7000207047AC
:102DAC003400002038000020280200201C020020E3
:102DBC000C4B984212D81F22024001239340400929
:102DCC00002905D0084A800081580B43835008E045
:102DDC00054A800081589943815002E08222034BBE
:102DEC001A707047FF1F0000280200201C020020F0
:102DFC00074B984207D883089B0003221040054AD2
:102E0C00D318195402E08222034B1A707047C04643
:102E1C00FF030000280200201C020020074B9842F0
:102E2C0008D843089B00064AD318012210404000E2
:102E3C00C15202E08222034B1A707047FF0100005E
:102E4C00280200201C020020084B1B68084A12684C
:102E5C00934206D9013B054A13609B00054A9850E2
:102E6C0002E08722044B1A707047C04634000020E1
:102E7C0020020020280200201C0200207047C046BF
:102E8C000B4B1B680B4A126893420CD20A4A12680D
:102E9C00934208D9094A99008958013B04480360B8
:102EAC009B00995002E08722054B1A707047C04670
:102EBC0034000020380000202002002028020020CE
:102ECC001C020020064B1B68064A1268934203D270
:102EDC000133034A136002E08722034B1A707047D8
:102EEC0034000020380000201C020020094B1A6816
:102EFC00531C094909688B4207D206490B600749E4
:102F0C00920052589B005A5002E08722044B1A70D0
:102F1C007047C046340000203800002028020020F2
:102F2C001C02002010B5094B1A68531C084909688B
:102F3C008B4207D20749920050589B005C58545062
:102F4C00585002E08722044B1A7010BD3400002048
:102F5C0038000020280200201C02002070B5FFF76A
:102F6C000DFF0500FFF70AFF0400FFF76DFF2800B7
:102F7C00FFF76AFF2000FFF767FF70BD70B5FFF722
:102F8C00FDFE0500FFF7FAFE0600FFF7F7FE040052
:102F9C003000FFF759FF2800FFF756FF2000FFF71E
:102FAC0053FF70BD074B1B68074A1268934205D24A
:102FBC0006499B005A58D2435A5002E08722044BD0
:102FCC001A707047340000203800002028020020BE
:102FDC001C0200200A4B1A68531C0A4909688B42D0
:102FEC0009D207490B6008499B0092005258585867
:102FFC0002405A5002E08722044B1A707047C046B8
:10300C003400002038000020280200201C02002080
:10301C000A4B1A68531C0A4909688B4209D20749A2
:10302C000B6008499B0092005258585802435A5062
:10303C0002E08722044B1A707047C046340000200F
:10304C0038000020280200201C0200200A4B1A68BD
:10305C00531C0A4909688B4209D207490B6008497D
:10306C009B0092005258585842405A5002E0872216
:10307C00044B1A707047C046340000203800002002
:10308C00280200201C0200200A4B1A68531C0A4913
:10309C0009688B420AD207490B6008499B009200D1
:1030AC0052585858844662445A5002E08722044BC6
:1030BC001A707047340000203800002028020020CD
:1030CC001C0200200A4B1A68531C0A4909688B42DF
:1030DC0009D207490B6008499B0092005258585876
:1030EC00821A5A5002E08722044B1A707047C0466D
:1030FC003400002038000020280200201C02002090
:10310C000A4B1A68531C0A4909688B4209D20749B1
:10311C000B6008499B0092005258585842435A5031
:10312C0002E08722044B1A707047C046340000201E
:10313C0038000020280200201C02002070B50E4B25
:10314C001A68531C0D4909688B4211D20A490B604D
:10315C0092000B495158002906D0094D9C0060592A
:10316C00FDF760F8605106E08622064B1A7002E00B
:10317C008722044B1A7070BD3400002038000020E8
:10318C00280200201C02002070B50B4B1A68531C3F
:10319C000A4909688B420AD207490B60084D9C000A
:1031AC00920051596059FDF723F9615102E08722D1
:1031BC00044B1A7070BDC04634000020380000204B
:1031CC00280200201C020020074B1B68074A1268CB
:1031DC00934205D206499B005A5801325A5002E0DC
:1031EC008722044B1A7070473400002038000020EE
:1031FC00280200201C020020074B1B68074A12689B
:10320C00934205D206499B005A58013A5A5002E0A3
:10321C008722044B1A7070473400002038000020BD
:10322C00280200201C020020074B1B68074A12686A
:10323C00934205D206499B005A5852425A5002E01A
:10324C008722044B1A70704734000020380000208D
:10325C00280200201C02002010B50B4B1A68531CCE
:10326C000A4909688B420BD207490B6008499B003D
:10327C00920052585858121A544254415C5002E071
:10328C008722044B1A7010BD340000203800002037
:10329C00280200201C0200200B4B1A68531C0B49FF
:1032AC0009688B420BD208490B6009499B009200BC
:1032BC0052585858121A501E82415A5002E0872216
:1032CC00044B1A707047C0463400002038000020B0
:1032DC00280200201C02002010B50C4B1A68531C4D
:1032EC000B4909688B420CD208490B6009499B00B9
:1032FC009200012052585C58A24200DB002058502A
:10330C0002E08722044B1A7010BDC0463400002026
:10331C0038000020280200201C02002030B50C4B85
:10332C001A68531C0B4909688B420CD208490B6074
:10333C0009499B00920050585C58C50FE217844213
:10334C006A415A5002E08722044B1A7030BDC046C5
:10335C003400002038000020280200201C0200202D
:10336C0010B50C4B1A68531C0B4909688B420CD2D4
:10337C0008490B6009499B009200012052585C5887
:10338C00A24200DC0020585002E08722044B1A7045
:10339C0010BDC04634000020380000202802002058
:1033AC001C02002030B50C4B1A68531C0B490968E1
:1033BC008B420CD208490B6009499B00920054586F
:1033CC005858E517C20F84426A415A5002E08722CE
:1033DC00044B1A7030BDC046340000203800002069
:1033EC00280200201C020020084B1B68084A1268A7
:1033FC00934206D207499B005A58504242415A50B8
:10340C0002E08722044B1A707047C046340000203B
:10341C0038000020280200201C020020084B1B68EA
:10342C00084A1268934207D9013B054A13609B0076
:10343C000021054A995002E08722044B1A7070470C
:10344C003400002020020020280200201C02002052
:10345C00084B1B68084A1268934207D9013B054A7E
:10346C0013609B000121054A995002E08722044B0E
:10347C001A7070473400002020020020280200201F
:10348C001C020020094B1B68094A1268934208D998
:10349C00013B064A13609B0001214942054A9950A1
:1034AC0002E08722044B1A707047C046340000209B
:1034BC0020020020280200201C020020094B1B685F
:1034CC00094A1268934208D9013B064A13609B00D3
:1034DC0080210906054A995002E08722044B1A7094
:1034EC007047C04634000020200200202802002033
:1034FC001C0200200D4B1B680D4A1268934211D917
:10350C000C4A12680232FF2A08D8013B07490B60AB
:10351C000949920052589B005A5006E08222074BF0
:10352C001A7002E08722054B1A7070473400002095
:10353C002002002038000020280200201C0200205D
:10354C000D4B1B680D4A1268934211D90C4A126834
:10355C000332FF2A08D8013B07490B600949920046
:10356C0052589B005A5006E08222074B1A7002E018
:10357C008722054B1A70704734000020200200206F
:10358C0038000020280200201C0200200D4B1B6874
:10359C000D4A1268934211D90C4A12680432FF2A60
:1035AC0008D8013B07490B600949920052589B000F
:1035BC005A5006E08222074B1A7002E08722054B14
:1035CC001A707047340000202002002038000020C0
:1035DC00280200201C0200200D4B1B680D4A1268AB
:1035EC00934211D90C4A12680532FF2A08D8013BC4
:1035FC0007490B600949920052589B005A5006E04B
:10360C008222074B1A7002E08722054B1A70704712
:10361C003400002020020020380000202802002066
:10362C001C0200200D4B1B680D4A1268934211D9E5
:10363C000C4A12680632FF2A08D8013B07490B6076
:10364C000949920052589B005A5006E08222074BBF
:10365C001A7002E08722054B1A7070473400002064
:10366C002002002038000020280200201C0200202C
:10367C000D4B1B680D4A1268934211D90C4A126803
:10368C000732FF2A08D8013B07490B600949920011
:10369C0052589B005A5006E08222074B1A7002E0E7
:1036AC008722054B1A70704734000020200200203E
:1036BC0038000020280200201C0200200D4B1B6843
:1036CC000D4A1268934211D90C4A12680832FF2A2B
:1036DC0008D8013B07490B600949920052589B00DE
:1036EC005A5006E08222074B1A7002E08722054BE3
:1036FC001A7070473400002020020020380000208F
:10370C00280200201C0200200D4B1B680D4A126879
:10371C00934211D90C4A12680932FF2A08D8013B8E
:10372C0007490B600949920052589B005A5006E019
:10373C008222074B1A7002E08722054B1A707047E1
:10374C003400002020020020380000202802002035
:10375C001C0200200D4B1B680D4A1268934211D9B4
:10376C000C4A12680A32FF2A08D8013B07490B6041
:10377C000949920052589B005A5006E08222074B8E
:10378C001A7002E08722054B1A7070473400002033
:10379C002002002038000020280200201C020020FB
:1037AC000D4B1B680D4A1268934211D90C4A1268D2
:1037BC000B32FF2A08D8013B07490B6009499200DC
:1037CC0052589B005A5006E08222074B1A7002E0B6
:1037DC008722054B1A70704734000020200200200D
:1037EC0038000020280200201C0200200D4B1B6812
:1037FC000D4A1268934211D90C4A12680C32FF2AF6
:10380C0008D8013B07490B600949920052589B00AC
:10381C005A5006E08222074B1A7002E08722054BB1
:10382C001A7070473400002020020020380000205D
:10383C00280200201C0200200D4B1B680D4A126848
:10384C00934211D90C4A12680D32FF2A08D8013B59
:10385C0007490B600949920052589B005A5006E0E8
:10386C008222074B1A7002E08722054B1A707047B0
:10387C003400002020020020380000202802002004
:10388C001C0200200D4B1B680D4A1268934211D983
:10389C000C4A12680E32FF2A08D8013B07490B600C
:1038AC000949920052589B005A5006E08222074B5D
:1038BC001A7002E08722054B1A7070473400002002
:1038CC002002002038000020280200201C020020CA
:1038DC000D4B1B680D4A1268934211D90C4A1268A1
:1038EC000F32FF2A08D8013B07490B6009499200A7
:1038FC0052589B005A5006E08222074B1A7002E085
:10390C008722054B1A7070473400002020020020DB
:10391C0038000020280200201C0200200D4B1B68E0
:10392C000D4A1268934211D90C4A12681032FF2AC0
:10393C0008D8013B07490B600949920052589B007B
:10394C005A5006E08222074B1A7002E08722054B80
:10395C001A7070473400002020020020380000202C
:10396C00280200201C0200200D4B1B680D4A126817
:10397C00934211D90C4A12681132FF2A08D8013B24
:10398C0007490B600949920052589B005A5006E0B7
:10399C008222074B1A7002E08722054B1A7070477F
:1039AC0034000020200200203800002028020020D3
:1039BC001C0200200D4B1B680D4A1268934211D952
:1039CC000C4A1268013AFF2A08D8013B07490B60E0
:1039DC000949920052589B005A5006E08222074B2C
:1039EC001A7002E08722054B1A70704734000020D1
:1039FC002002002038000020280200201C02002099
:103A0C000D4B1B680D4A1268934211D90C4A12686F
:103A1C00023AFF2A08D8013B07490B60094992007A
:103A2C0052589B005A5006E08222074B1A7002E053
:103A3C008722054B1A7070473400002020020020AA
:103A4C0038000020280200201C0200200D4B1B68AF
:103A5C000D4A1268934211D90C4A1268033AFF2A94
:103A6C0008D8013B07490B600949920052589B004A
:103A7C005A5006E08222074B1A7002E08722054B4F
:103A8C001A707047340000202002002038000020FB
:103A9C00280200201C0200200D4B1B680D4A1268E6
:103AAC00934211D90C4A1268043AFF2A08D8013BF8
:103ABC0007490B600949920052589B005A5006E086
:103ACC008222074B1A7002E08722054B1A7070474E
:103ADC0034000020200200203800002028020020A2
:103AEC001C0200200D4B1B680D4A1268934211D921
:103AFC000C4A1268053AFF2A08D8013B07490B60AB
:103B0C000949920052589B005A5006E08222074BFA
:103B1C001A7002E08722054B1A707047340000209F
:103B2C002002002038000020280200201C02002067
:103B3C000D4B1B680D4A1268934211D90C4A12683E
:103B4C00063AFF2A08D8013B07490B600949920045
:103B5C0052589B005A5006E08222074B1A7002E022
:103B6C008722054B1A707047340000202002002079
:103B7C0038000020280200201C0200200D4B1B687E
:103B8C000D4A1268934211D90C4A1268073AFF2A5F
:103B9C0008D8013B07490B600949920052589B0019
:103BAC005A5006E08222074B1A7002E08722054B1E
:103BBC001A707047340000202002002038000020CA
:103BCC00280200201C0200200D4B1B680D4A1268B5
:103BDC00934211D90C4A1268083AFF2A08D8013BC3
:103BEC0007490B600949920052589B005A5006E055
:103BFC008222074B1A7002E08722054B1A7070471D
:103C0C003400002020020020380000202802002070
:103C1C001C0200200D4B1B680D4A1268934211D9EF
:103C2C000C4A1268093AFF2A08D8013B07490B6075
:103C3C000949920052589B005A5006E08222074BC9
:103C4C001A7002E08722054B1A707047340000206E
:103C5C002002002038000020280200201C02002036
:103C6C000D4B1B680D4A1268934211D90C4A12680D
:103C7C000A3AFF2A08D8013B07490B600949920010
:103C8C0052589B005A5006E08222074B1A7002E0F1
:103C9C008722054B1A707047340000202002002048
:103CAC0038000020280200201C0200200D4B1B684D
:103CBC000D4A1268934211D90C4A12680B3AFF2A2A
:103CCC0008D8013B07490B600949920052589B00E8
:103CDC005A5006E08222074B1A7002E08722054BED
:103CEC001A70704734000020200200203800002099
:103CFC00280200201C0200200D4B1B680D4A126884
:103D0C00934211D90C4A12680C3AFF2A08D8013B8D
:103D1C0007490B600949920052589B005A5006E023
:103D2C008222074B1A7002E08722054B1A707047EB
:103D3C00340000202002002038000020280200203F
:103D4C001C0200200D4B1B680D4A1268934211D9BE
:103D5C000C4A12680D3AFF2A08D8013B07490B6040
:103D6C000949920052589B005A5006E08222074B98
:103D7C001A7002E08722054B1A707047340000203D
:103D8C002002002038000020280200201C02002005
:103D9C000D4B1B680D4A1268934211D90C4A1268DC
:103DAC000E3AFF2A08D8013B07490B6009499200DB
:103DBC0052589B005A5006E08222074B1A7002E0C0
:103DCC008722054B1A707047340000202002002017
:103DDC0038000020280200201C0200200D4B1B681C
:103DEC000D4A1268934211D90C4A12680F3AFF2AF5
:103DFC0008D8013B07490B600949920052589B00B7
:103E0C005A5006E08222074B1A7002E08722054BBB
:103E1C001A70704734000020200200203800002067
:103E2C00280200201C0200200D4B1B680D4A126852
:103E3C00934211D90C4A1268103AFF2A08D8013B58
:103E4C0007490B600949920052589B005A5006E0F2
:103E5C008222074B1A7002E08722054B1A707047BA
:103E6C00340000202002002038000020280200200E
:103E7C001C0200200C4B1A680C4B1B689A420FD288
:103E8C000233FF2B08D8501C0749086008499200E0
:103E9C0052589B005A5006E08222064B1A7002E0E0
:103EAC008722044B1A707047340000203800002021
:103EBC00280200201C0200200C4B1A680C4B1B68BB
:103ECC009A420FD20333FF2B08D8501C07490860C5
:103EDC000849920052589B005A5006E08222064B29
:103EEC001A7002E08722044B1A70704734000020CD
:103EFC0038000020280200201C0200200C4B1A68FD
:103F0C000C4B1B689A420FD20433FF2B08D8501C61
:103F1C00074908600849920052589B005A5006E025
:103F2C008222064B1A7002E08722044B1A707047EB
:103F3C003400002038000020280200201C02002041
:103F4C000C4B1A680C4B1B689A420FD20533FF2B93
:103F5C0008D8501C074908600849920052589B0029
:103F6C005A5006E08222064B1A7002E08722044B5C
:103F7C001A707047340000203800002028020020FE
:103F8C001C0200200C4B1A680C4B1B689A420FD277
:103F9C000633FF2B08D8501C0749086008499200CB
:103FAC0052589B005A5006E08222064B1A7002E0CF
:103FBC008722044B1A707047340000203800002010
:103FCC00280200201C0200200C4B1A680C4B1B68AA
:103FDC009A420FD20733FF2B08D8501C07490860B0
:103FEC000849920052589B005A5006E08222064B18
:103FFC001A7002E08722044B1A70704734000020BC
:10400C0038000020280200201C0200200C4B1A68EB
:10401C000C4B1B689A420FD20833FF2B08D8501C4C
:10402C00074908600849920052589B005A5006E014
:10403C008222064B1A7002E08722044B1A707047DA
:10404C003400002038000020280200201C02002030
:10405C000C4B1A680C4B1B689A420FD20933FF2B7E
:10406C0008D8501C074908600849920052589B0018
:10407C005A5006E08222064B1A7002E08722044B4B
:10408C001A707047340000203800002028020020ED
:10409C001C0200200C4B1A680C4B1B689A420FD266
:1040AC000A33FF2B08D8501C0749086008499200B6
:1040BC0052589B005A5006E08222064B1A7002E0BE
:1040CC008722044B1A7070473400002038000020FF
:1040DC00280200201C0200200C4B1A680C4B1B6899
:1040EC009A420FD20B33FF2B08D8501C074908609B
:1040FC000849920052589B005A5006E08222064B07
:10410C001A7002E08722044B1A70704734000020AA
:10411C0038000020280200201C0200200C4B1A68DA
:10412C000C4B1B689A420FD20C33FF2B08D8501C37
:10413C00074908600849920052589B005A5006E003
:10414C008222064B1A7002E08722044B1A707047C9
:10415C003400002038000020280200201C0200201F
:10416C000C4B1A680C4B1B689A420FD20D33FF2B69
:10417C0008D8501C074908600849920052589B0007
:10418C005A5006E08222064B1A7002E08722044B3A
:10419C001A707047340000203800002028020020DC
:1041AC001C0200200C4B1A680C4B1B689A420FD255
:1041BC000E33FF2B08D8501C0749086008499200A1
:1041CC0052589B005A5006E08222064B1A7002E0AD
:1041DC008722044B1A7070473400002038000020EE
:1041EC00280200201C0200200C4B1A680C4B1B6888
:1041FC009A420FD20F33FF2B08D8501C0749086086
:10420C000849920052589B005A5006E08222064BF5
:10421C001A7002E08722044B1A7070473400002099
:10422C0038000020280200201C0200200C4B1A68C9
:10423C000C4B1B689A420FD21033FF2B08D8501C22
:10424C00074908600849920052589B005A5006E0F2
:10425C008222064B1A7002E08722044B1A707047B8
:10426C003400002038000020280200201C0200200E
:10427C000C4B1A680C4B1B689A420FD21133FF2B54
:10428C0008D8501C074908600849920052589B00F6
:10429C005A5006E08222064B1A7002E08722044B29
:1042AC001A707047340000203800002028020020CB
:1042BC001C0200200C4B1A680C4B1B689A420FD244
:1042CC00013BFF2B08D8501C074908600849920095
:1042DC0052589B005A5006E08222064B1A7002E09C
:1042EC008722044B1A7070473400002038000020DD
:1042FC00280200201C0200200C4B1A680C4B1B6877
:10430C009A420FD2023BFF2B08D8501C0749086079
:10431C000849920052589B005A5006E08222064BE4
:10432C001A7002E08722044B1A7070473400002088
:10433C0038000020280200201C0200200C4B1A68B8
:10434C000C4B1B689A420FD2033BFF2B08D8501C16
:10435C00074908600849920052589B005A5006E0E1
:10436C008222064B1A7002E08722044B1A707047A7
:10437C003400002038000020280200201C020020FD
:10438C000C4B1A680C4B1B689A420FD2043BFF2B48
:10439C0008D8501C074908600849920052589B00E5
:1043AC005A5006E08222064B1A7002E08722044B18
:1043BC001A707047340000203800002028020020BA
:1043CC001C0200200C4B1A680C4B1B689A420FD233
:1043DC00053BFF2B08D8501C074908600849920080
:1043EC0052589B005A5006E08222064B1A7002E08B
:1043FC008722044B1A7070473400002038000020CC
:10440C00280200201C0200200C4B1A680C4B1B6865
:10441C009A420FD2063BFF2B08D8501C0749086064
:10442C000849920052589B005A5006E08222064BD3
:10443C001A7002E08722044B1A7070473400002077
:10444C0038000020280200201C0200200C4B1A68A7
:10445C000C4B1B689A420FD2073BFF2B08D8501C01
:10446C00074908600849920052589B005A5006E0D0
:10447C008222064B1A7002E08722044B1A70704796
:10448C003400002038000020280200201C020020EC
:10449C000C4B1A680C4B1B689A420FD2083BFF2B33
:1044AC0008D8501C074908600849920052589B00D4
:1044BC005A5006E08222064B1A7002E08722044B07
:1044CC001A707047340000203800002028020020A9
:1044DC001C0200200C4B1A680C4B1B689A420FD222
:1044EC00093BFF2B08D8501C07490860084992006B
:1044FC0052589B005A5006E08222064B1A7002E07A
:10450C008722044B1A7070473400002038000020BA
:10451C00280200201C0200200C4B1A680C4B1B6854
:10452C009A420FD20A3BFF2B08D8501C074908604F
:10453C000849920052589B005A5006E08222064BC2
:10454C001A7002E08722044B1A7070473400002066
:10455C0038000020280200201C0200200C4B1A6896
:10456C000C4B1B689A420FD20B3BFF2B08D8501CEC
:10457C00074908600849920052589B005A5006E0BF
:10458C008222064B1A7002E08722044B1A70704785
:10459C003400002038000020280200201C020020DB
:1045AC000C4B1A680C4B1B689A420FD20C3BFF2B1E
:1045BC0008D8501C074908600849920052589B00C3
:1045CC005A5006E08222064B1A7002E08722044BF6
:1045DC001A70704734000020380000202802002098
:1045EC001C0200200C4B1A680C4B1B689A420FD211
:1045FC000D3BFF2B08D8501C074908600849920056
:10460C0052589B005A5006E08222064B1A7002E068
:10461C008722044B1A7070473400002038000020A9
:10462C00280200201C0200200C4B1A680C4B1B6843
:10463C009A420FD20E3BFF2B08D8501C074908603A
:10464C000849920052589B005A5006E08222064BB1
:10465C001A7002E08722044B1A7070473400002055
:10466C0038000020280200201C0200200C4B1A6885
:10467C000C4B1B689A420FD20F3BFF2B08D8501CD7
:10468C00074908600849920052589B005A5006E0AE
:10469C008222064B1A7002E08722044B1A70704774
:1046AC003400002038000020280200201C020020CA
:1046BC000C4B1A680C4B1B689A420FD2103BFF2B09
:1046CC0008D8501C074908600849920052589B00B2
:1046DC005A5006E08222064B1A7002E08722044BE5
:1046EC001A70704734000020380000202802002087
:1046FC001C02002010B5FEF741FBFEF7B9FAFEF7DD
:10470C00A3FB10BD10B5FEF739FBFEF7DFFAFEF781
:10471C009BFB10BD10B5FEF731FBFEF7C1FAFEF79F
:10472C0093FB10BD10B5FEF729FBFEF705FBFEF75A
:10473C008BFB10BD10B5FEF721FBFEF7E5FAFEF77B
:10474C0083FB10BD10B5FEF719FBFF2803D88000C2
:10475C00044BC05803E08222034B1A700020FEF772
:10476C0073FB10BD280200201C02002010B5FEF7C0
:10477C0005FB0400FEF702FB411E8841C1B220007C
:10478C00FEF716FB10BDC04610B5FEF7F7FA040095
:10479C00FEF7F4FAC1B22000FEF72AFB10BDC046AA
:1047AC0010B5FEF7EBFA0400FEF7E8FA81B2200030
:1047BC00FEF734FB10BDC04610B5FEF7DFFA04005F
:1047CC00FEF7DCFAFF2C03D8A400034BE05002E008
:1047DC008222024B1A7010BD280200201C020020FD
:1047EC00094B1B68094A1268934208D2591C064AA5
:1047FC0011609B00064A9A58064B1A6002E0872209
:10480C00054B1A707047C046340000203800002059
:10481C0028020020480600201C02002070B50E4B18
:10482C001B680E4A1268934212D20D4909688B42DA
:10483C000ED90C499C0065580B4806686650013B24
:10484C00054C23609C006250044A1360056002E032
:10485C008722064B1A7070BD3400002038000020EF
:10486C002002002028020020480600201C02002004
:10487C000E4B1B68FE2B0DD80D4A990088580B491E
:10488C000860981C0B49086001339B009A580A4B2E
:10489C001A600AE080225200934203D10022074B97
:1048AC001A7002E08522054B1A7070473800002000
:1048BC002802002034000020480600201C020020A2
:1048CC008022014B1A7070471C020020F0B50029A1
:1048DC001AD0013989B20131551880260B4F147842
:1048EC000823011261400E4203D04000784080B290
:1048FC0001E0400080B26400E4B2013BDBB2002B6B
:10490C00EFD10132AA42EAD1F0BDC0460580FFFFCB
:10491C0042884378423BD9B238292FD88B001849AA
:10492C00CB589F461F231340012001009940520988
:10493C0019E003231340DB00FF200100994092088B
:10494C0011E0012313401B010E480100994052084D
:10495C0009E092000C4BD3580C495058181A431EBE
:10496C009841C0B20BE09200074BD058074BD3587C
:10497C0058400840431E9841C0B200E000207047E8
:10498C00707C0008FFFF000028020020DC010020E2
:10499C0070B5140042884378423BD9B2382942D8CA
:1049AC008B002249CB589F461F21114001238B407D
:1049BC005209217800290AD1DB431D489200115875
:1049CC00194011501B495058034053502BE01848C4
:1049DC009200115819431150164950580343535023
:1049EC0021E0237812498B5412498B541BE052005E
:1049FC0095B20F4840190222210002F0F0FF0D4839
:104A0C0040190222210002F0EAFF0CE09500084850
:104A1C0040190422210002F0E2FF0648401904224A
:104A2C00210002F0DCFF002070BDC046547D000860
:104A3C0028020020DC010020F0B583B00D0014002A
:104A4C0042884378423BD9B2382948D88B00254953
:104A5C00CB589F461F21114001238B4052099000D7
:104A6C0021494158194207D0012121701F490200E8
:104A7C0040580343535006E0002121701B4992001B
:104A8C0050589843505001232B70002028E0164BAF
:104A9C009B5C16498B54237001232B7000201FE064
:104AAC00520096B2104FBF1902223900200002F0BA
:104ABC0096FF3A880D4B9A5302232B7000200FE07F
:104ACC009200094BD358019308495350042201A971
:104ADC00200002F084FF04232B70002000E0022051
:104AEC0003B0F0BD387E000828020020DC01002055
:104AFC0070B5464B1C681F2225009543221D1A6079
:104B0C00434B1B689D4212D080231B019A4205D94E
:104B1C008122404B1A700120404275E03C4B1D60D5
:104B2C00202229003A31FF313B48FCF7D1F8641BB5
:104B3C00394B1D5D631C202B1FD180231B01334A75
:104B4C0012689A4205D98122324B1A7001204042D8
:104B5C005AE02F4B19680A0020321A605A31FF3183
:104B6C002D4C20222000FCF7B3F8207800020543DE
:104B7C00607800040543022442E0274AD05C00021E
:104B8C000543A31C202B1CD180231B011F4A126838
:104B9C009A4205D981221F4B1A700120404233E002
:104BAC001B4B19680A0020321A605A31FF311A4C1B
:104BBC0020222000FCF78CF8207800040543012407
:104BCC001EE0154AD05C000405430334202C17D199
:104BDC0080231B010D4A12689A4205D981220D4B84
:104BEC001A70012040420FE0094B19680A0020326C
:104BFC001A605A31FF3120220748FCF769F800246B
:104C0C00054B185D0006284370BDC04648060020C1
:104C1C002C0000201C0200202806002010B50D4B93
:104C2C001B680D4A126893420FD29B000B4A9C588A
:104C3C00FFF75EFF844203D08322094B1A7007E012
:104C4C00044A13680133136002E08722044B1A7084
:104C5C0010BDC0463400002038000020280200207F
:104C6C001C02002010B5094B1B68094A12689342BC
:104C7C0008D95C1E054B1C60FFF73AFFA300054AE0
:104C8C00985002E08722044B1A7010BD34000020AB
:104C9C0020020020280200201C02002070B51F4BAF
:104CAC001C681F2225009543A21C1A601C4B1B6814
:104CBC009D4211D080231B019A4204D98122194BA9
:104CCC001A70194829E0164B1D60202229003A3130
:104CDC00FF311648FBF7FCFF641B144B1D5D0134C0
:104CEC00202C16D180231B010C4A12689A4204D93D
:104CFC0081220C4B1A700C480FE0094B19680A0002
:104D0C0020321A605A31FF3120220848FBF7E0FFAD
:104D1C000024064B185D0002284370BD4806002095
:104D2C002C0000201C020020FFFF000028060020A1
:104D3C0070B50F4B1B68013B0E4A1268934212D997
:104D4C00FFF7ACFF0A4D2B680B4C5A1E92000B4917
:104D5C000E681651023B2B609D00094A16682E51B5
:104D6C001360086002E08722064B1A7070BDC046C3
:104D7C0034000020200200202802002048060020D9
:104D8C00380000201C02002010B5FFF787FF014BF4
:104D9C00186010BD4806002010B50E4B1B680E4A5B
:104DAC001268934211D2591C0A4A11609B000B4A9B
:104DBC009B58002B04D0FFF771FF094B186007E0DC
:104DCC00074A13680233136002E08722054B1A70FE
:104DDC0010BDC046340000203800002028020020FE
:104DEC00480600201C02002010B50E4B1B680E4A12
:104DFC001268934211D2591C0A4A11609B000B4A4B
:104E0C009B58002B04D1FFF749FF094B186007E0B2
:104E1C00074A13680233136002E08722054B1A70AD
:104E2C0010BDC046340000203800002028020020AD
:104E3C00480600201C02002010B5FFF72FFF0400CD
:104E4C00FDF79CFF81B22000FDF7E8FF10BDC046C6
:104E5C0010B5FFF723FF0400FDF790FFC1B220004F
:104E6C00FDF7C6FF10BDC04610B5FFF717FF0400D5
:104E7C00FDF784FF411E8841C1B22000FDF798FF69
:104E8C0010BDC04610B5FDF779FF0400FFF706FF13
:104E9C0064002418FDF772FF81B22000FDF7BEFFFD
:104EAC0010BDC04610B5FDF769FF0400FFF7F6FE14
:104EBC00A4002418FDF762FFC1B22000FDF798FF93
:104ECC0010BDC04610B5FDF759FF0400FFF7E6FE14
:104EDC0064012418FDF752FF0100481E8141C9B23C
:104EEC002000FDF765FF10BD10B5FFF7D7FEFDF7ED
:104EFC000BFFFDF7A9FF10BD10B5FFF7CFFEFDF7B7
:104F0C00CFFEFDF7A1FF10BD10B5FFF7C7FEFDF7F3
:104F1C0013FFFDF799FF10BD10B5FFF7BFFEFDF7AE
:104F2C00D5FEFDF791FF10BD10B5FFF7B7FEFDF7ED
:104F3C009FFEFDF789FF10BD10B5FDF71FFF0400A4
:104F4C00FFF7ACFE64002018FDF7DEFEFDF77CFFDA
:104F5C0010BDC04610B5FDF711FF0400FFF79EFE13
:104F6C00A4002018FDF79CFEFDF76EFF10BDC04697
:104F7C0010B5FDF703FF0400FFF790FE6400201846
:104F8C00FDF7DAFEFDF760FF10BDC04610B5FDF76A
:104F9C00F5FE0400FFF782FEA4002018FDF796FE34
:104FAC00FDF752FF10BDC04610B5FDF7E7FE04003B
:104FBC00FFF774FE64012018FDF75AFEFDF744FF5D
:104FCC0010BDC04610B5094B1B68094A12689342C4
:104FDC0008D95C1E054B1C60FFF760FEA300054A58
:104FEC00985002E08722044B1A7010BD3400002048
:104FFC0020020020280200201C02002010B50A4BC1
:10500C001B680A4A126893420AD95C1E064B1C6044
:10501C00FFF744FEA300064A1043064A985002E0EC
:10502C008722054B1A7010BD34000020200200208E
:10503C000000FFFF280200201C02002070B5104B5E
:10504C001C681F2225009543621C1A600D4B1B68BF
:10505C009D4210D00C4B9A4204D981220B4B1A70F2
:10506C00FF200BE0074B1D60202229003A31FF3155
:10507C000748FBF72DFE641B054B185D70BDC04641
:10508C00480600202C000020FF0700001C02002016
:10509C002806002010B5FDF771FE0400FFF7CEFFC7
:1050AC0064002418FDF76AFE81B22000FDF7B6FEFD
:1050BC0010BDC04610B5FDF761FE0400FFF7BEFF42
:1050CC00A4002418FDF75AFEC1B22000FDF790FE93
:1050DC0010BDC04610B5FDF751FE0400FFF7AEFF42
:1050EC0064012418FDF74AFE0100481E8141C9B233
:1050FC002000FDF75DFE10BD10B5FDF73FFE04006E
:10510C00FFF79CFF64002018FDF7FEFDFDF79CFEE9
:10511C0010BDC04610B5FDF731FE0400FFF78EFF41
:10512C00A4002018FDF7BCFDFDF78EFE10BDC04697
:10513C0010B5FDF723FE0400FFF780FF6400201874
:10514C00FDF7FAFDFDF780FE10BDC04610B5FDF76A
:10515C0015FE0400FFF772FFA4002018FDF7B6FD42
:10516C00FDF772FE10BDC04610B5FDF707FE04003A
:10517C00FFF764FF64012018FDF77AFDFDF764FE6C
:10518C0010BDC04610B5094B1B68094A1268934202
:10519C0008D95C1E054B1C60FFF750FFA300054AA5
:1051AC00985002E08722044B1A7010BD3400002086
:1051BC0020020020280200201C02002010B50A4BFF
:1051CC001B680A4A126893420AD95C1E064B1C6083
:1051DC00FFF734FFA300064A1043064A985002E03A
:1051EC008722054B1A7010BD3400002020020020CD
:1051FC0000FFFFFF280200201C02002070B50A4BA4
:10520C001B680A4A126893420AD2094D9B005C59EA
:10521C00FFF714FF044B1B689B0004415C5102E038
:10522C008722044B1A7070BD340000203800002017
:10523C00280200201C02002070B50A4B1B680A4A89
:10524C00126893420AD2094D9B005C59FFF7F6FE97
:10525C00044B1B689B00C4405C5102E08722044B4A
:10526C001A7070BD34000020380000202802002085
:10527C001C02002070B50A4B1B680A4A1268934244
:10528C000AD2094D9B005C59FFF7D8FE044B1B68F2
:10529C009B0084405C5102E08722044B1A7070BD65
:1052AC003400002038000020280200201C020020BE
:1052BC00F0B5474680B44E4B1B78002B42D0802370
:1052CC005B004C4A13604C4A13604C4B1B78002B10
:1052DC0009D00023494A137001214942484A116000
:1052EC00484A136079E00422464B1A6075E0013C91
:1052FC00A4B2002C03D18422434B1A7026E02B68F5
:10530C001F22190091435E1A01332B603A689142B7
:10531C000ED03E4A934203D981223B4B1A7015E0C2
:10532C00434619603A31FF3120223948FBF7D0FC53
:10533C00374B9B5D9B00374A9B589847324B1B78E9
:10534C00012BD4D0304B1B78002B4ED00022284B95
:10535C001A70314B1B68002B47D1382001F08CFCA4
:10536C002D4B1860002840D004234370264B1B782B
:10537C008370214B1B68C3701A0A02711A0C42719C
:10538C001A0E8271013BFE2B03D89B00234A9B58BB
:10539C0001E001235B42C3711A0A02721A0C4272B9
:1053AC001B0E8372134B1B68C3721A0A02731A0CFE
:1053BC0042731B0E8373134B1B68C3731A0A02745C
:1053CC001A0C42741B0E83741223037000220E4BB2
:1053DC001A700132124B1A7007E001220A4B1A7034
:1053EC00104C084D064FB84689E704BC9046F0BDFA
:1053FC003100002038000020340000203000002054
:10540C002C000020480600201C020020FF07000092
:10541C00280600205C8000082402002028020020BE
:10542C004C060020FEFF000070B50C0015000B4B65
:10543C001B680120002B0FD1373001F01DFC074BEE
:10544C001860002807D0047001302200290002F0F7
:10545C00C6FA002000E0012070BDC04624020020E6
:10546C0010B5FFF7EBFD0A283BD880001F4B1B58EB
:10547C009F46FDF783FC00F0CBFC35E000F002FD0D
:10548C00FDF7E2FC30E0FDF779FCC0B200F04EFD18
:10549C002AE000F06BFDFDF7D7FC25E002F0DEF909
:1054AC00052802D1FDF7D4FF1EE0FDF7B7FF1BE086
:1054BC00FBF714F8FDF7C8FC16E0FBF715F8FDF741
:1054CC00C3FC11E0FAF7F4FFFDF7BEFC0CE0FCF7AF
:1054DC000FF8FDF7B9FC07E0FCF736F8FDF7B4FC64
:1054EC0002E08822024B1A7010BDC0461C7F0008D7
:1054FC001C02002000B583B00C4B1A680C4B1B68C7
:10550C009A420DD2FFF7F4FA0190084A1368591C1D
:10551C0011609B00074A995801A801F02FFB02E08B
:10552C008722054B1A7003B000BDC0463400002022
:10553C0038000020280200201C02002010B582B088
:10554C000C4B1A680C4B1B689A420DD9FFF7D0FA1A
:10555C000190084B1A68541E1C6001A801F0FCFA5B
:10556C00A400064BE05002E08722054B1A7002B0F3
:10557C0010BDC0463400002020020020280200206C
:10558C001C020020F0B585B0774B1B780120002B56
:10559C0000D0E7E0754B1C68002C00D1E1E063788B
:1055AC000B2B00D9D4E09B00714AD3589F46714B0A
:1055BC001B78002B02D0FA23A37006E00023A37003
:1055CC0001336D4A13706B4A1370684B1B680222CF
:1055DC001A705A70C0E00023664A137002222270BF
:1055EC0002326270A370B7E0062363702378052B38
:1055FC0004D002232370FB33A370ADE0E3781B02CD
:10560C00A2781A43170065792D0223792B431E00CB
:10561C00D21880231B019A4204DD02232370FA3333
:10562C00A37099E00134002E1AD0544B0193331C13
:10563C00372E00D937239DB239003A31FF312A0079
:10564C002000FBF745FB220029000198FFF73EF9EB
:10565C000190EB199FB2751BAEB2002EE7D101E0A1
:10566C00464B0193414B1B6804221A7002325A704C
:10567C0000229A70019ADA70160A1E716CE0257875
:10568C0008236370063B23703A4B1B78002B02D027
:10569C00FA23A37060E0ABB2052B02D8FD23A370F4
:1056AC005AE0E6783602A1780E437219053A802149
:1056BC0009018A4202DDFC23A3704DE0271D053B46
:1056CC0099B23A002D48FFF701F9635D1B0262198C
:1056DC00013A12781343834202D0FB23A3703BE0C0
:1056EC000023A3706A1F31003A31FF313800FBF7F9
:1056FC0009FB31E02378052B06D0022323700A33F3
:10570C006370F133A37027E0022323700A336370B4
:10571C00184B1B78002B02D0FA23A3701CE0A51C9D
:10572C000422290003A802F05AF9039BFD2B02D98D
:10573C008723A37010E0124A126893420CD0104ACF
:10574C00136004223621FF312800FBF7DBFA03E05B
:10575C0002232370FC33A3700122034B1A70012027
:10576C0000E0002005B0F0BD4C0600202402002013
:10577C00487F00083100002030000020FFFF0000AF
:10578C002002002070B51000084D2C6823780B7097
:10579C002278611C02F023F9200001F0BFFA0023EB
:1057AC002B60034A1370002070BDC04624020020F9
:1057BC004C06002010B5FDF7E1FA0400FFF73EFCA3
:1057CC000419FDF7DBFAFF2C03D8A400034BE050BF
:1057DC0002E08222024B1A7010BDC0462802002043
:1057EC001C02002010B5FDF7C9FA0400FFF756FAA9
:1057FC000419FDF7C3FAFF2C03D8A400034BE050A7
:10580C0002E08222024B1A7010BDC0462802002012
:10581C001C02002010B5FFF741FA0400FDF7AEFAA8
:10582C00FF2C03D8A400034BE05002E08222024B71
:10583C001A7010BD280200201C02002010B5FDF7C4
:10584C009DFA0400FFF7FAFB0019FF2803D880002B
:10585C00044BC05803E08222034B1A700020FDF762
:10586C00F3FA10BD280200201C02002010B5FDF731
:10587C0085FA0400FFF712FA0019FF2803D88000FC
:10588C00044BC05803E08222034B1A700020FDF732
:10589C00DBFA10BD280200201C02002010B5FFF717
:1058AC00FDF9FF2803D88000044BC05803E0822286
:1058BC00034B1A700020FDF7C7FA10BD2802002018
:1058CC001C02002042884378423BD9B238290ED8BA
:1058DC008B000849CB589F46520902E0920800E021
:1058EC00520800200F2393424041C0B200E0002038
:1058FC007047C046787F0008034B8360034B0361FD
:10590C00034BC36000207047454A00081D4900083E
:10591C009D49000810B500F0C5FC002823D0124B9F
:10592C008360124BC360124B0361702303700F3BF7
:10593C0043700023438001210E4A11700E4A00214E
:10594C0011700E4A13600E4C04223621FF312000D8
:10595C00FBF7BEF92368013302D10022084B1A6011
:10596C00084801F0C9F810BD9157000835540008DB
:10597C0091550008310000204C0600202402002024
:10598C0020020020BD52000810B55178090213788E
:10599C0019434088FBF748FC002010BD10B5437834
:1059AC006E3BFD2100220B420AD144882000FBF7FC
:1059BC0007F80022FF2803D02000FBF793FA02001F
:1059CC00100010BD70B5050044882000FAF7F8FFF0
:1059DC000600FDF7C3F80223002813D12000FBF7C3
:1059EC008FFA022300280DD13000FDF7CFF869782B
:1059FC006E394B425941C9B22000FBF79DFA024B5C
:105A0C00EB600023180070BD9559000810B5448850
:105A1C002000FBF79FFB2000FAF7D2FFFDF7CAF836
:105A2C0010BDC046F0B58C460F7843880F2003405C
:105A3C009B0011481E58357A747A002F16D0A54257
:105A4C0013D00023601CC0B231680C5D14700400CC
:105A5C00372800D900240133DBB29F4206D0013233
:105A6C00AC42EFD12C001F0000E00027747263469B
:105A7C001F700020F0BDC0465006002043880F2246
:105A8C0013409B000A4A9B58002B0BD0197A5A7A68
:105A9C00914209D0DA7A1020104007D110210A4324
:105AAC00DA7204E0002002E0002000E001207047E0
:105ABC005006002070B52D4B1B68002B54D0DA7AA1
:105ACC00D2070FD55B68002B0CD00020FCF7A6F892
