:020000040800F2
:100000000030002095180008E5180008E5180008E1
:10001000E5180008E5180008E518000800000000D1
:10002000000000000000000000000000E5180008CB
:10003000E518000800000000E51800081503000896
:10004000E5180008E5180008E5180008E51800089C
:10005000E5180008E5180008E5180008E51800088C
:10006000E5180008E5180008E5180008E51800087C
:10007000E5180008E5180008E5180008E51800086C
:10008000E5180008E5180008E5180008E51800085C
:10009000E5180008E5180008E5180008E51800084C
:1000A000E5180008E5180008E5180008E51800083C
:1000B000E5180008E5180008000000009513000886
:1000C000691300080000000000000000E5180008A7
:1000D00000000000E5180008E5180008E518000811
:1000E000E5180008E5180008000000000000000006
:1000F0000000000000000000000000000000000000
:1001000000000000000000000000000000000000EF
:100110000000000000000000E5180008E5180008D5
:1001200000000000000000000000000000000000CF
:1001300000000000000000000000000000000000BF
:10014000E5180008E51800080000000000000000A5
:10015000000000000000000000000000000000009F
:10016000000000000000000000000000000000008F
:10017000000000000000000000000000000000007F
:0801800000000000E518000872
:1001880010B5054C237833B9044B13B10448AFF3C9
:1001980000800123237010BD2C0000200000000007
:1001A800106F0008084B10B51BB108490848AFF399
:1001B80000800848036803B910BD074B002BFBD02B
:1001C800BDE81040184700BF0000000030000020C4
:1001D800106F00082C0000200000000072B6044ACE
:1001E800136801331360BFF34F8FBFF36F8F7047EE
:1001F8004C000020044B1B6803B9FEE7013B024A90
:10020800136003B962B670474C00002008B500F0CF
:10021800ABF800F079FE00F03DF90B4A536943F062
:10022800400353610122094B9A60094AD36843F09D
:100238008073D360074B002159601A6842F00102AD
:100248001A60054B196008BD0010024000300240DA
:10025800F0ED00E0001000E04C0000200B4B1B68A4
:100268000B4AA2FB03239B09023BB3F1807F0BD20D
:10027800084A5360F021084B83F823100023936049
:100288000723136062B67047FEE700BF080000202E
:10029800D34D621010E000E000ED00E0024B5A6818
:1002A800024B1A6018687047001000E000300240E6
:1002B800034B5A68034B1A60186880B2704700BF36
:1002C800001000E000300240014B1868704700BF82
:1002D80050000020014B1868704700BF54000020F0
:1002E800074B5968074B1B68074AA2FB03239B0C63
:1002F80003FB00F0024A53685B1A9842FBD8704728
:10030800001000E00800002083DE1B4308B5124AF5
:10031800136801331360114B1B8801339BB240F201
:10032800E632934202D80D4A138006E000220B4BB6
:100338001A800B4A1368013313600A4B1B88092B78
:1003480003D80133074A138008BD05F08DFF012249
:10035800044B1A8008BD00BF500000204800002050
:10036800540000204A000020434B1A6842F48022BF
:100378001A601A6842F480321A601B6813F4003F4E
:1003880067D100233C4901330A6812F4003F03D1C6
:10039800B3F5A04FF7D149E0384A116841F0100190
:1003A8001160116821F007011160116841F0020124
:1003B800116031494A6842F480624A60B3F5A04F3F
:1003C80008D22D4A536843F4E81353602C4A2D4B46
:1003D8001A600BE0284B1A6822F480321A605A68B7
:1003E80042F460125A60284A264B1A60254B1B6853
:1003F800264A13605B08264A13601F4A136843F0B5
:1004080080731360136813F0007FFBD01A4B5A688F
:1004180022F003025A605A6842F002025A601A46F1
:10042800536803F00C03082BFAD17047134B1A6872
:1004380042F010021A601A6822F007021A601A685D
:1004480042F002021A600C4A536843F48063536016
:10045800C0E70A4B1A6842F010021A601A6822F0C4
:1004680007021A601A6842F002021A60024A5368C8
:1004780043F480635360A4E7001002400020024068
:1004880000A24A04080000200090D00304000020C5
:1004980000000020024A536943F4BC0353617047CB
:1004A800001002402DE9F04F85B002F0030BC2F3B3
:1004B80080030293C2F3C10CC2F341130393C2F346
:1004C8000323019300234FF001084FF0030A0CF1B6
:1004D800FF391F4608FA03F529424FD05A0006682B
:1004E8000AFA02F4E4432640066006680CFA02FEA3
:1004F8004EEA06060660B9F1010F14D88668264050
:10050800866086680096039E06FA02FE009E4EEA02
:1005180006068660466826EA050545604568029E27
:100528009E4035434560C5682C40C460C4680BFADA
:1005380002F22243C260BCF1020F1FD19AB2072A0D
:100548000DD8BF00026A0F24BC4022EA04020262EE
:10055800026A019C04FA07F7174307620EE0A3F149
:1005680008029200446A0F25954024EA0504446273
:10057800446A019D05FA02F2224342620133102BBC
:10058800A7D105B0BDE8F08F07289ABF014B185CCA
:10059800FF207047346F000809289ABF014B185C88
:1005A800FF207047286F000810B509285BD82F4B2B
:1005B800185CFF2905D1FD2857D8002100F096F8CE
:1005C80010BDFD2802D8182100F090F8284B5B696F
:1005D80013F0805F49D1264A536943F08053536131
:1005E8004FF40302234B9A604FF0A044A36823F012
:1005F8004053A360A36843F08053A3601E4B9A68DE
:1006080022F040529A609A6842F080529A600A201A
:10061800FFF766FEA36843F00043A3602246936891
:10062800002BFCDB144A936843F000439360936803
:10063800002BFCDB4FF0A04249F22001D1600E4BA9
:10064800D9600E4850610E49916158619961002145
:1006580011631963916841F0010191609A6842F051
:1006680001029A6010BDFF29B0D110BD286F0008A3
:10067800001002400003005000010050204992245D
:1006880024499204094B1B5C03F0C00208490A7014
:100698002AB19B0103F4F863064A136370479B0170
:1006A80003F4F8634FF0A042136370473C6F0008EF
:1006B80058000020000100500A4B1B7843B10A4B38
:1006C800186C40F34F009A6842F004029A60704731
:1006D8004FF0A043186C40F34F009A6842F00402B0
:1006E8009A60704758000020000100500309062B4B
:1006F8000ED810B5074A52F8234044B10A4600F014
:100708000F030121994089B22046FFF7CBFE10BDA7
:10071800704700BF606F000815289ABF014B185C2E
:10072800FF207047486F0008062806D8054B53F885
:10073800203023B1186980B270470020704700202C
:10074800704700BF606F0008062804D8024B53F8B2
:10075800203003B199617047606F0008062804D8FB
:10076800024B53F8203003B199627047606F00085C
:100778000C4BDB6813F0010F09D010B9704708B9AA
:100788000DE0084A0138D36813F0010FF7D1054B83
:10079800DB6813F0140F0CBF012000207047002005
:1007A800704700BF0020024070B505464FF4302066
:1007B800FFF7DEFF064618B3FFF710FD114C124B8A
:1007C800636003F188336360236943F002032361A4
:1007D80025F4FF6020F007006061236943F04003BF
:1007E80023614FF43020FFF7C3FF0646236923F047
:1007F80002032361236943F080032361FFF7FAFCB6
:10080800304670BD002002402301674570B506469A
:100818000D464FF40050FFF7ABFF044608B3FFF74F
:10082800DDFC114C114B636003F18833636023696D
:1008380043F00103236135804FF40050FFF798FF20
:10084800236923F0010323613488A4B2A5420CBFB5
:1008580004460024044A136943F080031361FFF738
:10086800C9FC204670BD00BF002002402301674537
:10087800F8B501304400B4F5006F2AD3A4F2FE7431
:10088800B4F5006F38BF012324D320E01C4804E0EE
:100898001C4802E01C4800E01C482044F8BD2A8897
:1008A8004FF6FF739A420BD131462846FFF7AEFF49
:1008B80008B16019F8BD3423FB602846FFF774FFC0
:1008C80005F50065124B9D42E9D10020F8BD0020D6
:1008D800F8BD00230D4A12789A42DDD0084A1278F2
:1008E8009A42D3D0074A12789A42D1D0064A12784F
:1008F8009A42CFD0054D43F480739EB2054FCEE7A0
:1009080000E8000800F0000800F8000800E000080F
:1009180000000108002002402DE9F84F2E4D2F4C11
:10092800DFF8C08034272E4E03E004F5006405F597
:100938000065C8F80C70B4F800A04FF6FF739A452C
:1009480013D124F4FF6323F007031A68B2F1FF3FC1
:1009580008BF03F2FC7100D038E053F8042FB2F15D
:10096800FF3F33D19942F8D12CE01AF47F4F03D0DE
:100978005FFA8AF3012B03DD2046FFF715FF21E01C
:10098800B54227D84FEA1A2BBBF1FF0F08BF4FF02B
:10099800000BA946B9F800308AEA030212F0FF0FEB
:1009A8000BD11B0AFF2B05D09B4503D24846FFF706
:1009B800FBFE02E02046FFF7F7FE09F50069B145A6
:1009C800E8D9B2E7B542B0D9BDE8F88F2046FFF7BD
:1009D800EBFEF7E7BDE8F88F00E8000800E0000844
:1009E800FFFF000800200240C2B1F8B50E461546C8
:1009F800441C0020FF27C0F30A0313B93046FFF751
:100A080037FF10B904F8017C03E010F8023B04F842
:100A1800013C01360134013DEDD1F8BD704700BFFE
:100A28002DE9F04F83B0019000919146002A00F023
:100A3800C7800098FFF71CFF0746C0F30A05C5F5F5
:100A480000656D084D4528BF4D46002D00F0AF806C
:100A58002E46DDF804804FF6FF7A18F8011B41F4A2
:100A68007F41044634F8023B994209D0534540F08F
:100A78009B80FFF7CBFE18B93422534BDA6093E022
:100A88002046013EE9D192E0D8F8002002F17843EF
:100A9800A3F56043B3F5005F02D2C2F30A0212B1B4
:100AA8004A4BC8F80030D8F8004004234FF6FF71CD
:100AB80004F50064454A4648844288BF14462288A3
:100AC8008A4206D0013B13F0FF03F1D1414B1C6071
:100AD80076E0C8F80040002C72D027F4FF6626F0B4
:100AE80007063388B3F57F4F39BF03F5807399B292
:100AF800DBB243F480712046FFF788FE30B9342317
:100B0800314AD3602046FFF74FFEBDE70236023474
:100B1800B7421DD933464FF6FF7BA2461E4636F82C
:100B2800021B34F8023B99420FD05B4503D1504673
:100B3800FFF76CFE48B93423234AD3602AF4FF60D8
:100B480020F00700FFF730FE9EE73346B742E4D8AF
:100B58006D002E442C44F543C5F30A050135023EC9
:100B68004FF6FF7B36F8021FA2463AF8023B99423D
:100B78000FD05B4503D12046FFF748FE48B9342320
:100B8800114AD36024F4FF6020F00700FFF70CFE41
:100B98007AE75446023DE5D13846FFF705FEB9F13C
:100BA800000F7FF446AF0BE0DFF828806CE7C5EB59
:100BB8000909009B2B440093019B2B440193EEE70A
:100BC80003B0BDE8F08F00BF0020024000E000083D
:100BD800FFFF00080C0000202B2806D8044B33F830
:100BE8001000FF3818BF012070470020704700BF71
:100BF8007C6F00080B4B33F81030C3F3C4010A4A6A
:100C080052F821205AB1116A03F003039B00032212
:100C180002FA03F30B4214BF0120002070470120A1
:100C2800704700BF7C6F0008A86F000838B50446FD
:100C38000D46FFF771FD6E4B33F8144004F47061F4
:100C480041F01001FFF752FDC4F3C403013B102B20
:100C580000F2CC80DFE813F011001A002400CA006B
:100C6800CA00CA00CA00CA00CA00CA00CA00CA002C
:100C7800CA00CA002D0036003F005E4A936943F45B
:100C8800006393615C4B1A685C4B2CE0594AD3694A
:100C980043F00103D3615A4B1A684FF0804322E0B6
:100CA800544AD36943F00203D361554B1A68554B34
:100CB80019E0504A936943F4803393614E4B1A68A4
:100CC800514B10E04B4A936943F4003393614A4B0C
:100CD8001A684E4B07E0474A936943F480239361AF
:100CE800454B1A684A4B92084A49A1FB0212D20C9A
:100CF80018BF02F1FF32802119609A624FF6FE7226
:100D0800DA6204F00304032C64D8DFE804F0021B61
:100D1800334C00225A639A6902F47F429A619A69B5
:100D280042F068029A611A6A42F001021A6225B119
:100D38001A6A42F002021A624CE01A6A22F00202AF
:100D48001A6247E000229A639A69D2B29A619A6954
:100D580042F4D0429A611A6A42F010021A6225B12E
:100D68001A6A42F020021A6234E01A6A22F020025B
:100D78001A622FE00022DA63DA6902F47F42DA614C
:100D8800DA6942F06802DA611A6A42F480721A6219
:100D980025B11A6A42F400721A621BE01A6A22F438
:100DA80000721A6216E000221A64DA69D2B2DA61B5
:100DB800DA6942F4D042DA611A6A42F480521A625D
:100DC80025B11A6A42F400521A6203E01A6A22F440
:100DD80000521A625A6C42F400425A641A6842F08D
:100DE80001021A605A6942F001025A6138BD00BF17
:100DF8007C6F00080010024004000020002C014015
:100E08000000002000040040004001400044014070
:100E1800004801400BD7EB5110B50446FFF77CFCA6
:100E28000021FFF763FC294B33F81420C2F3C401F7
:100E3800274B53F82130002B47D0186A02F00302E1
:100E48009200032404FA02F220EA02021A62186AE3
:100E580041F21112104238D15A6C22F400425A64FD
:100E68001A6822F001021A60013910292DD8DFE82A
:100E780001F0090F152C2C2C2C2C2C2C2C2C2C2C68
:100E88001B212700134A936923F40063936110BD63
:100E9800104AD36923F00103D36110BD0D4AD36909
:100EA80023F00203D36110BD0A4A936923F4803307
:100EB800936110BD074A936923F40033936110BD11
:100EC800044A936923F48023936110BD7C6F000862
:100ED800A86F00080010024016280FD8084B33F8F6
:100EE8001030FF2B0AD0C3F3C402064850F8222062
:100EF80022B103F003039B003433D150704700BF85
:100F08007C6F0008A86F00081F4BDA6942F0805216
:100F1800DA611E490A6842F480720A601B6A03F4A7
:100F28000343B3F5034F10D0174B1A6A42F48032CB
:100F38001A621A6A22F480321A621A6A42F44072F9
:100F48001A621A6A42F400421A62114BCA225A62A1
:100F580053225A62DB6813F0100F14D10C4AD3687D
:100F680043F08003D360D36813F0400FFBD0084BE5
:100F7800084A1A61DA6822F08002DA601A46D368F1
:100F880013F0800FFBD17047001002400070004042
:100F980000280040CF077C00F0B482B0454B1968A8
:100FA8005C6800220192009205888278ADF80450AE
:100FB8008DF8062030F8035F8278ADF800508DF880
:100FC8000220DA6842F08002DA601A46D36813F029
:100FD800400FFBD0384B1B6A03F44073B3F5007F16
:100FE80056D1009B9C4253D1324B1869C0F30E0076
:100FF800C1F30323C3EB0312C1F3021303EB83030F
:101008005B0003EB820301F00F021344C1F30342B8
:101018004FF4616707FB0232C1F302334FF41676CF
:1010280006FB0323C1F3015148F6A04505FB013334
:10103800019AC2F30321C1EB0114C2F3021101EBBF
:101048008101490001EB840102F00F042144C2F33D
:10105800034407FB0411C2F3023406FB0411C2F374
:10106800015205FB0212591D8A4207D9B0F5857F46
:1010780004D9104A1369013B136109E00532934210
:1010880006D9B0F5B07F03D20A4A13690133136158
:10109800084B009A5A60019A1A60DA6822F08002B6
:1010A800DA601A46D36813F0800FFBD102B0F0BCA7
:1010B800704700BF002800400010024010B483B001
:1010C800094A1368019302AB33F8044D99780480F8
:1010D8008170526801921A889B78A0F803204371A6
:1010E800062003B010BC704700280040114B1B6855
:1010F800C3F30322C2EB0210C3F3021202EB820213
:10110800520002EB800203F00F000244C3F30341D4
:101118004FF4616000FB0122C3F302314FF41670F3
:1011280000FB0122C3F3015348F6A04000FB032053
:10113800704700BF0028004030B4124B5B68C3F30F
:10114800011202EB820203F00F0101EB4202C3F32A
:10115800032003F48051002918BF0A21C3F3035464
:1011680004EB8404C3F3034505EB4404120242EA8A
:101178000462C3F342331343084443EA004030BCDB
:10118800704700BF002800401623037017230B7018
:10119800704700BF10B5002843D00222C021304854
:1011A800FFF780F94FF400432D4918460A6902F009
:1011B800C002C02A0AD001339BB2002BF6D100220C
:1011C800C0212748FFF76EF9002010BDB3F5004F86
:1011D80043D8013B9BB2002BE8D140F21442C02116
:1011E8001F48FFF75FF91F4BDA6942F40012DA6112
:1011F8001A6942F400121A611A6922F400121A617B
:10120800A3F5DE33184A1A6101201860174B002233
:1012180083F81F234FF00041196083F8202358609A
:1012280010BD124B4FF00042C3F880200124C3F8D0
:1012380084400C4B1A6942F400121A611A6922F4AC
:1012480000121A61DA6922F40012DA610022C02160
:101258000348FFF727F9204610BD0346A6E700BF5D
:1012680000040048001002400E09002000E100E0E0
:10127800024A136823F001031360704700540040CA
:10128800344B9B6913F4E06F0BD0324A136823F098
:1012980001031360304B1A68537943F0800353718C
:1012A800704713F4004F54D12A4B1A6822F00102F8
:1012B8001A600021294A1170274A1268517941F0B1
:1012C800080151715279D2B2912119603021D96146
:1012D80012F0010F23D0204B196808798B791B0471
:1012E80043EA40031B4843608B7913F0FF0F03D098
:1012F800036843F00203036012F0020F09D1154B93
:101308005A6842F000725A601A6842F020021A6065
:101318001AE0104A136843F04003136014E00E4BC0
:101328001A68D379D9B2002908BF0121127952006D
:1013380042F0007343F4806343EA0143054A536073
:10134800136843F004031360024A536843F40053DC
:101358005360704700540040A80500205900002041
:10136800084B9B6913F4E06F0AD0064A136823F010
:1013780001031360044B1A68537943F080035371D7
:10138800704700BF00540040A80500205A4B9B69D5
:1013980013F0100F47D01022574BDA61574B1B78C8
:1013A80013F0FF0F09D10122534B1A60544B1A68EE
:1013B800537943F0400353717047514B1B685A7976
:1013C80012F0010F00F097804C4A1278D2B29A714D
:1013D8005A7912F0020F1ED0D979C9B2002908BF74
:1013E80001211A79520042F0007343F4806343EA02
:1013F8000143414A5360536843F4005353601368F0
:1014080043F004031360136823F0420313600022BF
:101418003A4B1A7070470122374B1A60384B1B68D9
:1014280010225A717047344A126812F0040F1CD007
:1014380013F0040F19D0324B1868304A1378DBB216
:10144800591CC9B211702C49496AC9B203441972AE
:10145800C3791278DBB293424DD80122264B1A6029
:10146800274B1B6810225A717047234A126812F0E2
:10147800020F10D013F0020F0DD0214B18681F492E
:101488000A78D3B25A1CD2B20A7003441B7ADBB270
:10149800194A9362704713F0400F20D0184B1A680E
:1014A800D379D9B2002908BF01211279520042F03C
:1014B800007343F4806343EA01430F4A536053685F
:1014C80043F400535360136843F004031360136834
:1014D80023F0420313600022084B1A70704713F080
:1014E800200F08D0044B2022DA6101221A60044B35
:1014F8001B6810225A7170470054004059000020A0
:10150800A805002010B51446574B53F8211010B108
:10151800012854D0A7E0554B9B6913F4804F15D18F
:10152800524B9A6942F480429A615A6942F0010228
:101538005A614F4B1A6802EB5102B2FBF1F34D4A64
:10154800D360002313605360936004E0494A136832
:1015580023F00103136014F0010F19D04FF4E26176
:101568000A20FFF7C3F8444B444A9A60444ADA60B9
:1015780040225A60A1221A603E4B1A6842F00402C7
:101588001A609A6842F040029A6000223D4B1A8025
:1015980014F0020F0DD04FF4E2610920FFF7A6F80E
:1015A800344B1A6842F008021A609A6842F08002C6
:1015B8009A60304A136843F00103136010BD2B4B47
:1015C800DB6913F4003F15D1284BDA6942F4003285
:1015D800DA615A6942F001025A61254B1B6803EB34
:1015E8005103B3FBF1F3284AD3600023136053601F
:1015F800936004E0244A136823F00103136014F095
:10160800010F19D04FF4E2610F20FFF76FF81F4B5D
:101618001F4A9A601F4ADA6040225A60A1221A6063
:10162800194B1A6842F004021A609A6842F04002A4
:101638009A600022184B1A8014F0020F0DD04FF454
:10164800E2610220FFF752F80F4B1A6842F00802D5
:101658001A609A6842F080029A600B4A136843F055
:101668000103136010BDFEE7F06F00080010024090
:101678000000002000380140580002402438014092
:101688009C000020DE000020004400406C00024066
:10169800244400405C000020DC00002010B1012838
:1016A8000AD013E00A4B58680A4B1B88C3F1400361
:1016B800181A18BF01207047074B5868074B1B883A
:1016C800C3F14003181A18BF012070470020704763
:1016D80058000240DE0000206C000240DC000020C0
:1016E80010B101280DD019E00D490A88531C9BB28E
:1016F8000B800C49885C3F2B11D90022084B1A80BB
:10170800704709490A88531C9BB20B800749885CBB
:101718003F2B04D90022044B1A80704700207047E1
:10172800DE0000209C000020DC0000205C0000207F
:1017380010B101280FD01DE0134B1B6813F0010FE7
:101748001AD0114B5B68CBB90F4A136823F0010319
:101758001360012070470D4B1B6813F0010F0FD069
:101768000A4B5B6873B9094A136823F001031360D5
:101778000120704701207047012070470020704702
:10178800012070470020704744000240800002405A
:1017980010B1012808D07047074B08489860DA60F4
:1017A800596091221A607047054B06489860DA60C4
:1017B800596091221A60704744000240283801405D
:1017C800800002402844004010B1012805D009E0FB
:1017D8000A230B700923137070470F230B70022321
:1017E80013707047FF230B701370704710B510B15A
:1017F800012821D041E0214A136823F00103136036
:1018080000241F4B1C6014331C6003F6A873DA68AD
:1018180042F48042DA60DA6822F48042DA609A6937
:1018280022F480429A6121460A20FEF75FFF214692
:101838000920FEF75BFF10BD124A136823F001036D
:1018480013600024104B1C60143B1C6003F6947357
:101858001A6942F400321A611A6922F400321A61D4
:10186800DA6922F40032DA6121460F20FEF73EFFE2
:1018780021460220FEF73AFF10BDFEE7003801407E
:10188800440002400044004080000240DFF834D0A9
:10189800002103E00C4B5B58435004310B480C4BC0
:1018A80042189A42F6D30B4A02E0002342F8043B5E
:1018B800094B9A42F9D300F013F805F0E5FA04F061
:1018C800ADFCFEE700300020BC74000800000020DA
:1018D8002C0000202C00002084100020FEE70000CF
:1018E800124B1A6842F001021A605968104A0A40FD
:1018F8005A601A6822F0847222F480321A601A68D8
:1019080022F480221A605A6822F4FE025A60DA6AC7
:1019180022F00F02DA62196B064A0A401A630022A3
:101928009A604FF00062044B9A60704700100240C2
:101938000CC07FF8CCFC00FF00ED00E010B5114BA7
:101948001B684BB10120FFF7F3FE28B10D4C20684E
:1019580004F0FAFC002323600B4B5B7A83B101206F
:10196800FFF7E6FE60B1084804F030FD054B18604B
:1019780030B141790131421DC9B20120FFF708FF9A
:1019880010BD00BFE40000201000002010B582B098
:101998000D4C02E0184604F0D7FC204604F016FD72
:1019A80003460028F6D1012402AA02F8014D074B8C
:1019B80021464FF6107003F0FBFF03220421204656
:1019C800FFF7A0FD02B010BD10000020E0000020CD
:1019D80010B504460146054804F0D0FC18B9204665
:1019E80004F0B2FC10BDFFF7A9FF10BD10000020E5
:1019F800F8B5FFF7A3FF264F264E274D2BE0012011
:101A0800FFF76EFE0446FEF75FFC3880337863B953
:101A1800A31EDBB22F2B1ED8382004F055FC1F4B19
:101A28001860347000232B7015E02A78312A05D805
:101A38001A490968501C28700A4494712A789342FC
:101A480009D1164B1868164B1B7803714271002296
:101A5800104B1A70F8BD0120FFF720FE0028CED1E8
:101A68000C4B1B7883B1FEF72FFC80B2084B1B8808
:101A7800C01A64280AD90024064B1C70074B186842
:101A880004F062FC2046F8BD0020F8BD0020F8BD37
:101A9800F0000020E8000020F2000020EC00002008
:101AA800E000002000487047E000002008B54088AA
:101AB800FEF76AFD00F0070201239340C0F3C70058
:101AC800034A125C134214BF0120002008BD00BF66
:101AD8000401002038B514464088FEF755FDC0F3D0
:101AE800C701094D00F00702012303FA02F26B5CFB
:101AF80023EA02036B546278237843EA0223034AF9
:101B080022F81030002038BD040100200801002010
:101B180008B5FEF739FDFF280AD0084B1B5CFF2BE0
:101B280008D1FEF739FDFE2806D000F0EFFA08BD0F
:101B3800022008BD012008BD002008BDF4000020D7
:101B480010B52C4B1B88CBB92B4B18782B4B195C39
:101B5800FF290AD10130C0B2082802D0264B1870DC
:101B680010BD0022244B1A7010BDFEF78BFD012218
:101B7800204B1A800022224B1A6010BD214A12887D
:101B8800511D8B420DDAFEF797FD1A4A138801336F
:101B98009BB21380042B2BD9194B1A681044186078
:101BA80010BD174901320B6893FBF2F20A60124B21
:101BB8001B78154931F913108A420CD0124921F8C3
:101BC8001320DA08114C03F00700012101FA00F094
:101BD800A15C0143A1540021064A11800133DBB204
:101BE800082B02D0044A137010BD0022024B1A7051
:101BF80010BD00BFFC00002018010020F4000020E8
:101C080000010020FE00002008010020040100203F
:101C180070B50D4614464088FEF7B6FCC0F3C70100
:101C2800094E00F00702012303FA02F2735C23EA6B
:101C38000203735402232B70044B33F910302370C2
:101C48001B126370002070BD0401002008010020F1
:101C580010B582B002AA022302F8013D074C2346C0
:101C680001214FF6087003F0A3FE22884FF6E853CF
:101C78009A4201D95022228002B010BDFE000020F5
:101C880010B509494B1E094A0731FF24002003F803
:101C9800014F22F8020F8B42F9D1054B00221A702E
:101CA8005A70FFF7D5FF10BDF40000200601002090
:101CB8000401002008B54378762B06D14088FFF749
:101CC80027FF023818BF012008BD002008BD00BF4B
:101CD80038B5044645882846FFF71AFF00BB284652
:101CE800FEF752FC05466378762B0CBF0122FF22D3
:101CF8000C4B1A54FEF750FCFD2801D800F020FACE
:101D0800084B595D2846FEF74FFC074BA360074B6D
:101D1800E360074B2361074804F00CFA002038BD44
:101D2800022038BDF4000020191C0008DD1A000844
:101D3800B51A0008491B000810B544882046FFF76B
:101D4800E7FE01280FD12046FEF71EFC0446FF21BE
:101D5800054B1954FEF728FC2046FEF71DFCFD280C
:101D680001D800F005FA10BDF400002008B540883D
:101D7800FEF70AFC07289ABF024B33F9100000202F
:101D880008BD00BF0801002000487047B51A0008C8
:101D980008B54088FEF7C0FCC0F3071200F00F003A
:101DA800012303FA00F0044B33F81230184214BF31
:101DB8000120002008BD00BF240100202DE9F04FBC
:101DC80083B0314F0026DFF8C890DFF8C8A0DFF8ED
:101DD800C8805FFA86FB750039F816403AF8163065
:101DE80033EA040431D05846FEF79EFC2040102107
:101DF80001220097019614EA020321D035F808E081
:101E080080EA0E0C13EA0C0F08D02EEA030300EA4E
:101E1800020E43EA0E0325F8083011E0B7F800C0B7
:101E280080EA0C0E13EA0E030AD08CEA030C009E1B
:101E3800A6F800C0154E35F806E043EA0E03AB538A
:101E4800520092B20139D6D1019E35F80A4035F8D0
:101E5800093023EA040424B2A3B273B13D46398899
:101E6800194002D05846FEF76FFC298824EA010180
:101E780089B211B15846FEF771FC01360237022EBD
:101E8800A7D103B0BDE8F08F28010020240100206D
:101E9800200100202C0100201C01002070B50546FF
:101EA80014464088FEF738FC00F00F0301229A40E0
:101EB8002478C0F30710D3431BB20E4E36F8101027
:101EC800194026F8101069786E2904BFE443E4B27B
:101ED80014F0010F06D0084931F810301A4321F8E0
:101EE800102005E0044931F81020134021F8103083
:101EF800002070BD2401002028010020F8B5044608
:101F08000E4615464088FEF707FC00F00F02012335
:101F180093401FFA83FEC0F307100C4A32F81010E2
:101F28000B4F37F8102022EA030327F810306378A4
:101F38006E2B04BFC94389B20123337011EA0E0F17
:101F480008BF00232B700020F8BD00BF2801002027
:101F58002401002030B4094D00232B80084C238035
:101F68000848038008490B80084A13806B80638007
:101F780043804B80538030BC704700BF2001002055
:101F88002C0100201C010020240100202801002031
:101F980008B543786E2B01D0702B06D14088FEF728
:101FA800BBFBFF3818BF012008BD002008BD00BFDB
:101FB800F8B507464088FEF7AFFBC0F3071500F0F9
:101FC8000F02012393409EB2364A32F8152032425E
:101FD80064D1354931F815100E4261D1DB431CB28A
:101FE800324931F81530234021F815303B784F2B12
:101FF80023D12F4BFB600821FEF778FB2A4A32F8E1
:102008001530334322F815307B78702B0AD13146CE
:102018002846FEF7A3FB274A32F815301C4022F861
:10202800154036E031462846FEF78EFB214A32F845
:1020380015301E4322F815602BE01F4BBB601C4B6C
:10204800FB601E4B3B613243164B23F815207B780F
:10205800702B0FD10221FEF749FB194A32F81530CF
:10206800234022F81530134A32F815301C4022F864
:1020780015400EE00121FEF739FB114A32F8153000
:10208800334322F815300B4A32F815301E4322F834
:1020980015600C4804F04EF80020F8BD0220F8BD89
:1020A8000220F8BD2C01002020010020240100207E
:1020B800A51E000828010020051F0008991D00081A
:1020C8001C010020C51D000810B54088FEF724FB40
:1020D800C0F3071100F00F03012202FA03F3DB43F8
:1020E8001BB2084C34F811201A4024F81120064C71
:1020F80034F81120134024F811300021FEF7F6FAC5
:1021080010BD00BF200100202C01002000F00F02AC
:10211800012393409BB20009074A32F8102013426A
:1021280007D1064A32F81020134214BF01200020BC
:1021380070470120704700BF2C01002020010020BB
:1021480000F00F02012393409BB20009064931F8C1
:1021580010201A4321F81020044931F810201343A5
:1021680021F81030704700BF200100202C0100200A
:10217800010900F00F03012202FA03F3DB431BB24B
:10218800064830F811201A4020F81120044830F889
:102198001120134020F81130704700BF20010020A3
:1021A8002C01002010B504464088FEF7B5FAFF2838
:1021B80015D0C0F3071200F00F00012303FA00F056
:1021C800084B33F81230184063786E2B03D0003078
:1021D80018BF012010BDB0FA80F0400910BD0020E2
:1021E80010BD00BF2801002038B504460D464088C0
:1021F800FEF792FAFF281AD0C0F3071200F00F007A
:10220800012303FA00F063786E2B08BF85F00105FF
:1022180035B1074931F81230184321F8120038BD9A
:10222800034931F8123023EA000021F8120038BDC2
:102238002801002000487047991D0008B0F5005F8C
:102248000AD2420900F01F00064B53F8223023FA45
:1022580000F000F0010070478222034B1A70002042
:10226800704700BF7C01002070010020B0F5806F2E
:1022780007D220F0030300F00300044A1344185C5B
:1022880070478222024B1A70002070477C010020A0
:1022980070010020B0F5806F0CD220F0030300F02D
:1022A8000300074A1344185C10F0800F06D060F052
:1022B800FF0070478222034B1A700020704700BF4E
:1022C8007C01002070010020B0F5007F08D2420890
:1022D80000F00100054B03EB400030F82200704786
:1022E8008222034B1A700020704700BF7C01002037
:1022F80070010020B0F5007F10D2420800F0010004
:10230800094B03EB400030F8220000F400439BB275
:1023180043B16FEA00406FEA104070478222034BD6
:102328001A700020704700BF7C0100207001002057
:10233800084B1B68084A1268934206D2591C054A82
:102348001160064A52F8230070478722044B1A701E
:102358000020704724000020280000207C01002075
:1023680070010020B0F5005F14D200F01F020123B5
:102378009340400931B1094A52F820100B4342F802
:1023880020307047054951F8202022EA030341F81C
:10239800203070478222024B1A7070477C0100205F
:1023A80070010020B0F5806F07D220F0030300F021
:1023B8000300044A1344195470478222024B1A70CE
:1023C800704700BF7C01002070010020B0F5007F3D
:1023D80008D24208054B03EB820300F0010023F802
:1023E800101070478222024B1A7070477C0100203F
:1023F80070010020084B1B68084A1268934206D9EE
:10240800013B054A1360064A42F8230070478722B9
:10241800044B1A70704700BF24000020740100208C
:102428007C01002070010020704700BF0B4B1B6827
:102438000B4A126893420CD20A4A1268934208D98E
:10244800094A52F82310013B0448036042F823105C
:1024580070478722054B1A70704700BF2400002080
:1024680028000020740100207C0100207001002059
:10247800064B1B68064A1268934203D20133034A8B
:10248800136070478722034B1A707047240000209E
:102498002800002070010020094B1A68531C0949C4
:1024A80009688B4207D206490B60074951F8222078
:1024B80041F8232070478722044B1A70704700BFE9
:1024C80024000020280000207C010020700100204A
:1024D8000B4B1A68531C0B4909688B420AD210B47B
:1024E800094951F8220051F8234041F8224041F8A7
:1024F800230003E08722054B1A70704710BC704711
:1025080024000020280000207C0100207001002009
:1025180038B5FFF70DFF0546FFF70AFF0446FFF73A
:1025280069FF2846FFF766FF2046FFF763FF38BDBF
:1025380070B5FFF7FDFE0546FFF7FAFE0646FFF702
:10254800F7FE04463046FFF755FF2846FFF752FFCF
:102558002046FFF74FFF70BD084B1B68084A1268FA
:10256800934206D2074951F82320D24341F8232049
:1025780070478722044B1A70704700BF2400002060
:10258800280000207C010020700100200A4B1A68F6
:10259800531C0A4909688B420AD207490B6008494B
:1025A80051F8220051F82320024041F823207047B7
:1025B8008722044B1A70704724000020280000204E
:1025C8007C010020700100200A4B1A68531C0A493C
:1025D80009688B420AD207490B60084951F8220062
:1025E80051F82320024341F8232070478722044BE7
:1025F8001A70704724000020280000207C01002069
:10260800700100200A4B1A68531C0A4909688B425A
:102618000AD207490B60084951F8220051F82320D3
:10262800424041F8232070478722044B1A707047B4
:1026380024000020280000207C01002070010020D8
:102648000A4B1A68531C0A4909688B420AD207497F
:102658000B60084951F8220051F82320024441F840
:10266800232070478722044B1A70704724000020EB
:10267800280000207C010020700100200A4B1A6805
:10268800531C0A4909688B420AD207490B6008495A
:1026980051F8230051F82220801A41F8230070478E
:1026A8008722044B1A70704724000020280000205D
:1026B8007C010020700100200B4B1A68531C0B4949
:1026C80009688B420BD208490B60094951F822006E
:1026D80051F8232002FB00F241F82320704787229B
:1026E800044B1A70704700BF240000202800002007
:1026F8007C010020700100200E4B1A68531C0E4903
:1027080009688B4211D20B490B600C4951F8222001
:102718003AB1084651F8231091FBF2F240F8232011
:1027280070478622064B1A7070478722044B1A702E
:10273800704700BF24000020280000207C010020F2
:10274800700100200D4B1A68531C0D4909688B4213
:102758000ED210B409490B600A4951F8234051F8C8
:10276800222094FBF2F002FB104241F8232003E000
:102778008722054B1A70704710BC70472400002050
:10278800280000207C01002070010020084B1B68F5
:10279800084A1268934206D2074951F823200132A9
:1027A80041F8232070478722044B1A70704700BFF6
:1027B80024000020280000207C0100207001002057
:1027C800084B1B68084A1268934206D2074951F819
:1027D8002320013A41F8232070478722044B1A70BE
:1027E800704700BF24000020280000207C01002042
:1027F80070010020084B1B68084A1268934206D2F1
:10280800074951F82320524241F823207047872274
:10281800044B1A70704700BF2400002028000020D5
:102828007C010020700100200C4B1A68531C0C49D5
:1028380009688B420DD209490B600A4951F82220D8
:1028480051F82300824214BF0022012241F82320BC
:1028580070478722044B1A70704700BF240000207D
:10286800280000207C010020700100200B4B1A6812
:10287800531C0B4909688B420CD208490B60094963
:1028880051F8222051F82300121A18BF012241F8EA
:10289800232070478722044B1A70704724000020B9
:1028A800280000207C010020700100200C4B1A68D1
:1028B800531C0C4909688B420DD209490B600A491F
:1028C80051F8222051F823008242ACBF0022012295
:1028D80041F8232070478722044B1A70704700BFC5
:1028E80024000020280000207C0100207001002026
:1028F8000C4B1A68531C0C4909688B420DD20949C4
:102908000B600A4951F8222051F823008242CCBFBB
:102918000022012241F8232070478722044B1A70B5
:10292800704700BF24000020280000207C01002000
:10293800700100200C4B1A68531C0C4909688B4223
:102948000DD209490B600A4951F8222051F8230099
:102958008242D4BF0022012241F8232070478722F7
:10296800044B1A70704700BF240000202800002084
:102978007C010020700100200C4B1A68531C0C4984
:1029880009688B420DD209490B600A4951F8222087
:1029980051F823008242B4BF0022012241F82320CB
:1029A80070478722044B1A70704700BF240000202C
:1029B800280000207C01002070010020094B1B68C2
:1029C800094A1268934208D2084951F82320B2FAFA
:1029D80082F2520941F8232070478722044B1A706B
:1029E800704700BF24000020280000207C01002040
:1029F80070010020084B1B68084A1268934207D9E7
:102A0800013B054A13600021054A42F8231070472C
:102A18008722044B1A70704724000020740100209C
:102A28007C01002070010020084B1B68084A1268CE
:102A3800934207D9013B054A13600121054A42F830
:102A4800231070478722044B1A7070472400002017
:102A5800740100207C01002070010020094B1B68D4
:102A6800094A1268934208D9013B064A13604FF09D
:102A7800FF31064A42F8231070478722044B1A7028
:102A8800704700BF24000020740100207C01002052
:102A980070010020094B1B68094A1268934208D943
:102AA800013B064A13604FF00041064A42F82310E2
:102AB80070478722044B1A70704700BF240000201B
:102AC800740100207C010020700100200D4B1B6860
:102AD8000D4A1268934211D90C4A12680232FF2A31
:102AE80008D8013B07490B60094951F8222041F8F1
:102AF800232070478222074B1A7070478722054BA4
:102B08001A7070472400002074010020280000205B
:102B18007C010020700100200D4B1B680D4A1268D3
:102B2800934211D90C4A12680332FF2A08D8013B94
:102B380007490B60094951F8222041F823207047C2
:102B48008222074B1A7070478722054B1A7070470C
:102B58002400002074010020280000207C010020AF
:102B6800700100200D4B1B680D4A1268934211D961
:102B78000C4A12680432FF2A08D8013B07490B6047
:102B8800094951F8222041F8232070478222074B37
:102B98001A7070478722054B1A707047240000206E
:102BA80074010020280000207C0100207001002012
:102BB8000D4B1B680D4A1268934211D90C4A1268D2
:102BC8000532FF2A08D8013B07490B60094951F82B
:102BD800222041F8232070478222074B1A70704741
:102BE8008722054B1A7070472400002074010020CA
:102BF800280000207C010020700100200D4B1B687C
:102C08000D4A1268934211D90C4A12680632FF2AFB
:102C180008D8013B07490B60094951F8222041F8BF
:102C2800232070478222074B1A7070478722054B72
:102C38001A7070472400002074010020280000202A
:102C48007C010020700100200D4B1B680D4A1268A2
:102C5800934211D90C4A12680732FF2A08D8013B5F
:102C680007490B60094951F8222041F82320704791
:102C78008222074B1A7070478722054B1A707047DB
:102C88002400002074010020280000207C0100207E
:102C9800700100200D4B1B680D4A1268934211D930
:102CA8000C4A12680832FF2A08D8013B07490B6012
:102CB800094951F8222041F8232070478222074B06
:102CC8001A7070478722054B1A707047240000203D
:102CD80074010020280000207C01002070010020E1
:102CE8000D4B1B680D4A1268934211D90C4A1268A1
:102CF8000932FF2A08D8013B07490B60094951F8F6
:102D0800222041F8232070478222074B1A7070470F
:102D18008722054B1A707047240000207401002098
:102D2800280000207C010020700100200D4B1B684A
:102D38000D4A1268934211D90C4A12680A32FF2AC6
:102D480008D8013B07490B60094951F8222041F88E
:102D5800232070478222074B1A7070478722054B41
:102D68001A707047240000207401002028000020F9
:102D78007C010020700100200D4B1B680D4A126871
:102D8800934211D90C4A12680B32FF2A08D8013B2A
:102D980007490B60094951F8222041F82320704760
:102DA8008222074B1A7070478722054B1A707047AA
:102DB8002400002074010020280000207C0100204D
:102DC800700100200D4B1B680D4A1268934211D9FF
:102DD8000C4A12680C32FF2A08D8013B07490B60DD
:102DE800094951F8222041F8232070478222074BD5
:102DF8001A7070478722054B1A707047240000200C
:102E080074010020280000207C01002070010020AF
:102E18000D4B1B680D4A1268934211D90C4A12686F
:102E28000D32FF2A08D8013B07490B60094951F8C0
:102E3800222041F8232070478222074B1A707047DE
:102E48008722054B1A707047240000207401002067
:102E5800280000207C010020700100200D4B1B6819
:102E68000D4A1268934211D90C4A12680E32FF2A91
:102E780008D8013B07490B60094951F8222041F85D
:102E8800232070478222074B1A7070478722054B10
:102E98001A707047240000207401002028000020C8
:102EA8007C010020700100200D4B1B680D4A126840
:102EB800934211D90C4A12680F32FF2A08D8013BF5
:102EC80007490B60094951F8222041F8232070472F
:102ED8008222074B1A7070478722054B1A70704779
:102EE8002400002074010020280000207C0100201C
:102EF800700100200D4B1B680D4A1268934211D9CE
:102F08000C4A12681032FF2A08D8013B07490B60A7
:102F1800094951F8222041F8232070478222074BA3
:102F28001A7070478722054B1A70704724000020DA
:102F380074010020280000207C010020700100207E
:102F48000D4B1B680D4A1268934211D90C4A12683E
:102F58001132FF2A08D8013B07490B60094951F88B
:102F6800222041F8232070478222074B1A707047AD
:102F78008722054B1A707047240000207401002036
:102F8800280000207C010020700100200D4B1B68E8
:102F98000D4A1268934211D90C4A1268013AFF2A65
:102FA80008D8013B07490B60094951F8222041F82C
:102FB800232070478222074B1A7070478722054BDF
:102FC8001A70704724000020740100202800002097
:102FD8007C010020700100200D4B1B680D4A12680F
:102FE800934211D90C4A1268023AFF2A08D8013BC9
:102FF80007490B60094951F8222041F823207047FE
:103008008222074B1A7070478722054B1A70704747
:103018002400002074010020280000207C010020EA
:10302800700100200D4B1B680D4A1268934211D99C
:103038000C4A1268033AFF2A08D8013B07490B607B
:10304800094951F8222041F8232070478222074B72
:103058001A7070478722054B1A70704724000020A9
:1030680074010020280000207C010020700100204D
:103078000D4B1B680D4A1268934211D90C4A12680D
:10308800043AFF2A08D8013B07490B60094951F85F
:10309800222041F8232070478222074B1A7070477C
:1030A8008722054B1A707047240000207401002005
:1030B800280000207C010020700100200D4B1B68B7
:1030C8000D4A1268934211D90C4A1268053AFF2A30
:1030D80008D8013B07490B60094951F8222041F8FB
:1030E800232070478222074B1A7070478722054BAE
:1030F8001A70704724000020740100202800002066
:103108007C010020700100200D4B1B680D4A1268DD
:10311800934211D90C4A1268063AFF2A08D8013B93
:1031280007490B60094951F8222041F823207047CC
:103138008222074B1A7070478722054B1A70704716
:103148002400002074010020280000207C010020B9
:10315800700100200D4B1B680D4A1268934211D96B
:103168000C4A1268073AFF2A08D8013B07490B6046
:10317800094951F8222041F8232070478222074B41
:103188001A7070478722054B1A7070472400002078
:1031980074010020280000207C010020700100201C
:1031A8000D4B1B680D4A1268934211D90C4A1268DC
:1031B800083AFF2A08D8013B07490B60094951F82A
:1031C800222041F8232070478222074B1A7070474B
:1031D8008722054B1A7070472400002074010020D4
:1031E800280000207C010020700100200D4B1B6886
:1031F8000D4A1268934211D90C4A1268093AFF2AFB
:1032080008D8013B07490B60094951F8222041F8C9
:10321800232070478222074B1A7070478722054B7C
:103228001A70704724000020740100202800002034
:103238007C010020700100200D4B1B680D4A1268AC
:10324800934211D90C4A12680A3AFF2A08D8013B5E
:1032580007490B60094951F8222041F8232070479B
:103268008222074B1A7070478722054B1A707047E5
:103278002400002074010020280000207C01002088
:10328800700100200D4B1B680D4A1268934211D93A
:103298000C4A12680B3AFF2A08D8013B07490B6011
:1032A800094951F8222041F8232070478222074B10
:1032B8001A7070478722054B1A7070472400002047
:1032C80074010020280000207C01002070010020EB
:1032D8000D4B1B680D4A1268934211D90C4A1268AB
:1032E8000C3AFF2A08D8013B07490B60094951F8F5
:1032F800222041F8232070478222074B1A7070471A
:103308008722054B1A7070472400002074010020A2
:10331800280000207C010020700100200D4B1B6854
:103328000D4A1268934211D90C4A12680D3AFF2AC5
:1033380008D8013B07490B60094951F8222041F898
:10334800232070478222074B1A7070478722054B4B
:103358001A70704724000020740100202800002003
:103368007C010020700100200D4B1B680D4A12687B
:10337800934211D90C4A12680E3AFF2A08D8013B29
:1033880007490B60094951F8222041F8232070476A
:103398008222074B1A7070478722054B1A707047B4
:1033A8002400002074010020280000207C01002057
:1033B800700100200D4B1B680D4A1268934211D909
:1033C8000C4A12680F3AFF2A08D8013B07490B60DC
:1033D800094951F8222041F8232070478222074BDF
:1033E8001A7070478722054B1A7070472400002016
:1033F80074010020280000207C01002070010020BA
:103408000D4B1B680D4A1268934211D90C4A126879
:10341800103AFF2A08D8013B07490B60094951F8BF
:10342800222041F8232070478222074B1A707047E8
:103438008722054B1A707047240000207401002071
:10344800280000207C010020700100200C4B1A6825
:103458000C4B1B689A420FD20233FF2B08D8501C22
:1034680007490860084951F8222041F8232070478D
:103478008222064B1A7070478722044B1A707047D5
:1034880024000020280000207C010020700100207A
:103498000C4B1A680C4B1B689A420FD20333FF2B54
:1034A80008D8501C07490860084951F8222041F8FB
:1034B800232070478222064B1A7070478722044BDC
:1034C8001A70704724000020280000207C0100208A
:1034D800700100200C4B1A680C4B1B689A420FD2E3
:1034E8000433FF2B08D8501C07490860084951F8D5
:1034F800222041F8232070478222064B1A70704719
:103508008722044B1A7070472400002028000020EE
:103518007C010020700100200C4B1A680C4B1B68C2
:103528009A420FD20533FF2B08D8501C0749086070
:10353800084951F8222041F8232070478222064B7F
:103548001A7070478722044B1A70704724000020B5
:10355800280000207C010020700100200C4B1A6814
:103568000C4B1B689A420FD20633FF2B08D8501C0D
:1035780007490860084951F8222041F8232070477C
:103588008222064B1A7070478722044B1A707047C4
:1035980024000020280000207C0100207001002069
:1035A8000C4B1A680C4B1B689A420FD20733FF2B3F
:1035B80008D8501C07490860084951F8222041F8EA
:1035C800232070478222064B1A7070478722044BCB
:1035D8001A70704724000020280000207C01002079
:1035E800700100200C4B1A680C4B1B689A420FD2D2
:1035F8000833FF2B08D8501C07490860084951F8C0
:10360800222041F8232070478222064B1A70704707
:103618008722044B1A7070472400002028000020DD
:103628007C010020700100200C4B1A680C4B1B68B1
:103638009A420FD20933FF2B08D8501C074908605B
:10364800084951F8222041F8232070478222064B6E
:103658001A7070478722044B1A70704724000020A4
:10366800280000207C010020700100200C4B1A6803
:103678000C4B1B689A420FD20A33FF2B08D8501CF8
:1036880007490860084951F8222041F8232070476B
:103698008222064B1A7070478722044B1A707047B3
:1036A80024000020280000207C0100207001002058
:1036B8000C4B1A680C4B1B689A420FD20B33FF2B2A
:1036C80008D8501C07490860084951F8222041F8D9
:1036D800232070478222064B1A7070478722044BBA
:1036E8001A70704724000020280000207C01002068
:1036F800700100200C4B1A680C4B1B689A420FD2C1
:103708000C33FF2B08D8501C07490860084951F8AA
:10371800222041F8232070478222064B1A707047F6
:103728008722044B1A7070472400002028000020CC
:103738007C010020700100200C4B1A680C4B1B68A0
:103748009A420FD20D33FF2B08D8501C0749086046
:10375800084951F8222041F8232070478222064B5D
:103768001A7070478722044B1A7070472400002093
:10377800280000207C010020700100200C4B1A68F2
:103788000C4B1B689A420FD20E33FF2B08D8501CE3
:1037980007490860084951F8222041F8232070475A
:1037A8008222064B1A7070478722044B1A707047A2
:1037B80024000020280000207C0100207001002047
:1037C8000C4B1A680C4B1B689A420FD20F33FF2B15
:1037D80008D8501C07490860084951F8222041F8C8
:1037E800232070478222064B1A7070478722044BA9
:1037F8001A70704724000020280000207C01002057
:10380800700100200C4B1A680C4B1B689A420FD2AF
:103818001033FF2B08D8501C07490860084951F895
:10382800222041F8232070478222064B1A707047E5
:103838008722044B1A7070472400002028000020BB
:103848007C010020700100200C4B1A680C4B1B688F
:103858009A420FD21133FF2B08D8501C0749086031
:10386800084951F8222041F8232070478222064B4C
:103878001A7070478722044B1A7070472400002082
:10388800280000207C010020700100200C4B1A68E1
:103898000C4B1B689A420FD2013BFF2B08D8501CD7
:1038A80007490860084951F8222041F82320704749
:1038B8008222064B1A7070478722044B1A70704791
:1038C80024000020280000207C0100207001002036
:1038D8000C4B1A680C4B1B689A420FD2023BFF2B09
:1038E80008D8501C07490860084951F8222041F8B7
:1038F800232070478222064B1A7070478722044B98
:103908001A70704724000020280000207C01002045
:10391800700100200C4B1A680C4B1B689A420FD29E
:10392800033BFF2B08D8501C07490860084951F889
:10393800222041F8232070478222064B1A707047D4
:103948008722044B1A7070472400002028000020AA
:103958007C010020700100200C4B1A680C4B1B687E
:103968009A420FD2043BFF2B08D8501C0749086025
:10397800084951F8222041F8232070478222064B3B
:103988001A7070478722044B1A7070472400002071
:10399800280000207C010020700100200C4B1A68D0
:1039A8000C4B1B689A420FD2053BFF2B08D8501CC2
:1039B80007490860084951F8222041F82320704738
:1039C8008222064B1A7070478722044B1A70704780
:1039D80024000020280000207C0100207001002025
:1039E8000C4B1A680C4B1B689A420FD2063BFF2BF4
:1039F80008D8501C07490860084951F8222041F8A6
:103A0800232070478222064B1A7070478722044B86
:103A18001A70704724000020280000207C01002034
:103A2800700100200C4B1A680C4B1B689A420FD28D
:103A3800073BFF2B08D8501C07490860084951F874
:103A4800222041F8232070478222064B1A707047C3
:103A58008722044B1A707047240000202800002099
:103A68007C010020700100200C4B1A680C4B1B686D
:103A78009A420FD2083BFF2B08D8501C0749086010
:103A8800084951F8222041F8232070478222064B2A
:103A98001A7070478722044B1A7070472400002060
:103AA800280000207C010020700100200C4B1A68BF
:103AB8000C4B1B689A420FD2093BFF2B08D8501CAD
:103AC80007490860084951F8222041F82320704727
:103AD8008222064B1A7070478722044B1A7070476F
:103AE80024000020280000207C0100207001002014
:103AF8000C4B1A680C4B1B689A420FD20A3BFF2BDF
:103B080008D8501C07490860084951F8222041F894
:103B1800232070478222064B1A7070478722044B75
:103B28001A70704724000020280000207C01002023
:103B3800700100200C4B1A680C4B1B689A420FD27C
:103B48000B3BFF2B08D8501C07490860084951F85F
:103B5800222041F8232070478222064B1A707047B2
:103B68008722044B1A707047240000202800002088
:103B78007C010020700100200C4B1A680C4B1B685C
:103B88009A420FD20C3BFF2B08D8501C07490860FB
:103B9800084951F8222041F8232070478222064B19
:103BA8001A7070478722044B1A707047240000204F
:103BB800280000207C010020700100200C4B1A68AE
:103BC8000C4B1B689A420FD20D3BFF2B08D8501C98
:103BD80007490860084951F8222041F82320704716
:103BE8008222064B1A7070478722044B1A7070475E
:103BF80024000020280000207C0100207001002003
:103C08000C4B1A680C4B1B689A420FD20E3BFF2BC9
:103C180008D8501C07490860084951F8222041F883
:103C2800232070478222064B1A7070478722044B64
:103C38001A70704724000020280000207C01002012
:103C4800700100200C4B1A680C4B1B689A420FD26B
:103C58000F3BFF2B08D8501C07490860084951F84A
:103C6800222041F8232070478222064B1A707047A1
:103C78008722044B1A707047240000202800002077
:103C88007C010020700100200C4B1A680C4B1B684B
:103C98009A420FD2103BFF2B08D8501C07490860E6
:103CA800084951F8222041F8232070478222064B08
:103CB8001A7070478722044B1A707047240000203E
:103CC800280000207C0100207001002008B5FEF7C4
:103CD8002FFBFEF7B3FAFEF78DFB08BD08B5FEF71C
:103CE80027FBFEF7D7FAFEF785FB08BD08B5FEF7F8
:103CF8001FFBFEF7BBFAFEF77DFB08BD08B5FEF714
:103D080017FBFEF7F7FAFEF775FB08BD08B5FEF7D7
:103D18000FFBFEF7D9FAFEF76DFB08BD08B5FEF7F5
:103D280007FBFF2803D8054B53F8200003E0822245
:103D3800034B1A700020FEF75DFB08BD7C010020D4
:103D48007001002010B5FEF7F3FA0446FEF7F0FA0A
:103D5800011C18BF01212046FEF704FB10BD00BF5F
:103D680010B5FEF7E5FA0446FEF7E2FAC1B22046BE
:103D7800FEF718FB10BD00BF10B5FEF7D9FA0446D0
:103D8800FEF7D6FA81B22046FEF720FB10BD00BF31
:103D980010B5FEF7CDFA0446FEF7CAFAFF2C03D891
:103DA800034B43F8240010BD8222024B1A7010BD49
:103DB8007C01002070010020094B1B68094A126829
:103DC800934208D2591C064A1160074A52F8232028
:103DD800064B1A6070478722054B1A70704700BF60
:103DE80024000020280000207C0100209C050020E1
:103DF80070010020104B1B68104A1268934214D2BD
:103E08000F4909688B4210D930B40E4951F8234044
:103E18000D48056841F82350013B074D2B6041F8D8
:103E28002320064A1360046003E08722074B1A70B8
:103E3800704730BC704700BF2400002028000020D5
:103E4800740100207C0100209C05002070010020E6
:103E58000C4B1B68FE2B0DD80B4A52F8230009495E
:103E68000860981C09490860013352F82320084B60
:103E78001A607047B3F5807F0CBF00228522054B7E
:103E88001A707047280000207C01002024000020C0
:103E98009C050020700100208022014B1A70704799
:103EA80070010020E1B1F0B4551E4B1E12FA83F6E2
:103EB800082748F2050415F8012F3B4682EA20211D
:103EC80011F0800F14BF84EA4000400080B2520015
:103ED800D2B2013B13F0FF03F0D1B542EBD1F0BCF5
:103EE800704700BF42884378423B382B49D8DFE807
:103EF80003F02348484848484848484848484848FC
:103F0800484848484848482A484848484848484847
:103F18004848234832484848484848484848484854
:103F2800484848484848482A48481D0002F01F01A8
:103F380001238B40520918E002F00303D900FF2344
:103F48008B40920811E002F0010319014FF6FF734C
:103F58008B40520809E00C4B53F822300B4951F8BA
:103F68002200181A18BF01207047074951F822107B
:103F7800064850F822204A401A4214BF0120002067
:103F880070470020704700BF7C01002030010020EE
:103F980041884378423B382B57D8DFE803F03F5637
:103FA80056565656565656565656565656565656A9
:103FB80056565645565656565656565656563F56C1
:103FC8004E56565656565656565656565656565691
:103FD8005656564556561D0001F01F0001238340D2
:103FE800490912786AB9DB43194850F821201A4068
:103FF80040F82120174A52F82100034042F82130A6
:1040080023E0134850F821201A4340F82120114A90
:1040180052F82100034342F8213016E013780C4A85
:1040280053540C4A535410E0490089B21088084B85
:1040380058521288074B5A5207E01068044B43F84D
:1040480021001068034B43F821000020704700BF8F
:104058007C0100203001002030B482B044884378CD
:10406800423B382B62D8DFE803F03D616161616152
:104078006161616161616161616161616161614643
:10408800616161616161616161613D61526161614B
:104098006161616161616161616161616161614623
:1040A80061611D0004F01F00012383406409214859
:1040B80050F82400034208D0012010701E4A52F81C
:1040C8002400034342F8243008E0002010701A4806
:1040D80050F8242022EA030340F8243001230B700F
:1040E800002024E0134B1B5D134803551370012374
:1040F8000B7000201BE06400A4B20E4B185B10800C
:104108001A5B0D4B1A5302230B7000200FE0094B6A
:1041180053F8240002AB43F8040D074D45F824007A
:104128001868106004230B70002000E0022002B021
:1041380030BC70477C0100203001002038B5414B6D
:104148001C6824F01F05221D1A603F4B1B689D4206
:1041580010D0B2F5006F05D981223C4B1A704FF090
:10416800FF3038BD384B1D60202205F1B9013848B1
:10417800FCF73AFC641B364B1D5D631C202B1DD1DC
:10418800304B1B68B3F5006F05D981222F4B1A708D
:104198004FF0FF3038BD2C4B196801F120021A602E
:1041A8002B4C2022D9312046FCF71EFC237845EA07
:1041B8000323607843EA004502243EE0244AD05CA9
:1041C80045EA0025A31C202B1AD11E4B1B68B3F50A
:1041D800006F05D981221D4B1A704FF0FF3038BD92
:1041E800194B196801F120021A60194C2022D931A3
:1041F8002046FCF7F9FB207845EA004501241CE03D
:10420800134AD05C45EA00450334202C15D10D4BE8
:104218001B68B3F5006F05D981220C4B1A704FF05B
:10422800FF3038BD084B196801F120021A602022BE
:10423800D9310748FCF7D8FB0024054B185D45EA3F
:10424800006038BD9C0500201C0000207001002083
:104258007C0500200D4B1B680D4A1268934210D252
:1042680010B50C4A52F82340FFF768FF844203D088
:104278008322094B1A7010BD044A13680133136076
:1042880010BD8722044B1A70704700BF240000201D
:10429800280000207C01002070010020094B1B68C9
:1042A800094A1268934209D910B55C1E054B1C6077
:1042B800FFF744FF054B43F8240010BD8722044B49
:1042C8001A70704724000020740100207C0100202F
:1042D8007001002038B51E4B1C6824F01F05A21C75
:1042E8001A601C4B1B689D4210D0B2F5006F05D9AF
:1042F8008122194B1A704FF6FF7038BD154B1D609F
:10430800202205F1B9011548FCF76EFB641B134B1D
:104318001D5D0134202C15D10D4B1B68B3F5006FC2
:1043280005D981220C4B1A704FF6FF7038BD094B26
:10433800196801F120021A602022D9310748FCF7D8
:1043480053FB0024054B185D45EA002038BD00BF2B
:104358009C0500201C000020700100207C05002026
:104368000F4B1B68013B0F4A1268934213D970B573
:10437800FFF7B0FF0A490B680B4C5D1E0B4A166825
:1043880044F82560023B0B6009490D6844F8235046
:104398000B60106070BD8722064B1A70704700BF13
:1043A80024000020740100207C0100209C050020CE
:1043B800280000207001002008B5FFF78BFF014B93
:1043C800186008BD9C05002008B50D4B1B680D4AF8
:1043D8001268934210D2591C094A11600A4A52F8CD
:1043E800233023B1FFF776FF084B186008BD074A52
:1043F80013680233136008BD8722054B1A7008BD85
:1044080024000020280000207C0100209C050020BA
:104418007001002008B50D4B1B680D4A12689342C5
:1044280010D2591C094A11600A4A52F8233023B99C
:10443800FFF750FF084B186008BD074A136802339E
:10444800136008BD8722054B1A7008BD24000020A0
:10445800280000207C0100209C050020700100201D
:1044680010B5FFF737FF0446FDF762FF81B220461B
:10447800FDF7ACFF10BD00BF10B5FFF72BFF0446DA
:10448800FDF756FFC1B22046FDF78CFF10BD00BFF7
:1044980010B5FFF71FFF0446FDF74AFF011C18BFC0
:1044A80001212046FDF75EFF10BD00BF10B5FDF7E6
:1044B8003FFF0446FFF70EFF00EB4404FDF738FF0B
:1044C80081B22046FDF782FF10BD00BF10B5FDF791
:1044D8002FFF0446FFF7FEFE00EB8404FDF728FFDC
:1044E800C1B22046FDF75EFF10BD00BF10B5FDF755
:1044F8001FFF0446FFF7EEFE00EB4414FDF718FF1C
:10450800011C18BF01212046FDF72CFF10BD00BF7C
:1045180008B5FFF7DFFEFDF7D7FEFDF76BFF08BD17
:1045280008B5FFF7D7FEFDF7A1FEFDF763FF08BD4D
:1045380008B5FFF7CFFEFDF7DDFEFDF75BFF08BD11
:1045480008B5FFF7C7FEFDF7A5FEFDF753FF08BD49
:1045580008B5FFF7BFFEFDF771FEFDF74BFF08BD7D
:1045680010B5FDF7E5FE0446FFF7B4FE00EB440086
:10457800FDF7AAFEFDF73EFF10BD00BF10B5FDF721
:10458800D7FE0446FFF7A6FE00EB8400FDF76EFE9B
:10459800FDF730FF10BD00BF10B5FDF7C9FE04469A
:1045A800FFF798FE00EB4400FDF7A4FEFDF722FF9D
:1045B80010BD00BF10B5FDF7BBFE0446FFF78AFE2D
:1045C80000EB8400FDF766FEFDF714FF10BD00BF89
:1045D80010B5FDF7ADFE0446FFF77CFE00EB441076
:1045E800FDF72CFEFDF706FF10BD00BF094B1B6849
:1045F800094A1268934209D910B55C1E054B1C6024
:10460800FFF768FE054B43F8240010BD8722044BD2
:104618001A70704724000020740100207C010020DB
:10462800700100200B4B1B680B4A126893420DD98E
:1046380010B55C1E074B1C60FFF74CFE6FEA00408C
:104648006FEA1040054B43F8240010BD8722044B45
:104658001A70704724000020740100207C0100209B
:104668007001002038B50F4B1C6824F01F05621C30
:104678001A600D4B1B689D420FD0B2F5006F04D332
:1046880081220A4B1A70FF2038BD074B1D6020227B
:1046980005F1B9010648FCF7A7F9641B044B185D3E
:1046A80038BD00BF9C0500201C00002070010020C0
:1046B8007C05002010B5FDF73BFE0446FFF7D2FF4E
:1046C80000EB4404FDF734FE81B22046FDF77EFE80
:1046D80010BD00BF10B5FDF72BFE0446FFF7C2FF63
:1046E80000EB8404FDF724FEC1B22046FDF75AFE14
:1046F80010BD00BF10B5FDF71BFE0446FFF7B2FF63
:1047080000EB4414FDF714FE011C18BF01212046DC
:10471800FDF728FE10BD00BF10B5FDF709FE0446E1
:10472800FFF7A0FF00EB4400FDF7CEFDFDF762FEAA
:1047380010BD00BF10B5FDF7FBFD0446FFF792FF63
:1047480000EB8400FDF792FDFDF754FE10BD00BF9D
:1047580010B5FDF7EDFD0446FFF784FF00EB4400BC
:10476800FDF7C8FDFDF746FE10BD00BF10B5FDF70B
:10477800DFFD0446FFF776FF00EB8400FDF78AFDB6
:10478800FDF738FE10BD00BF10B5FDF7D1FD04469A
:10479800FFF768FF00EB4410FDF750FDFDF72AFE18
:1047A80010BD00BF094B1B68094A1268934209D91A
:1047B80010B55C1E054B1C60FFF754FF054B43F812
:1047C800240010BD8722044B1A7070472400002073
:1047D800740100207C010020700100200A4B1B6836
:1047E8000A4A126893420BD910B55C1E064B1C602E
:1047F800FFF738FF60F0FF00054B43F8240010BDB9
:104808008722044B1A70704724000020740100208E
:104818007C0100207001002038B50B4B1B680B4A47
:10482800126893420BD20A4D55F82340FFF71AFF3E
:10483800054B1B6844FA00F045F8230038BD872271
:10484800044B1A7038BD00BF240000202800002047
:104858007C0100207001002038B50B4B1B680B4A07
:10486800126893420BD20A4D55F82340FFF7FAFE1F
:10487800054B1B6824FA00F045F8230038BD872251
:10488800044B1A7038BD00BF240000202800002007
:104898007C0100207001002038B50B4B1B680B4AC7
:1048A800126893420BD20A4D55F82340FFF7DAFEFF
:1048B800054B1B6804FA00F045F8230038BD872231
:1048C800044B1A7038BD00BF2400002028000020C7
:1048D8007C010020700100202DE9F0414C4B1B7831
:1048E800002B3DD04FF480734A4A13604A4A136044
:1048F8004A4B1B784BB10023484A13704FF0FF31E5
:10490800474A1160474A136075E00422454B1A6014
:1049180071E0013CA4B21CB98422434B1A7023E015
:104928002B6823F01F015E1A01332B603A6891420D
:104938000CD0B3F5006F03D381223B4B1A7013E000
:1049480039602022B9314046FCF74EF818F80620A5
:10495800364B53F822309847334B1B78012BD8D06D
:10496800314B1B78002B50D00022294B1A70304B4A
:104978001B68002B49D1382001F0A6FC2C4B18608D
:10498800002842D004234370274B1B788370224BA6
:104998001B68C3701A0A02711A0C42711A0E8271CE
:1049A800013BFE2B9ABF234A52F823304FF0FF33C6
:1049B800C3711A0A02721A0C42721B0E8372154BCB
:1049C8001B68C3721A0A02731A0C42731B0E837394
:1049D800144B1B68C3731A0A02741A0C42741B0E18
:1049E80083741223037000220F4B1A700122124B9A
:1049F8001A70BDE8F08101220B4B1A704FF6FE7455
:104A0800084D074FDFF834808AE7BDE8F08100BF22
:104A18002100002028000020240000202000002081
:104A28001C0000209C050020700100200870000870
:104A3800780100207C010020A00500207C050020D2
:104A480038B50B4B1B687BB915460C46382001F06E
:104A58003BFC074B186048B100F8014B2246294639
:104A680002F047FA002038BD012038BD012038BDCA
:104A78007801002008B5FFF7F5FD013809283ED870
:104A8800DFE800F0050A0F151A24292E3338FDF740
:104A98004FFC00F0E3FC08BD00F018FDFDF7AAFC90
:104AA80008BDFDF745FCC0B200F05EFD08BD00F092
:104AB8007BFDFDF79FFC08BD02F05AF9052802D1DD
:104AC800FDF7B2FF08BDFDF795FF08BDFBF7FCFB3E
:104AD800FDF790FC08BDFBF7FDFBFDF78BFC08BD5F
:104AE800FBF7DCFBFDF786FC08BDFCF7FFFAFDF7DA
:104AF80081FC08BDFCF720FBFDF77CFC08BD882283
:104B0800014B1A7008BD00BF700100200F4B1A68D6
:104B18000F4B1B689A4211D200B583B0FFF70EFB0A
:104B280002AB43F8040D09490A68501C086009499A
:104B380051F82210184601F03FFB03E08722064B8C
:104B48001A70704703B05DF804FB00BF2400002012
:104B5800280000207C010020700100200E4B1A68FC
:104B68000E4B1B689A4211D910B582B0FFF7E6FACE
:104B780002AB43F8040D084A1468013C1460184657
:104B880001F008FB064B43F8240003E08722054B9D
:104B98001A70704702B010BD240000207401002074
:104BA8007C01002070010020764B1B78002B40F020
:104BB800E3802DE9F04182B0734B1C68002C00F0B3
:104BC800DD806378013B0A2B00F2CE80DFE803F03A
:104BD80006CC19CC22CC69CCCCCCA2006B4B1B7870
:104BE80013B1FA23A37006E00023A3700123684AD7
:104BF8001370664A1370644B1B6802221A705A704D
:104C0800B6E00023614A1370022222700422627007
:104C1800A370ADE0062363702378052B04D002232C
:104C28002370FD23A370A3E0E678A37843EA062661
:104C38006579237943EA05257319B3F5006F04DD17
:104C480002232370FC23A37092E00134C5B14FF610
:104C5800FF782F46372D28BF37273A4606F1B90186
:104C68002046FBF7C1FE224639464046FFF71AF9AF
:104C780080463E44B6B2ED1BADB2002DE9D101E04D
:104C88004FF6FF78404B1B6804221A7006225A70B0
:104C980000229A7083F803804FEA182883F804806A
:104CA80066E025780823637002232370374B1B784E
:104CB80013B1FA23A3705BE0A9B2052902D8FD233A
:104CC800A37055E0E678A37843EA06267319053BF6
:104CD800B3F5006F02DDFC23A37049E0271D0539F9
:104CE8003A4689B24FF6FF70FFF7DCF8625D631948
:104CF80013F8013C43EA0223834202D0FB23A3704A
:104D080036E00023A3706A1F06F1B9013846FBF7A5
:104D180087FE2DE02378052B06D0022323700C2371
:104D28006370FD23A37023E0022323700C236370B8
:104D3800164B1B7813B1FA23A37019E0234653F8D6
:104D4800020F0190019AFD2A02D98723A3700FE070
:104D5800104909688A420BD00E490A600422B5211D
:104D68001846FBF75DFE03E002232370FE23A370C1
:104D78000120044B187002E001207047002002B0A7
:104D8800BDE8F081A0050020780100202100002066
:104D9800200000207401002038B51046084D2C680A
:104DA80023780B70214611F8012B02F0A2F8204657
:104DB80001F0CAFA00202860024B187038BD00BF05
:104DC80078010020A005002010B5FDF7B1FA0446CF
:104DD800FFF748FC0444FDF7ABFAFF2C03D8044B5B
:104DE80043F8240010BD8222024B1A7010BD00BF88
:104DF8007C0100207001002010B5FDF799FA0446E7
:104E0800FFF768FA0444FDF793FAFF2C03D8044B24
:104E180043F8240010BD8222024B1A7010BD00BF57
:104E28007C0100207001002010B5FFF753FA0446FA
:104E3800FDF77EFAFF2C03D8034B43F8240010BD7E
:104E48008222024B1A7010BD7C01002070010020E4
:104E580010B5FDF76DFA0446FFF704FC2044FF285F
:104E680003D8054B53F8200003E08222034B1A7045
:104E78000020FDF7BFFA10BD7C0100207001002062
:104E880010B5FDF755FA0446FFF724FA2044FF2829
:104E980003D8054B53F8200003E08222034B1A7015
:104EA8000020FDF7A7FA10BD7C010020700100204A
:104EB80008B5FFF70FFAFF2803D8054B53F8200071
:104EC80003E08222034B1A700020FDF793FA08BD15
:104ED8007C0100207001002042884378423B382B37
:104EE80028D8DFE803F01F27272727272727272782
:104EF8002727272727272727272727212727272740
:104F08002727272727271F27222727272727272736
:104F180027272727272727272727272127271D0050
:104F2800520902E0920800E052080F2A8CBF0020C4
:104F38000120704700207047034B8360034B0361D7
:104F4800034BC3600020704761400008ED3E000835
:104F5800993F000810B500F003FD08B3114A8260BC
:104F6800114AC260114A02617022027061224270C5
:104F78000022428001210E4B19700E4B1A700E4B05
:104F88001A600E4C0422B5212046FBF72DFD23683C
:104F9800B3F1FF3F01D100222260094801F0CAF8AD
:104FA80010BD00BFA14D0008494A0008B14B0008D8
:104FB80021000020A00500207801002074010020B5
:104FC800E148000808B55178137843EA0121408880
:104FD800FBF782FF002008BD10B543786E2B01D087
:104FE800702B09D144882046FBF796FBFF2805D093
:104FF8002046FBF7F1FD10BD002010BD002010BDBC
:1050080070B5054644882046FBF786FB0646FDF743
:105018007DF890B92046FBF7EDFD80B93046FDF7E5
:105028008FF869786E2914BF002101212046FBF70B
:10503800FDFD044BEB60002070BD022070BD022016
:1050480070BD00BFCD4F000810B544882046FBF75F
:10505800E3FE2046FBF760FBFDF78AF810BD00BFB2
:10506800F0B50F78837803F00F03114850F82360E8
:1050780096F808E0747AB7B1A64513D00023601CEF
:10508800C0B235682C5D02F8014B382834BF04469D
:1050980000240133DBB29F4205D07445EFD174463A
:1050A8001F4600E0002774720F700020F0BD00BF9B
:1050B800A4050020837803F00F030C4A52F823302C
:1050C8006BB1197A5A7A91420BD0DA7A02F0100150
:1050D80001F0FF0039B942F01002DA72704700207F
:1050E8007047002070470120704700BFA4050020CA
:1050F8002A4B1B68002B50D070B5DA7A12F0010FDA
:105108000DD05B685BB10020FCF712FB38B1234C73
:105118002368586801F018F9236800225A601F4B69
:105128001B68DB7A13F0020F36D00020FCF7B6FAC2
:10513800002831D0194B1B681D7A6C1CE4B2372C3F
:1051480027D85A7AA24227D01E680020FCF7C8FA4E
:105158007055124B1A681472537A9C4202D9E31A9A
:10516800DBB202E03834E31ADBB21B2BD37A94BFEC
:1051780023F0100343F01003D37270BD1C680020A5
:10518800FCF7AEFA6055054B1A6800241472537A7E
:10519800E8E75A7A002AF1D170BD7047A4050020CB
:1051A8002DE9F041847804F00F04184B53F82430AB
:1051B800FBB109B35B6813BB16460D462046FCF7E6
:1051C800B7FAF8B1382001F07FF8074600F1060871
:1051D8002A463146404601F08CFE42462946204682
:1051E800FCF7D6FA094B53F824305F600020BDE87D
:1051F800F0810120BDE8F0810020BDE8F0810120A8
:10520800BDE8F0810120BDE8F08100BFA4050020C1
:1052180010B50020FCF7EAFA064B1B684BB158683A
:1052280008B101F091F8034C206801F08DF80023D3
:10523800236010BDA40500204278438813F00F0FA7
:105248000AD1C3F30713042B08D8722A08D0742A8A
:1052580014BF0020012070470020704700207047CD
:1052680001207047F0B583B00546448804F00F0666
:1052780047780DF107020DF106013046FCF7A4FA54
:10528800742F06D19DF80700FCF740FF002861D174
:1052980005E09DF80600FCF739FF02285CD0C4F34E
:1052A8000714324B53F8263073B19A7AA24255D17B
:1052B800742F04D1DB7A13F0010F51D115E0DB7A9A
:1052C80013F0020F4ED123E00C2000F0FDFF274A17
:1052D80042F8260084720023C372036052F8262025
:1052E800137253725360742F12D1204B53F8262037
:1052F800D37A43F00103D3721D4BEB609DF807008E
:10530800FCF71EFF022221463046FCF7FBF81CE0A2
:10531800164B53F826703B681BB9382000F0D4FFB1
:105328003860124B53F82620D37A43F00203D37225
:10533800104BAB60104B2B619DF80600FCF700FF8B
:10534800012221463046FCF7DDF80C4800F0F2FE59
:10535800002008E0022006E0022004E0022002E02B
:10536800022000E0022003B0F0BD00BFA405002029
:10537800A951000869500008BD500008F9500008FC
:1053880030B583B00546847804F00F040DF10702A8
:105398000DF106012046FCF717FA1A4B53F8243092
:1053A80073B36A78742A04D1DA7A22F00102DA72C5
:1053B8000CE0DA7A22F00202DA72186830B100F0F2
:1053C800C3FF104B53F8243000221A600D4B53F8DA
:1053D8002430DB7A13F0030F12D12046FCF706FACB
:1053E800084D55F8240000F0AFFF002345F824309D
:1053F8009DF80700FCF7BCFE9DF80600FCF7B8FE18
:1054080003B030BDA405002000B583B00DF106013E
:105418000DF10700FBF7B8FE9DF80700FCF790FEBA
:105428009DF80600FCF78CFE0120FBF7B3FE40B99F
:105438009DF80700FCF79CFE9DF80600FCF798FE17
:1054480007E0054B186820B100F07EFF0022024BF0
:105458001A6003B05DF804FBA805002000B583B00E
:105468000190174B1B683BBB382000F02DFF144BF5
:10547800186008B30022134B1A70FAF725FF124B75
:1054880018600F4B1B68019858605A7902F00302A4
:105498005A71DA7912F0FF0F03D05A7942F00202FA
:1054A8005A719A7912F0FF0F04D05A7942F001022A
:1054B8005A7101E0FBF7E4FE03B05DF804FB00BF9E
:1054C800A8050020B0050020AC050020234B1B6870
:1054D800002B33D010B582B05C79E4B214F0E00F41
:1054E8002ED1FAF7F1FE1E4B1B68C01AFA282AD9EA
:1054F8001A4B1B685B7913F0080F01D0FBF7B8FE55
:10550800164B1B685A7942F020025A71586801906C
:10551800184600F019FF0022104B1A600CE0002119
:10552800104A1170DA7912F0FF0F05D1184600F011
:105538000BFF0022094B1A6001980CE0002070470D
:1055480058680190E4E7054B1B685868019014F00F
:10555800100FE4D1F0E702B010BD00BFA80500208D
:10556800AC050020B00500200D4B1B68BBB15A7973
:1055780012F0F80F13D19979C9B20A4A12789142F8
:105588000DD910B5511CC9B2064C21701A441072BD
:105598009B79DBB2994201D1FBF772FE10BD7047CF
:1055A800A8050020B005002010B5134B1868E8B115
:1055B800437913F0100F1BD0C279D2B20F4B1B786E
:1055C8009A4206D9591C0D4A117003441C7AE4B258
:1055D80000E00024C379DBB2084A12789A4208D165
:1055E80000F0B2FE0022044B1A6002E0002400E042
:1055F8000024204610BD00BFA8050020B0050020EB
:1056080030B411F0030119D11A4B9B88834208D09A
:10561800184B03F51B7501221446198B814207D1DB
:1056280000E0002404EB8404124800EB84001FE02F
:1056380001321433AB42EFD1002019E0012916D111
:10564800B0F57F4F06D00C4A01231C46118B8142CE
:1056580007D100E0002404EB8404074B03EB84002B
:1056680006E001331432082BEFD1002000E00020BF
:1056780030BC7047B4050020147400080378413B1F
:10568800122B0DD8DFE803F0390C0C0C0C0C0C0CA9
:105698000A0C0C0C0C0C0A390C0C0A000020704780
:1056A8004378423B352B26D8DFE803F0292521250E
:1056B8002525252525252525252525252525252592
:1056C800251D2525252525252525252525251F2590
:1056D8002525252525252525252525232525252574
:1056E800251B8220704702207047842070470420C1
:1056F80070478820704700207047022070470120BB
:10570800704700BF70B582B00C46164600238DF86E
:10571800073045884378423B382B3ED8DFE803F012
:105728001D3D233D3D3D3D3D3D3D3D3D3D3D3D3DDB
:105738003D3D3D3D3D203D3D3D3D3D3D3D3D3D26C5
:105748001D3D233D3D3D3D3D3D3D3D3D3D3D3D3DBB
:105758003D263D3D3D203D3D1D0001230B7015E0DC
:1057680002230B7012E004230B700FE0012229467C
:105778000DF10700FBF738F920789DF807309842BB
:1057880028BF1846207048B10135ADB222782946A5
:105798003046FBF729F9002000E0032002B070BD75
:1057A80030B583B015468DF8071044884378423BDE
:1057B800382B3DD8DFE803F01D3C253C3C3C3C3C05
:1057C8003C3C3C3C3C3C3C3C3C3C3C3C3C213C3C2C
:1057D8003C3C3C3C3C3C3C291D3C253C3C3C3C3C4A
:1057E8003C3C3C3C3C3C3C3C3C293C3C3C213C3C1F
:1057F8001D0001238DF8073012E002238DF80730D1
:105808000EE004238DF807300AE0012221460DF14D
:105818000700FBF705F99DF8070050B10134A4B261
:105828009DF8072021462846FBF7FAF8002000E0FB
:10583800032003B030BD00BF172903D808B5FFF710
:10584800AFFF08BD03207047202930D82DE9F84F55
:1058580091468846174C04F520764FF6FF774FF0AF
:10586800010B4FF0000A2546A388BB4219D02046F9
:1058780000F0BAFCFF2814D0C0F3C70398450AD932
:1058880000F007000BFA00F019F80330184202D0B4
:10589800C4F810A005E02B691BB9284600F0B0FC3D
:1058A80028611434B442DED10020BDE8F88F03200B
:1058B800704700BFB4050020062905D108B5104679
:1058C800FBF76AFB002008BD0320704710B50C46A3
:1058D8001046FBF7F3FB2070002010BD08B5FFF75A
:1058E8005FFFFCF7B5F9002008BD00BF1F2834D8BA
:1058F800F0B583B000EB8002184B03EB82034FF640
:10590800FF729A801E24042600EB8000134B03EBE1
:1059180080053246214601A8FBF766F82F46324635
:10592800294601A801F0D6FA78B9FF238DF804308A
:105938008DF805304FF6FF73ADF806300422214686
:105948000DEB0200FBF76CF802E004349E2CE0D16A
:10595800384600F0D1FB03B0F0BD7047B405002015
:1059680030B4124B9A884FF6FF739A420AD00F4B05
:1059780003F51B7501224FF6FF701446198B8142FF
:105988000DD100E000240948A1000B1900EB8303A6
:1059980000229A60DA601A619A80184604E001329F
:1059A8001433AB42E9D1002030BC7047B405002065
:1059B80070B514461E46FFF723FE18B9002323705E
:1059C800022070BD85681DB900232370032070BDB7
:1059D80032462146A84710B10022227070BD70BD22
:1059E80038B50D46134644885CB90C780A2C28BF94
:1059F8000A2422460949184601F07BFA2C70002037
:105A080038BD0A4601214FF610704FF6FF758C42DB
:105A180018BF2846FFF7CCFF38BD00BF0874000840
:105A280070B515461E46FFF7EBFD28B1C4682CB1CA
:105A380032462946A04770BD022070BD032070BDC4
:105A48002DE9F04383B0FAF767FF00248DF807408B
:105A58000222214601A8FAF7C7FF4A4B03F10A00C0
:105A6800214613F8012B114489B28342F9D1ADF8CC
:105A780002100A238DF80730BDF804308B4239D064
:105A8800FF2502AB03F8085D012211464FF610709E
:105A9800FFF7C6FF02AB03F8075D012211464FF678
:105AA8001470FFF7BDFF02AB502223F8042D022229
:105AB80001214FF60870FFF7B3FF02AC04F8015D4F
:105AC8000122B9212046FAF7ABFF0122BD21204669
