:100000000C9479000C94691A0C9496000C94960048
:100010000C9496000C9496000C9496000C9409167F
:100020000C9496000C9496000C9496000C949600F8
:100030000C9496000C9496000C9496000C949600E8
:100040000C9496000C9496000C94441C0C94CE1CBA
:100050000C9496000C9488020C9496000C949600D4
:100060000C946F070C949600000102030405060728
:10007000FFFFFFFFFFFF08FF4573300000FFA600F2
:100080004C0100004542470010FFA6004C01000053
:100090004557490011FFA6004C01000045424600AB
:1000A00012FFA6004C0100004673B400C0FFF1002F
:1000B000000000000A4757505332302E32353400CA
:1000C0002E02060347063D070608050B060D210E06
:1000D000620F7610CA118312131535181819161BE2
:1000E0004320FB23E9242A2500261F2C812D352EB1
:1000F000090011241FBECFEFD8E0DEBFCDBF11E055
:10010000A0E0B1E0ECEAFDE302C005900D92A2345C
:10011000B107D9F724E0A2E4B1E001C01D92AA34EE
:10012000B207E1F70E9435150C94D41E0C94000020
:100130009C01CB0144E050E0B9010C94A41E9C0149
:10014000CB0144E050E0B9010C94BC1EEF92FF9249
:100150000F931F93CF93DF93EB017A01FC01028190
:10016000138181818236B1F058F48434E9F018F4B7
:10017000823479F50FC08735A9F0813651F517C063
:100180008337A9F018F4843621F50EC0873751F073
:100190008A37F9F481E08883C8010E94B41EF70110
:1001A000808315C082E001C084E088830AC0C80152
:1001B0000E94B41E9881981708F4892F88830F5FD6
:1001C0001F4F488150E0B801C7010E94A41E80E083
:1001D00001C083E0DF91CF911F910F91FF90EF90CD
:1001E00008950F931F93CF93DF93EB01DA01FC0186
:1001F0006281738181818236D1F068F4843431F177
:1002000020F4823409F042C012C08735B1F0813643
:1002100009F03CC02DC0833759F120F4843609F031
:1002200035C014C0873749F08A3709F02FC081E004
:100230008883FB0164916C9319C082E08883FB0181
:10024000859194918C9311969C9310C084E088833F
:10025000FB0105911591259134910C9311961C93F6
:10026000119712962C93129713963C9380E00FC02F
:10027000FB0114918881811708F4182F6F5F7F4F5D
:10028000412F50E0CD010E94851E188383E0DF914D
:10029000CF911F910F910895EF92FF920F931F93AB
:1002A000CF93DF931F92CDB7DEB7FC01262F8A01D3
:1002B000E280F38081818236B1F058F48434A9F071
:1002C00018F4823439F50FC08735D9F0813611F52D
:1002D0000EC0833761F018F48436E1F406C0873726
:1002E00081F08A37B9F421E00DC024E00BC0622F01
:1002F000C70129830E94C61E8FEFE81AF80A2981D8
:1003000001C022E0422F50E0B701C8010E94BC1E8C
:1003100080E001C083E00F90DF91CF911F910F919A
:10032000FF90EF9008950E9400030E944B050C94EB
:100330001C080C942808FC012081293451F018F481
:10034000213449F404C02F54223028F402C00C9404
:1003500044030C947A0583E00895FC01208129343C
:1003600051F018F4213449F404C02F54223028F4F9
:1003700002C00C941D030C94580583E00895FC0101
:100380002081293451F018F4213449F404C02F5449
:10039000223028F402C00C948C030C94FB050895C1
:1003A000FC018081DB018C93818111968C93CB01C0
:1003B0000296628173812081213411F46F70772756
:1003C0000E94DA1D8E5F08958F7021E030E002C038
:1003D000220F331F8150E0F7C90108958F709927CC
:1003E00088599F4FFC0184910895FC01828193817B
:1003F0000E94EE019091640090FF15C09FEF9093D2
:10040000450190934201909164009E7F9093640017
:100410009FE090937C009FE990937A0090917A00FE
:10042000906490937A00E82FF0E0DF01AD58BE4F62
:100430008C9181508C93811119C0EE0FFF1FDF0149
:10044000AA5BBE4F2D913C91285F3F4F44E036950B
:1004500027954A95E1F7EF59FE4F808191818217E8
:10046000930721F03183208381E0089580E008958F
:10047000CF93DF93EA01FC01828193810E94EE0118
:1004800090E0FC01EE0FFF1FEF59FE4F28813981EC
:1004900031832083FC01ED58FE4F21E0208380E072
:1004A000DF91CF9108950F931F93CF93DF938B012B
:1004B000EA01FC01828193810E94EE0192E0F80141
:1004C0009083E82FF0E0EE0FFF1FEF59FE4F808181
:1004D00091819983888380E0DF91CF911F910F9163
:1004E0000895CF93DF930E94EE018F3F69F0C09192
:1004F000CA02D091CB020E94E401C823D92381E033
:10050000CD2B19F480E001C082E0DF91CF910895F6
:100510001F920F920FB60F9211242F933F934F9378
:100520008F939F93EF93FF93209178003091790000
:1005300040914201403170F5809143019091440116
:10054000820F931F9093440180934301411134C063
:1005500020917C002F3059F0E0914501E93038F4CA
:10056000F0E0EE0FFF1FEA5BFE4F918380838091E6
:1005700045018F5F01C0822F893048F5282F2F5FFA
:10058000E82FF0E0E85AFE4F90819F30A1F380936E
:10059000450112C0403F81F4109244011092430182
:1005A000E0914501E93028F4F0E0E85AFE4F8081FF
:1005B00001C08FE080937C00809142018150809344
:1005C000420180917A00806580937A000DC080930B
:1005D000450180E180937A008FE080937C008091D8
:1005E0006400816080936400FF91EF919F918F91EF
:1005F0004F913F912F910F900FBE0F901F90189524
:1006000080E180937A008FE080937C008091640089
:100610008160809364001092CB021092CA02109203
:1006200045018FEF80934201E8E5F1E08FE081938F
:1006300091E0E136F907D9F708950F931F93CF930F
:10064000DF938C01FC01C281D381C031D105B0F4AC
:10065000CE010E947102823089F0F80181818936D1
:1006600029F0863729F0853649F403C0C06C01C0F3
:10067000C064F801D383C28380E001C083E0DF91CE
:10068000CF911F910F9108950F931F93CF93DF93F5
:10069000EC011A810B81812F902F0E947102811130
:1006A00035C0812F902F0E94EE0123E532E03F8379
:1006B0002E8328E332E03987288725EF31E03B8716
:1006C0002A87282F30E0F901ED58FE4F1082A9014A
:1006D000440F551FFA01EF59FE4F11821082FA01A3
:1006E000EA5BFE4F11821082F901E85AFE4F108337
:1006F000C091CA02D091CB020E94E4018C2B9D2BA9
:100700009093CB028093CA0280E001C082E0DF9127
:10071000CF911F910F9108951F93CF93DF93FC0109
:10072000C281D381CE010E947102813029F5CE01B0
:100730000E94EE01182FC091CA02D091CB020E94F4
:10074000E401809590958C239D239093CB02809318
:10075000CA02892B59F480E180937A008FE080935C
:100760007C0090916400916090936400E12FF0E030
:10077000E85AFE4F8FE08083DF91CF911F9108955B
:10078000887F992740978930910528F4FC01ED5F17
:10079000FE4F808108958FEF08959C0127703327C5
:1007A00081E001C0880F21503109E0F708950F93CF
:1007B0001F93CF93DF931F92CDB7DEB78C01698370
:1007C0000E94CD03087F112769810031110521F0B6
:1007D00008311105A1F40AC098B1662319F0982BCD
:1007E00098B90DC08095892388B909C09BB166234B
:1007F00019F0982B9BB903C0809589238BB90F9072
:10080000DF91CF911F910F9108950F931F93CF9375
:10081000DF931F92CDB7DEB78C0169830E94CD03B1
:10082000087F112769810031110521F00831110578
:10083000A1F40AC097B1662319F0982B97B90DC09F
:100840008095892387B909C09AB1662319F0982B3E
:100850009AB903C0809589238AB90F90DF91CF910F
:100860001F910F9108950F931F93CF93DF93FC0176
:10087000C281D381DA011C91808191818934A9F4EC
:10088000CE010E94C003082FCE010E94CD03E02FAD
:10089000F0E0E258FE4F112319F09081982B03C02D
:1008A00080959081982390831AC08F3449F49E36A6
:1008B00009F41095612F6170CE010E94D7030FC01B
:1008C000803569F49E3609F4109581E090E06D97CB
:1008D00011F480E090E0FC01EE57FE4F108380E0C1
:1008E000DF91CF911F910F9108951F93CF93DF93C5
:1008F000EC010E94CD03182F9E01287F3327203161
:10090000310521F02831310599F402C0807C01C005
:10091000877081110DC0CE010E94C003E82FF0E066
:10092000E458FE4F9081912381E019F480E001C0EA
:1009300082E0DF91CF911F910895887F99278031C0
:10094000910519F0489729F402C086B1089589B13C
:10095000089580E00895FF920F931F93CF93DF9344
:10096000FC01C281D3818081F180893451F5CE01AF
:100970000E949D04182FCE010E94C003082FCE01B3
:100980000E94CD03982F8EE6F81201C0109519230E
:10099000E02FF0E0DF01A058BE4F8C91282F2923D3
:1009A000121719F098279C9342C0E258FE4F80819D
:1009B000282F2923121301C03AC09827908381E081
:1009C00037C08035A1F5CD31D105C1F468B580912E
:1009D0008201681761F1861710F4615001C06F5FE2
:1009E00068BD862F81508E3F30F084B58F7D84BDE9
:1009F0008DE190E016C084B5806218C067B5809123
:100A000083016817A1F0861710F4615001C06F5F71
:100A100067BD862F81508E3F38F084B58F7784BDB7
:100A2000CE010E94D70303C084B5806884BD80E0F6
:100A3000DF91CF911F910F91FF900895BF92CF92B8
:100A4000DF92EF92FF920F931F93CF93DF93EC010E
:100A50006B017A010A811B81C8010E949D04B82E96
:100A600089818E3609F4B09481E0F6018083C80153
:100A70000E94CD038B2191E009F490E0F70190836F
:100A800080E0DF91CF911F910F91FF90EF90DF9069
:100A9000CF90BF90089510927C0110927E01109229
:100AA000800110927D0110927F01109281010895C2
:100AB0000F931F93CF93DF93EC010A811B81C80131
:100AC0000E947504823081F089818E3611F0803762
:100AD00059F48881803511F080E007C00D3111058F
:100AE000D9F30E311105C1F383E0DF91CF911F914E
:100AF0000F910895DF92EF92FF920F931F93CF9380
:100B0000DF938C01FC01C281D381CE010E94750468
:100B1000882311F082E067C0CE010E94C003D82E66
:100B2000811116C0CE010E947102813099F38111AA
:100B30000FC0E090CA02F090CB02CE010E94EE01FD
:100B40000E94E4018E299F299093CB028093CA02D0
:100B5000CE010E94CD032D2D30E0F901E458FE4F67
:100B60009081982B90838095F901E258FE4F9081F7
:100B700098239083F901E058FE4F90819823908349
:100B8000F80180818F3411F461E014C0803589F45C
:100B900061E0CE010E94050484B5807A71F48091F1
:100BA00064008F7D8093640083E084BD84E085BD14
:100BB00004C060E0CE010E940504F80181818E36F8
:100BC00021F461E0CE010E94D7038EE195E0F801A7
:100BD0009783868383E394E0918780878BEA94E010
:100BE0009387828780E0DF91CF911F910F91FF90D3
:100BF000EF90DF900895EF92FF920F931F93CF93A2
:100C0000DF938C01FC01C281D381CE010E94C0031D
:100C1000F82ECE010E94CD032F2D30E08095F901F2
:100C2000E458FE4F908198239083F901E258FE4FDB
:100C3000908198239083F901E058FE4F908198238A
:100C40009083F11016C0CE010E947102813089F4A8
:100C5000E090CA02F090CB02CE010E94EE010E9409
:100C6000E401809590958E219F219093CB028093F3
:100C7000CA02F80180818035A1F4828193814D9769
:100C800019F484B58F7D02C084B58F7784BD84B597
:100C9000807A39F414BC15BC809164008062809322
:100CA000640060E0CE010E94D70360E0CE01DF91D6
:100CB000CF911F910F91FF90EF900C94050481E06C
:100CC000FB018083809184018695FA01808380E016
:100CD0000895FA01808180938C0180E008958091CD
:100CE000CC02811104C08FEF80938C013CC08091B5
:100CF000840190918C01981729F080938C011092B7
:100D00008D0131C020918D012F5F20938D01203CFA
:100D100039F08091CC02837890E0813891055CF0C5
:100D20001092BC008091640080688093640080E829
:100D30008093CC0216C0211116C0809164008F7779
:100D40008093640080E28093B8008FEF8093BB00B3
:100D500094E09093BC001092CC0210928401809396
:100D60008C0181E0089580E008950F931F93880F10
:100D7000809384016093CC02409385012093860187
:100D8000109388010093870164EA54E877C0609368
:100D9000BC008091BC0087FFFCCF8091B9008830F7
:100DA00029F08091B900803109F036C09091CC02D1
:100DB0008091840191FD01C081608093BB005093BC
:100DC000BC008091BC0087FFFCCF8091B9008831C6
:100DD00029F08091B900803409F01EC08091CC02C6
:100DE00081FD20C040E041C0E0918701F091880181
:100DF000E80FF11D90819093BB008F5F5093BC0072
:100E00009091BC0097FFFCCF90918501891758F411
:100E10009091B900983239F084E98093BC008091B8
:100E2000B90039C080E0909185018917E8F280917E
:100E3000CC028D7F21C0842F90E0019630E0821794
:100E4000930714F484EC01C084E88093BC00809183
:100E5000BC0087FFFCCFE0918701F0918801E40F8F
:100E6000F11D8091BB0080834F5F20918601421766
:100E700010F38091CC028E7F8093CC028091CC02C3
:100E8000837009F084CF84E98093BC001092CC0277
:100E9000109284018FEF1F910F910895EF92FF92AE
:100EA0000F931F939091CC0297FD14C0880F8093ED
:100EB00084016093CC0240938501209386011093B6
:100EC000880100938701F0928A01E092890185EA06
:100ED0008093BC001F910F91FF90EF9008951F9297
:100EE0000F920FB60F9211242F933F934F935F935E
:100EF0006F937F938F939F93AF93BF93EF93FF93E2
:100F00008091B900887F883221F140F48031A1F0CE
:100F10008831F9F0883009F076C00EC0803409F4C9
:100F200048C020F4803309F06EC026C0803599F1A6
:100F3000883509F068C049C010928B019091CC02AD
:100F40008091840191FD01C081608093BB0085E8A0
:100F500060C080918B0190918501891768F4E091C0
:100F60008701F0918801E80FF11D90819093BB00FB
:100F70008F5F80938B01EBCF8091CC028D7F80932C
:100F8000CC028091CC0280FF02C085EA42C084E995
:100F90008093BC0030C080918B01E0918701F0917B
:100FA0008801E80FF11D9091BB0090838F5F8093C3
:100FB0008B0120918B0130E08091860190E00197B8
:100FC0002817390724F685EC24C080918B01E09125
:100FD0008701F0918801E80FF11D9091BB0090838B
:100FE0008F5F80938B0184E98093BC008091CC0259
:100FF0008E7F8093CC02E0918901F0918A01309735
:1010000051F0099508C08091CC0280688093CC0291
:1010100084E98093BC00FF91EF91BF91AF919F91C4
:101020008F917F916F915F914F913F912F910F9091
:101030000FBE0F901F9018951092CC028FEF8093E7
:10104000840110928C0110928A01109289010895F6
:101050001F93CF93DF931092BC008091640080684F
:101060008093640084E190E00E94750481117AC04D
:1010700085E190E00E947504811174C084E190E0E4
:101080000E94CD03C82F85E190E00E94CD03C82BBC
:1010900084E190E00E949D048C238C1363C08091B6
:1010A00064008F778093640080E28093B8008FEFB4
:1010B0008093BB0084E08093BC000E945117EC0138
:1010C000009709F44FC010928A01109289012FEF06
:1010D00084E39CE0215080409040E1F700C0000094
:1010E0000E94830C182F0E94310E180F0E94180FB7
:1010F000180F0E947E10180F0E948B09810F61F457
:101100008FEF9FEF9D838C831092BC0080916400D1
:1011100080688093640026C00E941C0889E488834C
:1011200080E7898384E190E09B838A83CE010E94DB
:101130007A0585E190E09B838A83CE010E947A053F
:101140008FE596E09F838E8389E696E0998788876E
:101150008FE696E09B878A8784E5888382E489838B
:101160001B821A82DF91CF911F910895FA01DC0151
:1011700012968D919C91139783709927B081A181CC
:10118000728163815481458136812781FC01EE0F94
:10119000FF1FEE0FFF1FEE0FFF1FE257FE4FB08342
:1011A000A183728363835483458336832783FC0141
:1011B000E255FE4F21E0208380E00895EF92FF92F8
:1011C0000F931F93CF93DF93EC01EA81FB81E370D0
:1011D000FF27DF01A255BE4F8C91823021F41C9273
:1011E0001092CC0290C0813009F08DC08091CC0269
:1011F000811189C08F0193E0000F111F9A95E1F7CB
:10120000D801A257BE4FBC912B2F30E040E050E0F8
:1012100060E070E090E0A3E60E946D1E09F459C002
:101220000E946D1E09F030F5A3E40E946D1E09F4C2
:1012300050C00E946D1E09F058F4A1E40E946D1E7A
:1012400009F445C0A2E40E946D1E09F048C04DC0DB
:101250002B2F30E040E050E060E070E080E090E074
:10126000ACE40E946D1EA9F1A7E50E946D1ED9F1A4
:10127000A8E415C02B2F30E040E050E060E070E0C3
:1012800080E090E0AEE60E946D1E19F10E946D1E96
:1012900009F048F4A6E60E946D1EE9F0A8E60E9457
:1012A0006D1EE9F416C02B2F30E040E050E060E006
:1012B00070E080E090E0A0E70E946D1E51F00E9477
:1012C0006D1E58F0A4E70E946D1E49F404C045E06D
:1012D0000DC044E00BC042E009C041E007C0E25548
:1012E000FE4F108210C048E001C046E0E255FE4FBC
:1012F00082E0808302571E4FE12CF12C20E06AE04F
:101300008B810E944E0780E0DF91CF911F910F915A
:10131000FF90EF9008955F926F927F928F929F92CD
:10132000AF92BF92CF92DF92EF92FF920F931F93F3
:10133000CF93DF931F92CDB7DEB7512C58E0652EC7
:1013400061E6962E76EBC72E78E0D72EEEEDAE2E28
:10135000E8E0BE2EF4E58F2EA1E77A2E99828E0169
:101360000F5F1F4F21E041E063E0862D0E94B5062C
:101370008F3F79F5898186112CC00E945117FC019D
:10138000009779F117821682D186C086B386A2862D
:1013900080827182252D30E0F62CE12CC701820F6E
:1013A000931F93838283F90143E0EE0FFF1F4A9559
:1013B000E1F7E257FE4F10821182128213821482EB
:1013C000158216821782F901E255FE4F81E0808373
:1013D000539463948FE1681621F083E0851508F03B
:1013E000BDCF852D0F90DF91CF911F910F91FF9071
:1013F000EF90DF90CF90BF90AF909F908F907F90B5
:101400006F905F900895FC01228120FF11C084E05D
:10141000FB0180838091B2019091B301A091B4014E
:10142000B091B501FA0180839183A283B3830AC08E
:1014300082E0FB0180838091B6019091B701FA01AF
:101440009183808380E00895FC012281FA0120FFCE
:101450000DC080819181A281B3818093B20190936C
:10146000B301A093B401B093B50106C0808191810E
:101470009093B7018093B60180E008954F925F92F8
:101480006F927F928F929F92AF92BF92CF92DF9294
:10149000EF92FF920F931F93CF93DF93CDB7DEB7F9
:1014A00028970FB6F894DEBF0FBECDBF8091B8016C
:1014B0008D3011F080E030C18EE08093B8018091D2
:1014C000CD028090CE02912CA12CB12CBA2CA92C4B
:1014D000982C8824A82A8091CF02882AA5E0B69467
:1014E000A79497948794AA95D1F71092CC02C090B4
:1014F000CF01D090D001E090D101F090D20120EA4C
:10150000C21A2FE0D20AE108F108A7019601C7012B
:10151000B6010E940C1EDC01CB011CE0B595A7951D
:10152000979587951A95D1F789839A83AB83BC8366
:10153000A091C701B091C80129813A814B815C819A
:101540000E94651E2B013C01A091BB01B091BC0122
:10155000A70196010E94651E6D837E838F83988705
:101560000091B9011091BA01A091BD01B091BE01E5
:101570000E94651E6B017C018DE0F594E794D79481
:10158000C7948A95D1F7A091C501B091C601298170
:101590003A814B815C810E94651EBB2797FDB09507
:1015A000AB2FC80ED91EEA1EFB1E92E0C90ED11C3D
:1015B000E11CF11C32E0F594E794D794C7943A9576
:1015C000D1F7A0E8DA0EE11CF11CA091BF01B091A7
:1015D000C001A70196010E945A1E6B017C014FE0D9
:1015E000F694E794D794C7944A95D1F7C801AA27EF
:1015F00097FDA095BA2F52E0880F991FAA1FBB1F15
:101600005A95D1F76BE075946794579447946A950F
:10161000D1F72D813E814F8158857BE055954795C7
:10162000379527957A95D1F7420E531E641E751E85
:10163000840D951DA61DB71D880F991FAA1FBB1FDE
:10164000881A990AAA0ABB0AAAE6B8E1A501940178
:101650000E945A1E97FD0BC0660F771F881F991FA7
:10166000A70196010E941C1E49015A010AC0A70148
:1016700096010E941C1E49015A01880C991CAA1C43
:10168000BB1C9927B7FC9A958B2D7A2D692D9B0150
:10169000AC010E940C1E9B01AC01AEEDBBE00E94B0
:1016A0005A1E6C01FF24D7FCF094EF2CA3E4B3EE98
:1016B000A50194010E94681EBB2797FDB095AB2F32
:1016C000C80ED91EEA1EFB1E3FECC30E3EE0D31E21
:1016D000E11CF11C44E0F594E794D794C7944A9533
:1016E000D1F7C80CD91CEA1CFB1C8091B201909167
:1016F000B301A091B401B091B501C816D906EA06AC
:10170000FB0609F4D7CEC092B201D092B301E092A9
:10171000B401F092B50181E028960FB6F894DEBFCF
:101720000FBECDBFDF91CF911F910F91FF90EF9032
:10173000DF90CF90BF90AF909F908F907F906F90F1
:101740005F904F900895CF92DF92EF92FF920F93A8
:101750001F938091CC02807C79F08091B801811137
:1017600001C0C9C080E48093B8019091CC0296FF7B
:10177000C2C08093CC02BFC08091CC02837009F0BC
:10178000BAC08091B801843039F148F48130F9F061
:10179000B8F0823009F1833009F0A8C018C0883051
:1017A00009F497C030F4853001F1863009F09EC00D
:1017B00083C0893009F480C08B3009F097C089C09C
:1017C0008091CC0283FD97C081E08093B80184EFC3
:1017D0008093CD028EE273C086EF8093CD02E12C20
:1017E000F12C0DEC12E022E07CC09091CD0280E063
:1017F0002091CE02AC01422B9A0140E050E0809152
:10180000C3019091C401281B390B41095109A091D2
:10181000C101B091C2010E945A1E6B017C01FFE020
:10182000F594E794D794C794FA95D1F76091CB01DA
:101830007091CC01882777FD8095982FABE0660FDB
:10184000771F881F991FAA95D1F72091CD0130915C
:10185000CE01442737FD4095542F2C0D3D1D4E1DC4
:101860005F1D0E943E1E2C0D3D1D4E1D5F1D2093D1
:10187000CF013093D0014093D1015093D201BA01EE
:10188000A901485F5F4F6F4F7F4FB4E07595679533
:1018900057954795BA95D1F78091B6019091B701C8
:1018A0008417950719F186E08093B8015093B7012A
:1018B0004093B60181E020C084EF8093CD028093F5
:1018C000CE02E12CF12C0DEC12E020E042E06AE0C7
:1018D0000AC086EF8093CD02E12CF12C0DEC12E0D2
:1018E00023E041E06BE087E70E944E078091B8015A
:1018F0008F5F8093B80180E01F910F91FF90EF9070
:10190000DF90CF900895BF92CF92DF92EF92FF9237
:101910000F931F93CF93DF931F92CDB7DEB780ED68
:1019200089838E010F5F1F4F21E041E063E087E76D
:101930000E94B5068F3F09F0C2C08981853509F044
:10194000BEC08AEA90E09093BA018093B90109EB96
:1019500011E026E141E063E087E70E94B5061092BE
:10196000B8011092B7011092B6011092B201109214
:10197000B3011092B4011092B5018091B901909118
:10198000BA019827892798279093BA018093B901C3
:101990008091BB019091BC0198278927982790934B
:1019A000BC018093BB018091BD019091BE0198273D
:1019B000892798279093BE018093BD018091BF0134
:1019C0009091C0019827892798279093C001809310
:1019D000BF018091C1019091C20198278927982762
:1019E0009093C2018093C1018091C3019091C40181
:1019F0009827892798279093C4018093C3018091E9
:101A0000C5019091C6019827892798279093C60110
:101A10008093C5018091C7019091C80198278927BB
:101A200098279093C8018093C7018091C901909134
:101A3000CA019827892798279093CA018093C901E2
:101A40008091CB019091CC0198278927982790937A
:101A5000CC018093CB018091CD019091CE0198274C
:101A6000892798279093CE018093CD010E9451172A
:101A70008C01009721F183E0C82E8AE0D82EF8016E
:101A8000D782C68294E2E92E9AE0F92EF186E086AA
:101A900083EA9BE09387828724E5B22EB08287E7B2
:101AA000818380E097E7938382830E945117FC0132
:101AB000009739F48FEF9FEFF8019583848380E0DE
:101AC00010C0D782C682F186E0868EE39AE09387C3
:101AD0008287B08284E4818381E097E79383828365
:101AE00082E00F90DF91CF911F910F91FF90EF90C7
:101AF000DF90CF90BF900895FC01228120FF08C0A5
:101B000081E0FB0180838091D301FA0180830AC0C8
:101B100082E0FB0180838091D4019091D501FA018C
:101B20009183808380E00895FC012281FA0120FFE7
:101B300004C080818093D30106C0808191819093FD
:101B4000D5018093D40180E008958091D60187303B
:101B500011F080E0089588E08093D6018091D00252
:101B600024E0829FC00111249091D1029295969514
:101B700096959370982B1092CC028091D301981770
:101B800041F39093D30181E00895EF92FF920F9378
:101B90001F938091CC02807C79F08091D6018111D5
:101BA00001C059C080E48093D6019091CC0296FF89
:101BB00052C08093CC024FC08091CC02837009F058
:101BC0004AC08091D601813069F028F0843091F0CC
:101BD0008530E1F51AC08091CC0283FD3CC081E0E4
:101BE0008093D601E12CF12C00E010E020E040E0F1
:101BF0006AE007C0E12CF12C00ED12E024E040E0A7
:101C000069E087E20E944E0721C08091D002807C6B
:101C100011F084E01EC02091D30226952695809174
:101C2000D20230E4839FC0011124822B2091D40181
:101C30003091D5018217930749F09093D501809395
:101C4000D40186E08093D60181E006C08091D60160
:101C50008F5F8093D60180E01F910F91FF90EF90EE
:101C60000895DF92EF92FF920F931F93CF93DF932C
:101C700000E010E020E040E062E087E20E94B5066C
:101C80008F3F09F02DC01092D6011092D30110920F
:101C9000D5011092D4010E945117EC01009701F177
:101CA0008CE7E82E8DE0F82EFF82EE8204E91DE03D
:101CB0001987088785EC9DE09B878A8794E5D92E54
:101CC000D88287E7898380E097E29B838A830E949A
:101CD0005117FC01009731F48FEF9FEF9D838C83A8
:101CE00080E010C0F782E6821187008785EA9DE0D8
:101CF00093878287D08282E4818381E097E2938315
:101D0000828382E0DF91CF911F910F91FF90EF903E
:101D1000DF90089522E0DB012C93DC011296ED9117
:101D2000FC911397E770FF27EE0FFF1FE952FE4F5C
:101D300080819181FA019183808380E00895DC01A4
:101D40001296ED91FC911397E770FF27EE0FFF1F9E
:101D5000E952FE4FDA018D919C919183808380E05E
:101D60000895EF92FF920F931F93CF93DF93FC019F
:101D700082819381EC01C770DD272091CC02207C09
:101D800079F0C951DE4F8881811101C049C080E4DA
:101D900088839091CC0296FF43C08093CC0240C0D0
:101DA0002091CC022370E1F5FE01E951FE4F208124
:101DB000213061F028F02230B1F0233061F529C0E4
:101DC0002091CC0223FD2CC021E020831092D4026C
:101DD000E12CF12C04ED12E022E041E06BE0892FD0
:101DE0000E944E0718C09091D40280E02091D50245
:101DF000822B23E02083FE01EE0FFF1FE952FE4FEE
:101E0000208131818217930721F09183808381E0C3
:101E100008C01092CC02C951DE4F88818F5F888341
:101E200080E0DF91CF911F910F91FF90EF90089587
:101E30005F926F927F928F929F92AF92BF92CF925A
:101E4000DF92EF92FF920F931F93CF93DF93C8E43B
:101E5000D0E0512C9924939450E8852E6AE8E62E20
:101E60006EE0F62E7FE9C72E7EE0D72EE1EBAE2E98
:101E7000EEE0BE2EF4E57F2EA7E76A2E9092D40204
:101E80001092D50204ED12E020E042E062E08C2FD7
:101E90000E94B5068F3F09F5052D10E0F801E951C4
:101EA000FE4F8082F801EE0FFF1FE952FE4F1182B4
:101EB00010820E945117FC010097B1F0F782E68270
:101EC000D186C086B386A286708261823C2F22278B
:101ED000202B312B338322835394CF34D10521F02F
:101EE000219687E0851550F6852DDF91CF911F91C2
:101EF0000F91FF90EF90DF90CF90BF90AF909F90A9
:101F00008F907F906F905F90089522E0FB01208377
:101F1000FC01228120FF05C08091F0019091F10128
:101F200004C08091F2019091F301FA0191838083C2
:101F300080E00895FC012281FA018081918120FFD7
:101F400005C09093F1018093F00104C09093F301D8
:101F50008093F20180E008958091EF018E3011F0BE
:101F600080E008958FE08093EF011092CC022091E1
:101F7000D702269526958091D60230E4839FC00132
:101F80001124822B2091F2013091F30182179307E3
:101F900039F39093F3018093F20181E00895EF9279
:101FA000FF920F931F938091EF01811109C08091DF
:101FB000CC028B7C09F079C081E08093EF0113C0E3
:101FC0008091CC02807C51F080E48093EF0190916D
:101FD000CC0296FF6AC08093CC0267C08091CC028D
:101FE000837009F062C08091EF01883071F168F46C
:101FF0008330D9F020F4813009F052C011C086300E
:10200000C1F0873009F04CC050C08C3091F020F402
:10201000893009F045C034C08F3008F041C045C058
:1020200083E08093D60281E32FC08093D60281E0C3
:102030002BC01092D6028BE5E82E80E1F82E06ED3B
:1020400012E021E041E06BE028C089E08093EF01DD
:102050002091D70222952F708091D60230E1839F84
:10206000C0011124822B2091F0013091F1018217DF
:102070009307D9F09093F1018093F00181E016C0AD
:1020800083E08093D60281E18093D702E12CF12C8A
:1020900006ED12E020E042E06AE080E40E944E0794
:1020A0008091EF018F5F8093EF0180E01F910F918E
:1020B000FF90EF900895EF92FF920F931F938091FE
:1020C000D60280FF04C08091EF01815010C081E0F2
:1020D0008093D602E12CF12C06ED12E022E041E0E3
:1020E0006BE080E40E944E078091EF018F5F809348
:1020F000EF011F910F91FF90EF900895AF92BF9263
:10210000CF92DF92EF92FF920F931F93CF93DF93C3
:102110001F92CDB7DEB781E189838E010F5F1F4F1C
:1021200021E041E063E080E40E94B5068F3F09F0C2
:1021300037C089818035A1F51092EF011092F3012B
:102140001092F2011092F1011092F0010E945117C9
:102150008C01009729F195E8C92E9FE0D92EF8014E
:10216000D782C6822AE9E22E2FE0F22EF186E0869F
:102170008FEC9FE09387828734E5A32EA08247E50A
:10218000B42EB18281E090E4938382830E94511740
:10219000FC01009739F48FEF9FEFF801958384835A
:1021A00080E00FC0D782C682F186E0868CEA9FE08D
:1021B00093878287A082B18280E090E493838283B8
:1021C00082E00F90DF91CF911F910F91FF90EF90E0
:1021D000DF90CF90BF90AF900895E8EDF2E01192BC
:1021E000119282E0EC3EF807D1F70895E8EDF2E0B5
:1021F00080E090E021913191232B81F443E2489FCC
:102200009001499F300D112424513D4FFC01EE0FE8
:10221000FF1FE852FD4F3183208306C001968A30AC
:10222000910541F720E030E0C901089520E030E059
:1022300063E2629FA001639F500D112444515D4FE2
:102240008417950741F4F901EE0FFF1FE852FD4F87
:102250001182108208952F5F3F4F2A30310549F7D0
:10226000089580910E0290910F0201968F3F2FEFFB
:10227000920709F002C081E090E090930F028093F2
:102280000E0220910E0230910F02322723273227AF
:10229000C9010895E091FB012E2F2F5F243008F033
:1022A00024503091FA01231304C00E9416118FEFBD
:1022B0000895F0E0EE0FFF1FE450FE4F91838083FE
:1022C0002093FB0180E008951092FB011092FA0127
:1022D00010920502109204020E94ED101092F50176
:1022E0008FE38093F6011092F8011092F70183E0DA
:1022F0008093F90110920F0210920E028FEF8093DB
:1023000012020E943C170E94D11B8093F401089591
:102310000F931F93CF93DF931F92CDB7DEB78C013E
:10232000FC0182818C3031F4F80183818076803227
:1023300031F407C08231C1F38A30E9F502C080343C
:10234000D1F580910502282F2F5F243008F024500A
:10235000809104022817B9F129830E94F610AC017C
:102360002981009781F183E2F801DA0101900D9251
:102370008A95E1F7F80182818C3009F402C082313C
:1023800021F4FA01838180688383E09105028091C2
:102390000402E81307C01092F8011092F7018FE0D1
:1023A0008093F601F0E0EE0FFF1FEA5FFD4F5183CF
:1023B000408320930502C8010F90DF91CF911F91B8
:1023C0000F910C944A11C8010E9416118FEF0F90C3
:1023D000DF91CF911F910F91089520910402809178
:1023E0000502821741F1E22FF0E0EE0FFF1FEA5FD6
:1023F000FD4F808191812F5F209304020E9416116E
:1024000080910402843018F08450809304029091EB
:1024100005028091040298130BC0109205021092DD
:1024200004021092F8011092F7018FE38093F601F5
:1024300083E08093F901089581E02091FA01909161
:10244000FB01291301C080E00895E091FA01809119
:10245000FB01E81789F08E2F8F5F843008F402C0EB
:102460008E2F83508093FA01F0E0EE0FFF1FE450AF
:10247000FE4F2081318102C020E030E0C901089583
:10248000CF92DF92EF92FF920F931F93CF93DF9340
:1024900000D0CDB7DEB78C017901842F885F8432FC
:1024A000D0F54A8369830E94F6106C014A816981E4
:1024B000009789F18091F401D6018C93842F895F74
:1024C00011968C9311978CE012968C931297139619
:1024D0006C93139710270127102715961C930E93C2
:1024E00014974A830E943111F601978386833896A8
:1024F0004A8150E0B701CF010E949B1EC6010F9098
:102500000F90DF91CF911F910F91FF90EF90DF908F
:10251000CF900C9488118FEF0F900F90DF91CF9197
:102520001F910F91FF90EF90DF90CF900895EF9261
:10253000FF920F931F93CF93DF93E82E162FF42E65
:10254000052F862F8A5F843228F50E94F610EC0151
:10255000009701F18091F4018883812F8B5F89833B
:1025600082E18A83EB820E9431119D838C839E01DC
:102570002A5F3F4F412F50E06F2D702FC9010E94FD
:102580009B1ECE01DF91CF911F910F91FF90EF9095
:102590000C9488118FEFDF91CF911F910F91FF90D5
:1025A000EF900895DF92EF92FF920F931F93CF93D6
:1025B000DF938C01F62ED42EE52E862F895F843290
:1025C00050F50E94F610EC01009729F18091F4017A
:1025D00088838F2D8A5F89838AE08A831027012769
:1025E00010271C830B830E9431119E838D839E01D3
:1025F000295F3F4F4F2D50E06D2D7E2DC9010E9468
:102600009B1ECE01DF91CF911F910F91FF90EF9014
:10261000DF900C9488118FEFDF91CF911F910F9174
:10262000FF90EF90DF9008950C946411EF92FF9269
:102630000F931F93CF93DF939091F601992321F08D
:1026400091509093F601C1C09091F501992321F02A
:10265000913009F0BAC06DC08FE38093F60180918C
:10266000F7019091F801009731F001979093F801EC
:102670008093F701AAC08091F901882321F081504D
:102680008093F90104C0F894299A0C94000089E021
:1026900090E09093F8018093F7010E94F610EC010E
:1026A000009709F492C08091F401888380910E0212
:1026B00090910F02892B19F484E08B8301C01B8257
:1026C00081E08C8381E09CE29E838D837E0187E0A4
:1026D000E80EF11C84E189838E010F5F1F4F970183
:1026E000A80161E080E09FEF0E9464188981823038
:1026F000C8F486E089839701A80161E080EC9FEF30
:102700000E9464181981212F30E0CE01820F931F9F
:10271000FC014FE547831F5F198308960E943E1C0A
:10272000810F898389818A5F898384E08A83CE01CE
:1027300030C09FE39093F6012091F7013091F801AA
:102740002115310539F0215031093093F8012093DA
:10275000F7013BC09091F901992351F0915090936A
:10276000F9012091040290910502291315C003C0BC
:102770000E9464112AC0811128C00E94F61000979F
:1027800021F12091F401FC01208322E0218326E144
:1027900022830E944A1119C00E94F610009791F0FE
:1027A000E0910402F0E0EE0FFF1FEA5FFD4F0190A1
:1027B000F081E02D23E2DC0101900D922A95E1F7F2
:1027C0000E944A118FE08093F60180E0DF91CF9163
:1027D0001F910F91FF90EF9008950F931F93CF9348
:1027E000DF93EC018A818C3009F4A0C070F485304D
:1027F00019F120F4813009F02AC116C08A3009F499
:1028000055C08B3009F023C170C0833109F4EEC08C
:1028100020F48D3009F01BC1CDC0873109F4FCC014
:10282000883109F014C10FC183E0898382E08A8373
:102830000E94D11B8B83BAC08091F501811107C121
:102840008FE38093F6018B818111FDC081E080933D
:10285000F5011092F8011092F70183E08093F901DD
:10286000109211021092100280910E0290910F02AC
:10287000892B09F0ECC00E94D11B8F3F09F4E7C0FF
:1028800086E189838E010D5F1F4FAE014F5F5F4F61
:10289000980161E080EC9FEF0E94641898014981E3
:1028A00061E280EC9FEF0E944012D1C08091F5015F
:1028B000882309F4CCC08D819E8198278927982789
:1028C00020911002309111028217930749F09093E2
:1028D000110280931002CE010E946E1780931202A3
:1028E00087E089838BE08A835EC08091F501813027
:1028F00009F0ADC0E0910402F0E0EE0FFF1FEA5FC7
:10290000FD4F0190F081E02D82818A3009F09FC057
:102910008F81811106C08B819C81982789279827F8
:1029200002C080E090E00E944F185DC08091F501E8
:10293000813009F08CC08FE38093F60183E08093AF
:10294000F9018E819F81982789279827209110026D
:10295000309111028217930709F47BC09093110202
:10296000809310029E01285F3F4F498147506B8141
:1029700060688C819D819827892798270E94DD189F
:10298000809312028B818076803209F060C087E0EC
:1029900089838DE08A838C819D819C838B838E814A
:1029A0009F819E838D83809112028F83CE010E942E
:1029B0004A114BC08091F501813009F048C0E09187
:1029C0000402F0E0EE0FFF1FEA5FFD4F0190F0817F
:1029D000E02D82818C30D9F5268137818D819E81D1
:1029E00028173907A1F50E94ED1131C08091F5013A
:1029F000813069F5E0910402F0E0EE0FFF1FEA5F1D
:102A0000FD4F0190F081E02D8281823101F524811A
:102A100035818E819F81E4CF8091F5018130B9F4B9
:102A20009091FA018091FB01981311C08CE291E022
:102A30009093F8018093F70183E08093F9018FE38D
:102A40008093F60104C00E94641181E006C080E01A
:102A500004C08B8187FFFBCF95CFDF91CF911F9172
:102A60000F9108958091F50108951F92CDB7DEB7BB
:102A7000F894A89588E10FB6F894809360001092BE
:102A800060000FBE80E880BF83EA809364000E94EC
:102A9000ED100E941F198CE090E00E94721D0E94B0
:102AA00014130E94711B1092130280E28093B600EF
:102AB00082E08093B0001092B2009FE39093B30045
:102AC00087BB809370008AE08093B1008091B6004C
:102AD0008F71E1F783B7817F83BF78940FEF1FEF8A
:102AE000C12CD12C87E1A82E0E94981D7C01009753
:102AF00021F1FC01B0800E94D11BB81209C0C701AE
:102B00000E94ED13811119C0C7010E94161115C052
:102B1000BB2029F00E943215813079F406C0C7012C
:102B20000E94ED138823B1F308C0C114D10409F445
:102B30006EC0C6010E9416116AC0C114D10449F0CA
:102B40000E94E11B882329F0C6010E94F51BC12CBD
:102B5000D12C0E94D41B7C01009759F00E943215A1
:102B6000813021F4C7010E94AA1D03C0C7010E9441
:102B700016110E941C12882321F00E9425120E9427
:102B8000AA1D8091130280FF3AC0809113028E7FAC
:102B9000809313020E942A1C0E943215898381307F
:102BA00029F50F3FFFEF1F0741F480E00E94BA199B
:102BB0008C010F3F8FEF1807C9F00E94F6107C01BF
:102BC0000097A1F0A9829C01AE014F5F5F4F60E8C2
:102BD000C8010E9464189701498160E2C8010E94FF
:102BE0004012C7010E9416110FEF1FEF81E00F3F47
:102BF0009FEF190709F480E00E941613898383B7B9
:102C0000816083BF889583B78E7F83BF6DCF670157
:102C100097CF1F920F920FB60F9211242F938F937D
:102C20009F938091130281FF1AC08091840090913C
:102C30008500109281008B3B2CE3920720F4809159
:102C400066008F5F06C088359D4328F0809166003E
:102C5000815080936600809113028D7F0AC010928C
:102C600085001092840082E080938100809113029D
:102C7000826080931302809113028160809313021B
:102C80009F918F912F910F900FBE0F901F901895CD
:102C9000DC012C912F34C1F028F4213441F0293487
:102CA00041F412C0203591F0233519F40DC082E0B3
:102CB0000895DC011196EC91E254E63328F4F0E03B
:102CC000E45FFE4F8081089580E0089581E00895DB
:102CD000FF920F931F93CF93DF938C0161111EC05E
:102CE000E8E1F2E040E050E012C08017910749F4BB
:102CF0008CE0849F9001859F300D11242C5E3D4F08
:102D000031C04F5F5F4F3C964C30510549F1808197
:102D100091818F3F2FEF920741F722C0613001F57B
:102D2000C0E0D0E08CE0F82EFC9EB001FD9E700D5E
:102D3000112468587F4F4CE050E086EA92E00E94F0
:102D4000851E8091AA029091AB028017910729F00D
:102D50002196C530D10541F703C026EA32E002C012
:102D600020E030E0C901DF91CF911F910F91FF90DA
:102D70000895BF92CF92DF92EF92FF920F931F932D
:102D8000CF93DF9300D000D0CDB7DEB7B82E00E0F0
:102D900010E0C82ED12C8CE0B89E7001112484E183
:102DA00092E0E80EF91EBE016F5F7F4FC8010E94DE
:102DB000980044E050E0B701CE0101960E948E1EBB
:102DC000009771F48FEF89838A838FEF9FEF9C8345
:102DD0008B83BE016F5F7F4FC8010E949F0006C0BA
:102DE0000C5F1F4F90E000331907E9F62CE02C9D93
:102DF000C0012D9D900D11248C5E9D4F0E94BF013E
:102E00006CE00DC0629FD001639FB00D1124AC5ED9
:102E1000BD4F862F01900D928A95E1F7B3948AE019
:102E20008B1558F49CE0B99EF0011124EC5EFD4F27
:102E30008FEF9FEF9583848311C02B2D30E0C90164
:102E40000196689FF001699FF00D1124EC5EFD4F23
:102E5000448155814F3F5F4FA9F6E4CF0F900F900B
:102E60000F900F90DF91CF911F910F91FF90EF90F6
:102E7000DF90CF90BF9008951092A4028FE38093CB
:102E8000A502E8E1F2E080819181019611F40C94B1
:102E9000071B118210823C9682E0E83AF80799F706
:102EA000F6CFE8E1F2E020E030E080819181019608
:102EB00059F48CE0829FF001839FF00D1124EC5EA9
:102EC000FD4F1582148208C02F5F3F4F3C962C3077
:102ED000310559F7E0E0F0E0CF0108956F927F925D
:102EE0008F929F92AF92BF92CF92DF92EF92FF921A
:102EF0000F931F93CF93DF93CDB7DEB728970FB60D
:102F0000F894DEBF0FBECDBF8C01FC0187818D839D
:102F100080858E83918120E030E03996402F409566
:102F20005AE01CC08191682F60536A3068F038877E
:102F30002F834E01F5E08F0E911CC4010E94AD015C
:102F4000B82E882381F095C0B901569F9001579FF4
:102F5000300D112420533109280F311D842F8E0F7D
:102F6000891700F3E4CFF801E380F480FE24EF2416
:102F7000FE2428E1C22E22E0D22E00E010E03CE048
:102F8000A32E782C692C20C0A09EB001A19E700DAC
:102F900011246C5E7D4F44E050E0872D962D0E94F9
:102FA0008E1E009709F463C08E149F0421F4E1146F
:102FB000F10409F055C00F5F1F4FFCE0CF0ED11C8C
:102FC0000C30110509F44CC0F60180809180FFEFB0
:102FD0008F169F06C9F647C08CE0809F6001819FD5
:102FE000D00C112464E172E0C60ED71E4D815E81C3
:102FF0006F817885F6014083518362837383C601B4
:103000000E949B0181112CC0F601F582E48200E050
:1030100010E0BE016F5F7F4FC8010E94980044E03E
:1030200050E0BE016F5F7F4FCE0105960E948E1E5D
:103030000097F9F0898181508E3F38F0BE016B5FB7
:103040007F4FC8010E949F0014C00C5F1F4FF0E02B
:1030500000331F07F1F60DC0802F0E94B91609C07A
:1030600092E0B92E06C0E114F104D1F3B5CFEF28F8
:1030700099F38B2D28960FB6F894DEBF0FBECDBF07
:10308000DF91CF911F910F91FF90EF90DF90CF9044
:10309000BF90AF909F908F907F906F900895E09138
:1030A000A402009749F02CE0E29FF0011124EC5EAD
:1030B000FD4F958384830895EC3018F48E2F0E9481
:1030C000B9161092A4020895AF92BF92DF92EF92C8
:1030D000FF920F931F93CF93DF931F92CDB7DEB76D
:1030E000D62E7A01890163700E9468165C010097F0
:1030F00009F454C0DC011696ED91FC9117973097B6
:1031000009F44EC0A801B7010995482FD7FE49C060
:10311000811147C0C50149830E944816498187FF34
:103120001DC08F7718C09801280F311DF901319704
:103130009081911108C0F9013297908197FF0AC0E0
:10314000F70180832EC09F3FD9F7F9013297908114
:1031500097FFF6CF8150823030F7F2CF882309F104
:10316000F801E80FF11DDF0111979C9197FF04C052
:1031700010828F5F10C08150813069F09801280F54
:10318000311DF90131979081911105C0F9013297F4
:10319000908197FFF0CFD7018C9303C042E001C02C
:1031A00043E0842F0F90DF91CF911F910F91FF90FB
:1031B000EF90DF90BF90AF900895EF92FF920F9342
:1031C0001F93CF93DF93E62EF42E890163700E9444
:1031D0006816EC01009749F188859985892B39F1AA
:1031E000E7FE17C0CE010E9448168F77F81678F4D4
:1031F000F801EF0DF11D31979081990F990BF801AE
:10320000EF0DF11D9083F394F812F9CF02C08111F4
:10321000F82EE885F985A8016F2DCE01DF91CF91B9
:103220001F910F91FF90EF90099482E001C083E01D
:10323000DF91CF911F910F91FF90EF900895EF9242
:10324000FF920F931F93CF93DF9300D000D0CDB7A1
:10325000DEB781E08B839E012C5F3F4FAE014D5F57
:103260005F4F61E080E09FEF0E9464188C818F3F88
:10327000B9F51C829E012C5F3F4F40E061E080E089
:103280009FEF0E94DD1887E08C839E012C5F3F4FEB
:1032900041E061E080E19FEF0E94DD181C829E0109
:1032A0002C5F3F4F40E061E080E09FEF0E94DD181F
:1032B00084ED9DE29A8389839E012F5F3F4F42E018
:1032C00061E081E19FEF0E94DD188CE08C839E011C
:1032D0002C5F3F4F41E061E082E19FEF0E94DD18EB
:1032E00020E03CE08FEF9FEF329FF0011124EC5E75
:1032F000FD4F958384832F5F2C30B0F32C83109285
:10330000A4028FE38093A5020E9493011C82F12CFA
:103310004CE0E42E1FC0EF9C800111240C5E1D4F79
:1033200024E0829FC0011124B801805090400E9487
:103330009800F801808181508E3F48F4C8010E94B6
:103340009B01811104C0F80115821482F3948C81D1
:103350008F5F8C838C818C30F0F20E9499010F90EA
:103360000F900F900F90DF91CF911F910F91FF90D1
:10337000EF900895DF92EF92FF920F931F93CF93F8
:10338000DF931F92CDB7DEB7E82E882309F444C03F
:103390001092A40241C00115110541F50E94F610DA
:1033A0008C01009709F462C08091A402F89EC001CC
:1033B0001124B8018C5E9D4F0E94D0018983A80121
:1033C000682F80E090E00E94D21281110BC0E09142
:1033D000A402FE9EF0011124EC5EFD4F80E090EF10
:1033E00095838483C8010E94161140C0011580EFA7
:1033F0001807E1F11A96ED91FC911B97309731F483
:103400009091A4029F5F9093A40208C06E2DCD01FD
:1034100009958823A9F32CC06CE0D62EA091A402B4
:10342000AC3080F45CE0F52EDA9ED0011124AC5E65
:10343000BD4F14960D911C9115970F3F8FEF1807F4
:1034400009F0A9CF1092A4028091A502882371F0FF
:1034500081508093A502811109C083E28983AE0166
:103460004F5F5F4F61E080E20E9497120FEF1FEF06
:10347000C8010F90DF91CF911F910F91FF90EF90B6
:10348000DF9008952A981C99FECF8EBD0DB407FEDB
:10349000FDCF2A9A08952A981C99FECF8EBD0DB4AF
:1034A00007FEFDCF6EBD0DB407FEFDCF2A9A08952D
:1034B0001EBC0DB407FEFDCF8EB508952A981C9949
:1034C000FECF8EBD0DB407FEFDCF0E94581A2A9A7A
:1034D00008951F920F920FB60F921124EF92FF9250
:1034E0000F931F932F933F934F935F936F937F930C
:1034F0008F939F93AF93BF93CF93DF93EF93FF93FC
:1035000085EF0E945E1A9091B202953061F097307B
:1035100009F450C0933009F051C08D3009F04EC00D
:10352000299A85E05BC0813009F048C08BEF0E948A
:103530005E1AC82F8BEF0E945E1AC813FACF2C2F89
:103540002F7730E027303105CCF1C7FD37C0C232CC
:10355000A8F58CEFF82EFC0E0E94F610EC010097F7
:1035600069F12A981C99FECF8FEF8EBD0DB407FE2E
:10357000FDCF0E94581A0E94581AEC2E0C2F1D2FB6
:1035800005C00E94581AF80181938F01802F8E196F
:103590008F15B8F30E94581A0E94581A2A9A87FF6A
:1035A00005C0D093B402C093B30208C0CE010E94FC
:1035B000161104C0833111F488E010C085B18C7FEE
:1035C00085B986E30E94421A8BE30E94421A8AE37D
:1035D0000E94421A84E30E94421A83E08093B2025E
:1035E000FF91EF91DF91CF91BF91AF919F918F911B
:1035F0007F916F915F914F913F912F911F910F910B
:10360000FF90EF900F900FBE0F901F901895CF93E3
:10361000DF9300D000D01F92CDB7DEB782E08B835E
:103620009E012F5F3F4FAE014D5F5F4F61E081E133
:103630009FEF0E9464189E012C5F3F4FAE014D5FCB
:103640005F4F61E080E19FEF0E9464189E012B5F55
:103650003F4FAE014D5F5F4F61E082E19FEF0E94FF
:1036600064182091B5023091B6022115310569F038
:1036700089819A812817390741F0692F84E00E94D7
:103680004B1A698185E00E944B1A89819A81909337
:10369000B6028093B5028091B702882331F06C8125
:1036A000861719F089E00E944B1A8C818093B7022B
:1036B0006D816695669566956D83809100018F3F5B
:1036C00029F0861719F08AE00E944B1A8D818093A9
:1036D00000010F900F900F900F900F90DF91CF91FE
:1036E0000895CF93DF931DBA84E185B98FE284B941
:1036F00080E58CBD81E08DBD52985A9A8093690017
:103700008DE08A95F1F700002A988AE18A95F1F711
:1037100000C02A9A8AE68A95F1F700C02A981C9977
:10372000FECF80E38EBD0DB407FEFDCF1C99FECF0A
:103730002A9AC0E0D0E0CE01880F991FFC01E05426
:10374000FF4F6491FC01E154FF4F84910E944B1A9A
:103750002196C931D10579F7C091B5026091B602C1
:1037600084E00E944B1A6C2F85E00E944B1A6091F6
:10377000B70289E00E944B1A609100018AE00E9422
:103780004B1A60E58EE30E944B1A82E08093B202EE
:103790001092B4021092B30281E08DBBDF91CF9101
:1037A00008958091B70208952091B3023091B40238
:1037B0002115310521F01092B4021092B302C90113
:1037C00008958091B202833011F080E0089588EF6F
:1037D0000E945E1A84FFF9CF289A86E30E94421A5B
:1037E0008BE30E94421A81E00895FC0141819C0113
:1037F0002F5F3F4F2A981C99FECF5FE75EBD0DB447
:1038000007FEFDCF542F5E5F5EBD0DB407FEFDCFFA
:10381000FC0150815EBD0DB407FEFDCF5091B70293
:103820005EBD0DB407FEFDCF522FF90105C02191F9
:103830002EBD0DB407FEFDCF2E2F251B2417B8F388
:103840002A9A0E94161185E30E94421A87E080930B
:10385000B20208958091B202823079F486E30E9428
:10386000421A8BE30E94421A8AE30E94421A84E3BE
:103870000E94421A83E08093B20208956091B702D9
:103880000E94C61D82E008951F920F920FB60F92FC
:1038900011242F933F934F935F936F937F938F9355
:1038A0009F93AF93BF93CF93EF93FF93C091C600C5
:1038B0008091BA0290910101C03CF1F489130EC0CD
:1038C0008091BB029091BC029093BE028093BD0296
:1038D0008091B80284608093B80208C0833030F0D1
:1038E0008091BB029091BC020E9416111092BA0204
:1038F00082E08093010140C08917F0F5CB3D31F49F
:103900008091B80281608093B80236C09091B8026D
:1039100090FF07C09091B8029E7F9093B80290E20A
:10392000C927811104C0C093BF0281E023C0813048
:10393000C9F48C2F82508F3198F48D5F80930101F0
:103940000E94F610009709F40BC09093BC0280937C
:10395000BB022091BF02FC012083C18382E00AC028
:103960008FEF08C0E091BB02F091BC02E80FF11D9F
:10397000C0838F5F8093BA02FF91EF91CF91BF9187
:10398000AF919F918F917F916F915F914F913F91F7
:103990002F910F900FBE0F901F9018951F920F92AE
:1039A0000FB60F9211242F933F934F935F936F9312
:1039B0007F938F939F93AF93BF93EF93FF938091E8
:1039C00002019091C002891770F5E091B902F0E010
:1039D000EE0FFF1FEF53FD4F0190F081E02DE80F38
:1039E000F11D90812091B80221FF0AC02091B802F8
:1039F0002D7F2093B80220E229272093C6000FC014
:103A0000903C11F09B3D49F48BED8093C600809172
:103A1000B80282608093B80254C09093C6008F5F52
:103A2000809302014EC0891320C080EC8093C600B1
:103A30008FEF809302011092C002E091B902F0E092
:103A4000EE0FFF1FEF53FD4F808191810E941611F1
:103A50008091B9028F5F8093B902843090F1809198
:103A6000B90284508093B9022CC09091B902809120
:103A7000C902981308C08091C1008F7D8093C10056
:103A80001092C0021EC081E080930201E091B90251
:103A9000F0E0EE0FFF1FEF53FD4F0190F081E02D9E
:103AA00081818F5F8093C002E091B902F0E0EE0F58
:103AB000FF1FEF53FD4F0190F081E02D8081809337
:103AC000C600FF91EF91BF91AF919F918F917F9130
:103AD0006F915F914F913F912F910F900FBE0F907B
:103AE0001F901895209164002D7F209364002BB1C6
:103AF00023602BB9519A50989C012227307F232BA9
:103B000031F09F702091C00022602093C0009093FC
:103B1000C5008093C40088E98093C10086E080934B
:103B2000C2001092B9021092C9021092B802089510
:103B30008091B80282FF0AC08091B8028B7F809387
:103B4000B8022091BD023091BE0202C020E030E0F8
:103B5000C9010895E091C9022E2F2F5F243008F08B
:103B600024503091B902231302C00C941611F0E0D6
:103B7000EE0FFF1FEF53FD4F918380832093C90207
:103B80008091C10080628093C1000895262F229504
:103B90002F702A3010F0295C01C0205DFC012083C9
:103BA0006F706A3010F0695C01C0605DFC01618378
:103BB00082E00895FC0181E020E137E240E090E0FE
:103BC00004C0621B730B9F5F41E062177307C8F765
:103BD000283E53E0350789F0203157E2350721F0C0
:103BE0002436310539F403C028EE33E008C02AE05A
:103BF00030E005C021E030E002C024E630E044239C
:103C000029F0905D91938F5F41E090E02A3031057B
:103C1000E0F6605D60830895DB018F939F930E94BF
:103C20005A1EBF91AF91A29F800D911DA39F900D31
:103C3000B29F900D11240895A1E21A2EAA1BBB1B5E
:103C4000FD010DC0AA1FBB1FEE1FFF1FA217B30768
:103C5000E407F50720F0A21BB30BE40BF50B661F7E
:103C6000771F881F991F1A9469F760957095809542
:103C700090959B01AC01BD01CF010895052E97FBE6
:103C800016F4009407D057FD0DD00E941C1E07FCAF
:103C900009D07EF490958095709561957F4F8F4FF8
:103CA0009F4F089550954095309521953F4F4F4F28
:103CB0005F4F08950E94791EA59F900DB49F900DAF
:103CC000A49F800D911D11240895B7FF0C945A1ED6
:103CD0000E945A1E821B930B08950024A7FD009496
:103CE0002A173005400550056005700580059005D0
:103CF0000895A29FB001B39FC001A39F01D0B29FBE
:103D0000700D811D1124911D0895FB01DC0102C07D
:103D100005900D9241505040D8F70895FB01DC0109
:103D200004C08D910190801921F441505040C8F792
:103D3000881B990B0895FB01DC0102C001900D92D4
:103D400041505040D8F70895DC01CB01FC01F999AE
:103D5000FECF06C0F2BDE1BDF89A319600B40D92D7
:103D600041505040B8F70895F999FECF92BD81BDFA
:103D7000F89A992780B50895DC01CB0103C02D91F5
:103D80000E94C71E41505040D0F70895262FF99940
:103D9000FECF1FBA92BD81BD20BD0FB6F894FA9A2E
:0C3DA000F99A0FBE01960895F894FFCF29
:103DAC00FF02FF00FFFFFFFFFFFFFF010100040008
:103DBC0000000000000000000000000000000000F7
:103DCC000002000000000000000000000000840061
:103DDC00000000000000000000000088000000004F
:023DEC00008253
:00000001FF
