:100000005FC000000C94AE1978C0000076C00000FC
:1000100074C0000072C0000070C000000C9466152F
:100020006CC000006AC0000068C0000066C000002C
:1000300064C0000062C0000060C000005EC000003C
:100040005CC000005AC000000C94E21B0C946C1CB5
:1000500054C0000034C2000050C000004EC0000078
:10006000F6C600004AC00000000102030405FFFFBD
:10007000FFFFFFFFFFFF06FF4573300000FF8C000E
:10008000320100004542470010FF8C0032010000A1
:100090004557490011FF8C003201000045424600DF
:1000A00012FF8C00320100004673B400C0FFD7007D
:1000B000000000000A47574A4E76362E323534008B
:1000C00011241FBECFEFD8E0DEBFCDBF11E0A0E00E
:1000D000B1E0ECEDFCE302C005900D92A234B10753
:1000E000D9F724E0A2E4B1E001C01D92A634B20722
:1000F000E1F70E94B2140C946C1E82CF9C01CB01DC
:1001000044E050E0B9010C943D1E9C01CB0144E059
:1001100050E0B9010C94551EEF92FF920F931F937C
:10012000CF93DF93EB017A01FC010281138181817E
:100130008236B1F058F48434E9F018F4823479F559
:100140000FC08735A9F0813651F517C08337A9F064
:1001500018F4843621F50EC0873751F08A37F9F448
:1001600081E08883C8010E944D1EF701808315C07D
:1001700082E001C084E088830AC0C8010E944D1E4D
:100180009881981708F4892F88830F5F1F4F488143
:1001900050E0B801C7010E943D1E80E001C083E02D
:1001A000DF91CF911F910F91FF90EF9008950F93E2
:1001B0001F93CF93DF93EB01DA01FC01628173811E
:1001C00081818236D1F068F4843431F120F48234B4
:1001D00009F042C012C08735B1F0813609F03CC049
:1001E0002DC0833759F120F4843609F035C014C08E
:1001F000873749F08A3709F02FC081E08883FB01F7
:1002000064916C9319C082E08883FB01859194917D
:100210008C9311969C9310C084E08883FB01059118
:100220001591259134910C9311961C931197129668
:100230002C93129713963C9380E00FC0FB0114910E
:100240008881811708F4182F6F5F7F4F412F50E08E
:10025000CD010E941E1E188383E0DF91CF911F9174
:100260000F910895EF92FF920F931F93CF93DF9317
:100270001F92CDB7DEB7FC01262F8A01E280F38002
:1002800081818236B1F058F48434A9F018F48234B4
:1002900039F50FC08735D9F0813611F50EC0833797
:1002A00061F018F48436E1F406C0873781F08A37AC
:1002B000B9F421E00DC024E00BC0622FC7012983EF
:1002C0000E945E1E8FEFE81AF80A298101C022E021
:1002D000422F50E0B701C8010E94551E80E001C0C6
:1002E00083E00F90DF91CF911F910F91FF90EF90DE
:1002F00008955DD199D358C663C6FC012081293485
:1003000049F018F4213439F404C02F54223018F481
:1003100001C096C1B7C383E00895FC012081293450
:1003200049F018F4213439F404C02F54223018F461
:1003300001C060C186C383E00895FC012081293497
:1003400049F018F4213439F404C02F54223018F441
:1003500001C0BBC10FC40895FC018081DB018C93F7
:10036000818111968C93CB010296628173812081E9
:10037000213411F46F7077270E94781D8E5F0895E5
:100380008F7021E030E002C0220F331F8150E0F770
:10039000C90108958F70992788599F4FFC01849156
:1003A0000895FC0182819381F5DF9091640090FFB4
:1003B00015C09FEF90934501909342019091640086
:1003C0009E7F909364009FE090937C009FE99093C0
:1003D0007A0090917A00906490937A00E82FF0E090
:1003E000DF01A759BE4F8C9181508C93811119C0A8
:1003F000EE0FFF1FDF01AA5BBE4F2D913C91285FDE
:100400003F4F44E0369527954A95E1F7E55AFE4F70
:10041000808191818217930721F03183208381E0CD
:10042000089580E00895CF93DF93EA01FC01828173
:100430009381B0DF90E0FC01EE0FFF1FE55AFE4F05
:100440002881398131832083FC01E759FE4F21E067
:10045000208380E0DF91CF9108950F931F93CF9376
:10046000DF938B01EA01FC018281938193DF92E0AB
:10047000F8019083E82FF0E0EE0FFF1FE55AFE4FE2
:10048000808191819983888380E0DF91CF911F9152
:100490000F910895CF93DF937DDF8F3F61F0C0917F
:1004A000C602D091C7026CDFC823D92381E0CD2BCF
:1004B00019F480E001C082E0DF91CF9108951F928E
:1004C0000F920FB60F9211242F933F934F938F9358
:1004D0009F93EF93FF9320917800309179004091A2
:1004E0004201403170F58091430190914401820FA7
:1004F000931F9093440180934301411134C0209194
:100500007C002F3059F0E0914501E73038F4F0E0FD
:10051000EE0FFF1FEA5BFE4F9183808380914501C0
:100520008F5F01C0822F873048F5282F2F5FE82F7B
:10053000F0E0EC5AFE4F90819F30A1F3809345018B
:1005400012C0403F81F41092440110924301E091A7
:100550004501E73028F4F0E0EC5AFE4F808101C0FD
:100560008FE080937C008091420181508093420112
:1005700080917A00806580937A000DC08093450158
:1005800080E180937A008FE080937C00809164000A
:10059000816080936400FF91EF919F918F914F91C3
:1005A0003F912F910F900FBE0F901F90189580E1F3
:1005B00080937A008FE080937C00E4E6F0E0908105
:1005C000916090831092C7021092C602109245016A
:1005D0009FEF909342018093540180935501809343
:1005E000560180935701809358018093590180935D
:1005F0005A0108950F931F93CF93DF938C01FC0151
:10060000C281D381C031D105A8F4CE0143DF82304D
:1006100089F0F8018181893629F0863729F08536FD
:1006200049F403C0C06C01C0C064F801D383C28325
:1006300080E001C083E0DF91CF911F910F91089579
:100640000F931F93CF93DF93EC011A810B81812FBE
:10065000902F20DF811133C0812F902F9BDE2DE260
:1006600032E03F832E8323E132E03987288721ED72
:1006700031E03B872A87282F30E0F901E759FE4F08
:100680001082A901440F551FFA01E55AFE4F11824D
:100690001082FA01EA5BFE4F11821082F901EC5AD6
:1006A000FE4F1083C091C602D091C70269DE8C2B29
:1006B0009D2B9093C7028093C60280E001C082E028
:1006C000DF91CF911F910F9108951F93CF93DF93E7
:1006D000FC01C281D381CE01DDDE813019F5CE016E
:1006E00059DE182FC091C602D091C70249DE80950D
:1006F00090958C239D239093C7028093C602892BEB
:1007000059F480E180937A008FE080937C0090918F
:100710006400916090936400E12FF0E0EC5AFE4F8A
:100720008FE08083DF91CF911F910895887F992773
:1007300040978930910528F4FC01EE5FFE4F8081DF
:1007400008958FEF08959C012770332781E001C041
:10075000880F21503109E0F708950F931F93CF932D
:10076000DF931F92CDB7DEB78C016983ECDF087F82
:10077000112769810031110521F008311105A1F41B
:100780000AC098B1662319F0982B98B90DC08095CE
:10079000892388B909C09BB1662319F0982B9BB9AE
:1007A00003C0809589238BB90F90DF91CF911F9162
:1007B0000F9108950F931F93CF93DF931F92CDB79F
:1007C000DEB78C016983BFDF087F112769810031A3
:1007D000110521F008311105A1F40AC097B1662373
:1007E00019F0982B97B90DC08095892387B909C056
:1007F0009AB1662319F0982B9AB903C08095892382
:100800008AB90F90DF91CF911F910F9108950F93A7
:100810001F93CF93DF93FC01C281D381DA011C9136
:1008200080819181893499F4CE0180DF082FCE0137
:100830008ADFE02FF0E0EE58FE4F112319F090818F
:10084000982B03C0809590819823908319C08F3492
:1008500041F49E3609F41095612F6170CE017DDF61
:100860000FC0803569F49E3609F4109581E090E060
:100870006D9711F480E090E0FC01EA58FE4F108380
:1008800080E0DF91CF911F910F9108951F93CF9337
:10089000DF93EC0158DF182F9E01287F332720318A
:1008A000310521F02831310591F402C0807C01C06E
:1008B000877081110CC0CE0139DFE82FF0E0E059DC
:1008C000FE4F9081912381E019F480E001C082E025
:1008D000DF91CF911F910895887F992780319105ED
:1008E00019F0489729F402C086B1089589B1089596
:1008F00080E00895FF920F931F93CF93DF93FC0145
:10090000C281D3818081F180893439F5CE01E4DF61
:10091000182FCE010BDF082FCE0115DF982F8EE6A2
:10092000F81201C010951923E02FF0E0DF01AC5858
:10093000BE4F8C91282F2923121719F098279C93CA
:1009400041C0EE58FE4F8081282F2923121301C089
:1009500039C09827908381E036C0803599F5CD3134
:10096000D105C1F468B580917601681759F18617F1
:1009700010F4615001C06F5F68BD862F81508E3FBB
:1009800030F084B58F7D84BD8DE190E016C084B5D4
:10099000806217C067B580917701681799F0861754
:1009A00010F4615001C06F5F67BD862F81508E3F8C
:1009B00030F084B58F7784BDCE01CFDE03C084B51F
:1009C000806884BD80E0DF91CF911F910F91FF90EF
:1009D0000895BF92CF92DF92EF92FF920F931F93F1
:1009E000CF93DF93EC016B017A010A811B81C8016F
:1009F00073DFB82E89818E3609F4B09481E0F60158
:100A00008083C801A0DE8B2191E009F490E0F7011A
:100A1000908380E0DF91CF911F910F91FF90EF9035
:100A2000DF90CF90BF9008951092700110927201E4
:100A3000109274011092710110927301109275015D
:100A400008950F931F93CF93DF93EC010A811B81CD
:100A5000C8011CDF823081F089818E3611F0803729
:100A600059F48881803511F080E007C00D311105FF
:100A7000D9F30E311105C1F383E0DF91CF911F91BE
:100A80000F910895DF92EF92FF920F931F93CF93F0
:100A9000DF938C01FC01C281D381CE01F7DE882374
:100AA00011F082E05FC0CE0141DED82E811113C06B
:100AB000CE01F0DC8130A9F381110DC0E090C602B7
:100AC000F090C702CE0166DC5BDC8E299F299093F3
:100AD000C7028093C602CE0136DE2D2D30E0F9012B
:100AE000E059FE4F9081982B90838095F901EE5844
:100AF000FE4F908198239083F901EC58FE4F90812E
:100B000098239083F80180818F3411F461E013C041
:100B1000803581F461E0CE014DDE84B5807A69F4E0
:100B2000809164008F7D8093640083E084BD84E0C5
:100B300085BD03C060E0CE013DDEF80181818E36C7
:100B400019F461E0CE0109DE89EE94E0F8019783A3
:100B5000868387E094E0918780878AE794E0938793
:100B6000828780E0DF91CF911F910F91FF90EF90EE
:100B7000DF900895EF92FF920F931F93CF93DF932F
:100B80008C01FC01C281D381CE01D0DDF82ECE01D3
:100B9000DADD2F2D30E08095F901E059FE4F90818C
:100BA00098239083F901EE58FE4F9081982390830B
:100BB000F901EC58FE4F908198239083F11013C0F7
:100BC000CE0168DC813079F4E090C602F090C70273
:100BD000CE01E0DBD5DB809590958E219F2190930F
:100BE000C7028093C602F80180818035A1F482811A
:100BF00093814D9719F484B58F7D02C084B58F77AA
:100C000084BD84B5807A39F414BC15BC809164002D
:100C100080628093640060E0CE019FDD60E0CE01E1
:100C2000DF91CF911F910F91FF90EF90C3CD81E0A5
:100C3000FB018083809178018695FA01808380E0B2
:100C40000895FA0180818093800180E00895809169
:100C5000C802811104C08FEF809380013CC0809155
:100C6000780190918001981729F08093800110926B
:100C7000810131C0209181012F5F20938101203CAF
:100C800039F08091C802837890E0813891055CF05A
:100C90001092BC008091640080688093640080E8BA
:100CA0008093C80216C0211116C0809164008F770E
:100CB0008093640088E48093B8008FEF8093BB003A
:100CC00094E09093BC001092C80210927801809337
:100CD000800181E0089580E008950F931F93880FAD
:100CE000809378016093C8024093790120937A0140
:100CF00010937C0100937B0164EA54E877C0609311
:100D0000BC008091BC0087FFFCCF8091B900883087
:100D100029F08091B900803109F036C09091C80265
:100D20008091780191FD01C081608093BB00509358
:100D3000BC008091BC0087FFFCCF8091B900883156
:100D400029F08091B900803409F01EC08091C8025A
:100D500081FD20C040E041C0E0917B01F0917C0129
:100D6000E80FF11D90819093BB008F5F5093BC0002
:100D70009091BC0097FFFCCF90917901891758F4AE
:100D80009091B900983239F084E98093BC00809149
:100D9000B90039C080E0909179018917E8F280911B
:100DA000C8028D7F21C0842F90E0019630E0821729
:100DB000930714F484EC01C084E88093BC00809114
:100DC000BC0087FFFCCFE0917B01F0917C01E40F38
:100DD000F11D8091BB0080834F5F20917A01421703
:100DE00010F38091C8028E7F8093C8028091C80260
:100DF000837009F084CF84E98093BC001092C8020C
:100E0000109278018FEF1F910F910895EF92FF924A
:100E10000F931F939091C80297FD14C0880F809381
:100E200078016093C8024093790120937A0110936E
:100E30007C0100937B01F0927E01E0927D0185EAC6
:100E40008093BC001F910F91FF90EF9008951F9227
:100E50000F920FB60F9211242F933F934F935F93EE
:100E60006F937F938F939F93AF93BF93EF93FF9372
:100E70008091B900887F883221F140F48031A1F05F
:100E80008831F9F0883009F076C00EC0803409F45A
:100E900048C020F4803309F06EC026C0803599F137
:100EA000883509F068C049C010927F019091C8024E
:100EB0008091780191FD01C081608093BB0085E83D
:100EC00060C080917F0190917901891768F4E09169
:100ED0007B01F0917C01E80FF11D90819093BB00A4
:100EE0008F5F80937F01EBCF8091C8028D7F8093CD
:100EF000C8028091C80280FF02C085EA42C084E92E
:100F00008093BC0030C080917F01E0917B01F09123
:100F10007C01E80FF11D9091BB0090838F5F80935F
:100F20007F0120917F0130E080917A0190E001976C
:100F30002817390724F685EC24C080917F01E091C1
:100F40007B01F0917C01E80FF11D9091BB00908333
:100F50008F5F80937F0184E98093BC008091C802F9
:100F60008E7F8093C802E0917D01F0917E013097E1
:100F700051F0099508C08091C80280688093C8022A
:100F800084E98093BC00FF91EF91BF91AF919F9155
:100F90008F917F916F915F914F913F912F910F9022
:100FA0000FBE0F901F9018951092C8028FEF80937C
:100FB00078011092800110927E0110927D010895B7
:100FC0001F93CF93DF931092BC00809164008068E0
:100FD0008093640084E190E059DC81116EC085E16A
:100FE00090E054DC811169C084E190E0ACDBC82F53
:100FF00085E190E0A8DBC82B84E190E06DDC8C23D8
:101000008C135BC0809164008F778093640088E4C8
:101010008093B8008FEF8093BB0084E08093BC0086
:101020000E947F16EC01009709F447C010927E01E0
:1010300010927D012FEF89E698E121508040904089
:10104000E1F700C0000007D4182FB0D5180F93D6D1
:10105000180FF6D7180F09D1810F61F48FEF9FEFAA
:101060009D838C831092BC00809164008068809383
:10107000640023C099DF89E4888380E7898384E161
:1010800090E09B838A83CE01FDDC85E190E09B8329
:101090008A83CE01F7DC87E196E09F838E8381E22D
:1010A00096E09987888787E296E09B878A8784E520
:1010B000888382E489831B821A82DF91CF911F91FA
:1010C0000895FA01DC0112968D919C91139783701B
:1010D0009927B081A18172816381548145813681D4
:1010E0002781FC01EE0FFF1FEE0FFF1FEE0FFF1F0A
:1010F000EE57FE4FB083A18372836383548345838D
:1011000036832783FC01EE55FE4F21E0208380E0EB
:101110000895EF92FF920F931F93CF93DF93EC010B
:10112000EA81FB81E370FF27DF01AE55BE4F8C9152
:10113000823021F41C921092C8028FC0813009F0D5
:101140008CC08091C802811188C08F0193E0000F8C
:10115000111F9A95E1F7D801AE57BE4FBC912B2FC6
:1011600030E040E050E060E070E090E0A3E60E94F4
:10117000061E09F459C00E94061E09F030F5A3E4CA
:101180000E94061E09F450C00E94061E09F058F481
:10119000A1E40E94061E09F445C0A2E40E94061EB6
:1011A00009F048C04DC02B2F30E040E050E060E037
:1011B00070E080E090E0ACE40E94061EA9F1A7E593
:1011C0000E94061ED9F1A8E415C02B2F30E040E0A4
:1011D00050E060E070E080E090E0AEE60E94061E25
:1011E00019F10E94061E09F048F4A6E60E94061EA8
:1011F000E9F0A8E60E94061EE9F416C02B2F30E0A5
:1012000040E050E060E070E080E090E0A0E70E9405
:10121000061E51F00E94061E58F0A4E70E94061E0A
:1012200049F404C045E00DC044E00BC042E009C0F1
:1012300041E007C0EE55FE4F10820FC048E001C0EC
:1012400046E0EE55FE4F82E080830E571E4FE12CA4
:10125000F12C20E06AE08B81D9DD80E0DF91CF9135
:101260001F910F91FF90EF9008955F926F927F9280
:101270008F929F92AF92BF92CF92DF92EF92FF92A6
:101280000F931F93CF93DF931F92CDB7DEB7512CEF
:1012900058E0652E61E6962E71E6C72E78E0D72ECF
:1012A000E9E8AE2EE8E0BE2EF4E58F2EA1E77A2E17
:1012B00099828E010F5F1F4F21E041E063E0862D90
:1012C0000CDD8F3F79F5898186112CC00E947F1635
:1012D000FC01009779F117821682D186C086B38609
:1012E000A28680827182252D30E0F62CE12CC70188
:1012F000820F931F93838283F90143E0EE0FFF1F58
:101300004A95E1F7EE57FE4F108211821282138246
:101310001482158216821782F901EE55FE4F81E084
:101320008083539463948FE1681621F083E08515E0
:1013300008F0BECF852D0F90DF91CF911F910F91B7
:10134000FF90EF90DF90CF90BF90AF909F908F90E5
:101350007F906F905F900895FC01228120FF11C063
:1013600084E0FB0180838091A6019091A701A09168
:10137000A801B091A901FA0180839183A283B3836C
:101380000AC082E0FB0180838091AA019091AB01A9
:10139000FA019183808380E00895FC012281FA01A3
:1013A00020FF0DC080819181A281B3818093A6012D
:1013B0009093A701A093A801B093A90106C08081D2
:1013C00091819093AB018093AA0180E008954F92A0
:1013D0005F926F927F928F929F92AF92BF92CF92C5
:1013E000DF92EF92FF920F931F93CF93DF93CDB7CE
:1013F000DEB728970FB6F894DEBF0FBECDBF809141
:10140000AC018D3011F080E030C18EE08093AC01F2
:101410008091C9028090CA02912CA12CB12CBA2CC7
:10142000A92C982C8824A82A8091CB02882AA5E090
:10143000B694A79497948794AA95D1F71092C8026E
:10144000C090C301D090C401E090C501F090C601E6
:1014500020EAC21A2FE0D20AE108F108A70196019A
:10146000C701B6010E94AA1DDC01CB011CE0B595A5
:10147000A795979587951A95D1F789839A83AB831A
:10148000BC83A091BB01B091BC0129813A814B8101
:101490005C810E94001E2B013C01A091AF01B09124
:1014A000B001A70196010E94001E6D837E838F8389
:1014B00098870091AD011091AE01A091B101B0915A
:1014C000B2010E94001E6B017C018DE0F594E7944F
:1014D000D794C7948A95D1F7A091B901B091BA0178
:1014E00029813A814B815C810E94001EBB2797FDB8
:1014F000B095AB2FC80ED91EEA1EFB1E92E0C90E96
:10150000D11CE11CF11C32E0F594E794D794C79408
:101510003A95D1F7A0E8DA0EE11CF11CA091B301D5
:10152000B091B401A70196010E94F61D6B017C01E8
:101530004FE0F694E794D794C7944A95D1F7C80141
:10154000AA2797FDA095BA2F52E0880F991FAA1FCE
:10155000BB1F5A95D1F76BE07594679457944794E5
:101560006A95D1F72D813E814F8158857BE0559555
:101570004795379527957A95D1F7420E531E641EED
:10158000751E840D951DA61DB71D880F991FAA1FD6
:10159000BB1F881A990AAA0ABB0AAAE6B8E1A501E4
:1015A00094010E94F61D97FD0BC0660F771F881FE0
:1015B000991FA70196010E94B91D49015A010AC04D
:1015C000A70196010E94B91D49015A01880C991C76
:1015D000AA1CBB1C9927B7FC9A958B2D7A2D692DD7
:1015E0009B01AC010E94AA1D9B01AC01AEEDBBE0CA
:1015F0000E94F61D6C01FF24D7FCF094EF2CA3E4AD
:10160000B3EEA50194010E94021EBB2797FDB09581
:10161000AB2FC80ED91EEA1EFB1E3FECC30E3EE0E8
:10162000D31EE11CF11C44E0F594E794D794C794D1
:101630004A95D1F7C80CD91CEA1CFB1C8091A60165
:101640009091A701A091A801B091A901C816D9064F
:10165000EA06FB0609F4D7CEC092A601D092A701F4
:10166000E092A801F092A90181E028960FB6F894C3
:10167000DEBF0FBECDBFDF91CF911F910F91FF90C5
:10168000EF90DF90CF90BF90AF909F908F907F9022
:101690006F905F904F900895CF92DF92EF92FF92FC
:1016A0000F931F938091C802807C79F08091AC01E8
:1016B000811101C0C8C080E48093AC019091C80240
:1016C00096FFC1C08093C802BEC08091C8028370DB
:1016D00009F0B9C08091AC01843039F148F481300F
:1016E000F9F0B8F0823009F1833009F0A7C018C0D2
:1016F000883009F497C030F4853001F1863009F064
:101700009DC083C0893009F480C08B3009F096C039
:1017100089C08091C80283FD96C081E08093AC01AE
:1017200084EF8093C9028EE273C086EF8093C90272
:10173000E12CF12C09EC12E022E07CC09091C9026E
:1017400080E02091CA02AC01422B9A0140E050E0B7
:101750008091B7019091B801281B390B41095109BB
:10176000A091B501B091B6010E94F61D6B017C01FC
:10177000FFE0F594E794D794C794FA95D1F7609178
:10178000BF017091C001882777FD8095982FABE04D
:10179000660F771F881F991FAA95D1F72091C10165
:1017A0003091C201442737FD4095542F2C0D3D1D2B
:1017B0004E1D5F1D0E94DB1D2C0D3D1D4E1D5F1D2E
:1017C0002093C3013093C4014093C5015093C601D7
:1017D000BA01A901485F5F4F6F4F7F4FB4E0759525
:1017E000679557954795BA95D1F78091AA01909141
:1017F000AB018417950711F186E08093AC015093FB
:10180000AB014093AA0181E01FC084EF8093C9021D
:101810008093CA02E12CF12C09EC12E020E042E0B6
:101820006AE00AC086EF8093C902E12CF12C09EC32
:1018300012E023E041E06BE087E7E8DA8091AC0159
:101840008F5F8093AC0180E01F910F91FF90EF902C
:10185000DF90CF900895BF92CF92DF92EF92FF92E8
:101860000F931F93CF93DF931F92CDB7DEB780ED19
:1018700089838E010F5F1F4F21E041E063E087E71E
:101880002CDA8F3F09F0C1C08981853509F0BDC0D0
:101890008AEA90E09093AE018093AD010DEA11E0E9
:1018A00026E141E063E087E718DA1092AC0110927C
:1018B000AB011092AA011092A6011092A7011092FA
:1018C000A8011092A9018091AD019091AE019827D5
:1018D000892798279093AE018093AD018091AF0145
:1018E0009091B0019827892798279093B001809311
:1018F000AF018091B1019091B20198278927982773
:101900009093B2018093B1018091B3019091B401A1
:101910009827892798279093B4018093B3018091E9
:10192000B5019091B6019827892798279093B60121
:101930008093B5018091B7019091B80198278927CC
:1019400098279093B8018093B7018091B901909145
:10195000BA019827892798279093BA018093B901F3
:101960008091BB019091BC0198278927982790937B
:10197000BC018093BB018091BD019091BE0198276D
:10198000892798279093BE018093BD018091BF0164
:101990009091C0019827892798279093C001809340
:1019A000BF018091C1019091C20198278927982792
:1019B0009093C2018093C1010E947F168C01009711
:1019C00021F18CEAC82E89E0D82EF801D782C68290
:1019D0009DECE92E99E0F92EF186E0868CE49BE0FF
:1019E0009387828724E5B22EB08287E7818380E0E7
:1019F00097E7938382830E947F16FC01009739F456
:101A00008FEF9FEFF8019583848380E010C0D78229
:101A1000C682F186E08687EE99E093878287B0825E
:101A200084E4818381E097E79383828382E00F904F
:101A3000DF91CF911F910F91FF90EF90DF90CF90AA
:101A4000BF900895FC01228120FF08C081E0FB01C6
:101A500080838091C701FA0180830AC082E0FB0184
:101A600080838091C8019091C901FA01918380839C
:101A700080E00895FC012281FA0120FF04C08081EA
:101A80008093C70106C0808191819093C9018093A2
:101A9000C80180E008958091CA01873011F080E08C
:101AA000089588E08093CA018091CC0224E0829F4F
:101AB000C00111249091CD029295969596959370C0
:101AC000982B1092C8028091C701981741F3909308
:101AD000C70181E00895EF92FF920F931F938091C9
:101AE000C802807C79F08091CA01811101C058C080
:101AF00080E48093CA019091C80296FF51C0809300
:101B0000C8024EC08091C802837009F049C080911C
:101B1000CA01813069F028F0843091F08530D9F520
:101B200019C08091C80283FD3BC081E08093CA0147
:101B3000E12CF12C00E010E020E040E06AE007C07A
:101B4000E12CF12C0CEC12E024E040E069E087E2AB
:101B50005DD921C08091CC02807C11F084E01EC050
:101B60002091CF02269526958091CE0230E4839F66
:101B7000C0011124822B2091C8013091C901821724
:101B8000930749F09093C9018093C80186E0809340
:101B9000CA0181E006C08091CA018F5F8093CA01AB
:101BA00080E01F910F91FF90EF900895DF92EF92E8
:101BB000FF920F931F93CF93DF9300E010E020E09C
:101BC00040E062E087E289D88F3F09F02DC0109293
:101BD000CA011092C7011092C9011092C8010E9457
:101BE0007F16EC01009701F182E2E82E8DE0F82EDD
:101BF000FF82EE820AE31DE0198708878BE69DE0ED
:101C00009B878A8794E5D92ED88287E7898380E0ED
:101C100097E29B838A830E947F16FC01009731F430
:101C20008FEF9FEF9D838C8380E010C0F782E68268
:101C3000118700878BE49DE093878287D08282E4BE
:101C4000818381E097E29383828382E0DF91CF9169
:101C50001F910F91FF90EF90DF90089522E0DB013C
:101C60002C93DC011296ED91FC911397E770FF27FE
:101C7000EE0FFF1FE553FE4F80819181FA019183A2
:101C8000808380E00895DC011296ED91FC9113971A
:101C9000E770FF27EE0FFF1FE553FE4FDA018D912E
:101CA0009C919183808380E00895EF92FF920F933F
:101CB0001F93CF93DF93FC0182819381EC01C77066
:101CC000DD272091C802207C79F0C552DE4F888143
:101CD000811101C048C080E488839091C80296FFBA
:101CE00042C08093C8023FC02091C8022370D9F53A
:101CF000FE01E552FE4F2081213061F028F02230B4
:101D0000A9F0233059F528C02091C80223FD2BC02B
:101D100021E020831092D002E12CF12C00ED12E0A2
:101D200022E041E06BE0892F71D818C09091D00279
:101D300080E02091D102822B23E02083FE01EE0F70
:101D4000FF1FE553FE4F208131818217930721F059
:101D50009183808381E008C01092C802C552DE4F93
:101D600088818F5F888380E0DF91CF911F910F91F1
:101D7000FF90EF9008955F926F927F928F929F9263
:101D8000AF92BF92CF92DF92EF92FF920F931F9389
:101D9000CF93DF93C8E4D0E0512C9924939450E87A
:101DA000852E6EE2E62E6EE0F62E73E4C72E7EE000
:101DB000D72EE5E5AE2EEEE0BE2EF4E57F2EA7E7AA
:101DC0006A2E9092D0021092D10200ED12E020E033
:101DD00042E062E08C2F0E946D068F3F01F5052DD9
:101DE00010E0F801E552FE4F8082F801EE0FFF1F70
:101DF000E553FE4F1182108282D7FC010097B1F0AB
:101E0000F782E682D186C086B386A286708261821E
:101E10003C2F2227202B312B338322835394CF3422
:101E2000D10521F0219687E0851558F6852DDF91A3
:101E3000CF911F910F91FF90EF90DF90CF90BF90C7
:101E4000AF909F908F907F906F905F90089522E069
:101E5000FB012083FC01228120FF05C08091E40169
:101E60009091E50104C08091E6019091E701FA01AB
:101E70009183808380E00895FC012281FA018081B2
:101E8000918120FF05C09093E5018093E40104C097
:101E90009093E7018093E60180E008958091E3014B
:101EA0008E3011F080E008958FE08093E30110926E
:101EB000C8022091D302269526958091D20230E463
:101EC000839FC0011124822B2091E6013091E7010C
:101ED0008217930739F39093E7018093E60181E03D
:101EE0000895EF92FF920F931F938091E301811168
:101EF00009C08091C8028B7C09F079C081E0809391
:101F0000E30113C08091C802807C51F080E480938B
:101F1000E3019091C80296FF6AC08093C80267C02F
:101F20008091C802837009F062C08091E30188301B
:101F300071F168F48330D9F020F4813009F052C097
:101F400011C08630C1F0873009F04CC050C08C30D1
:101F500091F020F4893009F045C034C08F3008F08A
:101F600041C045C083E08093D20281E32FC08093BB
:101F7000D20281E02BC01092D2028DEFE82E8FE0CA
:101F8000F82E02ED12E021E041E06BE028C089E08C
:101F90008093E3012091D30222952F708091D20289
:101FA00030E1839FC0011124822B2091E401309104
:101FB000E50182179307D9F09093E5018093E4013E
:101FC00081E016C083E08093D20281E18093D30246
:101FD000E12CF12C02ED12E020E042E06AE080E426
:101FE0000E9406078091E3018F5F8093E30180E008
:101FF0001F910F91FF90EF900895EF92FF920F9332
:102000001F938091D20280FF04C08091E301815030
:1020100010C081E08093D202E12CF12C02ED12E09D
:1020200022E041E06BE080E40E9406078091E3013A
:102030008F5F8093E3011F910F91FF90EF900895C0
:10204000AF92BF92CF92DF92EF92FF920F931F93C6
:10205000CF93DF931F92CDB7DEB781E189838E01E5
:102060000F5F1F4F21E041E063E080E40E946D06B6
:102070008F3F09F035C08981803591F51092E301D9
:102080001092E7011092E6011092E5011092E4012E
:1020900036D68C01009721F197E2C92E9FE0D92E08
:1020A000F801D782C6822CE3E22E2FE0F22EF186D1
:1020B000E08681E79FE09387828734E5A32EA082A4
:1020C00047E5B42EB18281E090E49383828317D6F2
:1020D000FC01009739F48FEF9FEFF801958384831B
:1020E00080E00FC0D782C682F186E0868EE49FE052
:1020F00093878287A082B18280E090E49383828379
:1021000082E00F90DF91CF911F910F91FF90EF90A0
:10211000DF90CF90BF90AF900895E4EDF2E0119280
:10212000119282E0E83EF807D1F70895E4EDF2E07D
:1021300080E090E021913191232B81F443E2489F8C
:102140009001499F300D112428513D4FFC01EE0FA5
:10215000FF1FEC52FD4F3183208306C001968A3069
:10216000910541F720E030E0C901089520E030E01A
:1021700063E2629FA001639F500D112448515D4F9F
:102180008417950741F4F901EE0FFF1FEC52FD4F44
:102190001182108208952F5F3F4F2A30310549F791
:1021A0000895809102029091030201968F3F2FEFD4
:1021B000920709F002C081E090E0909303028093BF
:1021C0000202209102023091030232272327322794
:1021D000C9010895E091EF012E2F2F5F243008F000
:1021E00024503091EE01231303C0C0DF8FEF089518
:1021F000F0E0EE0FFF1FE051FE4F918380832093AC
:10220000EF0180E008951092EF011092EE0110921C
:10221000F9011092F80181DF1092E9018FE38093B8
:10222000EA011092EC011092EB0183E08093ED0142
:1022300010920302109202028FEF809306024BD598
:102240000E94971B8093E80108950F931F93CF93EB
:10225000DF931F92CDB7DEB78C01FC0182818C30F9
:1022600031F4F80183818076803231F407C0823105
:10227000C1F38A30E1F502C08034C9F58091F901DB
:10228000282F2F5F243008F024508091F801281760
:10229000A9F129834BDFAC012981009779F183E211
:1022A000F801DA0101900D928A95E1F7F801828137
:1022B0008C3009F402C0823121F4FA0183818068F4
:1022C0008383E091F9018091F801E81307C010922F
:1022D000EC011092EB018FE08093EA01F0E0EE0F49
:1022E000FF1FE650FE4F518340832093F901C80140
:1022F0000F90DF91CF911F910F916CCFC80136DF06
:102300008FEF0F90DF91CF911F910F910895209142
:10231000F8018091F901821739F1E22FF0E0EE0F18
:10232000FF1FE650FE4F808191812F5F2093F801BF
:102330001DDF8091F801843018F084508093F801FB
:102340009091F9018091F80198130BC01092F90156
:102350001092F8011092EC011092EB018FE3809340
:10236000EA0183E08093ED01089581E02091EE0180
:102370009091EF01291301C080E00895E091EE01F2
:102380008091EF01E81789F08E2F8F5F843008F479
:1023900002C08E2F83508093EE01F0E0EE0FFF1FFE
:1023A000E051FE4F2081318102C020E030E0C901C0
:1023B0000895CF92DF92EF92FF920F931F93CF93E6
:1023C000DF9300D0CDB7DEB78C017901842F885F11
:1023D0008432B8F54A836983A9DE6C014A81698138
:1023E000009779F18091E801D6018C93842F895F61
:1023F00011968C9311978CE012968C9312971396EA
:102400006C93139710270127102715961C930E9392
:1024100014974A83C6DEF6019783868338964A81ED
:1024200050E0B701CF010E94341EC6010F900F90FB
:10243000DF91CF911F910F91FF90EF90DF90CF90A0
:1024400004CF8FEF0F900F90DF91CF911F910F91DD
:10245000FF90EF90DF90CF900895EF92FF920F934F
:102460001F93CF93DF93E82E162FF42E052F862F80
:102470008A5F843210F55ADEEC010097F1F080910A
:10248000E8018883812F8B5F898382E18A83EB82D5
:1024900088DE9D838C839E012A5F3F4F412F50E051
:1024A0006F2D702FC9010E94341ECE01DF91CF9194
:1024B0001F910F91FF90EF90C8CE8FEFDF91CF91DA
:1024C0001F910F91FF90EF900895DF92EF92FF928E
:1024D0000F931F93CF93DF938C01F62ED42EE52E0E
:1024E000862F895F843238F521DEEC01009719F1DF
:1024F0008091E80188838F2D8A5F89838AE08A83AF
:102500001027012710271C830B834BDE9E838D83AE
:102510009E01295F3F4F4F2D50E06D2D7E2DC9014B
:102520000E94341ECE01DF91CF911F910F91FF9039
:10253000EF90DF908ACE8FEFDF91CF911F910F91B7
:10254000FF90EF90DF9008955ECEEF92FF920F9391
:102550001F93CF93DF939091EA01992321F091503B
:102560009093EA01B9C09091E901992321F091304B
:1025700009F0B2C06AC08FE38093EA018091EB0159
:102580009091EC01009731F001979093EC018093CA
:10259000EB01A2C08091ED01882321F0815080934E
:1025A000ED0104C0F894299A0C94000089E090E0B1
:1025B0009093EC018093EB01B9DDEC01009709F4F5
:1025C0008BC08091E8018883809102029091030280
:1025D000892B19F484E08B8301C01B8281E08C83FA
:1025E00081E09CE29E838D837E0187E0E80EF11CF2
:1025F00084E189838E010F5F1F4F9701A80161E07D
:1026000080E09FEF8BD489818230C0F486E089839B
:102610009701A80161E080EC9FEF80D41981212F00
:1026200030E0CE01820F931FFC014FE547831F5F0F
:10263000198308960E94DD1B810F898389818A5F37
:10264000898384E08A83CE012EC09FE39093EA01C0
:102650002091EB013091EC012115310539F0215029
:1026600031093093EC012093EB0136C09091ED01DC
:10267000992351F091509093ED012091F8019091A0
:10268000F901291312C002C0BEDD26C0811124C089
:102690004DDD009709F12091E801FC01208322E043
:1026A000218326E1228396DD17C040DD009789F063
:1026B000E091F801F0E0EE0FFF1FE650FE4F0190B1
:1026C000F081E02D23E2DC0101900D922A95E1F7E3
:1026D00081DD8FE08093EA0180E0DF91CF911F914F
:1026E0000F91FF90EF9008950F931F93CF93DF9377
:1026F000EC018A818C3009F49AC070F4853011F1B4
:1027000020F4813009F020C116C08A3009F451C08C
:102710008B3009F019C16BC0833109F4E5C020F496
:102720008D3009F011C1C5C0873109F4F3C088317B
:1027300009F00AC106C183E0898382E08A83F7D762
:102740008B83B4C08091E9018111FEC08FE3809337
:10275000EA018B818111F5C081E08093E90110923B
:10276000EC011092EB0183E08093ED0110920502E1
:10277000109204028091020290910302892B09F0C9
:10278000E3C0D5D78F3F09F4DFC086E189838E018E
:102790000D5F1F4FAE014F5F5F4F980161E080EC0E
:1027A0009FEFBCD39801498161E280EC9FEF01DE8D
:1027B000CBC08091E901882309F4C6C08D819E8138
:1027C00098278927982720910402309105028217C3
:1027D000930741F09093050280930402CE01ACD29E
:1027E0008093060287E089838BE08A835CC08091B6
:1027F000E901813009F0A8C0E091F801F0E0EE0FA6
:10280000FF1FE650FE4F0190F081E02D82818A305B
:1028100009F09AC08F81811106C08B819C81982715
:102820008927982702C080E090E064D35BC0809144
:10283000E901813009F088C08FE38093EA0183E0E9
:102840008093ED018E819F81982789279827209179
:102850000402309105028217930709F477C0909320
:102860000502809304029E01285F3F4F4981475033
:102870006B8160688C819D81982789279827C5D3B3
:10288000809306028B818076803209F05DC087E0FC
:1028900089838DE08A838C819D819C838B838E814B
:1028A0009F819E838D83809106028F83CE0192DC6F
:1028B00049C08091E901813009F046C0E091F801FA
:1028C000F0E0EE0FFF1FE650FE4F0190F081E02D8B
:1028D00082818C30C9F5268137818D819E812817B0
:1028E000390791F514DD30C08091E901813061F53F
:1028F000E091F801F0E0EE0FFF1FE650FE4F01906F
:10290000F081E02D82818231F9F4248135818E813C
:102910009F81E5CF8091E9018130B1F49091EE0182
:102920008091EF01981310C08CE291E09093EC013C
:102930008093EB0183E08093ED018FE38093EA01C4
:1029400003C061DC81E006C080E004C08B8187FFAA
:10295000FBCF98CFDF91CF911F910F910895809178
:10296000E90108951F92CDB7DEB7F894A89588E1E4
:102970000FB6F89480936000109260000FBE80E85C
:1029800080BF8BEA80936400C8DB7FD389E190E04D
:102990000E94101DD9DD72D61092070282E080934A
:1029A000B0001092B20093EF9093B30087BB809376
:1029B00070008FE08093B10083B7817F83BF7894EC
:1029C0000FEF1FEFC12CD12C87E1A82E0E94361DDE
:1029D0007C010097F1F0FC01B080A9D6B81207C0C5
:1029E000C70182DE811115C0C701C0DB12C0BB2048
:1029F00021F0B5DF813069F405C0C70175DE882399
:102A0000C1F307C0C114D10409F45EC0C601AEDB36
:102A10005BC0C114D10439F09AD6882321F0C601D5
:102A2000A8D6C12CD12C86D67C01009749F097DF1F
:102A3000813021F4C7010E94481D02C0C70196DB06
:102A400094DC882319F09ADC0E94481D80910702CB
:102A500080FF32C0809107028E7F809307029AD652
:102A60007EDF8983813001F50F3FFFEF1F0739F4C7
:102A700080E0A0D38C010F3F8FEF1807A9F056DB41
:102A80007C01009789F0A9829C01AE014F5F5F4FE6
:102A900060E8C80143D29701498160E2C80189DC3E
:102AA000C70164DB0FEF1FEF81E00F3F9FEF1907B6
:102AB00009F480E04ADD898383B7816083BF88950C
:102AC00083B78E7F83BF82CF6701A6CF1F920F92FD
:102AD0000FB60F9211248F9380910702816080932B
:102AE00007028F910F900FBE0F901F901895DC0179
:102AF0002C912F34C1F028F4213441F0293441F4D1
:102B000012C0203591F0233519F40DC082E00895EC
:102B1000DC011196EC91E254E63328F4F0E0E55F35
:102B2000FE4F8081089580E0089581E00895FF922E
:102B30000F931F93CF93DF938C0161111EC0ECE0C4
:102B4000F2E040E050E012C08017910749F48CE0B9
:102B5000849F9001859F300D1124285F3D4F31C027
:102B60004F5F5F4F3C964C30510549F18081918118
:102B70008F3F2FEF920741F722C0613001F5C0E08F
:102B8000D0E08CE0F82EFC9EB001FD9E700D11246B
:102B900068587F4F4CE050E08AE992E00E941E1E88
:102BA00080919E0290919F028017910729F02196B3
:102BB000C530D10541F703C02AE932E002C020E068
:102BC00030E0C901DF91CF911F910F91FF900895DF
:102BD000BF92CF92DF92EF92FF920F931F93CF930A
:102BE000DF9300D000D0CDB7DEB7B82E00E010E004
:102BF000C82ED12C8CE0B89E7001112488E092E0A0
:102C0000E80EF91EBE016F5F7F4FC8010E947E0073
:102C100044E050E0B701CE0101960E94271E0097C4
:102C200071F48FEF89838A838FEF9FEF9C838B836F
:102C3000BE016F5F7F4FC8010E94850006C00C5F18
:102C40001F4F90E000331907E9F62CE02C9DC001DE
:102C50002D9D900D1124885F9D4F0E949D016CE079
:102C60000DC0629FD001639FB00D1124A85FBD4FBE
:102C7000862F01900D928A95E1F7B3948AE08B1527
:102C800058F49CE0B99EF0011124E85FFD4F8FEFEE
:102C90009FEF9583848311C02B2D30E0C9010196ED
:102CA000689FF001699FF00D1124E85FFD4F44819A
:102CB00055814F3F5F4FA9F6E4CF0F900F900F90D3
:102CC0000F90DF91CF911F910F91FF90EF90DF90C8
:102CD000CF90BF900895109298028FE3809399024D
:102CE000ECE0F2E080819181019609F468C41182E0
:102CF00010823C9682E0EC39F807A1F7F7CFECE0C0
:102D0000F2E020E030E080819181019659F48CE07E
:102D1000829FF001839FF00D1124E85FFD4F158223
:102D2000148208C02F5F3F4F3C962C30310559F775
:102D3000E0E0F0E0CF0108956F927F928F929F9232
:102D4000AF92BF92CF92DF92EF92FF920F931F93B9
:102D5000CF93DF93CDB7DEB728970FB6F894DEBFD9
:102D60000FBECDBF8C01FC0187818D8380858E8352
:102D7000918120E030E03996402F40955AE01CC008
:102D80008191682F60536A3068F038872F834E0135
:102D9000F5E08F0E911CC4010E948D01B82E88238E
:102DA00081F092C0B901569F9001579F300D1124B8
:102DB00020533109280F311D842F8E0F891700F3FE
:102DC000E4CFF801E380F480FE24EF24FE242CE01D
:102DD000C22E22E0D22E00E010E03CE0A32E782CA0
:102DE000692C1FC0A09EB001A19E700D1124685FC8
:102DF0007D4F44E050E0872D962D29D7009709F4A8
:102E000061C08E149F0421F4E114F10409F053C051
:102E10000F5F1F4FFCE0CF0ED11C0C30110509F4E1
:102E20004AC0F60180809180FFEF8F169F06D1F691
:102E300045C08CE0809F6001819FD00C112468E028
:102E400072E0C60ED71E4D815E816F817885F601D6
:102E50004083518362837383C6010E947D01811187
:102E60002AC0F601F582E48200E010E0BE016F5F47
:102E70007F4FC8010E947E0044E050E0BE016F5FBA
:102E80007F4FCE010596E3D60097F1F089818150FE
:102E90008E3F38F0BE016B5F7F4FC8010E948500F6
:102EA00013C00C5F1F4FF0E000331F07F9F60CC092
:102EB000802F8EDE09C092E0B92E06C0E114F10425
:102EC000D1F3B7CFEF28A1F38B2D28960FB6F89446
:102ED000DEBF0FBECDBFDF91CF911F910F91FF904D
:102EE000EF90DF90CF90BF90AF909F908F907F90AA
:102EF0006F900895E0919802009749F02CE0E29FCE
:102F0000F0011124E85FFD4F958384830895EC3030
:102F100010F48E2F5DDE109298020895AF92BF924A
:102F2000DF92EF92FF920F931F93CF93DF931F9245
:102F3000CDB7DEB7D62E7A0189016370F8DD5C016A
:102F4000009709F453C0DC011696ED91FC91179798
:102F5000309709F44DC0A801B7010995482FD7FE55
:102F600048C0811146C0C5014983C1DD498187FF41
:102F70001DC08F7718C09801280F311DF9013197B6
:102F80009081911108C0F9013297908197FF0AC092
:102F9000F70180832EC09F3FD9F7F90132979081C6
:102FA00097FFF6CF8150823030F7F2CF882309F1B6
:102FB000F801E80FF11DDF0111979C9197FF04C004
:102FC00010828F5F10C08150813069F09801280F06
:102FD000311DF90131979081911105C0F9013297A6
:102FE000908197FFF0CFD7018C9303C042E001C0DE
:102FF00043E0842F0F90DF91CF911F910F91FF90AD
:10300000EF90DF90BF90AF900895EF92FF920F93F3
:103010001F93CF93DF93E62EF42E8901637087DD33
:10302000EC01009741F188859985892B31F1E7FE04
:1030300016C0CE015CDD8F77F81678F4F801EF0D3D
:10304000F11D31979081990F990BF801EF0DF11D4A
:103050009083F394F812F9CF02C08111F82EE8851D
:10306000F985A8016F2DCE01DF91CF911F910F91AE
:10307000FF90EF90099482E001C083E0DF91CF914F
:103080001F910F91FF90EF900895EF92FF920F9391
:103090001F93CF93DF9300D000D0CDB7DEB781E090
:1030A0008B839E012C5F3F4FAE014D5F5F4F61E010
:1030B00080E09FEF33DF8C818F3F91F51C829E0172
:1030C0002C5F3F4F40E061E080E09FEF9EDF86E0B5
:1030D0008C839E012C5F3F4F41E061E080E19FEFD8
:1030E00094DF1C829E012C5F3F4F40E061E080E056
:1030F0009FEF8BDF84ED9DE29A8389839E012F5F92
:103100003F4F42E061E081E19FEF7FDF8CE08C8305
:103110009E012C5F3F4F41E061E082E19FEF75DF50
:1031200020E03CE08FEF9FEF329FF0011124E85F39
:10313000FD4F958384832F5F2C30B0F32C83109246
:1031400098028FE3809399020E9479011C82F12CEE
:103150004CE0E42E1FC0EF9C80011124085F1D4F3E
:1031600024E0829FC0011124B801805090400E9449
:103170007E00F801808181508E3F48F4C8010E9492
:103180007D01811104C0F80115821482F3948C81B1
:103190008F5F8C838C818C30F0F20E947C010F90C9
:1031A0000F900F900F90DF91CF911F910F91FF9093
:1031B000EF900895DF92EF92FF920F931F93CF93BA
:1031C000DF931F92CDB7DEB7E82E882309F443C002
:1031D0001092980240C00115110539F50E94961011
:1031E0008C01009709F460C080919802F89EC0019C
:1031F0001124B801885F9D4F0E94AC018983A8010A
:10320000682F80E090E061D981110BC0E0919802B5
:10321000FE9EF0011124E85FFD4F80E090EF958362
:103220008483C8010E94B6103FC0011580EF1807C3
:10323000D9F11A96ED91FC911B97309731F490914A
:1032400098029F5F9093980208C06E2DCD0109955A
:103250008823A9F32BC06CE0D62EA0919802AC3045
:1032600080F45CE0F52EDA9ED0011124A85FBD4FFA
:1032700014960D911C9115970F3F8FEF180709F0C9
:10328000AACF1092980280919902882369F0815008
:1032900080939902811108C083E28983AE014F5F58
:1032A0005F4F61E080E2D9D80FEF1FEFC8010F90A8
:1032B000DF91CF911F910F91FF90EF90DF900895D4
:1032C0002A989EBD0DB407FEFDCF8EBD0DB407FE3E
:1032D000FDCF2A9A08952A981EBC0DB407FEFDCF93
:1032E0002EB5922F80E01EBC0DB407FEFDCF2EB58B
:1032F0002A9AAC01422B9A01C90108958CB58160CC
:103300008CBD2A9880EB8EBD0DB407FEFDCF1EBC90
:103310000DB407FEFDCF8EB52A9A9CB59E7F9CBD4D
:1033200008952091A7023091A80298E0B90166277C
:103330007078672F7727482F407850E0220F331F8F
:103340006417750719F045E024273058880F91500D
:1033500069F73093A8022093A70208951F920F9255
:103360000FB60F9211240F931F932F933F934F93F8
:103370005F936F937F938F939F93AF93BF93CF93FD
:10338000DF93EF93FF934A9905C1A5DF96FF06C02F
:1033900081E092E895DF1092A602FCC097FFE5C09D
:1033A0008091A602853009F43EC030F4833071F07C
:1033B000843009F0DAC021C0883009F49FC0893018
:1033C00009F4BCC0873009F0D0C05DC097DFC82FBA
:1033D00084508E3108F0C9C02FEF3FEF3093A80220
:1033E0002093A7028C2F9DDF84E08093A602C1501A
:1033F000C093A9021092AA02CDC080DFC82F8823F3
:1034000021F08091AB02C813B0C00E9496100097C3
:1034100009F4ABC09093AD028093AC02299A8C2F33
:1034200080DF85E0B5C06ADFD82FC091AA02809105
:10343000A902C81750F48D2F74DFE091AC02F0910F
:10344000AD02EC0FF11DD08306C0C81308C08091F7
:10345000A802D81311C0CF5FC093AA029BC080916D
:10346000A702D81309C08091AC029091AD0290934D
:10347000AF028093AE0279C08091AC029091AD0210
:103480000E94B61072C08091AA02882379F181301F
:1034900019F4C091B1022BC0823019F4C091B0026E
:1034A00026C0833079F4C091A9022FEF3FEF30930B
:1034B000A8022093A7028C2F34DF8C2F8150809399
:1034C000A90215C0843041F4E091AC02F091AD0244
:1034D000C0818C2F26DF0BC0C091AB028C2F21DF67
:1034E0001092AA0288E08093A60201C0CAEA8091E5
:1034F000AA028F5F8093AA028C2F33C0C091AC02C6
:10350000D091AD021091AA02FE01E10FF11D0081E0
:103510001F5F1093AA02802F90E0986BD1DE802F5E
:1035200000DF8091A9021817A8F189E08093A60214
:103530001092AA02CE010E94B6102CC09091AA024D
:10354000892F8F5F8093AA02911103C08091A802F6
:1035500008C0823019F48091A70203C0833029F497
:1035600080E090E0986BACDE15C085B18C7F85B9AA
:1035700089E192E8A5DE81E89AECA2DE87E690E890
:103580009FDE89ED92E89CDE83E89AEC99DE83E089
:103590008093A602FF91EF91DF91CF91BF91AF9100
:1035A0009F918F917F916F915F914F913F912F915B
:1035B0001F910F910F900FBE0F901F9018950F93B2
:1035C0001F93CF93DF9300D000D0CDB7DEB782E05A
:1035D0008B839E012F5F3F4FAE014D5F5F4F61E0D8
:1035E00081E19FEF9BDC2BEA32E0AE014D5F5F4F44
:1035F00061E080E19FEF92DC9E012C5F3F4FAE01C6
:103600004D5F5F4F61E082E19FEF88DC8C8190E04D
:10361000805C9E4F25E0289F8001299F100D11247A
:103620008091B2029091B302009731F08017910718
:1036300019F0C801906A44DE1093B3020093B202FD
:103640002091B0023091B1022115310541F08981FC
:103650009A812817390719F099279E6C31DE8981E4
:103660009A819093B1028093B0020F900F900F90C7
:103670000F90DF91CF911F910F9108951DBA85E0B2
:1036800085B98FE284B981E58CBD81E08DBD52980A
:103690005A9A109269001FDE81E092E811DE80E004
:1036A00098EB0EDE01C017DE4A9BFDCF87EE90E857
:1036B00007DE81E092E804DE8091B2029091B302CD
:1036C000906AFEDD88E096ECFBDD8AE695E9F8DDA0
:1036D0008CEA92ECF5DD81E89AECF2DD8091B002A3
:1036E0009091B10299279E6CEBDD87E994ECE8DDBF
:1036F00080E898E9E5DD86E79CECE2DD80E090EE8D
:10370000DFDD80E098ECDCDD80E690ECD9DD82E066
:103710008093A60289E192E8D3DD1092AF02109265
:10372000AE028CB58E7F8CBD81E08DBB08958091FB
:10373000AB0208952091AE023091AF022115310500
:1037400021F01092AF021092AE02C901089580914B
:10375000A602833011F080E00895BDDD90FDFBCF1F
:10376000289A89E192E8ACDD87EE90E8A9DD81E056
:1037700008959093AD028093AC02FC0181818E5F2D
:103780008093A9021092AA0287E08093A60289E39F
:1037900092E896CD8091A602811101C06FCF8091F1
:1037A000A602823049F483E08093A60289ED92E874
:1037B00087DD83E89AEC84CD08956091AB0284D1D3
:1037C00082E008951F920F920FB60F9211242F934B
:1037D0003F934F935F936F937F938F939F93AF9399
:1037E000BF93CF93EF93FF93C091C6008091B60231
:1037F00090910001C03CF1F489130EC08091B70292
:103800009091B8029093BA028093B9028091B40269
:1038100084608093B40208C0833030F08091B70296
:103820009091B8020E94B6101092B60282E0809386
:10383000000140C08917F0F5CB3D31F48091B4020E
:1038400081608093B40236C09091B40290FF07C0AB
:103850009091B4029E7F9093B40290E2C9278111A7
:1038600004C0C093BB0281E023C08130C9F48C2F17
:1038700082508F3198F48D5F809300010E949610E2
:10388000009709F40BC09093B8028093B70220917F
:10389000BB02FC012083C18382E00AC08FEF08C015
:1038A000E091B702F091B802E80FF11DC0838F5F7D
:1038B0008093B602FF91EF91CF91BF91AF919F910D
:1038C0008F917F916F915F914F913F912F910F90C9
:1038D0000FBE0F901F9018951F920F920FB60F9268
:1038E00011242F933F934F935F936F937F938F9305
:1038F0009F93AF93BF93EF93FF93809101019091BA
:10390000BC02891770F5E091B502F0E0EE0FFF1FE1
:10391000E354FD4F0190F081E02DE80FF11D9081FF
:103920002091B40221FF0AC02091B4022D7F209380
:10393000B40220E229272093C6000FC0903C11F06A
:103940009B3D49F48BED8093C6008091B402826068
:103950008093B40254C09093C6008F5F809301019E
:103960004EC0891320C080EC8093C6008FEF8093F7
:1039700001011092BC02E091B502F0E0EE0FFF1FD2
:10398000E354FD4F808191810E94B6108091B50271
:103990008F5F8093B502843090F18091B50284509E
:1039A0008093B5022CC09091B5028091C502981306
:1039B00008C08091C1008F7D8093C1001092BC022D
:1039C0001EC081E080930101E091B502F0E0EE0FAE
:1039D000FF1FE354FD4F0190F081E02D81818F5F47
:1039E0008093BC02E091B502F0E0EE0FFF1FE354BC
:1039F000FD4F0190F081E02D80818093C600FF9102
:103A0000EF91BF91AF919F918F917F916F915F9156
:103A10004F913F912F910F900FBE0F901F901895CF
:103A2000209164002D7F209364002BB123602BB97B
:103A3000519A50989C012227307F232B31F09F70A0
:103A40002091C00022602093C0009093C500809315
:103A5000C40088E98093C10086E08093C200109280
:103A6000B5021092C5021092B40208958091B4027A
:103A700082FF0AC08091B4028B7F8093B4022091B0
:103A8000B9023091BA0202C020E030E0C9010895C5
:103A9000E091C5022E2F2F5F243008F02450309182
:103AA000B502231302C00C94B610F0E0EE0FFF1F16
:103AB000E354FD4F918380832093C5028091C10020
:103AC00080628093C1000895262F22952F702A309E
:103AD00010F0295C01C0205DFC0120836F706A300A
:103AE00010F0695C01C0605DFC01618382E00895B3
:103AF000FC0181E020E137E240E090E004C0621B7D
:103B0000730B9F5F41E062177307C8F7283E53E0CD
:103B1000350789F0203157E2350721F02436310589
:103B200039F403C028EE33E008C02AE030E005C0D5
:103B300021E030E002C024E630E0442329F0905D2B
:103B400091938F5F41E090E02A303105E0F6605DAF
:103B500060830895DB018F939F9348D0BF91AF910D
:103B6000A29F800D911DA39F900DB29F900D1124D7
:103B70000895A1E21A2EAA1BBB1BFD010DC0AA1FAE
:103B8000BB1FEE1FFF1FA217B307E407F50720F0C6
:103B9000A21BB30BE40BF50B661F771F881F991F41
:103BA0001A9469F760957095809590959B01AC018A
:103BB000BD01CF010895052E97FB16F4009406D0A1
:103BC00057FD0CD0D6DF07FC09D07EF49095809588
:103BD000709561957F4F8F4F9F4F089550954095F9
:103BE000309521953F4F4F4F5F4F08951BD0A59FB4
:103BF000900DB49F900DA49F800D911D11240895E8
:103C0000B7FFF4CFF3DF821B930B08950024A7FDC9
:103C100000942A17300540055005600570058005A1
:103C200090050895A29FB001B39FC001A39F01D04A
:103C3000B29F700D811D1124911D0895FB01DC01BF
:103C400002C005900D9241505040D8F70895FB01F5
:103C5000DC0104C08D910190801921F44150504045
:103C6000C8F7881B990B0895FB01DC0102C0019085
:103C70000D9241505040D8F70895DC01CB01FC0172
:103C8000F999FECF06C0F2BDE1BDF89A319600B4B5
:103C90000D9241505040B8F70895F999FECF92BD6A
:103CA00081BDF89A992780B50895DC01CB0102C047
:103CB0002D9105D041505040D8F70895262FF999FD
:103CC000FECF1FBA92BD81BD20BD0FB6F894FA9AFF
:0C3CD000F99A0FBE01960895F894FFCFFA
:103CDC0002FF00FFFFFFFFFFFFFF010100040000D8
:103CEC0000000000000000000000000000000000C8
:103CFC000200000000000000000000000084000032
:103D0C00000000000000000000008800000000001F
:023D1C00820023
:00000001FF
