:100000000C9460000C947D000C947D000C947D0099
:100010000C947D000C947D000C947D000C94651173
:100020000C947D000C947D000C947D000C947D005C
:100030000C947D000C947D000C947D000C947D004C
:100040000C947D000C947D000C942B1A0C94B31A24
:100050000C947D000C946F020C947D000C947D0038
:100060000C945E070C947D00000102030405FF065A
:10007000FFFFFFFFFFFF07FF4573300000FF8D000C
:10008000330100004542470010FF8D00330100009E
:100090004557490011FF8D003301000045424600DD
:1000A00012FF8D00330100004673B400C0FFD8007A
:1000B000000000000A4757444D30312E32363000E0
:1000C00011241FBECFEFD8E0DEBFCDBF11E0A0E00E
:1000D000B1E0E6E9F8E302C005900D92A234B10761
:1000E000D9F724E0A2E4B1E001C01D92A034B20728
:1000F000E1F70E9498100C94491C0C9400009C019C
:10010000CB0144E050E0B9010C94191C9C01CB01D7
:1001100044E050E0B9010C94311CEF92FF920F9330
:100120001F93CF93DF93EB017A01FC0102811381CE
:1001300081818236B1F058F48434E9F018F48234C5
:1001400079F50FC08735A9F0813651F517C083378F
:10015000A9F018F4843621F50EC0873751F08A379C
:10016000F9F481E08883C8010E94291CF70180838B
:1001700015C082E001C084E088830AC0C8010E94E3
:10018000291C9881981708F4892F88830F5F1F4FC7
:10019000488150E0B801C7010E94191C80E001C0ED
:1001A00083E0DF91CF911F910F91FF90EF90089521
:1001B0000F931F93CF93DF93EB01DA01FC01628170
:1001C000738181818236D1F068F4843431F120F476
:1001D000823409F042C012C08735B1F0813609F08F
:1001E0003CC02DC0833759F120F4843609F035C066
:1001F00014C0873749F08A3709F02FC081E088831F
:10020000FB0164916C9319C082E08883FB018591A6
:1002100094918C9311969C9310C084E08883FB0189
:1002200005911591259134910C9311961C9311977A
:1002300012962C93129713963C9380E00FC0FB010B
:1002400014918881811708F4182F6F5F7F4F412F19
:1002500050E0CD010E94FA1B188383E0DF91CF911B
:100260001F910F910895EF92FF920F931F93CF93D9
:10027000DF931F92CDB7DEB7FC01262F8A01E28003
:10028000F38081818236B1F058F48434A9F018F4F7
:10029000823439F50FC08735D9F0813611F50EC09B
:1002A000833761F018F48436E1F406C0873781F0B3
:1002B0008A37B9F421E00DC024E00BC0622FC701DA
:1002C00029830E943B1C8FEFE81AF80A298101C09C
:1002D00022E0422F50E0B701C8010E94311C80E0AB
:1002E00001C083E00F90DF91CF911F910F91FF909C
:1002F000EF9008950E94E7020E943A050C940B08C3
:100300000C941708FC012081293451F018F4213491
:1003100049F404C02F54223028F402C00C94330353
:100320000C94690583E00895FC012081293451F083
:1003300018F4213449F404C02F54223028F402C0A8
:100340000C940C030C94470583E00895FC01208174
:10035000293451F018F4213449F404C02F542230C8
:1003600028F402C00C947B030C94EA050895FC0168
:100370008081DB018C93818111968C93CB01029655
:10038000628173812081213411F46F7077270E947C
:100390005B1B8E5F08958F7021E030E002C0220F5A
:1003A000331F8150E0F7C90108958F70992788594C
:1003B0009F4FFC0184910895FC01828193810E94EA
:1003C000D5019091640090FF15C09FEF9093450177
:1003D00090934201909164009E7F909364009FE00F
:1003E00090937C009FE990937A0090917A009064BA
:1003F00090937A00E82FF0E0DF01A259BE4F8C9174
:1004000081508C93811119C0EE0FFF1FDF01AA5B91
:10041000BE4F2D913C91285F3F4F44E03695279584
:100420004A95E1F7E25AFE4F808191818217930746
:1004300021F03183208381E0089580E00895CF93F7
:10044000DF93EA01FC01828193810E94D50190E053
:10045000FC01EE0FFF1FE25AFE4F288139813183E4
:100460002083FC01E259FE4F21E0208380E0DF91F0
:10047000CF9108950F931F93CF93DF938B01EA01E0
:10048000FC01828193810E94D50192E0F801908362
:10049000E82FF0E0EE0FFF1FE25AFE4F80819181BE
:1004A0009983888380E0DF91CF911F910F91089508
:1004B000CF93DF930E94D5018F3F69F0C091C002B6
:1004C000D091C1020E94CB01C823D92381E0CD2B5A
:1004D00019F480E001C082E0DF91CF9108951F926E
:1004E0000F920FB60F9211242F933F934F938F9338
:1004F0009F93EF93FF932091780030917900409182
:100500004201403170F58091430190914401820F86
:10051000931F9093440180934301411134C0209173
:100520007C002F3059F0E0914501E83038F4F0E0DC
:10053000EE0FFF1FEA5BFE4F9183808380914501A0
:100540008F5F01C0822F883048F5282F2F5FE82F5A
:10055000F0E0EA5AFE4F90819F30A1F3809345016D
:1005600012C0403F81F41092440110924301E09187
:100570004501E83028F4F0E0EA5AFE4F808101C0DE
:100580008FE080937C0080914201815080934201F2
:1005900080917A00806580937A000DC08093450138
:1005A00080E180937A008FE080937C0080916400EA
:1005B000816080936400FF91EF919F918F914F91A3
:1005C0003F912F910F900FBE0F901F90189580E1D3
:1005D00080937A008FE080937C00E4E6F0E09081E5
:1005E000916090831092C1021092C0021092450156
:1005F0009FEF90934201809356018093570180931F
:1006000058018093590180935A0180935B01809334
:100610005C0180935D0108950F931F93CF93DF9347
:100620008C01FC01C281D381C031D105B0F4CE016F
:100630000E945802823089F0F8018181893629F0C0
:10064000863729F0853649F403C0C06C01C0C06408
:10065000F801D383C28380E001C083E0DF91CF91B2
:100660001F910F9108950F931F93CF93DF93EC0188
:100670001A810B81812F902F0E945802811135C061
:10068000812F902F0E94D5012AE332E03F832E83F1
:100690002FE132E0398728872CED31E03B872A872C
:1006A000282F30E0F901E259FE4F1082A901440FD2
:1006B000551FFA01E25AFE4F11821082FA01EA5BDD
:1006C000FE4F11821082F901EA5AFE4F1083C09149
:1006D000C002D091C1020E94CB018C2B9D2B909324
:1006E000C1028093C00280E001C082E0DF91CF911F
:1006F0001F910F9108951F93CF93DF93FC01C28147
:10070000D381CE010E945802813029F5CE010E948A
:10071000D501182FC091C002D091C1020E94CB0117
:10072000809590958C239D239093C1028093C00265
:10073000892B59F480E180937A008FE080937C00CC
:1007400090916400916090936400E12FF0E0EA5A88
:10075000FE4F8FE08083DF91CF911F910895887FB6
:10076000992740978930910528F4FC01EE5FFE4FF0
:10077000808108958FEF08959C012770332781E0D1
:1007800001C0880F21503109E0F708950F931F939E
:10079000CF93DF931F92CDB7DEB78C0169830E94A0
:1007A000BC03087F112769810031110521F0083150
:1007B0001105A1F40AC098B1662319F0982B98B9D5
:1007C0000DC08095892388B909C09BB1662319F0B3
:1007D000982B9BB903C0809589238BB90F90DF912B
:1007E000CF911F910F9108950F931F93CF93DF9394
:1007F0001F92CDB7DEB78C0169830E94BC03087FCE
:10080000112769810031110521F008311105A1F48A
:100810000AC097B1662319F0982B97B90DC080953F
:10082000892387B909C09AB1662319F0982B9AB920
:1008300003C0809589238AB90F90DF91CF911F91D2
:100840000F9108950F931F93CF93DF93FC01C28103
:10085000D381DA011C91808191818934A9F4CE0180
:100860000E94AF03082FCE010E94BC03E02FF0E0EE
:10087000E858FE4F112319F09081982B03C0809502
:100880009081982390831AC08F3449F49E3609F4DE
:100890001095612F6170CE010E94C6030FC0803594
:1008A00069F49E3609F4109581E090E06D9711F49B
:1008B00080E090E0FC01E458FE4F108380E0DF917F
:1008C000CF911F910F9108951F93CF93DF93EC0168
:1008D0000E94BC03182F9E01287F33272031310549
:1008E00021F02831310599F402C0807C01C0837069
:1008F00081110DC0CE010E94AF03E82FF0E0EA584D
:10090000FE4F9081912381E019F480E001C082E0E4
:10091000DF91CF911F910895887F992780319105AC
:1009200019F0489729F402C086B1089589B1089555
:1009300080E00895FF920F931F93CF93DF93FC0104
:10094000C281D3818081F180893451F5CE010E942A
:100950008C04182FCE010E94AF03082FCE010E94F5
:10096000BC03982F8EE6F81201C010951923E02FD2
:10097000F0E0DF01A658BE4F8C91282F29231217D3
:1009800019F098279C9342C0E858FE4F8081282F89
:100990002923121301C03AC09827908381E037C001
:1009A0008035A1F5CD31D105C1F468B580917C01C8
:1009B000681761F1861710F4615001C06F5F68BD60
:1009C000862F81508E3F30F084B58F7D84BD8DE1C0
:1009D00090E016C084B5806218C067B580917D0133
:1009E0006817A1F0861710F4615001C06F5F67BDF2
:1009F000862F81508E3F38F084B58F7784BDCE012D
:100A00000E94C60303C084B5806884BD80E0DF9186
:100A1000CF911F910F91FF900895BF92CF92DF92D7
:100A2000EF92FF920F931F93CF93DF93EC016B0133
:100A30007A010A811B81C8010E948C04B82E898129
:100A40008E3609F4B09481E0F6018083C8010E94DB
:100A5000BC038B2191E009F490E0F701908380E0E2
:100A6000DF91CF911F910F91FF90EF90DF90CF908A
:100A7000BF900895109276011092780110927A0139
:100A8000109277011092790110927B0108950F93D3
:100A90001F93CF93DF93EC010A811B81C8010E9451
:100AA0006404823081F089818E3611F0803759F4E8
:100AB0008881803511F080E007C00D311105D9F330
:100AC0000E311105C1F383E0DF91CF911F910F919A
:100AD0000895DF92EF92FF920F931F93CF93DF93CE
:100AE0008C01FC01C281D381CE010E946404882361
:100AF00011F082E067C0CE010E94AF03D82E8111B1
:100B000016C0CE010E945802813099F381110FC0A6
:100B1000E090C002F090C102CE010E94D5010E9477
:100B2000CB018E299F299093C1028093C002CE01F0
:100B30000E94BC032D2D30E0F901EA58FE4F908150
:100B4000982B90838095F901E858FE4F9081982367
:100B50009083F901E658FE4F908198239083F80125
:100B600080818F3411F461E014C0803589F461E034
:100B7000CE010E94F40384B5807A71F48091640000
:100B80008F7D8093640083E084BD84E085BD04C0D4
:100B900060E0CE010E94F403F80181818E3621F4D9
:100BA00061E0CE010E94C6038DE095E0F8019783D5
:100BB000868382E294E0918780878AE994E0938734
:100BC000828780E0DF91CF911F910F91FF90EF908E
:100BD000DF900895EF92FF920F931F93CF93DF93CF
:100BE0008C01FC01C281D381CE010E94AF03F82E9B
:100BF000CE010E94BC032F2D30E08095F901EA5808
:100C0000FE4F908198239083F901E858FE4F908120
:100C100098239083F901E658FE4F908198239083A2
:100C2000F11016C0CE010E945802813089F4E09084
:100C3000C002F090C102CE010E94D5010E94CB01FA
:100C4000809590958E219F219093C1028093C00240
:100C5000F80180818035A1F4828193814D9719F448
:100C600084B58F7D02C084B58F7784BD84B5807ACA
:100C700039F414BC15BC80916400806280936400D8
:100C800060E0CE010E94C60360E0CE01DF91CF910B
:100C90001F910F91FF90EF900C94F40381E0FB0102
:100CA000808380917E018695FA01808380E008959B
:100CB000FA0180818093860180E008958091C202CC
:100CC000811104C08FEF809386013CC080917E012A
:100CD00090918601981729F08093860110928701E0
:100CE00031C0209187012F5F20938701203C39F08C
:100CF0008091C202837890E0813891055CF0109277
:100D0000BC008091640080688093640080E88093D8
:100D1000C20216C0211116C0809164008F778093A3
:100D2000640080E28093B8008FEF8093BB0094E072
:100D30009093BC001092C20210927E0180938601B3
:100D400081E0089580E008950F931F93880F8093AA
:100D50007E016093C20240937F0120938001109333
:100D600082010093810164EA54E877C06093BC007B
:100D70008091BC0087FFFCCF8091B900883029F0BA
:100D80008091B900803109F036C09091C202809103
:100D90007E0191FD01C081608093BB005093BC0037
:100DA0008091BC0087FFFCCF8091B900883129F089
:100DB0008091B900803409F01EC08091C20281FD8B
:100DC00020C040E041C0E0918101F0918201E80F34
:100DD000F11D90819093BB008F5F5093BC00909168
:100DE000BC0097FFFCCF90917F01891758F4909138
:100DF000B900983239F084E98093BC008091B90041
:100E000039C080E090917F018917E8F28091C20299
:100E10008D7F21C0842F90E0019630E082179307E8
:100E200014F484EC01C084E88093BC008091BC0081
:100E300087FFFCCFE0918101F0918201E40FF11D69
:100E40008091BB0080834F5F20918001421710F397
:100E50008091C2028E7F8093C2028091C202837011
:100E600009F084CF84E98093BC001092C2021092F2
:100E70007E018FEF1F910F910895EF92FF920F93D4
:100E80001F939091C20297FD14C0880F80937E013A
:100E90006093C20240937F012093800110938201EE
:100EA00000938101F0928401E092830185EA8093AE
:100EB000BC001F910F91FF90EF9008951F920F9229
:100EC0000FB60F9211242F933F934F935F936F931D
:100ED0007F938F939F93AF93BF93EF93FF938091F3
:100EE000B900887F883221F140F48031A1F0883147
:100EF000F9F0883009F076C00EC0803409F448C09B
:100F000020F4803309F06EC026C0803599F1883511
:100F100009F068C049C0109285019091C202809189
:100F20007E0191FD01C081608093BB0085E860C0B7
:100F30008091850190917F01891768F4E09181018A
:100F4000F0918201E80FF11D90819093BB008F5FBB
:100F500080938501EBCF8091C2028D7F8093C20286
:100F60008091C20280FF02C085EA42C084E980937A
:100F7000BC0030C080918501E0918101F091820137
:100F8000E80FF11D9091BB0090838F5F80938501E6
:100F90002091850130E08091800190E00197281731
:100FA000390724F685EC24C080918501E091810108
:100FB000F0918201E80FF11D9091BB0090838F5F4B
:100FC0008093850184E98093BC008091C2028E7F6A
:100FD0008093C202E0918301F0918401309751F037
:100FE000099508C08091C20280688093C20284E99A
:100FF0008093BC00FF91EF91BF91AF919F918F9132
:101000007F916F915F914F913F912F910F900FBE04
:101010000F901F9018951092C2028FEF80937E015F
:1010200010928601109284011092830108951F93FB
:10103000CF93DF931092BC0080916400806880930E
:10104000640084E190E00E94640481117AC085E12B
:1010500090E00E946404811174C084E190E00E94D9
:10106000BC03C82F85E190E00E94BC03C82B84E13B
:1010700090E00E948C048C238C1363C080916400E8
:101080008F778093640080E28093B8008FEF809325
:10109000BB0084E08093BC000E94C616EC01009760
:1010A00009F44FC010928401109283012FEF84E362
:1010B0009CE0215080409040E1F700C000000E9479
:1010C0002E0C182F0E94DC0D180F0E94C30E180F53
:1010D0000E942910180F0E943609810F61F48FEFCA
:1010E0009FEF9D838C831092BC0080916400806888
:1010F0008093640026C00E940B0889E4888380E7FF
:10110000898384E190E09B838A83CE010E946905F4
:1011100085E190E09B838A83CE010E9469058EE47D
:1011200096E09F838E8388E596E0998788878EE591
:1011300096E09B878A8784E5888382E489831B8283
:101140001A82DF91CF911F910895FA01DC01129666
:101150008D919C91139783709927B081A1817281A1
:1011600063815481458136812781FC01EE0FFF1F89
:10117000EE0FFF1FEE0FFF1FE857FE4FB083A18356
:10118000728363835483458336832783FC01E85548
:10119000FE4F21E0208380E00895EF92FF920F93AD
:1011A0001F93FC012281338123703327F901E85515
:1011B000FE4F4081423021F410821092C20250C092
:1011C000413009F04DC04091C202411149C089012E
:1011D00043E0000F111F4A95E1F7F801E857FE4F71
:1011E0004081433601F178F44334E9F028F4413486
:1011F000C1F04234F1F424C04C34A9F04735F1F089
:101200004834B9F410C04E3671F028F4463669F00F
:10121000483679F408C0403731F048F0443749F493
:1012200004C045E00EC044E00CC042E00AC041E00A
:1012300008C0F901E855FE4F108212C048E001C015
:1012400046E0F901E855FE4F52E0508308571E4F23
:10125000E12CF12C20E06AE0FC0183810E943D0733
:1012600080E01F910F91FF90EF9008955F926F9231
:101270007F928F929F92AF92BF92CF92DF92EF9226
:10128000FF920F931F93CF93DF931F92CDB7DEB7DB
:10129000512C68E0662E71E6972EE5EACE2EE8E046
:1012A000DE2EFDECAF2EF8E0BF2EA4E58A2EB1E7CE
:1012B0007B2E99828E010F5F1F4F21E041E063E09A
:1012C000862D0E94A4068F3F79F5898186112CC056
:1012D0000E94C616FC01009779F117821682D1860A
:1012E000C086B386A28680827182252D30E0F62CDE
:1012F000E12CC701820F931F93838283F90153E08E
:10130000EE0FFF1F5A95E1F7E857FE4F108211824A
:10131000128213821482158216821782F901E8550F
:10132000FE4F81E08083539463948FE1681621F02F
:1013300083E0851508F0BDCF852D0F90DF91CF910B
:101340001F910F91FF90EF90DF90CF90BF90AF90E3
:101350009F908F907F906F905F900895FC01228105
:1013600020FF11C084E0FB0180838091AC0190914B
:10137000AD01A091AE01B091AF01FA0180839183DC
:10138000A283B3830AC082E0FB0180838091B00115
:101390009091B101FA019183808380E00895FC016E
:1013A0002281FA0120FF0DC080819181A281B38149
:1013B0008093AC019093AD01A093AE01B093AF01C7
:1013C00006C0808191819093B1018093B00180E04B
:1013D00008954F925F926F927F928F929F92AF92F9
:1013E000BF92CF92DF92EF92FF920F931F93CF9312
:1013F000DF93CDB7DEB728970FB6F894DEBF0FBEE8
:10140000CDBF8091B2018D3011F080E030C18EE00F
:101410008093B2018091C3028090C402912CA12CD0
:10142000B12CBA2CA92C982C8824A82A8091C5020A
:10143000882AA5E0B694A79497948794AA95D1F7A3
:101440001092C202C090C901D090CA01E090CB01B5
:10145000F090CC0120EAC21A2FE0D20AE108F1088C
:10146000A7019601C701B6010E948D1BDC01CB01CB
:101470001CE0B595A795979587951A95D1F789831F
:101480009A83AB83BC83A091C101B091C201298131
:101490003A814B815C810E94E61B2B013C01A091AB
:1014A000B501B091B601A70196010E94E61B6D83BC
:1014B0007E838F8398870091B3011091B401A0912E
:1014C000B701B091B8010E94E61B6B017C018DE071
:1014D000F594E794D794C7948A95D1F7A091BF016A
:1014E000B091C00129813A814B815C810E94E61B49
:1014F000BB2797FDB095AB2FC80ED91EEA1EFB1E69
:1015000092E0C90ED11CE11CF11C32E0F594E79485
:10151000D794C7943A95D1F7A0E8DA0EE11CF11CF4
:10152000A091B901B091BA01A70196010E94DB1BFD
:101530006B017C014FE0F694E794D794C7944A95E9
:10154000D1F7C801AA2797FDA095BA2F52E0880FBE
:10155000991FAA1FBB1F5A95D1F76BE0759467942A
:10156000579447946A95D1F72D813E814F815885D4
:101570007BE055954795379527957A95D1F7420E9B
:10158000531E641E751E840D951DA61DB71D880F64
:10159000991FAA1FBB1F881A990AAA0ABB0AAAE6A2
:1015A000B8E1A50194010E94DB1B97FD0BC0660FFB
:1015B000771F881F991FA70196010E949D1B490153
:1015C0005A010AC0A70196010E949D1B49015A01B8
:1015D000880C991CAA1CBB1C9927B7FC9A958B2DCB
:1015E0007A2D692D9B01AC010E948D1B9B01AC01E2
:1015F000AEEDBBE00E94DB1B6C01FF24D7FCF09436
:10160000EF2CA3E4B3EEA50194010E94E91BBB27D4
:1016100097FDB095AB2FC80ED91EEA1EFB1E3FECFE
:10162000C30E3EE0D31EE11CF11C44E0F594E794A8
:10163000D794C7944A95D1F7C80CD91CEA1CFB1C57
:101640008091AC019091AD01A091AE01B091AF013C
:10165000C816D906EA06FB0609F4D7CEC092AC013B
:10166000D092AD01E092AE01F092AF0181E02896F8
:101670000FB6F894DEBF0FBECDBFDF91CF911F91A3
:101680000F91FF90EF90DF90CF90BF90AF909F9021
:101690008F907F906F905F904F900895CF92DF92E0
:1016A000EF92FF920F931F938091C202807C79F09A
:1016B0008091B201811101C0C9C080E48093B20160
:1016C0009091C20296FFC2C08093C202BFC08091B7
:1016D000C202837009F0BAC08091B201843039F13E
:1016E00048F48130F9F0B8F0823009F1833009F024
:1016F000A8C018C0883009F497C030F4853001F1D3
:10170000863009F09EC083C0893009F480C08B30D8
:1017100009F097C089C08091C20283FD97C081E023
:101720008093B20184EF8093C3028EE273C086EF90
:101730008093C302E12CF12C03EC12E022E07CC088
:101740009091C30280E02091C402AC01422B9A0127
:1017500040E050E08091BD019091BE01281B390B03
:1017600041095109A091BB01B091BC010E94DB1B52
:101770006B017C01FFE0F594E794D794C794FA9548
:10178000D1F76091C5017091C601882777FD8095DA
:10179000982FABE0660F771F881F991FAA95D1F786
:1017A0002091C7013091C801442737FD4095542F3F
:1017B0002C0D3D1D4E1D5F1D0E94BF1B2C0D3D1DA0
:1017C0004E1D5F1D2093C9013093CA014093CB0188
:1017D0005093CC01BA01A901485F5F4F6F4F7F4F13
:1017E000B4E07595679557954795BA95D1F780916F
:1017F000B0019091B1018417950719F186E08093AB
:10180000B2015093B1014093B00181E020C084EF58
:101810008093C3028093C402E12CF12C03EC12E00C
:1018200020E042E06AE00AC086EF8093C302E12C28
:10183000F12C03EC12E023E041E06BE087E70E942B
:101840003D078091B2018F5F8093B20180E01F91CC
:101850000F91FF90EF90DF90CF900895BF92CF92BD
:10186000DF92EF92FF920F931F93CF93DF931F921C
:10187000CDB7DEB780ED89838E010F5F1F4F21E06A
:1018800041E063E087E70E94A4068F3F09F0C2C0F1
:101890008981853509F0BEC08AEA90E09093B40151
:1018A0008093B30103EB11E026E141E063E087E7B9
:1018B0000E94A4061092B2011092B1011092B001E0
:1018C0001092AC011092AD011092AE011092AF01D6
:1018D0008091B3019091B40198278927982790931C
:1018E000B4018093B3018091B5019091B60198271E
:1018F000892798279093B6018093B5018091B7010D
:101900009091B8019827892798279093B8018093E0
:10191000B7018091B9019091BA019827892798273A
:101920009093BA018093B9018091BB019091BC0161
:101930009827892798279093BC018093BB018091B9
:10194000BD019091BE019827892798279093BE01E9
:101950008093BD018091BF019091C0019827892794
:1019600098279093C0018093BF018091C10190910D
:10197000C2019827892798279093C2018093C101BB
:101980008091C3019091C40198278927982790934B
:10199000C4018093C3018091C5019091C60198272D
:1019A000892798279093C6018093C5018091C7012C
:1019B0009091C8019827892798279093C801809310
:1019C000C7010E94C6168C01009721F18EEAC82E2D
:1019D00089E0D82EF801D782C6829FECE92E99E0E3
:1019E000F92EF186E0868EE49BE09387828724E5DA
:1019F000B22EB08287E7818380E097E7938382836A
:101A00000E94C616FC01009739F48FEF9FEFF80192
:101A10009583848380E010C0D782C682F186E086F9
:101A200089EE99E093878287B08284E4818381E0A4
:101A300097E79383828382E00F90DF91CF911F918C
:101A40000F91FF90EF90DF90CF90BF900895FC0131
:101A5000228120FF08C081E0FB0180838091CD01BD
:101A6000FA0180830AC082E0FB0180838091CE016D
:101A70009091CF01FA019183808380E00895FC0169
:101A80002281FA0120FF04C080818093CD0106C02D
:101A9000808191819093CF018093CE0180E0089561
:101AA0008091D001873011F080E0089588E0809324
:101AB000D0018091C60224E0829FC0011124909140
:101AC000C7029295969596959370982B1092C202A4
:101AD0008091CD01981741F39093CD0181E0089555
:101AE000EF92FF920F931F938091C202807C79F056
:101AF0008091D001811101C059C080E48093D00150
:101B00009091C20296FF52C08093C2024FC0809152
:101B1000C202837009F04AC08091D001813069F01F
:101B200028F0843091F08530E1F51AC08091C2022E
:101B300083FD3CC081E08093D001E12CF12C00E0DA
:101B400010E020E040E06AE007C0E12CF12C06EC58
:101B500012E024E040E069E087E20E943D0721C0F6
:101B60008091C602807C11F084E01EC02091C902E1
:101B7000269526958091C80230E4839FC0011124E8
:101B8000822B2091CE013091CF018217930749F02B
:101B90009093CF018093CE0186E08093D00181E0C5
:101BA00006C08091D0018F5F8093D00180E01F91AB
:101BB0000F91FF90EF900895DF92EF92FF920F93B5
:101BC0001F93CF93DF9300E010E020E040E062E05D
:101BD00087E20E94A4068F3F09F02DC01092D00129
:101BE0001092CD011092CF011092CE010E94C61624
:101BF000EC01009701F187E2E82E8DE0F82EFF82DC
:101C0000EE820FE31DE01987088780E79DE09B8740
:101C10008A8794E5D92ED88287E7898380E097E286
:101C20009B838A830E94C616FC01009731F48FEFD4
:101C30009FEF9D838C8380E010C0F782E68211873E
:101C4000008780E59DE093878287D08282E481834C
:101C500081E097E29383828382E0DF91CF911F91AD
:101C60000F91FF90EF90DF90089522E0DB012C931D
:101C7000DC011296ED91FC911397E770FF27EE0FB0
:101C8000FF1FEF52FE4F80819181FA019183808383
:101C900080E00895DC011296ED91FC911397E770B6
:101CA000FF27EE0FFF1FEF52FE4FDA018D919C913F
:101CB0009183808380E00895EF92FF920F931F93AA
:101CC000CF93DF93FC0182819381EC01C770DD2704
:101CD0002091C202207C79F0CF51DE4F88818111A2
:101CE00001C049C080E488839091C20296FF43C03E
:101CF0008093C20240C02091C2022370E1F5FE0130
:101D0000EF51FE4F2081213061F028F02230B1F0F8
:101D1000233061F529C02091C20223FD2CC021E0AF
:101D200020831092CA02E12CF12C0AEC12E022E08E
:101D300041E06BE0892F0E943D0718C09091CA02D4
:101D400080E02091CB02822B23E02083FE01EE0F66
:101D5000FF1FEF52FE4F208131818217930721F040
:101D60009183808381E008C01092C202CF51DE4F80
:101D700088818F5F888380E0DF91CF911F910F91E1
:101D8000FF90EF9008955F926F927F928F929F9253
:101D9000AF92BF92CF92DF92EF92FF920F931F9379
:101DA000CF93DF93C8E4D0E0512C9924939450E86A
:101DB000852E65E3E62E6EE0F62E7AE4C72E7EE0F1
:101DC000D72EECE5AE2EEEE0BE2EF4E57F2EA7E793
:101DD0006A2E9092CA021092CB020AEC12E020E026
:101DE00042E062E08C2F0E94A4068F3F09F5052D8A
:101DF00010E0F801EF51FE4F8082F801EE0FFF1F57
:101E0000EF52FE4F118210820E94C616FC0100970D
:101E1000B1F0F782E682D186C086B386A286708250
:101E200061823C2F2227202B312B33832283539432
:101E3000CF34D10521F0219687E0851550F6852D08
:101E4000DF91CF911F910F91FF90EF90DF90CF9096
:101E5000BF90AF909F908F907F906F905F9008950C
:101E600022E0FB012083FC01228120FF05C080913C
:101E7000EA019091EB0104C08091EC019091ED0199
:101E8000FA019183808380E00895FC012281FA01A8
:101E90008081918120FF05C09093EB018093EA013E
:101EA00004C09093ED018093EC0180E0089580914F
:101EB000E9018E3011F080E008958FE08093E90110
:101EC0001092C2022091CD02269526958091CC02D7
:101ED00030E4839FC0011124822B2091EC013091CA
:101EE000ED018217930739F39093ED018093EC0194
:101EF00081E00895EF92FF920F931F938091E90183
:101F0000811109C08091C2028B7C09F079C081E007
:101F10008093E90113C08091C202807C51F080E47B
:101F20008093E9019091C20296FF6AC08093C20239
:101F300067C08091C202837009F062C08091E9019C
:101F4000883071F168F48330D9F020F4813009F0E1
:101F500052C011C08630C1F0873009F04CC050C06B
:101F60008C3091F020F4893009F045C034C08F30B6
:101F700008F041C045C083E08093CC0281E32FC0CC
:101F80008093CC0281E02BC01092CC0286E0E82E38
:101F900080E1F82E0CEC12E021E041E06BE028C07B
:101FA00089E08093E9012091CD0222952F708091E4
:101FB000CC0230E1839FC0011124822B2091EA01E1
:101FC0003091EB0182179307D9F09093EB01809346
:101FD000EA0181E016C083E08093CC0281E1809326
:101FE000CD02E12CF12C0CEC12E020E042E06AE0A2
:101FF00080E40E943D078091E9018F5F8093E901B1
:1020000080E01F910F91FF90EF900895EF92FF9263
:102010000F931F938091CC0280FF04C08091E9014F
:10202000815010C081E08093CC02E12CF12C0CECAB
:1020300012E022E041E06BE080E40E943D078091E5
:10204000E9018F5F8093E9011F910F91FF90EF905D
:102050000895AF92BF92CF92DF92EF92FF920F93CB
:102060001F93CF93DF931F92CDB7DEB781E18983B2
:102070008E010F5F1F4F21E041E063E080E40E948A
:10208000A4068F3F09F037C089818035A1F51092F1
:10209000E9011092ED011092EC011092EB01109207
:1020A000EA010E94C6168C01009729F190E3C92E1F
:1020B0009FE0D92EF801D782C68225E4E22E2FE0D8
:1020C000F22EF186E0868AE79FE09387828734E5E7
:1020D000A32EA08247E5B42EB18281E090E49383E1
:1020E00082830E94C616FC01009739F48FEF9FEFA0
:1020F000F8019583848380E00FC0D782C682F18681
:10210000E08687E59FE093878287A082B18280E0A6
:1021100090E49383828382E00F90DF91CF911F91AF
:102120000F91FF90EF90DF90CF90BF90AF90089508
:102130001F92CDB7DEB7F894A89588E10FB6F89452
:1021400080936000109260000FBE80E880BF8BEA31
:10215000809364000E9476110E9494188CE090E0B5
:102160000E94DE190E949D130E94CC191092EE016C
:1021700082E08093B0001092B20099E79093B30090
:1021800087BB809370008FE08093B10083B7817F1D
:1021900083BF78940FEF1FEFC12CD12C87E1A82EBD
:1021A0000E94021A7C01009721F1FC01B0800E947C
:1021B000CD19B81209C0C7010E947514811119C048
:1021C000C7010E949F1115C0BB2029F00E94BA15BB
:1021D000813079F406C0C7010E9475148823B1F3D9
:1021E00008C0C114D10409F46EC0C6010E949F1139
:1021F0006AC0C114D10449F00E94D319882329F080
:10220000C6010E94D519C12CD12C0E94D0197C0185
:10221000009759F00E94BA15813021F4C7010E943D
:102220000F1A03C0C7010E949F110E94A5128823A4
:1022300021F00E94AE120E940F1A8091EE0180FFE1
:102240003AC08091EE018E7F8093EE010E94D719F3
:102250000E94BA158983813029F50F3FFFEF1F07D0
:1022600041F480E00E942F198C010F3F8FEF180777
:10227000C9F00E947F117C010097A1F0A9829C0106
:10228000AE014F5F5F4F60E8C8010E94D917970108
:10229000498160E2C8010E94C912C7010E949F11D2
:1022A0000FEF1FEF81E00F3F9FEF190709F480E068
:1022B0000E949F13898383B7816083BF889583B70A
:1022C0008E7F83BF6DCF670197CF1F920F920FB69E
:1022D0000F9211248F938091EE0181608093EE0123
:1022E0008F910F900FBE0F901F901895EEECF2E0BB
:1022F0001192119282E0E23EF807D1F70895EEECD8
:10230000F2E080E090E021913191232B81F443E2CF
:10231000489F9001499F300D11242E513D4FFC01E3
:10232000EE0FFF1FE253FD4F3183208306C001965D
:102330008A30910541F720E030E0C901089520E09E
:1023400030E063E2629FA001639F500D11244E5163
:102350005D4F8417950741F4F901EE0FFF1FE2531B
:10236000FD4F1182108208952F5F3F4F2A303105B3
:1023700049F708958091090290910A0201968F3FD2
:102380002FEF920709F002C081E090E090930A02DB
:10239000809309022091090230910A0232272327F3
:1023A0003227C9010895E091F6012E2F2F5F2430C6
:1023B00008F024503091F501231304C00E949F11AE
:1023C0008FEF0895F0E0EE0FFF1FE950FE4F91836D
:1023D00080832093F60180E008951092F601109218
:1023E000F501109200021092FF010E9476111092E6
:1023F000F0018FE38093F1011092F3011092F2014A
:1024000083E08093F40110920A02109209028FEF88
:1024100080930D020E94B1160E94CD198093EF01A6
:1024200008950F931F93CF93DF931F92CDB7DEB71D
:102430008C01FC0182818C3031F4F801838180763B
:10244000803231F407C08231C1F38A30E9F502C02D
:102450008034D1F580910002282F2F5F243008F0BE
:1024600024508091FF012817B9F129830E947F1120
:10247000AC012981009781F183E2F801DA01019032
:102480000D928A95E1F7F80182818C3009F402C03F
:10249000823121F4FA01838180688383E091000214
:1024A0008091FF01E81307C01092F3011092F2012E
:1024B0008FE08093F101F0E0EE0FFF1FEF5FFD4F23
:1024C0005183408320930002C8010F90DF91CF9188
:1024D0001F910F910C94D311C8010E949F118FEF8F
:1024E0000F90DF91CF911F910F9108952091FF01DF
:1024F00080910002821741F1E22FF0E0EE0FFF1F02
:10250000EF5FFD4F808191812F5F2093FF010E943B
:102510009F118091FF01843018F084508093FF0157
:10252000909100028091FF0198130BC0109200025D
:102530001092FF011092F3011092F2018FE3809349
:10254000F10183E08093F401089581E02091F50189
:102550009091F601291301C080E00895E091F50102
:102560008091F601E81789F08E2F8F5F843008F490
:1025700002C08E2F83508093F501F0E0EE0FFF1F15
:10258000E950FE4F2081318102C020E030E0C901D6
:102590000895CF92DF92EF92FF920F931F93CF9304
:1025A000DF9300D0CDB7DEB78C017901842F885F2F
:1025B0008432D0F54A8369830E947F116C014A817D
:1025C0006981009789F18091EF01D6018C93842F66
:1025D000895F11968C9311978CE012968C931297C9
:1025E00013966C93139710270127102715961C93A9
:1025F0000E9314974A830E94BA11F601978386833B
:1026000038964A8150E0B701CF010E94101CC601E4
:102610000F900F90DF91CF911F910F91FF90EF904E
:10262000DF90CF900C9411128FEF0F900F90DF91ED
:10263000CF911F910F91FF90EF90DF90CF90089571
:10264000EF92FF920F931F93CF93DF93E82E162FF5
:10265000F42E052F862F8A5F843228F50E947F1181
:10266000EC01009701F18091EF018883812F8B5F4E
:10267000898382E18A83EB820E94BA119D838C83D5
:102680009E012A5F3F4F412F50E06F2D702FC901EF
:102690000E94101CCE01DF91CF911F910F91FF90EE
:1026A000EF900C9411128FEFDF91CF911F910F914A
:1026B000FF90EF900895DF92EF92FF920F931F9398
:1026C000CF93DF938C01F62ED42EE52E862F895FD3
:1026D000843250F50E947F11EC01009729F180911E
:1026E000EF0188838F2D8A5F89838AE08A83102790
:1026F000012710271C830B830E94BA119E838D83B0
:102700009E01295F3F4F4F2D50E06D2D7E2DC90159
:102710000E94101CCE01DF91CF911F910F91FF906D
:10272000EF90DF900C9411128FEFDF91CF911F91FA
:102730000F91FF90EF90DF9008950C94ED11EF92C0
:10274000FF920F931F93CF93DF939091F101992301
:1027500021F091509093F101C0C09091F001992324
:1027600021F0913009F0B9C06CC08FE38093F10182
:102770008091F2019091F301009731F001979093CD
:10278000F3018093F201A9C08091F401882321F024
:1027900081508093F40103C0F8940C94000089E008
:1027A00090E09093F3018093F2010E947F11EC017D
:1027B000009709F492C08091EF018883809109020B
:1027C00090910A02892B19F484E08B8301C01B824B
:1027D00081E08C8381E09CE29E838D837E0187E093
:1027E000E80EF11C84E189838E010F5F1F4F970172
:1027F000A80161E080E09FEF0E94D91789818230B3
:10280000C8F486E089839701A80161E080EC9FEF1E
:102810000E94D9171981212F30E0CE01820F931F1A
:10282000FC014FE547831F5F198308960E94D81962
:10283000810F898389818A5F898384E08A83CE01BD
:1028400030C09FE39093F1012091F2013091F301A8
:102850002115310539F0215031093093F3012093CE
:10286000F2013BC09091F401992351F09150909363
:10287000F4012091FF0190910002291315C003C0BB
:102880000E94ED112AC0811128C00E947F1100977B
:1028900021F12091EF01FC01208322E0218326E138
:1028A00022830E94D31119C00E947F11009791F0DA
:1028B000E091FF01F0E0EE0FFF1FEF5FFD4F019091
:1028C000F081E02D23E2DC0101900D922A95E1F7E1
:1028D0000E94D3118FE08093F10180E0DF91CF91CE
:1028E0001F910F91FF90EF9008950F931F93CF9337
:1028F000DF93EC018A818C3009F4A0C070F485303C
:1029000019F120F4813009F02AC116C08A3009F487
:1029100055C08B3009F023C170C0833109F4EEC07B
:1029200020F48D3009F01BC1CDC0873109F4FCC003
:10293000883109F014C10FC183E0898382E08A8362
:102940000E94CD198B83BAC08091F001811107C11B
:102950008FE38093F1018B818111FDC081E0809331
:10296000F0011092F3011092F20183E08093F401E0
:1029700010920C0210920B028091090290910A02AF
:10298000892B09F0ECC00E94CD198F3F09F4E7C0F4
:1029900086E189838E010D5F1F4FAE014F5F5F4F50
:1029A000980161E080EC9FEF0E94D917980149815E
:1029B00061E280EC9FEF0E94C912D1C08091F001CA
:1029C000882309F4CCC08D819E8198278927982778
:1029D00020910B0230910C028217930749F09093DB
:1029E0000C0280930B02CE010E94E31680930D022D
:1029F00087E089838BE08A835EC08091F00181301B
:102A000009F0ADC0E091FF01F0E0EE0FFF1FEF5FB6
:102A1000FD4F0190F081E02D82818A3009F09FC046
:102A20008F81811106C08B819C81982789279827E7
:102A300002C080E090E00E94C4175DC08091F00168
:102A4000813009F08CC08FE38093F10183E08093A3
:102A5000F4018E819F8198278927982720910B0266
:102A600030910C028217930709F47BC090930C02FB
:102A700080930B029E01285F3F4F498147506B8135
:102A800060688C819D819827892798270E94521819
:102A900080930D028B818076803209F060C087E0E0
:102AA00089838DE08A838C819D819C838B838E8139
:102AB0009F819E838D8380910D028F83CE010E9422
:102AC000D3114BC08091F001813009F048C0E091F2
:102AD000FF01F0E0EE0FFF1FEF5FFD4F0190F0816F
:102AE000E02D82818C30D9F5268137818D819E81C0
:102AF00028173907A1F50E94761231C08091F001A4
:102B0000813069F5E091FF01F0E0EE0FFF1FEF5F0C
:102B1000FD4F0190F081E02D8281823101F5248109
:102B200035818E819F81E4CF8091F0018130B9F4AD
:102B30009091F5018091F601981311C08CE291E01B
:102B40009093F3018093F20183E08093F4018FE38B
:102B50008093F10104C00E94ED1181E006C080E085
:102B600004C08B8187FFFBCF95CFDF91CF911F9161
:102B70000F9108958091F0010895DC012C912F347C
:102B8000C1F028F4213441F0293441F412C0203539
:102B900091F0233519F40DC082E00895DC011196FF
:102BA000EC91E254E63328F4F0E0E55FFE4F8081DB
:102BB000089580E0089581E00895FF920F931F9398
:102BC000CF93DF938C0161111EC0E2E1F2E040E09F
:102BD00050E012C08017910749F48CE0849F900167
:102BE000859F300D1124225F3D4F31C04F5F5F4FF5
:102BF0003C964C30510549F1808191818F3F2FEFF8
:102C0000920741F722C0613001F5C0E0D0E08CE0CE
:102C1000F82EFC9EB001FD9E700D112468587F4F68
:102C20004CE050E080EA92E00E94FA1B8091A402FE
:102C30009091A5028017910729F02196C530D10502
:102C400041F703C020EA32E002C020E030E0C901D1
:102C5000DF91CF911F910F91FF900895BF92CF9276
:102C6000DF92EF92FF920F931F93CF93DF9300D0E9
:102C700000D0CDB7DEB7B82E00E010E0C82ED12CC2
:102C80008CE0B89E700111248EE092E0E80EF91EEF
:102C9000BE016F5F7F4FC8010E947F0044E050E09B
:102CA000B701CE0101960E94031C009771F48FEFCB
:102CB00089838A838FEF9FEF9C838B83BE016F5F35
:102CC0007F4FC8010E94860006C00C5F1F4F90E036
:102CD00000331907E9F62CE02C9DC0012D9D900DC5
:102CE0001124825F9D4F0E94A6016CE00DC0629F7F
:102CF000D001639FB00D1124A25FBD4F862F0190BC
:102D00000D928A95E1F7B3948AE08B1558F49CE014
:102D1000B99EF0011124E25FFD4F8FEF9FEF958385
:102D2000848311C02B2D30E0C9010196689FF0010A
:102D3000699FF00D1124E25FFD4F448155814F3FA3
:102D40005F4FA9F6E4CF0F900F900F900F90DF9197
:102D5000CF911F910F91FF90EF90DF90CF90BF9098
:102D6000089510929E028FE380939F02E2E1F2E0C9
:102D700080819181019611F40C94B719118210820F
:102D80003C9682E0E23AF80799F7F6CFE2E1F2E00A
:102D900020E030E080819181019659F48CE0829F9F
:102DA000F001839FF00D1124E25FFD4F1582148224
:102DB00008C02F5F3F4F3C962C30310559F7E0E0BB
:102DC000F0E0CF0108956F927F928F929F92AF9221
:102DD000BF92CF92DF92EF92FF920F931F93CF9308
:102DE000DF93CDB7DEB728970FB6F894DEBF0FBEDE
:102DF000CDBF8C01FC0187818D8380858E8391817D
:102E000020E030E03996402F40955AE01CC0819177
:102E1000682F60536A3068F038872F834E01F5E0E1
:102E20008F0E911CC4010E949401B82E882381F05A
:102E300095C0B901569F9001579F300D1124205322
:102E40003109280F311D842F8E0F891700F3E4CF2D
:102E5000F801E380F480FE24EF24FE2422E1C22E58
:102E600022E0D22E00E010E03CE0A32E782C692C6A
:102E700020C0A09EB001A19E700D1124625F7D4F05
:102E800044E050E0872D962D0E94031C009709F422
:102E900063C08E149F0421F4E114F10409F055C0BD
:102EA0000F5F1F4FFCE0CF0ED11C0C30110509F451
:102EB0004CC0F60180809180FFEF8F169F06C9F607
:102EC00047C08CE0809F6001819FD00C11246EE090
:102ED00072E0C60ED71E4D815E816F817885F60146
:102EE0004083518362837383C6010E9482018111F2
:102EF0002CC0F601F582E48200E010E0BE016F5FB5
:102F00007F4FC8010E947F0044E050E0BE016F5F28
:102F10007F4FCE0105960E94031C0097F9F089812E
:102F200081508E3F38F0BE016B5F7F4FC8010E9419
:102F3000860014C00C5F1F4FF0E000331F07F1F64E
:102F40000DC0802F0E942E1609C092E0B92E06C037
:102F5000E114F104D1F3B5CFEF2899F38B2D289626
:102F60000FB6F894DEBF0FBECDBFDF91CF911F919A
:102F70000F91FF90EF90DF90CF90BF90AF909F9018
:102F80008F907F906F900895E0919E02009749F096
:102F90002CE0E29FF0011124E25FFD4F95838483D2
:102FA0000895EC3018F48E2F0E942E1610929E0277
:102FB0000895AF92BF92DF92EF92FF920F931F930B
:102FC000CF93DF931F92CDB7DEB7D62E7A0189015A
:102FD00063700E94DD155C01009709F454C0DC01A8
:102FE0001696ED91FC911797309709F44EC0A80101
:102FF000B7010995482FD7FE49C0811147C0C501C7
:1030000049830E94BD15498187FF1DC08F7718C075
:103010009801280F311DF90131979081911108C055
:10302000F9013297908197FF0AC0F70180832EC083
:103030009F3FD9F7F9013297908197FFF6CF8150E2
:10304000823030F7F2CF882309F1F801E80FF11D43
:10305000DF0111979C9197FF04C010828F5F10C011
:103060008150813069F09801280F311DF9013197A5
:103070009081911105C0F9013297908197FFF0CFAF
:10308000D7018C9303C042E001C043E0842F0F902E
:10309000DF91CF911F910F91FF90EF90DF90BF9044
:1030A000AF900895EF92FF920F931F93CF93DF930A
:1030B000E62EF42E890163700E94DD15EC01009765
:1030C00049F188859985892B39F1E7FE17C0CE0132
:1030D0000E94BD158F77F81678F4F801EF0DF11DF9
:1030E00031979081990F990BF801EF0DF11D9083A5
:1030F000F394F812F9CF02C08111F82EE885F98512
:10310000A8016F2DCE01DF91CF911F910F91FF90FC
:10311000EF90099482E001C083E0DF91CF911F918D
:103120000F91FF90EF900895EF92FF920F931F93EE
:10313000CF93DF9300D000D0CDB7DEB781E08B8393
:103140009E012C5F3F4FAE014D5F5F4F61E080E01D
:103150009FEF0E94D9178C818F3FB9F51C829E0189
:103160002C5F3F4F40E061E080E09FEF0E945218EB
:1031700080EC8C839E012C5F3F4F41E061E080E159
:103180009FEF0E9452181C829E012C5F3F4F40E02F
:1031900061E080E09FEF0E94521884ED9DE29A83E7
:1031A00089839E012F5F3F4F42E061E081E19FEF05
:1031B0000E94521882E18C839E012C5F3F4F41E0B8
:1031C00061E082E19FEF0E94521820E03CE08FEF27
:1031D0009FEF329FF0011124E25FFD4F95838483BE
:1031E0002F5F2C30B0F32C8310929E028FE38093DC
:1031F0009F020E947A011C82F12C4CE0E42E1FC039
:10320000EF9C80011124025F1D4F24E0829FC001CA
:103210001124B801805090400E947F00F801808105
:1032200081508E3F48F4C8010E948201811104C080
:10323000F80115821482F3948C818F5F8C838C81CA
:103240008C30F0F20E9480010F900F900F900F9041
:10325000DF91CF911F910F91FF90EF900895DF9232
:10326000EF92FF920F931F93CF93DF931F92CDB7EF
:10327000DEB7E82E882309F444C010929E0241C0B4
:103280000115110541F50E947F118C01009709F489
:1032900062C080919E02F89EC0011124B801825F35
:1032A0009D4F0E94B7018983A801682F80E090E0BC
:1032B0000E945B1381110BC0E0919E02FE9EF00103
:1032C0001124E25FFD4F80E090EF95838483C80175
:1032D0000E949F1140C0011580EF1807E1F11A9676
:1032E000ED91FC911B97309731F490919E029F5F76
:1032F00090939E0208C06E2DCD0109958823A9F3F5
:103300002CC06CE0D62EA0919E02AC3080F45CE024
:10331000F52EDA9ED0011124A25FBD4F14960D91B7
:103320001C9115970F3F8FEF180709F0A9CF109246
:103330009E0280919F02882371F0815080939F02AA
:10334000811109C083E28983AE014F5F5F4F61E065
:1033500080E20E9420130FEF1FEFC8010F90DF9152
:10336000CF911F910F91FF90EF90DF900895CF9331
:10337000DF931F92CDB7DEB781E089832CEA32E07C
:10338000AE014F5F5F4F61E080E19FEF0E94D91770
:103390000F90DF91CF91089508958091AC02089528
:1033A00080E090E0089581E008950C949F110895C5
:1033B0006091AC020E94471B82E008952091640056
:1033C0002D7F209364002BB123602BB9519A509824
:1033D0009C012227307F232B31F09F702091C00069
:1033E00022602093C0009093C5008093C40088E9B8
:1033F0008093C10086E08093C2001092AD021092CB
:10340000AE0208952091AF023091B002211531052E
:1034100021F01092B0021092AF02C9010895E0911C
:10342000AE022E2F2F5F243008F020E03091AD0245
:10343000231302C00C949F11F0E0EE0FFF1FEF5416
:10344000FD4F918380832093AE028091C100806202
:103450008093C10008951F920F920FB60F9211240E
:103460002F933F934F935F936F937F938F939F938C
:10347000AF93BF93CF93EF93FF93C091C60080911A
:10348000B90290910001C03C09F5891311C08091E7
:10349000AF029091B002009711F00E949F118091AD
:1034A000BA029091BB029093B0028093AF0208C021
:1034B000833030F08091BA029091BB020E949F113C
:1034C0001092B90282E0809300013BC08917B0F5E9
:1034D000CB3D21F481E08093BC0233C09091BC02CB
:1034E000992321F01092BC0290E2C927811104C0F7
:1034F000C093BD0281E023C08130B9F48C2F82508B
:103500008F31E0F48D5F809300010E947F1100975E
:1035100009F414C09093BB028093BA022091BD02BB
:10352000FC012083C18382E00AC0E091BA02F091DD
:10353000BB02E80FF11DC0838F5F01C08FEF809346
:10354000B902FF91EF91CF91BF91AF919F918F9170
:103550007F916F915F914F913F912F910F900FBE8F
:103560000F901F9018951F920F920FB60F92112473
:103570002F933F934F935F936F937F938F939F937B
:10358000AF93BF93EF93FF932091AE02809101011F
:103590009091BE02891768F5809301019093BE0255
:1035A000E091AD02F0E0EE0FFF1FEF54FD4F0190F0
:1035B000F081E02DE80FF11D90812091BF022223C0
:1035C00039F01092BF0220E229272093C6000DC0D7
:1035D000903C11F09B3D39F48BED8093C60081E067
:1035E0008093BF0243C09093C6008F5F8093010118
:1035F0003DC089131DC080EC8093C6008FEF80937F
:1036000001011092BE02E091AD02F0E0EE0FFF1F4B
:10361000EF54FD4F808191810E949F118091AD02F6
:103620008F5F8093AD02843008F11092AD021EC00E
:103630003091AD0232130CC0809301019093BE0211
:103640008091C1008F7D8093C1001092BE020EC098
:10365000E091AD02F0E0EE0FFF1FEF54FD4F01903F
:10366000F081E02D91819F5F80E094CFFF91EF91F9
:10367000BF91AF919F918F917F916F915F914F918A
:103680003F912F910F900FBE0F901F901895262FEE
:1036900022952F702A3010F0295C01C0205DFC01BA
:1036A00020836F706A3010F0695C01C0605DFC01BE
:1036B000618382E00895FC0181E020E137E240E08F
:1036C00090E004C0621B730B9F5F41E062177307B9
:1036D000C8F7283E53E0350789F0203157E2350717
:1036E00021F02436310539F403C028EE33E008C058
:1036F0002AE030E005C021E030E002C024E630E0FE
:10370000442329F0905D91938F5F41E090E02A304F
:103710003105E0F6605D60830895DB018F939F9330
:103720000E94DB1BBF91AF91A29F800D911DA39FB3
:10373000900DB29F900D11240895A1E21A2EAA1B9C
:10374000BB1BFD010DC0AA1FBB1FEE1FFF1FA21751
:10375000B307E407F50720F0A21BB30BE40BF50B4E
:10376000661F771F881F991F1A9469F760957095D7
:10377000809590959B01AC01BD01CF010895052E68
:1037800097FB16F4009407D057FD0DD00E949D1BA7
:1037900007FC09D07EF490958095709561957F4FD8
:1037A0008F4F9F4F089550954095309521953F4FED
:1037B0004F4F5F4F08950E94EE1BA59F900DB49F41
:1037C000900DA49F800D911D11240895B7FF0C94B6
:1037D000DB1B0E94DB1B821B930B0895A29FB00191
:1037E000B39FC001A39F01D0B29F700D811D112412
:1037F000911D0895FB01DC0102C005900D9241501E
:103800005040D8F70895FB01DC0104C08D91019070
:10381000801921F441505040C8F7881B990B089536
:10382000FB01DC0102C001900D9241505040D8F7DD
:103830000895DC01CB01FC01F999FECF06C0F2BD71
:10384000E1BDF89A319600B40D9241505040B8F75E
:103850000895F999FECF92BD81BDF89A992780B558
:103860000895DC01CB0103C02D910E943C1C415006
:103870005040D0F70895262FF999FECF1FBA92BD78
:1038800081BD20BD0FB6F894FA9AF99A0FBE019641
:063890000895F894FFCF3B
:1038960002FF00FFFFFFFFFFFFFF01010004000022
:1038A6000000000000000000000000000000000012
:1038B600020000000000000000000000008400007C
:1038C600000000000000000000008800000000006A
:0238D60082006E
:00000001FF
