:1000000017C1000031C100002FC100002DC1000048
:100010002BC1000029C1000027C100000C94D71893
:1000200023C1000021C100001FC100001DC100004C
:100030001BC1000019C1000017C1000015C100005C
:1000400013C1000011C100000C94281C0C94521C18
:100050000BC1000009C1000007C1000005C100007C
:100060000C945A1B01C100004B10751053107510F1
:100070007510751075107510751075107510751058
:100080007510751075107510751075107510751048
:1000900075104F107510751075107510751075105E
:1000A00075107510751057104B1075105310751092
:1000B0007510751075107510751075107510751018
:1000C0007510751075107510751057107510751026
:1000D00075104F10751075104B109B10BA10A110B1
:1000E000BA10BA10BA10BA10BA10BA10BA10BA10C0
:1000F000BA10BA10BA10BA10BA10BA10BA10BA10B0
:10010000BA10BA109E10BA10BA10BA10BA10BA10BB
:10011000BA10BA10BA10BA10A4109B10BA10A110DD
:10012000BA10BA10BA10BA10BA10BA10BA10BA107F
:10013000BA10BA10BA10BA10BA10BA10A410BA1085
:10014000BA10BA109E10BA10BA109B10761B041C7D
:10015000041C041C041C041C041C041C761B041C2E
:10016000041C041C041C041C041C041C991B041CFB
:10017000041C041C041C041C041C041C8D1B041CF7
:10018000041C041C041C041C041C041C991B041CDB
:10019000041C041C041C041C041C041CB01B041CB4
:1001A000041C041C041C041C041C041C041C041C4F
:1001B000041C041C041C041C041C041CD71B041C6D
:1001C000041C041C041C041C041C041C8D1B041CA7
:1001D000041C041C041C041C041C041CC81B041C5C
:1001E000041C041C041C041C041C041CEC1B101127
:1001F00012131415FEFEFEFFFFFFFFFFFEFE0001BF
:10020000020304050607101112131415FFFFFFFF68
:100210001A1B1C1D1E1F0809FFFF250028002B00AC
:100220000100FFFF089F01CF0067003300190000A5
:1002300011241FBECFEFD8E0DEBFCDBF11E0A0E09C
:10024000B1E0E8E9FBE302C005900D92A23CB107E2
:10025000D9F727E0A2ECB1E001C01D92AD33B2079F
:10026000E1F796D60C94CA1DCBCEE2ECF1E082ED1C
:1002700091E011921192E817F907D9F7BED3F3D1A3
:100280003EC6FC019081993449F018F4913451F044
:100290000BC09F3419F0903519F006C0CF01CCC3C4
:1002A000CF010BC5CF01F1C180E00895FC01178299
:1002B000168211861086138612868081893449F051
:1002C00018F4813451F00BC08F3419F0803519F0D7
:1002D00006C0CF01C5C3CF0109C5CF01E9C183E085
:1002E0000895FC019081993449F018F4913451F04B
:1002F00008959F3419F0903519F00895CF0156C430
:10030000CF0124C5CF011AC26091C2017091C3010F
:100310006817790731F1A4ECB1E042ED51E0FD013D
:1003200005C02191319128173907D9F0E417F50755
:10033000C1F7672B41F021E030E0F9016D917D912B
:10034000672B51F402C0E0E0F0E0EE0FFF1FEE5328
:10035000FE4F9183808308952F5F3F4FA417B50709
:1003600061F708950F931F93CF93DF93C2ECD1E011
:1003700002ED11E0E991F991309709F00995C01764
:10038000D107C1F7DF91CF911F910F910895FC0123
:10039000828193810E949519982F977021E030E017
:1003A00002C0220F331F9A95E2F7869586958695AF
:1003B000E82FF0E0ED50FE4F8081282381E009F422
:1003C00080E00895CF93DF93EA01FC01828193815D
:1003D0000E949519E82FE695E695E695F0E0ED5038
:1003E000FE4F982F977021E030E002C0220F331F9C
:1003F0009A95E2F72095908129232083E82FF0E059
:10040000EE0FFF1FE752FE4F898190E0982F88275B
:100410002881822B9183808380E0DF91CF910895A2
:100420000E9495198F3F61F0E82FF0E0E551FE4FF3
:1004300090819F3F39F40E949F198E3F29F0D9C3C4
:1004400082E0089581E0089580E00895CF92DF92E0
:10045000EF92FF920F931F938091D7019091D80153
:10046000009719F58091D601E82FF0E0E551FE4F95
:1004700060816F3F49F48F5F883019F08093D60117
:1004800097C01092D60194C00E94B81981E090E004
:100490009093D8018093D7011092D2011092D3018A
:1004A0001092D4011092D50183C02091E9013091BE
:1004B000EA01A9014B5F5F4F8417950748F50E9439
:1004C000C2192091D7013091D8012F5F3F4F30934F
:1004D000D8012093D7012530310508F469C0092ED1
:1004E000000CAA0BBB0B4091D2015091D30160913B
:1004F000D4017091D501840F951FA61FB71F80935B
:10050000D2019093D301A093D401B093D50150C0F0
:100510002F5F3F4F40E050E06091D2017091D301D6
:100520008091D4019091D5010E94301D2093D20179
:100530003093D3014093D4015093D5018091D601DB
:10054000682F70E0FB01EE0FFF1FE752FE4F0081A6
:1005500011816801110FEE08FF082C153D054E05AD
:100560005F05D1F0660F771FFB01E752FE4F318325
:100570002083E82FE695E695E695F0E0ED50FE4FF6
:10058000982F977021E030E002C0220F331F9A9518
:10059000E2F79081292B20831092D8011092D70185
:1005A0008F5F883019F08093D60102C01092D60177
:1005B0001F910F91FF90EF90DF90CF9008950F93D0
:1005C0001F93CF93DF938B01EA01FC01828193811A
:1005D0000E949519E82FE695E695E695F0E0ED5036
:1005E000FE4F982F977021E030E002C0220F331F9A
:1005F0009A95E2F7209590812923208392E0F801D3
:100600009083E82FF0E0EE0FFF1FE752FE4F90813E
:1006100081819883898380E0DF91CF911F910F9131
:100620000895CF93DF931F92CDB7DEB782E0898321
:1006300029EE31E0AE014F5F5F4F61E088E09FEF50
:100640000E945E118091E9019091EA01893E9D4FDF
:1006500030F080E590E09093EA018093E9010F90FB
:10066000DF91CF910895ABEEB1E0E9EDF1E029EE35
:1006700031E08FEF8D9311921192E217F307D1F7CA
:10068000E3EFF1E010821182CCCFFC012181293609
:1006900011F0263751F4FC0182819381C1DE91E093
:1006A000823009F490E0892F01C080E081700895C4
:1006B000FF920F931F93CF93DF93EC010A811B816D
:1006C000C801AEDE811133C0C8010E949519F82E11
:1006D000082F10E08981893619F0863729F002C089
:1006E00082E003C08FEF01C081E0F801E551FE4FC9
:1006F00080838F2D0E949F198E3F08F499D2F801B4
:10070000E551FE4F60818F2D0E94A9198FED92E077
:100710009F838E8382EE91E09987888787EC91E0B2
:100720009B878A8786E292E0EFDD80E001C082E06D
:10073000DF91CF911F910F91FF900895CF93DF9399
:10074000FC01C281D381CE016BDE8130A1F4CE01E8
:100750000E949519C82FE82FF0E0E551FE4F8FEF6A
:1007600080836FEF8C2F0E94A9198C2F0E949F19F4
:100770008E3F08F478D2DF91CF910895FC018281F9
:1007800093810E94CF19E82FE695E695E695E15012
:10079000F0E0E850FE4F282F277081E090E002C083
:1007A000880F991F2A95E2F79081982381E009F438
:1007B00080E008952F923F924F925F926F927F92C6
:1007C0008F929F92AF92BF92CF92DF92EF92FF9261
:1007D0000F931F93CF93DF9300D000D0CDB7DEB738
:1007E00001E012E08EEF91E09C838B830F2EF5EFFA
:1007F000EF2EF1E0FF2EF02D0F2EFBEFCF2EF1E0CC
:10080000DF2EF02D0F2EF8EFAF2EF1E0BF2EF02DE2
:1008100055245394412C332433948B809C8038018D
:10082000D8012C902094F4018081282261F1852D3B
:100830000E94081A822148E0542D232DF601FA82E5
:10084000E982922F9221D9F0D6016C91382F362768
:10085000392339F090956923982F9223692B60836F
:100860000EC0D7016C91382F3627932341F06927AA
:10087000A981BA816C93D5013C91932B9C93220F53
:1008800041505109F1F60F5F1F4FEB81FC8131960A
:10089000FC83EB83D4016C916095F3017080762228
:1008A00081F04701D7016C91672119F0852D0E94D5
:1008B000141AF40160816095672119F0852D0E945A
:1008C000201A5394FFEFEF1AFF0A8FEFC81AD80AC5
:1008D0009FEFA91AB90AA4E05A129FCF0F900F9068
:1008E0000F900F90DF91CF911F910F91FF90EF909C
:1008F000DF90CF90BF90AF909F908F907F906F9040
:100900005F904F903F902F9008950F931F93CF9338
:10091000DF93EC018A018A819B810E94CF19982F75
:10092000977061E070E002C0660F771F9A95E2F75A
:10093000F8014081282F269526952695215030E0F4
:10094000862F8095F901E850FE4F9081982390837F
:1009500099819E3609F4409540FF07C0F901EB509C
:10096000FE4F8081682B608306C0F901EB50FE4F7B
:1009700090818923808380E0DF91CF911F910F9137
:100980000895EF92FF920F931F93CF93DF93EC01A3
:100990007B018A018A819B810E94CF19E82F982FC1
:1009A000977021E030E0A90102C0440F551F9A95CD
:1009B000E2F7CA01E695E695E695E150F0E0DF0141
:1009C000AB50BE4F3C91E850FE4F40952081242310
:1009D000208329812E3609F4309591E0F701908328
:1009E000832309F490E0F801908380E0DF91CF91B8
:1009F0001F910F91FF90EF900895CF93DF93E1E067
:100A0000F2E02EEF31E08BEF91E0C8EFD1E065EF3F
:100A100071E044E052E01192D9011D929D01DC0188
:100A20001D92CD011992DB011D92BD01E417F5075E
:100A300091F7DF91CF910895FC0121812E3611F0BD
:100A4000203759F4FC01828193810E94CF1991E0F3
:100A50008F3F09F490E0892F01C080E081700895F4
:100A6000CF92DF92EF92FF920F931F93CF93DF937A
:100A70006C01FC01828193810E94CF19182F169579
:100A8000169516951150982F9770C1E0D0E002C0CE
:100A9000CC0FDD1F9A95E2F7E12EF12CF701E25021
:100AA000FE4F90812C2F292309F074C0F701EF5FCE
:100AB000FD4F20812C2309F06FC00C2F0095F7010A
:100AC000E850FE4F208120232083F60120812F341F
:100AD00039F525E834E03187208768E00E94D9198C
:100AE000F701EF5FFD4F80818C2B8083F6018181C0
:100AF000803759F46C2F812F0E94201AF701EB5098
:100B0000FE4F80810823008340C06C2F812F0E94FC
:100B1000141AF701EB50FE4F8081C82BC08335C0FB
:100B200021EC34E0F6013783268325E834E0318771
:100B300020872EEB33E033872287F701E250FE4F08
:100B40009C2B9083F6019181903781F460E00E94A4
:100B5000D919F701E550FE4F808180238083F7018A
:100B6000EB50FE4F8081082300830FC061E00E949C
:100B7000D919F701E550FE4F80818C2B8083F70156
:100B8000EB50FE4F8081C82BC0838AED93E0BCDB25
:100B900080E003C082E001C082E0DF91CF911F912D
:100BA0000F91FF90EF90DF90CF900895FC0182812C
:100BB00093810E94CF19E82FE695E695E695E150DE
:100BC000F0E0982F977021E030E002C0220F331F31
:100BD0009A95E2F72095DF01AF5FBD4F9C9192237C
:100BE0009C93E250FE4F90812923208360E00C9477
:100BF000D919982F977021E030E002C0220F331FDF
:100C00009A95E2F7869586958695815090E0FC014D
:100C1000E250FE4F4081422349F4FC01EF5FFD4F5B
:100C20008081282381E019F480E0089581E008950F
:100C3000982F977021E030E002C0220F331F9A9561
:100C4000E2F78695869586958150E82FF0E0DF01E2
:100C5000AF5FBD4F8C91822B8C93E250FE4F808111
:100C6000282B20830895E82FE695E695E695E15038
:100C7000F0E0282F277081E090E002C0880F991FD4
:100C80002A95E2F78095DF01AF5FBD4F9C919823D5
:100C90009C93E250FE4F9081892380830895FA014E
:100CA000618170E0762F66272081622BFC018281B2
:100CB00093810E94001B80E00895CF93DF93FC0195
:100CC0002181C281D3812E3611F0203749F4CE0123
:100CD0000E94CF198F3F31F0CE010E942D1A03C020
:100CE00080E001C080E0DF91CF910895FF920F93E3
:100CF0001F93CF93DF938C01FC01C281D381CE017E
:100D00000E94CF19F82E75DF811117C0CE010E9405
:100D1000411A811114C08F2D8BDF61E0F8018181B0
:100D20008E3609F060E0CE010E94731A8FE496E0DF
:100D3000F8019187808780E003C082E001C082E0F3
:100D4000DF91CF911F910F91FF900895CF93DF9383
:100D5000FC01C281D381CE010E94CC1ACE010E9437
:100D6000CF1981DFDF91CF9108950F931F93CF9318
:100D7000DF93E0910802F0910902309709F43CC03A
:100D8000D3818D2F807E09F04EC0CD2FC071D4FF4E
:100D90000AC0C581C11149C0CF019CD1109209027E
:100DA0001092080243C00E94CE18009104021091D4
:100DB00005022091060230910702DC01CB01801B65
:100DC000910BA20BB30B8B3F9105A105B10560F010
:100DD000D3FD0E94441BE0910802F0910902838137
:100DE00080628383C1E022C01D2F1870D3FD1EC016
:100DF0000E944D1BC12F1AC0C0910501CC23B1F038
:100E000080E091E0C0D190930902809308020E9493
:100E1000CE186093040270930502809306029093AB
:100E20000702C0E003C0C1E001C0C1E08C2FDF9128
:100E3000CF911F910F910895E0910802F09109025E
:100E40003097E1F09A01DB01458194E0940F9C9387
:100E5000492F50E060910802709109026E5F7F4F48
:100E6000C9010E949A1D809108029091090232D115
:100E7000109209021092080280E0089581E008951E
:100E8000EF92FF921F93CF93DF93643078F17A0152
:100E9000162F86E390E0C2D0EC01412F50E0B7015D
:100EA00002960E949A1D8B8183708B836CEF610F79
:100EB0006C83662311F081608B838D81882329F0F8
:100EC0009B8192609B83863218F48B81837021F41E
:100ED000CE0100D183E00DC0BE0180E091E01ED1C3
:100EE000811106C0CE01F6D081E003C083E001C0CD
:100EF00080E0DF91CF911F91FF90EF900895CF9305
:100F0000DF9300D0CDB7DEB7BE016E5F7F4FCE015D
:100F100001960E94231B89818BDE8A8189DE81E014
:100F20000E942A1B811105C089819DDE8A819BDE7A
:100F30002AC08091080290910902009729F0CAD036
:100F400010920902109208020E942A11FC01892BBA
:100F500041F4898188DE8A8186DE80E00E942A1B36
:100F600012C08CE197E09783868380E497E09187B5
:100F7000808785EB96E09387828784E5808381E68E
:100F80008183138212820F900F90DF91CF91089589
:100F90000E94931828D00E94C1110E94F1170E944C
:100FA0002B1660D410920A020E94A41880910A02A3
:100FB000882341F080910A02815080930A020E94A6
:100FC0002F15ADD40E942418009709F019D10E9462
:100FD000BF16009759F3A9D3E9CF80910A028F5F1A
:100FE00080930A020895EFE0F2E084E192E09183B9
:100FF000808313821282EBE0F2E0118210828FEF85
:1010000093E093838283A3E1B2E014969C938E9342
:1010100013971296FC93EE9311970895CF93DF9355
:101020000FB6F8940F92EC012496CF3F83E0D807D7
:1010300010F00E944619E0910F02F0911002AFE00B
:10104000B2E002C0DF01F901228133812C173D0794
:1010500028F42081318121153105A1F782E0EB30A0
:10106000F80779F18D919C91119704962081318137
:101070002D933C93228133812C1B3D0B293031056C
:1010800020F1BF016C0F7D1FDB0113963C932E9363
:101090001297D383C28312964D915C911397AFE060
:1010A000B2E001C0DF01ED91FC9111972281338103
:1010B00024173507B8F3EB01F983E8836D937C932C
:1010C00004C00E94461980E090E00F900FBEDF91AF
:1010D000CF910895CF93DF930097E9F0BC0164505E
:1010E00071090FB6F8940F92EB014A815B81AFE072
:1010F000B2E001C0DF01ED91FC91119722813381B3
:1011000024173507B8F30497EC01F983E8836D934E
:101110007C930F900FBEDF91CF910895FC01892B36
:1011200071F16115710569F10FB6F8940F92DB0149
:101130001D921C92A081B181109739F47183608354
:101140007383628381E0858316C08481882361F084
:10115000258130E02F5F3F4F90E08217930724F402
:101160000F900FBE80E008956D937C937183608330
:1011700085818F5F85830F900FBE81E0089580E0A9
:10118000089580E00895FC01892BD9F00FB6F894FA
:101190000F92A281B381109779F08581882311F095
:1011A000815085838D919C91119793838283892BA4
:1011B00019F41182108215820F900FBE8A2F9B2F77
:1011C000089580E090E00895CF92DF92EF92FF9231
:1011D000CF93DF93EB01861B970B6C01E12CF12C75
:1011E0000E94B418DC01A70196010E94611D8C0FBA
:1011F0009D1FDF91CF91FF90EF90DF90CF900895EA
:10120000DF92EF92FF920F931F93CF93DF93EC0146
:1012100081E02A8190912206291380E09D819C30F3
:1012200009F40EC198F4923009F481C030F4992386
:1012300029F1913009F452C06AC29A3009F4A9C068
:1012400008F0C7C0953009F48CC061C2983109F428
:10125000A7C150F4933109F466C1973109F48EC1E6
:101260009D3009F054C236C1943409F4E2C19E3F66
:1012700009F430C2933409F04AC2B2C190911F06FA
:101280009230C1F48A81809322068E818093210658
:1012900081E08093200613E010931F0664E670E05F
:1012A00088EC90E091DF90931C0680931B061093CE
:1012B0001A062DC2953009F02AC2882309F427C2E4
:1012C00080912006813009F022C2109219061092F6
:1012D00018061A82CE010E94AF161FC280911F0607
:1012E000823009F014C220911A0630E043E050E049
:1012F000421B530BE4EFF1E04E9FB0014F9F700D86
:101300005E9F700D11246C597F4F84E090E0821B2A
:10131000930B9C012E9FC0012F9F900D3E9F900D1F
:10132000112452DF90931C0680931B06F0C180911C
:101330001F06823009F0EBC18A81809322068E81DC
:101340008093210613E010931F0664E670E088EC9A
:1013500090E03ADF90931C0680931B0610931A06C8
:10136000D6C1882309F4D3C18E818111D0C1809167
:101370001F06833009F0CBC184E080931F0688EC00
:1013800090E090931C0680931B0683E080931A06DE
:10139000BEC190911F06953009F0B9C1882309F4A8
:1013A000BCC180911706863131F488EC90E09093AF
:1013B0001C0680931B06CE0104960E9434138A8774
:1013C00087E08B838C838BE08D83CE010E94121883
:1013D000A4C1882309F49BC180911F0684508230E8
:1013E00008F095C1809117068A3009F090C1E0910C
:1013F0001506F091160690858885981388C1918509
:101400008985981384C1CF0165DE86E18093170634
:101410008A85811107C08E8190E0982F88272F81BF
:10142000822B02C080E090E00E94111388EC90E0D3
:1014300090931C0680931B0683E080931A0667C175
:10144000882309F464C180911F06853009F05FC1CB
:10145000DE80EF80F12CFE2CEE248885E82A0985B9
:1014600010E0102F00278A85082BC801DD203CF4EE
:1014700020911306309114062817390779F04C8112
:1014800047509E01255F3F4F6D2D8E2D9F2D0E9451
:10149000F3148A8710931406009313068D2D80761B
:1014A000803209F034C180911706863131F488EC1E
:1014B00090E090931C0680931B0687E08B838C83BF
:1014C0008DE08D83FE82EF8218870987CE010E940E
:1014D000121823C1882309F41AC180911F06845071
:1014E000823008F014C1809117068C3009F00FC1CA
:1014F000E0911506F091160691858885981307C12D
:1015000092858985981303C1CF01E4DD86E180933C
:10151000170683E080931A0688EC90E090931C06EF
:1015200080931B06F4C0882309F4F1C080911F0644
:10153000843009F0ECC080911706823109F0E7C0D1
:10154000E0911506F0911606978189859813DFC002
:1015500090858A859813DBC0CF01BCDD86E180933E
:10156000170685E080931F0683E080931A0688ECB7
:1015700090E090931C0680931B06C9C0882309F451
:10158000C6C080911F06853009F0C1C080E395E791
:1015900090931C0680931B0683E080931A06B7C0C5
:1015A00090911F06933068F481E08093200681E0DB
:1015B00090E090931C0680931B0683E080931A06AC
:1015C000A6C0882309F4A3C08AE090E090931C068B
:1015D00080931B0683E080931A0610921F0697C023
:1015E00080911F06813009F092C020911A0630E0E8
:1015F00043E050E0421B530BE4EFF1E04E9FB0019B
:101600004F9F700D5E9F700D11246C597F4F84E0C9
:1016100090E0821B930B9C012E9FC0012F9F900D89
:101620003E9F900D1124D0DD90931C0680931B06E5
:101630006EC080911F06813009F069C08F8190E0F3
:10164000982F88272885822B20911D0630911E0611
:101650008217930709F05BC00E949018FC018081FB
:101660008F3F19F406E011E002C005E010E00E948F
:10167000BF17FC0180818F3F11F40F5F12608C81D6
:10168000801345C07E01F9E0EF0EF11C10FF42C04F
:101690000E949018FC01908189859817C1F19701EB
:1016A00041E061E080E19FEF52D611FF0AC07E0168
:1016B000FAE0EF0EF11C970141E061E080E19FEF5D
:1016C00046D610921F0681E090E090931C0680930E
:1016D0001B061DC090911F069530C9F48823B9F0F0
:1016E0009C818F81823099F4953089F488858A8332
:1016F0004B8145504B8350E0BE01675F7F4FCE0169
:1017000004960E949A1DCE010E94AF1606C0CE011B
:10171000E1DC03C011FDCFCFD4CFDF91CF911F917A
:101720000F91FF90EF90DF9008950F931F93CF9349
:10173000DF93EC0180911F06853009F08CC08D810C
:101740008E3058F48A3008F063C08130B9F080F1EF
:10175000823071F1843089F17EC0883109F458C03B
:1017600030F4823109F454C0863139F174C08334C5
:1017700009F44EC08E3F09F06EC04AC08E81909130
:101780002006891711F0811166C0913039F481E08B
:1017900090E090931906809318065DC064E670E0AF
:1017A00084EF91E011DD909319068093180653C0E1
:1017B00010921906109218064EC086E390E02EDCB7
:1017C0008C0185E0F80184838EEF8583168282E0A8
:1017D00087838A81808788E081878CE0828781E6A1
:1017E00083878FEF848788EC85878AEB8687878756
:1017F0000E94AC17F801808B882324F08FEF818B37
:101800008EE001C08DE0F8018383C8010E941218A8
:101810008B8125E0280F2333F0F48C5F853050F066
:10182000FE01E80FF11DDF0111979C919483815017
:101830008430B1F72B8385E08C838EEF8D831E82FD
:1018400082E08F838A818887809122068A83CE01F5
:101850000E94121802C0CE013DDCDF91CF911F9192
:101860000F910895CF93DF931F92CDB7DEB781E03C
:10187000898322E236E0AE014F5F5F4F61E084E191
:101880009FEF1CD50E949018FC0180818F3F21F4AE
:1018900081E080931F0615C00E94BF17FC01808164
:1018A0008F3F21F481E080931F060BC080912206B8
:1018B0008F3F21F482E080931F0603C083E0809372
:1018C0001F061092210681E08093200688EC90E0AC
:1018D00090931C0680931B0683E080931A06109257
:1018E0001E0610921D068FEF9FEF909314068093B3
:1018F000130680911706863139F080911506909174
:101900001606009709F0E6DB86E180931706109231
:101910001906109218060F90DF91CF910895EF925B
:10192000FF920F931F93CF93DF931F92CDB7DEB734
:1019300080911806909119060097B9F0019790933D
:10194000190680931806892B81F486E390E066DB04
:10195000FC01128283E08383848382E0858380910B
:1019600021068683CF010E94AF1680911B069091BD
:101970001C06009741F0019790931C0680931B066C
:10198000892B09F04CC280911F06823009F41BC1DB
:1019900038F4882309F49AC0813009F4A3C03FC207
:1019A000843009F4D3C108F459C1853009F037C235
:1019B00080911A06882349F0815080931A069091ED
:1019C00017069C3009F044C009C081E090E0909374
:1019D0001C0680931B0610921F0621C223E030E0F4
:1019E000A901481B5109BA01660F771F640F751FC3
:1019F000660F771F660F771F29E1249FC001259F7F
:101A0000900D1124E1DB90931C0680931B0600913E
:101A1000150610911606F801868180768032A1F4B1
:101A200086E390E0FBDA8C01809115069091160612
:101A300026E3FC01D80101900D922A95E1F7FC0103
:101A4000268120682683E8C186E180931706E4C1D9
:101A50009A3041F523E030E0A901481B5109BA0151
:101A6000660F771F640F751F660F771F660F771F4E
:101A700029E1249FC001259F900D1124A5DB90939F
:101A80001C0680931B0686E390E0C8DA8C01E09187
:101A90001506F091160686E3D80101900D928A95FD
:101AA000E1F7BAC186E390E0B9DA8C0180912206B1
:101AB000F801828382E08383848386E1858380E3E7
:101AC00095E790931C0680931B06A6C10E94F11710
:101AD0000E942B16C7DE8AE090E090931C0680934C
:101AE0001B069DC120911A062223B1F1215020939B
:101AF0001A0630E043E050E0421B530BE4EFF1E004
:101B00004E9FB0014F9F700D5E9F700D11246C5958
:101B10007F4F84E090E0821B930B9C012E9FC001BD
:101B20002F9F900D3E9F900D11244EDB90931C062D
:101B300080931B0686E390E071DA8C010E94B41852
:101B400090931E0680931D060E949018FC018081D0
:101B50008F3FB1F0F12C19C080912006833038F40A
:101B60008F5F8093200683E080931A0658C188EB2C
:101B70009BE090931C0680931B0610921F064FC19A
:101B800081E0F8018187FF24F3940E94BF17FC01D4
:101B900080818F3F31F4F801EF0DF11D81E08187E5
:101BA000F394F801128283E4858380912006868372
:101BB00080911D0690911E069783808785E08F0D8A
:101BC0008383848329C120911A06222399F121500D
:101BD00020931A0630E043E050E0421B530BE4EF41
:101BE000F1E04E9FB0014F9F700D5E9F700D11246C
:101BF0006C597F4F84E090E0821B930B9C012E9FD9
:101C0000C0012F9F900D3E9F900D1124DDDA90931F
:101C10001C0680931B0686E390E000DA8C01FC0131
:101C2000128283E08383848381E085838091200610
:101C30008683F2C080912006833038F48F5F8093D2
:101C4000200683E080931A06EAC088EB9BE090931D
:101C50001C0680931B0610921F06E1C080911A0695
:101C6000882309F45CC0815080931A0664E670E012
:101C700084EF91E0A9DA90931C0680931B0686E31B
:101C800090E0CCD98C0180912206F801828384E017
:101C90008583868381E0878380878CE281877801D2
:101CA000FAE0EF0EF11C87E189839701AE014F5FE7
:101CB0005F4F61E080E09FEF01D38981823050F572
:101CC00086E089839701AE014F5F5F4F61E080EC52
:101CD0009FEFF4D28981E80EF11C9FE5F701908314
:101CE0008F5F89830E949018FC018081982F9295C4
:101CF0009F709A3010F0995C01C0905DF70191835C
:101D00008F708A3010F0895C01C0805DF70182839A
:101D100089818E5F8A5FF801838384837DC01092FE
:101D20001E0610921D0681E08093200683E08093BA
:101D30001A0664E670E084EF91E046DA90931C06A0
:101D400080931B0682E080931F0669C080911A066B
:101D5000882309F1815080931A0623E030E0A9011D
:101D6000481B5109BA01660F771F640F751F660F74
:101D7000771F660F771F29E1249FC001259F900DD3
:101D8000112422DA90931C0680931B06809117067B
:101D90008A3051F40BC081E090E090931C06809350
:101DA0001B0610921F063BC0823179F486E390E057
:101DB00035D98C01E0911506F091160686E3D8011D
:101DC00001900D928A95E1F727C08C3009F50091BA
:101DD000150610911606F801868180768032A1F4EE
:101DE00086E390E01BD98C01809115069091160630
:101DF00026E3FC01D80101900D922A95E1F7FC0140
:101E000026812068268308C086E18093170604C0D7
:101E100086E18093170603C0C8010E9412180F9034
:101E2000DF91CF911F910F91FF90EF9008958091D6
:101E30001F06089581E090911706963109F080E021
:101E40000895CF92DF92EF92FF920F931F93CF935B
:101E5000DF931F92CDB7DEB7F82EE62ED42EC52E17
:101E600086E390E0DBD88C0120911D0630911E06A0
:101E70002F5F3F4F2F3F8FEF380729F030931E061B
:101E800020931D0606C081E090E090931E0680938B
:101E90001D0620911D0630911E06ECE0FE1216C0B4
:101EA000F801E682C782D086318722878BE2898358
:101EB0009801255F3F4FAE014F5F5F4F6E2D8D2D17
:101EC0009C2D0DD58981895F89831FC0FAE0FF129F
:101ED0000DC0F801C682D78230872187B801665FBE
:101EE0007F4F8E2D37D38A5F89830FC0F2E1FF12B7
:101EF00009C0F801E6823783208783E2818786E084
:101F0000898303C0C801E6D81AC080912206F8016F
:101F10008283898183838483F0921706F5821093EC
:101F200016060093150680911F068450823038F4FF
:101F300010921C0610921B0683E080931A060F90E5
:101F4000DF91CF911F910F91FF90EF90DF90CF9095
:101F50000895637041F52091290630912A062817CB
:101F6000390751F0E5E3F6E021E030E040815181AE
:101F70004817590779F402C020E030E0C901880F02
:101F8000991F820F931F880F991F880F991F8B5DD0
:101F9000994F08952F5F3F4F3C962531310531F71A
:101FA00080E090E00895613029F581152FEF9207C8
:101FB00051F0EFE1F1E021E030E04089518948172C
:101FC000590779F402C020E030E0C901880F991F59
:101FD000820F931F880F991F880F991F815E9E4F54
:101FE00008952F5F3F4F3C962930310531F780E04F
:101FF00090E0089580E090E00895FC0190819F3486
:1020000051F028F4913429F1993439F404C0903511
:1020100001F1933511F480E008958181873579F0DD
:1020200028F48234C1F0843471F011C0813769F032
:10203000873719F0843659F404C082E8089582E0A5
:10204000089584E8089584E0089588E8089580E07C
:10205000089582E0089581E00895CF92DF92EF9293
:10206000FF920F931F93CF93DF931F92CDB7DEB7ED
:10207000FC011982E280F380E1810E2F10E0F8016B
:10208000E254F109E933F10580F58A016B01EC5C5A
:10209000FF4F0C944C1D81E0FB0180831CC082E04B
:1020A000FB01808318C084E0FB01808314C041E001
:1020B00050E0B701CE0101960E94A31D9981F6015F
:1020C0008081981708F4892FF6018083882371F0A6
:1020D000FFEFEF1AFF0AF6019081492F50E0B70198
:1020E000C8010E94A31D80E001C083E00F90DF9132
:1020F000CF911F910F91FF90EF90DF90CF900895B7
:10210000EF92FF920F931F93CF93DF931F92CDB760
:10211000DEB7FC016983E280F380E1810E2F10E0DD
:10212000F801E254F109E933F10520F58A01E35998
:10213000FF4F0C944C1D81E0898313C082E089839A
:1021400010C084E089830DC041E050E0B701CE01AA
:1021500001960E94B31D8981882369F08FEFE81AE8
:10216000F80A9981492F50E0B701C8010E94B31DB8
:1021700080E001C083E00F90DF91CF911F910F911C
:10218000FF90EF900895683108F4BACF83E0089586
:10219000B7DF0E94110380E00895AF92BF92CF9203
:1021A000DF92EF92FF920F931F93CF93DF9300D0B4
:1021B00000D0CDB7DEB78531F0F590E0FC01EE0F31
:1021C000FF1FE80FF91FEE0FFF1FEE0FFF1FEB5D64
:1021D000F94F2FEF3FEF358324830EE110E07F01AD
:1021E00044E050E0B801CE0101960E94A31DCE2C20
:1021F000DF2C44E050E0B701CE0101960E948D1D16
:10220000892B81F48FEF89838A838FEF9FEF9C83E3
:102210008B8344E050E0602F712FCE0101960E9425
:10222000B31D05C00C5F1F4F02371105C9F68C2D79
:102230009D2D0E9471010F900F900F900F90DF91D4
:10224000CF911F910F91FF90EF90DF90CF90BF90B3
:10225000AF9008958091290690912A06019669F021
:10226000E5E3F6E065E277E021E030E0C901408196
:1022700051814F3F5F4FC9F402C080E090E09C0164
:10228000220F331FF901E80FF91FEE0FFF1FEE0FAA
:10229000FF1FEB5DF94F1782168211861086138699
:1022A000128615821482CF0108952F5F3F4F3C960E
:1022B000E617F707D9F680E090E008950F931F9393
:1022C000CF93DF93EA01890144DE009719F4188265
:1022D00082E00FC0DC011696ED91FC9117973097C4
:1022E00019F4188283E005C0A801BE010995811187
:1022F0001882DF91CF911F910F9108951F93CF9373
:10230000DF93EB019A01DC011296ED91FC9113979A
:10231000309771F418811A3008F01AE0412F50E01C
:1023200065E171E0C9010E949A1D188380E00BC02D
:102330003197329718F480E19FEF02C08FEF9FEF43
:10234000AE0161E0BBDFDF91CF911F9108950F9344
:102350001F93CF93C42F8901FCDD009759F0DC0156
:102360001896ED91FC911997309731F0A8016C2FD8
:10237000099503C082E001C083E0CF911F910F91C6
:102380000895CF92DF92EF92FF920F931F93CF9316
:10239000DF93CDB7DEB727970FB6F894DEBF0FBE39
:1023A000CDBF198242E050E060E070E0CE010296BD
:1023B0000E94A31DE5E1F1E04FE151E080E090E0F3
:1023C0002191820F911DE417F507D1F79D838C832E
:1023D0002AE029832A813B812817390709F446C05E
:1023E0001FEF1F839E01295F3F4F41E061E080E1C5
:1023F0009FEFADDF1E839E012A5F3F4F41E061E00A
:1024000084E19FEFA4DF84ED9DE29B838A839E019C
:102410002E5F3F4F42E061E081E19FEF98DF8CE06B
:1024200089839E012F5F3F4F41E061E082E19FEF92
:102430008EDF80E590E09B838A839E012E5F3F4F75
:1024400042E061E088E09FEF82DF19829E012F5F0A
:102450003F4F40E061E080E09FEF79DF42E050E0F5
:1024600060E070E0CE0104960E94B31DE9E2F6E060
:1024700025E237E08FEF9FEF918380833C96E21750
:10248000F307D1F785E190E09B838A8310922406BD
:10249000109223060E9435011B821A8260E070E0D0
:1024A00000E010E007C00F5F1F4F3C96053111059B
:1024B00061F441C0F801EE0FFF1FE00FF11FEE0FB6
:1024C000FF1FEE0FFF1FEB5DF94F84819581019691
:1024D00051F77801EE0CFF1CE00EF11EC701880FCA
:1024E000991F880F991FFC01EB5DF94F7F01660F63
:1024F000771F660F771F625E7F4F44E050E0CF0189
:102500000E94A31DF701808181508E3F50F4C701C6
:102510000E945601811105C00F5F1F4FF701158200
:1025200014826A817B816F5F7F4F7B836A83653111
:10253000710508F4BFCF27960FB6F894DEBF0FBE23
:10254000CDBFDF91CF911F910F91FF90EF90DF9062
:10255000CF900895EF92FF920F931F93CF93DF9345
:1025600090E0FC01EE0FFF1FDF01A80FB91FAA0FBB
:10257000BB1FAA0FBB1FAB5DB94F2C91EB0128838A
:10258000229611962C91DB0111962C93E80FF91FDE
:10259000EE0FFF1FEE0FFF1FEB5DF94F0280F3817F
:1025A000E02D13E000E020E137E2FF24F394E12C7A
:1025B000E217F30700F1CF01B9010E941C1D462F5D
:1025C000E82FF92FADECBCEC0E94521D9C01369512
:1025D00027953695279536952795411103C00023F9
:1025E00031F04E2D405D48831F5F21960F2D2A301C
:1025F0003105F0F60CC0ADECBCEC0E94521D9C0104
:10260000369527953695279536952795E8CFE05D41
:10261000E883812FDF91CF911F910F91FF90EF9071
:1026200008958F3F2FEF920791F02091230630916C
:102630002406F901EE0FFF1FE20FF31FEE0FFF1F3D
:10264000EE0FFF1FEB5DF94F9583848303C08091EC
:102650002306A3DD80912306909124060196909392
:1026600024068093230608958F929F92AF92BF9283
:10267000CF92DF92EF92FF920F931F93CF93DF934E
:10268000CDB7DEB728970FB6F894DEBF0FBECDBF2B
:10269000DC0116968C911697898317968C91179763
:1026A0008A838C9127EF280F253008F0F3C08830FB
:1026B00051F1BD01675F7F4F18969C91189780ED8F
:1026C000890F8A3008F0E8C0FB01620F711D20E01D
:1026D00030E006C0919140ED490F4A3008F0DEC06D
:1026E000A901440F551F220F331F220F331F220F42
:1026F000331F240F351F290F311D20533109E617D1
:10270000F70741F702C020E030E08D013C832B83C6
:10271000CE0101960E944101882309F4C1C0F8014D
:10272000A280B12CBA2CAA248381A82A05E216E043
:10273000E12CF12C88248A94982CF801C480D5804F
:10274000FFEFCF16DF0631F42FEF82169206B1F4B9
:10275000470114C044E050E0B801CE0101960E9448
:102760008D1D892B39F48FEFE816F80609F49AC00D
:10277000470179C0AC14BD0409F496C0EFEFEE1A1E
:10278000FE0A045F1F4FF5E1EF16F104B1F62FEFDB
:102790008216920609F48AC0F401EE0FFF1FE80DBD
:1027A000F91DEE0FFF1FEE0FFF1FEB5DF94F848148
:1027B0009581019609F057C0FFEFAF16BF0609F4E7
:1027C00077C0C401880F991F880D991D880F991F24
:1027D000880F991F8B5D994F49815A816B817C814C
:1027E000FC0140835183628373830E945601182F3A
:1027F000811160C0F401EE0FFF1FE80DF91DEE0F0F
:10280000FF1FEE0FFF1FEB5DF94FB582A4820F2E65
:10281000FEE1EF2EF12CF02D44E050E0B701CE01A7
:1028200005960E94A31D44E050E0BE016B5F7F4F00
:10283000CE0101960E948D1D892BE9F18D81815079
:102840008E3F48F044E050E06E2D7F2DCE01019682
:102850000E94B31D30C0F4E0EF0EF11C22E7E21637
:10286000F104D1F628C08FEFA816B80621F4882D00
:1028700094DC10E020C0F401EE0FFF1FE80DF91DFD
:10288000EE0FFF1FEE0FFF1FEB5DF94FB582A48225
:1028900010E011C013E00FC013E00DC013E00BC037
:1028A00013E009C011E007C012E005C011E003C049
:1028B00012E001C012E0812F28960FB6F894DEBF17
:1028C0000FBECDBFDF91CF911F910F91FF90EF9081
:1028D000DF90CF90BF90AF909F908F900895EF9230
:1028E000FF920F931F93CF93DF938A01E90131DBAE
:1028F0007C01009721F4D8011C9282E06DC0DC01BC
:102900001696ED91FC911797309721F4F8011082FB
:1029100083E062C0AE01B8010995811159C0C701B9
:102920006CDB882314F58F778230D8F0E82FF0E045
:10293000DE01AE0FBF1F11979C91911107C0EC0FE4
:10294000FD1F3297908199234CF40BC09F3F49F4AF
:10295000EC0FFD1F3297908199231CF48150813038
:1029600029F7D8018C9380E037C08823A1F1282F64
:1029700030E0FE01E20FF31F31979081992364F05C
:10298000823010F1911120C02C0F3D1FF9013297B8
:102990009081992334F418C0C20FD31F18828F5F1F
:1029A00013C08150813081F0282F30E0FE01E20F0A
:1029B000F31F31979081911107C02C0F3D1FF90132
:1029C0003297908199236CF7F801808380E004C0EE
:1029D000D8011C9201C080E0DF91CF911F910F912F
:1029E000FF90EF900895EF92FF920F931F93CF9374
:1029F000C42F8901AEDA7C01009741F1DC01189601
:102A00008D919C911997892B19F1C701F6DA982FAE
:102A10009F77C91778F4F801EC0FF11D3197808189
:102A2000880F880BF801EC0FF11D8083CF5FC9136D
:102A3000F9CFC92F9111C92FD7011896ED91FC91AB
:102A40001997A8016C2FC701099503C082E001C046
:102A500083E0CF911F910F91FF90EF900895CF9356
:102A6000DF930E94B201E3D9853009F05DC0809107
:102A7000230690912406459708F449C01092240635
:102A80001092230644C0FB01EE0FFF1FE60FF71F55
:102A9000EE0FFF1FEE0FFF1FEB5DF94FC481D581D5
:102AA000209729F440E050E08AE0CBD927C0CF3FFF
:102AB0002FEFD20719F1FB01EE0FFF1FE60FF71FF3
:102AC000EE0FFF1FEE0FFF1FEB5DF94F0284F38542
:102AD000E02D309799F0CB01880F991F680F791F6F
:102AE000CB01880F991F880F991F8B5D994F09950E
:102AF000882321F0AE0160E28CE0A3D98091230607
:102B0000909124060196909324068093230692D9EF
:102B1000882309F47CC060912306709124066531F6
:102B2000710508F4B0CF73C0843009F06CC0809197
:102B30002306909124068531910570F5FC01EE0F76
:102B4000FF1FE80FF91FEE0FFF1FEE0FFF1FEB5DDA
:102B5000F94F248135812F3F3F4FC1F06BD9882336
:102B600009F455C06091230670912406FB01EE0F15
:102B7000FF1FE60FF71FEE0FFF1FEE0FFF1FEB5DAE
:102B8000F94F448155818AE05CD941C00196909308
:102B90002406809323063BC08F3F2FEF920751F10D
:102BA000803C9F4F30F480EC9FEF909324068093FD
:102BB000230640D9882359F1C0912306D0912406D9
:102BC00061E0CE01C6D9892B71F0AE0161E38CE0E2
:102BD00038D980912306909124060196909324067B
:102BE0008093230614C08FEF9FEF90932406809369
:102BF00023060DC01FD9882351F040E050E060E269
:102C000082E11FD904C01092240610922306DF919E
:102C1000CF9108952A981C99FECF682F81E07FD329
:102C200060E081E07CD32A9A0895CF93C62F2A983A
:102C30001C99FECF682F81E072D36C2F81E06FD397
:102C40002A9ACF9108952A981C99FECF682F81E087
:102C500066D32A9A0895EF92FF920F931F93CF9312
:102C6000DF9300D000D0CDB7DEB702C00E946A0863
:102C700087E091E00E94C3080097C1F781E08C8350
:102C800024E237E0AE014C5F5F4F61E080E19FEFEF
:102C900015DB9E012F5F3F4FAE014C5F5F4F61E040
:102CA00082E19FEF0BDB82E08C839E012E5F3F4F22
:102CB000AE014C5F5F4F61E081E19FEFFFDA68E0BA
:102CC0008AE077D32A9A20EA3EE243E650E060E0C9
:102CD00081E0E8D28AE18A95F1F700C02A98A5E35D
:102CE000AA95F1F700002A9AB5EDBA95F1F7000020
:102CF0002A981C99FECF60E381E011D31C99FECF86
:102D00002A9A0CE811E00F2EF2ECEF2EF1E0FF2EE4
:102D1000F02DF8013197D8016C91808186DF0E5F2C
:102D20001F4F0E151F05A9F76091240789E07DDF6D
:102D30006B8184E07ADF6A8185E077DF69818AE0F0
:102D400074DF60EC8EE371DF0F900F900F900F90A7
:102D5000DF91CF911F910F91FF90EF900895CF9346
:102D6000DF93EC01BC0187E091E00E948E088111A5
:102D700003C0CE010E946A08DF91CF910895EF92BF
:102D8000FF920F931F93CF93DF9385EF43DF813043
:102D900009F068C088EF3EDF88230CF05AC0C0E11C
:102DA000DFEF8BEF37DFC1508D1721F0D82FC11126
:102DB000F8CF06C00D2FCC2319F0D750DC3238F0F5
:102DC0008AE341DF84E33FDF80E090E0BEC086E33A
:102DD00090E00E940E087C01CBEFC00FFC01C38382
:102DE0002A981C99FECF6FEF81E099D260E081E0D4
:102DF00096D260E081E093D260E081E090D2F7016A
:102E00008283CC2379F0E7012496065010E00B5F13
:102E10001F4F0E0D1F1D60E081E081D28993C01706
:102E2000D107C9F760E081E07AD28093230760E0A0
:102E300081E075D22A9A88232CF0C7010E946A0883
:102E4000E12CF12C8AE3FFDE84E3FDDE8E2D9F2D45
:102E50007CC08BE3F8DE8AE3F6DE84E3F4DE80E018
:102E600090E073C08D3009F065C080910C0188231B
:102E700009F463C080912207882381F08FD180916B
:102E80002107681709F45CC060932107809122072D
:102E900081508093220780E090E057C088EFBADE2F
:102EA00084FD0FC080910601882359F081508093E2
:102EB00006015AD187708D5F8093220780E090E0F1
:102EC00044C01092220785E08093060187E091E0DC
:102ED0000E94C3087C010097B1F1FC0103812A988C
:102EE0001C99FECF6FE781E01AD262E0600F81E0AB
:102EF00016D2F701628181E012D26091240781E04D
:102F00000ED2002371F0E7012496015010E00B5F10
:102F10001F4F0E0D1F1D699181E001D2C017D1070F
:102F2000D1F72A9AC7010E946A0885E38CDE80E007
:102F300090E00BC080E090E008C080E090E005C029
:102F400080E090E002C080E090E0DF91CF911F919F
:102F50000F91FF90EF90089580912307882334F418
:102F600081958695865B8093230705C086959AE4B4
:102F7000981B90932307809123078195089584E2FD
:102F800097E0089580912B0790912C07892B71F081
:102F900080E002D5882351F080912B0790912C0777
:102FA0000E946A0810922C0710922B078091120140
:102FB0008823B1F080E0F0D4882391F08DE091E097
:102FC0000E94C30890932C0780932B07009741F031
:102FD000AC014D5F5F4FFC0163816F5F80E0EAC42D
:102FE0000895CF93DF931F92CDB7DEB702C00E9442
:102FF0006A088DE091E00E94C3080097C1F781E064
:1030000089832DE237E0AE014F5F5F4F61E080E1E1
:103010009FEF54D943E064E080E074D40F90DF91D7
:10302000CF910895CF93DF93EC01BC018DE091E047
:103030000E948E08811104C0CE010E946A0801C05E
:10304000A1DFDF91CF910895CF939CDF3DC080E059
:10305000DCD4C82FA3D070932A07609329079091DE
:103060002807911111C08EEF8C0F803368F586E32D
:1030700090E00E940E089093270780932607C09344
:1030800028071092250720C080912507823358F425
:10309000E0912607F091270721E0280F20932507CC
:1030A000E80FF11DC4838091250798130DC0E091AE
:1030B0002607F091270790912D0792838383109222
:1030C00028078E2F9F2F2AC080E08FD48111BFCF79
:1030D000809128078823E9F061D0DC01CB01AA2781
:1030E000BB272091290730912A07821B930BA10946
:1030F000B10985369105A105B10570F01092280738
:1031000080912607909127070E946A0880E090E04E
:1031100005C080E090E002C080E090E0CF9108958B
:103120008DE297E00895F89484B7877F84BFA895CF
:103130000FB6F894A8958091600088618093600034
:10314000109260000FBE089582E08093B00010924C
:10315000B20099EF9093B30087BB8093700084E036
:103160008093B10078940895809113019091140197
:1031700080FF09C09695879524EB922790931401C0
:103180008093130106C096958795909314018093C0
:1031900013018091130190911401089560913607F5
:1031A00070913707809138079091390708951F92E1
:1031B0000F920FB60F9211242F933F934F935F936B
:1031C0006F937F938F939F93AF93BF93EF93FF93EF
:1031D0008091360790913707A0913807B091390751
:1031E0000196A11DB11D8093360790933707A093D8
:1031F0003807B093390780913007909131070196D5
:10320000873E23E0920728F490933107809330079C
:1032100017C01092310710923007809132079091B9
:103220003307A0913407B09135070196A11DB11D58
:103230008093320790933307A0933407B0933507F8
:1032400080912E0790912F078A30910530F40196D6
:1032500090932F0780932E0708C00E94ED0781E00E
:1032600090E090932F0780932E07FF91EF91BF91ED
:10327000AF919F918F917F916F915F914F913F910E
:103280002F910F900FBE0F901F901895F8949CE00F
:1032900088E10FB6F894A895809360000FBE9093D4
:1032A0006000FFCF0F931F93962F89019A01E4E6E8
:1032B000F0E080818B7F808384B18C6284B9249814
:1032C0001CBC011582E118078AE728073105A8F41C
:1032D00080E040E052E16AE770E08F5F76956795A5
:1032E00057954795041715072607370718F48530B3
:1032F000A1F706C080FF02C003C080E021E02DBD21
:1033000092FF02C060E701C060E59370990F990FCA
:10331000962B8695892B8CBD1F910F9108956EBDBC
:103320000DB407FEFDCF8EB508958930910528F4C0
:10333000FC01E250FE4F849108958FEF0895813192
:1033400030F4E82FF0E0E251FE4F849108958FEFC2
:1033500008956F3F61F080917A00882344F0E4E69D
:10336000F0E080818E7F808387E880937A000895E3
:1033700090E4699FB0011124862B682F60626093EE
:103380007C0008952091780030917900EAE7F0E020
:10339000908190649083C9019695879508958231B4
:1033A000910528F4FC01EA5FFD4F849108958FEFA9
:1033B0000895E82FE695E695E695F0E0EE0FFF1FFD
:1033C000E85EFD4FA591B491877031F091E0815096
:1033D000990F8111FCCF01C091E0FD01319761305F
:1033E00019F0683049F00CC08C91892B8C93909522
:1033F00080819823908308958081982B90830895ED
:1034000090958C9189238C93808198239083089543
:10341000E82FF0E0EE0FFF1FE85EFD4F85919491DD
:10342000FC01329780810895E82FF0E0EE0FFF1F36
:10343000E85EFD4FA591B4918C91682B6C93089533
:10344000E82FF0E0EE0FFF1FE85EFD4FA591B4916D
:1034500060958C9168236C9308958D30910568F088
:103460000D978530910558F4FC01E05EFD4FE49125
:1034700081E0EF3F29F480E0089580E0089580E046
:1034800008958D5E9D4FFC018491982F97708695CD
:103490008695869519F0813079F021C0911106C08A
:1034A00094B5907C81E0F1F480E0089594B5907338
:1034B00081E0C1F480E00895992319F0913041F042
:1034C00010C090918000907C81E061F480E00895CC
:1034D00090918000907381E029F480E0089581E06C
:1034E000089581E008951F93CF93DF93EC01162F89
:1034F00056DF68E05EDFFE01ED5EFD4FE4913E2F9A
:103500003770111102C092E001C093E0E695E69594
:10351000E69519F0E130B9F03BC084B5282F207F43
:10352000311107C030E4939FA0011124822F842B16
:1035300005C030E1939FC0011124822B816084BDBE
:1035400084E085BD25C080918000482F407F3111E7
:103550000BC080E4989F90011124842F822B10923D
:1035600089001092880009C020E1929FC0011124B7
:10357000842B10928B0010928A009FEF909387000B
:103580009093860082608093800081E18093810027
:10359000DF91CF911F9108959C012D503109F901C0
:1035A000E05EFD4FE4918E2F8770E695E695E695F7
:1035B00019F0E13081F00895811104C084B58F7352
:1035C00084BD03C084B58F7C84BD84B5807FA1F4A5
:1035D00014BC15BC11C090918000811102C0907381
:1035E00001C0907C911105C0E0E8F0E010821182EA
:1035F00003C0926090938000C901D1DE60E0D9CE13
:103600000D9786309105F0F4FC01E05EFD4F84914A
:10361000982F977086958695869519F0813039F0A8
:103620000895911102C077BD089578BD0895911154
:1036300005C07093890060938800089570938B0093
:1036400060938A00089525E1FC01208384E1FB0159
:103650008083089590E89093BC00882389F0359B7F
:1036600011C088E48093B8008FEF8093BB00ECEB2F
:10367000F0E084E8808380818160808381E0089528
:1036800080E0089580E00895ECEBF0E080818B7E8F
:1036900080838081846880830895359B0AC0E0918F
:1036A0000802F091090283818860838385EA809310
:1036B000BC0008951F920F920FB60F9211242F9302
:1036C0003F938F939F93AF93BF93EF93FF9380911B
:1036D000B900E82FE87F8E2F90E0FC013897E135A4
:1036E000F10508F091C0EA55FF4FD6C110923A0794
:1036F000E0910802F0910902838180FF05C0828178
:10370000880F8093BB0005C08281880F8160809301
:10371000BB0085E88093BC008EC0E0910802F09168
:103720000902158283818064838385E98093BC00CC
:1037300082C0E0910802F0910902948180913A07D9
:10374000891770F4E80FF11D86818093BB0080918A
:103750003A078F5F80933A0785E88093BC006BC07F
:10376000E0910802F091090280913A0784838381F5
:103770008E7F8383838181FD07C0158280E18383EF
:1037800085E98093BC0057C085EA8093BC0053C094
:10379000E0910802F091090280913A0791E0980FB8
:1037A00090933A079091BB00E80FF11D9683E0914A
:1037B0000802F0910902258180913A0790E0019674
:1037C00030E08217930724F485EC8093BC0033C06B
:1037D00085E88093BC002FC0E0910802F0910902B7
:1037E00090913A0781E0890F80933A072091BB00BE
:1037F000DF01A90FB11D16962C93858380E1838389
:1038000085E98093BC0017C0ECEBF0E080818B7EF3
:103810008083808184688083E0910802F0910902AE
:1038200080913A07848381E085838091B900868303
:10383000838180688383FF91EF91BF91AF919F91C6
:103840008F913F912F910F900FBE0F901F90189561
:103850001F920F920FB60F9211242F938F939F9365
:10386000AF93BF93EF93FF932091C600E0913B0786
:10387000F0913C0780A18F5F8F7191A1981731F073
:1038800090A1DF01A90FB11D2C9380A3FF91EF91AF
:10389000BF91AF919F918F912F910F900FBE0F907D
:1038A0001F9018951F920F920FB60F9211242F930D
:1038B0003F938F939F93EF93FF93E0913B07F0919A
:1038C0003C0785A194A1981307C014A2E1ECF0E095
:1038D00080818F7D80830BC022A133A191E0980F5E
:1038E00095A3F901E80FF11D80818093C600FF9137
:1038F000EF919F918F913F912F910F900FBE0F905D
:103900001F9018951F93CF93DF9381110DC0142F33
:10391000117040FF02C0589A5098D42FD27041FFC6
:1039200004C0599A519A01C0FFCF80913B079091F2
:103930003C07892BF9F4C62F86E290E00E940E081E
:10394000FC0190933C0780933B0710A211A214A2A4
:1039500015A2EC2FF0E0EE0FFF1FEB5DFD4F859100
:1039600094919093C5008093C4001092C10086E0AA
:103970008093C200112329F0E1ECF0E0808180699E
:103980008083DD2329F0E1ECF0E080818860808392
:10399000DF91CF911F910895E82FF0E0EE0FFF1F08
:1039A000E55CF84F0190F081E02D81E094A1911148
:1039B00080E00895E82FF0E0EE0FFF1FE55CF84F80
:1039C0000190F081E02D64A391E095A353A342A35D
:1039D00081110AC0FA0180818093C600E1ECF0E019
:1039E0008081806280830895FFCFE82FF0E0EE0FA2
:1039F000FF1FE55CF84F0190F081E02D20A181E0F0
:103A000091A1291301C080E00895E82FF0E0EE0FA6
:103A1000FF1FE55CF84F0190F081E02D80A191A19E
:103A2000891741F0DF01A90FB11D8C919F5F9F7134
:103A300091A3089580E00895AA1BBB1B51E107C024
:103A4000AA1FBB1FA617B70710F0A61BB70B881F2E
:103A5000991F5A95A9F780959095BC01CD010895BD
:103A6000052E97FB16F400940FD057FD05D033D0E8
:103A700007FC02D046F408C050954095309521953A
:103A80003F4F4F4F5F4F089590958095709561958A
:103A90007F4F8F4F9F4F0895EE0FFF1F0590F491BA
:103AA000E02D0994A29FB001B39FC001A39F700DA8
:103AB000811D1124911DB29F700D811D1124911D36
:103AC0000895F0DFA59F900DB49F900DA49F800DE9
:103AD000911D11240895A1E21A2EAA1BBB1BFD0102
:103AE0000DC0AA1FBB1FEE1FFF1FA217B307E407DD
:103AF000F50720F0A21BB30BE40BF50B661F771F35
:103B0000881F991F1A9469F7609570958095909514
:103B10009B01AC01BD01CF010895FB01DC0104C094
:103B20008D910190801921F441505040C8F7881BB5
:103B3000990B0895FB01DC0102C001900D924150E8
:103B40005040D8F70895DC01CB01FC01F999FECF74
:103B500006C0F2BDE1BDF89A319600B40D92415015
:103B60005040B8F70895DC01CB0102C02D9105D07B
:103B700041505040D8F70895262FF999FECF1FBA2B
:103B800092BD81BD20BD0FB6F894FA9AF99A0FBE86
:083B900001960895F894FFCF9F
:103B98000000000004000500000000040000000010
:103BA8000004005EA14131534331302E3331334597
:103BB80073020000FF2D10C310000045571C0008B9
:103BC800FF2D10C81000004542720010FF2D108014
:103BD8001000004542730014FF2D108010000045AE
:103BE80057740011FF2D1080100000454276001216
:103BF800FF2D108010000046730000C0FF7E1100EA
:103C080000000046610100C1FF7E1100000000466F
:103C1800610200C2FF7E1100000000022E002E0388
:103C280047063D070608050B080D210E620F7610A2
:103C3800CA11831293130014001533181819161B90
:103C48004320FB23E9242A2500261F2C812D352E0D
:023C5800090061
:00000001FF
