:100000001EC1000038C1000036C100000C94FA1B6C
:1000100032C1000030C100002EC100000C94C01994
:100020002AC1000028C1000026C1000024C1000030
:1000300022C1000020C100001EC100001CC1000040
:100040001AC1000018C100000C94231D0C944D1D12
:1000500012C1000010C100000EC100000CC1000060
:100060000C94551C08C10000261050102E10501082
:100070005010501050105010501050105010501080
:100080005010501050105010501050105010501070
:1000900050102A1050105010501050105010501086
:1000A0005010501050103210261050102E105010BA
:1000B0005010501050105010501050105010501040
:1000C000501050105010501050103210501050104E
:1000D00050102A10501050102610761095107C10D9
:1000E00095109510951095109510951095109510E8
:1000F00095109510951095109510951095109510D8
:1001000095109510791095109510951095109510E3
:1001100095109510951095107F10761095107C1005
:1001200095109510951095109510951095109510A7
:100130009510951095109510951095107F109510AD
:10014000951095107910951095107610221641167D
:100150005216641615179D16A716CD16F116711CAA
:10016000FF1CFF1CFF1CFF1CFF1CFF1CFF1C711C45
:10017000FF1CFF1CFF1CFF1CFF1CFF1CFF1C941C12
:10018000FF1CFF1CFF1CFF1CFF1CFF1CFF1C881C0E
:10019000FF1CFF1CFF1CFF1CFF1CFF1CFF1C941CF2
:1001A000FF1CFF1CFF1CFF1CFF1CFF1CFF1CAB1CCB
:1001B000FF1CFF1CFF1CFF1CFF1CFF1CFF1CFF1C67
:1001C000FF1CFF1CFF1CFF1CFF1CFF1CFF1CD21C84
:1001D000FF1CFF1CFF1CFF1CFF1CFF1CFF1C881CBE
:1001E000FF1CFF1CFF1CFF1CFF1CFF1CFF1CC31C73
:1001F000FF1CFF1CFF1CFF1CFF1CFF1CFF1CE71C3F
:10020000101112131415FEFEFEFFFFFFFFFFFEFE8E
:1002100006070001020304050EFFFF10111213145C
:1002200015FFFF1A1B1C1D1E1FFFFF250028002B9A
:100230000001007F01BF005F002F001700001124A4
:100240001FBECFEFD8E0DEBFCDBF11E0A0E0B1E030
:10025000EEE8FDE302C005900D92A43AB107D9F78C
:1002600026E0A4EAB1E001C01D92A53FB207E1F784
:1002700098D60C94C51EC4CEE4EAF1E084EB91E07C
:1002800011921192E817F907D9F7BFD3F3D140C6FD
:10029000FC019081993449F018F4913451F00BC06D
:1002A0009F3419F0903519F006C0CF01CEC3CF01AD
:1002B0000DC5CF01F1C180E00895FC0117821682BF
:1002C00011861086138612868081893449F018F4CD
:1002D000813451F00BC08F3419F0803519F006C00D
:1002E000CF01C7C3CF010BC5CF01E9C183E008959A
:1002F000FC019081993449F018F4913451F008953B
:100300009F3419F0903519F00895CF0158C4CF01EA
:1003100026C5CF011AC26091A4017091A50168178A
:10032000790731F1A6EAB1E044EB51E0FD0105C0E7
:100330002191319128173907D9F0E417F507C1F752
:10034000672B41F021E030E0F9016D917D91672B41
:1003500051F402C0E0E0F0E0EE0FFF1FEC55FE4F5D
:100360009183808308952F5F3F4FA417B50761F7EE
:1003700008950F931F93CF93DF93C4EAD1E004EB6A
:1003800011E0E991F991309709F00995C017D1076B
:10039000C1F7DF91CF911F910F910895FC018281E8
:1003A00093810E943C1A982F977021E030E002C0A0
:1003B000220F331F9A95E2F7869586958695E82F4A
:1003C000F0E0E651FE4F8081282381E009F480E0CF
:1003D0000895CF93DF93EA01FC01828193810E940B
:1003E0003C1AE82FE695E695E695F0E0E651FE4FDB
:1003F000982F977021E030E002C0220F331F9A95AA
:10040000E2F72095908129232083E82FF0E0EE0F7A
:10041000FF1FE554FE4F898190E0982F882728819F
:10042000822B9183808380E0DF91CF9108950E9499
:100430003C1A8F3F61F0E82FF0E0E552FE4F9081CB
:100440009F3F39F40E94461A8E3F29F0DBC382E0B9
:10045000089581E0089580E00895CF92DF92EF92B1
:10046000FF920F931F938091B9019091BA01009769
:1004700019F58091B801E82FF0E0E552FE4F608158
:100480006F3F49F48F5F8F3019F08093B80197C0A8
:100490001092B80194C00E945F1A81E090E090939E
:1004A000BA018093B9011092B4011092B501109273
:1004B000B6011092B70183C02091D9013091DA01C1
:1004C000A9014B5F5F4F8417950748F50E94691A91
:1004D0002091B9013091BA012F5F3F4F3093BA019B
:1004E0002093B9012530310508F469C0092E000CAC
:1004F000AA0BBB0B4091B4015091B5016091B601BC
:100500007091B701840F951FA61FB71F8093B40188
:100510009093B501A093B601B093B70150C02F5F7F
:100520003F4F40E050E06091B4017091B50180917F
:10053000B6019091B7010E942B1E2093B401309315
:10054000B5014093B6015093B7018091B801682F6F
:1005500070E0FB01EE0FFF1FE554FE4F008111819B
:100560006801110FEE08FF082C153D054E055F05CB
:10057000D1F0660F771FFB01E554FE4F31832083D6
:10058000E82FE695E695E695F0E0E651FE4F982FC8
:10059000977021E030E002C0220F331F9A95E2F7F6
:1005A0009081292B20831092BA011092B9018F5F9C
:1005B0008F3019F08093B80102C01092B8011F91DA
:1005C0000F91FF90EF90DF90CF9008950F931F93BE
:1005D000CF93DF938B01EA01FC01828193810E941A
:1005E0003C1AE82FE695E695E695F0E0E651FE4FD9
:1005F000982F977021E030E002C0220F331F9A95A8
:10060000E2F7209590812923208392E0F8019083DE
:10061000E82FF0E0EE0FFF1FE554FE4F908181813F
:100620009883898380E0DF91CF911F910F91089586
:10063000CF93DF931F92CDB7DEB782E0898329ED98
:1006400031E0AE014F5F5F4F61E088E09FEF0E94B5
:1006500039118091D9019091DA01893E9D4F30F096
:1006600080E590E09093DA018093D9010F90DF91BB
:10067000CF910895ABEDB1E0EBEBF1E029ED31E086
:100680008FEF8D9311921192E217F307D1F7EAEEF3
:10069000F1E010821182CCCFFC012181293611F0CA
:1006A000263751F4FC0182819381C1DE91E08230D2
:1006B00009F490E0892F01C080E081700895FF92D5
:1006C0000F931F93CF93DF93EC010A811B81C80125
:1006D000AEDE811133C0C8010E943C1AF82E082FEB
:1006E00010E08981893619F0863729F002C082E04E
:1006F00003C08FEF01C081E0F801E552FE4F808317
:100700008F2D0E94461A8E3F08F49BD2F801E552C5
:10071000FE4F60818F2D0E94501A86EE92E09F83DB
:100720008E8389EE91E0998788878EEC91E09B8794
:100730008A878DE292E0EFDD80E001C082E0DF9108
:10074000CF911F910F91FF900895CF93DF93FC01FC
:10075000C281D381CE016BDE8130A1F4CE010E9433
:100760003C1AC82FE82FF0E0E552FE4F8FEF808350
:100770006FEF8C2F0E94501A8C2F0E94461A8E3FCA
:1007800008F47AD2DF91CF910895FC0182819381A0
:100790000E94761AE82FE695E695E695E250F0E09D
:1007A000E251FE4F282F277081E090E002C0880FB1
:1007B000991F2A95E2F79081982381E009F480E05F
:1007C00008952F923F924F925F926F927F928F92F5
:1007D0009F92AF92BF92CF92DF92EF92FF920F93D0
:1007E0001F93CF93DF9300D000D0CDB7DEB704EFD7
:1007F00011E082EF91E09C838B830F2EFCEEEF2EB5
:10080000F1E0FF2EF02D0F2EF0EFCF2EF1E0DF2ED6
:10081000F02D0F2EFEEEAF2EF1E0BF2EF02D6894DE
:10082000552451F8412C332433948B809C8038011B
:10083000D8012C902094F4018081282261F1852D2B
:100840000E94AF1A822148E0542D232DF601FA822E
:10085000E982922F9221D9F0D6016C91382F362758
:10086000392339F090956923982F9223692B60835F
:100870000EC0D7016C91382F3627932341F069279A
:10088000A981BA816C93D5013C91932B9C93220F43
:1008900041505109F1F60F5F1F4FEB81FC813196FA
:1008A000FC83EB83D4016C916095F3017080762218
:1008B00081F04701D7016C91672119F0852D0E94C5
:1008C000BB1AF40160816095672119F0852D0E94A3
:1008D000C71A5394FFEFEF1AFF0A8FEFC81AD80A0E
:1008E0009FEFA91AB90AA4E05A129FCF0F900F9058
:1008F0000F900F90DF91CF911F910F91FF90EF908C
:10090000DF90CF90BF90AF909F908F907F906F902F
:100910005F904F903F902F9008950F931F93CF9328
:10092000DF93EC018A018A819B810E94761A982FBD
:10093000977061E070E002C0660F771F9A95E2F74A
:10094000F8014081282F269526952695225030E0E3
:10095000862F8095F901E251FE4F90819823908374
:1009600099819E3609F4409540FF07C0F901E45192
:10097000FE4F8081682B608306C0F901E451FE4F71
:1009800090818923808380E0DF91CF911F910F9127
:100990000895EF92FF920F931F93CF93DF93EC0193
:1009A0007B018A018A819B810E94761AE82F982F09
:1009B000977021E030E0A90102C0440F551F9A95BD
:1009C000E2F7CA01E695E695E695E250F0E0DF0130
:1009D000A451BE4F3C91E251FE4F4095208124230B
:1009E000208329812E3609F4309591E0F701908318
:1009F000832309F490E0F801908380E0DF91CF91A8
:100A00001F910F91FF90EF900895CF93DF9324EF04
:100A100031E0F901108282EF91E0FC011082C0EF19
:100A2000D1E01882AEEEB1E01C924CEE51E0FA013A
:100A30001082F9011182FC011182198211961C9217
:100A4000FA011182DF91CF910895FC0121812E36A8
:100A500011F0203759F4FC01828193810E94761AAB
:100A600091E08F3F09F490E0892F01C080E0817010
:100A70000895CF92DF92EF92FF920F931F93CF933F
:100A8000DF936C01FC01828193810E94761A182FFA
:100A90001695169516951250982F9770C1E0D0E0D4
:100AA00002C0CC0FDD1F9A95E2F7E12EF12CF70181
:100AB000EE50FE4F90812C2F292309F074C0F701CE
:100AC000EC50FE4F20812C2309F06FC00C2F0095B5
:100AD000F701E251FE4F208120232083F60120817F
:100AE0002F3439F52DE834E03187208768E00E9403
:100AF000801AF701EC50FE4F80818C2B8083F60129
:100B00008181803759F46C2F812F0E94C71AF70119
:100B1000E451FE4F80810823008340C06C2F812F59
:100B20000E94BB1AF701E451FE4F8081C82BC0839D
:100B300035C029EC34E0F601378326832DE834E014
:100B40003187208725EC33E033872287F701EE5089
:100B5000FE4F9C2B9083F6019181903781F460E0E9
:100B60000E94801AF701E051FE4F8081802380832C
:100B7000F701E451FE4F8081082300830FC061E03C
:100B80000E94801AF701E051FE4F80818C2B8083F8
:100B9000F701E451FE4F8081C82BC08381EE93E0C2
:100BA000BADB80E003C082E001C082E0DF91CF9138
:100BB0001F910F91FF90EF90DF90CF900895FC016F
:100BC000828193810E94761AE82FE695E695E69554
:100BD000E250F0E0982F977021E030E002C0220F41
:100BE000331F9A95E2F72095DF01AC50BE4F9C91E0
:100BF00092239C93EE50FE4F90812923208360E046
:100C00000C94801A982F977021E030E002C0220FD8
:100C1000331F9A95E2F7869586958695825090E0E7
:100C2000FC01EE50FE4F4081422349F4FC01EC50A0
:100C3000FE4F8081282381E019F480E0089581E04F
:100C40000895982F977021E030E002C0220F331FE3
:100C50009A95E2F78695869586958250E82FF0E082
:100C6000DF01AC50BE4F8C91822B8C93EE50FE4F27
:100C70008081282B20830895E82FE695E695E69558
:100C8000E250F0E0282F277081E090E002C0880F4A
:100C9000991F2A95E2F78095DF01AC50BE4F9C91D9
:100CA00098239C93EE50FE4F908189238083089572
:100CB000FA01618170E0762F66272081622BFC01AA
:100CC000828193810E94A71B80E00895CF93DF93D8
:100CD000FC012181C281D3812E3611F0203749F4E5
:100CE000CE010E94761A8F3F31F0CE010E94D41AB5
:100CF00003C080E001C080E0DF91CF910895FF92B2
:100D00000F931F93CF93DF938C01FC01C281D3819A
:100D1000CE010E94761AF82E75DF811117C0CE0120
:100D20000E94E81A811114C08F2D8BDF61E0F80159
:100D300081818E3609F060E0CE010E941A1B88E5A1
:100D400096E0F8019187808780E003C082E001C0CF
:100D500082E0DF91CF911F910F91FF900895CF9383
:100D6000DF93FC01C281D381CE010E94731BCE01AF
:100D70000E94761A81DFDF91CF9108950F931F9320
:100D8000CF93DF93E091FA01F091FB01309709F4E2
:100D90003CC0D3818D2F807E09F04EC0CD2FC07115
:100DA000D4FF0AC0C581C11149C0CF019FD11092A3
:100DB000FB011092FA0143C00E94B7190091F6019D
:100DC0001091F7012091F8013091F901DC01CB017C
:100DD000801B910BA20BB30B8B3F9105A105B105B5
:100DE00060F0D3FD0E943F1CE091FA01F091FB01FD
:100DF000838180628383C1E022C01D2F1870D3FDE0
:100E00001EC00E94481CC12F1AC0C0910501CC23EE
:100E1000B1F080E091E0C3D19093FB018093FA019F
:100E20000E94B7196093F6017093F7018093F8015F
:100E30009093F901C0E003C0C1E001C0C1E08C2F74
:100E4000DF91CF911F910F910895E091FA01F091F8
:100E5000FB013097E1F09A01DB01458194E0940FAA
:100E60009C93492F50E06091FA017091FB016E5FF5
:100E70007F4FC9010E94951E8091FA019091FB015C
:100E800035D11092FB011092FA0180E0089581E0C3
:100E90000895EF92FF921F93CF93DF93643078F120
:100EA0007A01162F86E390E0C5D0EC01412F50E087
:100EB000B70102960E94951E8B8183708B836CEF25
:100EC000610F6C83662311F081608B838D81882391
:100ED00029F09B8192609B83863218F48B8183700A
:100EE00021F4CE0103D183E00DC0BE0180E091E08A
:100EF00021D1811106C0CE01F9D081E003C083E089
:100F000001C080E0DF91CF911F91FF90EF90089595
:100F1000CF93DF9300D0CDB7DEB7BE016E5F7F4FBA
:100F2000CE0101960E941E1C89818BDE8A8189DE9A
:100F300081E00E94251C811105C089819DDE8A8186
:100F40009BDE2AC08091FA019091FB01009729F065
:100F5000CDD01092FB011092FA010E940511FC0104
:100F6000892B41F4898188DE8A8186DE80E00E94B7
:100F7000251C12C085E297E09783868389E497E079
:100F8000918780878EEB96E09387828784E58083C4
:100F900081E68183138212820F900F90DF91CF91AF
:100FA00008950E947C192BD00E949C110E94D71892
:100FB0000E942B1732D4219A299A1092FC010E9488
:100FC0008D198091FC01882349F0299A8091FC01B8
:100FD00081508093FC010E940A157CD40E940A195A
:100FE000009709F019D10E94CD17009751F3A9D3AA
:100FF000E8CF8091FC018F5F8093FC010895E1E0D0
:10100000F2E086E092E09183808313821282EDEF1A
:10101000F1E0118210828FEF93E093838283A5E049
:10102000B2E014969C938E9313971296FC93EE93D2
:1010300011970895CF93DF930FB6F8940F92EC01B8
:101040002496CF3F83E0D80710F00E942F1AE0913A
:101050000102F0910202A1E0B2E002C0DF01F90159
:10106000228133812C173D0728F4208131812115FD
:101070003105A1F781E0ED3FF80779F18D919C9161
:1010800011970496208131812D933C9322813381E5
:101090002C1B3D0B2930310520F1BF016C0F7D1F4A
:1010A000DB0113963C932E931297D383C28312963F
:1010B0004D915C911397A1E0B2E001C0DF01ED9189
:1010C000FC9111972281338124173507B8F3EB0186
:1010D000F983E8836D937C9304C00E942F1A80E00B
:1010E00090E00F900FBEDF91CF910895CF93DF93E3
:1010F0000097E9F0BC01645071090FB6F8940F92A3
:10110000EB014A815B81A1E0B2E001C0DF01ED911A
:10111000FC9111972281338124173507B8F3049786
:10112000EC01F983E8836D937C930F900FBEDF9100
:10113000CF910895FC01892B71F16115710569F159
:101140000FB6F8940F92DB011D921C92A081B18121
:10115000109739F4718360837383628381E08583A0
:1011600016C08481882361F0258130E02F5F3F4FD6
:1011700090E08217930724F40F900FBE80E008954B
:101180006D937C937183608385818F5F85830F90DE
:101190000FBE81E0089580E0089580E00895FC018D
:1011A000892BD9F00FB6F8940F92A281B3811097D2
:1011B00079F08581882311F0815085838D919C91F0
:1011C000119793838283892B19F4118210821582DF
:1011D0000F900FBE8A2F9B2F089580E090E0089516
:1011E000CF92DF92EF92FF92CF93DF93EB01861BBA
:1011F000970B6C01E12CF12C0E949D19DC01A701D9
:1012000096010E945C1E8C0F9D1FDF91CF91FF9075
:10121000EF90DF90CF900895DF92EF92FF920F93BF
:101220001F93CF93DF93EC0181E02A819091140604
:10123000291380E09D819C3009F40EC198F492300E
:1012400009F481C030F4992329F1913009F452C096
:101250006AC29A3009F4A9C008F0C7C0953009F4F1
:101260008CC061C2983109F4A7C150F4933109F4DC
:1012700066C1973109F48EC19D3009F054C236C160
:10128000943409F4E2C19E3F09F430C2933409F06A
:101290004AC2B2C1909111069230C1F48A81809302
:1012A00014068E818093130681E08093120613E06A
:1012B0001093110664E670E088EC90E091DF909363
:1012C0000E0680930D0610930C062DC2953009F082
:1012D0002AC2882309F427C280911206813009F0BE
:1012E00022C210920B0610920A061A82CE010E94A8
:1012F000BD171FC280911106823009F014C22091DF
:101300000C0630E043E050E0421B530BE4EFF1E009
:101310004E9FB0014F9F700D5E9F700D11246C5950
:101320007F4F84E090E0821B930B9C012E9FC001B5
:101330002F9F900D3E9F900D112452DF90930E062B
:1013400080930D06F0C180911106823009F0EBC147
:101350008A81809314068E818093130613E0109384
:10136000110664E670E088EC90E03ADF90930E0698
:1013700080930D0610930C06D6C1882309F4D3C1BF
:101380008E818111D0C180911106833009F0CBC1CB
:1013900084E08093110688EC90E090930E06809391
:1013A0000D0683E080930C06BEC190911106953026
:1013B00009F0B9C1882309F4BCC1809109068631BE
:1013C00031F488EC90E090930E0680930D06CE01E8
:1013D00004960E940F138A8787E08B838C838BE0AF
:1013E0008D83CE010E94F818A4C1882309F49BC103
:1013F000809111068450823008F095C180910906D1
:101400008A3009F090C1E0910706F09108069085B6
:101410008885981388C191858985981384C1CF01E7
:1014200065DE86E1809309068A85811107C08E8179
:1014300090E0982F88272F81822B02C080E090E0D7
:101440000E94EC1288EC90E090930E0680930D06BB
:1014500083E080930C0667C1882309F464C18091FE
:101460001106853009F05FC1DE80EF80F12CFE2C83
:10147000EE248885E82A098510E0102F00278A8548
:10148000082BC801DD203CF42091050630910606AA
:101490002817390779F04C8147509E01255F3F4F4F
:1014A0006D2D8E2D9F2D0E94CE148A8710930606D7
:1014B000009305068D2D8076803209F034C180912D
:1014C0000906863131F488EC90E090930E06809303
:1014D0000D0687E08B838C838DE08D83FE82EF8207
:1014E00018870987CE010E94F81823C1882309F4C0
:1014F0001AC1809111068450823008F014C1809185
:1015000009068C3009F00FC1E0910706F09108063A
:1015100091858885981307C192858985981303C1A1
:10152000CF01E4DD86E18093090683E080930C0619
:1015300088EC90E090930E0680930D06F4C088230B
:1015400009F4F1C080911106843009F0ECC080915B
:101550000906823109F0E7C0E0910706F09108061C
:10156000978189859813DFC090858A859813DBC0A1
:10157000CF01BCDD86E18093090685E080931106EA
:1015800083E080930C0688EC90E090930E068093A5
:101590000D06C9C0882309F4C6C0809111068530A4
:1015A00009F0C1C080E395E790930E0680930D0685
:1015B00083E080930C06B7C090911106933068F4D5
:1015C00081E08093120681E090E090930E06809374
:1015D0000D0683E080930C06A6C0882309F4A3C0FF
:1015E0008AE090E090930E0680930D0683E080934E
:1015F0000C061092110697C080911106813009F0F7
:1016000092C020910C0630E043E050E0421B530BA7
:10161000E4EFF1E04E9FB0014F9F700D5E9F700DA3
:1016200011246C597F4F84E090E0821B930B9C0146
:101630002E9FC0012F9F900D3E9F900D1124D0DD55
:1016400090930E0680930D066EC080911106813036
:1016500009F069C08F8190E0982F88272885822B18
:1016600020910F06309110068217930709F05BC096
:101670000E947919FC0180818F3F19F406E011E086
:1016800002C005E010E00E94A418FC0180818F3F99
:1016900011F40F5F12608C81801345C07E01F9E068
:1016A000EF0EF11C10FF42C00E947919FC019081DD
:1016B00089859817C1F1970141E061E080E19FEFD2
:1016C00021D611FF0AC07E01FAE0EF0EF11C97014E
:1016D00041E061E080E19FEF15D61092110681E0B4
:1016E00090E090930E0680930D061DC09091110618
:1016F0009530C9F48823B9F09C818F81823099F4A8
:10170000953089F488858A834B8145504B8350E01E
:10171000BE01675F7F4FCE0104960E94951ECE01E9
:101720000E94BD1706C0CE01E1DC03C011FDCFCF82
:10173000D4CFDF91CF911F910F91FF90EF90DF9069
:101740000895CF93DF93EC0180911106853009F065
:101750005FC08D818E3058F48A30B8F58130B1F099
:1017600078F1823069F1843009F052C02EC088319E
:1017700061F130F4823149F1863109F049C025C068
:10178000833419F18E3F09F043C01FC08E819091C0
:101790001206891711F081113BC0913039F481E0B4
:1017A00090E090930B0680930A0632C064E670E0E6
:1017B00084EF91E015DD90930B0680930A0628C014
:1017C00010920B0610920A0623C08B8125E0280F89
:1017D0002333F0F48C5F853050F0FE01E80FF11DEB
:1017E000DF0111979C91948381508430B1F72B8352
:1017F00085E08C838EEF8D831E8282E08F838A81C9
:101800008887809114068A83CE010E94F81802C04E
:10181000CE016CDCDF91CF910895CF93DF931F92BF
:10182000CDB7DEB781E0898324E136E0AE014F5FBA
:101830005F4F61E084E19FEF1CD50E947919FC01A4
:1018400080818F3F21F481E08093110615C00E94B2
:10185000A418FC0180818F3F21F481E08093110660
:101860000BC0809114068F3F21F482E08093110613
:1018700003C083E0809311061092130681E08093E9
:10188000120688EC90E090930E0680930D0683E09C
:1018900080930C061092100610920F068FEF9FEFA8
:1018A000909306068093050680910906863139F0EB
:1018B0008091070690910806009709F017DC86E1F1
:1018C0008093090610920B0610920A060F90DF9182
:1018D000CF910895EF92FF920F931F93CF93DF93D1
:1018E0001F92CDB7DEB780910A0690910B06009744
:1018F000B9F0019790930B0680930A06892B81F427
:1019000086E390E097DBFC01128283E0838384838B
:1019100082E08583809113068683CF010E94BD17E4
:1019200080910D0690910E06009741F001979093DB
:101930000E0680930D06892B09F04CC2809111068A
:10194000823009F41BC138F4882309F49AC081302D
:1019500009F4A3C03FC2843009F4D3C108F459C1CB
:10196000853009F037C280910C06882349F08150F8
:1019700080930C06909109069C3009F044C009C080
:1019800081E090E090930E0680930D061092110670
:1019900021C223E030E0A901481B5109BA01660FBA
:1019A000771F640F751F660F771F660F771F29E17A
:1019B000249FC001259F900D112412DC90930E06E8
:1019C00080930D060091070610910806F8018681A4
:1019D00080768032A1F486E390E02CDB8C0180914C
:1019E00007069091080626E3FC01D80101900D92AC
:1019F0002A95E1F7FC01268120682683E8C186E16B
:101A000080930906E4C19A3041F523E030E0A90152
:101A1000481B5109BA01660F771F640F751F660FC7
:101A2000771F660F771F29E1249FC001259F900D26
:101A30001124D6DB90930E0680930D0686E390E08A
:101A4000F9DA8C01E0910706F091080686E3D801E7
:101A500001900D928A95E1F7BAC186E390E0EADA47
:101A60008C0180911406F801828382E08383848351
:101A700086E1858380E395E790930E0680930D06BB
:101A8000A6C10E94D7180E942B17C7DE8AE090E0FB
:101A900090930E0680930D069DC120910C06222383
:101AA000B1F1215020930C0630E043E050E0421B9E
:101AB000530BE4EFF1E04E9FB0014F9F700D5E9F1E
:101AC000700D11246C597F4F84E090E0821B930BC2
:101AD0009C012E9FC0012F9F900D3E9F900D1124C1
:101AE0007FDB90930E0680930D0686E390E0A2DAEA
:101AF0008C010E949D199093100680930F060E94FE
:101B00007919FC0180818F3FB1F0F12C19C08091CF
:101B10001206833038F48F5F8093120683E080933F
:101B20000C0658C188EB9BE090930E0680930D063F
:101B3000109211064FC181E0F8018187FF24F394D0
:101B40000E94A418FC0180818F3F31F4F801EF0D51
:101B5000F11D81E08187F394F801128283E485838B
:101B600080911206868380910F06909110069783CC
:101B7000808785E08F0D8383848329C120910C06A3
:101B8000222399F1215020930C0630E043E050E0ED
:101B9000421B530BE4EFF1E04E9FB0014F9F700DDD
:101BA0005E9F700D11246C597F4F84E090E0821B82
:101BB000930B9C012E9FC0012F9F900D3E9F900D77
:101BC00011240EDB90930E0680930D0686E390E0C1
:101BD00031DA8C01FC01128283E08383848381E00B
:101BE0008583809112068683F2C08091120683302D
:101BF00038F48F5F8093120683E080930C06EAC06E
:101C000088EB9BE090930E0680930D0610921106D0
:101C1000E1C080910C06882309F45CC08150809358
:101C20000C0664E670E084EF91E0DADA90930E0639
:101C300080930D0686E390E0FDD98C018091140617
:101C4000F801828384E08583868381E087838087AF
:101C50008CE281877801FAE0EF0EF11C87E189833D
:101C60009701AE014F5F5F4F61E080E09FEF01D3CE
:101C70008981823050F586E089839701AE014F5FFC
:101C80005F4F61E080EC9FEFF4D28981E80EF11C98
:101C90009FE5F70190838F5F89830E947919FC018A
:101CA0008081982F92959F709A3010F0995C01C0B6
:101CB000905DF70191838F708A3010F0895C01C0CC
:101CC000805DF701828389818E5F8A5FF80183835B
:101CD00084837DC01092100610920F0681E08093DD
:101CE000120683E080930C0664E670E084EF91E0D6
:101CF00077DA90930E0680930D0682E080931106AA
:101D000069C080910C06882309F1815080930C06EC
:101D100023E030E0A901481B5109BA01660F771F83
:101D2000640F751F660F771F660F771F29E1249FC9
:101D3000C001259F900D112453DA90930E068093D5
:101D40000D06809109068A3051F40BC081E090E0C5
:101D500090930E0680930D06109211063BC08231BF
:101D600079F486E390E066D98C01E0910706F09162
:101D7000080686E3D80101900D928A95E1F727C005
:101D80008C3009F50091070610910806F80186814C
:101D900080768032A1F486E390E04CD98C0180916A
:101DA00007069091080626E3FC01D80101900D92E8
:101DB0002A95E1F7FC0126812068268308C086E188
:101DC0008093090604C086E18093090603C0C80118
:101DD0000E94F8180F90DF91CF911F910F91FF9003
:101DE000EF90089580911106089581E09091090681
:101DF000963109F080E00895CF92DF92EF92FF9242
:101E00000F931F93CF93DF931F92CDB7DEB7F82EBA
:101E1000E62ED42EC52E86E390E00CD98C012091BD
:101E20000F06309110062F5F3F4F2F3F8FEF38077F
:101E300029F03093100620930F0606C081E090E051
:101E40009093100680930F0620910F063091100694
:101E5000ECE0FE1216C0F801E682C782D086318718
:101E600022878BE289839801255F3F4FAE014F5F48
:101E70005F4F6E2D8D2D9C2D0DD58981895F8983B6
:101E80001FC0FAE0FF120DC0F801C682D78230876A
:101E90002187B801665F7F4F8E2D37D38A5F898394
:101EA0000FC0F2E1FF1209C0F801E68237832087F4
:101EB00083E2818786E0898303C0C80117D91AC0ED
:101EC00080911406F8018283898183838483F09250
:101ED0000906F58210930806009307068091110603
:101EE0008450823038F410920E0610920D0683E072
:101EF00080930C060F90DF91CF911F910F91FF906F
:101F0000EF90DF90CF900895637041F520911B060C
:101F100030911C062817390751F0E7E2F6E021E07E
:101F200030E0408151814817590779F402C020E020
:101F300030E0C901880F991F820F931F880F991FE6
:101F4000880F991F895E994F08952F5F3F4F3C96E8
:101F50002F30310531F780E090E00895613029F5A8
:101F600081152FEF920751F0EFE1F1E021E030E031
:101F7000408951894817590779F402C020E030E0C0
:101F8000C901880F991F820F931F880F991F880F0F
:101F9000991F815E9E4F08952F5F3F4F3C962930D9
:101FA000310531F780E090E0089580E090E00895F9
:101FB000FC0190819F3451F028F4913429F1993437
:101FC00039F404C0903501F1933511F480E008959F
:101FD0008181873579F028F48234C1F0843471F03E
:101FE00011C0813769F0873719F0843659F404C07D
:101FF00082E8089582E0089584E8089584E00895D1
:1020000088E8089580E0089582E0089581E00895C9
:10201000CF92DF92EF92FF920F931F93CF93DF93B4
:102020001F92CDB7DEB7FC011982E280F380E18117
:102030000E2F10E0F801E254F109E933F10580F5C3
:102040008A016B01EC5CFF4F0C94471E81E0FB01A1
:1020500080831CC082E0FB01808318C084E0FB0108
:10206000808314C041E050E0B701CE0101960E9488
:102070009E1E9981F6018081981708F4892FF60138
:102080008083882371F0FFEFEF1AFF0AF601908139
:10209000492F50E0B701C8010E949E1E80E001C098
:1020A00083E00F90DF91CF911F910F91FF90EF9000
:1020B000DF90CF900895EF92FF920F931F93CF93ED
:1020C000DF931F92CDB7DEB7FC016983E280F38016
:1020D000E1810E2F10E0F801E254F109E933F10536
:1020E00020F58A01E359FF4F0C94471E81E0898354
:1020F00013C082E0898310C084E089830DC041E071
:1021000050E0B701CE0101960E94AE1E898188235E
:1021100069F08FEFE81AF80A9981492F50E0B7016A
:10212000C8010E94AE1E80E001C083E00F90DF91E5
:10213000CF911F910F91FF90EF900895683108F4AF
:10214000BACF83E00895B7DF0E94180380E00895B6
:10215000AF92BF92CF92DF92EF92FF920F931F93B5
:10216000CF93DF9300D000D0CDB7DEB78F30F0F53E
:1021700090E0FC01EE0FFF1FE80FF91FEE0FFF1FAD
:10218000EE0FFF1FE95EF94F2FEF3FEF35832483FA
:102190000EE110E07F0144E050E0B801CE0101966D
:1021A0000E949E1ECE2CDF2C44E050E0B701CE01F1
:1021B00001960E94881E892B81F48FEF89838A8380
:1021C0008FEF9FEF9C838B8344E050E0602F712F53
:1021D000CE0101960E94AE1E05C00C5F1F4F0A354E
:1021E0001105C9F68C2D9D2D0E9478010F900F903E
:1021F0000F900F90DF91CF911F910F91FF90EF9073
:10220000DF90CF90BF90AF90089580911B06909182
:102210001C06019669F0E7E2F6E06FEC76E021E05B
:1022200030E0C901408151814F3F5F4FC9F402C086
:1022300080E090E09C01220F331FF901E80FF91FA5
:10224000EE0FFF1FEE0FFF1FE95EF94F1782168298
:10225000118610861386128615821482CF01089586
:102260002F5F3F4F3C96E617F707D9F680E090E0E6
:1022700008950F931F93CF93DF93EA01890144DE02
:10228000009719F4188282E00FC0DC011696ED91D8
:10229000FC911797309719F4188283E005C0A801C4
:1022A000BE01099581111882DF91CF911F910F9185
:1022B00008951F93CF93DF93EB019A01DC011296EF
:1022C000ED91FC911397309771F418811A3008F052
:1022D0001AE0412F50E065E171E0C9010E94951EAE
:1022E000188380E00BC03197329718F480E19FEF9C
:1022F00002C08FEF9FEFAE0161E0BBDFDF91CF91B6
:102300001F9108950F931F93CF93C42F8901FCDD74
:10231000009759F0DC011896ED91FC9119973097D0
:1023200031F0A8016C2F099503C082E001C083E061
:10233000CF911F910F910895CF92DF92EF92FF926C
:102340000F931F93CF93DF93CDB7DEB727970FB6C9
:10235000F894DEBF0FBECDBF198242E050E060E0CE
:1023600070E0CE0102960E949E1EE5E1F1E04FE191
:1023700051E080E090E02191820F911DE417F50774
:10238000D1F79D838C832AE029832A813B812817FA
:10239000390709F446C01FEF1F839E01295F3F4F95
:1023A00041E061E080E19FEFADDF1E839E012A5F87
:1023B0003F4F41E061E084E19FEFA4DF84ED9DE2C7
:1023C0009B838A839E012E5F3F4F42E061E081E163
:1023D0009FEF98DF8CE089839E012F5F3F4F41E0A4
:1023E00061E082E19FEF8EDF80E590E09B838A834E
:1023F0009E012E5F3F4F42E061E088E09FEF82DF69
:1024000019829E012F5F3F4F40E061E080E09FEF27
:1024100079DF42E050E060E070E0CE0104960E9477
:10242000AE1EEBE1F6E02FEC36E08FEF9FEF9183ED
:1024300080833C96E217F307D1F78FE090E09B830F
:102440008A8310921606109215060E943C011B8288
:102450001A8260E070E000E010E007C00F5F1F4FDD
:102460003C960F30110561F441C0F801EE0FFF1FDB
:10247000E00FF11FEE0FFF1FEE0FFF1FE95EF94F98
:1024800084819581019651F77801EE0CFF1CE00ED6
:10249000F11EC701880F991F880F991FFC01E95E83
:1024A000F94F7F01660F771F660F771F625E7F4FC0
:1024B00044E050E0CF010E949E1EF70180818150D0
:1024C0008E3F50F4C7010E945D01811105C00F5F6E
:1024D0001F4FF701158214826A817B816F5F7F4FE6
:1024E0007B836A836F30710508F4BFCF27960FB6E0
:1024F000F894DEBF0FBECDBFDF91CF911F910F913A
:10250000FF90EF90DF90CF900895EF92FF920F939E
:102510001F93CF93DF9390E0FC01EE0FFF1FDF01CD
:10252000A80FB91FAA0FBB1FAA0FBB1FA95EB94FE7
:102530002C91EB012883229611962C91DB011196A8
:102540002C93E80FF91FEE0FFF1FEE0FFF1FE95E40
:10255000F94F0280F381E02D13E000E020E137E243
:10256000FF24F394E12CE217F30700F1CF01B90146
:102570000E94171E462FE82FF92FADECBCEC0E94ED
:102580004D1E9C01369527953695279536952795AE
:10259000411103C0002331F04E2D405D48831F5F81
:1025A00021960F2D2A303105F0F60CC0ADECBCECB5
:1025B0000E944D1E9C013695279536952795369598
:1025C0002795E8CFE05DE883812FDF91CF911F91C0
:1025D0000F91FF90EF9008958F3F2FEF920791F0AA
:1025E0002091150630911606F901EE0FFF1FE20F3C
:1025F000F31FEE0FFF1FEE0FFF1FE95EF94F9583EC
:10260000848303C080911506A3DD80911506909107
:1026100016060196909316068093150608958F92DC
:102620009F92AF92BF92CF92DF92EF92FF920F9361
:102630001F93CF93DF93CDB7DEB728970FB6F894EB
:10264000DEBF0FBECDBFDC0116968C911697898335
:1026500017968C9117978A838C9127EF280F253036
:1026600008F0F3C0883051F1BD01675F7F4F1896C5
:102670009C91189780ED890F8A3008F0E8C0FB0123
:10268000620F711D20E030E006C0919140ED490FCE
:102690004A3008F0DEC0A901440F551F220F331F36
:1026A000220F331F220F331F240F351F290F311D17
:1026B00020533109E617F70741F702C020E030E068
:1026C0008D013C832B83CE0101960E944801882313
:1026D00009F4C1C0F801A280B12CBA2CAA248381CC
:1026E000A82A07E116E0E12CF12C88248A94982C82
:1026F000F801C480D580FFEFCF16DF0631F42FEF4D
:1027000082169206B1F4470114C044E050E0B801CB
:10271000CE0101960E94881E892B39F48FEFE816AE
:10272000F80609F49AC0470179C0AC14BD0409F455
:1027300096C0EFEFEE1AFE0A045F1F4FFFE0EF16A0
:10274000F104B1F62FEF8216920609F48AC0F40163
:10275000EE0FFF1FE80DF91DEE0FFF1FEE0FFF1F1D
:10276000E95EF94F84819581019609F057C0FFEF2A
:10277000AF16BF0609F477C0C401880F991F880DF2
:10278000991D880F991F880F991F895E994F49815C
:102790005A816B817C81FC01408351836283738306
:1027A0000E945D01182F811160C0F401EE0FFF1F20
:1027B000E80DF91DEE0FFF1FEE0FFF1FE95EF94F49
:1027C000B582A4820F2EFEE1EF2EF12CF02D44E015
:1027D00050E0B701CE0105960E949E1E44E050E0F5
:1027E000BE016B5F7F4FCE0101960E94881E892B30
:1027F000E9F18D8181508E3F48F044E050E06E2D2C
:102800007F2DCE0101960E94AE1E30C0F4E0EF0E87
:10281000F11C2AE5E216F104D1F628C08FEFA816C4
:10282000B80621F4882D94DC10E020C0F401EE0FEE
:10283000FF1FE80DF91DEE0FFF1FEE0FFF1FE95EF2
:10284000F94FB582A48210E011C013E00FC013E06D
:102850000DC013E00BC013E009C011E007C012E087
:1028600005C011E003C012E001C012E0812F2896DC
:102870000FB6F894DEBF0FBECDBFDF91CF911F9191
:102880000F91FF90EF90DF90CF90BF90AF909F900F
:102890008F900895EF92FF920F931F93CF93DF9342
:1028A0008A01E90131DB7C01009721F4D8011C92F7
:1028B00082E06DC0DC011696ED91FC911797309780
:1028C00021F4F801108283E062C0AE01B8010995DD
:1028D000811159C0C7016CDB882314F58F778230D2
:1028E000D8F0E82FF0E0DE01AE0FBF1F11979C91EA
:1028F000911107C0EC0FFD1F3297908199234CF482
:102900000BC09F3F49F4EC0FFD1F32979081992334
:102910001CF48150813029F7D8018C9380E037C0B6
:102920008823A1F1282F30E0FE01E20FF31F319739
:102930009081992364F0823010F1911120C02C0F06
:102940003D1FF90132979081992334F418C0C20FCA
:10295000D31F18828F5F13C08150813081F0282FE0
:1029600030E0FE01E20FF31F31979081911107C013
:102970002C0F3D1FF9013297908199236CF7F801D4
:10298000808380E004C0D8011C9201C080E0DF9108
:10299000CF911F910F91FF90EF900895EF92FF92CA
:1029A0000F931F93CF93C42F8901AEDA7C01009758
:1029B00041F1DC0118968D919C911997892B19F1A1
:1029C000C701F6DA982F9F77C91778F4F801EC0F52
:1029D000F11D31978081880F880BF801EC0FF11DF4
:1029E0008083CF5FC913F9CFC92F9111C92FD701A8
:1029F0001896ED91FC911997A8016C2FC7010995C4
:102A000003C082E001C083E0CF911F910F91FF903E
:102A1000EF900895CF93DF930E94B901E3D98530F9
:102A200009F05DC080911506909116060F9708F485
:102A300049C0109216061092150644C0FB01EE0F15
:102A4000FF1FE60FF71FEE0FFF1FEE0FFF1FE95EE0
:102A5000F94FC481D581209729F440E050E08AE005
:102A6000CBD927C0CF3F2FEFD20719F1FB01EE0FD3
:102A7000FF1FE60FF71FEE0FFF1FEE0FFF1FE95EB0
:102A8000F94F0284F385E02D309799F0CB01880F40
:102A9000991F680F791FCB01880F991F880F991F05
:102AA000895E994F0995882321F0AE0160E28CE0A0
:102AB000A3D980911506909116060196909316065B
:102AC0008093150692D9882309F47CC0609115067D
:102AD000709116066F30710508F4B0CF73C0843062
:102AE00009F06CC080911506909116068F30910503
:102AF00070F5FC01EE0FFF1FE80FF91FEE0FFF1F2F
:102B0000EE0FFF1FE95EF94F248135812F3F3F4FC4
:102B1000C1F06BD9882309F455C0609115067091F6
:102B20001606FB01EE0FFF1FE60FF71FEE0FFF1F4C
:102B3000EE0FFF1FE95EF94F448155818AE05CD9B1
:102B400041C0019690931606809315063BC08F3FB7
:102B50002FEF920751F1803C9F4F30F480EC9FEFB4
:102B6000909316068093150640D9882359F1C09199
:102B70001506D091160661E0CE01C6D9892B71F0F9
:102B8000AE0161E38CE038D980911506909116066C
:102B90000196909316068093150614C08FEF9FEF51
:102BA00090931606809315060DC01FD9882351F007
:102BB00040E050E060E282E11FD904C010921606A6
:102BC00010921506DF91CF910895FB01208131818C
:102BD00098E0F901EE27F078EF2FFF27482F407893
:102BE00050E0E417F50731F0220F331FF5E02F27EF
:102BF000305802C0220F331F880F915051F7FB014C
:102C00003183208308951F93CF93DF9380E090E07A
:102C1000D4D596FF06C081E092E8CFD51092DC06AD
:102C200016C199230CF001C1E091DC068E2F90E0D3
:102C3000FC013297E930F10508F0F7C0EA55FF4F83
:102C40000C94471E80E090EBB8D5C82F8CEF8C0F0A
:102C5000803308F0EAC08FEF9FEF9093D206809305
:102C6000D10661ED76E08C2FB0DF83E08093DC0647
:102C7000C250C093D006E091D506F091D606C3832A
:102C8000E6C080E090EB99D5882321F09091DB0697
:102C90009813CBC0299861ED76E097DF84E08093AC
:102CA000DC06D5C080E090EB88D5C82F61ED76E0DA
:102CB0008CDFE091D506F091D606C2831092CF0644
:102CC00085E08093DC06C3C080E090EB76D5EC0114
:102CD000982F1091CF068091D006181780F461EDDF
:102CE00076E08C2F72DFE091D506F091D60681E078
:102CF000810F8093CF06E10FF11DC483A8C0181384
:102D000008C08091D206981390C01F5F1093CF0621
:102D10009EC0DD278091D1069091D2069927C817D1
:102D2000D90709F082C089E192E847D581E89AEC99
:102D300044D586E08093DC068AC08AEA98EB3DD5CC
:102D40001092CF0688E08093DC06299880C0C0915D
:102D5000CF06EC2FF0E0E952F94FD081C23028F0D5
:102D600061ED76E08D2F31DF06C08FEF9FEF9093FE
:102D7000D2068093D106CF5FC093CF068D2F90E00F
:102D8000986B1BD58091CF06853009F060C01092FA
:102D9000CF0689E08093DC065AC0E091D306F0911B
:102DA000D4068091CF0691E0980F9093CF06E80F5C
:102DB000F11DC4818C2F90E0986BFFD461ED76E01B
:102DC0008C2F03DFE091D306F091D406938180919C
:102DD000CF0698133CC08AE08093DC061092CF06A1
:102DE00036C08091CF06811103C08091D20614C0F5
:102DF000813019F48091D1060FC0823061F089E1F1
:102E000092E8DBD487E690E8D8D48BE08093DC06A8
:102E10001092CF061CC08FEF90E0986BCED48091BB
:102E2000CF068F5F8093CF0612C089E192E8C5D4A8
:102E300081E89AECC2D487E690E8BFD489ED92E8A5
:102E4000BCD483E89AECB9D482E08093DC06DF91AD
:102E5000CF911F910895CF92DF92EF92FF920F933F
:102E60001F93CF93DF9300D000D0CDB7DEB702C061
:102E70000E94760887E091E00E94CF080097C1F792
:102E80008091D3069091D406009731F00E94760885
:102E90001092D4061092D30681E08A832BED36E09F
:102EA000AE014E5F5F4F61E080E19FEFE2D99E018E
:102EB0002F5F3F4FAE014E5F5F4F61E082E19FEFBA
:102EC000D8D982E08A839E012D5F3F4FAE014E5FCD
:102ED0005F4F61E081E19FEFCCD98B819C81E7ED71
:102EE000F6E090838183898190E06C01CC0CDD1C3D
:102EF000CC0CDD1C8C0D9D1D6C0120ECC21A29EF41
:102F0000D20A48D480E090E058D481E092E855D4C9
:102F100080E098EB52D480E090E04FD461D48111EE
:102F2000FACF0BE811E00F2EF3EAEF2EF1E0FF2EBF
:102F3000F02DF801819191918F013FD40E151F055D
:102F4000C1F7C601906A39D48091D80690E09E6C92
:102F500034D481E08093DC0689E192E82ED444D415
:102F60000F900F900F900F90DF91CF911F910F91C5
:102F7000FF90EF90DF90CF900895CF93DF93EC0117
:102F8000BC0187E091E00E949A08811103C0CE0144
:102F90000E947608DF91CF9108958091DC068230FF
:102FA00009F444C028F4882349F0813079F0A9C09D
:102FB000863051F18B3009F494C0A3C01092CE0634
:102FC0001092CD0648DF80E090E008958091D5060C
:102FD0009091D606892B41F486E390E00E941A086E
:102FE0009093D6068093D5061092CE061092CD0609
:102FF00082E08093DC0689ED92E8DFD383E89AECE7
:10300000DCD380E090E008951092CE061092CD06B9
:103010003091D5062091D6061092D6061092D5068C
:1030200081E08093DC06832F922F08951092CE06C4
:103030001092CD0680910C01882309F47CC0809108
:10304000CC06882381F093D18091CB06681709F4D0
:1030500075C06093CB068091CC0681508093CC06DE
:1030600080E090E0089580E090E0A7D390FF0FC04B
:1030700080910601882359F08150809306015DD12B
:1030800087708D5F8093CC0680E090E0089587E0A4
:1030900091E00E94CF089093D4068093D3060097C6
:1030A00009F451C0E7EDF6E0DC0113962C9113977B
:1030B0002E5F228312968C9183831092CC0685E03A
:1030C0008093060187E08093DC0689E192E875D35E
:1030D00087EE90E872D389E392E86FD380E090E0C6
:1030E00008958091D3069091D4060E94760810929C
:1030F000D4061092D30681E08093DC0680E090E055
:1031000008958091CD069091CE0601979093CE06BA
:103110008093CD06892BA9F489E192E84ED381E80A
:103120009AEC4BD387E690E848D381E08093DC06A5
:1031300080E090E0089580E090E0089580E090E0E5
:10314000089580E090E008958BED96E008958091D9
:10315000E3069091E406892B71F080E018D588236E
:1031600051F08091E3069091E4060E947608109257
:10317000E4061092E306809112018823B9F02998A1
:1031800080E005D5882391F08DE091E00E94CF0882
:103190009093E4068093E306009741F0AC014D5F05
:1031A0005F4FFC0163816F5F80E0FFC40895CF93A0
:1031B000DF931F92CDB7DEB702C00E9476088DE084
:1031C00091E00E94CF080097C1F781E0898325EE46
:1031D00036E0AE014F5F5F4F61E080E19FEF49D87D
:1031E00043E064E080E089D40F90DF91CF910895AF
:1031F000CF93DF93EC01BC018DE091E00E949A082F
:10320000811104C0CE010E94760801C0A0DFDF91C9
:10321000CF910895CF939BDF40C080E0F1D4C82FB9
:10322000A6D07093E2066093E1069091E0069111BA
:1032300011C08EEF8C0F803380F586E390E00E9402
:103240001A089093DF068093DE06C093E006109282
:10325000DD0623C08091DD06823358F4E091DE065E
:10326000F091DF0621E0280F2093DD06E80FF11D25
:10327000C4838091DD06981310C0E091DE06F091C2
:10328000DF069091E506928383831092E0062998E9
:103290008091DE069091DF062AC080E0A1D48111E2
:1032A000BCCF8091E0068823E9F061D0DC01CB013E
:1032B000AA27BB272091E1063091E206821B930BDF
:1032C000A109B10985369105A105B10570F01092EB
:1032D000E0068091DE069091DF060E94760880E08D
:1032E00090E005C080E090E002C080E090E0CF91E7
:1032F000089585EE96E00895F89484B7877F84BF9B
:10330000A8950FB6F894A895809160008861809385
:103310006000109260000FBE089582E08093B000BC
:103320001092B20095EE9093B30087BB809370002B
:1033300084E08093B1007894089580911301909176
:10334000140180FF09C09695879524EB92279093EE
:1033500014018093130106C09695879590931401EC
:10336000809313018091130190911401089560914D
:10337000EE067091EF068091F0069091F1060895A7
:103380001F920F920FB60F9211242F933F934F93DA
:103390005F936F937F938F939F93AF93BF93EF93BD
:1033A000FF938091EE069091EF06A091F006B09108
:1033B000F1060196A11DB11D8093EE069093EF06D4
:1033C000A093F006B093F1068091E8069091E9068B
:1033D0000196873E23E0920728F49093E9068093B4
:1033E000E80617C01092E9061092E8068091EA06F6
:1033F0009091EB06A091EC06B091ED060196A11D0F
:10340000B11D8093EA069093EB06A093EC06B0936F
:10341000ED068091E6069091E7068A30910530F43A
:1034200001969093E7068093E60608C00E94F9078C
:1034300081E090E09093E7068093E606FF91EF919C
:10344000BF91AF919F918F917F916F915F914F91BC
:103450003F912F910F900FBE0F901F9018952998B4
:10346000F8949CE088E10FB6F894A89580936000EA
:103470000FBE90936000FFCF8A30910528F4FC01C5
:10348000E05FFD4F849108958FEF0895813130F40E
:10349000E82FF0E0E050FE4F849108958FEF0895FB
:1034A0006F3F61F080917A00882344F0E4E6F0E019
:1034B00080818E7F808387E880937A00089590E4EE
:1034C000699FB0011124862B682F606260937C0095
:1034D00008952091780030917900EAE7F0E090813A
:1034E00090649083C90196958795089580319105E0
:1034F00028F4FC01E75EFD4F849108958FEF089555
:10350000E82FE695E695E695F0E0EE0FFF1FE75D04
:10351000FD4FA591B491877031F091E08150990FE2
:103520008111FCCF01C091E0FD013197613019F0AC
:10353000683049F00CC08C91892B8C9390958081D8
:103540009823908308958081982B90830895909577
:103550008C9189238C938081982390830895E82F00
:10356000F0E0EE0FFF1FE75DFD4F85919491FC01A8
:10357000329780810895E82FF0E0EE0FFF1FE75D9E
:10358000FD4FA591B4918C91682B6C930895E82F11
:10359000F0E0EE0FFF1FE75DFD4FA591B491609540
:1035A0008C9168236C9308958D30910568F00D9788
:1035B0008230910558F4FC01EF5CFD4FE49181E00D
:1035C000EF3F29F480E0089580E0089580E00895B9
:1035D0008C5D9D4FFC018491982F97708695869500
:1035E000869519F0813079F021C0911106C094B50B
:1035F000907C81E0F1F480E0089594B5907381E0CF
:10360000C1F480E00895992319F0913041F010C081
:1036100090918000907C81E061F480E00895909129
:103620008000907381E029F480E0089581E008959E
:1036300081E008951F93CF93DF93EC01162F56DF9F
:1036400068E05EDFFE01EC5DFD4FE4913E2F3770D8
:10365000111102C092E001C093E0E695E695E6956F
:1036600019F0E130B9F03BC084B5282F207F31112B
:1036700007C030E4939FA0011124822F842B05C042
:1036800030E1939FC0011124822B816084BD84E0CE
:1036900085BD25C080918000482F407F31110BC02F
:1036A00080E4989F90011124842F822B109289002E
:1036B0001092880009C020E1929FC0011124842B40
:1036C00010928B0010928A009FEF90938700909346
:1036D000860082608093800081E180938100DF9189
:1036E000CF911F9108959C012D503109F901EF5C94
:1036F000FD4FE4918E2F8770E695E695E69519F0DB
:10370000E13081F00895811104C084B58F7384BDC8
:1037100003C084B58F7C84BD84B5807FA1F414BCC4
:1037200015BC11C090918000811102C0907301C03E
:10373000907C911105C0E0E8F0E01082118203C096
:10374000926090938000C901D1DE60E0D9CE0D97E0
:1037500083309105F0F4FC01EF5CFD4F8491982FCC
:10376000977086958695869519F0813039F0089581
:10377000911102C077BD089578BD0895911105C0DB
:103780007093890060938800089570938B00609314
:103790008A00089510926B00E4E6F0E080818B7F50
:1037A00080832A9A84B18C6284B9249885B185B9C2
:1037B00081E58CBD81E08DBD08952A989EBD0DB434
:1037C00007FEFDCF2EB530E0322F22278EBD0DB47F
:1037D00007FEFDCF8EB52A9AA901482BCA0108958C
:1037E00083B180958170089581E080936B00809310
:1037F000680008951F920F920FB60F9211242F9315
:103800003F934F935F936F937F938F939F93AF9368
:10381000BF93EF93FF93189BF6D9FF91EF91BF9160
:10382000AF919F918F917F916F915F914F913F9158
:103830002F910F900FBE0F901F90189525E1FC015E
:10384000208384E1FB018083089590E89093BC007D
:10385000882389F0359B11C081E48093B8008FEFF5
:103860008093BB00ECEBF0E084E880838081816092
:10387000808381E0089580E0089580E00895ECEB76
:10388000F0E080818B7E80838081846880830895CE
:10389000359B0AC0E091FA01F091FB0183818860B9
:1038A000838385EA8093BC0008951F920F920FB620
:1038B0000F9211242F933F938F939F93AF93BF93B6
:1038C000EF93FF938091B900E82FE87F8E2F90E06F
:1038D000FC013897E135F10508F091C0E155FF4F43
:1038E000D6C11092F206E091FA01F091FB018381BA
:1038F00080FF05C08281880F8093BB0005C0828154
:10390000880F81608093BB0085E88093BC008EC0E7
:10391000E091FA01F091FB01158283818064838339
:1039200085E98093BC0082C0E091FA01F091FB012F
:1039300094818091F206891770F4E80FF11D868159
:103940008093BB008091F2068F5F8093F20685E83A
:103950008093BC006BC0E091FA01F091FB01809173
:10396000F206848383818E7F8383838181FD07C0F8
:10397000158280E1838385E98093BC0057C085EA86
:103980008093BC0053C0E091FA01F091FB0180915B
:10399000F20691E0980F9093F2069091BB00E80F29
:1039A000F11D9683E091FA01F091FB012581809150
:1039B000F20690E0019630E08217930724F485EC3C
:1039C0008093BC0033C085E88093BC002FC0E09199
:1039D000FA01F091FB019091F20681E0890F80934A
:1039E000F2062091BB00DF01A90FB11D16962C93A2
:1039F000858380E1838385E98093BC0017C0ECEB6D
:103A0000F0E080818B7E8083808184688083E09178
:103A1000FA01F091FB018091F206848381E08583B5
:103A20008091B9008683838180688383FF91EF91C1
:103A3000BF91AF919F918F913F912F910F900FBEAA
:103A40000F901F9018951F920F920FB60F9211248E
:103A50002F938F939F93AF93BF93EF93FF932091F7
:103A6000C600E091F306F091F40680A18F5F8F719C
:103A700091A1981731F090A1DF01A90FB11D2C93EE
:103A800080A3FF91EF91BF91AF919F918F912F9163
:103A90000F900FBE0F901F9018951F920F920FB6A8
:103AA0000F9211242F933F938F939F93EF93FF9344
:103AB000E091F306F091F40685A194A1981307C054
:103AC00014A2E1ECF0E080818F7D80830BC022A105
:103AD00033A191E0980F95A3F901E80FF11D8081C2
:103AE0008093C600FF91EF919F918F913F912F910D
:103AF0000F900FBE0F901F9018951F93CF93DF93D9
:103B000081110DC0142F117040FF02C0589A5098B7
:103B1000D42FD27041FF04C0599A519A01C0FFCFEF
:103B20008091F3069091F406892BF9F4C62F86E272
:103B300090E00E941A08FC019093F4068093F3062B
:103B400010A211A214A215A2EC2FF0E0EE0FFF1F9D
:103B5000ED5CFD4F859194919093C5008093C400D6
:103B60001092C10086E08093C200112329F0E1EC9D
:103B7000F0E0808180698083DD2329F0E1ECF0E0D2
:103B8000808188608083DF91CF911F910895E82F15
:103B9000F0E0EE0FFF1FED50F94F0190F081E02DA6
:103BA00081E094A1911180E00895E82FF0E0EE0FFC
:103BB000FF1FED50F94F0190F081E02D64A391E0DB
:103BC00095A353A342A381110AC0FA018081809377
:103BD000C600E1ECF0E08081806280830895FFCF31
:103BE000E82FF0E0EE0FFF1FED50F94F0190F0814C
:103BF000E02D20A181E091A1291301C080E008956A
:103C0000E82FF0E0EE0FFF1FED50F94F0190F0812B
:103C1000E02D80A191A1891741F0DF01A90FB11D0D
:103C20008C919F5F9F7191A3089580E00895AA1BD6
:103C3000BB1B51E107C0AA1FBB1FA617B70710F097
:103C4000A61BB70B881F991F5A95A9F780959095C9
:103C5000BC01CD010895052E97FB16F400940FD0FA
:103C600057FD05D033D007FC02D046F408C050956C
:103C70004095309521953F4F4F4F5F4F0895909558
:103C80008095709561957F4F8F4F9F4F0895EE0FF0
:103C9000FF1F0590F491E02D0994A29FB001B39FFE
:103CA000C001A39F700D811D1124911DB29F700D45
:103CB000811D1124911D0895F0DFA59F900DB49FE3
:103CC000900DA49F800D911D11240895A1E21A2E3C
:103CD000AA1BBB1BFD010DC0AA1FBB1FEE1FFF1FB0
:103CE000A217B307E407F50720F0A21BB30BE40B00
:103CF000F50B661F771F881F991F1A9469F7609547
:103D00007095809590959B01AC01BD01CF01089500
:103D1000FB01DC0104C08D910190801921F4415018
:103D20005040C8F7881B990B0895FB01DC0102C0C5
:103D300001900D9241505040D8F70895DC01CB011D
:103D4000FC01F999FECF06C0F2BDE1BDF89A3196AB
:103D500000B40D9241505040B8F70895DC01CB01FA
:103D600002C02D9105D041505040D8F70895262F1C
:103D7000F999FECF1FBA92BD81BD20BD0FB6F89450
:0E3D8000FA9AF99A0FBE01960895F894FFCFB3
:103D8E000000000004000500000000040000000018
:103D9E000004005EA14131535231312E333133458F
:103DAE0073020000FF08109E10000045571C00080B
:103DBE00FF0810A310000045425A0010FF08105BC8
:103DCE0010000045425B0014FF08105B1000004518
:103DDE00575C0011FF08105B10000045425E001298
:103DEE00FF08105B10000046730000C0FF59110061
:103DFE0000000046610100C1FF591100000000469D
:103E0E00610200C2FF591100000000E78001820824
:103E1E00C66A95ACC281CA97C4809816CC00E000E1
:043E2E00C860C000A8
:00000001FF
