:100000000C941F020C9440020C9440020C94400289
:100010000C9440020C9440020C9440020C94400258
:100020000C9440020C9440020C9440020C94400248
:100030000C9440020C948F020C9440020C944002E9
:100040000C9440020C9440020C9440020C94400228
:100050000C9440020C9440020C9440020C94400218
:100060000C9440020C9446060C9474060C944002C6
:100070000C9440020C9440020C9440020C944002F8
:100080000C9440020C9440020C9440020C944002E8
:100090000C94A8060C94D6060C9440020C9471059E
:1000A0000C9440020C9440020C9440020C944002C8
:1000B0000C9440020C9440020C9440020C944002B8
:1000C0000C9440020C9440020C94400292052006CD
:1000D000200620062006200620062006920520067F
:1000E000200620062006200620062006B50520064C
:1000F000200620062006200620062006A905200648
:10010000200620062006200620062006B50520062B
:10011000200620062006200620062006CC05200604
:10012000200620062006200620062006200620069F
:10013000200620062006200620062006F3052006BD
:10014000200620062006200620062006A9052006F7
:10015000200620062006200620062006E4052006AC
:1001600020062006200620062006200608060F1C72
:10017000391C171C391C391C391C391C391C391CF9
:10018000391C391C391C391C391C391C391C391CC7
:10019000391C391C391C391C131C391C391C391CDD
:1001A000391C391C391C391C391C391C1B1C0F1CEF
:1001B000391C171C391C391C391C391C391C391CB9
:1001C000391C391C391C391C391C391C391C391C87
:1001D0001B1C391C391C391C131C391C391C0F1CE5
:1001E000781C971C7E1C971C971C971C971C971CAF
:1001F000971C971C971C971C971C971C971C971C67
:10020000971C971C971C971C971C7B1C971C971C72
:10021000971C971C971C971C971C971C971C811C5C
:10022000781C971C7E1C971C971C971C971C971C6E
:10023000971C971C971C971C971C971C971C971C26
:10024000971C811C971C971C971C7B1C971C971C48
:10025000781C3124582482243D263D26A6243D26A0
:100260003D263D263D26BE24DE24162560253D265E
:100270003D263D263D263D268A253D263D263D261A
:10028000B625C8253D263D263D263D263D263D2654
:100290003D263D263D263D263D263D263D263D2646
:1002A0003D263D263D263D263D263D263D263D2636
:1002B0003D263D263D263D263D263D263D263D2626
:1002C0003D263D263D263D263D263D263D263D2616
:1002D0003D263D263D263D26E82512260C949B14FE
:1002E0000C94301A0C94131C0C947E1C0C945F1DFF
:1002F0000C94CC050C94E4050C9480140C94B50576
:100300000C9486150C941B1C0C94E8250C94BE24AC
:100310000C94A6240C94A01C0C948A250C94A71C65
:100320000C944B150C9408060C9479170C949F139D
:100330000C94991A0C94D61B0C94A9050C94441C8B
:100340000C9410170C9485120C94811C0C94B625F7
:100350000C94C8250C94171C0C94971C0C940F1C1F
:100360000C947B1C0C9458240C9412260C9482241C
:100370000C9460250C94A0120C9454180C94200634
:100380000C9416250C94EF1B0C9492050C94B41746
:100390000C94D4170C94BE1A0C94391C0C94DE24C3
:1003A0000C9431240C943D260C94F3050C94E61225
:1003B0000C94781C28292A2B2C2D2E2FFFFFFFFFB1
:1003C000FFFFFFFFFF000102030405FFFFFFFFFF28
:1003D000FFFFFFFFFFFFFFFFFFFFFFFFFFFFFFFF2D
:1003E0000607341F1E200F0C0E0D3528292A2B2C32
:1003F0002D3327262225212423000102030405068C
:1004000018191A1B1C1D2E2F12113110151632131C
:100410001714072200250028002B002E003100347D
:10042000000AFF090801FFFFFFFFFFFFFFFFFFFFBB
:100430001AFF19184401A1005000270013001124CD
:100440001FBECFEFD1E2DEBFCDBF00E00CBF12E098
:10045000A0E0B2E0E0E7F5E500E00BBF02C00790E6
:100460000D92AE38B107D9F729E0AEE8B2E001C08D
:100470001D92A439B207E1F70E94DC220C94B62A3F
:100480000C940000F89484B7877F84BFA8950FB6BA
:10049000F894A89580916000886180936000109224
:1004A00060000FBE089582E08093B0001092B20009
:1004B00092EC9093B30087BB8093700084E08093AC
:1004C000B10078940895809100029091010280FF1C
:1004D00009C09695879524EB92279093010280930B
:1004E000000206C0969587959093010280930002C2
:1004F000809100029091010208956091960270919E
:1005000097028091980290919902089560919202C9
:1005100070919302809194029091950208951F9298
:100520000F920FB60F9211240BB60F922F933F9399
:100530004F935F936F937F938F939F93AF93BF93EB
:10054000EF93FF938091960290919702A091980269
:10055000B09199020196A11DB11D809396029093CE
:100560009702A0939802B093990280919002909183
:1005700091020196873E23E0920728F4909391021E
:100580008093900217C01092910210929002809175
:10059000920290919302A0919402B09195020196DB
:1005A000A11DB11D8093920290939302A093940297
:1005B000B093950280918E0290918F028A309105BE
:1005C00030F4019690938F0280938E0208C00E94AF
:1005D000FE2281E090E090938F0280938E02FF9143
:1005E000EF91BF91AF919F918F917F916F915F91AB
:1005F0004F913F912F910F900BBE0F900FBE0F9018
:100600001F901895F8949CE088E10FB6F894A8958F
:10061000809360000FBE90936000FFCF0F931F93F5
:10062000962F89019A01E4E6F0E080818B7F808338
:1006300084B1876084B923981CBC00318EE518070B
:100640008FE528073105A8F480E040E15EE56FE51D
:1006500070E08F5F76956795579547950417150756
:100660002607370718F48530A1F706C080FF02C0BF
:1006700003C080E021E02DBD92FF02C060E701C011
:1006800060E59370990F990F962B8695892B8CBDF9
:100690001F910F9108956EBD0DB407FEFDCF8EB56D
:1006A00008958732910528F4FC01E454FC4F8491AD
:1006B00008958FEF0895893030F4E82FF0E0EC547E
:1006C000FC4F849108958FEF08956F3F61F0809102
:1006D0007A00882344F0E4E6F0E080818E7F808316
:1006E00087E880937A00089590E4699FB00111240F
:1006F000862B682F606260937C00089520917800BB
:1007000030917900EAE7F0E0908190649083C9012C
:100710009695879508958133910528F4FC01EE5153
:10072000FC4F849108958FEF0895E82FE695E695A4
:10073000E695F0E0EE0FFF1FED5EFB4FA591B49143
:10074000877031F091E08150990F8111FCCF01C089
:1007500091E0FD013197613019F0683049F00CC02B
:100760008C91892B8C939095808198239083089508
:100770008081982B9083089590958C9189238C93F8
:100780008081982390830895E82FF0E0EE0FFF1FFB
:10079000ED5EFB4F85919491FC0132978081089525
:1007A000E82FF0E0EE0FFF1FED5EFB4FA591B49137
:1007B0008C91682B6C930895E82FF0E0EE0FFF1FEB
:1007C000ED5EFB4FA591B49160958C9168236C937D
:1007D00008958430910568F004978331910558F4A9
:1007E000FC01EF5DFB4FE49181E0EF3F29F480E0F5
:1007F000089580E0089580E00895835E9B4FFC019A
:100800008491982F9770869586958695833059F0B8
:1008100028F4882359F08130E9F036C08430A1F003
:100820008530A9F031C0E0E9F0E016C0911106C0B2
:1008300094B5907C81E059F580E0089594B590736B
:1008400081E029F580E00895E0EAF0E005C0E0E20B
:10085000F1E002C0E0E8F0E0913051F018F09230A1
:1008600069F014C09081907C81E089F480E0089563
:100870009081907381E059F480E0089590819C709C
:1008800081E029F480E0089581E0089581E00895F1
:100890001F93CF93DF93EC01162F0E948B0368E028
:1008A0000E949503FE01E35EFB4FE4913E2F3770FB
:1008B000111102C022E001C023E0E695E695E6951D
:1008C000E33059F028F4EE2359F0E13021F14BC028
:1008D000E430D9F0E530E1F046C0E0E9F0E01DC0D9
:1008E00084B5807F311107C090E4299FA0011124B5
:1008F000282F242B05C090E1299F90011124282B3B
:10090000216024BD84E085BD2EC0E0EAF0E005C092
:10091000E0E2F1E002C0E0E8F0E08081982F9C7F07
:10092000323039F4220F220F822F892B158614863C
:1009300013C0311109C080E4289F90011124892F30
:10094000822B1186108608C080E1289F9001112417
:10095000892F822B138612869FEF9783968382605E
:10096000808381E18183DF91CF911F9108959C0164
:1009700024503109F901EF5DFB4FE4918E2F877010
:10098000E695E695E695E330B9F128F4EE2359F0C3
:10099000E130C1F00895E43019F0E53081F10895B7
:1009A000E0EAF0E011C0811104C084B58F7384BD0A
:1009B00003C084B58F7C84BD84B5807FB1F414BC42
:1009C00015BC13C0E0E8F0E09081823011F4907F14
:1009D00005C0811102C09C7301C09C7C911103C0B1
:1009E0001082118202C092609083C9010E948B0321
:1009F00060E00E9495030895E0E9F0E0E5CFE0E2D1
:100A0000F1E0E2CF04978431910598F5FC01EF5DA8
:100A1000FB4F8491982F97708695869586958330A5
:100A200059F028F4882359F08130A9F008958430D2
:100A300061F0853069F00895E0E9F0E00EC09111B1
:100A400002C077BD089578BD0895E0EAF0E005C0E2
:100A5000E0E2F1E002C0E0E8F0E0923019F47587DE
:100A600064870895911103C0718760870895738723
:100A70006287089528E1FC01208389E1FB018083DE
:100A8000089590E89093BC00882389F0489B11C09A
:100A900086E38093B8008FEF8093BB00ECEBF0E02F
:100AA00084E8808380818160808381E0089580E094
:100AB000089580E00895ECEBF0E080818B7E8083E8
:100AC0008081846880830895489B0AC0E091150363
:100AD000F091160383818860838385EA8093BC004C
:100AE00008951F920F920FB60F9211240BB60F921A
:100AF0002F933F938F939F93AF93BF93EF93FF9366
:100B00008091B900E82FE87F8E2F90E0FC013897A4
:100B1000E135F10508F094C08827EA59FF4F8F4F5F
:100B20000C94342A10929A02E0911503F091160366
:100B3000838180FF05C08281880F8093BB0005C040
:100B40008281880F81608093BB0085E88093BC0020
:100B50008EC0E0911503F0911603158283818064A5
:100B6000838385E98093BC0082C0E0911503F091F6
:100B70001603948180919A02891770F4E80FF11D91
:100B800086818093BB0080919A028F5F80939A0246
:100B900085E88093BC006BC0E0911503F0911603CB
:100BA00080919A02848383818E7F8383838181FDF8
:100BB00007C0158280E1838385E98093BC0057C01C
:100BC00085EA8093BC0053C0E0911503F0911603B1
:100BD00080919A0291E0980F90939A029091BB00B5
:100BE000E80FF11D9683E0911503F091160325811E
:100BF00080919A0290E0019630E08217930724F4E6
:100C000085EC8093BC0033C085E88093BC002FC086
:100C1000E0911503F091160390919A0281E0890FFB
:100C200080939A022091BB00DF01A90FB11D169697
:100C30002C93858380E1838385E98093BC0017C072
:100C4000ECEBF0E080818B7E808380818468808300
:100C5000E0911503F091160380919A02848381E05C
:100C600085838091B9008683838180688383FF9127
:100C7000EF91BF91AF919F918F913F912F910F90E5
:100C80000BBE0F900FBE0F901F9018951F920F92E2
:100C90000FB60F9211240BB60F922F938F939F9341
:100CA000AF93BF93EF93FF932091C600E0919D0215
:100CB000F0919E0280A18F5F8F7191A1981731F002
:100CC00090A1DF01A90FB11D2C9380A3FF91EF919B
:100CD000BF91AF919F918F912F910F900BBE0F906D
:100CE0000FBE0F901F9018951F920F920FB60F9284
:100CF00011240BB60F922F933F938F939F93EF93F3
:100D0000FF93E0919D02F0919E0285A194A198131A
:100D100007C014A2E1ECF0E080818F7D80830BC0DE
:100D200022A133A191E0980F95A3F901E80FF11DDD
:100D300080818093C600FF91EF919F918F913F91A9
:100D40002F910F900BBE0F900FBE0F901F90189514
:100D50001F920F920FB60F9211240BB60F922F9382
:100D60008F939F93AF93BF93EF93FF932091CE0008
:100D7000E0919B02F0919C0280A18F5F8F7191A105
:100D8000981731F090A1DF01A90FB11D2C9380A31A
:100D9000FF91EF91BF91AF919F918F912F910F9004
:100DA0000BBE0F900FBE0F901F9018951F920F92C1
:100DB0000FB60F9211240BB60F922F933F938F9380
:100DC0009F93EF93FF93E0919B02F0919C0285A18A
:100DD00094A1981307C014A2E9ECF0E080818F7D04
:100DE00080830BC022A133A191E0980F95A3F90154
:100DF000E80FF11D80818093CE00FF91EF919F91CC
:100E00008F913F912F910F900BBE0F900FBE0F90BF
:100E10001F901895882339F0813061F4FB0110820E
:100E2000FA018083089582E0FB01808383E0FA0168
:100E3000808308958FEFFB018083FA0180830895FA
:100E4000CF93DF93882349F0813001F51092C100E0
:100E50009EB19C7F9EB9699806C01092C9009BB153
:100E6000937F9BB95398C82FD0E0FE01EE0FFF1F70
:100E7000E556FD4F80819181009741F00E947B23D0
:100E8000CC0FDD1FC556DD4F19821882DF91CF913F
:100E90000895EF92FF920F931F93CF93DF938823D0
:100EA00069F08130B1F440FF02C0709A689841FF48
:100EB00011C0719A699AC0ECD0E011C040FF02C025
:100EC0005A9A529841FF09C05B9A539AC8ECD0E0F5
:100ED00006C0FFCFC0ECD0E002C0C8ECD0E0142FB9
:100EE000062FE82EF12CF701EE0FFF1FE556FD4F00
:100EF00080819181892B21F586E290E00E941F2359
:100F0000DC01F701EE0FFF1FE556FD4F9183808353
:100F100090961C92909791961C92919794961C9201
:100F2000949795961C92E02FF0E0EE0FFF1FEC5C7B
:100F3000FB4F859194919D838C83198286E08A83EF
:100F400010FF03C089818069898311FF03C08981F3
:100F500088608983DF91CF911F910F91FF90EF906F
:100F60000895E82FF0E0EE0FFF1FE556FD4F0190CA
:100F7000F081E02D81E094A1911180E00895E82FA7
:100F8000F0E0EE0FFF1FE556FD4F0190F081E02DE0
:100F900064A391E095A353A342A3882361F0813019
:100FA000A1F4FA0180818093C600E1ECF0E0808139
:100FB000806280830895FA0180818093CE00E9ECFD
:100FC000F0E08081806280830895FFCFE82FF0E019
:100FD000EE0FFF1FE556FD4F0190F081E02D20A19F
:100FE00081E091A1291301C080E00895E82FF0E08D
:100FF000EE0FFF1FE556FD4F0190F081E02D80A11F
:1010000091A1891741F0DF01A90FB11D8C919F5F5C
:101010009F7191A3089580E00895CF93C42F2898DD
:10102000962F9F71692F682B81E00E944B036C2FD4
:1010300081E00E944B03289ACF910895CF93C82F47
:10104000C0768091A102C81779F043E06FE180EA91
:101050000E940D084C2F4295469547706FE180E83D
:101060000E940D08C093A102CF9108951F93CF93C2
:10107000DF93C82F162FD72F0E941E08412F6C2FE9
:1010800080E40E940D0861E06C0F4D2F80E40E9407
:101090000D08DF91CF911F910895CF93DF93C82F53
:1010A000D62F282F2F7130E02B31310514F40E94F8
:1010B0001E084D2F6C2F80E40E940D08DF91CF9108
:1010C0000895CF93DF93C82FD82FDF718D2F90E035
:1010D0004B971CF48C2F0E941E0828986D2F81E0DE
:1010E0000E944B03CC2324F460E081E00E944B0378
:1010F00060E081E00E944B03289ADF91CF91089530
:10110000CF93DF93EB01682F84ED0E944D08BE0161
:1011100086ED0E94360804C089E28A95F1F700C086
:101120008AEE0E94610880FDF7CFDF91CF9108958C
:10113000EF92FF920F931F93CF93DF93EC01E62E74
:10114000F72E28986AE381E00E944B03209759F01C
:101150000E2D1F2D60E081E00E944B03F80181936A
:101160008F012197B9F7289ADF91CF911F910F91A5
:10117000FF90EF900895CF93DF93EC0168E088E053
:101180000E949503289A20E03DE241E351E060E0AF
:1011900081E00E940E034FEF60E08FEF0E940D0888
:1011A00083E294EF0197F1F700C0000062E085E769
:1011B0000E944D0883E294EF0197F1F700C0000010
:1011C00085E70E9461088230D9F71092A002109240
:1011D0009F0260E070E088E00E94360860E070E006
:1011E0008CE00E9436086FEF79E18AE00E943608B1
:1011F00060E07AE184E00E9436086FEF7FE186E0EC
:101200000E94360860EB88E30E944D086FE388E295
:101210000E944D0860E389E20E944D0869EF80E377
:101220000E944D0867EF81E30E944D086DE080EC5D
:101230000E944D0860E081EC0E944D0843E362EC9F
:1012400080E80E940D0862E186EC0E944D086CE087
:1012500087EC0E944D0862E184EC0E944D086CED21
:1012600075E08AEC0E943608688184EE0E944D0881
:10127000698185EE0E944D086A8182EE0E944D08C8
:101280006B8183EE0E944D086C8180EE0E944D08B8
:101290006D8181EE0E944D0860E071E080E00E9467
:1012A000800860E071E080E10E94800866E774E0F9
:1012B00084E10E9480088FE10E941E0844E06FE1F3
:1012C00080E80E940D08DF91CF91089588E30E9485
:1012D0006108682F616088E30E944D08089588E3E3
:1012E0000E946108682F6E7F88E30E944D08089570
:1012F000CF93DF93EC010FC08CE10E94610881FF66
:101300000AC040E86FE180E80E940D0840E86FE104
:1013100080EA0E940D088FE10E94610883FDECCFF6
:1013200060E07AE182E00E943608BE01765E86E0E7
:101330000E94360840E060E08AE70E940D08DF91D5
:10134000CF910895EF92FF920F931F93CF93DF9366
:10135000EC01E62EF72E28986AE781E00E944B0305
:10136000209751F00E2D1F2DF80161918F0181E022
:101370000E944B032197C1F7289ADF91CF911F91CB
:101380000F91FF90EF900895CF93C82F28986AE7A8
:1013900081E00E944B03CC2331F060E081E00E94A9
:1013A0004B03C150D1F7289ACF91089548E06FE1DF
:1013B00080E80E940D08089589E30E94610891E089
:1013C000811101C090E0892F0895CF93DF9300D061
:1013D0001F92CDB7DEB760919F027091A00280E0AE
:1013E0000E9436086FE972E082E090E00E9498085F
:1013F000BE016F5F7F4F82E090E00E949808BE01BF
:101400006D5F7F4F82E090E00E9498088B8187FF9C
:1014100005C089819A818231910518F41A82198256
:1014200003C004979A83898389819A810F900F90D2
:101430000F900F90DF91CF9108959C01CB01B901DE
:101440000E9498080895CF93DF93EC0128986AE3EF
:1014500081E00E944B03209731F060E081E00E9420
:101460004B032197D1F7289ADF91CF91089560918E
:101470009F027091A0026150710961158AE178079D
:1014800034F06FEF79E18CE00E94360803C08CE005
:101490000E94360840E46EE180E80E940D0808953D
:1014A0000F931F93CF9322303105E8F0DA011196A4
:1014B000890102501109FD013197E081F0E0FE2F12
:1014C000EE27CC91EC2B6E0F7F1F811D911D129684
:1014D0000230110570F7F9013297EE7F32964E0F08
:1014E0005F1F21703327232B49F0FA01208130E060
:1014F000322F2227620F731F811D911D8C0122271D
:101500003327011511052105310591F0DC01CB01CF
:10151000AA27BB27BC01CD01600F711F821F931F3B
:101520008C0122273327011511052105310571F79B
:10153000962F872F80959095CF911F910F910895A9
:10154000EF92FF920F931F93CF93DF938C01DC01F7
:10155000ED91FC9160837F01B2E0EB0EF11C4183C1
:10156000C42FD0E0AE01B901C7010E94852ACE0D7B
:10157000DF1DF801D183C083DF91CF911F910F91BF
:10158000FF90EF9008950F931F93CF93DF938B01FC
:1015900026E0E1ECF2E0DB01169601900D922A952F
:1015A000E1F7EC012E96CE010E947809B801CE0138
:1015B0000E94A2090E94D609DF91CF911F910F913D
:1015C0000895EF92FF921F93CF93DF937C01EB017D
:1015D00081E08AA78BA786E08CA78091A6029091D4
:1015E000A702A091A802B091A9028EA79FA7A8ABBD
:1015F000B9AB80E890E09DAB8CABDB01AA5BBF4F41
:1016000086E0E1ECF2E001900D928A95E1F7FB01B2
:10161000EA5AFF4F83E68083319692E890833196B1
:1016200093E590833196808380E094E49BA38AA322
:1016300080E093E49DA38CA3C7018C509F4F982713
:10164000892798279FA38EA319A618A68091900991
:1016500090919109A0919209B09193098A8F9B8FE3
:10166000AC8FBD8F1FEF1E8F1F8F18A319A397017B
:10167000245C3F4FAB01465E5F4FB7016B5F7E4F0F
:1016800080E090E00E94500A99A788A785E48E87A1
:101690001F86C701885F9E4F982789279827998BB7
:1016A000888B1B8A1A8A1D8A1C8A80E48E8B81E1B2
:1016B0008F8B198E188EAE01425F5F4F24E130E0B0
:1016C00060E070E0CB010E94500A998F888F1883E8
:1016D00019831A831B831C831D8386E0E1ECF2E0EF
:1016E000DE01169601900D928A95E1F788E090E070
:1016F0009D878C87C7018A5E9E4F0E947809BE0134
:1017000086E590E00E94A20980EC0E94C409BE0117
:101710006A5A7F4FC7010E94A2090E94D609DF9131
:10172000CF911F91FF90EF900895CF93DF931F9279
:10173000CDB7DEB786E0898321EC32E0AE014F5FA2
:101740005F4F61E080E29FEF0E943E1D84E089834D
:1017500020E939E0AE014F5F5F4F61E081E29FEF2A
:101760000E943E1D2DEB32E0AE014F5F5F4F61E006
:1017700082E29FEF0E943E1D29EB32E0AE014F5FF7
:101780005F4F61E083E29FEF0E943E1D81EC92E09B
:101790000E94BB081092B5021092B6021092B702D6
:1017A0001092B8028091900990919109A0919209AC
:1017B000B09193098F3F9F4FAF4FBF4F19F01092D9
:1017C000AE021AC0109290091092910910929209DB
:1017D0001092930981E08093AE020E948602DC01A0
:1017E000CB010196A11DB11D8093AA029093AB027B
:1017F000A093AC02B093AD020F90DF91CF9108950A
:101800002F923F924F925F926F927F928F929F9210
:10181000AF92BF92CF92DF92EF92FF920F931F93FE
:10182000CF93DF93CDB7DEB766970FB6F894DEBFE0
:101830000FBECDBF8B01DB011C962D913C911D97F6
:101840002830B6E03B0709F080C00E974C9708F4AB
:10185000BBC36CE170E0C8010E960E941D0AF8013E
:10186000868597858115914009F0AEC3D8015096C1
:101870008D919C915197089709F0A6C344E050E0E0
:1018800060E979E0C80186960E94782A892B09F0E0
:101890009BC3F801848995898115F1E09F07D9F5EB
:1018A00080E092E0D80155969C938E935497909641
:1018B00098012A5E3F4F86E0F90101900D928A95CA
:1018C000E1F786E0E1ECF2E0D90101900D928A9512
:1018D000E1F7F801848D958DA68DB78D86A397A32A
:1018E000A0A7B1A78091900990919109A091920928
:1018F000B0919309848F958FA68FB78F369686E027
:10190000D80101900D928A95E1F7B8018CE190E041
:101910000E94C30A59C38115924009F055C3F801CA
:10192000848D958DA68DB78D8093B5029093B60268
:10193000A093B702B093B80286E07696AFEAB2E021
:1019400001900D928A95E1F73FC32830310509F0E7
:101950003BC30E97449708F437C37B01FEE0EF0EBC
:10196000F11C64E170E0C7010E941D0AD80158967D
:10197000CD90DC90599759961C921E9258971E96BE
:101980008C91853409F020C324E130E0A70160E0A8
:1019900070E0CB010E94500AC816D90609F014C3A2
:1019A000F801C088D188BC2CAD2C468D578D60A124
:1019B00071A19789913021F0913109F467C004C376
:1019C0008091900990919109A0919209B091930909
:1019D000481759076A077B0709F0F6C24501FCE181
:1019E0008F1A910829E48216910408F0EDC268E08C
:1019F00070E0C80182960E941D0AD80192968C91CF
:101A0000883009F0E1C2B401C8018A960E941D0A1B
:101A1000F80112A284A195A1089695A384A3D18A66
:101A2000C08A138A128A158A148A80E4868B118EE2
:101A3000108E828D938DA48DB58D868F978FA0A3E8
:101A4000B1A38091900990919109A0919209B091D0
:101A50009309828F938FA48FB58F24E130E0A70183
:101A600060E070E0CB010E94500AD80159969C9327
:101A70008E935897F801369686E001900D928A95DC
:101A8000E1F7B801C5010E94C30A9EC28091900986
:101A900090919109A0919209B09193094817590723
:101AA0006A077B07D9F0C090BD02D090BE02E090DB
:101AB000BF02F090C002C094D094E094F0948C29BE
:101AC0009D29AE29BF29481759076A077B0731F0BE
:101AD0004F3F5F4F6F4F7F4F09F076C2E4E1AE1A80
:101AE000B108F8E0AF16B10408F46EC268E070E027
:101AF000C80182960E941D0AD8019696ED90FC902E
:101B00009797FE24EF24FE24C701089794962D9101
:101B10003C9195972730BBE53B0749F58433910508
:101B200008F052C24091B5025091B6026091B702DE
:101B30007091B802452B462B472BA9F4F801428D32
:101B4000538D648D758D4093B5025093B6026093AA
:101B5000B7027093B80226E03696AFEAB2E0019081
:101B60000D922A95E1F7B8010E94C2112DC22115EC
:101B7000344409F029C2803F910508F425C2198236
:101B80001A821B821C826CE270E0C8018A960E9455
:101B90001D0A80EC90E00E94230A64E070E0CE0110
:101BA0000D960E941D0AD8019A968C91823009F0F8
:101BB0000BC244E050E066EA72E0C8018E960E94D3
:101BC000782A892B09F000C28D859E85AF85B8895A
:101BD00083369248A345B34609F0F6C1F8EFEF1AF1
:101BE000F108812C912C5401412C512C3201180107
:101BF00026E5220E311C6101C10101969E8B8D8B61
:101C0000E2C062E070E0C1010E941D0AD6018C9121
:101C1000833309F43FC030F4813071F180F08330B8
:101C200091F1C7C0863309F4BDC018F48533E9F0DB
:101C3000C0C08A3309F472C08F3F89F0BAC0F60180
:101C40008181808361E070E08D899E890E941D0AF8
:101C5000F1E0EF1AF10821E0E216F104B9F6D6013D
:101C600011961C92E12CF12CAAC061E070E0CE012B
:101C700043960E941D0AA3C064E070E0CE0109965D
:101C80000E941D0A9CC064E070E0CE0105960E948F
:101C90001D0A95C064E070E0CE010D960E941D0AF9
:101CA0008D859E85AF85B889782E66245524442479
:101CB0004B2F5527662777274429552966297729E9
:101CC0002C013D01442455247724452C562C672CA7
:101CD000772444295529662977298827AA27BB27ED
:101CE000BA2FA92F982F8827842B952BA62BB72B9B
:101CF0008D879E87AF87B88B81369445A105B10546
:101D000040F080E694E5A0E0B0E08D879E87AF8745
:101D1000B88B4D845E846F84788851C064E070E035
:101D2000CE010D960E941D0A8D859E85AF85B889CE
:101D3000B82EAA24992488244B2F55276627772765
:101D4000482959296A297B294C015D018824992455
:101D5000BB24892C9A2CAB2CBB24482959296A29ED
:101D60007B298827AA27BB27BA2FA92F982F882736
:101D7000842B952BA62BB72B8D879E87AF87B88B8F
:101D800081369445A105B10540F080E694E5A0E0D8
:101D9000B0E08D879E87AF87B88B8D849E84AF849B
:101DA000B8880DC064E070E0CE0101960E941D0A63
:101DB00006C0D60111968C9190E00E94230AF6018C
:101DC0008181E81AF108F2E0EF16F10408F019CF6A
:101DD000B501A40189819A81AB81BC81892B8A2BB1
:101DE0008B2B49F4F801828D938DA48DB58D898359
:101DF0009A83AB83BC838B89823009F089C0F80158
:101E000082AD93ADA4ADB5AD8D879E87AF87B88BFE
:101E10002091AE02233009F0D7C0892B8A2B8B2B5F
:101E200009F4D2C06894CC24C2F8C092AE02780102
:101E3000F6E5EF0EF11CC801865A9F4F9A8B898BED
:101E40000F2EF3E0DF2EF02DDC8A9E012C5E3F4F3B
:101E500041E065E3CE0141960E94A00A9801265C0C
:101E60003F4F44E062E3CE0141960E94A00A9E01EA
:101E70002F5F3F4F44E066E3CE0141960E94A00AE7
:101E8000E989FA89CF0101969A8B898B87E3808350
:101E9000E989FA89CF0101969A8B898BC082E989F9
:101EA000FA89CF0101969A8B898B81E08083E98939
:101EB000FA89CF0101969A8B898BD082E989FA89B8
:101EC000CF0101969A8B898B83E38083E989FA8914
:101ED000CF0101969A8B898B8AE38083E989FA89FD
:101EE000CF0101969A8B898B8FEF808380E0F80178
:101EF000E80FF11D12AE16AE8F5F8430C0F38C8BED
:101F000089899A89B8018E199F090E94E10A5CC0EB
:101F1000853009F059C08091AE02843009F054C078
:101F2000411451046104710409F44EC0452B462B41
:101F3000472B31F453014201B694A79497948794A8
:101F400082E08093AE0289819A81AB81BC818093CB
:101F5000A2029093A302A093A402B093A5020E94B0
:101F60008602860E971EA81EB91E8092AA02909223
:101F7000AB02A092AC02B092AD02F80182AD93AD7B
:101F8000A4ADB5AD8093900990939109A093920967
:101F9000B093930989859A85AB85BC858093BD02F2
:101FA0009093BE02A093BF02B093C0028D819E8128
:101FB000AF81B8858093B9029093BA02A093BB0217
:101FC000B093BC020E946F0966960FB6F894DEBF0C
:101FD0000FBECDBFDF91CF911F910F91FF90EF907A
:101FE000DF90CF90BF90AF909F908F907F906F9039
:101FF0005F904F903F902F9008958F929F92AF9255
:10200000BF92CF92DF92EF92FF920F931F93CF93E5
:10201000DF938C01EB0181E18F8BC0909009D09010
:102020009109E0909209F0909309CA8EDB8EEC8EB4
:10203000FD8EC80108969827892798279FA38EA30D
:1020400019A618A69801205F3F4FAB01465E5F4F6F
:10205000B801675E7F4F80E090E00E94500A99A728
:1020600088A74E8D5F8D68A179A18090BD02909068
:10207000BE02A090BF02B090C002D501C4018095FD
:102080009095A095B0958C299D29AE29BF29481718
:1020900059076A077B0741F48FEF888389838A8316
:1020A0008B838C838D8332C04F3F8FEF5807680737
:1020B000780791F3DB01CA018C259D25AE25BF254C
:1020C00088219921AA21BB21892B8A2B8B2B09F4EA
:1020D0004FC04091B9025091BA026091BB02709119
:1020E000BC02C426D526E626F726C820D920EA2039
:1020F000FB20CD28CE28CF28D9F185C086E0EFEA95
:10210000F2E0DE0101900D928A95E1F7045E1F4F27
:1021100088E090E09D878C8785E48E871F86902FCE
:10212000812F998B888B1B8A1A8A1D8A1C8A80E4CE
:102130008E8B198E188E8091900990919109A091A3
:102140009209B09193098A8F9B8FAC8FBD8FAE019E
:10215000425F5F4F24E130E060E070E0CB010E941D
:10216000500A998F888FBE01C8010E94C30A4BC0D4
:102170008091B5029091B602A091B702B091B802D9
:1021800084179507A607B70709F4B8CF8FEF8883A0
:1021900089838A838B838C838D8388E096E09D87F7
:1021A0008C8780E091E09F878E8728E030E0398B34
:1021B000288B26E02A8B24E02B8B9D8B8C8B86E052
:1021C000E1ECF2E0DE01569601900D928A95E1F77E
:1021D0008091900990919109A0919209B0919309F1
:1021E0008C8F9D8FAE8FBF8F18A219A21AA21BA22F
:1021F0001CA21DA24EA35FA368A779A7BE018CE114
:1022000090E00E94C30ADF91CF911F910F91FF9040
:10221000EF90DF90CF90BF90AF909F908F900895F8
:10222000CF92DF92EF92FF920F931F93CF93DF93A2
:1022300000D0CDB7DEB78091AE02882309F496C0F6
:102240000E9486020091AA021091AB022091AC027A
:102250003091AD02601771078207930708F486C0BA
:10226000DC01CB010F96A11DB11D8093AA029093B2
:10227000AB02A093AC02B093AD0282E790E00E9463
:102280001F238C01FC01BA969C012A5A3F4F1192E0
:10229000E217F307E1F78CE289830E9463027C0175
:1022A0000E946302AC01C701A0E0B0E0DC01992705
:1022B000882760E070E0842B952BA62BB72B8093AA
:1022C000A6029093A702A093A802B093A902680166
:1022D00086E5C80ED11CC801865A9F4F9B838A830E
:1022E0008091AE02823079F081E089839E012F5F78
:1022F0003F4F41E065E3CE0102960E94A00A83E0D1
:102300008093AE021EC083E089839E012F5F3F4F02
:1023100041E065E3CE0102960E94A00A20E939E07F
:1023200044E062E3CE0102960E94A00A22EA32E073
:1023300044E066E3CE0102960E94A00A84E0809306
:10234000AE02EA81FB81CF0101969B838A838FEFE6
:102350008083EA80FB80EC18FD080E946609B801C2
:10236000C7010E94E10AC8010E947B230F900F90D1
:102370000F90DF91CF911F910F91FF90EF90DF9021
:10238000CF900895EF92FF920F931F93CF93DF9317
:10239000182F092F7B0189E390E00E941F23EC0195
:1023A000612F702F07960E941D0AF701828D938D71
:1023B000A48DB58D8A839B83AC83BD831E83BE01B0
:1023C00082E092E00E949F23811103C0CE010E940F
:1023D0007B23DF91CF911F910F91FF90EF90089594
:1023E00002C00E947B2382E092E00E94D4230097E7
:1023F000C1F70E94950B0895EF92FF920F931F93E0
:10240000CF93DF938C018091900990919109A091D5
:102410009209B0919309892B8A2B8B2B21F4C80147
:102420000E947B2328C082E790E00E941F23EC01DA
:10243000F80182819381A481B5818E8F9F8FA8A39B
:10244000B9A387E09BE59DA38CA39BA38AA3E68009
:10245000F12CB801695F7F4FA701CE018A960E94D7
:10246000852AC8010E947B23BE01C7010E94FD0F7F
:10247000CE010E947B23DF91CF911F910F91FF909E
:10248000EF9008950F931F93CF93DF930E94101145
:102490000E94DC098823B9F00E94E509EC010F973E
:1024A00080F082E790E00E941F238C016EE070E0D4
:1024B0000E941D0AB801CE010E94000CC8010E94B2
:1024C0007B230E94370A82E092E00E94D423DF91AE
:1024D000CF911F910F91089580E999E00895FC0133
:1024E0008181853681F018F4893449F00AC0893633
:1024F00021F0863731F481E0089582E0089583E089
:1025000008958FEF089580E00895FC018281938102
:102510000E945103982F977021E030E002C0220FF3
:10252000331F9A95E2F7869586958695E82FF0E019
:10253000E851FD4F8081282381E009F480E008956F
:10254000CF93DF93EA01FC01828193810E945103C2
:10255000E82FE695E695E695F0E0E851FD4F982FD7
:10256000977021E030E002C0220F331F9A95E2F706
:102570002095908129232083E82FF0E0EE0FFF1FA4
:10258000E253FD4F898190E0982F88272881822B84
:102590009183808380E0DF91CF9108950E94510361
:1025A0008F3F71F0E82FF0E0E052FD4F90819F3FA8
:1025B00049F40E945B038E3F39F00E94BD160895D6
:1025C00082E0089581E0089580E00895CF92DF923F
:1025D000EF92FF920F931F938091CC029091CD02C6
:1025E000009719F58091CB02E82FF0E0E052FD4F03
:1025F00060816F3F49F48F5F883019F08093CB0280
:1026000097C01092CB0294C00E94740381E090E0C6
:102610009093CD028093CC021092C7021092C80210
:102620001092C9021092CA0283C02091DE0230913A
:10263000DF02A9014B5F5F4F8417950748F50E94A1
:102640007E032091CC023091CD022F5F3F4F30931B
:10265000CD022093CC022530310508F469C0092E43
:10266000000CAA0BBB0B4091C7025091C8026091AD
:10267000C9027091CA02840F951FA61FB71F8093CD
:10268000C7029093C802A093C902B093CA0250C077
:102690002F5F3F4F40E050E06091C7027091C80249
:1026A0008091C9029091CA020E94152A2093C70204
:1026B0003093C8024093C9025093CA028091CB0262
:1026C000682F70E0FB01EE0FFF1FE253FD4F00810A
:1026D00011816801110FEE08FF082C153D054E050C
:1026E0005F05D1F0660F771FFB01E253FD4F318389
:1026F0002083E82FE695E695E695F0E0E851FD4F5A
:10270000982F977021E030E002C0220F331F9A9576
:10271000E2F79081292B20831092CD021092CC02F7
:102720008F5F883019F08093CB0202C01092CB02E9
:102730001F910F91FF90EF90DF90CF9008950F932E
:102740001F93CF93DF938B01EA01FC018281938178
:102750000E945103E82FE695E695E695F0E0E851F2
:10276000FD4F982F977021E030E002C0220F331FF9
:102770009A95E2F7209590812923208392E0F80131
:102780009083E82FF0E0EE0FFF1FE253FD4F9081A2
:1027900081819883898380E0DF91CF911F910F9190
:1027A0000895CF93DF931F92CDB7DEB782E0898380
:1027B0002EED32E0AE014F5F5F4F61E088E09FEFAA
:1027C0000E943E1D8091DE029091DF02893E9D4F66
:1027D00030F080E590E09093DF028093DE020F906E
:1027E000DF91CF910895A0EEB2E0EEECF2E02EED95
:1027F00032E08FEF8D9311921192E217F307D1F728
:10280000E8EEF2E0108211820E94D1130895CF9376
:10281000DF93EC010E946F128F3F51F08A819B8100
:102820000E94CE1291E0823009F490E0892F01C01D
:1028300080E08170DF91CF910895FF920F931F93F5
:10284000CF93DF93EC010A811B81C8010E94CE1255
:1028500081112DC0C8010E945103F82E082F10E0ED
:10286000CE010E946F12F801E052FD4F80838F2D40
:102870000E945B038E3F10F40E94DB16F801E052C9
:10288000FD4F60818F2D0E9465038FE993E19F8347
:102890008E8380EA92E19987888785E892E19B8719
:1028A0008A8786EE92E10E94992280E001C082E050
:1028B000DF91CF911F910F91FF900895CF93DF93F8
:1028C000FC01C281D381CE010E94CE128130A9F4D5
:1028D000CE010E945103C82FE82FF0E0E052FD4FD7
:1028E0008FEF80836FEF8C2F0E9465038C2F0E94E7
:1028F0005B038E3F10F40E94F516DF91CF9108958F
:10290000FC01828193810E948B03982F977021E0B4
:1029100030E002C0220F331F9A95E2F78695869524
:102920008695E82FF0E0EF50FD4F8081282381E06D
:1029300009F480E008952F923F924F925F926F9238
:102940007F928F929F92AF92BF92CF92DF92EF923F
:10295000FF920F931F93CF93DF9300D01F92CDB7B9
:10296000DEB70F2EF6E0EF2EF3E0FF2EF02D0FEF87
:1029700012E00F2EFAEECF2EF2E0DF2EF02D0F2E0A
:10298000F8EF6F2EF2E07F2EF02D0F2EF1EF2F2EAD
:10299000F2E03F2EF02D3C822B825B8052185801D2
:1029A0004701F70140804094F8018081482281F17D
:1029B000852D0E94C403842128E030E051E07A8212
:1029C0006982652FA601D301962F9421E1F07C90B6
:1029D000782F7725792349F090957922982F96239F
:1029E000792AE981FA8170820EC0F6017080782F11
:1029F0007725972341F07926FA017082EB81FC81DB
:102A00007081972B9083660F21503109E9F63D01C3
:102A10005FEFE51AF50A0F5F1F4FF50160816095C2
:102A2000F4019080962281F05601F60160816921BF
:102A300019F0852D0E94D003F50160816095692110
:102A400019F0852D0E94DC03FFEFCF1ADF0A2FEF6C
:102A5000621A720A4B815C814F5F5F4F5C834B83CC
:102A6000485F524009F099CF0F900F900F900F9050
:102A7000DF91CF911F910F91FF90EF90DF90CF905A
:102A8000BF90AF909F908F907F906F905F904F908E
:102A90003F902F9008950F931F93CF93DF93EC01F6
:102AA0008A018A819B810E948B03982F977061E035
:102AB00070E002C0660F771F9A95E2F7F801408137
:102AC000282F26952695269530E0862F8095F901AA
:102AD000EF50FD4F90819823908399819E3609F4A1
:102AE000409540FF07C0F901E651FD4F8081682BFA
:102AF000608306C0F901E651FD4F908189238083F0
:102B000080E0DF91CF911F910F910895EF92FF9296
:102B10000F931F93CF93DF93EC017B018A018A818E
:102B20009B810E948B03E82F982F977021E030E063
:102B3000A90102C0440F551F9A95E2F7CA01E69514
:102B4000E695E695F0E0DF01A651BD4F3C91EF50D0
:102B5000FD4F409520812423208329812E3609F4BE
:102B6000309591E0F7019083832309F490E0F80118
:102B7000908380E0DF91CF911F910F91FF90EF90B4
:102B80000895CF93DF93E6E0F3E02FEF32E088EF94
:102B900092E0C1EFD2E06AEE72E04DE053E01192B4
:102BA000D9011D929D01DC011D92CD011992DB011D
:102BB0001D92BD01E417F50791F7DF91CF910895BC
:102BC000FC0121812E3611F0203759F4FC0182815D
:102BD00093810E948B0391E08F3F09F490E0892F4D
:102BE00001C080E081700895CF92DF92EF92FF9252
:102BF0000F931F93CF93DF937C01FC01828193811C
:102C00000E948B03D82ED694D694D694982F977082
:102C1000C1E0D0E002C0CC0FDD1F9A95E2F70D2D88
:102C200010E0F801E150FD4F90819C2309F076C03F
:102C3000F801EA5FFC4F90819C2309F071C0CC2E13
:102C4000C094F801EF50FD4F90819C219083F701D3
:102C500090819F3439F52BE435E13187208768E096
:102C60000E949503F801EA5FFC4F80818C2B8083E2
:102C7000F7018181803759F46C2F8D2D0E94DC0380
:102C8000F801E651FD4F8081C822C08241C06C2FFF
:102C90008D2D0E94D003F801E651FD4F8081C82B95
:102CA000C08336C026E835E1F701378326832BE45D
:102CB00035E13187208720E834E133872287F80126
:102CC000E150FD4F90819C2B9083F70191819037CB
:102CD00081F460E00E949503F801E850FD4F808187
:102CE0008C218083F801E651FD4F8081C822C0828B
:102CF0000FC061E00E949503F801E850FD4F80810C
:102D00008C2B8083F801E651FD4F8081C82BC08356
:102D10008BE994E10E94992280E003C082E001C027
:102D200082E0DF91CF911F910F91FF90EF90DF90A4
:102D3000CF900895FC01828193810E948B03E82F3C
:102D4000E695E695E695F0E0982F977021E030E063
:102D500002C0220F331F9A95E2F72095DF01AA5F88
:102D6000BC4F9C9192239C93E150FD4F908129236D
:102D7000208360E00E9495030895982F977021E0CA
:102D800030E002C0220F331F9A95E2F786958695B0
:102D9000869590E0FC01E150FD4F4081422349F4CB
:102DA000FC01EA5FFC4F8081282381E019F480E078
:102DB000089581E00895982F977021E030E002C0D7
:102DC000220F331F9A95E2F7869586958695E82F10
:102DD000F0E0DF01AA5FBC4F8C91822B8C93E15015
:102DE000FD4F8081282B20830895E82FE695E695F6
:102DF000E695F0E0282F277081E090E002C0880F70
:102E0000991F2A95E2F78095DF01AA5FBC4F9C913C
:102E100098239C93E150FD4F9081892380830895EE
:102E2000FA01618170E0762F66272081622BFC0118
:102E3000828193810E94020580E00895CF93DF9301
:102E4000FC012181C281D3812E3611F0203749F453
:102E5000CE010E948B038F3F31F0CE010E94E90327
:102E600003C080E001C080E0DF91CF910895FF9220
:102E70000F931F93CF93DF938C01FC01C281D38109
:102E8000CE010E948B03F82E0E94BD16811118C03E
:102E9000CE010E94FD03811115C08F2D0E94DB160B
:102EA00061E0F80181818E3609F060E0CE010E9478
:102EB000480480E197E1F8019187808780E003C0B2
:102EC00082E001C082E0DF91CF911F910F91FF90CE
:102ED0000895CF93DF93FC01C281D381CE010E947C
:102EE000B704CE010E948B030E94F516DF91CF91AB
:102EF00008950F931F93CF93DF938B01DB013C91D8
:102F0000DC011296EC91EF70F0E0EE0FFF1FE35F33
:102F1000FC4FC081D1817C818D813323E1F0781712
:102F2000C9F0A42FB52F90E040E021E0280FE88100
:102F3000F981E80FF11D80818D93293310F0842FE2
:102F400001C0822F9F5F931731F08713EECF872F39
:102F5000392F01C030E08D83F801308380E0DF91AC
:102F6000CF911F910F910895DC011296EC91EF70B3
:102F7000F0E0EE0FFF1FE35FFC4F0190F081E02DCA
:102F8000309761F094818581981751F09781892F4E
:102F9000807194FD07C090619783089580E0089543
:102FA00080E0089581E00895AF92BF92DF92EF92A2
:102FB000FF920F931F93CF93DF93CDE0D3E010E008
:102FC000D12C7E01E881F981309709F449C08781CD
:102FD00080FF13C082819381892B79F0812F0E9419
:102FE000B107882351F0E881F981828193810E94A1
:102FF0007B23E881F98113821282D701ED91FC9144
:10300000878181FF2DC0812F0E94E607882341F12F
:10301000D701ED91FC91848101E0080F0933B0F5EF
:1030200095810917E9F0A080B180A80EB11C812F0D
:103030000E94F607F5018083D701ED91FC9104838E
:103040008581801710F4081B02C0075C081B0C3137
:1030500020F487818F7E878303C087818061878387
:103060001F5F2296123009F0ACCF14C0A080B1804F
:10307000A80EB11C812F0E94F607F5018083D701AD
:10308000ED91FC91148285810D2DDFCF95819111F9
:10309000EDCFE6CFDF91CF911F910F91FF90EF9091
:1030A000DF90BF90AF900895AF92BF92CF92DF9222
:1030B000EF92FF920F931F93CF93DF93FC01C28196
:1030C000CF700C2F10E0F801EE0FFF1FE35FFC4FF5
:1030D0000190F081E02D309769F1662369F18281DA
:1030E0009381892B59F56A01D62F8C2F0E94B10745
:1030F000882331F189E390E00E941F237C015C0169
:10310000F7E0AF0EB11C4D2F50E0B601C5010E9493
:10311000852AA5016D2F8C2F0E94BF07F801EE0FA5
:10312000FF1FE35FFC4F0190F081E02DF382E2820C
:1031300080E007C081E005C080E003C081E001C0FD
:1031400081E0DF91CF911F910F91FF90EF90DF9081
:10315000CF90BF90AF900895EF92FF920F931F937F
:10316000CF930DE013E0C0E08C2F0E942007780180
:10317000D801ED91FC91309771F082819381009795
:1031800011F00E947B23F701808191810E947B23B3
:10319000D7011D921C92CF5F0E5F1F4FC23021F7E7
:1031A000CF911F910F91FF90EF900895FC01318115
:1031B00082819381282F2F70223078F49295829506
:1031C0008F7089279F708927853048F4323749F0FE
:1031D00081E0343739F080E0089580E0089580E0A0
:1031E000089581E008958F929F92AF92BF92CF92FF
:1031F000DF92EF92FF920F931F93CF93DF931F9273
:103200001F92CDB7DEB76C01FC01E280F3801E2D6A
:103210001F700181AE014F5F5F4FBE016E5F7F4F38
:10322000812F0E940A07043731F489810E94BD165C
:10323000811193C006C08A810E94BD16823009F4B4
:103240008EC0F694E794F694E794F694E794F69497
:10325000E794A12EB12CF501EE0FFF1FE35FFC4FA9
:103260000190F081E02D309769F096819E1179C030
:10327000043721F4878180FD76C021C0878181FDDC
:1032800074C036C088E090E00E941F23DC01F50185
:10329000EE0FFF1FE35FFC4F918380831696EC9245
:1032A000169717961C9217971D921C920190F08109
:1032B000E02D14821582138212820437C9F4F501BD
:1032C000EE0FFF1FE35FFC4F0190F081E02D87813F
:1032D0008160878384E598E1F60191878087898101
:1032E0000E94DB1642E06E2D812F0E9449072FC0FD
:1032F000F501EE0FFF1FE35FFC4F80809180F4012A
:1033000080819181892B39F489E390E00E941F2309
:10331000F40191838083F501EE0FFF1FE35FFC4F03
:103320000190F081E02D87818260878389E797E1B2
:10333000F6019783868384EB97E1938782878A815E
:103340000E94DB1641E06E2D812F0E94490784ED1B
:1033500097E10E94992280E009C082E007C082E0E4
:1033600005C082E003C082E001C082E00F900F90B0
:10337000DF91CF911F910F91FF90EF90DF90CF9051
:10338000BF90AF909F908F900895CF92DF92FF9261
:103390000F931F93CF93DF931F921F92CDB7DEB78A
:1033A0006C01DC0112968C918F70F82EAE014F5F8C
:1033B0005F4FBE016E5F7F4F0E940A070F2D10E026
:1033C000F801EE0FFF1FE35FFC4F0190F081E02D4D
:1033D0003097E1F1D60111968C91843721F48781E1
:1033E0008E7F878313C087818D7F878380819181C2
:1033F000009761F00E947B23F801EE0FFF1FE35F4F
:10340000FC4F0190F081E02D11821082F801EE0F47
:10341000FF1FE35FFC4F0190F081E02D87818370F7
:10342000A9F48F2D0E942007000F111F035F1C4F6E
:10343000F801808191810E947B23D8011D921C920A
:1034400089810E94F5168A810E94F5160F900F90CF
:10345000DF91CF911F910F91FF90DF90CF90089552
:103460000F931F93CF93DF93E0911503F091160311
:10347000309709F43DC0D3818D2F807E09F050C074
:10348000CD2FC071D4FF0BC0C581C1114BC0CF017E
:103490000E947B23109216031092150344C00E94D1
:1034A0007D020091110310911203209113033091BA
:1034B0001403DC01CB01801B910BA20BB30B8B3FE0
:1034C0009105A105B10560F0D3FD0E945B05E09177
:1034D0001503F0911603838180628383C1E023C0CA
:1034E0001D2F1870D3FD1FC00E946405C12F1BC083
:1034F000C0910D02CC23B9F088E092E00E94D42361
:1035000090931603809315030E947D02609311032C
:10351000709312038093130390931403C0E003C0CD
:10352000C1E001C0C1E08C2FDF91CF911F910F91BD
:103530000895E0911503F09116033097E9F09A0190
:10354000DB01458194E0940F9C93492F50E06091FA
:103550001503709116036E5F7F4FC9010E94852A83
:1035600080911503909116030E947B2310921603FD
:103570001092150380E0089581E00895EF92FF9284
:103580001F93CF93DF93643098F17A01162F89E36C
:1035900090E00E941F23EC01412F50E0B7010296FA
:1035A0000E94852A8B8183708B836CEF610F6C8303
:1035B000662311F081608B838D81882329F09B81A4
:1035C00092609B83863218F48B81837029F4CE013C
:1035D0000E947B2383E00FC0BE0188E092E00E943E
:1035E0009F23811107C0CE010E947B2381E003C08D
:1035F00083E001C080E0DF91CF911F91FF90EF90B9
:103600000895CF93DF931F921F92CDB7DEB7BE010F
:103610006E5F7F4FCE0101960E943A0589810E941C
:10362000DB168A810E94DB1681E00E944105811130
:1036300007C089810E94F5168A810E94F5162DC067
:103640008091150390911603009731F00E947B231F
:1036500010921603109215030E940A1DFC01892B7B
:1036600051F489810E94F5168A810E94F51680E046
:103670000E94410512C089E99AE1978386838EEB07
:103680009AE19187808780E39AE19387828784E536
:10369000808381E68183138212820F900F90DF91E5
:1036A000CF910895637041F520911D0330911E0361
:1036B0002817390751F0E9E2F3E021E030E04081DA
:1036C00051814817590779F402C020E030E0C90160
:1036D000880F991F820F931F880F991F880F991FBA
:1036E000875E9C4F08952F5F3F4F3C9621333105F5
:1036F00031F780E090E00895613029F581152FEFD2
:10370000920751F0EEE1F2E021E030E0408951898A
:103710004817590779F402C020E030E0C901880F4A
:10372000991F820F931F880F991F880F991F825E20
:103730009D4F08952F5F3F4F3C962930310531F75B
:1037400080E090E0089580E090E00895FC01908191
:103750009F3451F028F4913429F1993439F404C09C
:10376000903501F1933511F480E00895818187351A
:1037700079F028F48234C1F0843471F011C08137BB
:1037800069F0873719F0843659F404C082E8089547
:1037900082E0089584E8089584E0089588E8089513
:1037A00080E0089582E0089581E00895CF93DF934B
:1037B000FB01DA01EC016A817B81623E710519F43B
:1037C00086E0808302C084E080832081422F50E025
:1037D000CD010E948E2A80E0DF91CF910895CF9293
:1037E000DF92EF92FF920F931F93CF93DF931F927D
:1037F000CDB7DEB7FC011982E280F380E1810E2FA4
:1038000010E0F801E254F109E933F10590F58A017D
:103810006B018827E954FF4F8F4F0C94342A81E0C5
:10382000FB0180831CC082E0FB01808318C084E020
:10383000FB01808314C041E050E0B701CE01019646
:103840000E948E2A9981F6018081981708F4892FA9
:10385000F6018083882371F0FFEFEF1AFF0AF6016B
:103860009081492F50E0B701C8010E948E2A80E064
:1038700001C083E00F90DF91CF911F910F91FF90D6
:10388000EF90DF90CF900895FC0122813381223E9A
:10389000310519F4663059F402C0643051F4CA019C
:1038A000462F50E0B9010E949E2A80E0089583E0EF
:1038B000089583E00895EF92FF920F931F93CF93A3
:1038C000DF931F92CDB7DEB7FC016983E280F380FE
:1038D000E1810E2F10E0F801E254F109E933F1051E
:1038E00030F58A018827E051FF4F8F4F0C94342A1E
:1038F00081E0898313C082E0898310C084E08983DA
:103900000DC041E050E0B701CE0101960E949E2A11
:103910008981882369F08FEFE81AF80A9981492F85
:1039200050E0B701C8010E949E2A80E001C083E0F8
:103930000F90DF91CF911F910F91FF90EF9008951D
:10394000683118F40E945B1C089583E008950E947A
:103950005B1C0E94D11380E00895AF92BF92CF927A
:10396000DF92EF92FF920F931F93CF93DF9300D0DC
:103970001F92CDB7DEB78133F0F590E0FC01EE0F7A
:10398000FF1FE80FF91FEE0FFF1FEE0FFF1FE75E8F
:10399000FC4F2FEF3FEF358324830EE110E07F01D2
:1039A00044E050E0B801CE0101960E948E2ACE2C50
:1039B000DF2C44E050E0B701CE0101960E94782A46
:1039C000892B81F48FEF89838A838FEF9FEF9C830C
:1039D0008B8344E050E0602F712FCE0101960E944E
:1039E0009E2A05C00C5F1F4F023E1105C9F68C2DA3
:1039F0009D2D0E947A220F900F900F900F90DF91D3
:103A0000CF911F910F91FF90EF90DF90CF90BF90DB
:103A1000AF90089580911D0390911E03019669F067
:103A2000E9E2F3E069E675E021E030E0C9014081B8
:103A300051814F3F5F4FC9F402C080E090E09C018C
:103A4000220F331FF901E80FF91FEE0FFF1FEE0FD2
:103A5000FF1FE75EFC4F17821682118610861386C1
:103A6000128615821482CF0108952F5F3F4F3C9636
:103A7000E617F707D9F680E090E008950F931F93BB
:103A8000CF93DF93EA0189010E94521B009719F43A
:103A9000188282E00FC0DC011696ED91FC91179719
:103AA000309719F4188283E005C0A801BE0119956A
:103AB00081111882DF91CF911F910F9108951F936B
:103AC000CF93DF93EB019A01FC0162817381611551
:103AD000710571F418811A3008F01AE0412F50E096
:103AE00064E172E0C9010E94852A188380E00CC05D
:103AF0006130710519F481E29FEF02C08FEF9FEFF3
:103B0000AE0161E00E943E1DDF91CF911F910895AB
:103B10000F931F93CF93C42F89010E94521B0097CC
:103B200059F0DC011896ED91FC911997309731F01E
:103B3000A8016C2F199503C082E001C083E0CF91EA
:103B40001F910F910895CF92DF92EF92FF920F9302
:103B50001F93CF93DF93CDB7DEB72F970FB6F894AF
:103B6000DEBF0FBECDBF198242E050E060E070E0E2
:103B7000CE0102960E948E2AE4E1F2E04EE152E08C
:103B800080E090E02191820F911DE417F507D1F7B5
:103B90009D838C832AE029832A813B81281739075A
:103BA00009F469C0CC24CA94DC2C7601CC86DD866D
:103BB000EE86FF869E01245F3F4F44E061E084E291
:103BC0009FEF0E94881DCC86DD86EE86FF869E01D3
:103BD000245F3F4F44E061E083E29FEF0E94881D35
:103BE000CC86DD86EE86FF869E01245F3F4F44E053
:103BF00061E082E29FEF0E94881DCC86DD86EE8622
:103C0000FF869E01245F3F4F44E061E081E29FEF29
:103C10000E94881D86E0EEE0F2E0DE01169601903B
:103C20000D928A95E1F79E012A5F3F4F46E061E0E1
:103C300080E29FEF0E94881D80E590E09B838A834D
:103C40009E012E5F3F4F42E061E088E09FEF0E94BF
:103C5000881D19829E012F5F3F4F40E061E080E0A8
:103C60009FEF0E94881D42E050E060E070E0CE01CE
:103C700004960E949E2AEDE1F3E029E635E08FEFFD
:103C80009FEF918380833C96E217F307D1F781E39E
:103C900090E09B838A8310921803109217030E946E
:103CA00020221B821A8260E070E000E010E007C072
:103CB0000F5F1F4F3C960133110561F441C0F801BD
:103CC000EE0FFF1FE00FF11FEE0FFF1FEE0FFF1FA4
:103CD000E75EFC4F84819581019651F77801EE0CE7
:103CE000FF1CE00EF11EC701880F991F880F991F56
:103CF000FC01E75EFC4F7F01660F771F660F771FA1
:103D0000625E7F4F44E050E0CF010E948E2AF701AF
:103D1000808181508E3F50F4C7010E94532281114F
:103D200005C00F5F1F4FF701158214826A817B81E6
:103D30006F5F7F4F7B836A836133710508F4BFCF68
:103D40002F960FB6F894DEBF0FBECDBFDF91CF9197
:103D50001F910F91FF90EF90DF90CF900895EF9219
:103D6000FF920F931F93CF93DF9390E0FC01EE0F30
:103D7000FF1FDF01A80FB91FAA0FBB1FAA0FBB1F90
:103D8000A75EBC4F2C91EB012883229611962C91B3
:103D9000DB0111962C93E80FF91FEE0FFF1FEE0FBA
:103DA000FF1FE75EFC4F0280F381E02D13E000E08F
:103DB00020E137E2FF24F394E12CE217F30700F14E
:103DC000CF01B9010E94012A462FE82FF92FADEC4F
:103DD000BCEC0E943C2A9C01369527953695279588
:103DE00036952795411103C0002331F04E2D405DDB
:103DF00048831F5F21960F2D2A303105F0F60CC045
:103E0000ADECBCEC0E943C2A9C013695279536957A
:103E1000279536952795E8CFE05DE883812FDF91E0
:103E2000CF911F910F91FF90EF9008958F3F2FEF4B
:103E3000920791F02091170330911803F901EE0FCA
:103E4000FF1FE20FF31FEE0FFF1FEE0FFF1FE75ED6
:103E5000FC4F9583848304C0809117030E94AD1C9E
:103E60008091170390911803019690931803809303
:103E7000170308958F929F92AF92BF92CF92DF92D5
:103E8000EF92FF920F931F93CF93DF93CDB7DEB7DF
:103E900028970FB6F894DEBF0FBECDBFDC01169693
:103EA0008C911697898317968C9117978A838C919A
:103EB00027EF280F253008F0F4C0883051F1BD01FC
:103EC000675F7F4F18969C91189780ED890F8A3015
:103ED00008F0E9C0FB01620F711D20E030E006C070
:103EE000919140ED490F4A3008F0DFC0A901440F1D
:103EF000551F220F331F220F331F220F331F240F92
:103F0000351F290F311D20533109E617F70741F7F7
:103F100002C020E030E08D013C832B83CE0101966E
:103F20000E943222882309F4C2C0F801A280B12C79
:103F3000BA2CAA248381A82A09E113E0E12CF12CF0
:103F400088248A94982CF801C480D580FFEFCF167E
:103F5000DF0631F42FEF82169206B1F4470114C048
:103F600044E050E0B801CE0101960E94782A892BE6
:103F700039F48FEFE816F80609F49BC0470179C0C1
:103F8000AC14BD0409F497C0EFEFEE1AFE0A045F0B
:103F90001F4FF1E3EF16F104B1F62FEF82169206F0
:103FA00009F48BC0F401EE0FFF1FE80DF91DEE0FB1
:103FB000FF1FEE0FFF1FE75EFC4F84819581019686
:103FC00009F057C0FFEFAF16BF0609F478C0C4016F
:103FD000880F991F880D991D880F991F880F991FA9
:103FE000875E9C4F49815A816B817C81FC014083B3
:103FF0005183628373830E945322182F811161C001
:10400000F401EE0FFF1FE80DF91DEE0FFF1FEE0F7D
:10401000FF1FE75EFC4FB582A4820F2EFEE1EF2E5C
:10402000F12CF02D44E050E0B701CE0105960E943E
:104030008E2A44E050E0BE016B5F7F4FCE010196B7
:104040000E94782A892BF1F18D8181508E3F48F0B2
:1040500044E050E06E2D7F2DCE0101960E949E2AF5
:1040600031C0F4E0EF0EF11C22EEE216F104D1F6BD
:1040700029C08FEFA816B80629F4882D0E94AD1C20
:1040800010E020C0F401EE0FFF1FE80DF91DEE0F48
:10409000FF1FEE0FFF1FE75EFC4FB582A48210E00A
:1040A00011C013E00FC013E00DC013E00BC013E00C
:1040B00009C011E007C012E005C011E003C012E022
:1040C00001C012E0812F28960FB6F894DEBF0FBE14
:1040D000CDBFDF91CF911F910F91FF90EF90DF90B7
:1040E000CF90BF90AF909F908F900895EF92FF92E6
:1040F0000F931F93CF93DF938A01E9010E94521B14
:104100007C01009721F4D8011C9282E06EC0DC0192
:104110001696ED91FC911797309721F4F8011082D3
:1041200083E063C0AE01B801199581115AC0C7017F
:104130000E94A61B882314F58F778230D8F0E82FD1
:10414000F0E0DE01AE0FBF1F11979C91911107C0E7
:10415000EC0FFD1F3297908199234CF40BC09F3FC9
:1041600049F4EC0FFD1F3297908199231CF4815084
:10417000813029F7D8018C9380E037C08823A1F1E2
:10418000282F30E0FE01E20FF31F31979081992331
:1041900064F0823010F1911120C02C0F3D1FF90105
:1041A00032979081992334F418C0C20FD31F18821C
:1041B0008F5F13C08150813081F0282F30E0FE01E5
:1041C000E20FF31F31979081911107C02C0F3D1F13
:1041D000F9013297908199236CF7F801808380E090
:1041E00004C0D8011C9201C080E0DF91CF911F91E3
:1041F0000F91FF90EF900895EF92FF920F931F930E
:10420000CF93C42F89010E94521B7C01009749F172
:10421000DC0118968D919C911997892B21F1C7018A
:104220000E94A61B982F9F77C91778F4F801EC0F0E
:10423000F11D31978081880F880BF801EC0FF11D7B
:104240008083CF5FC913F9CFC92F9111C92FD7012F
:104250001896ED91FC911997A8016C2FC70119953B
:1042600003C082E001C083E0CF911F910F91FF90C6
:10427000EF900895CF93DF930E94C7220E94622996
:10428000853009F060C08091170390911803C197A1
:1042900008F44BC0109218031092170346C0FB019C
:1042A000EE0FFF1FE60FF71FEE0FFF1FEE0FFF1FB2
:1042B000E75EFC4FC481D581209731F440E050E0A7
:1042C0008AE00E946C2928C0CF3F2FEFD20721F14E
:1042D000FB01EE0FFF1FE60FF71FEE0FFF1FEE0FA4
:1042E000FF1FE75EFC4F0284F385E02D3097A1F0BD
:1042F000CB01880F991F680F791FCB01880F991F79
:10430000880F991F875E9C4F1995882329F0AE016D
:1043100060E28CE00E946C29809117039091180351
:10432000019690931803809317030E9465298823B0
:1043300009F483C06091170370911803613371050C
:1043400008F4ADCF7AC0843009F073C080911703B0
:10435000909118038133910580F5FC01EE0FFF1F4A
:10436000E80FF91FEE0FFF1FEE0FFF1FE75EFC4F78
:10437000248135812F3F3F4FD1F00E94652988234A
:1043800009F45BC06091170370911803FB01EE0FF5
:10439000FF1FE60FF71FEE0FFF1FEE0FFF1FE75E79
:1043A000FC4F448155818AE00E946C2946C00196E9
:1043B000909318038093170340C08F3F2FEF92070D
:1043C00069F1803C9F4F30F480EC9FEF909318038D
:1043D000809317030E946529882379F1C091170300
:1043E000D091180361E0CE010E94521B892B79F015
:1043F000AE0161E38CE00E946C29809117039091DB
:1044000018030196909318038093170316C08FEF3B
:104410009FEF90931803809317030FC00E946529A4
:10442000882359F040E050E060E282E10E946C296C
:1044300004C01092180310921703DF91CF910895D2
:10444000E5E6F5E085E795E011921192E817F907A6
:10445000D9F70E94C1150E94F3130E94011B0E940C
:10446000AC180895FC0190819F3459F028F49134E0
:1044700081F0993431F015C0903539F0933569F0F9
:1044800010C0CF010E94E0150895CF010E941E17B1
:104490000895CF010E9407140895CF010E94D618F5
:1044A000089580E00895FC01178216821186108617
:1044B0001386128680818F3459F028F4813481F07C
:1044C000893431F015C0803539F0833569F010C07A
:1044D000CF010E94F4150895CF010E943717089567
:1044E000CF010E941D140895CF010E94F318089572
:1044F00083E00895FC0190819F3459F028F49134B1
:1045000081F0993431F00895903539F0933569F0A0
:104510000895CF010E949A160895CF010E9469174D
:104520000895CF010E945E140895CF010E94C5191D
:10453000089560916505709166056817790731F1F6
:10454000A7E6B5E045E755E0FD0105C021913191B1
:1045500028173907D9F0E417F507C1F7672B41F0A1
:1045600021E030E0F9016D917D91672B51F402C09B
:10457000E0E0F0E0EE0FFF1FEB59FA4F91838083EC
:1045800008952F5F3F4FA417B50761F708950F9364
:104590001F93CF93DF93C5E6D5E005E715E0E991DA
:1045A000F991309709F01995C017D107C1F7DF913C
:1045B000CF911F910F9108950E9442020E940423FF
:1045C0000E94A31D0E94F0110E945E2610927505A4
:1045D0000E94530280917505882349F080917505EA
:1045E0008150809375050E943A210E94B9260E944D
:1045F0004212009779F30E941124ECCF8091750547
:104600008F5F809375050895EAE7F5E08FE795E001
:104610009183808313821282E6E7F5E01182108293
:104620008FEF93E093838283AEE7B5E014969C937B
:104630008E9313971296FC93EE9311970895CF9350
:10464000DF930FB6F8940F92EC012496CF3F83E0EE
:10465000D80710F00E940203E0917A05F0917B05E3
:10466000AAE7B5E002C0DF01F901228133812C17EE
:104670003D0728F42081318121153105A1F785E01E
:10468000E637F80779F18D919C9111970496208176
:1046900031812D933C93228133812C1B3D0B29309A
:1046A000310520F1BF016C0F7D1FDB0113963C9398
:1046B0002E931297D383C28312964D915C911397D8
:1046C000AAE7B5E001C0DF01ED91FC9111972281CD
:1046D000338124173507B8F3EB01F983E8836D9331
:1046E0007C9304C00E94020380E090E00F900FBE14
:1046F000DF91CF910895CF93DF930097E9F0BC014C
:10470000645071090FB6F8940F92EB014A815B81F6
:10471000AAE7B5E001C0DF01ED91FC91119722817C
:10472000338124173507B8F30497EC01F983E88344
:104730006D937C930F900FBEDF91CF910895FC0194
:10474000892B71F16115710569F10FB6F8940F921B
:10475000DB011D921C92A081B181109739F4718305
:1047600060837383628381E0858316C0848188239C
:1047700061F0258130E02F5F3F4F90E08217930773
:1047800024F40F900FBE80E008956D937C937183A5
:10479000608385818F5F85830F900FBE81E00895D0
:1047A00080E0089580E00895FC01892BD9F00FB6D0
:1047B000F8940F92A281B381109779F085818823B4
:1047C00011F0815085838D919C9111979383828301
:1047D000892B19F41182108215820F900FBE8A2F37
:1047E0009B2F089580E090E00895CF92DF92EF92A2
:1047F000FF92CF93DF93EB01861B970B6C01E12CAB
:10480000F12C0E946302DC01A70196010E944B2A51
:104810008C0F9D1FDF91CF91FF90EF90DF90CF9095
:104820000895DF92EF92FF920F931F93CF93DF9340
:10483000EC0144E050E06BE879E002960E94782AAF
:1048400021E0892B09F020E0488550E045345105EE
:1048500008F013C2FA018827E75DFE4F8F4F0C94D2
:10486000342A80918809823009F007C28A819B81AD
:10487000AC81BD8180938B0990938C09A0938D09A5
:10488000B0938E09898580938A0981E08093890994
:1048900013E01093880964E670E088EC90E00E94D1
:1048A000F523909385098093840910938309E5C1CA
:1048B00080918809823009F0E0C12091830930E0BD
:1048C00043E050E0421B530BE4EFF1E04E9FB00198
:1048D0004F9F700D5E9F700D11246C597F4F84E0C7
:1048E00090E0821B930B9C012E9FC0012F9F900D87
:1048F0003E9F900D11240E94F5239093850980938B
:104900008409BBC180918809823009F0B6C18A81CF
:104910009B81AC81BD8180938B0990938C09A0937E
:104920008D09B0938E09898580938A0913E01093CD
:10493000880964E670E088EC90E00E94F52390938B
:104940008509809384091093830997C1222309F470
:1049500094C18985811191C180918809833009F0C2
:104960008CC184E08093880988EC90E0909385095D
:104970008093840983E0809383097FC180918809B3
:10498000853009F07AC1222309F490C1809182090F
:10499000863131F488EC90E0909385098093840906
:1049A000CE0107960E943A1F8D8787E08E838F8302
:1049B0008BE08887CE010E94FC1178C1222309F484
:1049C0005CC1809188098450823008F056C1809182
:1049D00082098A3009F051C1E0918009F091810982
:1049E00093858B85981349C194858C85981345C10F
:1049F000CF010E947B2386E1809382098D858111FE
:104A000007C0898590E0982F88272A85822B02C0CD
:104A100080E090E00E94161F88EC90E0909385095A
:104A20008093840983E08093830927C1222309F4BA
:104A300024C180918809853009F01FC1D984EA8496
:104A4000F12CFE2CEE248B85E82A0C8510E0102F2B
:104A500000278D85082BC801DD203CF420917E09BC
:104A600030917F092817390779F04F8147509E010F
:104A7000225F3F4F6D2D8E2D9F2D0E94FC208D8734
:104A800010937F0900937E098D2D8076803209F086
:104A9000F4C080918209863131F488EC90E09093E3
:104AA00085098093840987E08E838F838DE08887D2
:104AB000F986EA861B870C87CE010E94FC11F6C09E
:104AC000222309F4DAC0809188098450823008F0EA
:104AD000D4C0809182098C3009F0CFC0E091800968
:104AE000F091810994858B859813C7C095858C8535
:104AF0009813C3C0CF010E947B2386E18093820973
:104B000083E08093830988EC90E0909385098093FB
:104B10008409B3C0222309F4B0C08091880984308D
:104B200009F0ABC080918209823109F0A6C0E09102
:104B30008009F091810992858C8598139EC0938598
:104B40008D8598139AC0CF010E947B2386E18093C4
:104B5000820985E08093880983E08093830988EC4B
:104B600090E0909385098093840987C0222309F4FB
:104B700084C080918809853009F07FC080E395E783
:104B8000909385098093840983E08093830975C09D
:104B900080918809833068F481E08093890981E0FD
:104BA00090E0909385098093840983E08093830942
:104BB00064C0222309F461C08AE090E090938509E3
:104BC0008093840983E0809383091092880955C0FB
:104BD00080918809813009F050C02091830930E02C
:104BE00043E050E0421B530BE4EFF1E04E9FB00175
:104BF0004F9F700D5E9F700D11246C597F4F84E0A4
:104C000090E0821B930B9C012E9FC0012F9F900D63
:104C10003E9F900D11240E94F52390938509809367
:104C200084092BC080918809813039F58A8590E00C
:104C3000982F88272B85822B209186093091870910
:104C400082179307D1F40E946C1244E050E06AE8A6
:104C500072E00E94782A892B29F113C0980144E060
:104C600061E081E29FEF0E94881D1092880981E037
:104C700090E09093850980938409CE010E947B2364
:104C800015C08F818530C9F7F0CF8E01045F1F4FAB
:104C90000E946C1244E050E0B8010E94782A892BEF
:104CA00061F3DCCF8F81893041F7EFCFDF91CF9176
:104CB0001F910F91FF90EF90DF900895CF93DF93B6
:104CC0001F92CDB7DEB784E089832BE839E0AE01CF
:104CD0004F5F5F4F61E084E29FEF0E943E1D0E94A4
:104CE0006C1244E050E06AE872E00E94782A892B56
:104CF00021F481E08093880911C044E050E06AE823
:104D000072E08BE899E00E94782A892B21F482E0F6
:104D10008093880903C083E08093880910928A09F0
:104D200081E08093890988EC90E0909385098093D5
:104D3000840983E080938309109287091092860981
:104D40008FEF9FEF90937F0980937E098091820976
:104D5000863141F08091800990918109009711F08E
:104D60000E947B2386E1809382090F90DF91CF918F
:104D70000895CF92DF92EF92FF920F931F93CF93FC
:104D8000DF931F92CDB7DEB780918409909185099A
:104D9000009741F001979093850980938409892BAE
:104DA00009F086C280918809823009F42AC138F45A
:104DB000882309F4ABC0813009F4B3C079C28430D0
:104DC00009F407C208F470C1853009F071C28091FE
:104DD0008309882349F08150809383099091820947
:104DE0009C3009F049C009C081E090E090938509AA
:104DF00080938409109288095BC223E030E0A90106
:104E0000481B5109BA01660F771F640F751F660FA3
:104E1000771F660F771F29E1249FC001259F900D02
:104E200011240E94F52390938509809384090091B1
:104E3000800910918109F801818580768032C1F462
:104E400089E390E00E941F238C018091800990915A
:104E5000810929E3FC01D80101900D922A95E1F71F
:104E6000DC0119962C911997206819962C931DC274
:104E700086E18093820919C29A3051F523E030E02F
:104E8000F901E81BF109BF01660F771F6E0F7F1F45
:104E9000660F771F660F771F29E12E9FC0012F9F96
:104EA000900D11240E94F523909385098093840925
:104EB00089E390E00E941F238C01E0918009F0912A
:104EC000810989E3D80101900D928A95E1F7EDC13E
:104ED00089E390E00E941F238C0180918B099091BF
:104EE0008C09A0918D09B0918E09F801828393837A
:104EF000A483B58382E08683878386E1808780E30D
:104F000095E79093850980938409CFC10E94F011A1
:104F10000E945E268AE090E0909385098093840940
:104F2000C7C1209183092223E1F1215020938309F5
:104F300030E043E050E0421B530BE4EFF1E04E9FC2
:104F4000B0014F9F700D5E9F700D11246C597F4F03
:104F500084E090E0821B930B9C012E9FC0012F9F49
:104F6000900D3E9F900D11240E94F523909385098A
:104F70008093840989E390E00E941F238C010E94A2
:104F8000630290938709809386090E946C1244E023
:104F900050E06AE872E00E94782A892BB1F080E044
:104FA00019C080918909833038F48F5F8093890913
:104FB00083E0809383097CC188EB9BE09093850913
:104FC000809384091092880973C184E0D8011C96EB
:104FD0008C9381E04FEF5FEFBA01F8014283538376
:104FE0006483758393E49087909189099187909168
:104FF000860920918709228793878B5F8683878321
:1050000054C1209183092223D9F12150209383098F
:1050100030E043E050E0421B530BE4EFF1E04E9FE1
:10502000B0014F9F700D5E9F700D11246C597F4F22
:1050300084E090E0821B930B9C012E9FC0012F9F68
:10504000900D3E9F900D11240E94F52390938509A9
:105050008093840989E390E00E941F238C018FEFE5
:105060009FEFDC01F80182839383A483B58383E0FF
:105070008683878381E0808780918909818715C134
:1050800080918909833038F48F5F8093890983E0A8
:10509000809383090DC188EB9BE0909385098093F1
:1050A00084091092880904C180918309882309F436
:1050B00078C081508093830964E670E084EF91E0CA
:1050C0000E94F523909385098093840989E390E0F9
:1050D0000E941F238C0180918B0990918C09A091D3
:1050E0008D09B0918E09F80182839383A483B583DF
:1050F00084E08087818781E0828783878CE2848750
:105100007801FDE0EF0EF11C87E189839701AE0184
:105110004F5F5F4F61E080E09FEF0E943E1D8981FD
:105120008230D0F586E089839701AE014F5F5F4FF3
:1051300061E080EC9FEF0E943E1D8981E80EF11C2A
:105140009FE5D7019C938F5F89830E946C12FC01BD
:10515000A7014E5F5F4FBAE0EB0EF11C9191292F32
:1051600022952F702A3010F0295C01C0205D6A0161
:10517000BA0161507109DB012C939F709A3010F0D5
:10518000995C01C0905DD6019C934E5F5F4F4E15B8
:105190005F0521F78981885F8A5FF80186838783AD
:1051A00084C0109287091092860981E08093890952
:1051B00083E08093830964E670E084EF91E00E94CD
:1051C000F523909385098093840982E08093880970
:1051D0006FC080918309882311F1815080938309E6
:1051E00023E030E0A901481B5109BA01660F771F7F
:1051F000640F751F660F771F660F771F29E1249FC5
:10520000C001259F900D11240E94F52390938509DC
:1052100080938409809182098A3051F40BC081E027
:1052200090E090938509809384091092880940C08A
:10523000823181F489E390E00E941F238C01E09188
:105240008009F091810989E3D80101900D928A9536
:10525000E1F72BC08C3029F500918009109181096C
:10526000F801818580768032C1F489E390E00E9464
:105270001F238C01809180099091810929E3FC0111
:10528000D80101900D922A95E1F7DC0119962C9135
:105290001997206819962C9308C086E1809382099B
:1052A00004C086E18093820903C0C8010E94FC11FA
:1052B0000F90DF91CF911F910F91FF90EF90DF90B2
:1052C000CF90089580918809089581E09091820996
:1052D000963109F080E00895CF92DF92EF92FF922D
:1052E0000F931F93CF93DF931F92CDB7DEB7F82EA6
:1052F000E62ED42EC52E89E390E00E941F238C0158
:1053000020918609309187092F5F3F4F2F3F8FEF04
:10531000380729F0309387092093860906C081E079
:1053200090E09093870980938609209186093091B7
:105330008709ECE0FE1217C0F801E186C286D38629
:10534000348725878BE289839801225F3F4FAE0126
:105350004F5F5F4F6E2D8D2D9C2D0E947620898191
:10536000895F898321C0FAE0FF120EC0F801C1866F
:10537000D28633872487B801635F7F4F8E2D0E94CA
:10538000AF1E8A5F898310C0F2E1FF1209C0F801E5
:10539000E1863287238783E2848786E0898304C09D
:1053A000C8010E947B2323C080918B0990918C09B6
:1053B000A0918D09B0918E09F80182839383A48313
:1053C000B583898186838783F0928209F086109362
:1053D000810900938009809188098450823038F4D3
:1053E000109285091092840983E0809383090F90BD
:1053F000DF91CF911F910F91FF90EF90DF90CF90B1
:105400000895AA1BBB1B51E107C0AA1FBB1FA6170B
:10541000B70710F0A61BB70B881F991F5A95A9F75D
:1054200080959095BC01CD010895052E97FB1EF443
:1054300000940E942C2A57FD07D00E94562A07FC90
:1054400003D04EF40C942C2A50954095309521951C
:105450003F4F4F4F5F4F08959095809570956195A0
:105460007F4F8F4F9F4F0895EE0FFF1F881F8BBFF9
:105470000790F691E02D1994A29FB001B39FC0014F
:10548000A39F700D811D1124911DB29F700D811D70
:105490001124911D08950E943C2AA59F900DB49F50
:1054A000900DA49F800D911D11240895A1E21A2E44
:1054B000AA1BBB1BFD010DC0AA1FBB1FEE1FFF1FB8
:1054C000A217B307E407F50720F0A21BB30BE40B08
:1054D000F50B661F771F881F991F1A9469F760954F
:1054E0007095809590959B01AC01BD01CF01089509
:1054F000FB01DC0104C08D910190801921F4415021
:105500005040C8F7881B990B0895FB01DC0102C0CD
:1055100001900D9241505040D8F70895DC01CB0125
:10552000FC01F999FECF06C0F2BDE1BDF89A3196B3
:1055300000B40D9241505040B8F70895DC01CB0102
:1055400003C02D910E94A92A41505040D0F70895E0
:10555000262FF999FECF1FBA92BD81BD20BD0FB68F
:10556000F894FA9AF99A0FBE01960895F894FFCF2D
:105570005EA1000000000400000000000400000420
:10558000A30102034135456E31302E33313445736A
:10559000020000FFEF1BA01C000045571C0008FF85
:1055A000EF1BA71C00004561E20020FFD61B441C36
:1055B00000004561E80021FFD61B441C0000456146
:1055C000EC0022FFD61B441C00004561F00023FFC5
:1055D000D61B441C00004561F40024FFD61B441C6C
:1055E000000046730000C0FF5F1D00000000466120
:0E55F0000100C1FF5F1D00000000FFFFFFFF74
:00000001FF
