:100000000C9484000C94A1000C94A1000C94771D16
:100010000C94A1000C94A1000C94DE130C94C91351
:100020000C94A1000C94A1000C94A1000C94A100CC
:100030000C94A1000C94A1000C94A1000C94A100BC
:100040000C94A1000C94A1000C9423070C94F906C5
:100050000C94A1000C94C2020C94A1000C94A10079
:100060000C949F090C94A1000001020304050607EB
:10007000FFFFFFFFFFFF08FFCF00670033001900FD
:100080000C004573320000FFB100570100004557D6
:10009000300001FFB1000F1900004542490010FF78
:1000A000B1005701000045574B0011FFB100570147
:1000B00000004542480012FFB1005701000046739E
:1000C000CA00C0FFFC00000000000A4E4455503238
:1000D000302E323630002E02060347063D07060852
:1000E000050B060D210E620F7610CA11831213152F
:1000F00035181819161B4320FB23E9242A2500264E
:100100001F2C812D352E090011241FBECFEFD8E002
:10011000DEBFCDBF11E0A0E0B1E0E4EDF0E402C04D
:1001200005900D92A034B107D9F724E0A0E4B1E026
:1001300001C01D92A937B207E1F70E94F2120C9498
:1001400068200C9400009C01CB0144E050E0B90110
:100150000C9438209C01CB0144E050E0B9010C9490
:100160005020EF92FF920F931F93CF93DF93EB01F9
:100170007A01FC010281138181818236B1F058F449
:100180008434E9F018F4823479F50FC08735A9F08A
:10019000813651F517C08337A9F018F4843621F55C
:1001A0000EC0873751F08A37F9F481E08883C8019F
:1001B0000E944820F701808315C082E001C084E0DE
:1001C00088830AC0C8010E9448209881981708F4C3
:1001D000892F88830F5F1F4F488150E0B801C70106
:1001E0000E94382080E001C083E0DF91CF911F9111
:1001F0000F91FF90EF9008950F931F93CF93DF938C
:10020000EB01DA01FC016281738181818236D1F0D8
:1002100068F4843431F120F4823409F042C012C011
:100220008735B1F0813609F03CC02DC0833759F1D4
:1002300020F4843609F035C014C0873749F08A3776
:1002400009F02FC081E08883FB0164916C9319C091
:1002500082E08883FB01859194918C9311969C9305
:1002600010C084E08883FB0105911591259134919C
:100270000C9311961C93119712962C931297139628
:100280003C9380E00FC0FB0114918881811708F432
:10029000182F6F5F7F4F412F50E0CD010E94192032
:1002A000188383E0DF91CF911F910F910895EF9212
:1002B000FF920F931F93CF93DF931F92CDB7DEB7BB
:1002C000FC01262F8A01E280F38081818236B1F021
:1002D00058F48434A9F018F4823439F50FC0873506
:1002E000D9F0813611F50EC0833761F018F48436E9
:1002F000E1F406C0873781F08A37B9F421E00DC0F8
:1003000024E00BC0622FC70129830E945A208FEF7F
:10031000E81AF80A298101C022E0422F50E0B70113
:10032000C8010E94502080E001C083E00F90DF915F
:10033000CF911F910F91FF90EF9008950E943A0383
:100340000E949A050E9445070C944C0A0C94580A86
:10035000FC012081213538F42F3450F4213431F060
:10036000293451F405C0233539F404C00C947E03BC
:100370000C94CD050C947B0783E00895FC0120814B
:10038000213538F42F3450F4213431F0293451F42C
:1003900005C0233539F404C00C9457030C94A70509
:1003A0000C946D0783E00895FC012081213538F419
:1003B0002F3450F4213431F0293451F405C0233561
:1003C00039F404C00C94C6030C9450060C944D08E8
:1003D0000895FC018081DB018C93818111968C93BF
:1003E000CB010296628173812081213411F46F70F8
:1003F00077270E947A1F8E5F08958F7021E030E08A
:1004000002C0220F331F8150E0F7C90108958F7099
:10041000992788599F4FFC0184910895CF93DF93CA
:100420001F92CDB7DEB7FC018281938169830E9460
:10043000070269816623B9F0E82FF0E0EF58FE4F1C
:1004400080E480838091640080FD0BC080E1809314
:100450007A008FE080937C008091640081608093BB
:10046000640080E03BC09091640090FF15C09FEF56
:100470009093430190934001909164009E7F9093EC
:1004800064009FE090937C009FE990937A009091A4
:100490007A00906490937A00E82FF0E0DF01AF5883
:1004A000BE4F8C9181508C938111DBCFEE0FFF1FDB
:1004B000DF01AC5BBE4F2D913C91285F3F4F44E084
:1004C000369527954A95E1F7E15AFE4F8081918153
:1004D0008217930731F23183208381E00F90DF91FF
:1004E000CF910895CF93DF93EA01FC01828193813C
:1004F0000E94070290E0FC01EE0FFF1FE15AFE4F41
:100500002881398131832083FC01EF58FE4F21E09F
:10051000208380E0DF91CF9108950F931F93CF93B5
:10052000DF938B01EA01FC01828193810E94070223
:1005300092E0F8019083E82FF0E0EE0FFF1FE15A00
:10054000FE4F808191819983888380E0DF91CF91F4
:100550001F910F910895CF93DF930E9407028F3F61
:1005600069F0C091F902D091FA020E94FD01C823FE
:10057000D92381E0CD2B19F480E001C082E0DF9126
:10058000CF9108951F920F920FB60F9211242F93BF
:100590003F934F938F939F93EF93FF932091780016
:1005A0003091790040914001403170F580914101D6
:1005B00090914201820F931F9093420180934101D9
:1005C000411134C020917C002F3059F0E09143015B
:1005D000E93038F4F0E0EE0FFF1FEC5BFE4F918343
:1005E0008083809143018F5F01C0822F893048F55D
:1005F000282F2F5FE82FF0E0EA5AFE4F90819F30BE
:10060000A1F38093430112C0403F81F41092420154
:1006100010924101E0914301E93028F4F0E0EA5AF8
:10062000FE4F808101C08FE080937C00809140016B
:1006300081508093400180917A00806580937A0098
:100640000DC08093430180E180937A008FE0809316
:100650007C0080916400816080936400FF91EF9141
:100660009F918F914F913F912F910F900FBE0F90BF
:100670001F90189580E180937A008FE080937C0032
:10068000809164008160809364001092FA0210925D
:10069000F902109243018FEF80934001E6E5F1E00B
:1006A0008FE0819391E0EF35F907D9F708950F9323
:1006B0001F93CF93DF938C01FC01C281D381C031A2
:1006C000D105B0F4CE010E94AB02823089F0F8016E
:1006D0008181893629F0863729F0853649F403C0AF
:1006E000C06C01C0C064F801D383C28380E001C044
:1006F00083E0DF91CF911F910F9108950F931F9386
:10070000CF93DF93EC011A810B81812F902F0E94F0
:10071000AB02811135C0812F902F0E9407022DE876
:1007200032E03F832E8322E732E0398728872EE0AC
:1007300032E03B872A87282F30E0F901EF58FE4F3F
:100740001082A901440F551FFA01E15AFE4F118290
:100750001082FA01EC5BFE4F11821082F901EA5A15
:10076000FE4F1083C091F902D091FA020E94FD0160
:100770008C2B9D2B9093FA028093F90280E001C0AC
:1007800082E0DF91CF911F910F9108951F93CF9336
:10079000DF93FC01C281D381CE010E94AB02813084
:1007A00029F5CE010E940702182FC091F902D091BD
:1007B000FA020E94FD01809590958C239D239093D1
:1007C000FA028093F902892B59F480E180937A0030
:1007D0008FE080937C00909164009160909364001E
:1007E000E12FF0E0EA5AFE4F8FE08083DF91CF9156
:1007F0001F910895887F992740978930910528F4A3
:10080000FC01EF5FFE4F808108958FEF08959C01FA
:100810002770332781E001C0880F21503109E0F7AC
:1008200008950F931F93CF93DF931F92CDB7DEB739
:100830008C0169830E940704087F112769810031B8
:10084000110521F008311105A1F40AC098B1662301
:1008500019F0982B98B90DC08095892388B909C0E3
:100860009BB1662319F0982B9BB903C0809589230F
:100870008BB90F90DF91CF911F910F9108950F9336
:100880001F93CF93DF931F92CDB7DEB78C0169839F
:100890000E940704087F112769810031110521F0AA
:1008A00008311105A1F40AC097B1662319F0982BFD
:1008B00097B90DC08095892387B909C09AB166237D
:1008C00019F0982B9AB903C0809589238AB90F90A3
:1008D000DF91CF911F910F9108950F931F93CF93A5
:1008E000DF93FC01C281D381DA011C919081818167
:1008F0009934A9F4CE010E94FA03082FCE010E9478
:100900000704E02FF0E0E458FE4F112319F0908126
:10091000982B03C0809590819823908320C09F34AA
:1009200061F48E3611F4109502C08037B1F4612F56
:100930006170CE010E94110412C0903581F48E3690
:1009400009F4109581E090E06D9711F480E090E05B
:10095000FC01E058FE4F108302C083E001C080E03C
:10096000DF91CF911F910F9108951F93CF93DF9344
:10097000EC010E940704182F9E01287F33272031A5
:10098000310521F02831310581F402C0807C69F401
:10099000CE010E94FA03E82FF0E0E658FE4F908166
:1009A000912381E019F480E001C082E0DF91CF91D2
:1009B0001F910895887F99278031910519F04897F4
:1009C00029F402C086B1089589B1089580E00895A0
:1009D000FF920F931F93CF93DF93FC01C281D381CA
:1009E00080811181893459F5611170C0CE010E9456
:1009F000DA04082FCE010E94FA03F82ECE010E94DD
:100A00000704982F1E3609F400950923EF2DF0E016
:100A1000DF01A258BE4F8C91282F2923021719F00D
:100A200098279C9353C0E458FE4F8081282F292398
:100A3000021709F44BC09827908381E048C08F3497
:100A400079F4113619F0113409F040C091E06111C8
:100A500090E081E0113609F080E0692F68272FC00F
:100A60008035A1F5CD31D105C1F468B58091800103
:100A7000681761F1861710F4615001C06F5F68BD9F
:100A8000862F81508E3F30F084B58F7D84BD8DE1FF
:100A900090E016C084B5806218C067B5809181016E
:100AA0006817A1F0861710F4615001C06F5F67BD31
:100AB000862F81508E3F38F084B58F7784BDCE016C
:100AC0000E94110403C084B5806884BD80E0DF917A
:100AD000CF911F910F91FF900895BF92CF92DF9217
:100AE000EF92FF920F931F93CF93DF93EC016B0173
:100AF0007A010A811B81C8010E94DA04B82E89811B
:100B00008E3609F4B09481E0F6018083C8010E941A
:100B100007048B2191E009F490E0F701908380E0D5
:100B2000DF91CF911F910F91FF90EF90DF90CF90C9
:100B3000BF90089510927A0110927C0110927E016C
:100B400010927B0110927D0110927F0108950F9306
:100B50001F93CF93DF93EC010A811B81C8010E9490
:100B6000B5048230A1F089818E3631F0803721F0D2
:100B7000813411F0813659F48881803511F080E09C
:100B800007C00D311105D9F30E311105C1F383E012
:100B9000DF91CF911F910F910895DF92EF92FF9215
:100BA0000F931F93CF93DF938C01FC01C281D381FC
:100BB000CE010E94B504882311F082E069C0CE0105
:100BC0000E94FA03D82E811116C0CE010E94AB02FA
:100BD000813099F381110FC0E090F902F090FA0290
:100BE000CE010E9407020E94FD018E299F29909349
:100BF000FA028093F902CE010E9407042D2D30E005
:100C0000F901E658FE4F9081982B90838095F90169
:100C1000E458FE4F908198239083F901E258FE4FEB
:100C2000908198239083F80180818F3411F461E0E2
:100C300014C0803589F461E0CE010E943F0484B580
:100C4000807A71F4809164008F7D8093640083E0EA
:100C500084BD84E085BD04C060E0CE010E943F04F5
:100C6000F80181818E3611F0813421F461E0CE01EA
:100C70000E9411048DE695E0F801978386838DE646
:100C800094E09187808788EE94E09387828780E064
:100C9000DF91CF911F910F91FF90EF90DF9008951A
:100CA000EF92FF920F931F93CF93DF938C01FC0180
:100CB000C281D381CE010E94FA03F82ECE010E9498
:100CC00007042F2D30E08095F901E658FE4F908102
:100CD00098239083F901E458FE4F908198239083E4
:100CE000F901E258FE4F908198239083F11016C0CD
:100CF000CE010E94AB02813089F4E090F902F090BD
:100D0000FA02CE010E9407020E94FD018095909593
:100D10008E219F219093FA028093F902F80180813D
:100D20008035A1F4828193814D9719F484B58F7D2C
:100D300002C084B58F7784BD84B5807A39F414BC41
:100D400015BC8091640080628093640060E0CE01F5
:100D50000E94110460E0CE01DF91CF911F910F91AD
:100D6000FF90EF900C943F04CA012091A001FB0179
:100D700020834091A00122E831E050E0B9010E94B7
:100D80002F201092A0011092C20180E0089580915E
:100D9000A001882371F08091A001883160F49091C6
:100DA000A0018091C201981731F08091A001809339
:100DB000C20180E0089581E00895CF93C62FBA0163
:100DC0008091A201811112C023EA31E04C2F50E042
:100DD000C9010E942F201092A101C093A20180910D
:100DE000C10080628093C10080E001C081E0CF91AA
:100DF00008951F920F920FB60F9211248F939F9315
:100E0000EF93FF938091A1019091A201891758F46B
:100E1000E82FF0E0ED55FE4F90819093C6008F5F74
:100E20008093A10107C01092A2018091C1008F7D23
:100E30008093C100FF91EF919F918F910F900FBE12
:100E40000F901F9018951F920F920FB60F921124BA
:100E50008F939F93EF93FF939091C6008091A00191
:100E60008D3150F48091A001E82FF0E0EE57FE4F55
:100E700090838F5F8093A001FF91EF919F918F915D
:100E80000F900FBE0F901F9018958091C1008F7624
:100E90008093C1008091C100887129F48091640021
:100EA0008D7F809364008091C100877F8093C10013
:100EB0008091C100887129F48091640082608093E0
:100EC00064008FEF8093C1011092A1011092A201E2
:100ED0001092C2011092A0010895FC01218182812B
:100EE0009381059730F4223711F480E00895243778
:100EF000E1F383E008950F931F93CF93DF93CDB772
:100F0000DEB72C970FB6F894DEBF0FBECDBF8C01B5
:100F1000DC0111968C91843709F056C089E190E08C
:100F20000E94B504882311F082E0ACC02091C10179
:100F30002F3F19F5809164008D7F80936400D80164
:100F40001296ED91FC911397E093C101FF27EE0FEC
:100F5000FF1FE858FF4F859194919C012227307F15
:100F6000232B31F09F702091C00022602093C0009D
:100F70009093C5008093C40007C030E0F8018281DF
:100F800093812817390781F68091C100886080938A
:100F9000C10086E08093C2008FE489838EE68A8355
:100FA00089E190E09C838B83D80117961C921E9256
:100FB00016978DED96E019969C938E9318971B9635
:100FC0001C921E921A9759C0823709F0ADCF88E162
:100FD00090E00E94B5048111A7CF2091C1012F3F5D
:100FE00019F5809164008D7F80936400D80112967A
:100FF000ED91FC911397E093C101FF27EE0FFF1FC6
:10100000E858FF4F859194919C012227307F232B34
:1010100031F09F702091C00022602093C000909317
:10102000C5008093C40008C030E0F801828193813C
:101030002817390709F078CF8091C1008069809323
:10104000C10086E08093C20089E489838EE68A83AA
:1010500088E190E09C838B8384EB96E0D80117961F
:101060009C938E93169719961C921E92189787EC54
:1010700096E01B969C938E931A97CE0101960E9440
:10108000CD0580E02C960FB6F894DEBF0FBECDBF25
:10109000DF91CF911F910F910895FC0181818437D9
:1010A000A9F48091C100877F8093C1008091C10025
:1010B000887129F4809164008260809364008FE4D9
:1010C00080838EE6818389E190E016C08237C9F47F
:1010D0008091C1008F768093C1008091C10088719A
:1010E00029F4809164008D7F8093640089E480837B
:1010F0008EE6818388E190E093838283CF010C9414
:101100005006089581E0FB0180838091C30186959C
:10111000FA01808380E00895FA0180818093CB01F9
:1011200080E00895662359F01092BC00809164001D
:101130008068809364008FEF8093CC0144C08091DD
:10114000FB02811104C08FEF8093CB013CC08091E2
:10115000C3019091CB01981729F08093CB01109295
:10116000CC0131C02091CC012F5F2093CC01203CD9
:1011700039F08091FB02837890E0813891055CF032
:101180001092BC008091640080688093640080E8C5
:101190008093FB0216C0211116C0809164008F77E6
:1011A0008093640080E28093B8008FEF8093BB004F
:1011B00094E09093BC001092FB021092C3018093C4
:1011C000CB0181E0089580E008950F931F93880F6D
:1011D0008093C3016093FB024093C4012093C50137
:1011E0001093C7010093C60164EA54E877C0609386
:1011F000BC008091BC0087FFFCCF8091B900883093
:1012000029F08091B900803109F036C09091FB023D
:101210008091C30191FD01C081608093BB00509318
:10122000BC008091BC0087FFFCCF8091B900883161
:1012300029F08091B900803409F01EC08091FB0232
:1012400081FD20C040E041C0E091C601F091C7019E
:10125000E80FF11D90819093BB008F5F5093BC000D
:101260009091BC0097FFFCCF9091C401891758F46E
:101270009091B900983239F084E98093BC00809154
:10128000B90039C080E09091C4018917E8F28091DB
:10129000FB028D7F21C0842F90E0019630E0821701
:1012A000930714F484EC01C084E88093BC0080911F
:1012B000BC0087FFFCCFE091C601F091C701E40FAD
:1012C000F11D8091BB0080834F5F2091C5014217C3
:1012D00010F38091FB028E7F8093FB028091FB02D2
:1012E000837009F084CF84E98093BC001092FB02E4
:1012F0001092C3018FEF1F910F910895EF92FF920B
:101300000F931F939091FB0297FD14C0880F809359
:10131000C3016093FB024093C4012093C501109365
:10132000C7010093C601F092C901E092C80185EAA5
:101330008093BC001F910F91FF90EF9008951F9232
:101340000F920FB60F9211242F933F934F935F93F9
:101350006F937F938F939F93AF93BF93EF93FF937D
:101360008091B900887F883221F140F48031A1F06A
:101370008831F9F0883009F076C00EC0803409F465
:1013800048C020F4803309F06EC026C0803599F142
:10139000883509F068C049C01092CA019091FB02DB
:1013A0008091C30191FD01C081608093BB0085E8FD
:1013B00060C08091CA019091C401891768F4E091DE
:1013C000C601F091C701E80FF11D90819093BB0019
:1013D0008F5F8093CA01EBCF8091FB028D7F80935A
:1013E000FB028091FB0280FF02C085EA42C084E9D3
:1013F0008093BC0030C08091CA01E091C601F09199
:10140000C701E80FF11D9091BB0090838F5F80931F
:10141000CA012091CA0130E08091C50190E0019796
:101420002817390724F685EC24C08091CA01E09181
:10143000C601F091C701E80FF11D9091BB009083A8
:101440008F5F8093CA0184E98093BC008091FB0286
:101450008E7F8093FB02E091C801F091C901309723
:1014600051F0099508C08091FB0280688093FB02CF
:1014700084E98093BC00FF91EF91BF91AF919F9160
:101480008F917F916F915F914F913F912F910F902D
:101490000FBE0F901F9018951092FB028FEF809354
:1014A000C3011092CB011092C9011092C801089596
:1014B0001F93CF93DF931092BC00809164008068EB
:1014C0008093640084E190E00E94B50481117FC0A4
:1014D00085E190E00E94B504811179C084E190E03B
:1014E0000E940704182F85E190E00E940704182B42
:1014F000CFEFDFEF84E190E00E94DA0481238113D3
:1015000014C0809164008F778093640080E28093A0
:10151000B8008FEF8093BB0084E08093BC000E94F2
:10152000211AEC01009721F452C0219719F74FC0FE
:101530001092C9011092C8012FEF84E39CE0215062
:1015400080409040E1F700C000000E947A0E182F02
:101550000E942C10180F0E941911180F0E9483125C
:10156000180F0E947E0B810F61F48FEF9FEF9D8318
:101570008C831092BC00809164008068809364002A
:1015800026C00E944C0A89E4888380E7898384E12D
:1015900090E09B838A83CE010E94CD0585E190E097
:1015A0009B838A83CE010E94CD0582E898E09F83C9
:1015B0008E838CE898E09987888782E998E09B87FA
:1015C0008A8784E5888382E489831B821A82DF917B
:1015D000CF911F910895FA01DC0112968D919C9193
:1015E000139783709927B081A1817281638154819F
:1015F000458136812781FC01EE0FFF1FEE0FFF1F93
:10160000EE0FFF1FE353FE4FB083A183728363830A
:101610005483458336832783FC01E351FE4F21E049
:10162000208380E00895EF92FF920F931F93611142
:101630005FC0FC012281338123703327F901E3511C
:10164000FE4F4081423021F410821092FB0250C0C4
:10165000413009F04DC04091FB02411149C0890160
:1016600043E0000F111F4A95E1F7F801E353FE4FE5
:101670004081433601F178F44334E9F028F44134F1
:10168000C1F04234F1F424C04C34A9F04735F1F0F4
:101690004834B9F410C04E3671F028F4463669F07B
:1016A000483679F408C0403731F048F0443749F4FF
:1016B00004C045E00EC044E00CC042E00AC041E076
:1016C00008C0F901E351FE4F108212C048E001C08A
:1016D00046E0F901E351FE4F52E0508303531E4FA1
:1016E000E12CF12C20E06AE0FC0183810E947E095C
:1016F00080E01F910F91FF90EF9008955F926F929D
:101700007F928F929F92AF92BF92CF92DF92EF9291
:10171000FF920F931F93CF93DF931F92CDB7DEB746
:10172000512C68E0662E71E6972EEBEECE2EEAE0A5
:10173000DE2EF3E1AF2EFBE0BF2EA4E58A2EB1E74B
:101740007B2E99828E010F5F1F4F21E041E063E005
:10175000862D0E94E5088F3F79F5898186112CC07E
:101760000E94211AFC01009779F117821682D18616
:10177000C086B386A28680827182252D30E0F62C49
:10178000E12CC701820F931F93838283F90153E0F9
:10179000EE0FFF1F5A95E1F7E353FE4F10821182BF
:1017A000128213821482158216821782F901E35184
:1017B000FE4F81E08083539463948FE1681621F09B
:1017C00083E0851508F0BDCF852D0F90DF91CF9177
:1017D0001F910F91FF90EF90DF90CF90BF90AF904F
:1017E0009F908F907F906F905F900895FC01228171
:1017F00020FF11C084E0FB0180838091F101909172
:10180000F201A091F301B091F401FA018083918378
:10181000A283B3830AC082E0FB0180838091F5013B
:101820009091F601FA019183808380E00895FC0194
:101830002281FA0120FF0DC080819181A281B381B4
:101840008093F1019093F201A093F301B093F4011E
:1018500006C0808191819093F6018093F50180E02C
:1018600008954F925F926F927F928F929F92AF9264
:10187000BF92CF92DF92EF92FF920F931F93CF937D
:10188000DF93CDB7DEB728970FB6F894DEBF0FBE53
:10189000CDBF8091F7018D3011F080E030C18EE036
:1018A0008093F7018091FC028090FD02912CA12C85
:1018B000B12CBA2CA92C982C8824A82A8091FE023D
:1018C000882AA5E0B694A79497948794AA95D1F70F
:1018D0001092FB02C0900E02D0900F02E090100216
:1018E000F090110220EAC21A2FE0D20AE108F108B2
:1018F000A7019601C701B6010E94AC1FDC01CB0114
:101900001CE0B595A795979587951A95D1F789838A
:101910009A83AB83BC83A0910602B0910702298110
:101920003A814B815C810E9405202B013C01A091F2
:10193000FA01B091FB01A70196010E9405206D8379
:101940007E838F8398870091F8011091F901A0910F
:10195000FC01B091FD010E9405206B017C018DE02E
:10196000F594E794D794C7948A95D1F7A09104028F
:10197000B091050229813A814B815C810E9405204A
:10198000BB2797FDB095AB2FC80ED91EEA1EFB1ED4
:1019900092E0C90ED11CE11CF11C32E0F594E794F1
:1019A000D794C7943A95D1F7A0E8DA0EE11CF11C60
:1019B000A091FE01B091FF01A70196010E94FA1FBC
:1019C0006B017C014FE0F694E794D794C7944A9555
:1019D000D1F7C801AA2797FDA095BA2F52E0880F2A
:1019E000991FAA1FBB1F5A95D1F76BE07594679496
:1019F000579447946A95D1F72D813E814F81588540
:101A00007BE055954795379527957A95D1F7420E06
:101A1000531E641E751E840D951DA61DB71D880FCF
:101A2000991FAA1FBB1F881A990AAA0ABB0AAAE60D
:101A3000B8E1A50194010E94FA1F97FD0BC0660F43
:101A4000771F881F991FA70196010E94BC1F49019B
:101A50005A010AC0A70196010E94BC1F49015A0100
:101A6000880C991CAA1CBB1C9927B7FC9A958B2D36
:101A70007A2D692D9B01AC010E94AC1F9B01AC012A
:101A8000AEEDBBE00E94FA1F6C01FF24D7FCF0947E
:101A9000EF2CA3E4B3EEA50194010E940820BB271C
:101AA00097FDB095AB2FC80ED91EEA1EFB1E3FEC6A
:101AB000C30E3EE0D31EE11CF11C44E0F594E79414
:101AC000D794C7944A95D1F7C80CD91CEA1CFB1CC3
:101AD0008091F1019091F201A091F301B091F40194
:101AE000C816D906EA06FB0609F4D7CEC092F10162
:101AF000D092F201E092F301F092F40181E0289695
:101B00000FB6F894DEBF0FBECDBFDF91CF911F910E
:101B10000F91FF90EF90DF90CF90BF90AF909F908C
:101B20008F907F906F905F904F900895CF92DF924B
:101B3000EF92FF920F931F93662311F08FEDD0C0A9
:101B40008091FB02807C79F08091F701811101C0C6
:101B5000C9C080E48093F7019091FB0296FFC2C058
:101B60008093FB02BFC08091FB02837009F0BAC072
:101B70008091F701843039F148F48130F9F0B8F000
:101B8000823009F1833009F0A8C018C0883009F408
:101B900097C030F4853001F1863009F09EC083C0D3
:101BA000893009F480C08B3009F097C089C08091DA
:101BB000FB0283FD97C081E08093F70184EF80935F
:101BC000FC028EE273C086EF8093FC02E12CF12CC4
:101BD0000CEF12E022E07CC09091FC0280E02091AA
:101BE000FD02AC01422B9A0140E050E080910202DC
:101BF00090910302281B390B41095109A091000261
:101C0000B09101020E94FA1F6B017C01FFE0F59484
:101C1000E794D794C794FA95D1F760910A0270912E
:101C20000B02882777FD8095982FABE0660F771F12
:101C3000881F991FAA95D1F720910C0230910D02AF
:101C4000442737FD4095542F2C0D3D1D4E1D5F1D23
:101C50000E94DE1F2C0D3D1D4E1D5F1D20930E02A8
:101C600030930F024093100250931102BA01A90160
:101C7000485F5F4F6F4F7F4FB4E0759567955795FD
:101C80004795BA95D1F78091F5019091F6018417A7
:101C9000950719F186E08093F7015093F601409380
:101CA000F50181E020C084EF8093FC028093FD0267
:101CB000E12CF12C0CEF12E020E042E06AE00AC0D7
:101CC00086EF8093FC02E12CF12C0CEF12E023E074
:101CD00041E06BE087E70E947E098091F7018F5F0A
:101CE0008093F70180E01F910F91FF90EF90DF90BC
:101CF000CF900895BF92CF92DF92EF92FF920F9311
:101D00001F93CF93DF931F92CDB7DEB780ED89830A
:101D10008E010F5F1F4F21E041E063E087E70E94E3
:101D2000E5088F3F09F0C2C08981853509F0BEC042
:101D30008AEA90E09093F9018093F80108EF11E0AE
:101D400026E141E063E087E70E94E5081092F70191
:101D50001092F6011092F5011092F1011092F20129
:101D60001092F3011092F4018091F8019091F90121
:101D70009827892798279093F9018093F8018091FB
:101D8000FA019091FB019827892798279093FB01EE
:101D90008093FA018091FC019091FD019827892799
:101DA00098279093FD018093FC018091FE01909112
:101DB000FF019827892798279093FF018093FE01C0
:101DC000809100029091010298278927982790938B
:101DD00001028093000280910202909103029827F1
:101DE000892798279093030280930202809104022E
:101DF0009091050298278927982790930502809350
:101E0000040280910602909107029827892798275B
:101E10009093070280930602809108029091090234
:101E20009827892798279093090280930802809128
:101E30000A0290910B0298278927982790930B020A
:101E400080930A0280910C0290910D0298278927B5
:101E5000982790930D0280930C020E94211A8C0106
:101E6000009721F186EFC82E8BE0D82EF801D7829B
:101E7000C68297E1E92E9CE0F92EF186E08686E99C
:101E80009DE09387828724E5B22EB08287E7818325
:101E900080E097E7938382830E94211AFC010097D8
:101EA00039F48FEF9FEFF8019583848380E010C0B1
:101EB000D782C682F186E08681E39CE093878287A1
:101EC000B08284E4818381E097E79383828382E018
:101ED0000F90DF91CF911F910F91FF90EF90DF90C6
:101EE000CF90BF900895FC01228120FF08C081E0BF
:101EF000FB01808380911202FA0180830AC082E094
:101F0000FB0180838091130290911402FA01918366
:101F1000808380E00895FC012281FA0120FF04C043
:101F200080818093120206C0808191819093140277
:101F30008093130280E0089580911502873011F09C
:101F400080E0089588E0809315028091FF0224E0EC
:101F5000829FC001112490910003929596959695C9
:101F60009370982B1092FB0280911202981741F304
:101F70009093120281E00895EF92FF920F931F93C6
:101F8000662311F08FED60C08091FB02807C79F0B8
:101F900080911502811101C059C080E4809315021F
:101FA0009091FB0296FF52C08093FB024FC080913C
:101FB000FB02837009F04AC080911502813069F0FC
:101FC00028F0843091F08530E1F51AC08091FB0251
:101FD00083FD3CC081E080931502E12CF12C00E0F0
:101FE00010E020E040E06AE007C0E12CF12C0FEFA8
:101FF00012E024E040E069E087E20E947E0921C00F
:102000008091FF02807C11F084E01EC020910203C9
:10201000269526958091010330E4839FC001112409
:10202000822B20911302309114028217930749F0FA
:10203000909314028093130286E08093150281E04E
:1020400006C0809115028F5F8093150280E01F917A
:102050000F91FF90EF900895DF92EF92FF920F9310
:102060001F93CF93DF9300E010E020E040E062E0B8
:1020700087E20E94E5088F3F09F02DC010921502FB
:102080001092120210921402109213020E94211A4E
:10209000EC01009701F183E7E82E8FE0F82EFF8234
:1020A000EE820BE81FE0198708878CEB9FE09B8787
:1020B0008A8794E5D92ED88287E7898380E097E2E2
:1020C0009B838A830E94211AFC01009731F48FEFD1
:1020D0009FEF9D838C8380E010C0F782E68211879A
:1020E00000878CE99FE093878287D08282E4818396
:1020F00081E097E29383828382E0DF91CF911F9109
:102100000F91FF90EF90DF90089522E0DB012C9378
:10211000DC011296ED91FC911397E770FF27EE0F0B
:10212000FF1FEA5EFD4F80819181FA0191838083D8
:1021300080E00895DC011296ED91FC911397E77011
:10214000FF27EE0FFF1FEA5EFD4FDA018D919C9194
:102150009183808380E00895EF92FF920F931F9305
:10216000CF93DF93FC0182819381EC01C770DD275F
:10217000662321F0CA5DDD4F8FED52C02091FB0236
:10218000207C79F0CA5DDD4F8881811101C049C092
:1021900080E488839091FB0296FF43C08093FB020A
:1021A00040C02091FB022370E1F5FE01EA5DFD4F86
:1021B0002081213061F028F02230B1F0233061F528
:1021C00029C02091FB0223FD2CC021E02083109226
:1021D0000303E12CF12C03E013E022E041E06BE08B
:1021E000892F0E947E0918C09091030380E02091FE
:1021F0000403822B23E02083FE01EE0FFF1FEA5E23
:10220000FD4F208131818217930721F091838083D4
:1022100081E008C01092FB02CA5DDD4F88818F5FAC
:10222000888380E0DF91CF911F910F91FF90EF9015
:1022300008955F926F927F928F929F92AF92BF921A
:10224000CF92DF92EF92FF920F931F93CF93DF9382
:10225000C8E4D0E0512C9924939450E8852E65E889
:10226000E62E60E1F62E7AE9C72E70E1D72EECEA71
:10227000AE2EE0E1BE2EF4E57F2EA7E76A2E909207
:1022800003031092040303E013E020E042E062E065
:102290008C2F0E94E5088F3F09F5052D10E0F8010D
:1022A000EA5DFD4F8082F801EE0FFF1FEA5EFD4FF1
:1022B000118210820E94211AFC010097B1F0F7826E
:1022C000E682D186C086B386A286708261823C2F68
:1022D0002227202B312B338322835394CF34D105F3
:1022E00021F0219687E0851550F6852DDF91CF915D
:1022F0001F910F91FF90EF90DF90CF90BF90AF9024
:102300009F908F907F906F905F90089522E0FB01E7
:102310002083FC01228120FF05C080912F02909133
:10232000300204C08091310290913202FA0191830F
:10233000808380E00895FC012281FA0180819181EF
:1023400020FF05C09093300280932F0204C0909329
:1023500032028093310280E0089580912E028E3007
:1023600011F080E008958FE080932E021092FB021E
:1023700020910603269526958091050330E4839FDE
:10238000C0011124822B2091310230913202821738
:10239000930739F3909332028093310281E00895DC
:1023A000EF92FF920F931F93662311F08FED80C081
:1023B00080912E02811109C08091FB028B7C09F073
:1023C00079C081E080932E0213C08091FB02807C53
:1023D00051F080E480932E029091FB0296FF6AC038
:1023E0008093FB0267C08091FB02837009F062C09A
:1023F00080912E02883071F168F48330D9F020F496
:10240000813009F052C011C08630C1F0873009F028
:102410004CC050C08C3091F020F4893009F045C098
:1024200034C08F3008F041C045C083E0809305037D
:1024300081E32FC08093050381E02BC01092050338
:1024400080E6E82E82E1F82E05E013E021E041E08D
:102450006BE028C089E080932E022091060322952C
:102460002F708091050330E1839FC0011124822BDE
:1024700020912F023091300282179307D9F0909368
:10248000300280932F0281E016C083E08093050321
:1024900081E180930603E12CF12C05E013E020E0BC
:1024A00042E06AE080E40E947E0980912E028F5F04
:1024B00080932E0280E01F910F91FF90EF9008957E
:1024C000EF92FF920F931F938091050380FF04C04A
:1024D00080912E02815010C081E080930503E12C91
:1024E000F12C05E013E022E041E06BE080E40E9483
:1024F0007E0980912E028F5F80932E021F910F9193
:10250000FF90EF900895AF92BF92CF92DF92EF923B
:10251000FF920F931F93CF93DF931F92CDB7DEB738
:1025200081E189838E010F5F1F4F21E041E063E06D
:1025300080E40E94E5088F3F09F037C0898180352B
:10254000A1F510922E0210923202109231021092D6
:10255000300210922F020E94211A8C01009729F15B
:1025600096E8C92E91E1D92EF801D782C6822BE9CF
:10257000E22E21E1F22EF186E08680ED91E1938753
:10258000828734E5A32EA08247E5B42EB18281E094
:1025900090E4938382830E94211AFC01009739F40E
:1025A0008FEF9FEFF8019583848380E00FC0D7827F
:1025B000C682F186E0868DEA91E193878287A082C8
:1025C000B18280E090E49383828382E00F90DF9178
:1025D000CF911F910F91FF90EF90DF90CF90BF9020
:1025E000AF9008951F92CDB7DEB7F894A89588E113
:1025F0000FB6F89480936000109260000FBE80E8E0
:1026000080BF8BEA809364000E94F4130E94221C16
:102610000E942A160E947D1E1092330282E080934F
:10262000B0001092B20099E79093B30087BB8093FB
:1026300070008FE08093B10083B7817F83BF78946F
:102640000FEF1FEF88E1D82E94E0C92E26E0B22EBE
:1026500037E1A32E0E94F61E7C01009739F00E94FC
:102660009417811103C0C7010E941D140E942D15EB
:10267000882341F00E94031F882321F00E94361511
:102680000E94171F8091330280FF7BC0809133022C
:102690008E7F809333020E944C1F0E940C19898305
:1026A000823031F50F3F8FEF180741F480E00E9430
:1026B000C81C8C010F3F9FEF190721F10E94FD13E9
:1026C0007C010097F9F0A9829C01AE014F5F5F4F3A
:1026D00060E8C8010E94341B9701498160E2C8018B
:1026E0000E945615C7010E941D140FEF1FEF0AC06C
:1026F000863041F40F3F8FEF180721F480E00E94ED
:10270000C81C8C0181E00F3F9FEF190709F480E09E
:102710000E942C168983823011F581E00E94C81C2A
:10272000C09233028AE00E94DC1EA89584B7877F9E
:1027300084BF80916000886180936000B0926000E7
:102740008091600080688093600080916000806468
:102750008093600083B7817F866083BF12C083301F
:1027600081F483B7817F83BF8BE00E94DC1EA89534
:102770000FB6F894D0926000109260000FBE1092D5
:10278000330283B7816083BF889583B78E7F83BF11
:1027900061CF1F920F920FB60F9211248F938091E9
:1027A000330282FD05C08091330281608093330241
:1027B0008F910F900FBE0F901F9018951F920F9240
:1027C0000FB60F9211248F93A8958091330282FF48
:1027D00005C0809133028160809333028F910F9006
:1027E0000FBE0F901F901895E7E0F3E01192119241
:1027F00083E0EB31F807D1F70895E7E0F3E080E0FC
:1028000090E021913191232B81F443E2489F900184
:10281000499F300D1124255E3C4FFC01EE0FFF1F38
:10282000E95FFC4F3183208306C001968A30910511
:1028300041F720E030E0C901089520E030E063E294
:10284000629FA001639F500D1124455E5C4F841769
:10285000950741F4F901EE0FFF1FE95FFC4F11826C
:10286000108208952F5F3F4F2A30310549F70895B0
:10287000809150029091510201968F3F2FEF920765
:1028800009F002C081E090E09093510280935002E1
:102890002091500230915102322723273227C9015B
:1028A0000895E0913D022E2F2F5F243008F0245030
:1028B00030913C02231304C00E941D148FEF089531
:1028C000F0E0EE0FFF1FE25CFD4F918380832093C9
:1028D0003D0280E0089510923D0210923C02109259
:1028E0004702109246020E94F413109235028FE3C1
:1028F00080933602109238021092370283E0809360
:10290000390210925102109250028FEF80935402BC
:102910000C94AD1B0E94FD13009751F020913402DE
:10292000FC01208322E0218326E122830C945114B0
:1029300008950F931F93CF93DF931F92CDB7DEB708
:102940008C01FC0182818C3031F4F8018381807626
:10295000803231F407C08231C1F38A30E9F502C018
:102960008034D1F580914702282F2F5F243008F062
:102970002450809146022817B9F129830E94FD1343
:10298000AC012981009781F183E2F801DA0101901D
:102990000D928A95E1F7F80182818C3009F402C02A
:1029A000823121F4FA01838180688383E0914702B8
:1029B00080914602E81307C0109238021092370245
:1029C0008FE080933602F0E0EE0FFF1FE85BFD4FD3
:1029D0005183408320934702C8010F90DF91CF912C
:1029E0001F910F910C945114C8010E941D148FEF78
:1029F0000F90DF91CF911F910F9108952091460282
:102A000080914702821741F1E22FF0E0EE0FFF1FA5
:102A1000E85BFD4F808191812F5F209346020E94E9
:102A20001D1480914602843018F084508093460231
:102A3000909147028091460298130BC01092470272
:102A40001092460210923802109237028FE3809360
:102A5000360283E080933902089581E020913C02A0
:102A600090913D02291301C080E00895E0913C025D
:102A700080913D02E81789F08E2F8F5F843008F433
:102A800002C08E2F835080933C02F0E0EE0FFF1FB8
:102A9000E25CFD4F2081318102C020E030E0C901BD
:102AA000089590933B0280933A020895CF92DF926B
:102AB000EF92FF920F931F93CF93DF9300D0CDB788
:102AC000DEB78C017901842F885F8432D0F54A8388
:102AD00069830E94FD136C014A816981009789F125
:102AE00080913402D6018C93842F895F11968C9348
:102AF00011978CE012968C93129713966C93139700
:102B000010270127102715961C930E9314974A83BC
:102B10000E943814F6019783868338964A8150E0E4
:102B2000B701CF010E942F20C6010F900F90DF91B7
:102B3000CF911F910F91FF90EF90DF90CF900C9469
:102B400099148FEF0F900F90DF91CF911F910F91FC
:102B5000FF90EF90DF90CF900895EF92FF920F9348
:102B60001F93CF93DF93E82E162FF42E052F862F79
:102B70008A5F843228F50E94FD13EC01009701F171
:102B8000809134028883812F8B5F898382E18A83DD
:102B9000EB820E9438149D838C839E012A5F3F4FF5
:102BA000412F50E06F2D702FC9010E942F20CE01C0
:102BB000DF91CF911F910F91FF90EF900C9499149A
:102BC0008FEFDF91CF911F910F91FF90EF900895BC
:102BD000DF92EF92FF920F931F93CF93DF938C01BD
:102BE000F62ED42EE52E862F895F843250F50E9472
:102BF000FD13EC01009729F18091340288838F2D19
:102C00008A5F89838AE08A831027012710271C8323
:102C10000B830E9438149E838D839E01295F3F4F52
:102C20004F2D50E06D2D7E2DC9010E942F20CE0129
:102C3000DF91CF911F910F91FF90EF90DF900C9457
:102C400099148FEFDF91CF911F910F91FF90EF902B
:102C5000DF9008950C946B14EF92FF920F931F93E3
:102C6000CF93DF9390913602992321F09150909366
:102C7000360250C190913502933009F4F2C050F4FD
:102C80002091370230913802913009F446C008F0A3
:102C9000ADC00CC0953009F40FC108F401C19630E5
:102CA00009F420C1973009F035C12AC12115310539
:102CB000F1F02150310930933802209337022D3042
:102CC000310509F429C1232B09F024C1809139026F
:102CD000882341F08150809339028FE3809336023C
:102CE00083E01BC1F89428980C94000013C18FE373
:102CF000809336028EE090E0909338028093370202
:102D00000E94FD13009709F405C1FC01108223E025
:102D1000218321E02283138260C08FE380933602F7
:102D20002115310509F068C080913902882309F422
:102D300057C081508093390289E090E09093380227
:102D4000809337020E94FD13EC01009709F4E2C062
:102D50008091340288838091500290915102892B96
:102D600019F484E08B8301C01B8281E08C8381E0B5
:102D70009CE29E838D837E01F7E0EF0EF11C84E1DF
:102D800089838E010F5F1F4F9701A80161E080E0EA
:102D90009FEF0E94341B89818230C8F486E08983CA
:102DA0009701A80161E080EC9FEF0E94341B19811C
:102DB000212F30E0CE01820F931FFC014FE54783A6
:102DC0001F5F198308960E94601F810F8983898184
:102DD0008A5F898384E08A83CE010E9451149AC05D
:102DE00083E0809339021092350294C09FE3909360
:102DF00036022115310539F021503109309338025E
:102E00002093370287C090913902992351F0915055
:102E1000909339022091460290914702291307C0EE
:102E200003C00E946B1476C0811174C066C00E94FA
:102E3000FD13009791F0E0914602F0E0EE0FFF1FC6
:102E4000E85BFD4F0190F081E02D23E2DC01019071
:102E50000D922A95E1F70E9451148FE0809336027B
:102E600059C08FE3809336020E94FD13009781F0D2
:102E700024E0FC01218328E1228320913A02309151
:102E80003B02322723273227348323830E945114A5
:102E900080913902882321F08150809339023AC011
:102EA00085E08093350280913A0290913B029093A5
:102EB00038028093370230C08091370290913802F7
:102EC000009731F00197909338028093370222C027
:102ED0008FE38093360286E08093350283E080930F
:102EE00039021BC08FE38093360280913902882318
:102EF00009F497CF8150809339020E948A140AC046
:102F0000882311F081E004C08FE38093360284E0CF
:102F10008093350280E001C082E0DF91CF911F9164
:102F20000F91FF90EF9008950F931F93CF93DF932E
:102F3000EC018A818B3009F49CC078F4823069F10D
:102F400030F4882351F1813009F05BC118C085301D
:102F500099F18A3009F055C16DC0833109F40FC170
:102F600038F48C3009F4A6C08D3009F04AC1E9C0AC
:102F7000873109F41AC1883109F043C137C1809102
:102F8000350281113EC18FE090E09093380280932A
:102F9000370283E08093390234C180913502811178
:102FA00030C188818093340281E080933502109291
:102FB00038021092370225C180913502813009F024
:102FC00020C18FE3809336028B81811130C082E073
:102FD00080933502109238021092370283E080937A
:102FE0003902109253021092520280915002909135
:102FF0005102892B09F005C10E94F31E8F3F09F48D
:1030000000C186E189838E010D5F1F4FAE014F5FC6
:103010005F4F980161E080EC9FEF0E94341B9801A4
:10302000498161E280EC9FEF0E945615EAC00E9440
:103030006B1485C080913502823008F4E2C08D8126
:103040009E81982789279827209152023091530218
:103050008217930749F09093530280935202CE0156
:103060000E943E1A8093540287E089838BE08A8312
:1030700060C080913502823009F0C3C0E091460201
:10308000F0E0EE0FFF1FE85BFD4F0190F081E02DB7
:1030900082818A3009F0B5C08F81811106C08B8191
:1030A0009C8198278927982702C080E090E00E94A1
:1030B0001F1B62C080913502823019F0863009F002
:1030C000A0C08FE38093360283E0809339028E8123
:1030D0009F81982789279827209152023091530287
:1030E0008217930709F48FC0909353028093520282
:1030F0009E01285F3F4F498147506B8160688C81FA
:103100009D819827892798270E94E01B809354026D
:103110008B818076803209F074C087E089838DE0EE
:103120008A838C819D819C838B838E819F819E83EA
:103130008D83809154028F83CE010E94511481E0CF
:1031400066C080913502823009F05BC0E091460292
:10315000F0E0EE0FFF1FE85BFD4F0190F081E02DE6
:1031600082818C3009F04DC0268137818D819E810E
:103170002817390709F045C00E94FE1442C080910B
:1031800035028230F1F5E0914602F0E0EE0FFF1FCC
:10319000E85BFD4F0190F081E02D8281823189F55D
:1031A000248135818E819F81E3CF809135028630E5
:1031B00011F487E015C0823021F590913C02809196
:1031C0003D0298131EC08CE291E0909338028093E8
:1031D000370280913A0290913B02892B19F083E0EB
:1031E0008093350283E08093390208C080913502D4
:1031F000833009F01CCF84E0809335028FE3809305
:10320000360280E004C08B8187FFFBCF81CFDF9146
:10321000CF911F910F9108958091350208950F93DA
:103220001F93CF93DF9300D01F92CDB7DEB78C01F1
:10323000FA01808191814A835B8369830E945115E1
:103240004A815B816981C8010F900F900F90DF91D7
:10325000CF911F910F910C945701DC012C912F34C9
:10326000C1F028F4213441F0293441F412C0203552
:1032700091F0233519F40DC082E00895DC01119618
:10328000EC91E254E63328F4F0E0E65FFE4F8081F3
:10329000089580E0089581E00895FF920F931F93B1
:1032A000CF93DF938C0161111EC0E9E5F2E040E0AD
:1032B00050E012C08017910749F48CE0849F900180
:1032C000859F300D11242B5A3D4F31C04F5F5F4F0A
:1032D0003C964C30510549F1808191818F3F2FEF11
:1032E000920741F722C0613001F5C0E0D0E08CE0E8
:1032F000F82EFC9EB001FD9E700D11246E577F4F7D
:103300004CE050E087EE92E00E9419208091EB02A1
:103310009091EC028017910729F02196C630D105D3
:1033200041F703C027EE32E002C020E030E0C901DF
:10333000DF91CF911F910F91FF900895BF92CF928F
:10334000DF92EF92FF920F931F93CF93DF9300D002
:1033500000D0CDB7DEB7B82E00E010E0C82ED12CDB
:103360008CE0B89E7001112485E592E0E80EF91E0C
:10337000BE016F5F7F4FC8010E94A30044E050E090
:10338000B701CE0101960E942220009771F48FEFC1
:1033900089838A838FEF9FEF9C838B83BE016F5F4E
:1033A0007F4FC8010E94AA0006C00C5F1F4F90E02B
:1033B00000331907E9F62CE02C9DC0012D9D900DDE
:1033C00011248B5A9D4F0E94D4016CE00DC0629F66
:1033D000D001639FB00D1124AB5ABD4F862F0190D1
:1033E0000D928A95E1F7B3948AE08B1558F49CE02E
:1033F000B99EF0011124EB5AFD4F8FEF9FEF95839B
:10340000848311C02B2D30E0C9010196689FF00123
:10341000699FF00D1124EB5AFD4F448155814F3FB8
:103420005F4FA9F6E4CF0F900F900F900F90DF91B0
:10343000CF911F910F91FF90EF90DF90CF90BF90B1
:103440000895E9E5F2E020E030E080819181019685
:1034500059F48CE0829FF001839FF00D1124EB5A08
:10346000FD4F1582148208C02F5F3F4F3C962C30D1
:10347000310559F7E0E0F0E0CF0108956F927F92B7
:103480008F929F92AF92BF92CF92DF92EF92FF9274
:103490000F931F93CF93DF93CDB7DEB728970FB667
:1034A000F894DEBF0FBECDBF8C01FC0187818D83F8
:1034B00080858E83918120E030E03996402F4095C1
:1034C0005AE01CC08191682F60536A3068F03887D9
:1034D0002F834E01F5E08F0E911CC4010E94BE01A6
:1034E000B82E882381F095C0B901569F9001579F4F
:1034F000300D112420533109280F311D842F8E0FD8
:10350000891700F3E4CFF801E380F480FE24EF2470
:10351000FE2429E5C22E22E0D22E00E010E03CE09D
:10352000A32E782C692C20C0A09EB001A19E700D06
:1035300011246B5A7D4F44E050E0872D962D0E9458
:103540002220009709F463C08E149F0421F4E11433
:10355000F10409F055C00F5F1F4FFCE0CF0ED11CE6
:103560000C30110509F44CC0F60180809180FFEF0A
:103570008F169F06C9F647C08CE0809F6001819F2F
:10358000D00C112465E572E0C60ED71E4D815E8118
:103590006F817885F6014083518362837383C6010E
:1035A0000E94A80181112CC0F601F582E48200E09E
:1035B00010E0BE016F5F7F4FC8010E94A30044E08E
:1035C00050E0BE016F5F7F4FCE0105960E94222022
:1035D0000097F9F0898181508E3F38F0BE016B5F12
:1035E0007F4FC8010E94AA0014C00C5F1F4FF0E07B
:1035F00000331F07F1F60DC0802F0E949E1909C0ED
:1036000092E0B92E06C0E114F104D1F3B5CFEF2852
:1036100099F38B2D28960FB6F894DEBF0FBECDBF61
:10362000DF91CF911F910F91FF90EF90DF90CF909E
:10363000BF90AF909F908F907F906F900895E09192
:10364000E502009749F02CE0E29FF0011124EB5ACB
:10365000FD4F958384830895EC3018F48E2F0E94DB
:103660009E191092E5020895AF92BF92DF92EF92F9
:10367000FF920F931F93CF93DF931F92CDB7DEB7C7
:10368000D62E7A01890163700E944D195C01009762
:1036900009F454C0DC011696ED91FC911797309710
:1036A00009F44EC0A801B7010995482FD7FE49C0BB
:1036B000811147C0C50149830E942D19498187FFA7
:1036C0001DC08F7718C09801280F311DF90131975F
:1036D0009081911108C0F9013297908197FF0AC03B
:1036E000F70180832EC09F3FD9F7F901329790816F
:1036F00097FFF6CF8150823030F7F2CF882309F15F
:10370000F801E80FF11DDF0111979C9197FF04C0AC
:1037100010828F5F10C08150813069F09801280FAE
:10372000311DF90131979081911105C0F90132974E
:10373000908197FFF0CFD7018C9303C042E001C086
:1037400043E0842F0F90DF91CF911F910F91FF9055
:10375000EF90DF90BF90AF900895CF93DF9300D0AC
:103760001F92CDB7DEB71092E5028FE38093E60299
:10377000E9E5F2E0808191810196A1F40E94131E97
:1037800082E08B839E012F5F3F4FAE014D5F5F4F05
:1037900061E081E09FEF0E94341B89819A810E9441
:1037A000511508C0118210823C9682E0E93EF8076C
:1037B00009F7E4CF0F900F900F90DF91CF9108950C
:1037C000EF92FF920F931F93CF93DF93E62EF42E89
:1037D000890163700E944D19EC01009749F18885B9
:1037E0009985892B39F1E7FE17C0CE010E942D196A
:1037F0008F77F81678F4F801EF0DF11D319790816D
:10380000990F990BF801EF0DF11D9083F394F812C5
:10381000F9CF02C08111F82EE885F985A8016F2D36
:10382000CE01DF91CF911F910F91FF90EF900994FE
:1038300082E001C083E0DF91CF911F910F91FF9053
:10384000EF900895EF92FF920F931F93CF93DF9322
:1038500000D000D0CDB7DEB781E08B839E012C5F16
:103860003F4FAE014D5F5F4F61E080E09FEF0E94F0
:10387000341B1C811F3F09F041C01C829E012C5F3C
:103880003F4F40E061E080E09FEF0E94E01B1C831F
:103890009E012C5F3F4F41E061E080E19FEF0E947D
:1038A000E01B1C829E012C5F3F4F40E061E080E006
:1038B0009FEF0E94E01B84ED9DE29A8389839E0125
:1038C0002F5F3F4F42E061E081E19FEF0E94E01BEC
:1038D0008CE08C839E012C5F3F4F41E061E082E1F0
:1038E0009FEF0E94E01B1A8219829E012F5F3F4FBB
:1038F00042E061E081E09FEF0E94E01B20E03CE0BD
:103900008FEF9FEF329FF0011124EB5AFD4F95830B
:1039100084832F5F2C30B0F32C831092E5028FE369
:103920008093E6020E949E011C82F12C4CE0E42E62
:103930001FC0EF9C800111240B5A1D4F24E0829F71
:10394000C0011124B801805090400E94A300F801EA
:10395000808181508E3F48F4C8010E94A8018111E6
:1039600004C0F80115821482F3948C818F5F8C83DC
:103970008C818C30F0F20E94A6010F900F900F9076
:103980000F90DF91CF911F910F91FF90EF900895CD
:10399000DF92EF92FF920F931F93CF93DF931F92CB
:1039A000CDB7DEB7E82E882309F444C01092E502B3
:1039B00041C00115110541F50E94FD138C010097CE
:1039C00009F462C08091E502F89EC0011124B8019B
:1039D0008B5A9D4F0E94E9018983A801682F80E0DE
:1039E00090E00E94E81581110BC0E091E502FE9E77
:1039F000F0011124EB5AFD4F80E090EF9583848312
:103A0000C8010E941D1440C0011580EF1807E1F1A4
:103A10001A96ED91FC911B97309731F49091E50245
:103A20009F5F9093E50208C06E2DCD010995882314
:103A3000A9F32CC06CE0D62EA091E502AC3080F446
:103A40005CE0F52EDA9ED0011124AB5ABD4F1496DE
:103A50000D911C9115970F3F8FEF180709F0A9CF13
:103A60001092E5028091E602882371F081508093E4
:103A7000E602811109C083E28983AE014F5F5F4F87
:103A800061E080E20E94AD150FEF1FEFC8010F90BB
:103A9000DF91CF911F910F91FF90EF90DF900895EC
:103AA0002A981C99FECF8EBD0DB407FEFDCF2A9A31
:103AB00008952A981C99FECF8EBD0DB407FEFDCF48
:103AC0006EBD0DB407FEFDCF2A9A08951EBC0DB43D
:103AD00007FEFDCF8EB508952A981C99FECF8EBDA6
:103AE0000DB407FEFDCF0E94661D2A9A08951F920D
:103AF0000F920FB60F921124EF92FF920F931F9324
:103B00002F933F934F935F936F937F938F939F93E5
:103B1000AF93BF93CF93DF93EF93FF9385EF0E9413
:103B20006C1D9091F302953061F0973009F450C00C
:103B3000933009F051C08D3009F04EC0289885E0CF
:103B400059C0813009F048C08BEF0E946C1DC82F0E
:103B50008BEF0E946C1DC813FACF2C2F2F7730E00B
:103B600027303105CCF1C7FD37C0C232A8F58CEF44
:103B7000F82EFC0E0E94FD13EC01009769F12A98C3
:103B80001C99FECF8FEF8EBD0DB407FEFDCF0E94B6
:103B9000661D0E94661DEC2E0C2F1D2F05C00E9475
:103BA000661DF80181938F01802F8E198F15B8F350
:103BB0000E94661D0E94661D2A9A87FF05C0D09349
:103BC000F502C093F40208C0CE010E941D1404C087
:103BD000833111F488E00EC0289A86E30E94501DBC
:103BE0008BE30E94501D8AE30E94501D84E30E94D3
:103BF000501D83E08093F302FF91EF91DF91CF910D
:103C0000BF91AF919F918F917F916F915F914F91F4
:103C10003F912F911F910F91FF90EF900F900FBE4A
:103C20000F901F901895CF93DF9300D000D01F9274
:103C3000CDB7DEB782E08B839E012F5F3F4FAE0191
:103C40004D5F5F4F61E081E19FEF0E94341B9E0159
:103C50002C5F3F4FAE014D5F5F4F61E080E19FEF12
:103C60000E94341B9E012B5F3F4FAE014D5F5F4FA3
:103C700061E082E19FEF0E94341B2091F6023091B7
:103C8000F7022115310569F089819A8128173907D2
:103C900041F0692F84E00E94591D698185E00E94EE
:103CA000591D89819A819093F7028093F602809141
:103CB000F802882331F06C81861719F089E00E94A0
:103CC000591D8C818093F8026D8166956695669585
:103CD0006D83809100018F3F29F0861719F08AE0EB
:103CE0000E94591D8D81809300010F900F900F90BD
:103CF0000F900F90DF91CF910895CF93DF931092A3
:103D00006B0087E085B98DE284B980E58CBD81E0E8
:103D10008DBD809368008DE08A95F1F700002A98A8
:103D20008AE18A95F1F700C02A9A8AE68A95F1F726
:103D300000C02A981C99FECF80E38EBD0DB407FE0B
:103D4000FDCF1C99FECF2A9AC0E0D0E0CE01880FAB
:103D5000991FFC01EA52FF4F6491FC01EB52FF4FA7
:103D600084910E94591D2196C931D10579F7C091DE
:103D7000F6026091F70284E00E94591D6C2F85E0E5
:103D80000E94591D6091F80289E00E94591D6091BE
:103D900000018AE00E94591D60E58EE30E94591DD2
:103DA00082E08093F3021092F5021092F402809365
:103DB0006B00DF91CF910895CF93C82F8A3049F4DB
:103DC00086E30E94501D89E30E94501DC093F302B8
:103DD00008C08B3031F486E30E94501D82E080934E
:103DE000F302CF9108958091F80208952091F40292
:103DF0003091F5022115310521F01092F502109253
:103E0000F402C90108958091F302833011F080E03B
:103E1000089588EF0E946C1D84FFF9CF289886E3EF
:103E20000E94501D8BE30E94501D81E00895FC010B
:103E300041819C012F5F3F4F2A981C99FECF5FE77D
:103E40005EBD0DB407FEFDCF542F5E5F5EBD0DB4A9
:103E500007FEFDCFFC0150815EBD0DB407FEFDCF16
:103E60005091F8025EBD0DB407FEFDCF522FF9014F
:103E700005C021912EBD0DB407FEFDCF2E2F251BB1
:103E80002417B8F32A9A0E941D1485E30E94501D3E
:103E900087E08093F30208958091F302823079F4F1
:103EA00086E30E94501D8BE30E94501D8AE30E940E
:103EB000501D84E30E94501D83E08093F302089517
:103EC0006091F8020E94661F82E00895262F2295D5
:103ED0002F702A3010F0295C01C0205DFC01208386
:103EE0006F706A3010F0695C01C0605DFC01618335
:103EF00082E00895FC0181E020E137E240E090E0BB
:103F000004C0621B730B9F5F41E062177307C8F721
:103F1000283E53E0350789F0203157E2350721F07C
:103F20002436310539F403C028EE33E008C02AE016
:103F300030E005C021E030E002C024E630E0442358
:103F400029F0905D91938F5F41E090E02A30310538
:103F5000E0F6605D60830895DB018F939F930E947C
:103F6000FA1FBF91AF91A29F800D911DA39F900D4D
:103F7000B29F900D11240895A1E21A2EAA1BBB1B1B
:103F8000FD010DC0AA1FBB1FEE1FFF1FA217B30725
:103F9000E407F50720F0A21BB30BE40BF50B661F3B
:103FA000771F881F991F1A9469F7609570958095FF
:103FB00090959B01AC01BD01CF010895052E97FBA3
:103FC00016F4009407D057FD0DD00E94BC1F07FCCB
:103FD00009D07EF490958095709561957F4F8F4FB5
:103FE0009F4F089550954095309521953F4F4F4FE5
:103FF0005F4F08950E940D20A59F900DB49F900DD6
:10400000A49F800D911D11240895B7FF0C94FA1FF1
:104010000E94FA1F821B930B0895A29FB001B39FC9
:10402000C001A39F01D0B29F700D811D1124911D6D
:104030000895FB01DC0102C005900D9241505040F3
:10404000D8F70895FB01DC0104C08D91019080191F
:1040500021F441505040C8F7881B990B0895FB018B
:10406000DC0102C001900D9241505040D8F70895F4
:10407000DC01CB01FC01F999FECF06C0F2BDE1BD28
:10408000F89A319600B40D9241505040B8F7089517
:10409000F999FECF92BD81BDF89A992780B5089510
:1040A000DC01CB0103C02D910E945B2041505040A8
:1040B000D0F70895262FF999FECF1FBA92BD81BD82
:1040C00020BD0FB6F894FA9AF99A0FBE019608959A
:0440D000F894FFCF92
:1040D400FF00FFFFFFFFFFFFFF01010004000000DE
:1040E40000000000000000000000000000000002CA
:1040F4000000000000000000000000008400000038
:1041040000000000000000000088000000000082A1
:00000001FF
