:100000000C946E000C948B000C948B000C94BD1B14
:100010000C948B000C948B000C94BF190C945E19FB
:100020000C948B000C948B000C948B000C948B0024
:100030000C948B000C948B000C948B000C948B0014
:100040000C948B000C948B000C94E11C0C940B1DF5
:100050000C948B000C948B000C948B000C948B00F4
:100060000C94131C0C948B00CA00E900F8000801E2
:10007000B70141014C0170019001CB16D2161F1738
:100080007417A9176E160E183018CC17101112130A
:100090001415FEFEFEFFFFFFFFFFFEFE0607000138
:1000A000020304050EFFFF10111213141518191A7C
:1000B0001B1C1D1E1FFFFF250028002B00FFFFFF3C
:1000C000FFFFFFFFFFFFFFFFFFFFFFFFFF01001D1F
:1000D0001ECF006700330019000C000011241FBE62
:1000E000CFEFD8E0DEBFCDBF11E0A0E0B1E0E0E4AB
:1000F000FDE302C005900D92AE39B107D9F726E0B5
:10010000AEE9B1E001C01D92AE3DB207E1F70E9439
:10011000AC110C949E1E0C9400002091A50130910E
:10012000A60198E0B90166277078672F7727482FD6
:10013000407850E0220F331F6417750719F045E02F
:1001400024273058880F915069F73093A6012093E7
:10015000A50108950F931F93CF9380E090E00E9434
:10016000A01B96FF07C081E092E80E94A01B10929E
:10017000B00114C197FFFBC0E091B0018E2F90E059
:10018000FC013297E930F10508F0F1C0EC5CFF4F5B
:100190000C94291E80E090EB0E94A01BC82F8CEFCE
:1001A0008C0F803308F0E3C08FEF9FEF9093A60190
:1001B0008093A5018C2F0E948D0083E08093B00175
:1001C000C250C093A401E091A901F091AA01C38398
:1001D000E5C080E090EB0E94A01B882321F0909165
:1001E000AF018913C4C029980E948D0084E0D4C057
:1001F00080E090EB0E94A01BC82F0E948D00E09130
:10020000A901F091AA01C2831092A30185E0C4C0A4
:1002100080E090EB0E94A01B8C01982FC091A3015D
:100220008091A401C81778F4802F0E948D00E0917E
:10023000A901F091AA0181E08C0F8093A301EC0F3A
:10024000F11D0483ABC0C81308C08091A6019813A8
:100250008EC0CF5FC093A301A1C011278091A501DB
:100260009091A60199270817190709F080C089E124
:1002700092E80E94A01B81E89AEC0E94A01B86E0F5
:100280008BC08AEA98EB0E94A01B1092A30188E021
:100290008093B001299882C0C091A301EC2FF0E0B7
:1002A000E555FE4F1081C23020F0812F0E948D0055
:1002B00006C08FEF9FEF9093A6018093A501CF5FBB
:1002C000C093A301812F90E0986B0E94A01B8091A6
:1002D000A301853009F062C01092A30189E05CC0DF
:1002E000E091A701F091A8018091A30191E0980FFE
:1002F0009093A301E80FF11DC4818C2F90E0986BBF
:100300000E94A01B8C2F0E948D00E091A701F0910C
:10031000A8019091A3018381981340C08AE017C07F
:100320008091A301811103C08091A60116C0813084
:1003300019F48091A50111C0823071F089E192E831
:100340000E94A01B87E690E80E94A01B8BE0809390
:10035000B0011092A30122C08FEF90E0986B0E9431
:10036000A01B8091A3018F5F8093A30117C089E137
:1003700092E80E94A01B81E89AEC0E94A01B87E6ED
:1003800090E80E94A01B89ED92E80E94A01B83E8E0
:100390009AEC0E94A01B82E08093B001CF911F9144
:1003A0000F910895EF92FF920F931F93CF93DF93D6
:1003B00000D000D0CDB7DEB781E091E00E94991265
:1003C000009719F00E944A12F7CF8091A7019091EF
:1003D000A801009731F00E944A121092A8011092D1
:1003E000A70181E08B832FEA31E0AE014D5F5F4FC3
:1003F00061E080E19FEF0E943C0D9E012C5F3F4F2A
:10040000AE014D5F5F4F61E082E19FEF0E943C0DC6
:1004100082E08B839E012F5F3F4FAE014D5F5F4FA8
:1004200061E081E19FEF0E943C0D89819A81909368
:10043000AB018093AC010C8185E0089F8001112401
:10044000005C194F0E948E1B80E090E00E94A01B70
:1004500081E092E80E94A01B80E098EB0E94A01B24
:1004600080E090E00E94A01B0E94B31B8111F8CF96
:100470008FE0E82E81E0F82EF701819191917F01C4
:100480000E94A01BF7E2EF16F1E0FF06A9F7C801F2
:10049000906A0E94A01B8091AC0190E09E6C0E942B
:1004A000A01B81E08093B00189E192E80E94A01B2B
:1004B0000E94B71B0F900F900F900F90DF91CF917C
:1004C0001F910F91FF90EF900895CF93DF93EC0170
:1004D000BC0181E091E00E946A12811105C0CE0149
:1004E000DF91CF910C944A12DF91CF910895CF9371
:1004F000DF938091B001823009F449C028F4882349
:1005000099F08130C1F09FC0863089F18B3009F0BD
:100510009AC08091A7019091A8010E944A1210925E
:10052000A8011092A701A6C01092A2011092A101E9
:100530000E94D201A2C08091A9019091AA01892BA9
:1005400041F486E390E00E94F2119093AA01809317
:10055000A9011092A2011092A10182E08093B00142
:1005600089ED92E80E94A01B83E89AEC69C0109282
:10057000A2011092A1018091A9019091AA0110926B
:10058000AA011092A90121E02093B00178C0109235
:10059000A2011092A10180910601882309F46DC087
:1005A0008091A0018823A1F0C0919E01D0919F016C
:1005B0000E945019C817D90709F45FC00E9450194A
:1005C00090939F0180939E018091A001815011C062
:1005D00080E090E00E94A01B90FF0EC0809100017F
:1005E000882351F08150809300010E943C1987704C
:1005F0008D5F8093A00141C081E091E00E9499123B
:100600009093A8018093A7010097B9F1FC01238181
:100610002E5F2093AD0182818093AE011092A001E4
:1006200085E08093000187E08093B00189E192E842
:100630000E94A01B87EE90E80E94A01B89E392E82D
:100640000E94A01B1AC08091A1019091A201019764
:100650009093A2018093A101892B79F489E192E81A
:100660000E94A01B81E89AEC0E94A01B87E690E8FC
:100670000E94A01B81E08093B00180E090E0DF91B8
:10068000CF9108958FEA91E008958091B0019DEF98
:10069000980F933008F4FFCF8750843008F4FFCFD1
:1006A00081E092E80E94A01B8CE08093B001089545
:1006B00089E192E80E94A01B81E08093B001089537
:1006C000282F277091E0222319F0990F2150FBCF9A
:1006D000869586958695E82FF0E0EB52FE4F6623CF
:1006E00019F08081982B03C0909580819823908386
:1006F0000895EF92FF920F931F93CF93DF937B01A7
:100700008A01FC01C281D38160E08C2F0E946003CA
:1007100082E0F7018083DD27CC0FDD1FC854DE4F58
:1007200098818981F8019083818380E0DF91CF9166
:100730001F910F91FF90EF9008950F931F93CF9308
:10074000DF93FA01018110E0102F00272081022B96
:10075000FC01C281D38160E08C2F0E946003DD2701
:10076000CC0FDD1FC854DE4F1983088380E0DF9172
:10077000CF911F910F910895DC011296EC918E2F6D
:10078000877091E0882319F0990F8150FBCFE6958F
:10079000E695E695F0E0EB52FE4F8081982381E0EC
:1007A00009F480E008958930910510F082E0089501
:1007B000FC01E453FE4F20812F3F41F40E94451A73
:1007C0008E3F31F08F3F91F30C94650781E00895DF
:1007D00080E00895CF93DF931F92CDB7DEB782E01C
:1007E00089832AEC31E0AE014F5F5F4F61E088E022
:1007F0009FEF0E943C0D8091CA019091CB01893EF0
:100800009D4F30F080E590E09093CB018093CA013A
:100810000F90DF91CF910895ACECB1E0E8EBF1E0FF
:100820008FEF8D931192119291E0EA3CF907C9F78D
:100830001092D5011092D6010C94EA03FC0121819B
:10084000293631F0263721F090E0892F8170089504
:10085000FC01828193810E94D30391E08230A9F749
:10086000F3CFEF92FF920F931F93CF93DF93EC019F
:100870000A811B81C8010E94D30381112CC0C801C9
:1008800099272981293621F0263721F02FEF03C03F
:1008900022E001C021E0AC0144535E4F7A01FA012D
:1008A0002083802F0E94451A8E3F11F00E948B07F3
:1008B000F7016081802F0E94551A89E793E09F839A
:1008C0008E838DE993E0998788878CEB93E09B87F3
:1008D0008A8780E001C082E0DF91CF911F910F9164
:1008E000FF90EF900895CF93DF93FC01C281D381F5
:1008F000CE010E94D303813099F4FE01FF27E45317
:10090000FE4F8FEF80836FEF8C2F0E94551A8C2F34
:100910000E94451A8E3F21F0DF91CF910C94AB07D6
:10092000DF91CF910895CF938091B6019091B70157
:10093000009719F58091B501E82FF0E0E453FE4FE0
:1009400060816F3F49F48F5F8093B501893009F072
:1009500080C01092B5017DC00E94641A81E090E0D1
:100960009093B7018093B6011092B1011092B20139
:100970001092B3011092B4016CC02091CA01309161
:10098000CB01A9014B5F5F4F8417950748F50E9483
:10099000721A2091B6013091B7012F5F3F4F30930B
:1009A000B7012093B6012530310508F452C0092E55
:1009B000000CAA0BBB0B4091B1015091B2016091A8
:1009C000B3017091B401840F951FA61FB71F8093C8
:1009D000B1019093B201A093B301B093B40139C0B7
:1009E0002F5F3F4F40E050E06091B1017091B20144
:1009F0008091B3019091B4010E940A1E2093B1012D
:100A00003093B2014093B3015093B401C091B5014A
:100A1000EC2FF0E0EE0FFF1FE854FE4F8081918134
:100A2000092E000CAA0BBB0B82179307A407B5076E
:100A300031F03183208361E08C2F0E94600310929B
:100A4000B7011092B601CF5FC093B501C93009F468
:100A500080CFCF910895982F969596959695925020
:100A6000FB019083877091E0815010F0990FFCCFCB
:100A7000FA0190830895CF93DF9300D0CDB7DEB70E
:100A8000FC01828193810E947F1AAE014F5F5F4F0C
:100A9000BE016E5F7F4F0E942B05EA81F0E0E752B6
:100AA000FE4F90818981982381E009F480E00F90C6
:100AB0000F90DF91CF910895CF92DF92EF92FF9246
:100AC0000F931F93CF93DF9300D0CDB7DEB78C0188
:100AD0006B017A01FC01828193810E947F1AAE0131
:100AE0004F5F5F4FBE016E5F7F4F0E942B05EA8113
:100AF000F0E0DF01A952BE4F9C918981E752FE4F81
:100B0000282F2095308123232083F80121812E3640
:100B100009F4909521E0F6012083892391E009F4FE
:100B200090E0F701908380E00F900F90DF91CF91DC
:100B30001F910F91FF90EF90DF90CF900895EF926B
:100B4000FF920F931F93CF93DF9300D0CDB7DEB703
:100B50008C017A01DC0112968D919C9113970E9471
:100B60007F1AAE014F5F5F4FBE016E5F7F4F0E94E5
:100B70002B05F7013081EA81F0E02981922F9095D1
:100B8000DF01A752BE4F4C9149234C93D8011196D7
:100B90008C918E3609F43095E952FE4F808130FFFA
:100BA00003C0282B208302C09823908380E00F90FD
:100BB0000F90DF91CF911F910F91FF90EF900895CB
:100BC000CF93DF932FED31E0F90110828DED91E0AD
:100BD000FC011082CBEDD1E01882A9EDB1E01C92AE
:100BE00047ED51E0FA011082F9011182FC011182F6
:100BF000198211961C92FA011182DF91CF9108950A
:100C0000FC0121812E3611F0203759F4FC0182813C
:100C100093810E947F1A91E08F3F09F490E0892F21
:100C200001C080E0817008950F931F93CF93DF93ED
:100C300000D0CDB7DEB78C01FC01828193810E9488
:100C40007F1AAE014F5F5F4FBE016E5F7F4F0E9404
:100C50002B058A81282F30E0D901A352BE4F4C9139
:100C60006981942F962309F073C0F901E152FE4F78
:100C70009081962309F06CC0F901E752FE4F208164
:100C8000962F909592239083F80190819F3439F5A7
:100C90002FE935E03187208748E050E00E94891A2B
:100CA0008A81E82FF0E06981E152FE4F9081962B16
:100CB0009083F8019181903749F40E94C41AEA8127
:100CC000F0E0E952FE4F898180952BC00E94B71A4F
:100CD000EA81F0E0E952FE4F9081898135C02CE530
:100CE00035E0F801378326832FE935E03187208707
:100CF0002BE335E033872287462B4C939181903745
:100D000099F440E050E00E94891AEA81F0E089817C
:100D10008095DF01A552BE4F9C9198239C93E95288
:100D2000FE4F9081892311C041E050E00E94891A52
:100D3000EA81F0E08981DF01A552BE4F9C91982B9A
:100D40009C93E952FE4F9081892B808380E001C003
:100D500082E00F900F90DF91CF911F910F91089536
:100D6000CF93DF9300D0CDB7DEB7FC0182819381B2
:100D70000E947F1AAE014F5F5F4FBE016E5F7F4FD3
:100D80000E942B058A81E82FF0E06981962F9095CB
:100D9000DF01A152BE4F2C9129232C93E352FE4F29
:100DA00020819223908340E050E00E94891A0F90A6
:100DB0000F90DF91CF9108954F925F926F927F9243
:100DC0008F929F92AF92BF92CF92DF92EF92FF925B
:100DD0000F931F93CF93DF93C7EDD1E08FEDA82E34
:100DE00081E0B82E9DEDC92E91E0D92E2BEDE22E9B
:100DF00021E0F22E09ED11E0512C46013501F501FB
:100E000040804094F6018081482279F4FFEFAF1AC8
:100E1000BF0A8FEFC81AD80AF40160816095F30108
:100E20008081962E982231F533C0852D0E94AA1A12
:100E3000842148E050E031E0932F9421B1F0F70194
:100E40002081682F6227692329F090959223282F0B
:100E5000232309C06881282F2627922331F0692790
:100E60006883F8012081922B9083330F4150510900
:100E700019F7CCCF6881692119F0852D0E94B71A26
:100E800098819095692D692319F0852D0E94C41AC7
:100E90002196FFEFEF1AFF0A0F5F1F4F81E05816F0
:100EA00019F055245394A9CFDF91CF911F910F9141
:100EB000FF90EF90DF90CF90BF90AF909F908F907A
:100EC0007F906F905F904F900895CF93DF9300D005
:100ED000CDB7DEB7AE014F5F5F4FBE016E5F7F4F94
:100EE0000E942B058A8190E03981FC01E352FE4F7C
:100EF0002081232351F4FC01E152FE4F8081932F86
:100F0000982381E019F480E001C081E00F900F90F8
:100F1000DF91CF910895CF93DF9300D0CDB7DEB7A7
:100F2000AE014F5F5F4FBE016E5F7F4F0E942B058A
:100F3000EA81F0E08981DF01A152BE4F9C91982B9C
:100F40009C93E352FE4F9081892B80830F900F90EA
:100F5000DF91CF910895CF93DF9300D0CDB7DEB767
:100F6000AE014F5F5F4FBE016E5F7F4F0E942B054A
:100F7000EA81F0E089818095DF01A152BE4F9C910A
:100F800098239C93E352FE4F9081892380830F9096
:100F90000F90DF91CF910895FA01618170E0762F73
:100FA00066272081622BFC0121812E3611F4609589
:100FB0007095FC01828193810E946F1B80E00895EF
:100FC000FC0121812E3611F0203741F4FC01828191
:100FD00093810E94D21A91E08F3F09F490E0892F0B
:100FE0000895FF920F931F93CF93DF93EC010A8133
:100FF0001B81C8010E94D21AF82E0E946507811138
:1010000014C08F2D0E948B07C8010E94E01A8981AD
:101010008E3629F46FEF7FEFC8010E946F1B8CECB6
:1010200097E09987888780E001C082E0DF91CF91C7
:101030001F910F91FF900895CF93DF93FC01C28120
:10104000D381CE010E942F1BCE010E94D21ADF91C4
:10105000CF910C94AB07EF92FF921F93CF93DF9346
:101060007B01252FEB011881FC01828193816AE0CD
:1010700070E00E94F61DFB01FF27EE0FFF1FEF51EE
:10108000FE4FA081B18114966C91149715968C91A6
:101090001597742FE42FF22F9E2F971B911790F422
:1010A000861781F091E0980F12962D913C9113973D
:1010B000280F311DE90188818193963308F090E073
:1010C000892FEACF15968C93F701908380E0DF910A
:1010D000CF911F91FF90EF900895FC018281938141
:1010E0006AE070E00E94F61DFB01FF27EE0FFF1F74
:1010F000EF51FE4F0190F081E02D309761F0948127
:101100008581981741F09181892F807194FD05C0E8
:1011100090619183089580E0089581E008958F9211
:101120009F92AF92BF92CF92DF92EF92FF921F9366
:10113000CF93DF93162F6A01FC01828193816AE0CD
:1011400070E00E94F61D7B01EB01DD27CC0FDD1F57
:10115000CF51DE4FE881F981309711F481E024C04E
:10116000112309F186819781892BC1F7862F0E946F
:10117000A61D882399F386E390E00E94F2115C019A
:101180004C01F4E08F0E911C412F50E0B601C401D8
:101190000E946D1EA401612F8E2D0E94B41DE88156
:1011A000F981B782A68280E0DF91CF911F91FF90F5
:1011B000EF90DF90CF90BF90AF909F908F90089569
:1011C00080E00E94471DE091E101F091E20130973B
:1011D00081F086819781009711F00E944A128091D8
:1011E000E1019091E2010E944A121092E2011092F4
:1011F000E1010895FC012181828193816AE070E020
:101200000E94F61D611107C0059728F481E022377E
:1012100021F0243711F080E0089508958F929F9275
:10122000AF92BF92CF92DF92EF92FF920F931F93F4
:10123000CF93DF9300D0CDB7DEB77C01DC011296EF
:101240000D911C911397C8016AE070E00E94F61D91
:101250006B01F701A180AE014E5F5F4FBE016F5F72
:101260007F4F8C2D0E943B1DF4E7AF1219C08A817D
:101270000E946507811119C0C8016AE070E00E94F0
:10128000F61DB82E86011127000F111F98012F514E
:101290003E4F4901D901ED91FC91309741F426C0B0
:1012A00089810E946507823039F782E060C09081B1
:1012B0009813FBCF8181B4E7AB1215C080FDF5CF49
:1012C000F801EF51FE4F0190F081E02D81818160A6
:1012D00081838FE898E0F701918780878A810E9457
:1012E0008B0742E03FC081FDE0CF13C088E090E073
:1012F0000E94F211FC01D4018D939C93B082118263
:10130000138212821482158217821682B4E7AB16FA
:10131000B9F2F801EF51FE4F80809180F401828193
:101320009381892B49F486E390E00E94F211D40165
:1013300013969C938E931297F801EF51FE4F0190F4
:10134000F081E02D8181826081838BE298E0F7015A
:10135000978386838DE698E09387828789810E94B0
:101360008B0741E06B2D8C2D0E945C1D80E00F905F
:101370000F90DF91CF911F910F91FF90EF90DF9031
:10138000CF90BF90AF909F908F900895AF92BF92F3
:10139000CF92DF92EF92FF920F931F93CF93DF9341
:1013A00000D0CDB7DEB75C01DC0112968D919C9127
:1013B00013976AE070E00E94F61D7B01AE014E5F5C
:1013C0005F4FBE016F5F7F4F8E2D0E943B1D8701D7
:1013D0001127000F111FF801EF51FE4F6F0101900F
:1013E000F081E02D309779F1D50111968C919181A2
:1013F000843719F49E7F91830DC09D7F91838281F4
:101400009381009739F00E944A12D601ED91FC9128
:10141000138212820F511E4FD801ED91FC918181F0
:10142000837089F48E2D0E94471DF801808191817F
:101430000E944A12D8011D921C928A810E94AB0719
:1014400089810E94AB070F900F90DF91CF911F9180
:101450000F91FF90EF90DF90CF90BF90AF900895E5
:101460000F931F93CF93E091E101F091E201309748
:1014700009F44FC0818180FF17C086819781892B35
:1014800099F080E00E94A61D882371F0E091E101AF
:10149000F091E201868197810E944A12E091E10178
:1014A000F091E20117821682E091E101F091E201F0
:1014B000818181FF2EC080E00E94CF1D882349F1E9
:1014C000E091E101F091E2018481C1E0C80FC633EF
:1014D00008F0C0E09581C917E1F002811381080F7F
:1014E000111D80E00E94DF1DF8018083E091E10181
:1014F000F091E201C48385818C1710F4C81B02C0EF
:10150000C81BCA5C8181CB3110F48F7E01C0806121
:101510008183CF911F910F910895E091E501F091A2
:10152000E6013097E9F09A01DB01458194E0940FE0
:101530009C93492F50E06091E5017091E6016E5F48
:101540007F4FC9010E946D1E8091E5019091E601D7
:101550000E944A121092E6011092E50180E008957F
:1015600081E00895CF93E091E501F091E601309795
:10157000D9F18381982F907E09F044C084FF0BC07D
:10158000C581C1113FC0CF010E944A121092E601ED
:101590001092E50138C0C82FC87082FD0AC083814F
:1015A000846083830E9450199093E4018093E30147
:1015B00016C00E9450192091E3013091E401821B72
:1015C000930B8B3F910558F0C1110E94FD1BE091D8
:1015D000E501F091E60183818062838313C0C1112C
:1015E0000FC00E94061C0FC080910C01882341F09F
:1015F00087E091E00E9499129093E6018093E501C3
:10160000C0E001C0C1E08C2FCF910895EF92FF920E
:101610001F93CF93DF93643090F17A01162F86E306
:1016200090E00E94F211EC01412F50E0B7010296C8
:101630000E946D1E8B8183708B8314501C83112339
:1016400011F081608B839D81911104C08B81837027
:1016500031F009C08B8182608B839632B8F3CE0162
:101660000E944A120CC0BE0187E091E00E946A12FB
:10167000811107C0CE010E944A1281E003C083E0BD
:1016800001C080E0DF91CF911F91FF90EF9008950E
:10169000CF93DF9300D0CDB7DEB7BE016F5F7F4F32
:1016A000CE0102960E94E21B8A810E948B078981EB
:1016B0000E948B0781E00E94E91B811107C08A818B
:1016C0000E94AB0789810E94AB072DC08091E50184
:1016D0009091E601009731F00E944A121092E601C3
:1016E0001092E5010E94190DFC01892B51F48A81A9
:1016F0000E94AB0789810E94AB0780E00E94E91B32
:1017000012C08DE89AE09783868386E09BE09187FC
:10171000808782EB9AE09387828784E5808381E6E5
:101720008183138212820F900F90DF91CF910895E1
:10173000CF92DF92EF92FF920F931F93CF93DF939D
:101740001F92CDB7DEB78B016A01FC01E280F38006
:1017500091819236B1F058F49434C9F018F492346F
:1017600081F035C0973579F0913699F030C09337D4
:1017700081F018F4943659F02AC0973721F09A373F
:1017800031F581E001C082E0F801808316C084E079
:10179000FBCF41E050E0B701CE0101960E94761EDA
:1017A0009981F8018081981708F4892FF8018083C6
:1017B000882371F0FFEFEF1AFF0AF8012081422F12
:1017C00050E0B701C6010E94761E80E001C083E0B0
:1017D0000F90DF91CF911F910F91FF90EF90DF90CD
:1017E000CF900895EF92FF920F931F93CF93DF93C3
:1017F0001F92CDB7DEB78C017A01FA01218130E06A
:10180000322F22278081A901482BCA0169830E94B7
:1018100083186981462F50E0F80162817381C70106
:101820000E94861E80E00F90DF91CF911F910F9153
:10183000FF90EF900895EF92FF920F931F93CF9335
:10184000DF931F92CDB7DEB7FC0169837A01028175
:10185000138191819236B1F058F49434C1F018F4A8
:10186000923481F02BC0973579F0913691F026C0F3
:10187000933779F018F4943651F020C0973721F05F
:101880009A37E1F481E001C082E089830EC084E0F0
:10189000FCCF41E050E0B801CE0101960E94861EC7
:1018A0008981882361F00F5F1F4F2981422F50E00B
:1018B000B801C7010E94861E80E001C083E00F903E
:1018C000DF91CF911F910F91FF90EF9008950E94AB
:1018D0001B0C0E94EA0380E008956370C9F4E9EEEE
:1018E000F1E020E030E0448155814817590749F480
:1018F0004CE0429FC001439F900D112487519E4FA1
:1019000008952F5F3F4F3C962131310561F71AC092
:101910006130C1F4E1E3F1E020E030E04481558141
:101920004817590749F44CE0429FC001439F900D6E
:1019300011248F5C9E4F08952F5F3F4F3C962930B6
:10194000310561F780E090E00895FC0190819F34BB
:1019500001F128F49134F9F0993429F41AC0903542
:10196000D1F09335B1F081818735A9F030F482341C
:10197000A1F0843471F484E00895813741F0873711
:1019800021F0843631F484E8089582E8089588E8E7
:10199000089580E0089582E0089581E00895EF922F
:1019A000FF920F931F93CF93DF9300D000D0CDB75A
:1019B000DEB72CE0829FC0011124FC01E751FE4FED
:1019C0008FEF9FEF958384830CE110E07F0144E06B
:1019D00050E0B801CE0101960E94761E44E050E02E
:1019E000B701CE0101960E94601E892B79F48FEF1A
:1019F00089838A838FEF9FEF9C838B8344E050E041
:101A0000B801CE0101960E94861E05C00C5F1F4FD3
:101A100000361105E1F6C7010E948F110F900F905B
:101A20000F900F90DF91CF911F910F91FF90EF904A
:101A30000895E9EEF1E080E090E0248135812F3FC8
:101A40003F4F91F42CE0289FF001299FF00D1124C5
:101A5000E751FE4F17821682118610861386128672
:101A600015821482CF01089501963C96813191052B
:101A700021F780E090E008950F931F93CF93DF93B9
:101A8000EA0189010E946D0C009719F4188282E026
:101A900012C0DC011696ED91FC911797309719F45E
:101AA000188283E008C0A801BE010995882311F0BF
:101AB000188201C080E0DF91CF911F910F910895AE
:101AC0000F931F93CF93DF939A01FC01828193813F
:101AD000009749F4FB01C081CA3010F4D0E012C075
:101AE000CAE0D0E00FC0019719F480E19FEF02C077
:101AF0008FEF9FEFAB0161E0DF91CF911F910F91CD
:101B00000C943C0DC9018B01AE0167E271E00E94AB
:101B10006D1EF801C08380E0DF91CF911F910F917E
:101B200008950F931F93CF93C42F89010E946D0CCA
:101B3000009769F0DC011896ED91FC9119973097A8
:101B400041F0A8016C2FCF911F910F91099482E071
:101B500001C083E0CF911F910F910895CF92DF9242
:101B6000FF920F931F93CF93DF9300D000D000D04C
:101B7000CDB7DEB781E08E831D829E012B5F3F4F84
:101B8000AE014A5F5F4F61E080E09FEF0E943C0D35
:101B90001D811F3F09F04EC01C839E012C5F3F4FEB
:101BA00041E061E080E19FEF0E94910D1B839E0167
:101BB0002D5F3F4F41E061E084E19FEF0E94910D76
:101BC00084ED9DE29A8389839E012F5F3F4F42E01F
:101BD00061E081E19FEF0E94910D8CE08D839E0179
:101BE0002B5F3F4F41E061E082E19FEF0E94910D4A
:101BF00080E590E09A8389839E012F5F3F4F42E00A
:101C000061E088E09FEF0E94910D1A8219829E0187
:101C10002F5F3F4F42E061E081E09FEF0E94910D16
:101C20001D829E012B5F3F4F40E061E080E09FEF0F
:101C30000E94910D20E030E080E090E04FEF5FEFF8
:101C4000F901E751FE4F558344830196245F3F4FCE
:101C500081319105A9F79A8389831092E801109246
:101C6000E7010E9451111A82198280E090E02CE075
:101C7000F22E69817A816131710508F043C0F89EC6
:101C8000A001F99E500D112420E030E0F901E40F8D
:101C9000F51FE751FE4F0480F581E02D319639F0B4
:101CA0000196245F3F4F8131910581F72BC08C0154
:101CB000F09EC001F19E900D1124FC01E751FE4FF2
:101CC0006F01660F771F660F771F645E7F4F44E0DA
:101CD00050E0CF010E94761EF601908191509E3F08
:101CE00050F4C6010E947111811105C00F5F1F4F92
:101CF000F6011582148289819A8101969A838983DB
:101D0000C801B7CF26960FB6F894DEBF0FBECDBF81
:101D1000DF91CF911F910F91FF90DF90CF900895A9
:101D2000CF92DF92EF92FF920F931F93CF93DF93A7
:101D30002CE0829FC0011124FC01E751FE4F8081FD
:101D4000DB018C93EB012296818111968C93228189
:101D5000338184E0E82EF12C13E000E0E0E1F7E2CB
:101D60009AE0C92ED12C2E173F0738F0C901BF01C8
:101D70000E94F61D462F9C0101C040E0CF01B60134
:101D80000E94F61DFB01411102C0002329F0405DB5
:101D900048831F5F219601E0B1E0EB1AF10819F7C3
:101DA000205D2883812FDF91CF911F910F91FF90AC
:101DB000EF90DF90CF9008958F3F2FEF920779F04B
:101DC0002091E7013091E8014CE0429FF001439FF0
:101DD000F00D1124E751FE4F9583848306C0809156
:101DE000E701813110F40E94CF0C8091E7019091BE
:101DF000E80101969093E8018093E70108958F929E
:101E00009F92AF92BF92CF92DF92EF92FF920F9389
:101E10001F93CF93DF93CDB7DEB728970FB6F89413
:101E2000DEBF0FBECDBF7C01FC0186818D83878123
:101E30008E83508180E090E038966E2D61957AE037
:101E4000262F2E0F251728F4419120ED240F2A303C
:101E500058F098878F83CE0105960E945911811101
:101E60000DC043E0F42EA3C0789F9001799F300D00
:101E70001124C901C097840F911DE2CFF70102819F
:101E800010E0102F00278381082B29EEC22E21E0BD
:101E9000D22EE12CF12CAA24AA94BA2CF60184802B
:101EA0009580FFEF8F169F0631F42FEFA216B20632
:101EB00089F457010FC044E050E0B601CE01059609
:101EC0000E94601E892BA9F08016910619F482E009
:101ED000F82E6DC03FEFE31AF30A8CE0C80ED11C58
:101EE000E1E1EE16F104D1F67501AB20A09409F4FE
:101EF0005AC02CE02E9DC0012F9D900D11249C01F5
:101F000027513E4F6901F901848195810196E1F5E0
:101F10000F3F2FEF1207D9F28D819E81AF81B885D7
:101F2000F60180839183A283B383C6010E9471115D
:101F3000F82E8111CCCFF601158304830CE110E05B
:101F400044E050E0B801CE0101960E94761E44E0C4
:101F500050E0BE016F5F7F4FCE0105960E94601E6C
:101F6000892B29F1898181508E3F40F044E050E077
:101F7000B801CE0105960E94861E19C00C5F1F4F46
:101F800000361105E9F613C00F3FFFEF1F0739F4C4
:101F900020E12E1558F08E2D0E94CF0C07C0F901BC
:101FA0001583048303C0FF24F39401C0F12C8F2D0B
:101FB00028960FB6F894DEBF0FBECDBFDF91CF914C
:101FC0001F910F91FF90EF90DF90CF90BF90AF9057
:101FD0009F908F900895EF92FF920F931F93CF934E
:101FE000DF93EA0189010E946D0C7C01009719F4CE
:101FF000188282E04DC0DC011696ED91FC91179796
:10200000309719F4188283E043C0A801BE010995F6
:1020100081113BC0C7010E94A50C87FF18C08F77B4
:10202000823088F1F801E80FF11DDF0111979C91D2
:10203000911105C03297908197FF07C024C09F3F40
:1020400011F53297908197FF1EC08150E9CF882308
:10205000F1F0F801E80FF11DDF0111979C9197FF56
:1020600010C010828F5F0FC09801280F311DF90139
:1020700031979081911107C03197908197FD03C0EE
:102080008150813089F7888302C0188201C080E0C6
:10209000DF91CF911F910F91FF90EF900895EF92F4
:1020A000FF920F931F93CF93C42F79010E946D0C61
:1020B0008C01009759F1DC0118968D919C9119972C
:1020C000892B31F1C8010E94A50C8F77C81770F4D5
:1020D000F701EC0FF11D31979081990F990BF701E2
:1020E000EC0FF11D9083CF5FC813F9CF8111C82F7A
:1020F000D8011896ED91FC911997A7016C2FC80192
:10210000CF911F910F91FF90EF90099482E001C051
:1021100083E0CF911F910F91FF90EF9008951F934F
:10212000CF93DF930E94A6110E948818853029F072
:1021300099EF980F923008F047C08091E701909195
:10214000E801419720F01092E8011092E7011CE0AD
:102150000E948B18882309F4A0C06091E701709158
:10216000E8016131710508F098C0169FD001179FF2
:10217000B00D1124A751BE4F1496CD91DC91159747
:10218000209721F440E050E08AE012C0CF3F2FEFCB
:10219000D20781F01A96ED91FC911B97309751F080
:1021A00060E0CD010995882329F0AE0160E28CE062
:1021B0000E9492188091E7019091E8010196909316
:1021C000E8018093E701C4CF843009F062C08091B8
:1021D000E7019091E8018131910508F5CCE0C89FB5
:1021E000F001C99FF00D1124E751FE4F2481358184
:1021F0002F3F3F4FC1F10E948B18882309F44DC037
:102200006091E7017091E801C69FF001C79FF00D52
:102210001124E751FE4F448155818AE035C08F3F3C
:102220002FEF920749F1803C9F4F30F480EC9FEFF5
:102230009093E8018093E7010E948B18882369F14D
:10224000C091E701D091E80161E0CE010E946D0CE0
:10225000892B79F0AE0161E38CE00E9492188091A5
:10226000E7019091E80101969093E8018093E701DE
:1022700014C08FEF9FEFF8CF0E948B18882369F06E
:1022800040E050E060E282E1DF91CF911F910C9439
:1022900092181092E8011092E701DF91CF911F91FF
:1022A00008950E94E0050E940C040E94480B0C94C3
:1022B000E008FC0120812F3461F028F4213469F01A
:1022C000293439F00CC0203531F0233541F40C9419
:1022D000FA080C9400060C94E0070C941E0480E0AD
:1022E0000895FC01178216821186108613861286C5
:1022F00020812F3461F028F4213469F0293439F039
:102300000CC0203531F0233541F40C940E090C94A7
:1023100014060C94F1070C94310483E00895FC0139
:1023200020812F3459F028F4213461F0293431F020
:102330000895203529F0233539F008950C94B0061E
:102340000C941C080C9473040C94C6090E94DC06BF
:102350000E9493040C94300A0E941B190E94D7110A
:102360000E94AE0D0E94D2010E94D315219A299A93
:102370001092B5020E942C198091B502882351F069
:102380008091B50281508093B5020E948F100E9407
:102390003316299A0E947702009771F30E94411325
:1023A000EBCF8091B5028F5F8093B5020895EAEB81
:1023B000F2E08FEB92E09183808313821282E6EB4E
:1023C000F2E0118210828FEF93E093838283AEEB71
:1023D000B2E014969C938E9313971296FC93EE930F
:1023E00011970895CF93DF930FB6F8940F92EC01F5
:1023F0002496CF3F83E0D80710F00E94391AE0916D
:10240000BA02F091BB02AAEBB2E0228133812C1711
:102410003D0728F082E0E63BF80741F432C08081B6
:1024200091810097B9F3DF01FC01EFCF8D919C9171
:1024300011970496408151814D935C932C1B3D0B69
:102440002930310510F1DF01AC0FBD1F13963C930D
:102450002E931297D383C28312962D913C9113979A
:10246000EAEBF2E0C081D1814A815B8142175307D8
:1024700010F4FE01F7CF1196DC93CE93B183A083C5
:1024800004C00E94391A80E090E00F900FBEDF91E7
:10249000CF910895CF93DF930097C9F0FC01349753
:1024A0000FB6F8940F9282819381AAEBB2E0CD919E
:1024B000DC9111972A813B812817390710F4DE013E
:1024C000F6CFD183C083ED93FC930F900FBEDF91C5
:1024D000CF910895FC01892B51F16115710539F1F6
:1024E0000FB6F8940F92DB011D921C92A081B1816E
:1024F000109731F4718360837383628381E012C02B
:102500008481882349F0258130E090E0281739073D
:102510001CF00F900FBE0BC06D937C937183608392
:1025200085818F5F85830F900FBE81E0089580E0E5
:102530000895FC01892BD1F00FB6F8940F92A28177
:10254000B381109779F08581882311F081508583BC
:102550008D919C91119793838283892B19F4118219
:10256000108215820F900FBECD01089580E090E09B
:102570000895CF93DF93FC01838195E0980F933307
:1025800028F0CF01DF91CF910C944A128C5F8530F7
:1025900050F0DF01A80FB11DED012197288114969D
:1025A0002C938150F4CF938385E084838EEF8583D1
:1025B000168281E08783828180878091BE06828334
:1025C000CF01DF91CF910C9465020F931F93CF93AE
:1025D000DF93EB018C01061B170B0E943C199C0139
:1025E000D8010E942F1E8C0F9D1FDF91CF911F914C
:1025F0000F9108950F931F93CF93DF931F92CDB741
:10260000DEB78C0187E189839801AE014F5F5F4F90
:1026100061E080E09FEF0E943C0D8981823058F597
:1026200086E089839801AE014F5F5F4F61E080ECE7
:102630009FEF0E943C0D9981090F111D8FE5F80154
:1026400080839F5F99830E944203FC019081392F10
:1026500032953F703A3010F0395C01C0305DF801BE
:1026600031839F709A3010F0995C01C0905DF80141
:10267000928389818E5F0F90DF91CF911F910F918F
:102680000895DF92EF92FF920F931F93CF93DF9302
:10269000EC0191E02A818091BE06281390E08D81A3
:1026A0008D3009F48CC1D8F4843009F4AAC040F408
:1026B000813009F449C080F1823009F484C05FC2DE
:1026C0008A3009F4CDC020F4853009F4ABC057C27C
:1026D0008B3009F4EAC08C3009F418C150C287313C
:1026E00009F4C3C150F4833109F49CC1863109F463
:1026F0008AC0823109F043C286C0833409F4E6C13E
:1027000020F4883109F4C5C13AC2843409F4E4C123
:102710008E3F09F419C233C28091C106823051F450
:102720008A818093BE068E818093BF0681E080936C
:10273000C00653C0853009F022C2911120C2109208
:10274000C8061092C7061BC28091C106823009F5E7
:102750002091C60630E043E050E0421B530BE4EF0B
:10276000F1E04E9FB0014F9F700D5E9F700D1124E0
:102770006C597F4F84E090E0821B930B9C012E9F4D
:10278000C0012F9F900D3E9F900D11240E94E512D5
:1027900044C1853009F0F3C12E81422F50E0809171
:1027A000C00690E001964817590711F02111E7C1C2
:1027B00064E670E084EF91E00E94E5129093C80611
:1027C0008093C706DCC18091C1068230B1F48A8152
:1027D0008093BE068E818093BF0613E01093C106DE
:1027E00064E670E088EC90E00E94E5129093C506E4
:1027F0008093C4061093C606C2C1853009F0BFC1DC
:102800009ECF9111BCC18091C106853009F0B7C13E
:10281000CE01DF91CF911F910F91FF90EF90DF904C
:102820000C94B912992309F4AAC18E818111A7C110
:102830008091C106833021F484E08093C10663C097
:10284000883009F09CC185E08093C10681E090E06A
:102850009093C5068093C40683E08093C6068FC11B
:102860008091C106853009F08AC1992389F280914F
:10287000CB06863179F48091C9069091CA06892BDE
:1028800019F088EC90E002C080E395E79093C506CC
:102890008093C406CE0104960E94FF0E8A8787E0CB
:1028A0008B838C838BE08D8380C0992309F4ABCF1D
:1028B0008091C1068450823008F061C18091CB06BE
:1028C0008A3009F05CC18091CC069091CD06FC0164
:1028D00030852885321353C13185298532134FC184
:1028E0000E944A1286E18093CB068A85811107C037
:1028F0008E8190E0982F88272F81822B02C080E064
:1029000090E00E94DC0E88EC90E0A2CF992309F4BD
:102910007ACF8091C106853019F0883009F02FC137
:10292000DE80EF80F12CFE2CEE248885E82A0985D4
:1029300010E0102F00278A85082BD7FE07C0809152
:10294000CE069091CF068017910771F04C814750C9
:102950009E01255F3F4F6D2DC7010E944F108A8752
:102960001093CF060093CE066D2D6076603209F08D
:1029700006C18091CB06863179F48091C906909189
:10298000CA06892B19F088EC90E002C080E395E735
:102990009093C5068093C40687E08B838C838DE07B
:1029A0008D83FE82EF8218870987CE01DF91CF9158
:1029B0001F910F91FF90EF90DF900C946502992387
:1029C00009F421CF8091C1068450823008F0D7C02D
:1029D0008091CB068C3009F0D2C08091CC069091CA
:1029E000CD06FC01318528853213C9C03285298581
:1029F0003213C5C00E944A1286E18093CB0683E061
:102A00008093C6068091C9069091CA06892B19F059
:102A100088EC90E002C080E395E79093C506809330
:102A2000C406ADC0992309F4AAC08091C1068430C0
:102A300009F0A5C08091CB06823109F0A0C0809139
:102A4000CC069091CD06FC0137812985321397C0C1
:102A500030852A85321393C00E944A1286E1809302
:102A6000CB0685E08093C106CACF992309F487C0BD
:102A70008091C106853019F480E395E7E9CE88306E
:102A800009F07DC088EC90E09093C5068093C40661
:102A900016C08091C106833020F481E08093C00687
:102AA000D5CE992309F4B1CE2AE030E03093C506A3
:102AB0002093C40693E09093C606863021F487E005
:102AC0008093C1065CC01092C10659C08091C106B6
:102AD000813009F09ACE3CCE8091C106813009F058
:102AE0004EC08F8190E0982F88272885822B2091D7
:102AF000C2063091C3068217930709F040C00E94B6
:102B00004203FC0180818F3F19F496E081E002C00E
:102B100095E080E02C81291332C0882381F00E9447
:102B20004203FC0190818985981749F19E01275F36
:102B30003F4F41E061E080E19FEF0E94910D1092D4
:102B4000C10681E090E069CF8091C1068530B9F47B
:102B5000992309F45DCE8C819F81913081F4853079
:102B600071F488858A834B8145504B8350E0BE01C8
:102B7000675F7F4FCE0104960E946D1E16CFCE0177
:102B8000DF91CF911F910F91FF90EF90DF900C9408
:102B90004A120E9445038091C9069091CA060E947C
:102BA000EE190C9458031F93CF93DF931F92CDB768
:102BB000DEB711E019832EEB36E0AE014F5F5F4FB9
:102BC00061E084E19FEF0E943C0D0E944203FC0102
:102BD00080818F3F19F41093C10609C08091BE0611
:102BE0008F3F11F482E001C083E08093C106109210
:102BF000BF0681E08093C00688EC90E09093C50604
:102C00008093C40683E08093C6061092C306109298
:102C1000C2068FEF9FEF9093CF068093CE068091F0
:102C2000CB06863141F08091CC069091CD0600977D
:102C300011F00E944A1286E18093CB061092C806DA
:102C40001092C70682E0898329EC36E0AE014F5F1F
:102C50005F4F61E081E09FEF0E943C0D0F90DF919C
:102C6000CF911F910895CF93DF938091C7069091E4
:102C7000C8060097C1F001979093C8068093C706D5
:102C8000892B89F486E390E00E94F211FC01128204
:102C900083E08383848382E085838091BF0686837B
:102CA000CF010E9465028091C4069091C5060097ED
:102CB00069F4E091C1068E2F90E08930910508F00B
:102CC0001FC2FC01E35CFF4F0C94291E01979093F7
:102CD000C5068093C406892B61F312C29091C60683
:102CE0009923F9F091509093C6064091CB064C3051
:102CF000E1F423E030E0A901491B51092AE0249FB7
:102D0000B001259F700D112424E1249FC001259F4F
:102D1000900D11240E94E5129093C5068093C4067D
:102D200056C1DF91CF910C94391A4A30C9F423E08F
:102D300030E0B901691B7109CB01489FB001499F7F
:102D4000700D112424E1FC012E9FC0012F9F900DD6
:102D500011240E94E5129093C5068093C40625C1F4
:102D60008091C9069091CA06892B29F083E080934F
:102D7000C60686E0EBC086E390E00E94F211EC010B
:102D80008091BE068A8382E08B838C8386E18D836B
:102D900080E395E760C10E94D2010E94D3158AE0CA
:102DA00090E075C12091C606222309F480C021500D
:102DB0002093C60630E043E050E0421B530BE4EFA3
:102DC000F1E04E9FB0014F9F700D5E9F700D11247A
:102DD0006C597F4F84E090E0821B930B9C012E9FE7
:102DE000C0012F9F900D3E9F900D11240E94E5126F
:102DF0009093C5068093C40686E390E00E94F2118A
:102E0000EC010E943C199093C3068093C2060E9475
:102E10004203FC0180818F3F11F080E002C081E01D
:102E200089871A8293E49D839091C0069E83909136
:102E3000C2062091C3062F8398878B5F5AC12091C9
:102E4000C6062223A1F121502093C60630E043E0BC
:102E500050E0421B530BE4EFF1E04E9FB0014F9F57
:102E6000700D5E9F700D11246C597F4F84E090E0CF
:102E7000821B930B9C012E9FC0012F9F900D3E9FA4
:102E8000900D11240E94E5129093C5068093C4060C
:102E900086E390E00E94F211EC011A8283E08B83BA
:102EA0008C8381E08D838091C0068E8324C18091C4
:102EB000C006833090F08091C9069091CA06892B94
:102EC00019F00E94C9156CC088EB9BE09093C50671
:102ED0008093C4061092C10613C18F5F8093C00611
:102EE00083E08093C6060CC18091C6068823C9F092
:102EF00081508093C60664E670E084EF91E00E9402
:102F0000E5129093C5068093C40686E390E00E9484
:102F1000F211EC018091BE068A8384E08D838E835A
:102F2000DEC01092C3061092C20681E08093C006F4
:102F300083E08093C60664E670E084EF91E00E942F
:102F4000E5129093C5068093C40682E08093C10683
:102F5000D7C09091C606992319F191509093C60657
:102F600023E030E0A901491B51092AE0249FB00168
:102F7000259F700D112424E1249FC001259F900DF1
:102F800011240E94E5129093C5068093C406809197
:102F9000CB068A3041F409C08091C60681117CC0FD
:102FA00081E090E093CF823181F486E390E00E944B
:102FB000F211EC01E091CC06F091CD0686E3DE0142
:102FC00001900D928A95E1F796C08C3019F5C09169
:102FD000CC06D091CD068E8180768032B9F486E31E
:102FE00090E00E94F211EC01E091CC06F091CD0648
:102FF00086E3DE0101900D928A95E1F7E091CC061F
:10300000F091CD0686818068868375C086E18093C5
:10301000CB0671C086E18093CB0672C08091C60654
:10302000882309F4BDCF81508093C60686E390E0E3
:103030000E94F211EC018091BE068A8384E08B83AA
:103040008C8388E18D838091C9069091CA069E8306
:103050008F8388EC90E09093C5068093C4064BC0A4
:1030600083E08093C60688E08093C1068091CB06FA
:10307000863159F48091C9069091CA06892B29F0AE
:103080000E94C9158CE291E002C081E090E090932B
:10309000C5068093C40634C081508093C60688EC70
:1030A00090E09093C5068093C40686E390E00E946A
:1030B000F211EC018091BE068A838091CB068631A5
:1030C00059F42091C9063091CA06232B29F092E0C9
:1030D0009B839C838D830FC084E08D831E8281E05F
:1030E0008F8388878CE28987CE010A960E94FA1224
:1030F0008A5F8B838C83CE01DF91CF910C94650224
:10310000DF91CF9108959093CA068093C9060895E0
:103110008091C106089581E09091CB06963109F027
:1031200080E00895CF92DF92EF92FF920F931F936A
:10313000CF93DF931F92CDB7DEB7F82EE62ED42EB5
:10314000C52E86E390E00E94F2118C012091C20608
:103150003091C3062F5F3F4F2F3F8FEF380729F085
:103160003093C3062093C20606C081E090E090939E
:10317000C3068093C2062091C2063091C306ECE0DC
:10318000FE1216C0F801E682C782D08631872287F8
:103190008BE289839801255F3F4FAE014F5F5F4F00
:1031A0006E2D8D2D9C2D0E94EB0F8981895F1AC099
:1031B000FAE0FF120DC0F801C682D782308721875E
:1031C000B801665F7F4F8E2D0E94900E8A5F0AC005
:1031D000F2E1FF1223C0F801E6823783208783E201
:1031E000818786E089838091BE06F8018283898188
:1031F00083838483F092CB06F5821093CD060093EF
:10320000CC068091C1068450823058F41092C506D5
:103210001092C40683E08093C60603C0C8010E94D2
:103220004A120F90DF91CF911F910F91FF90EF9075
:10323000DF90CF900895F89484B7877F84BFA895D6
:103240000FB6F894A8958091600088618093600023
:10325000109260000FBE089582E08093B00010923B
:10326000B20099EF9093B30087BB8093700083E026
:103270008093B1007894089520910D0130910E0152
:10328000C9019695879520FF02C024EB9227909361
:103290000E0180930D0180910D0190910E01089512
:1032A0008091D8069091D90608956091D4067091C6
:1032B000D5068091D6069091D70608951F920F9259
:1032C0000FB60F9211242F933F934F935F936F93F9
:1032D0007F938F939F93AF93BF93EF93FF938091CF
:1032E000D8069091D90601969093D9068093D80676
:1032F0008091D2069091D3060196873E23E09207F3
:1033000028F49093D3068093D20617C01092D30668
:103310001092D2068091D4069091D506A091D6063F
:10332000B091D7060196A11DB11D8093D40690934C
:10333000D506A093D606B093D7068091D00690917B
:10334000D1068A30910510F4019604C00E94D11173
:1033500081E090E09093D1068093D006FF91EF91A9
:10336000BF91AF919F918F917F916F915F914F919D
:103370003F912F910F900FBE0F901F9018951F92A5
:103380000F920FB60F9211248F939F93AF93BF9319
:103390008091D4069091D506A091D606B091D7061B
:1033A0000896A11DB11D8093D4069093D506A093D5
:1033B000D606B093D7068091D8069091D906805C46
:1033C000904E9093D9068093D806BF91AF919F916C
:1033D0008F910F900FBE0F901F9018959C0183E066
:1033E000369527958A95E1F780917A0087FF04C08A
:1033F00080917A0086FDFCCF40917A0080917A001E
:103400008F7780937A0084B7877F84BFA895809157
:10341000600088618093600081E380936000809108
:10342000600080648093600093B7917F946093BF45
:1034300083B7816083BF2115310551F083B7816067
:1034400083BF889583B78E7F83BF21503109F3CF27
:103450000FB6F894A8958091600088618093600011
:10346000109260000FBE83B78E7F83BF40937A00B7
:103470000895F8949CE088E10FB6F894A89580939D
:1034800060000FBE90936000FFCF813160F4E82FA1
:10349000F0E0E456FF4FE491E03128F4F0E0E45727
:1034A000FF4F849108958FEF08956F3F61F08091F1
:1034B0007A0087FD08C0809164008E7F809364004D
:1034C00087E880937A000895E82FF0E0E456FF4FF4
:1034D000E49180E4689FB00111246E2B60626093D8
:1034E0007C0008952091780030917900EAE7F0E0BF
:1034F000908190649083C901969587950895803155
:10350000910528F4FC01EB55FF4F849108958FEF4E
:1035100008958E5FE82FF0E0EE0FFF1FEB54FF4F92
:10352000A591B491FD0131974130510531F04830FA
:10353000510541F48081682B0BC08C91862B8C93B4
:10354000609504C060958C9186238C93808168235C
:10355000608308958E5FE82FF0E0EE0FFF1FEB54BD
:10356000FF4F85919491FC013297808108958E5F81
:10357000E82FF0E0EE0FFF1FEB54FF4FA591B49141
:103580008C91682B6C9308958E5FE82FF0E0EE0F1E
:10359000FF1FEB54FF4FA591B49160958C91682368
:1035A0006C9308958D30910548F0FC013D97E23011
:1035B000F10520F4E153FF4F849108958FEF0895B2
:1035C000CF93DF93EC012D97FE01E153FF4FE49180
:1035D0008E2F869586958695E77061E070E001C034
:1035E000660FEA95EAF748E050E082500E94891A97
:1035F000FE01E353FF4FE4919E2F9770E695E69509
:10360000E69519F0E13069F027C084B5807A911110
:1036100002C0806801C08062816084BD84E085BD95
:103620001BC080918000807A911106C08068109242
:1036300089001092880005C0806210928B00109261
:103640008A009FEF9093870090938600826080931A
:10365000800081E180938100DF91CF9108950D97E3
:10366000FC01E353FF4FE4913E2F3770E695E6955A
:10367000E69519F0E13071F0089524B5311102C0DA
:103680002F7701C02F7D24BD24B5207A71F414BC9E
:1036900015BC0BC02091800031111BC0207221117C
:1036A0001AC01092800010928100FC01E153FF4F7C
:1036B000E4918E2F869586958695E77061E070E09F
:1036C00001C0660FEA95EAF740E050E082500C94A2
:1036D000891A2078E4CF226020938000E6CF8054BE
:1036E0009F4FFC018491982F9770869586958695BB
:1036F00019F0813039F00895911102C077BD089515
:1037000078BD0895911105C0709389006093880079
:10371000089570938B0060938A00089510926B0057
:10372000E4E6F0E080818B7F80832A9A84B18C620A
:1037300084B9249885B185B980E58CBD1DBC0895F8
:103740002A989EBD0DB407FEFDCF2EB530E0322F76
:1037500022278EBD0DB407FEFDCF8EB52A9AA90192
:10376000482BCA01089583B180958170089581E046
:1037700080936B008093680008951F920F920FB69C
:103780000F9211242F933F934F935F936F937F93E7
:103790008F939F93AF93BF93EF93FF93189B0E94D8
:1037A000AA00FF91EF91BF91AF919F918F917F916F
:1037B0006F915F914F913F912F910F900FBE0F909E
:1037C0001F90189525E1FC01208384E1FB01808393
:1037D000089590E89093BC00882359F0359B0BC066
:1037E00080E28093B8008FEF8093BB0085E08093E8
:1037F000BC0081E0089580E00895ECEBF0E080816A
:103800008B7E80838081846880830895359B0AC085
:10381000E091E501F091E60183818860838385EA88
:103820008093BC0008951F920F920FB60F9211243F
:103830002F933F938F939F93AF93BF93EF93FF93F8
:103840008091B900887F883209F44BC060F48031E0
:1038500069F118F4883051F18EC0883109F441C003
:103860008032B9F188C08834A1F138F4803309F48A
:103870004CC0803409F469C07EC0803509F456C05C
:10388000883509F078C0E091E501F091E60190916A
:10389000DA0681E0890F8093DA062091BB00DF0110
:1038A000A90FB11D16962C9385835FC01092DA067E
:1038B000E091E501F091E601838180FF03C0828100
:1038C000880F03C08281880F81608093BB0085E8E8
:1038D0004FC0E091E501F091E6011582838180649B
:1038E00045C08091DA06E091E501F091E60194810E
:1038F000891758F4E80FF11D86818093BB008091F1
:10390000DA068F5F8093DA06E2CFE091E501F0916D
:10391000E6018091DA06848383818E7F83838381AD
:1039200081FD02C0158221C085EA22C0E091E50137
:10393000F091E6018091DA0691E0980F9093DA0613
:103940009091BB00E80FF11D9683E091E501F091A5
:10395000E60125818091DA0690E0019630E0821739
:1039600093070CF0B4CF85EC03C080E1838385E935
:103970008093BC0019C08091BC008B7E8093BC00FA
:103980008091BC0084688093BC00E091E501F091D7
:10399000E6018091DA06848381E085838091B90015
:1039A0008683838180688383FF91EF91BF91AF917C
:1039B0009F918F913F912F910F900FBE0F901F906D
:1039C00018951F920F920FB60F9211242F938F9379
:1039D0009F93AF93BF93EF93FF939091C600E091B5
:1039E000DB06F091DC0680A18F5F8F7121A1821729
:1039F00031F020A1DF01A20FB11D9C9380A3FF91A4
:103A0000EF91BF91AF919F918F912F910F900FBE2A
:103A10000F901F9018951F920F920FB60F921124BE
:103A20002F933F938F939F93EF93FF93E091DB0648
:103A3000F091DC0625A184A1821307C014A2809115
:103A4000C1008F7D8093C1000BC082A193A131E0A2
:103A5000320F35A3FC01E20FF11D80818093C60077
:103A6000FF91EF919F918F913F912F910F900FBEFA
:103A70000F901F901895811104C0FB01108281E006
:103A800003C08FEFFB018083FA01808308958111C9
:103A900012C01092C1008BB18C7F8BB9519880916C
:103AA000DB069091DC06009731F00E944A121092DA
:103AB000DC061092DB0608951F93CF93DF938111EC
:103AC0000DC0142F117040FF02C0589A5098D42F87
:103AD000D27041FF04C0599A519A01C0FFCF809122
:103AE000DB069091DC06892BF9F4C62F86E290E084
:103AF0000E94F211FC019093DC068093DB0610A279
:103B000011A214A215A2EC2FF0E0EE0FFF1FEF524E
:103B1000FF4F859194919093C5008093C4001092BB
:103B2000C10086E08093C200112329F08091C1007A
:103B300080698093C100DD2329F08091C1008860F5
:103B40008093C100DF91CF911F910895E82FF0E09D
:103B5000EE0FFF1FE552F94F0190F081E02D81E05B
:103B600094A1911180E00895E82FF0E0EE0FFF1F7F
:103B7000E552F94F0190F081E02D64A391E095A307
:103B800053A342A381110AC0FA0180818093C60029
:103B90008091C10080628093C1000895FFCFE82F1B
:103BA000F0E0EE0FFF1FE552F94F0190F081E02D9C
:103BB00020A181E091A1291301C080E00895E82FA0
:103BC000F0E0EE0FFF1FE552F94F0190F081E02D7C
:103BD00080A191A1891741F0DF01A90FB11D8C913E
:103BE0009F5F9F7191A3089580E00895AA1BBB1B5E
:103BF00051E107C0AA1FBB1FA617B70710F0A61BED
:103C0000B70B881F991F5A95A9F780959095BC010D
:103C1000CD010895052E97FB1EF400940E94211EED
:103C200057FD07D00E943E1E07FC03D04EF40C94B3
:103C3000211E50954095309521953F4F4F4F5F4F36
:103C4000089590958095709561957F4F8F4F9F4F08
:103C50000895EE0FFF1F0590F491E02D0994A29FA7
:103C6000B001B39FC001A39F700D811D1124911D50
:103C7000B29F700D811D1124911D0895A1E21A2E8D
:103C8000AA1BBB1BFD010DC0AA1FBB1FEE1FFF1F00
:103C9000A217B307E407F50720F0A21BB30BE40B50
:103CA000F50B661F771F881F991F1A9469F7609597
:103CB0007095809590959B01AC01BD01CF01089551
:103CC000FB01DC0104C08D910190801921F4415069
:103CD0005040C8F7881B990B0895FB01DC0102C016
:103CE00001900D9241505040D8F70895DC01CB016E
:103CF000FC01F999FECF06C0F2BDE1BDF89A3196FC
:103D000000B40D9241505040B8F70895DC01CB014A
:103D100003C02D910E94911E41505040D0F708954C
:103D2000262FF999FECF1FBA92BD81BD20BD0FB6D7
:103D3000F894FA9AF99A0FBE01960895F894FFCF75
:103D4000050000000004000000000004005EA1E780
:103D500080018208C66A95ACC281CAD7C480981611
:103D6000CC00E000C860C04131526E31312E333199
:103D7000304573020000FF980B1B0C0000455718DC
:103D80000001FF980BF20B000045571A0008FF983E
:103D90000B670C00004542760010FF980B1B0C00CF
:103DA000004542770014FF980B1B0C000045577824
:103DB0000011FF980B1B0C000045427A0012FF987F
:103DC0000B1B0C000046730000C0FF600D000000DC
:0E3DD0000046610100C1FF600D000000000010
:00000001FF
