:100000000C945C000C9479000C9479000C947900A9
:100010000C9479000C9479000C9479000C941016CF
:100020000C9479000C9479000C9479000C9479006C
:100030000C9479000C9479000C9479000C9479005C
:100040000C9479000C9479000C94DA180C9404192F
:100050000C9479000C9479000C9479000C9479003C
:100060000C940C180C947900101112131415FEFE48
:10007000FEFFFFFFFFFFFEFE06070001020304056F
:100080000EFFFF101112131415FFFF1A1B1C1D1E6B
:100090001FFFFF250028002B00FFFFFFFFFFFFFFD2
:1000A000FFFFFFFFFFFFFFFFFF01001D1ECF0067E7
:1000B00000330019000C000011241FBECFEFD8E060
:1000C000DEBFCDBF11E0A0E0B1E0E6E2F5E302C0A3
:1000D00005900D92A23CB107D9F726E0A2ECB1E061
:1000E00001C01D92A13EB207E1F70E94840E0C945C
:1000F000911A0C94000080E00E949F19882321F13E
:100100008091C8019091C901009731F00E942A0F97
:100110001092C9011092C801809105018823A1F0B5
:1001200080E091E00E94790F9093C9018093C8010B
:10013000009751F0AC014D5F5F4FFC0163816F5F31
:1001400080E00E94AD1928980895CF93DF931F9205
:10015000CDB7DEB780E091E00E94790F009719F0EB
:100160000E942A0FF7CF81E089832AEC31E0AE01AB
:100170004F5F5F4F61E080E19FEF0E94340A43E0F0
:1001800064E080E00E9455190F90DF91CF910895AF
:10019000CF93DF93EC01BC0180E091E00E944A0F15
:1001A000811105C0CE01DF91CF910C942A0FDF9110
:1001B000CF910C947B00CF930E947B0080E00E9443
:1001C000C819882309F440C080E00E94D819C82FBC
:1001D0000E9402169093C7018093C6019091C501B9
:1001E00091110FC0C23050F386E390E00E94D20E0E
:1001F0009093C4018093C301C093C5011092C201C2
:10020000DDCF8091C201823358F4E091C301F091B7
:10021000C40121E0280F2093C201E80FF11DC4831F
:100220008091C2018913CACFE091C301F091C4014A
:100230008091CA01828393831092C501289880918E
:10024000C3019091C40112C08091C501882361F05F
:100250000E9402162091C6013091C701821B930BA8
:10026000C39710F01092C50180E090E0CF910895FF
:100270008AEC91E008952A981C99FECF0E94B71647
:1002800080E00E94B7162A9A0895CF93DF931F92B9
:10029000CDB7DEB72A981C99FECF69830E94B716A6
:1002A0006981862F0E94B7162A9A0F90DF91CF910D
:1002B00008952A981C99FECF0E94B7162A9A08958D
:1002C0000F931F93CF93DF9300D000D0CDB7DEB74D
:1002D00087E091E00E94790F009719F00E942A0FA1
:1002E000F7CF81E08B832FEC31E0AE014D5F5F4FA4
:1002F00061E080E19FEF0E94340A9E012C5F3F4F36
:10030000AE014D5F5F4F61E082E19FEF0E94340AD2
:1003100082E08B839E012F5F3F4FAE014D5F5F4FA9
:1003200061E081E19FEF0E94340A0E94BD168DE0DA
:100330008A95F1F700002A988AE18A95F1F700C0C2
:100340002A9A8AE68A95F1F700C02A981C99FECF6E
:1003500080E30E94B7161C99FECF2A9A00E010E0B5
:10036000F801EB5EFE4F618180810E9445010E5FC6
:100370001F4F06331105A1F76091CF0189E00E945C
:1003800045016A8184E00E944501698185E00E94FF
:1003900045016C818AE00E94450160EC8EE30E9479
:1003A00045010F900F900F900F90DF91CF911F910B
:1003B0000F910895CF93DF93EC01BC0187E091E0AA
:1003C0000E944A0F811105C0CE01DF91CF910C949C
:1003D0002A0FDF91CF910895CF92DF92EF92FF9293
:1003E0000F931F93CF93DF9385EF0E943B018130E2
:1003F00009F061C088EF0E943B0187FF54C0289834
:10040000C0E11FEF8BEF0E943B01C150181721F094
:10041000182FC111F7CF4AC0CC2309F447C089EF88
:10042000810F8C3208F042C086E390E00E94D20E29
:10043000EC0115501B832A981C99FECF8FEF0E9468
:10044000B71680E00E94B71680E00E94B71680E0E1
:100450000E94B7168A836E0184E0C80ED11C760113
:100460008E2D8C19811738F480E00E94B716F701A1
:1004700081937F01F5CF80E00E94B7168093CE0173
:1004800080E00E94B7162A9A87FD05C0CE010E941F
:100490002A0FC0E0D0E08AE30E94590184E30E9461
:1004A0005901CE0172C08BE30E9459018AE30E9478
:1004B000590184E366C08D3009F065C080910C015C
:1004C000882309F460C028988091CD018823A1F089
:1004D000C091CB01D091CC010E940216C817D90758
:1004E00009F451C00E9402169093CC018093CB0175
:1004F0008091CD01815010C088EF0E943B0184FDA6
:100500000EC080910601882351F08150809306012E
:100510000E94EE1587708D5F8093CD0134C01092DC
:10052000CD0185E08093060187E091E00E94790F7C
:10053000EC01892B41F1FB802A981C99FECF8FE7B3
:100540000E94B71682E08F0D0E94B7168A810E9422
:10055000B7168091CF010E94B7166E01F4E0CF0E5E
:10056000D11C8601802F8C198F1530F4F8018191F0
:100570008F010E94B716F6CF2A9ACE010E942A0F49
:1005800085E30E94590180E090E0DF91CF911F91B7
:100590000F91FF90EF90DF90CF9008958091CE0162
:1005A00087FF04C081958695865B04C086959AE492
:1005B000981B892F8093CE018091CE01819508955B
:1005C0008FEC91E00895282F277091E0222319F0F5
:1005D000990F2150FBCF869586958695E82FF0E000
:1005E000EC50FE4F662319F08081982B03C0909544
:1005F0008081982390830895EF92FF920F931F9329
:10060000CF93DF937B018A01FC01C281D38160E03B
:100610008C2F0E94E30282E0F7018083DD27CC0F5C
:10062000DD1FC952DE4F98818981F8019083818353
:1006300080E0DF91CF911F910F91FF90EF9008958F
:100640000F931F93CF93DF93FA01018110E0102FD6
:1006500000272081022BFC01C281D38160E08C2F16
:100660000E94E302DD27CC0FDD1FC952DE4F198344
:10067000088380E0DF91CF911F910F910895DC01F5
:100680001296EC918E2F877091E0882319F0990FC4
:100690008150FBCFE695E695E695F0E0EC50FE4FF5
:1006A0008081982381E009F480E0089589309105E4
:1006B00010F082E00895FC01E551FE4F20812F3FAC
:1006C00041F40E947D168E3F31F08F3F91F30C94E0
:1006D000E80681E0089580E00895CF93DF931F92AC
:1006E000CDB7DEB782E0898329EE31E0AE014F5FFE
:1006F0005F4F61E088E09FEF0E94340A8091E9013A
:100700009091EA01893E9D4F30F080E590E0909312
:10071000EA018093E9010F90DF91CF910895ABEE4C
:10072000B1E0E7EDF1E08FEF8D931192119291E03E
:10073000E93EF907C9F71092F4011092F5010C9403
:100740006D03FC012181293631F0263721F090E03C
:10075000892F81700895FC01828193810E94560344
:1007600091E08230A9F7F3CFEF92FF920F931F939E
:10077000CF93DF93EC010A811B81C8010E945603CD
:1007800081112CC0C80199272981293621F02637EB
:1007900021F02FEF03C022E001C021E0AC01455160
:1007A0005E4F7A01FA012083802F0E947D168E3FD2
:1007B00011F00E940E07F7016081802F0E948D16B4
:1007C0008CEF92E09F838E8380E293E09987888705
:1007D0008FE393E09B878A8780E001C082E0DF910E
:1007E000CF911F910F91FF90EF900895CF93DF93DA
:1007F000FC01C281D381CE010E945603813099F45D
:10080000FE01FF27E551FE4F8FEF80836FEF8C2FA6
:100810000E948D168C2F0E947D168E3F21F0DF9155
:10082000CF910C942E07DF91CF910895CF938091B3
:10083000D5019091D601009719F58091D401E82F48
:10084000F0E0E551FE4F60816F3F49F48F5F809388
:10085000D401893009F080C01092D4017DC00E947B
:100860009C1681E090E09093D6018093D501109280
:10087000D0011092D1011092D2011092D3016CC01C
:100880002091E9013091EA01A9014B5F5F4F841784
:10089000950748F50E94AA162091D5013091D601FE
:1008A0002F5F3F4F3093D6012093D501253031057E
:1008B00008F452C0092E000CAA0BBB0B4091D001CA
:1008C0005091D1016091D2017091D301840F951F95
:1008D000A61FB71F8093D0019093D101A093D2019E
:1008E000B093D30139C02F5F3F4F40E050E060919B
:1008F000D0017091D1018091D2019091D3010E94D9
:10090000031A2093D0013093D1014093D201509328
:10091000D301C091D401EC2FF0E0EE0FFF1FE9529C
:10092000FE4F80819181092E000CAA0BBB0B821710
:100930009307A407B50731F03183208361E08C2F42
:100940000E94E3021092D6011092D501CF5FC093AE
:10095000D401C93009F480CFCF910895982F96958E
:10096000969596959250FB019083877091E0815007
:1009700010F0990FFCCFFA0190830895CF93DF9385
:1009800000D0CDB7DEB7FC01828193810E94CC16E6
:10099000AE014F5F5F4FBE016E5F7F4F0E94AE049E
:1009A000EA81F0E0E850FE4F90818981982381E050
:1009B00009F480E00F900F90DF91CF910895CF92CE
:1009C000DF92EF92FF920F931F93CF93DF9300D0AC
:1009D000CDB7DEB78C016B017A01FC018281938176
:1009E0000E94CC16AE014F5F5F4FBE016E5F7F4F1E
:1009F0000E94AE04EA81F0E0DF01AA50BE4F9C9154
:100A00008981E850FE4F282F2095308123232083B1
:100A1000F80121812E3609F4909521E0F60120831A
:100A2000892391E009F490E0F701908380E00F9032
:100A30000F90DF91CF911F910F91FF90EF90DF907A
:100A4000CF900895EF92FF920F931F93CF93DF9370
:100A500000D0CDB7DEB78C017A01DC0112968D9102
:100A60009C9113970E94CC16AE014F5F5F4FBE0161
:100A70006E5F7F4F0E94AE04F7013081EA81F0E0A3
:100A80002981922F9095DF01A850BE4F4C914923A8
:100A90004C93D80111968C918E3609F43095EA501A
:100AA000FE4F808130FF03C0282B208302C0982393
:100AB000908380E00F900F90DF91CF911F910F9165
:100AC000FF90EF900895CF93DF932EEF31E0F9017F
:100AD00010828CEF91E0FC011082CAEFD1E0188205
:100AE000A8EFB1E01C9246EF51E0FA011082F90143
:100AF0001182FC011182198211961C92FA01118255
:100B0000DF91CF910895FC0121812E3611F020371D
:100B100059F4FC01828193810E94CC1691E08F3FB1
:100B200009F490E0892F01C080E0817008950F934F
:100B30001F93CF93DF9300D0CDB7DEB78C01FC01BC
:100B4000828193810E94CC16AE014F5F5F4FBE0140
:100B50006E5F7F4F0E94AE048A81282F30E0D9015A
:100B6000A450BE4F4C916981942F962309F073C015
:100B7000F901E250FE4F9081962309F06CC0F90113
:100B8000E850FE4F2081962F909592239083F80194
:100B900090819F3439F522E235E03187208748E0A3
:100BA00050E00E94D6168A81E82FF0E06981E25079
:100BB000FE4F9081962B9083F8019181903749F4F4
:100BC0000E941117EA81F0E0EA50FE4F898180957A
:100BD0002BC00E940417EA81F0E0EA50FE4F90819A
:100BE000898135C02FED34E0F8013783268322E276
:100BF00035E0318720872EEB34E033872287462B80
:100C00004C939181903799F440E050E00E94D616C1
:100C1000EA81F0E089818095DF01A650BE4F9C916A
:100C200098239C93EA50FE4F9081892311C041E0A4
:100C300050E00E94D616EA81F0E08981DF01A650DB
:100C4000BE4F9C91982B9C93EA50FE4F9081892B2C
:100C5000808380E001C082E00F900F90DF91CF9100
:100C60001F910F910895CF93DF9300D0CDB7DEB7DA
:100C7000FC01828193810E94CC16AE014F5F5F4FD1
:100C8000BE016E5F7F4F0E94AE048A81E82FF0E0C4
:100C90006981962F9095DF01A250BE4F2C91292398
:100CA0002C93E450FE4F20819223908340E050E04B
:100CB0000E94D6160F900F90DF91CF9108954F921A
:100CC0005F926F927F928F929F92AF92BF92CF92DC
:100CD000DF92EF92FF920F931F93CF93DF93C6EFB4
:100CE000D1E08EEFA82E81E0B82E9CEFC92E91E0C6
:100CF000D92E2AEFE22E21E0F22E08EF11E0512C3E
:100D000046013501F50140804094F601808148227A
:100D100079F4FFEFAF1ABF0A8FEFC81AD80AF401AF
:100D200060816095F3018081962E982231F533C061
:100D3000852D0E94F716842148E050E031E0932F82
:100D40009421B1F0F7012081682F6227692329F0EF
:100D500090959223282F232309C06881282F2627C6
:100D6000922331F069276883F8012081922B9083C8
:100D7000330F4150510919F7CCCF6881692119F01F
:100D8000852D0E94041798819095692D692319F08B
:100D9000852D0E9411172196FFEFEF1AFF0A0F5FB2
:100DA0001F4F81E0581619F055245394A9CFDF91B5
:100DB000CF911F910F91FF90EF90DF90CF90BF9058
:100DC000AF909F908F907F906F905F904F9008951D
:100DD000CF93DF9300D0CDB7DEB7AE014F5F5F4F4B
:100DE000BE016E5F7F4F0E94AE048A8190E0398120
:100DF000FC01E450FE4F2081232351F4FC01E2501A
:100E0000FE4F8081932F982381E019F480E001C088
:100E100081E00F900F90DF91CF910895CF93DF93F2
:100E200000D0CDB7DEB7AE014F5F5F4FBE016E5F42
:100E30007F4F0E94AE04EA81F0E08981DF01A25079
:100E4000BE4F9C91982B9C93E450FE4F9081892B30
:100E500080830F900F90DF91CF910895CF93DF9310
:100E600000D0CDB7DEB7AE014F5F5F4FBE016E5F02
:100E70007F4F0E94AE04EA81F0E089818095DF0116
:100E8000A250BE4F9C9198239C93E450FE4F9081BA
:100E9000892380830F900F90DF91CF910895FA01FD
:100EA000618170E0762F66272081622BFC01218111
:100EB0002E3611F460957095FC01828193810E9419
:100EC000BC1780E00895FC0121812E3611F02037F7
:100ED00041F4FC01828193810E941F1791E08F3FB2
:100EE00009F490E0892F0895FF920F931F93CF93F9
:100EF000DF93EC010A811B81C8010E941F17F82EA5
:100F00000E94E806811114C08F2D0E940E07C801AF
:100F10000E942D1789818E3629F46FEF7FEFC8016B
:100F20000E94BC178FE497E09987888780E001C012
:100F300082E0DF91CF911F910F91FF900895CF93A1
:100F4000DF93FC01C281D381CE010E947C17CE01C8
:100F50000E941F17DF91CF910C942E07E09102029F
:100F6000F09103023097E9F09A01DB01458194E0AA
:100F7000940F9C93492F50E06091020270910302FC
:100F80006E5F7F4FC9010E94601A809102029091AA
:100F900003020E942A0F109203021092020280E0C4
:100FA000089581E00895CF93E0910202F091030249
:100FB0003097D9F18381982F907E09F044C084FF47
:100FC0000BC0C581C1113FC0CF010E942A0F1092F2
:100FD00003021092020238C0C82FC87082FD0AC0F6
:100FE0008381846083830E94021690930102809320
:100FF000000216C00E9402162091000230910102E8
:10100000821B930B8B3F910558F0C1110E94F6177C
:10101000E0910202F091030283818062838313C016
:10102000C1110FC00E94FF170FC0809112018823C9
:1010300041F08DE091E00E94790F9093030280933C
:101040000202C0E001C0C1E08C2FCF910895EF9261
:10105000FF921F93CF93DF93643090F17A01162FA4
:1010600086E390E00E94D20EEC01412F50E0B701E0
:1010700002960E94601A8B8183708B8314501C83AC
:10108000112311F081608B839D81911104C08B81AC
:10109000837031F009C08B8182608B839632B8F304
:1010A000CE010E942A0F0CC0BE018DE091E00E948B
:1010B0004A0F811107C0CE010E942A0F81E003C0B0
:1010C00083E001C080E0DF91CF911F91FF90EF900E
:1010D0000895CF93DF9300D0CDB7DEB7BE016F5F29
:1010E0007F4FCE0102960E94DB178A810E940E0775
:1010F00089810E940E0781E00E94E217811107C0DA
:101100008A810E942E0789810E942E072DC080911E
:10111000020290910302009731F00E942A0F109270
:101120000302109202020E94110AFC01892B51F461
:101130008A810E942E0789810E942E0780E00E94EA
:10114000E21712C08EEA97E09783868387E298E0E1
:101150009187808783ED97E09387828784E58083FA
:1011600081E68183138212820F900F90DF91CF91DD
:101170000895CF92DF92EF92FF920F931F93CF9338
:10118000DF931F92CDB7DEB78B016A01FC01E280CD
:10119000F38091819236B1F058F49434C9F018F488
:1011A000923481F035C0973579F0913699F030C09E
:1011B000933781F018F4943659F02AC0973721F00C
:1011C0009A3731F581E001C082E0F801808316C0D2
:1011D00084E0FBCF41E050E0B701CE0101960E94D0
:1011E000691A9981F8018081981708F4892FF8010C
:1011F0008083882371F0FFEFEF1AFF0AF801208146
:10120000422F50E0B701C6010E94691A80E001C078
:1012100083E00F90DF91CF911F910F91FF90EF909E
:10122000DF90CF900895EF92FF920F931F93CF938B
:10123000DF931F92CDB7DEB7FC0169837A0102818B
:10124000138191819236B1F058F49434C1F018F4BE
:10125000923481F02BC0973579F0913691F026C009
:10126000933779F018F4943651F020C0973721F075
:101270009A37E1F481E001C082E089830EC084E006
:10128000FCCF41E050E0B801CE0101960E94791AEE
:101290008981882361F00F5F1F4F2981422F50E021
:1012A000B801C7010E94791A80E001C083E00F9065
:1012B000DF91CF911F910F91FF90EF9008950E94C1
:1012C00013090E946D0380E008956370C9F4E6E09D
:1012D000F2E020E030E0448155814817590749F495
:1012E0004CE0429FC001439F900D11248A5F9D4FA7
:1012F00008952F5F3F4F3C962F30310561F71AC09C
:101300006130C1F4E5E5F1E020E030E04481558151
:101310004817590749F44CE0429FC001439F900D84
:1013200011248B5A9E4F08952F5F3F4F3C962930D2
:10133000310561F780E090E00895FC0190819F34D1
:1013400001F128F49134F9F0993429F41AC0903558
:10135000D1F09335B1F081818735A9F030F4823432
:10136000A1F0843471F484E00895813741F0873727
:1013700021F0843631F484E8089582E8089588E8FD
:10138000089580E0089582E0089581E00895EF9245
:10139000FF920F931F93CF93DF9300D000D0CDB770
:1013A000DEB72CE0829FC0011124FC01EA5FFD4FF3
:1013B0008FEF9FEF958384830CE110E07F0144E081
:1013C00050E0B801CE0101960E94691A44E050E055
:1013D000B701CE0101960E94531A892B79F48FEF41
:1013E00089838A838FEF9FEF9C838B8344E050E057
:1013F000B801CE0101960E94791A05C00C5F1F4FFB
:1014000008351105E1F6C7010E946D0E0F900F908F
:101410000F900F90DF91CF911F910F91FF90EF9060
:101420000895E6E0F2E080E090E0248135812F3FEE
:101430003F4F91F42CE0289FF001299FF00D1124DB
:10144000EA5FFD4F17821682118610861386128678
:1014500015821482CF01089501963C968F30910534
:1014600021F780E090E008950F931F93CF93DF93CF
:10147000EA0189010E946509009719F4188282E047
:1014800012C0DC011696ED91FC911797309719F474
:10149000188283E008C0A801BE010995882311F0D5
:1014A000188201C080E0DF91CF911F910F910895C4
:1014B0000F931F93CF93DF939A01FC018281938155
:1014C000009749F4FB01C081CA3010F4D0E013C08A
:1014D000CAE0D0E010C00197029718F480E19FEFB6
:1014E00002C08FEF9FEFAB0161E0DF91CF911F91C1
:1014F0000F910C94340AC9018B01AE016BE471E0C9
:101500000E94601AF801C08380E0DF91CF911F91A3
:101510000F9108950F931F93CF93C42F89010E94B9
:101520006509009769F0DC011896ED91FC91199717
:10153000309741F0A8016C2FCF911F910F91099422
:1015400082E001C083E0CF911F910F910895CF9267
:10155000DF92FF920F931F93CF93DF9300D000D0C1
:1015600000D0CDB7DEB781E08E831D829E012B5F58
:101570003F4FAE014A5F5F4F61E080E09FEF0E9406
:10158000340A1D811F3F09F043C01C839E012C5F5C
:101590003F4F41E061E080E19FEF0E948A0A1B8398
:1015A0009E012D5F3F4F41E061E084E19FEF0E948B
:1015B0008A0A84ED9DE29A8389839E012F5F3F4FC3
:1015C00042E061E081E19FEF0E948A0A8CE08D8316
:1015D0009E012B5F3F4F41E061E082E19FEF0E945F
:1015E0008A0A80E590E09A8389839E012F5F3F4FAE
:1015F00042E061E088E09FEF0E948A0A1D829E011E
:101600002B5F3F4F40E061E080E09FEF0E948A0A3D
:1016100020E030E080E090E04FEF5FEFF901EA5F1B
:10162000FD4F558344830196245F3F4F8F309105D2
:10163000A9F79A83898310920502109204020E94EE
:101640003B0E1A82198280E090E02CE0F22E698134
:101650007A816F30710508F043C0F89EA001F99EB1
:10166000500D112420E030E0F901E40FF51FEA5F8E
:10167000FD4F0480F581E02D319639F00196245F0D
:101680003F4F8F30910581F72BC08C01F09EC00138
:10169000F19E900D1124FC01EA5FFD4F6F01660F72
:1016A000771F660F771F645E7F4F44E050E0CF01E5
:1016B0000E94691AF601908191509E3F50F4C60134
:1016C0000E94540E811105C00F5F1F4FF601158255
:1016D000148289819A8101969A838983C801B7CF40
:1016E00026960FB6F894DEBF0FBECDBFDF91CF9127
:1016F0001F910F91FF90DF90CF900895CF92DF92CE
:10170000EF92FF920F931F93CF93DF932CE0829F72
:10171000C0011124FC01EA5FFD4F8081DB018C9345
:10172000EB012296818111968C932281338184E092
:10173000E82EF12C13E000E0E0E1F7E29AE0C92E98
:10174000D12C2E173F0738F0C901BF010E94EF19B5
:10175000462F9C0101C040E0CF01B6010E94EF1965
:10176000FB01411102C0002329F0405D48831F5F47
:10177000219601E0B1E0EB1AF10819F7205D28830A
:10178000812FDF91CF911F910F91FF90EF90DF900C
:10179000CF9008958F3F2FEF920779F020910402A8
:1017A000309105024CE0429FF001439FF00D11245F
:1017B000EA5FFD4F9583848306C0809104028F30D9
:1017C00010F40E94C70980910402909105020196CD
:1017D000909305028093040208958F929F92AF9296
:1017E000BF92CF92DF92EF92FF920F931F93CF930E
:1017F000DF93CDB7DEB728970FB6F894DEBF0FBEE4
:10180000CDBF7C01FC0186818D8387818E835081D1
:1018100080E090E038966E2D61957AE0262F2E0FAD
:10182000251728F4419120ED240F2A3058F098878D
:101830008F83CE0105960E94410E81110DC043E0B9
:10184000F42EA3C0789F9001799F300D1124C90117
:10185000C097840F911DE2CFF701028110E0102F95
:1018600000278381082B26E0C22E22E0D22EE12C15
:10187000F12CAA24AA94BA2CF60184809580FFEF5B
:101880008F169F0631F42FEFA216B20689F4570186
:101890000FC044E050E0B601CE0105960E94531AF5
:1018A000892BA9F08016910619F482E0F82E6DC0FC
:1018B0003FEFE31AF30A8CE0C80ED11CEFE0EE16FE
:1018C000F104D1F67501AB20A09409F45AC02CE0C4
:1018D0002E9DC0012F9D900D11249C012A5F3D4F2C
:1018E0006901F901848195810196E1F50F3F2FEFA0
:1018F0001207D9F28D819E81AF81B885F601808370
:101900009183A283B383C6010E94540EF82E8111E5
:10191000CCCFF601158304830CE110E044E050E0E5
:10192000B801CE0101960E94691A44E050E0BE0160
:101930006F5F7F4FCE0105960E94531A892B29F1C4
:10194000898181508E3F40F044E050E0B801CE01E3
:1019500005960E94791A19C00C5F1F4F08351105B2
:10196000E9F613C00F3FFFEF1F0739F42EE02E15E5
:1019700058F08E2D0E94C70907C0F9011583048312
:1019800003C0FF24F39401C0F12C8F2D28960FB6CD
:10199000F894DEBF0FBECDBFDF91CF911F910F91A5
:1019A000FF90EF90DF90CF90BF90AF909F908F907F
:1019B0000895EF92FF920F931F93CF93DF93EA0165
:1019C00089010E9465097C01009719F4188282E060
:1019D0004DC0DC011696ED91FC911797309719F4E4
:1019E000188283E043C0A801BE01099581113BC064
:1019F000C7010E949D0987FF18C08F77823088F148
:101A0000F801E80FF11DDF0111979C91911105C0BC
:101A10003297908197FF07C024C09F3F11F53297FE
:101A2000908197FF1EC08150E9CF8823F1F0F80123
:101A3000E80FF11DDF0111979C9197FF10C01082F4
:101A40008F5F0FC09801280F311DF90131979081E8
:101A5000911107C03197908197FD03C0815081306B
:101A600089F7888302C0188201C080E0DF91CF919E
:101A70001F910F91FF90EF900895EF92FF920F93B7
:101A80001F93CF93C42F79010E9465098C010097A1
:101A900059F1DC0118968D919C911997892B31F1A0
:101AA000C8010E949D098F77C81770F4F701EC0FE9
:101AB000F11D31979081990F990BF701EC0FF11DF2
:101AC0009083CF5FC813F9CF8111C82FD801189622
:101AD000ED91FC911997A7016C2FC801CF911F912F
:101AE0000F91FF90EF90099482E001C083E0CF91C5
:101AF0001F910F91FF90EF9008951F93CF93DF9365
:101B00000E94800E0E943A15853009F047C08091EE
:101B10000402909105020F9720F010920502109296
:101B200004021CE00E943D15882309F4A0C06091C6
:101B30000402709105026F30710508F098C0169F7D
:101B4000D001179FB00D1124AA5FBD4F1496CD91FF
:101B5000DC911597209721F440E050E08AE012C014
:101B6000CF3F2FEFD20781F01A96ED91FC911B9792
:101B7000309751F060E0CD010995882329F0AE013E
:101B800060E28CE00E94441580910402909105026D
:101B900001969093050280930402C4CF843009F02B
:101BA00062C080910402909105028F30910508F582
:101BB000CCE0C89FF001C99FF00D1124EA5FFD4FF2
:101BC000248135812F3F3F4FC1F10E943D1588236D
:101BD00009F44DC06091040270910502C69FF001A6
:101BE000C79FF00D1124EA5FFD4F448155818AE0C3
:101BF00035C08F3F2FEF920749F1803C9F4F30F463
:101C000080EC9FEF90930502809304020E943D15A3
:101C1000882369F1C0910402D091050261E0CE01F0
:101C20000E946509892B79F0AE0161E38CE00E9486
:101C3000441580910402909105020196909305024B
:101C40008093040214C08FEF9FEFF8CF0E943D15E0
:101C5000882369F040E050E060E282E1DF91CF91BB
:101C60001F910C9444151092050210920402DF910A
:101C7000CF911F9108950E9463050E948F030C94D9
:101C80006908FC012081293459F020F4213451F4F1
:101C90000C94A1032F3421F0203521F40C94630718
:101CA0000C94830580E00895FC011782168211864A
:101CB0001086138612862081293459F020F42134AD
:101CC00051F40C94B4032F3421F0203521F40C94FA
:101CD00074070C94970583E00895FC012081293452
:101CE00049F018F4213451F008952F3419F02035BB
:101CF00019F008950C9433060C949F070C94F60386
:101D00000E945F060C9416040E94CD150E94B70E27
:101D10000E94A70A0E94A5000E9460010E949E12D4
:101D2000209A289A1092BA020E94DE158091BA0277
:101D3000882351F08091BA0281508093BA020E94A8
:101D40007D0D0E94F512289A0E94DB00009711F089
:101D50000E94AE0F0E94EC01009741F30E94FD111A
:101D6000E5CF8091BA028F5F8093BA020895EFEBBE
:101D7000F2E084EC92E09183808313821282EBEB99
:101D8000F2E0118210828FEF93E093838283A3ECC1
:101D9000B2E014969C938E9313971296FC93EE9355
:101DA00011970895CF93DF930FB6F8940F92EC013B
:101DB0002496CF3F83E0D80710F00E947116E0917F
:101DC000BF02F091C002AFEBB2E0228133812C1749
:101DD0003D0728F082E0EB3BF80741F432C08081F8
:101DE00091810097B9F3DF01FC01EFCF8D919C91B8
:101DF00011970496408151814D935C932C1B3D0BB0
:101E00002930310510F1DF01AC0FBD1F13963C9353
:101E10002E931297D383C28312962D913C911397E0
:101E2000EFEBF2E0C081D1814A815B814217530719
:101E300010F4FE01F7CF1196DC93CE93B183A0830B
:101E400004C00E94711680E090E00F900FBEDF91F9
:101E5000CF910895CF93DF930097C9F0FC01349799
:101E60000FB6F8940F9282819381AFEBB2E0CD91DF
:101E7000DC9111972A813B812817390710F4DE0184
:101E8000F6CFD183C083ED93FC930F900FBEDF910B
:101E9000CF910895FC01892B51F16115710539F13C
:101EA0000FB6F8940F92DB011D921C92A081B181B4
:101EB000109731F4718360837383628381E012C071
:101EC0008481882349F0258130E090E02817390784
:101ED0001CF00F900FBE0BC06D937C9371836083D9
:101EE00085818F5F85830F900FBE81E0089580E02C
:101EF0000895FC01892BD1F00FB6F8940F92A281BE
:101F0000B381109779F08581882311F08150858302
:101F10008D919C91119793838283892B19F411825F
:101F2000108215820F900FBECD01089580E090E0E1
:101F300008950F931F93CF93DF93EB018C01061B42
:101F4000170B0E94EE159C01D8010E94221A8C0FDB
:101F50009D1FDF91CF911F910F910895DF92EF9216
:101F6000FF920F931F93CF93DF93EC0191E02A81AF
:101F70008091C306281390E08D818C3009F4E8C06D
:101F800098F4823009F46CC030F4882329F1813050
:101F900009F440C020C28A3009F48CC008F0A7C000
:101FA000853009F478C017C2883109F473C150F440
:101FB000833109F43CC1873109F461C18D3009F0E6
:101FC0000AC214C1843409F48BC18E3F09F4E0C104
:101FD000833409F000C27EC18091C606823051F47C
:101FE0008A818093C3068E818093C40681E08093AA
:101FF000C50641C0853009F0EEC1992309F4EBC153
:102000008091C506813009F0E6C11092CD0610928C
:10201000CC06D7C18091C606823009F0DCC1209180
:10202000CB0630E043E050E0421B530BE4EFF1E01D
:102030004E9FB0014F9F700D5E9F700D11246C5923
:102040007F4F84E090E0821B930B9C012E9FC00188
:102050002F9F900D3E9F900D11240E94990F93C1C8
:102060008091C606823009F0B6C18A818093C3068A
:102070008E818093C40613E01093C60664E670E078
:1020800088EC90E00E94990F9093CA068093C9064D
:102090001093CB06A0C1992309F49DC18E818111B3
:1020A0009AC18091C606833009F095C184E080937F
:1020B000C6064BC08091C606853009F08CC19923B5
:1020C00009F493C18091CE06863131F480E395E71F
:1020D0009093CA068093C906CE0104960E94ED0B28
:1020E0008A8787E08B838C838BE08D8375C09923EF
:1020F00009F471C18091C6068450823008F06BC12A
:102100008091CE068A3009F066C18091CF06909109
:10211000D006FC013085288532135DC131852985C3
:10212000321359C10E942A0F86E18093CE068A8518
:10213000811107C08E8190E0982F88272F81822BF4
:1021400002C080E090E00E94CA0B88EC90E0ABC037
:10215000992309F440C18091C606853009F03BC13E
:10216000DE80EF80F12CFE2CEE248885E82A09859C
:1021700010E0102F00278A85082BD7FE07C080911A
:10218000D1069091D2068017910771F04C8147508B
:102190009E01255F3F4F6D2DC7010E943D0D8A872F
:1021A0001093D2060093D1066D2D6076603209F04F
:1021B00012C18091CE06863131F480E395E7909389
:1021C000CA068093C90687E08B838C838DE08D835C
:1021D000FE82EF8218870987CE01DF91CF911F9190
:1021E0000F91FF90EF90DF900C94C800992309F4B1
:1021F000F2C08091C6068450823008F0ECC0809115
:10220000CE068C3009F0E7C08091CF069091D006C1
:10221000FC01318528853213DEC0328529853213D1
:10222000DAC00E942A0F86E18093CE0622C099234D
:1022300009F4D1C08091C606843009F0CCC08091E9
:10224000CE06823109F0C7C08091CF069091D006AA
:10225000FC01378129853213BEC030852A853213AF
:10226000BAC00E942A0F86E18093CE0685E0809353
:10227000C60683E08093CB0680E395E784C099236C
:1022800009F4A9C08091C606853009F0A4C080E396
:1022900095E709C08091C606833068F481E0809399
:1022A000C50681E090E09093CA068093C90683E05A
:1022B0008093CB0690C0992309F48DC08AE090E00A
:1022C0009093CA068093C90683E08093CB06109250
:1022D000C60681C08091C606813009F07CC09FCEC1
:1022E0008091C606813009F076C08F8190E0982FEA
:1022F00088272885822B2091C7063091C80682172F
:10230000930709F068C00E943801FC0180818F3F6B
:1023100019F406E011E002C005E010E00E94E002BE
:10232000FC0180818F3F11F40F5F12608C8180135C
:1023300052C07E01F9E0EF0EF11C012F017010FF79
:102340000FC00E943801FC0190818985981709F41B
:1023500042C0970141E061E080E19FEF0E948A0A5C
:1023600011FF0DC0002321F07E01FAE0EF0EF11CF9
:10237000970141E061E080E19FEF0E948A0A10929C
:10238000C60681E090E09093CA068093C90623C0F8
:102390008091C6068530F9F49923E9F08C819F81FC
:1023A0009230C9F48530B9F488858A834B814550D1
:1023B0004B8350E0BE01675F7F4FCE0104960E94C1
:1023C000601ACE01DF91CF911F910F91FF90EF9096
:1023D000DF900C94DA01CE01DF91CF911F910F9124
:1023E000FF90EF90DF900C942A0FDF91CF911F9117
:1023F0000F91FF90EF90DF900895FF920F931F933E
:10240000CF93DF938C018091C606853009F08EC092
:10241000F80185818E3058F48A3008F060C0813030
:10242000B9F070F1823061F1843079F17FC0883188
:1024300009F455C030F4823109F451C0863129F1D4
:1024400075C0833409F44BC08E3F09F06FC047C09C
:10245000F80196818091C506981711F0911166C018
:10246000813019F481E090E006C064E670E084EF0A
:1024700091E00E94990F9093CD068093CC0656C0B0
:102480001092CD061092CC0651C086E390E00E94D7
:10249000D20EEC0185E08C838EEF8D831E8282E06C
:1024A0008F83F8018281888788E089878CE08A871A
:1024B00081E68B87FF24FA94FC8688EC8D878AEB73
:1024C0008E878F870E94CE02888B87FD03C0F98A92
:1024D0008EE001C08DE08B83CE010E94C800F80120
:1024E000838195E0980F933308F58C5FF801853070
:1024F00040F0E80FF11DDF0111972C9124838150EA
:10250000F5CF938385E084838EEF8583168282E006
:102510008783828180878091C3068283C801DF918F
:10252000CF911F910F91FF900C94C800C801DF91CB
:10253000CF911F910F91FF900C942A0FCF93DF93AF
:102540001F92CDB7DEB781E0898323EC36E0AE0180
:102550004F5F5F4F61E084E19FEF0E94340A0E9469
:102560003801FC0180818F3F11F481E00DC00E9491
:10257000E002FC0180818F3FC1F38091C3068F3F51
:1025800011F482E001C083E08093C6061092C40675
:1025900081E08093C50688EC90E09093CA06809312
:1025A000C90683E08093CB061092C8061092C70636
:1025B0008FEF9FEF9093D2068093D1068091CE0645
:1025C000863141F08091CF069091D006009711F0AE
:1025D0000E942A0F86E18093CE061092CD061092BB
:1025E000CC060F90DF91CF910895EF92FF920F9359
:1025F0001F93CF93DF9300D0CDB7DEB78091CC0689
:102600009091CD060097C1F001979093CD068093ED
:10261000CC06892B89F486E390E00E94D20EFC015F
:10262000128283E08383848382E085838091C40661
:102630008683CF010E94DA018091C9069091CA0673
:102640000097A9F42091C606223009F4DCC038F4C2
:10265000222309F46AC0213009F474C002C2243074
:1026600009F494C108F415C1253049F0FAC1019765
:102670009093CA068093C906892B21F3F2C19091E9
:10268000CB069923F9F091509093CB064091CE065A
:102690004C30D9F423E030E0A901491B51092AE06C
:1026A000249FB001259F700D112424E1249FC001B7
:1026B000259F900D11240E94990F9093CA06809334
:1026C000C906A4C10E947116CCC14A30C9F423E0E6
:1026D00030E0B901691B7109CB01489FB001499FE6
:1026E000700D112424E1FC012E9FC0012F9F900D3D
:1026F00011240E94990F9093CA068093C90674C151
:1027000086E390E00E94D20E8C018091C306F8010E
:10271000828382E08383848386E1858380E395E7F7
:102720009093CA068093C90699C10E94A5000E9491
:1027300060010E949E128AE090E09093CA06809306
:10274000C9068FC14091CB06442309F494C041507F
:102750004093CB0650E0E3E0F0E0E41BF50BA4EF80
:10276000B1E0EA9FB001EB9F700DFA9F700D11244C
:102770006C597F4F84E090E0841B950BAC014A9F1D
:10278000C0014B9F900D5A9F900D11242A830E94E7
:10279000990F9093CA068093C90686E390E00E9441
:1027A000D20E8C010E94EE159093C8068093C70646
:1027B0000E943801FC0180812A818F3F11F020E0C6
:1027C00003C0F801218721E02A830E94E002FC0176
:1027D00080812A818F3F31F4F801E20FF11D81E001
:1027E00081872F5FF801128283E485838091C5067B
:1027F00086838091C7069091C806978380872B5F58
:10280000238324832BC12091CB062223A1F12150C5
:102810002093CB0630E043E050E0421B530BE4EF43
:10282000F1E04E9FB0014F9F700D5E9F700D11241F
:102830006C597F4F84E090E0821B930B9C012E9F8C
:10284000C0012F9F900D3E9F900D11240E94990F63
:102850009093CA068093C90686E390E00E94D20E48
:102860008C01FC01128283E08383848381E0858371
:102870008091C506E9C08091C506833018F088EBC9
:102880009BE0A9C08F5F8093C50683E08093CB0651
:10289000E8C08091CB06882309F460C08150809302
:1028A000CB0664E670E084EF91E00E94990F90936C
:1028B000CA068093C90686E390E00E94D20E8C017E
:1028C0008091C306F801828384E08583868381E05A
:1028D000878380878CE281877801FAE0EF0EF11C14
:1028E00087E189839701AE014F5F5F4F61E080E030
:1028F0009FEF0E94340A8981823058F586E08983EF
:102900009701AE014F5F5F4F61E080EC9FEF0E9447
:10291000340A8981E80EF11C9FE5F70190838F5FEF
:1029200089830E943801FC018081982F92959F70C5
:102930009A3010F0995C01C0905DF70191838F701F
:102940008A3010F0895C01C0805DF7018283898143
:102950008E5F8A5FF8018383848380C01092C806EB
:102960001092C70681E08093C50683E08093CB0672
:1029700064E670E084EF91E00E94990F9093CA069C
:102980008093C90682E08093C6066BC09091CB0607
:102990009923F9F091509093CB0623E030E0A90100
:1029A000491B51092AE0249FB001259F700D112475
:1029B00024E1249FC001259F900D11240E94990FAE
:1029C0009093CA068093C9068091CE068A3051F44E
:1029D0000BC081E090E09093CA068093C9061092E4
:1029E000C6063FC0823181F486E390E00E94D20E99
:1029F0008C01E091CF06F091D00686E3D8010190DA
:102A00000D928A95E1F72AC08C3021F50091CF060E
:102A10001091D006F801868180768032B9F486E381
:102A200090E00E94D20E8C01E091CF06F091D0068A
:102A300086E3D80101900D928A95E1F7E091CF06E7
:102A4000F091D00686818068868308C086E18093F5
:102A5000CE0604C086E18093CE0603C0C8010E9462
:102A6000C8000F900F90DF91CF911F910F91FF90B1
:102A7000EF9008958091C606089581E09091CE066A
:102A8000963109F080E00895CF92DF92EF92FF92A5
:102A90000F931F93CF93DF931F92CDB7DEB7F82E1E
:102AA000E62ED42EC52E86E390E00E94D20E8C0135
:102AB0002091C7063091C8062F5F3F4F2F3F8FEF01
:102AC000380729F03093C8062093C70606C081E076
:102AD00090E09093C8068093C7062091C706309176
:102AE000C806ECE0FE1216C0F801E682C782D08666
:102AF000318722878BE289839801255F3F4FAE01A2
:102B00004F5F5F4F6E2D8D2D9C2D0E94D90C8981BA
:102B1000895F1AC0FAE0FF120DC0F801C682D782A1
:102B200030872187B801665F7F4F8E2D0E947E0B14
:102B30008A5F0AC0F2E1FF1223C0F801E682378300
:102B4000208783E2818786E089838091C306F8012C
:102B50008283898183838483F092CE06F5821093E9
:102B6000D0060093CF068091C6068450823058F478
:102B70001092CA061092C90683E08093CB0603C068
:102B8000C8010E942A0F0F90DF91CF911F910F91E2
:102B9000FF90EF90DF90CF900895F89484B7877FEF
:102BA00084BFA8950FB6F894A895809160008861BD
:102BB00080936000109260000FBE089582E08093C1
:102BC000B0001092B20099EF9093B30087BB80934E
:102BD000700083E08093B1007894089520911301F0
:102BE00030911401C9019695879520FF02C024EB0E
:102BF0009227909314018093130180911301909177
:102C0000140108958091DB069091DC06089560918F
:102C1000D7067091D8068091D9069091DA0608956A
:102C20001F920F920FB60F9211242F933F934F9341
:102C30005F936F937F938F939F93AF93BF93EF9324
:102C4000FF938091DB069091DC0601969093DC0661
:102C50008093DB068091D5069091D6060196873E3B
:102C600023E0920728F49093D6068093D50617C0E8
:102C70001092D6061092D5068091D7069091D8066C
:102C8000A091D906B091DA060196A11DB11D8093DD
:102C9000D7069093D806A093D906B093DA06809110
:102CA000D3069091D4068A30910510F4019604C0A1
:102CB0000E94B10E81E090E09093D4068093D306F9
:102CC000FF91EF91BF91AF919F918F917F916F9104
:102CD0005F914F913F912F910F900FBE0F901F90DA
:102CE0001895F8949CE088E10FB6F894A895809325
:102CF00060000FBE90936000FFCF813160F4E82F39
:102D0000F0E0E858FF4FE491E03128F4F0E0E859B2
:102D1000FF4F849108958FEF08956F3F61F0809188
:102D20007A0087FD08C0809164008E7F80936400E4
:102D300087E880937A000895E82FF0E0E858FF4F85
:102D4000E49180E4689FB00111246E2B606260936F
:102D50007C0008952091780030917900EAE7F0E056
:102D6000908190649083C9019695879508958EBD52
:102D70000DB407FEFDCF8EB50895E4E6F0E0808146
:102D80008B7F80832A9A84B18C6284B9249880E5F1
:102D90008CBD81E08DBD08958031910528F4FC0142
:102DA000EF57FF4F849108958FEF08958E5FE82FBE
:102DB000F0E0EE0FFF1FEF56FF4FA591B491FD011C
:102DC00031974130510531F04830510541F480814F
:102DD000682B0BC08C91862B8C93609504C06095FA
:102DE0008C9186238C9380816823608308958E5F05
:102DF000E82FF0E0EE0FFF1FEF56FF4F8591949103
:102E0000FC013297808108958E5FE82FF0E0EE0F8D
:102E1000FF1FEF56FF4FA591B4918C91682B6C93D7
:102E200008958E5FE82FF0E0EE0FFF1FEF56FF4F83
:102E3000A591B49160958C9168236C9308958D3021
:102E4000910548F0FC013D97E230F10520F4E5558D
:102E5000FF4F849108958FEF0895CF93DF93EC0196
:102E60002D97FE01E555FF4FE4918E2F86958695AF
:102E70008695E77061E070E001C0660FEA95EAF7B9
:102E800048E050E082500E94D616FE01E755FF4F01
:102E9000E4919E2F9770E695E695E69519F0E1305E
:102EA00069F027C084B5807A911102C0806801C0A2
:102EB0008062816084BD84E085BD1BC080918000FC
:102EC000807A911106C08068109289001092880063
:102ED00005C0806210928B0010928A009FEF909341
:102EE00087009093860082608093800081E18093C8
:102EF0008100DF91CF9108950D97FC01E755FF4FB9
:102F0000E4913E2F3770E695E695E69519F0E130AD
:102F100071F0089524B5311102C02F7701C02F7DC3
:102F200024BD24B5207A71F414BC15BC0BC02091CB
:102F3000800031111BC0207221111AC01092800034
:102F400010928100FC01E555FF4FE4918E2F86958C
:102F500086958695E77061E070E001C0660FEA959E
:102F6000EAF740E050E082500C94D6162078E4CF87
:102F7000226020938000E6CF84569F4FFC0184910D
:102F8000982F977086958695869519F0813039F03F
:102F90000895911102C077BD089578BD08959111EB
:102FA00005C07093890060938800089570938B002A
:102FB00060938A00089525E1FC01208384E1FB01F0
:102FC0008083089590E89093BC00882359F0359B46
:102FD0000BC080E28093B8008FEF8093BB0085E048
:102FE0008093BC0081E0089580E00895ECEBF0E070
:102FF00080818B7E80838081846880830895359B67
:103000000AC0E0910202F091030283818860838309
:1030100085EA8093BC0008951F920F920FB60F921D
:1030200011242F933F938F939F93AF93BF93EF936D
:10303000FF938091B900887F883209F44BC060F417
:10304000803169F118F4883051F18EC0883109F46B
:1030500041C08032B9F188C08834A1F138F480339E
:1030600009F44CC0803409F469C07EC0803509F48D
:1030700056C0883509F078C0E0910202F091030251
:103080009091DD0681E0890F8093DD062091BB00E1
:10309000DF01A90FB11D16962C9385835FC0109296
:1030A000DD06E0910202F0910302838180FF03C0FC
:1030B0008281880F03C08281880F81608093BB006A
:1030C00085E84FC0E0910202F091030215828381EE
:1030D000806445C08091DD06E0910202F091030218
:1030E0009481891758F4E80FF11D86818093BB0005
:1030F0008091DD068F5F8093DD06E2CFE0910202D2
:10310000F09103028091DD06848383818E7F838327
:10311000838181FD02C0158221C085EA22C0E09131
:103120000202F09103028091DD0691E0980F9093E6
:10313000DD069091BB00E80FF11D9683E09102023D
:10314000F091030225818091DD0690E0019630E048
:10315000821793070CF0B4CF85EC03C080E1838322
:1031600085E98093BC0019C08091BC008B7E809360
:10317000BC008091BC0084688093BC00E091020296
:10318000F09103028091DD06848381E08583809144
:10319000B9008683838180688383FF91EF91BF911B
:1031A000AF919F918F913F912F910F900FBE0F90F4
:1031B0001F9018951F920F920FB60F9211242F9304
:1031C0008F939F93AF93BF93EF93FF939091C6001C
:1031D000E091DE06F091DF0680A18F5F8F7121A163
:1031E000821731F020A1DF01A20FB11D9C9380A3B3
:1031F000FF91EF91BF91AF919F918F912F910F9080
:103200000FBE0F901F9018951F920F920FB60F923E
:1032100011242F933F938F939F93EF93FF93E0910C
:10322000DE06F091DF0625A184A1821307C014A257
:103230008091C1008F7D8093C1000BC082A193A1BA
:1032400031E0320F35A3FC01E20FF11D8081809344
:10325000C600FF91EF919F918F913F912F910F9019
:103260000FBE0F901F901895811104C0FB011082B2
:1032700081E003C08FEFFB018083FA018083089512
:10328000811112C01092C1008BB18C7F8BB9519803
:103290008091DE069091DF06009731F00E942A0FA0
:1032A0001092DF061092DE0608951F93CF93DF93EE
:1032B00081110DC0142F117040FF02C0589A509810
:1032C000D42FD27041FF04C0599A519A01C0FFCF48
:1032D0008091DE069091DF06892BF9F4C62F86E2F5
:1032E00090E00E94D20EFC019093DF068093DE06F0
:1032F00010A211A214A215A2EC2FF0E0EE0FFF1FF6
:10330000E355FF4F859194919093C5008093C4003D
:103310001092C10086E08093C200112329F08091B1
:10332000C10080698093C100DD2329F08091C10034
:1033300088608093C100DF91CF911F910895E82F9D
:10334000F0E0EE0FFF1FE252F94F0190F081E02D07
:1033500081E094A1911180E00895E82FF0E0EE0F54
:10336000FF1FE252F94F0190F081E02D64A391E03C
:1033700095A353A342A381110AC0FA0180818093CF
:10338000C6008091C10080628093C1000895FFCF84
:10339000E82FF0E0EE0FFF1FE252F94F0190F081AD
:1033A000E02D20A181E091A1291301C080E00895C2
:1033B000E82FF0E0EE0FFF1FE252F94F0190F0818D
:1033C000E02D80A191A1891741F0DF01A90FB11D66
:1033D0008C919F5F9F7191A3089580E00895AA1B2F
:1033E000BB1B51E107C0AA1FBB1FA617B70710F0F0
:1033F000A61BB70B881F991F5A95A9F78095909522
:10340000BC01CD010895052E97FB1EF400940E9487
:103410001A1A57FD07D00E94311A07FC03D04EF448
:103420000C941A1A50954095309521953F4F4F4F67
:103430005F4F089590958095709561957F4F8F4F60
:103440009F4F0895A29FB001B39FC001A39F700D2D
:10345000811D1124911DB29F700D811D1124911D9C
:103460000895A1E21A2EAA1BBB1BFD010DC0AA1FC5
:10347000BB1FEE1FFF1FA217B307E407F50720F0DD
:10348000A21BB30BE40BF50B661F771F881F991F58
:103490001A9469F760957095809590959B01AC01A1
:1034A000BD01CF010895FB01DC0104C08D910190A5
:1034B000801921F441505040C8F7881B990B08959A
:1034C000FB01DC0102C001900D9241505040D8F741
:1034D0000895DC01CB01FC01F999FECF06C0F2BDD5
:1034E000E1BDF89A319600B40D9241505040B8F7C2
:1034F0000895DC01CB0103C02D910E94841A415034
:103500005040D0F70895262FF999FECF1FBA92BDEB
:1035100081BD20BD0FB6F894FA9AF99A0FBE0196B4
:063520000895F894FFCFAE
:103526000000000004000500000000040000000088
:103536000004005EA1022E002E0347063D07060882
:10354600050B080D210E620F7610CA118312931314
:103556000014001533181819161B4320FB23E92401
:103566002A2500261F2C812D352E09413153433142
:10357600322E3331304573020000FFB908130900BB
:103586000045571A0008FFB9085F09000045426E5A
:103596000010FFB9081309000045426F0014FFB977
:1035A60008130900004557700011FFB908130900F8
:1035B600004542720012FFB9081309000046730065
:1035C60000C0FF580A0000000046610100C1FF5814
:1035D6000A0000000046610200C2FF580A0000000F
:0235E6000000E3
:00000001FF
