:100000000C9465000C9482000C9482000C94D71818
:100010000C9482000C9482000C9482000C94F116D3
:100020000C9482000C9482000C9482000C94820048
:100030000C9482000C9482000C9482000C94820038
:100040000C9482000C9482000C94FB190C94251AD9
:100050000C9482000C9482000C9482000C94820018
:100060000C942D190C9482008101A001AF01BF01F5
:100070006E02F80103022702470210111213141531
:10008000FEFEFEFFFFFFFFFFFEFE0607000102036C
:1000900004050EFFFF101112131415FFFF1A1B1C8D
:1000A0001D1E1FFFFF250028002B00FFFFFFFFFF85
:1000B000FFFFFFFFFFFFFFFFFFFFFF01001D1E7F90
:1000C00001BF005F002F0017000011241FBECFEFFB
:1000D000D8E0DEBFCDBF11E0A0E0B1E0E4E7F7E398
:1000E00002C005900D92A43AB107D9F726E0A4EA20
:1000F000B1E001C01D92A13DB207E1F70E949D0F42
:100100000C94B81B0C94000080E00E94C01A882355
:1001100021F18091AA019091AB01009731F00E94EA
:1001200043101092AB011092AA018091050188231F
:10013000A1F080E091E00E9492109093AB01809337
:10014000AA01009751F0AC014D5F5F4FFC01638144
:100150006F5F80E00E94CE1A29980895CF93DF93B5
:100160001F92CDB7DEB780E091E00E949210009719
:1001700019F00E944310F7CF81E089832CEA31E027
:10018000AE014F5F5F4F61E080E19FEF0E944D0B3A
:1001900043E064E080E00E94761A0F90DF91CF91F7
:1001A0000895CF93DF93EC01BC0180E091E00E94C1
:1001B0006310811105C0CE01DF91CF910C944310E3
:1001C000DF91CF910C948400CF930E94840080E053
:1001D0000E94E91A882309F440C080E00E94F91ABD
:1001E000C82F0E94E3169093A9018093A8019091D3
:1001F000A70191110FC0C23050F386E390E00E9436
:10020000EB0F9093A6018093A501C093A7011092D4
:10021000A401DDCF8091A401823358F4E091A501BF
:10022000F091A60121E0280F2093A401E80FF11D11
:10023000C4838091A4018913CACFE091A501F091F4
:10024000A6018091AC01828393831092A701299823
:100250008091A5019091A60112C08091A7018823E9
:1002600061F00E94E3162091A8013091A901821B40
:10027000930BC39710F01092A70180E090E0CF910C
:1002800008958CEA91E008952091B4013091B50170
:1002900098E0B90166277078672F7727482F407854
:1002A00050E0220F331F6417750719F045E024272B
:1002B0003058880F915069F73093B5012093B401FD
:1002C00008950F931F93CF9380E090E00E94BA1897
:1002D00096FF07C081E092E80E94BA181092BF0111
:1002E00014C197FFFBC0E091BF018E2F90E0FC018D
:1002F0003297E930F10508F0F1C0EC5CFF4F0C9447
:10030000431B80E090EB0E94BA18C82F8CEF8C0F33
:10031000803308F0E3C08FEF9FEF9093B501809397
:10032000B4018C2F0E94440183E08093BF01C2502E
:10033000C093B301E091B801F091B901C383E5C066
:1003400080E090EB0E94BA18882321F09091BE01C2
:100350008913C4C029980E94440184E0D4C080E07D
:1003600090EB0E94BA18C82F0E944401E091B80196
:10037000F091B901C2831092B20185E0C4C080E05F
:1003800090EB0E94BA188C01982FC091B201809115
:10039000B301C81778F4802F0E944401E091B8019E
:1003A000F091B90181E08C0F8093B201EC0FF11D47
:1003B0000483ABC0C81308C08091B50198138EC0E8
:1003C000CF5FC093B201A1C011278091B401909179
:1003D000B50199270817190709F080C089E192E84B
:1003E0000E94BA1881E89AEC0E94BA1886E08BC085
:1003F0008AEA98EB0E94BA181092B20188E08093C2
:10040000BF01299882C0C091B201EC2FF0E0E65400
:10041000FE4F1081C23020F0812F0E94440106C09F
:100420008FEF9FEF9093B5018093B401CF5FC0939E
:10043000B201812F90E0986B0E94BA188091B201AE
:10044000853009F062C01092B20189E05CC0E09191
:10045000B601F091B7018091B20191E0980F9093AD
:10046000B201E80FF11DC4818C2F90E0986B0E94BF
:10047000BA188C2F0E944401E091B601F091B701A7
:100480009091B2018381981340C08AE017C0809197
:10049000B201811103C08091B50116C0813019F4F9
:1004A0008091B40111C0823071F089E192E80E941C
:1004B000BA1887E690E80E94BA188BE08093BF01D3
:1004C0001092B20122C08FEF90E0986B0E94BA1890
:1004D0008091B2018F5F8093B20117C089E192E8E9
:1004E0000E94BA1881E89AEC0E94BA1887E690E850
:1004F0000E94BA1889ED92E80E94BA1883E89AEC33
:100500000E94BA1882E08093BF01CF911F910F9192
:100510000895EF92FF920F931F93CF93DF9300D034
:1005200000D0CDB7DEB787E091E00E94921000972F
:1005300019F00E944310F7CF8091B6019091B70156
:10054000009731F00E9443101092B7011092B6014B
:1005500081E08B832EEB31E0AE014D5F5F4F61E0B8
:1005600080E19FEF0E944D0B9E012C5F3F4FAE013B
:100570004D5F5F4F61E082E19FEF0E944D0B82E093
:100580008B839E012F5F3F4FAE014D5F5F4F61E058
:1005900081E19FEF0E944D0B89819A819093BA016E
:1005A0008093BB010C8185E0089F80011124005CD1
:1005B000194F0E94A71880E090E00E94BA1881E0CD
:1005C00092E80E94BA1880E098EB0E94BA1880E086
:1005D00090E00E94BA180E94CD188111F8CF85E1F1
:1005E000E82E81E0F82EF701819191917F010E9420
:1005F000BA18FDE2EF16F1E0FF06A9F7C801906A0C
:100600000E94BA188091BB0190E09E6C0E94BA18BB
:1006100081E08093BF0189E192E80E94BA180E94AC
:10062000D1180F900F900F900F90DF91CF911F91E5
:100630000F91FF90EF900895CF93DF93EC01BC01F1
:1006400087E091E00E946310811105C0CE01DF9127
:10065000CF910C944310DF91CF910895CF93DF9306
:100660008091BF01823009F449C028F4882399F0B1
:100670008130C1F09FC0863089F18B3009F09AC07B
:100680008091B6019091B7010E9443101092B7017A
:100690001092B601A6C01092B1011092B0010E9452
:1006A0008902A2C08091B8019091B901892B41F4CF
:1006B00086E390E00E94EB0F9093B9018093B8011C
:1006C0001092B1011092B00182E08093BF0189EDD8
:1006D00092E80E94BA1883E89AEC69C01092B101BE
:1006E0001092B0018091B8019091B9011092B901B6
:1006F0001092B80121E02093BF0178C01092B1019F
:100700001092B00180910C01882309F46DC0809192
:10071000AF018823A1F0C091AD01D091AE010E943C
:10072000E316C817D90709F45FC00E94E316909337
:10073000AE018093AD018091AF01815011C080E086
:1007400090E00E94BA1890FF0EC0809106018823A5
:1007500051F08150809306010E94CF1687708D5F03
:100760008093AF0141C087E091E00E949210909386
:10077000B7018093B6010097B9F1FC0123812E5F88
:100780002093BC0182818093BD011092AF0185E06E
:100790008093060187E08093BF0189E192E80E947F
:1007A000BA1887EE90E80E94BA1889E392E80E948E
:1007B000BA181AC08091B0019091B101019790933D
:1007C000B1018093B001892B79F489E192E80E940C
:1007D000BA1881E89AEC0E94BA1887E690E80E945D
:1007E000BA1881E08093BF0180E090E0DF91CF9163
:1007F00008958EEB91E00895282F277091E0222331
:1008000019F0990F2150FBCF869586958695E82F94
:10081000F0E0EC51FE4F662319F08081982B03C065
:1008200090958081982390830895EF92FF920F9383
:100830001F93CF93DF937B018A01FC01C281D38197
:1008400060E08C2F0E94FC0382E0F7018083DD27AB
:10085000CC0FDD1FC953DE4F98818981F801908349
:10086000818380E0DF91CF911F910F91FF90EF90F6
:1008700008950F931F93CF93DF93FA01018110E046
:10088000102F00272081022BFC01C281D38160E060
:100890008C2F0E94FC03DD27CC0FDD1FC953DE4FD8
:1008A0001983088380E0DF91CF911F910F91089504
:1008B000DC011296EC918E2F877091E0882319F05D
:1008C000990F8150FBCFE695E695E695F0E0EC5167
:1008D000FE4F8081982381E009F480E008958930FB
:1008E000910510F082E00895FC01E552FE4F208151
:1008F0002F3F41F40E945E178E3F31F08F3F91F3FE
:100900000C94010881E0089580E00895CF93DF936F
:100910001F92CDB7DEB782E0898329ED31E0AE01C9
:100920004F5F5F4F61E088E09FEF0E944D0B809129
:10093000D9019091DA01893E9D4F30F080E590E039
:100940009093DA018093D9010F90DF91CF910895B0
:10095000ABEDB1E0E7ECF1E08FEF8D9311921192E6
:1009600091E0E93DF907C9F71092E4011092E50121
:100970000C948604FC012181293631F0263721F0C0
:1009800090E0892F81700895FC01828193810E94FB
:100990006F0491E08230A9F7F3CFEF92FF920F93AB
:1009A0001F93CF93DF93EC010A811B81C8010E9442
:1009B0006F0481112CC0C80199272981293621F0A3
:1009C000263721F02FEF03C022E001C021E0AC0167
:1009D00045525E4F7A01FA012083802F0E945E17F4
:1009E0008E3F11F00E942708F7016081802F0E943E
:1009F0006E1785E194E09F838E8389E394E0998765
:100A0000888788E594E09B878A8780E001C082E040
:100A1000DF91CF911F910F91FF90EF900895CF93A9
:100A2000DF93FC01C281D381CE010E946F0481302B
:100A300099F4FE01FF27E552FE4F8FEF80836FEFA1
:100A40008C2F0E946E178C2F0E945E178E3F21F014
:100A5000DF91CF910C944708DF91CF910895CF9308
:100A60008091C5019091C601009719F58091C4014C
:100A7000E82FF0E0E552FE4F60816F3F49F48F5F51
:100A80008093C401893009F080C01092C4017DC0F8
:100A90000E947D1781E090E09093C6018093C5018C
:100AA0001092C0011092C1011092C2011092C301B4
:100AB0006CC02091D9013091DA01A9014B5F5F4FE1
:100AC0008417950748F50E948B172091C501309136
:100AD000C6012F5F3F4F3093C6012093C5012530DB
:100AE000310508F452C0092E000CAA0BBB0B409133
:100AF000C0015091C1016091C2017091C301840F86
:100B0000951FA61FB71F8093C0019093C101A093AA
:100B1000C201B093C30139C02F5F3F4F40E050E0A6
:100B20006091C0017091C1018091C2019091C30197
:100B30000E94241B2093C0013093C1014093C20145
:100B40005093C301C091C401EC2FF0E0EE0FFF1FE2
:100B5000E953FE4F80819181092E000CAA0BBB0B3B
:100B600082179307A407B50731F03183208361E032
:100B70008C2F0E94FC031092C6011092C501CF5F1A
:100B8000C093C401C93009F480CFCF910895982F44
:100B90009695969596959250FB019083877091E07B
:100BA000815010F0990FFCCFFA0190830895CF93F4
:100BB000DF9300D0CDB7DEB7FC01828193810E9424
:100BC0009817AE014F5F5F4FBE016E5F7F4F0E946F
:100BD000C705EA81F0E0E851FE4F908189819823B2
:100BE00081E009F480E00F900F90DF91CF9108959C
:100BF000CF92DF92EF92FF920F931F93CF93DF93E9
:100C000000D0CDB7DEB78C016B017A01FC01828187
:100C100093810E949817AE014F5F5F4FBE016E5FD8
:100C20007F4F0E94C705EA81F0E0DF01AA51BE4F65
:100C30009C918981E851FE4F282F209530812323F4
:100C40002083F80121812E3609F4909521E0F601E8
:100C50002083892391E009F490E0F701908380E0FC
:100C60000F900F90DF91CF911F910F91FF90EF9018
:100C7000DF90CF900895EF92FF920F931F93CF9341
:100C8000DF9300D0CDB7DEB78C017A01DC0112967C
:100C90008D919C9113970E949817AE014F5F5F4F03
:100CA000BE016E5F7F4F0E94C705F7013081EA8168
:100CB000F0E02981922F9095DF01A851BE4F4C9111
:100CC00049234C93D80111968C918E3609F43095B6
:100CD000EA51FE4F808130FF03C0282B208302C0E1
:100CE0009823908380E00F900F90DF91CF911F9118
:100CF0000F91FF90EF900895CF93DF932EEE31E0A8
:100D0000F90110828CEE91E0FC011082CAEED1E074
:100D10001882A8EEB1E01C9246EE51E0FA01108272
:100D2000F9011182FC011182198211961C92FA01BB
:100D30001182DF91CF910895FC0121812E3611F0AF
:100D4000203759F4FC01828193810E94981791E029
:100D50008F3F09F490E0892F01C080E081700895F1
:100D60000F931F93CF93DF9300D0CDB7DEB78C01E5
:100D7000FC01828193810E949817AE014F5F5F4F03
:100D8000BE016E5F7F4F0E94C7058A81282F30E029
:100D9000D901A451BE4F4C916981942F962309F03B
:100DA00073C0F901E251FE4F9081962309F06CC0A7
:100DB000F901E851FE4F2081962F90959223908360
:100DC000F80190819F3439F52BE336E03187208795
:100DD00048E050E00E94A2178A81E82FF0E0698184
:100DE000E251FE4F9081962B9083F80191819037CC
:100DF00049F40E94DD17EA81F0E0EA51FE4F898153
:100E000080952BC00E94D017EA81F0E0EA51FE4F96
:100E10009081898135C028EF35E0F801378326833A
:100E20002BE336E03187208727ED35E033872287B3
:100E3000462B4C939181903799F440E050E00E940A
:100E4000A217EA81F0E089818095DF01A651BE4FAB
:100E50009C9198239C93EA51FE4F9081892311C065
:100E600041E050E00E94A217EA81F0E08981DF01B1
:100E7000A651BE4F9C91982B9C93EA51FE4F9081B6
:100E8000892B808380E001C082E00F900F90DF917A
:100E9000CF911F910F910895CF93DF9300D0CDB7DD
:100EA000DEB7FC01828193810E949817AE014F5FEB
:100EB0005F4FBE016E5F7F4F0E94C7058A81E82F9A
:100EC000F0E06981962F9095DF01A251BE4F2C91E1
:100ED00029232C93E451FE4F20819223908340E0FC
:100EE00050E00E94A2170F900F90DF91CF910895CC
:100EF0004F925F926F927F928F929F92AF92BF922A
:100F0000CF92DF92EF92FF920F931F93CF93DF93D5
:100F1000C6EED1E08EEEA82E81E0B82E9CEEC92E52
:100F200091E0D92E2AEEE22E21E0F22E08EE11E019
:100F3000512C46013501F50140804094F601808135
:100F4000482279F4FFEFAF1ABF0A8FEFC81AD80A08
:100F5000F40160816095F3018081962E982231F52D
:100F600033C0852D0E94C317842148E050E031E052
:100F7000932F9421B1F0F7012081682F6227692314
:100F800029F090959223282F232309C06881282FC8
:100F90002627922331F069276883F8012081922B5C
:100FA0009083330F4150510919F7CCCF68816921E3
:100FB00019F0852D0E94D01798819095692D69238D
:100FC00019F0852D0E94DD172196FFEFEF1AFF0A19
:100FD0000F5F1F4F81E0581619F055245394A9CF85
:100FE000DF91CF911F910F91FF90EF90DF90CF9005
:100FF000BF90AF909F908F907F906F905F904F9039
:101000000895CF93DF9300D0CDB7DEB7AE014F5F29
:101010005F4FBE016E5F7F4F0E94C7058A8190E0DF
:101020003981FC01E451FE4F2081232351F4FC015E
:10103000E251FE4F8081932F982381E019F480E0E4
:1010400001C081E00F900F90DF91CF910895CF9371
:10105000DF9300D0CDB7DEB7AE014F5F5F4FBE016B
:101060006E5F7F4F0E94C705EA81F0E08981DF0152
:10107000A251BE4F9C91982B9C93E451FE4F9081BE
:10108000892B80830F900F90DF91CF910895CF939C
:10109000DF9300D0CDB7DEB7AE014F5F5F4FBE012B
:1010A0006E5F7F4F0E94C705EA81F0E089818095DD
:1010B000DF01A251BE4F9C9198239C93E451FE4FB7
:1010C0009081892380830F900F90DF91CF910895B5
:1010D000FA01618170E0762F66272081622BFC0186
:1010E00021812E3611F460957095FC0182819381E7
:1010F0000E94881880E00895FC0121812E3611F0AD
:10110000203741F4FC01828193810E94EB1791E02A
:101110008F3F09F490E0892F0895FF920F931F935A
:10112000CF93DF93EC010A811B81C8010E94EB176A
:10113000F82E0E940108811114C08F2D0E942708EB
:10114000C8010E94F91789818E3629F46FEF7FEF6D
:10115000C8010E94881888E698E09987888780E00F
:1011600001C082E0DF91CF911F910F91FF90089510
:10117000CF93DF93FC01C281D381CE010E94481836
:10118000CE010E94EB17DF91CF910C944708E091BC
:10119000F201F091F3013097E9F09A01DB0145810A
:1011A00094E0940F9C93492F50E06091F20170916C
:1011B000F3016E5F7F4FC9010E94871B8091F2018E
:1011C0009091F3010E9443101092F3011092F201EA
:1011D00080E0089581E00895CF93E091F201F091CD
:1011E000F3013097D9F18381982F907E09F044C0A4
:1011F00084FF0BC0C581C1113FC0CF010E944310C5
:101200001092F3011092F20138C0C82FC87082FD0D
:101210000AC08381846083830E94E3169093F10166
:101220008093F00116C00E94E3162091F0013091E6
:10123000F101821B930B8B3F910558F0C1110E9465
:101240001719E091F201F091F301838180628383A9
:1012500013C0C1110FC00E9420190FC0809112014C
:10126000882341F08DE091E00E9492109093F30169
:101270008093F201C0E001C0C1E08C2FCF910895AE
:10128000EF92FF921F93CF93DF93643090F17A0136
:10129000162F86E390E00E94EB0FEC01412F50E007
:1012A000B70102960E94871B8B8183708B83145039
:1012B0001C83112311F081608B839D81911104C0E7
:1012C0008B81837031F009C08B8182608B83963271
:1012D000B8F3CE010E9443100CC0BE018DE091E036
:1012E0000E946310811107C0CE010E94431081E06B
:1012F00003C083E001C080E0DF91CF911F91FF9098
:10130000EF900895CF93DF9300D0CDB7DEB7BE0145
:101310006F5F7F4FCE0102960E94FC188A810E9467
:10132000270889810E94270881E00E940319811102
:1013300007C08A810E94470889810E9447082DC002
:101340008091F2019091F301009731F00E944310D7
:101350001092F3011092F2010E942A0BFC01892BDA
:1013600051F48A810E94470889810E94470880E0E1
:101370000E94031912C087EC98E09783868380E46B
:1013800099E0918780878CEE98E09387828784E547
:10139000808381E68183138212820F900F90DF9108
:1013A000CF910895CF92DF92EF92FF920F931F9308
:1013B000CF93DF931F92CDB7DEB78B016A01FC019B
:1013C000E280F38091819236B1F058F49434C9F000
:1013D00018F4923481F035C0973579F0913699F050
:1013E00030C0933781F018F4943659F02AC09737FB
:1013F00021F09A3731F581E001C082E0F801808365
:1014000016C084E0FBCF41E050E0B701CE01019669
:101410000E94901B9981F8018081981708F4892F08
:10142000F8018083882371F0FFEFEF1AFF0AF801BB
:101430002081422F50E0B701C6010E94901B80E03E
:1014400001C083E00F90DF91CF911F910F91FF902A
:10145000EF90DF90CF900895EF92FF920F931F933C
:10146000CF93DF931F92CDB7DEB7FC0169837A017A
:101470000281138191819236B1F058F49434C1F015
:1014800018F4923481F02BC0973579F0913691F0B1
:1014900026C0933779F018F4943651F020C097376E
:1014A00021F09A37E1F481E001C082E089830EC027
:1014B00084E0FCCF41E050E0B801CE0101960E94EB
:1014C000A01B8981882361F00F5F1F4F2981422F64
:1014D00050E0B801C7010E94A01B80E001C083E07A
:1014E0000F90DF91CF911F910F91FF90EF90089592
:1014F0000E942C0A0E94860480E008956370C9F45B
:10150000E6EFF1E020E030E04481558148175907CB
:1015100049F44CE0429FC001439F900D11248A5032
:101520009E4F08952F5F3F4F3C962F30310561F756
:101530001AC06130C1F4E7E3F1E020E030E044811B
:1015400055814817590749F44CE0429FC001439F19
:10155000900D1124895C9E4F08952F5F3F4F3C965C
:101560002930310561F780E090E00895FC01908119
:101570009F3401F128F49134F9F0993429F41AC018
:101580009035D1F09335B1F081818735A9F030F4F1
:101590008234A1F0843471F484E00895813741F0FD
:1015A000873721F0843631F484E8089582E808957D
:1015B00088E8089580E0089582E0089581E0089524
:1015C000EF92FF920F931F93CF93DF9300D000D041
:1015D000CDB7DEB72CE0829FC0011124FC01EA5098
:1015E000FE4F8FEF9FEF958384830CE110E07F0126
:1015F00044E050E0B801CE0101960E94901B44E007
:1016000050E0B701CE0101960E947A1B892B79F434
:101610008FEF89838A838FEF9FEF9C838B8344E0D6
:1016200050E0B801CE0101960E94A01B05C00C5FDE
:101630001F4F08351105E1F6C7010E94860F0F9074
:101640000F900F900F90DF91CF911F910F91FF900E
:10165000EF900895E6EFF1E080E090E0248135819D
:101660002F3F3F4F91F42CE0289FF001299FF00D70
:101670001124EA50FE4F17821682118610861386B7
:10168000128615821482CF01089501963C968F3000
:10169000910521F780E090E008950F931F93CF9379
:1016A000DF93EA0189010E947E0A009719F41882EB
:1016B00082E012C0DC011696ED91FC9117973097ED
:1016C00019F4188283E008C0A801BE010995882397
:1016D00011F0188201C080E0DF91CF911F910F912E
:1016E00008950F931F93CF93DF939A01FC0182819A
:1016F0009381009749F4FB01C081CA3010F4D0E017
:1017000013C0CAE0D0E010C00197029718F480E13E
:101710009FEF02C08FEF9FEFAB0161E0DF91CF91B0
:101720001F910F910C944D0BC9018B01AE016DE21D
:1017300071E00E94871BF801C08380E0DF91CF91A8
:101740001F910F9108950F931F93CF93C42F890179
:101750000E947E0A009769F0DC011896ED91FC91D9
:101760001997309741F0A8016C2FCF911F910F91DD
:10177000099482E001C083E0CF911F910F910895F9
:10178000CF92DF92FF920F931F93CF93DF9300D0FE
:1017900000D000D0CDB7DEB781E08E831D829E01E0
:1017A0002B5F3F4FAE014A5F5F4F61E080E09FEFEC
:1017B0000E944D0B1D811F3F09F043C01C839E01F9
:1017C0002C5F3F4F41E061E080E19FEF0E94A30B5F
:1017D0001B839E012D5F3F4F41E061E084E19FEF5D
:1017E0000E94A30B84ED9DE29A8389839E012F5F63
:1017F0003F4F42E061E081E19FEF0E94A30B8CE04C
:101800008D839E012B5F3F4F41E061E082E19FEFBE
:101810000E94A30B80E590E09A8389839E012F5F4D
:101820003F4F42E061E088E09FEF0E94A30B1D82E2
:101830009E012B5F3F4F40E061E080E09FEF0E9400
:10184000A30B20E030E080E090E04FEF5FEFF90184
:10185000EA50FE4F558344830196245F3F4F8F30FB
:101860009105A9F79A8389831092F5011092F401EA
:101870000E94540F1A82198280E090E02CE0F22E30
:1018800069817A816F30710508F043C0F89EA0012C
:10189000F99E500D112420E030E0F901E40FF51F0E
:1018A000EA50FE4F0480F581E02D319639F0019623
:1018B000245F3F4F8F30910581F72BC08C01F09E44
:1018C000C001F19E900D1124FC01EA50FE4F6F0102
:1018D000660F771F660F771F645E7F4F44E050E00E
:1018E000CF010E94901BF601908191509E3F50F4D1
:1018F000C6010E946D0F811105C00F5F1F4FF601D9
:101900001582148289819A8101969A838983C801FC
:10191000B7CF26960FB6F894DEBF0FBECDBFDF91CE
:10192000CF911F910F91FF90DF90CF900895CF92AC
:10193000DF92EF92FF920F931F93CF93DF932CE0F0
:10194000829FC0011124FC01EA50FE4F8081DB011F
:101950008C93EB012296818111968C9322813381A5
:1019600084E0E82EF12C13E000E0E0E1F7E29AE0F9
:10197000C92ED12C2E173F0738F0C901BF010E9494
:10198000101B462F9C0101C040E0CF01B6010E9410
:10199000101BFB01411102C0002329F0405D488368
:1019A0001F5F219601E0B1E0EB1AF10819F7205D05
:1019B0002883812FDF91CF911F910F91FF90EF909E
:1019C000DF90CF9008958F3F2FEF920779F020910D
:1019D000F4013091F5014CE0429FF001439FF00D7E
:1019E0001124EA50FE4F9583848306C08091F40150
:1019F0008F3010F40E94E00A8091F4019091F5017B
:101A000001969093F5018093F40108958F929F922F
:101A1000AF92BF92CF92DF92EF92FF920F931F93FC
:101A2000CF93DF93CDB7DEB728970FB6F894DEBF1C
:101A30000FBECDBF7C01FC0186818D8387818E83A3
:101A4000508180E090E038966E2D61957AE0262FE7
:101A50002E0F251728F4419120ED240F2A3058F03D
:101A600098878F83CE0105960E945A0F81110DC071
:101A700043E0F42EA3C0789F9001799F300D11248C
:101A8000C901C097840F911DE2CFF701028110E0D8
:101A9000102F00278381082B26EFC22E21E0D22EA3
:101AA000E12CF12CAA24AA94BA2CF601848095800A
:101AB000FFEF8F169F0631F42FEFA216B20689F4BE
:101AC00057010FC044E050E0B601CE0105960E94D8
:101AD0007A1B892BA9F08016910619F482E0F82E62
:101AE0006DC03FEFE31AF30A8CE0C80ED11CEFE0A3
:101AF000EE16F104D1F67501AB20A09409F45AC09A
:101B00002CE02E9DC0012F9D900D11249C012A5088
:101B10003E4F6901F901848195810196E1F50F3FFE
:101B20002FEF1207D9F28D819E81AF81B885F60122
:101B300080839183A283B383C6010E946D0FF82E28
:101B40008111CCCFF601158304830CE110E044E051
:101B500050E0B801CE0101960E94901B44E050E095
:101B6000BE016F5F7F4FCE0105960E947A1B892BC5
:101B700029F1898181508E3F40F044E050E0B80166
:101B8000CE0105960E94A01B19C00C5F1F4F08359F
:101B90001105E9F613C00F3FFFEF1F0739F42EE0E0
:101BA0002E1558F08E2D0E94E00A07C0F90115830A
:101BB000048303C0FF24F39401C0F12C8F2D2896D9
:101BC0000FB6F894DEBF0FBECDBFDF91CF911F914E
:101BD0000F91FF90EF90DF90CF90BF90AF909F90CC
:101BE0008F900895EF92FF920F931F93CF93DF93FF
:101BF000EA0189010E947E0A7C01009719F418828B
:101C000082E04DC0DC011696ED91FC91179730975C
:101C100019F4188283E043C0A801BE01099581111F
:101C20003BC0C7010E94B60A87FF18C08F77823079
:101C300088F1F801E80FF11DDF0111979C919111D6
:101C400005C03297908197FF07C024C09F3F11F5D0
:101C50003297908197FF1EC08150E9CF8823F1F021
:101C6000F801E80FF11DDF0111979C9197FF10C05B
:101C700010828F5F0FC09801280F311DF901319735
:101C80009081911107C03197908197FD03C08150D9
:101C9000813089F7888302C0188201C080E0DF911B
:101CA000CF911F910F91FF90EF900895EF92FF92C7
:101CB0000F931F93CF93C42F79010E947E0A8C014A
:101CC000009759F1DC0118968D919C911997892BF9
:101CD00031F1C8010E94B60A8F77C81770F4F70176
:101CE000EC0FF11D31979081990F990BF701EC0FD3
:101CF000F11D9083CF5FC813F9CF8111C82FD80190
:101D00001896ED91FC911997A7016C2FC801CF91FE
:101D10001F910F91FF90EF90099482E001C083E042
:101D2000CF911F910F91FF90EF9008951F93CF9344
:101D3000DF930E94990F0E941B16853009F047C05F
:101D40008091F4019091F5010F9720F01092F50128
:101D50001092F4011CE00E941E16882309F4A0C012
:101D60006091F4017091F5016F30710508F098C031
:101D7000169FD001179FB00D1124AA50BE4F149684
:101D8000CD91DC911597209721F440E050E08AE056
:101D900012C0CF3F2FEFD20781F01A96ED91FC9140
:101DA0001B97309751F060E0CD010995882329F009
:101DB000AE0160E28CE00E9425168091F4019091C2
:101DC000F50101969093F5018093F401C4CF84301E
:101DD00009F062C08091F4019091F5018F30910576
:101DE00008F5CCE0C89FF001C99FF00D1124EA501E
:101DF000FE4F248135812F3F3F4FC1F10E941E16B7
:101E0000882309F44DC06091F4017091F501C69FDB
:101E1000F001C79FF00D1124EA50FE4F4481558117
:101E20008AE035C08F3F2FEF920749F1803C9F4FEA
:101E300030F480EC9FEF9093F5018093F4010E94C1
:101E40001E16882369F1C091F401D091F50161E07B
:101E5000CE010E947E0A892B79F0AE0161E38CE00D
:101E60000E9425168091F4019091F50101969093BE
:101E7000F5018093F40114C08FEF9FEFF8CF0E941B
:101E80001E16882369F040E050E060E282E1DF91B5
:101E9000CF911F910C9425161092F5011092F40128
:101EA000DF91CF911F9108950E947C060E94A804A3
:101EB0000C948209FC012081293459F020F421344A
:101EC00051F40C94BA042F3421F0203521F40C94F1
:101ED0007C080C949C0680E00895FC011782168211
:101EE00011861086138612862081293459F020F439
:101EF000213451F40C94CD042F3421F0203521F4F9
:101F00000C948D080C94B00683E00895FC012081A8
:101F1000293449F018F4213451F008952F3419F080
:101F2000203519F008950C944C070C94B8080C94C3
:101F30000F050E9478070C942F050E94AE160E9490
:101F4000D00F0E94C00B0E94AE000E9489020E9426
:101F50007F13219A299A1092AA020E94BF1680919B
:101F6000AA02882351F08091AA0281508093AA028C
:101F70000E94960E0E94D613299A0E94E4000097B0
:101F800011F00E94C7100E942E03009741F30E9497
:101F90001613E5CF8091AA028F5F8093AA0208955D
:101FA000EFEAF2E084EB92E0918380831382128265
:101FB000EBEAF2E0118210828FEF93E09383828349
:101FC000A3EBB2E014969C938E9313971296FC9316
:101FD000EE9311970895CF93DF930FB6F8940F9275
:101FE000EC012496CF3F83E0D80710F00E945217EF
:101FF000E091AF02F091B002AFEAB2E0228133810A
:102000002C173D0728F082E0EB3AF80741F432C084
:10201000808191810097B9F3DF01FC01EFCF8D91B1
:102020009C9111970496408151814D935C932C1B98
:102030003D0B2930310510F1DF01AC0FBD1F1396A8
:102040003C932E931297D383C28312962D913C9189
:102050001397EFEAF2E0C081D1814A815B81421798
:10206000530710F4FE01F7CF1196DC93CE93B183A2
:10207000A08304C00E94521780E090E00F900FBE32
:10208000DF91CF910895CF93DF930097C9F0FC01C2
:1020900034970FB6F8940F9282819381AFEAB2E041
:1020A000CD91DC9111972A813B812817390710F4D3
:1020B000DE01F6CFD183C083ED93FC930F900FBE6A
:1020C000DF91CF910895FC01892B51F161157105C4
:1020D00039F10FB6F8940F92DB011D921C92A0818A
:1020E000B181109731F4718360837383628381E0DF
:1020F00012C08481882349F0258130E090E02817C0
:1021000039071CF00F900FBE0BC06D937C93718349
:10211000608385818F5F85830F900FBE81E0089576
:1021200080E00895FC01892BD1F00FB6F8940F924E
:10213000A281B381109779F08581882311F08150B5
:1021400085838D919C91119793838283892B19F4B8
:102150001182108215820F900FBECD01089580E08C
:1021600090E008950F931F93CF93DF93EB018C01C1
:10217000061B170B0E94CF169C01D8010E94491B19
:102180008C0F9D1FDF91CF911F910F910895DF92CA
:10219000EF92FF920F931F93CF93DF93EC0191E0A7
:1021A0002A818091B306281390E08D818C3009F448
:1021B000E8C098F4823009F46CC030F4882329F127
:1021C000813009F440C020C28A3009F48CC008F084
:1021D000A7C0853009F478C017C2883109F473C1EB
:1021E00050F4833109F43CC1873109F461C18D3069
:1021F00009F00AC214C1843409F48BC18E3F09F47A
:10220000E0C1833409F000C27EC18091B6068230FD
:1022100051F48A818093B3068E818093B40681E065
:102220008093B50641C0853009F0EEC1992309F4C9
:10223000EBC18091B506813009F0E6C11092BD0670
:102240001092BC06D7C18091B606823009F0DCC17D
:102250002091BB0630E043E050E0421B530BE4EF1B
:10226000F1E04E9FB0014F9F700D5E9F700D1124E5
:102270006C597F4F84E090E0821B930B9C012E9F52
:10228000C0012F9F900D3E9F900D11240E94B2100F
:1022900093C18091B606823009F0B6C18A818093DD
:1022A000B3068E818093B40613E01093B60664E6FD
:1022B00070E088EC90E00E94B2109093BA06809390
:1022C000B9061093BB06A0C1992309F49DC18E8164
:1022D00081119AC18091B606833009F095C184E0DE
:1022E0008093B6064BC08091B606853009F08CC14C
:1022F000992309F493C18091BE06863131F480E3BD
:1023000095E79093BA068093B906CE0104960E9491
:10231000060D8A8787E08B838C838BE08D8375C065
:10232000992309F471C18091B6068450823008F077
:102330006BC18091BE068A3009F066C18091BF06EC
:102340009091C006FC013085288532135DC131852E
:102350002985321359C10E94431086E18093BE063D
:102360008A85811107C08E8190E0982F88272F8160
:10237000822B02C080E090E00E94E30C88EC90E0A9
:10238000ABC0992309F440C18091B606853009F0AD
:102390003BC1DE80EF80F12CFE2CEE248885E82AFC
:1023A000098510E0102F00278A85082BD7FE07C06B
:1023B0008091C1069091C2068017910771F04C81FF
:1023C00047509E01255F3F4F6D2DC7010E94560E5D
:1023D0008A871093C2060093C1066D2D6076603225
:1023E00009F012C18091BE06863131F480E395E791
:1023F0009093BA068093B90687E08B838C838DE037
:102400008D83FE82EF8218870987CE01DF91CF91FD
:102410001F910F91FF90EF90DF900C94D1009923C2
:1024200009F4F2C08091B6068450823008F0ECC006
:102430008091BE068C3009F0E7C08091BF06909174
:10244000C006FC01318528853213DEC0328529851E
:102450003213DAC00E94431086E18093BE0622C088
:10246000992309F4D1C08091B606843009F0CCC01C
:102470008091BE06823109F0C7C08091BF0690915D
:10248000C006FC01378129853213BEC030852A85FC
:102490003213BAC00E94431086E18093BE0685E0E5
:1024A0008093B60683E08093BB0680E395E784C003
:1024B000992309F4A9C08091B606853009F0A4C01B
:1024C00080E395E709C08091B606833068F481E027
:1024D0008093B50681E090E09093BA068093B906A8
:1024E00083E08093BB0690C0992309F48DC08AE0F5
:1024F00090E09093BA068093B90683E08093BB0680
:102500001092B60681C08091B606813009F07CC079
:102510009FCE8091B606813009F076C08F8190E021
:10252000982F88272885822B2091B7063091B806EE
:102530008217930709F068C00E944101FC01808165
:102540008F3F19F406E011E002C005E010E00E94A0
:10255000F903FC0180818F3F11F40F5F12608C81C1
:10256000801352C07E01F9E0EF0EF11C012F0170C3
:1025700010FF0FC00E944101FC01908189859817CE
:1025800009F442C0970141E061E080E19FEF0E94C1
:10259000A30B11FF0DC0002321F07E01FAE0EF0E26
:1025A000F11C970141E061E080E19FEF0E94A30BE5
:1025B0001092B60681E090E09093BA068093B90637
:1025C00023C08091B6068530F9F49923E9F08C8117
:1025D0009F819230C9F48530B9F488858A834B8114
:1025E00045504B8350E0BE01675F7F4FCE0104969C
:1025F0000E94871BCE01DF91CF911F910F91FF9019
:10260000EF90DF900C941C03CE01DF91CF911F91CE
:102610000F91FF90EF90DF900C944310DF91CF91DA
:102620001F910F91FF90EF90DF900895CF93DF936C
:10263000EC018091B606853009F05CC08D818E304A
:1026400058F48A30A0F58130B1F060F1823051F158
:10265000843009F04FC02BC0883149F130F4823109
:1026600031F1863109F046C022C0833401F18E3F3A
:1026700009F040C01CC09E818091B506981711F0EA
:10268000911138C0813019F481E090E006C064E611
:1026900070E084EF91E00E94B2109093BD068093A9
:1026A000BC0628C01092BD061092BC0623C08B81C8
:1026B00095E0980F9333F0F48C5F853048F0FE017D
:1026C000E80FF11DDF0111972C9124838150F5CF84
:1026D0009B8385E08C838EEF8D831E8282E08F83C7
:1026E0008A8188878091B3068A83CE01DF91CF915A
:1026F0000C94D100CE01DF91CF910C944310CF9375
:10270000DF931F92CDB7DEB781E0898323EB36E0FC
:10271000AE014F5F5F4F61E084E19FEF0E944D0B80
:102720000E944101FC0180818F3F11F481E00DC0C6
:102730000E94F903FC0180818F3FC1F38091B306B1
:102740008F3F11F482E001C083E08093B6061092BF
:10275000B40681E08093B50688EC90E09093BA06C9
:102760008093B90683E08093BB061092B80610925E
:10277000B7068FEF9FEF9093C2068093C1068091BA
:10278000BE06863141F08091BF069091C006009749
:1027900011F00E94431086E18093BE061092BD06A0
:1027A0001092BC060F90DF91CF910895EF92FF92A7
:1027B0000F931F93CF93DF9300D0CDB7DEB78091F7
:1027C000BC069091BD060097C1F001979093BD069D
:1027D0008093BC06892B89F486E390E00E94EB0F7E
:1027E000FC01128283E08383848382E0858380916D
:1027F000B4068683CF010E941C038091B906909194
:10280000BA060097A9F42091B606223009F4DCC07C
:1028100038F4222309F46AC0213009F474C002C2DA
:10282000243009F494C108F415C1253049F0FAC1E7
:1028300001979093BA068093B906892B21F3F2C1D0
:102840009091BB069923F9F091509093BB0640916B
:10285000BE064C30D9F423E030E0A901491B5109F0
:102860002AE0249FB001259F700D112424E1249FAC
:10287000C001259F900D11240E94B2109093BA06BA
:102880008093B906A4C10E945217CCC14A30C9F442
:1028900023E030E0B901691B7109CB01489FB00109
:1028A000499F700D112424E1FC012E9FC0012F9F30
:1028B000900D11240E94B2109093BA068093B9062D
:1028C00074C186E390E00E94EB0F8C018091B30607
:1028D000F801828382E08383848386E1858380E3B9
:1028E00095E79093BA068093B90699C10E94AE000D
:1028F0000E9489020E947F138AE090E09093BA06BA
:102900008093B9068FC14091BB06442309F494C05B
:1029100041504093BB0650E0E3E0F0E0E41BF50BD0
:10292000A4EFB1E0EA9FB001EB9F700DFA9F700D2C
:1029300011246C597F4F84E090E0841B950BAC010F
:102940004A9FC0014B9F900D5A9F900D11242A83DE
:102950000E94B2109093BA068093B90686E390E085
:102960000E94EB0F8C010E94CF169093B8068093C3
:10297000B7060E944101FC0180812A818F3F11F03E
:1029800020E003C0F801218721E02A830E94F90397
:10299000FC0180812A818F3F31F4F801E20FF11DA3
:1029A00081E081872F5FF801128283E48583809123
:1029B000B50686838091B7069091B8069783808785
:1029C0002B5F238324832BC12091BB062223A1F1FB
:1029D00021502093BB0630E043E050E0421B530BF4
:1029E000E4EFF1E04E9FB0014F9F700D5E9F700DC0
:1029F00011246C597F4F84E090E0821B930B9C0163
:102A00002E9FC0012F9F900D3E9F900D11240E947C
:102A1000B2109093BA068093B90686E390E00E94C4
:102A2000EB0F8C01FC01128283E08383848381E0BD
:102A300085838091B506E9C08091B506833018F092
:102A400088EB9BE0A9C08F5F8093B50683E08093FD
:102A5000BB06E8C08091BB06882309F460C08150A2
:102A60008093BB0664E670E084EF91E00E94B210B0
:102A70009093BA068093B90686E390E00E94EB0F2C
:102A80008C018091B306F801828384E0858386837C
:102A900081E0878380878CE281877801FAE0EF0EFE
:102AA000F11C87E189839701AE014F5F5F4F61E0C1
:102AB00080E09FEF0E944D0B8981823058F586E0BF
:102AC00089839701AE014F5F5F4F61E080EC9FEF1C
:102AD0000E944D0B8981E80EF11C9FE5F701908360
:102AE0008F5F89830E944101FC018081982F92951C
:102AF0009F709A3010F0995C01C0905DF70191834E
:102B00008F708A3010F0895C01C0805DF70182838C
:102B100089818E5F8A5FF8018383848380C01092ED
:102B2000B8061092B70681E08093B50683E08093E3
:102B3000BB0664E670E084EF91E00E94B2109093CF
:102B4000BA068093B90682E08093B6066BC0909176
:102B5000BB069923F9F091509093BB0623E030E037
:102B6000A901491B51092AE0249FB001259F700D3E
:102B7000112424E1249FC001259F900D11240E945F
:102B8000B2109093BA068093B9068091BE068A303F
:102B900051F40BC081E090E09093BA068093B9069F
:102BA0001092B6063FC0823181F486E390E00E9425
:102BB000EB0F8C01E091BF06F091C00686E3D801CF
:102BC00001900D928A95E1F72AC08C3021F5009191
:102BD000BF061091C006F801868180768032B9F474
:102BE00086E390E00E94EB0F8C01E091BF06F0912C
:102BF000C00686E3D80101900D928A95E1F7E09135
:102C0000BF06F091C00686818068868308C086E191
:102C10008093BE0604C086E18093BE0603C0C8014F
:102C20000E94D1000F900F90DF91CF911F910F91D3
:102C3000FF90EF9008958091B606089581E09091FD
:102C4000BE06963109F080E00895CF92DF92EF92B0
:102C5000FF920F931F93CF93DF931F92CDB7DEB7F1
:102C6000F82EE62ED42EC52E86E390E00E94EB0FC0
:102C70008C012091B7063091B8062F5F3F4F2F3F50
:102C80008FEF380729F03093B8062093B70606C0B7
:102C900081E090E09093B8068093B7062091B70644
:102CA0003091B806ECE0FE1216C0F801E682C78249
:102CB000D086318722878BE289839801255F3F4F39
:102CC000AE014F5F5F4F6E2D8D2D9C2D0E94F20D3A
:102CD0008981895F1AC0FAE0FF120DC0F801C6822F
:102CE000D78230872187B801665F7F4F8E2D0E9483
:102CF000970C8A5F0AC0F2E1FF1223C0F801E68256
:102D00003783208783E2818786E089838091B306B9
:102D1000F8018283898183838483F092BE06F582E1
:102D20001093C0060093BF068091B606845082308F
:102D300058F41092BA061092B90683E08093BB064D
:102D400003C0C8010E9443100F90DF91CF911F91E3
:102D50000F91FF90EF90DF90CF900895F89484B793
:102D6000877F84BFA8950FB6F894A89580916000DE
:102D7000886180936000109260000FBE089582E029
:102D80008093B0001092B20095EE9093B30087BB91
:102D90008093700084E08093B1007894089520912E
:102DA000130130911401C9019695879520FF02C047
:102DB00024EB9227909314018093130180911301C7
:102DC0009091140108958091CB069091CC060895BE
:102DD0006091C7067091C8068091C9069091CA0695
:102DE00008951F920F920FB60F9211242F933F93C5
:102DF0004F935F936F937F938F939F93AF93BF9303
:102E0000EF93FF938091CB069091CC06019690931F
:102E1000CC068093CB068091C5069091C60601969C
:102E2000873E23E0920728F49093C6068093C50658
:102E300017C01092C6061092C5068091C7069091E1
:102E4000C806A091C906B091CA060196A11DB11D80
:102E50008093C7069093C806A093C906B093CA068C
:102E60008091C3069091C4068A30910510F40196B2
:102E700004C00E94CA0F81E090E09093C406809342
:102E8000C306FF91EF91BF91AF919F918F917F9179
:102E90006F915F914F913F912F910F900FBE0F90C7
:102EA0001F901895F8949CE088E10FB6F894A895C7
:102EB000809360000FBE90936000FFCF813160F47B
:102EC000E82FF0E0E657FF4FE491E03128F4F0E01E
:102ED000E658FF4F849108958FEF08956F3F61F09A
:102EE00080917A0087FD08C0809164008E7F809376
:102EF000640087E880937A000895E82FF0E0E657B1
:102F0000FF4FE49180E4689FB00111246E2B606252
:102F100060937C0008952091780030917900EAE771
:102F2000F0E0908190649083C9019695879508950B
:102F30008031910528F4FC01ED56FF4F84910895EE
:102F40008FEF08958E5FE82FF0E0EE0FFF1FED5535
:102F5000FF4FA591B491FD0131974130510531F0FA
:102F60004830510541F48081682B0BC08C91862B31
:102F70008C93609504C060958C9186238C9380819E
:102F80006823608308958E5FE82FF0E0EE0FFF1F47
:102F9000ED55FF4F85919491FC0132978081089502
:102FA0008E5FE82FF0E0EE0FFF1FED55FF4FA5916C
:102FB000B4918C91682B6C9308958E5FE82FF0E0AC
:102FC000EE0FFF1FED55FF4FA591B49160958C91C9
:102FD00068236C9308958D30910548F0FC013D976E
:102FE000E230F10520F4E354FF4F849108958FEF10
:102FF0000895CF93DF93EC012D97FE01E354FF4F2B
:10300000E4918E2F869586958695E77061E070E055
:1030100001C0660FEA95EAF748E050E082500E944E
:10302000A217FE01E554FF4FE4919E2F9770E6959D
:10303000E695E69519F0E13069F027C084B5807A0D
:10304000911102C0806801C08062816084BD84E00B
:1030500085BD1BC080918000807A911106C0806878
:10306000109289001092880005C0806210928B0037
:1030700010928A009FEF9093870090938600826061
:103080008093800081E180938100DF91CF9108954A
:103090000D97FC01E554FF4FE4913E2F3770E69504
:1030A000E695E69519F0E13071F0089524B53111F7
:1030B00002C02F7701C02F7D24BD24B5207A71F482
:1030C00014BC15BC0BC02091800031111BC02072B4
:1030D00021111AC01092800010928100FC01E3546B
:1030E000FF4FE4918E2F869586958695E77061E077
:1030F00070E001C0660FEA95EAF740E050E08250C8
:103100000C94A2172078E4CF226020938000E6CFB1
:1031100082559F4FFC018491982F977086958695D4
:10312000869519F0813039F00895911102C077BD6C
:10313000089578BD0895911105C07093890060933A
:103140008800089570938B0060938A000895109210
:103150006B00E4E6F0E080818B7F80832A9A84B163
:103160008C6284B9249885B185B981E58CBD81E0F4
:103170008DBD08952A989EBD0DB407FEFDCF2EB5D6
:1031800030E0322F22278EBD0DB407FEFDCF8EB565
:103190002A9AA901482BCA01089583B180958170AC
:1031A000089581E080936B008093680008951F92DA
:1031B0000F920FB60F9211242F933F934F935F936B
:1031C0006F937F938F939F93AF93BF93EF93FF93EF
:1031D000189B0E946101FF91EF91BF91AF919F9168
:1031E0008F917F916F915F914F913F912F910F90B0
:1031F0000FBE0F901F90189525E1FC01208384E1FC
:10320000FB018083089590E89093BC00882359F0D7
:10321000359B0BC081E48093B8008FEF8093BB0097
:1032200085E08093BC0081E0089580E00895ECEB98
:10323000F0E080818B7E8083808184688083089524
:10324000359B0AC0E091F201F091F301838188601F
:10325000838385EA8093BC0008951F920F920FB676
:103260000F9211242F933F938F939F93AF93BF930C
:10327000EF93FF938091B900887F883209F44BC0A7
:1032800060F4803169F118F4883051F18EC08831D2
:1032900009F441C08032B9F188C08834A1F138F412
:1032A000803309F44CC0803409F469C07EC0803595
:1032B00009F456C0883509F078C0E091F201F09128
:1032C000F3019091CD0681E0890F8093CD06209186
:1032D000BB00DF01A90FB11D16962C9385835FC03B
:1032E0001092CD06E091F201F091F301838180FF0D
:1032F00003C08281880F03C08281880F8160809320
:10330000BB0085E84FC0E091F201F091F301158216
:103310008381806445C08091CD06E091F201F091F7
:10332000F3019481891758F4E80FF11D8681809389
:10333000BB008091CD068F5F8093CD06E2CFE091F8
:10334000F201F091F3018091CD06848383818E7F19
:103350008383838181FD02C0158221C085EA22C05A
:10336000E091F201F091F3018091CD0691E0980F88
:103370009093CD069091BB00E80FF11D9683E091EC
:10338000F201F091F30125818091CD0690E0019644
:1033900030E0821793070CF0B4CF85EC03C080E1D6
:1033A000838385E98093BC0019C08091BC008B7E2B
:1033B0008093BC008091BC0084688093BC00E09145
:1033C000F201F091F3018091CD06848381E0858341
:1033D0008091B9008683838180688383FF91EF9118
:1033E000BF91AF919F918F913F912F910F900FBE01
:1033F0000F901F9018951F920F920FB60F921124E5
:103400002F938F939F93AF93BF93EF93FF939091DD
:10341000C600E091CE06F091CF0680A18F5F8F713C
:1034200021A1821731F020A1DF01A20FB11D9C93D1
:1034300080A3FF91EF91BF91AF919F918F912F91B9
:103440000F900FBE0F901F9018951F920F920FB6FE
:103450000F9211242F933F938F939F93EF93FF939A
:10346000E091CE06F091CF0625A184A1821307C07A
:1034700014A28091C1008F7D8093C1000BC082A1F6
:1034800093A131E0320F35A3FC01E20FF11D8081E1
:103490008093C600FF91EF919F918F913F912F9163
:1034A0000F900FBE0F901F901895811104C0FB0163
:1034B000108281E003C08FEFFB018083FA018083DB
:1034C0000895811112C01092C1008BB18C7F8BB90D
:1034D00051988091CE069091CF06009731F00E94CE
:1034E00043101092CF061092CE0608951F93CF93EB
:1034F000DF9381110DC0142F117040FF02C0589A44
:103500005098D42FD27041FF04C0599A519A01C0EB
:10351000FFCF8091CE069091CF06892BF9F4C62F6C
:1035200086E290E00E94EB0FFC019093CF0680931F
:10353000CE0610A211A214A215A2EC2FF0E0EE0FFD
:10354000FF1FE154FF4F859194919093C5008093A4
:10355000C4001092C10086E08093C200112329F0BC
:103560008091C10080698093C100DD2329F08091A2
:10357000C10088608093C100DF91CF911F910895B1
:10358000E82FF0E0EE0FFF1FE253F94F0190F081BA
:10359000E02D81E094A1911180E00895E82FF0E002
:1035A000EE0FFF1FE253F94F0190F081E02D64A36D
:1035B00091E095A353A342A381110AC0FA0180812F
:1035C0008093C6008091C10080628093C1000895FD
:1035D000FFCFE82FF0E0EE0FFF1FE253F94F01900D
:1035E000F081E02D20A181E091A1291301C080E0AC
:1035F0000895E82FF0E0EE0FFF1FE253F94F01901E
:10360000F081E02D80A191A1891741F0DF01A90F80
:10361000B11D8C919F5F9F7191A3089580E00895E3
:10362000AA1BBB1B51E107C0AA1FBB1FA617B707E8
:1036300010F0A61BB70B881F991F5A95A9F7809504
:103640009095BC01CD010895052E97FB1EF40094C2
:103650000E943B1B57FD07D00E94581B07FC03D05C
:103660004EF40C943B1B50954095309521953F4F5F
:103670004F4F5F4F089590958095709561957F4F5E
:103680008F4F9F4F0895EE0FFF1F0590F491E02D8F
:103690000994A29FB001B39FC001A39F700D811D2B
:1036A0001124911DB29F700D811D1124911D08954B
:1036B000A1E21A2EAA1BBB1BFD010DC0AA1FBB1F36
:1036C000EE1FFF1FA217B307E407F50720F0A21BA8
:1036D000B30BE40BF50B661F771F881F991F1A9415
:1036E00069F760957095809590959B01AC01BD013F
:1036F000CF010895FB01DC0104C08D910190801978
:1037000021F441505040C8F7881B990B0895FB01E4
:10371000DC0102C001900D9241505040D8F708954D
:10372000DC01CB01FC01F999FECF06C0F2BDE1BD81
:10373000F89A319600B40D9241505040B8F7089570
:10374000DC01CB0103C02D910E94AB1B41505040C6
:10375000D0F70895262FF999FECF1FBA92BD81BDEB
:1037600020BD0FB6F894FA9AF99A0FBE0196089503
:04377000F894FFCFFB
:103774000000000004000500000000040000000038
:103784000004005EA1E780018208C66A95ACC2818C
:10379400CA97C4809816CC00E000C860C041315379
:1037A4005231312E3331304573020000FFD2092CDF
:1037B4000A000045571A0008FFD209780A0000459C
:1037C400426E0010FFD2092C0A000045426F00141B
:1037D400FFD2092C0A00004557700011FFD2092CB2
:1037E4000A00004542720012FFD2092C0A0000466A
:1037F400730000C0FF710B0000000046610100C1AE
:10380400FF710B0000000046610200C2FF710B0053
:0438140000000000B0
:00000001FF
