:100000000C9460000C941F0F0C947D000C947D00E8
:100010000C947D000C947D000C947D000C948D0A52
:100020000C947D000C947D000C947D000C947D005C
:100030000C947D000C947D000C947D000C947D004C
:100040000C947D000C947D000C94A8110C94321239
:100050000C947D000C9460030C947D000C947D0046
:100060000C947D000C947D00000102030405FFFF49
:10007000FFFFFFFFFFFF06FF4673B400C0FFD8007D
:10008000000000004542470010FF8D0033010000D2
:100090004557490011FF8D003301000045424600DD
:1000A00012FF8D00330100004573300000FF8D000A
:1000B000330100000A47574A4E76362E3234340058
:1000C00011241FBECFEFD8E0DEBFCDBF11E0A0E00E
:1000D000B1E0E2E8F7E202C005900D92AC30B10762
:1000E000D9F723E0ACE0B1E001C01D92AC39B20712
:1000F000E1F70E94D3090C94BF130C9400009C01FB
:10010000CB0144E050E0B9010C948F139C01CB016A
:1001100044E050E0B9010C94A713EF92FF920F93C3
:100120001F93CF93DF93EB017A01FC0102811381CE
:1001300081818236B1F058F48434E9F018F48234C5
:1001400079F50FC08735A9F0813651F517C083378F
:10015000A9F018F4843621F50EC0873751F08A379C
:10016000F9F481E08883C8010E949F13F70180831E
:1001700015C082E001C084E088830AC0C8010E94E3
:100180009F139881981708F4892F88830F5F1F4F5A
:10019000488150E0B801C7010E948F1380E001C080
:1001A00083E0DF91CF911F910F91FF90EF90089521
:1001B0000F931F93CF93DF93EB01DA01FC01628170
:1001C000738181818236D1F068F4843431F120F476
:1001D000823409F042C012C08735B1F0813609F08F
:1001E0003CC02DC0833759F120F4843609F035C066
:1001F00014C0873749F08A3709F02FC081E088831F
:10020000FB0164916C9319C082E08883FB018591A6
:1002100094918C9311969C9310C084E08883FB0189
:1002200005911591259134910C9311961C9311977A
:1002300012962C93129713963C9380E00FC0FB010B
:1002400014918881811708F4182F6F5F7F4F412F19
:1002500050E0CD010E947013188383E0DF91CF91AD
:100260001F910F910895EF92FF920F931F93CF93D9
:10027000DF931F92CDB7DEB7FC01262F8A01E28003
:10028000F38081818236B1F058F48434A9F018F4F7
:10029000823439F50FC08735D9F0813611F50EC09B
:1002A000833761F018F48436E1F406C0873781F0B3
:1002B0008A37B9F421E00DC024E00BC0622FC701DA
:1002C00029830E94B1138FEFE81AF80A298101C02F
:1002D00022E0422F50E0B701C8010E94A71380E03E
:1002E00001C083E00F90DF91CF911F910F91FF909C
:1002F000EF9008958F7021E030E002C0220F331F8D
:100300008150E0F7C90108958F70992788599F4F50
:10031000FC0184910895CF93DF930E9484018F3F65
:1003200069F0C0912B01D0912C010E947A01C82361
:10033000D92381E0CD2B19F480E001C082E0DF9168
:10034000CF9108950F931F93CF93DF938B01EA0111
:10035000FC01828193810E94840192E0F8019083E4
:10036000E82FF0E0EE0FFF1FEC5CFE4F80819181E3
:100370009983888380E0DF91CF911F910F91089539
:10038000CF93DF93EA01FC01828193810E94840173
:1003900090E0FC01EE0FFF1FEC5CFE4F28813981DD
:1003A00031832083FC01E35DFE4F21E0208380E068
:1003B000DF91CF9108952091640020FF10C02FEFAE
:1003C00020930F0120930C01209164002E7F209335
:1003D00064002FE020937C002FED20937A00FC0135
:1003E000828193810E94840190E0FC01E35DFE4FD5
:1003F000208121502083222311F080E0089520E401
:100400002083FC01EE0FFF1FDF01A05FBE4F2D9187
:100410003C91285F3F4F54E0369527955A95E1F778
:10042000EC5CFE4F808191818217930731F3318319
:10043000208381E008959C012770332781E001C06B
:10044000880F21503109E0F70895887F9927409758
:100450008930910528F4FC01EE5FFE4F80810895FC
:100460008FEF08951F93CF93DF93EC010E941B023F
:10047000182F9E01287F33272031310521F02831A4
:10048000310599F402C0807C01C0877081110DC0D4
:10049000CE010E942502E82FF0E0EB5DFE4F908137
:1004A000912381E019F480E001C082E0DF91CF91D7
:1004B0001F9108950F931F93CF93DF931F92CDB792
:1004C000DEB78C0169830E941B02087F11276981B6
:1004D0000031110521F008311105A1F40AC097B1CE
:1004E000662319F0982B97B90DC08095892387B999
:1004F00009C09AB1662319F0982B9AB903C0809568
:1005000089238AB90F90DF91CF911F910F910895A0
:100510000F931F93CF93DF931F92CDB7DEB78C015C
:1005200069830E941B02087F112769810031110530
:1005300021F008311105A1F40AC098B1662319F021
:10054000982B98B90DC08095892388B909C09BB1B3
:10055000662319F0982B9BB903C0809589238BB92A
:100560000F90DF91CF911F910F9108950F931F93DB
:10057000CF93DF93FC01C281D381DA011C9180818A
:100580008934A9F4CE010E942502082FCE010E94D1
:100590001B02E02FF0E0E95DFE4F112319F090817E
:1005A000982B03C080959081982390830BC08F3443
:1005B00049F481818E3609F41095612F6170CE0166
:1005C0000E94880280E0DF91CF911F910F910895E2
:1005D000EF92FF920F931F93CF93DF93EC010A8169
:1005E0001B818881893491F5C801887F99278031E2
:1005F000910519F0489729F402C0F6B003C0F9B08C
:1006000001C0F12CC8010E942502E82EC8010E94F9
:100610001B0299819E3609F4F094F822EE2DF0E049
:10062000DF01A75DBE4F9C91292F2823F21619F0F8
:1006300089278C930BC0E95DFE4F9081292F2823D9
:10064000F21621F08927808381E001C080E0DF91EC
:10065000CF911F910F91FF90EF900895DF92EF924D
:10066000FF920F931F93CF93DF93EC017B018A01DD
:100670008A819B819C01287F33272031310521F01D
:100680002831310529F402C0D6B003C0D9B001C069
:10069000D12C0E941B0299819E3609F4D09491E0DE
:1006A000F7019083D82209F490E0F801908380E06C
:1006B000DF91CF911F910F91FF90EF90DF90089500
:1006C0001F920F920FB60F9211242F933F934F93C7
:1006D0008F939F93EF93FF9320917800309179004F
:1006E00040910C01403170F580910D0190910E0107
:1006F000820F931F90930E0180930D01411134C01E
:1007000020917C002F3059F0E0910F01E73038F450
:10071000F0E0EE0FFF1FE05FFE4F9183808380913A
:100720000F018F5F01C0822F873048F5282F2F5F80
:10073000E82FF0E0E25EFE4F90819F30A1F38093BE
:100740000F0112C0403F81F410920E0110920D0172
:10075000E0910F01E73028F4F0E0E25EFE4F808187
:1007600001C08FE080937C0080910C0181508093C8
:100770000C0180917A00806580937A0010C08FEF21
:1007800080930F0180930C0180E180937A008FE0C9
:1007900080937C0080916400816080936400FF916D
:1007A000EF919F918F914F913F912F910F900FBE9D
:1007B0000F901F901895109225011092270110920A
:1007C0002901109226011092280110922A01089501
:1007D00080E180937A008FE080937C00E4E6F0E093
:1007E00090819160908310922C0110922B011092B5
:1007F0000F019FEF90930C0180931E0180931F01C6
:100800008093200180932101809322018093230112
:10081000809324010C94DB030895CF92DF92EF9232
:10082000FF920F931F93CF93DF93EC01D88089E45D
:10083000D81609F443C08FE4D81609F43FC081E408
:10084000D81298C01A810B81812F902F0E948B01A2
:1008500081118EC0812F902F0E94840122EA31E005
:100860003F832E8320EC31E0398728872BED31E060
:100870003B872A87282F30E0F901E35DFE4F108285
:10088000A901440F551FFA01EC5CFE4F1182108242
:10089000FA01E05FFE4F11821082F901E25EFE4F25
:1008A0001083C0912B01D0912C010E947A018C2BD6
:1008B0009D2B90932C0180932B0158C00A811B81A2
:1008C000C8010E943202811153C0C8010E94250252
:1008D000C82E811117C0C8010E948B01813009F414
:1008E00047C081110FC0E0902B01F0902C01C8018E
:1008F0000E9484010E947A018E299F2990932C01E5
:1009000080932B01C8010E941B022C2D30E0F901BD
:10091000EB5DFE4F9081982B90838095F901E95D06
:10092000FE4F908198239083F901E75DFE4F9081FF
:10093000982390838FE4D81202C061E001C060E088
:10094000C8010E945A0289818E3621F461E0C801F3
:100950000E9488028EE293E09F838E8386EB92E072
:100960009987888788EE92E09B878A8780E003C01A
:1009700082E001C083E0DF91CF911F910F91FF9042
:10098000EF90DF90CF9008950F931F93CF93DF9355
:100990008C01FC0180818934F1F08F34E1F08134E5
:1009A00049F5C281D381C031D10520F5CE010E9425
:1009B0008B018230F9F0F8018181893629F0863780
:1009C00029F08536B9F403C0C06C01C0C064F801D9
:1009D000D383C2830BC0F801828193810E943202CB
:1009E000823041F0F80181818E3611F480E003C03D
:1009F0008037E1F383E0DF91CF911F910F9108954C
:100A00000F931F93CF93DF93FC018081893499F179
:100A10008F3489F1813409F070C0C281D381CE0155
:100A20000E948B01813009F068C0CE010E948401D0
:100A3000182FC0912B01D0912C010E947A01809532
:100A400090958C239D2390932C0180932B01892BCF
:100A500059F480E180937A008FE080937C0090913C
:100A60006400916090936400E12FF0E0E25EFE4F3D
:100A70008FE0808342C0C281D381CE010E942502D3
:100A8000182FCE010E941B02212F30E08095F90122
:100A9000EB5DFE4F908198239083F901E95DFE4F55
:100AA000908198239083F901E75DFE4F9081982310
:100AB0009083111116C0CE010E948B01813089F400
:100AC00000912B0110912C01CE010E9484010E9403
:100AD0007A01809590958023912390932C018093A7
:100AE0002B0160E0CE010E94880260E0CE01DF9120
:100AF000CF911F910F910C945A02DF91CF911F91CA
:100B00000F910895FC018081DB018C938181119606
:100B10008C93CB010296628173812081213411F480
:100B20006F7077270E943E138E5F0895E9E2F2E02E
:100B30001192119282E0ED33F807D1F70895E9E2BE
:100B4000F2E080E090E021913191232B81F443E2A7
:100B5000489F9001499F300D1124235C3D4FFC01BB
:100B6000EE0FFF1FE75DFD4F3183208306C0019626
:100B70008A30910541F720E030E0C901089520E076
:100B800030E063E2629FA001639F500D1124435C3B
:100B90005D4F8417950741F4F901EE0FFF1FE75DE4
:100BA000FD4F1182108208952F5F3F4F2A3031058B
:100BB00049F7089580915B0190915C0101968F3F08
:100BC0002FEF920709F002C081E090E090935C0162
:100BD00080935B0120915B0130915C0132272327D8
:100BE0003227C9010895E09148012E2F2F5F24304C
:100BF00008F0245030914701231304C00E94BF0520
:100C00008FEF0895F0E0EE0FFF1FEE5BFE4F908731
:100C100087832093480180E0089510924801109244
:100C2000470110925201109251010E9496051092B4
:100C300042018FE3809343011092450110924401D9
:100C400083E08093460110925C0110925B018FEF6C
:100C500080935F010C94130D0F931F93CF93DF9339
:100C60001F92CDB7DEB78C01FC0182818C3031F44C
:100C7000F80183818076803231F407C08231C1F37C
:100C80008A30E9F502C08034D1F580915201282FD5
:100C90002F5F243008F02450809151012817B9F1BA
:100CA00029830E949F05AC012981009781F183E28D
:100CB000F801DA0101900D928A95E1F7F80182813D
:100CC0008C3009F402C0823121F4FA0183818068FA
:100CD0008383E091520180915101E81307C0109283
:100CE0004501109244018FE080934301F0E0EE0F44
:100CF000FF1FEE5BFE4F528B418B20935201C801C8
:100D00000F90DF91CF911F910F910C94F305C801C3
:100D10000E94BF058FEF0F90DF91CF911F910F9130
:100D200008952091510180915201821721F1E22F03
:100D3000F0E0EE0FFF1FEE5BFE4F818992892F5F7F
:100D4000209351010E94BF0580915101843018F019
:100D500084508093510190915201809151019813D8
:100D600007C010924501109244018FE38093430124
:100D700083E0809346010895E09147018091480106
:100D8000E81789F08E2F8F5F843008F402C08E2F11
:100D9000835080934701F0E0EE0FFF1FEE5BFE4FA4
:100DA0002781308502C020E030E0C9010895AF926C
:100DB000BF92DF92EF92FF920F931F93CF93DF9337
:100DC0001F92CDB7DEB78C01F62ED22EE32E842FE4
:100DD000885F8432C8F549830E949F055C010097B3
:100DE00099F10E941D11D5018C934981842F895F4F
:100DF00011968C9311978CE012968C931297139600
:100E0000FC92139710270127102715961C930E9319
:100E1000149749830E94DA05F501978386833896F3
:100E2000498150E06D2D7E2DCF010E948613C501B2
:100E30000F90DF91CF911F910F91FF90EF90DF9076
:100E4000BF90AF900C942C068FEF0F90DF91CF9155
:100E50001F910F91FF90EF90DF90BF90AF9008959A
:100E6000EF92FF920F931F93CF93DF93082F162FCC
:100E70007A01862F8A5F843220F50E949F05EC015B
:100E80000097F9F00E941D118883812F8B5F898361
:100E900082E18A830B830E94DA059D838C839E0105
:100EA0002A5F3F4F412F50E0B701C9010E948613CE
:100EB000CE01DF91CF911F910F91FF90EF900C9495
:100EC0002C068FEFDF91CF911F910F91FF90EF9044
:100ED0000895DF92EF92FF920F931F93CF93DF93CA
:100EE0008C01F62ED42EE52E862F895F843250F5A4
:100EF0000E949F05EC01009729F10E941D11888333
:100F00008F2D8A5F89838AE08A8310270127102723
:100F10001C830B830E94DA059E838D839E01295FCB
:100F20003F4F4F2D50E06D2D7E2DC9010E9486133D
:100F3000CE01DF91CF911F910F91FF90EF90DF9045
:100F40000C942C068FEFDF91CF911F910F91FF90A2
:100F5000EF90DF9008950C940D06EF92FF920F939F
:100F60001F93CF93DF9390914301992321F09150E8
:100F700090934301C8C090914201992321F0913090
:100F800009F0C1C073C08FE3809343018091440195
:100F900090914501009731F001979093450180931E
:100FA0004401B1C080914601882321F08150809393
:100FB000460104C0F894299A0C94000089E090E05E
:100FC00090934501809344010E949F05EC01009796
:100FD00009F499C00E941D11888380915B01909152
:100FE0005C01892B19F484E08B8301C01B8281E0B2
:100FF0008C8381E09CE29E838D837E0187E0E80EF6
:10100000F11C84E189838E010F5F1F4F9701A801B6
:1010100061E080E09FEF0E949A0C8981823008F5A0
:1010200086E089839701A80161E080EC9FEF0E9430
:101030009A0CF9802F2D30E08901095F1F4F0C0FAA
:101040001D1FFE01E20FF31F8FE58783F394F982E2
:101050000E941D11682FC80101960E942A138F0D4E
:10106000898389818A5F898384E02FC09FE390937D
:10107000430120914401309145012115310539F09A
:101080002150310930934501209344013CC0909197
:101090004601992351F091509093460120915101BE
:1010A00090915201291316C003C00E940D062BC057
:1010B000811129C00E949F05EC01009721F10E9437
:1010C0001D11888382E0898386E18A83CE010E9494
:1010D000F30519C00E949F05009791F0E09151011E
:1010E000F0E0EE0FFF1FEE5BFE4F0188F289E02D6E
:1010F00023E2DC0101900D922A95E1F70E94F305AD
:101100008FE08093430180E0DF91CF911F910F9199
:10111000FF90EF9008950F931F93CF93DF93EC010F
:101120008A818C3009F4A0C070F4853019F120F464
:10113000813009F02AC116C08A3009F455C08B30BD
:1011400009F023C170C0833109F4EEC020F48D3062
:1011500009F01BC1CDC0873109F4FCC0883109F00A
:1011600014C10FC183E0898382E08A830E941D112C
:101170008B83BAC080914201811107C18FE38093B4
:1011800043018B818111FDC081E080934201109267
:1011900045011092440183E08093460110925E0164
:1011A00010925D010E941D118F3F09F4EEC08091E5
:1011B0005B0190915C01892B09F0E7C086E189838E
:1011C0008E010D5F1F4FAE014F5F5F4F980161E0D1
:1011D00080EC9FEF0E949A0C9801498161E280ECBB
:1011E0009FEF0E94D706D1C080914201882309F465
:1011F000CCC08D819E8198278927982720915D01F9
:1012000030915E018217930749F090935E018093BD
:101210005D01CE010E94A00B80935F0187E089836E
:101220008BE08A835EC080914201813009F0ADC0BD
:10123000E0915101F0E0EE0FFF1FEE5BFE4F0188E1
:10124000F289E02D82818A3009F09FC08F8181115F
:1012500006C08B819C8198278927982702C080E04F
:1012600090E00E94850C5DC080914201813009F0C0
:101270008CC08FE38093430183E0809346018E818D
:101280009F8198278927982720915D0130915E01E1
:101290008217930709F47BC090935E0180935D01F0
:1012A0009E01285F3F4F498147506B8160688C8168
:1012B0009D819827892798270E945F0D80935F0161
:1012C0008B818076803209F060C087E089838DE071
:1012D0008A838C819D819C838B838E819F819E8359
:1012E0008D8380915F018F83CE010E94F3054BC0F7
:1012F00080914201813009F048C0E0915101F0E055
:10130000EE0FFF1FEE5BFE4F0188F289E02D828118
:101310008C30D9F5268137818D819E812817390738
:10132000A1F50E94910631C080914201813069F59A
:10133000E0915101F0E0EE0FFF1FEE5BFE4F0188E0
:10134000F289E02D8281823101F5248135818E81FF
:101350009F81E4CF9091470180914801981315C077
:1013600083E0809346018FE38093430180914201A3
:10137000813059F48CE291E09093450180934401CF
:1013800004C00E940D0681E006C080E004C08B818D
:1013900087FFFBCF95CFDF91CF911F910F910895DC
:1013A000809142010895CF93DF931F92CDB7DEB7AE
:1013B000F894A89588E10FB6F89480936000109295
:1013C00060000FBE80E880BF8BEA809364000E94BB
:1013D00096050E94A10D89E190E00E94D6120E941C
:1013E000AB070E949E1010929B0382E08093B00096
:1013F0001092B20093EF9093B30087BB809370007C
:101400008FE08093B10083B7817F83BF78940FEF23
:101410001FEF87E1C82E0E94FC127C01009711F19A
:10142000FC01D080D9820E941D11D81619F0898143
:10143000811111C0C7010E948B08811113C00E9445
:10144000D009813021F48981811101C008C0C70110
:101450000E94BF0507C00E94D009813019F4C7015E
:101460000E9420110E9410117C01009759F00E94E7
:10147000D009813021F4C7010E940E1303C0C701B7
:101480000E94BF050E94BC06009711F00E940E1337
:1014900080919B0380FF39C080919B038E7F809356
:1014A0009B030E945E110E94D0098983813021F53F
:1014B0000F3FFFEF1F0739F40E94390E8C010F3FD9
:1014C0008FEF1807C9F00E949F057C010097A1F0DB
:1014D000C9829C01AE014F5F5F4F60E8C8010E9466
:1014E0009A0C9701498160E2C8010E94D706C701A2
:1014F0000E94BF050FEF1FEF81E00F3F9FEF19071D
:1015000009F480E00E94AD07898383B7816083BFBF
:10151000889583B78E7F83BF7ECF1F920F920FB6C1
:101520000F9211248F9380919B0382FD05C08091BF
:101530009B03816080939B038F910F900FBE0F9050
:101540001F901895FC0120812F3401F128F42134DB
:10155000B9F0293431F41AC02035E1F0233509F40B
:1015600015C0FC018181873559F028F4823491F04F
:10157000843461F409C0843629F0873739F408C00F
:1015800082E0089584E8089584E0089580E0089555
:1015900082E8089581E00895FF920F931F93CF93FF
:1015A000DF938C0161111EC0E4E6F1E040E050E001
:1015B00012C08017910749F48CE0849F9001859FA9
:1015C000300D1124205A3E4F31C04F5F5F4F3C9683
:1015D0004C30510549F1808191818F3F2FEF920767
:1015E00041F722C0613001F5C0E0D0E08CE0F82E78
:1015F000FC9EB001FD9E700D112468587F4F4CE099
:1016000050E082EF91E00E9470138091F60190917A
:10161000F7018017910729F02196C530D10541F7D0
:1016200003C022EF31E002C020E030E0C901DF91C9
:10163000CF911F910F91FF900895BF92CF92DF92AB
:10164000EF92FF920F931F93CF93DF9300D000D0C0
:10165000CDB7DEB7B82E00E010E0C82ED12C8CE05C
:10166000B89E7001112480E691E0E80EF91EBE01DB
:101670006F5F7F4FC8010E947F0044E050E0B701D8
:10168000CE0101960E947913009771F48FEF898340
:101690008A838FEF9FEF9C838B83BE016F5F7F4FA9
:1016A000C8010E94860006C00C5F1F4F90E0003307
:1016B0001907E9F62CE02C9DC0012D9D900D1124F9
:1016C000805A9E4F0E9400056CE00DC0629FD001C1
:1016D000639FB00D1124A05ABE4F862F01900D922A
:1016E0008A95E1F7B3948AE08B1558F49CE0B99E93
:1016F000F0011124E05AFE4F8FEF9FEF9583848312
:1017000011C02B2D30E0C9010196689FF001699F3F
:10171000F00D1124E05AFE4F448155814F3F5F4F39
:10172000A9F6E4CF0F900F900F900F90DF91CF911B
:101730001F910F91FF90EF90DF90CF90BF90089591
:101740006F927F928F929F92AF92BF92CF92DF92D1
:10175000EF92FF920F931F93CF93DF93CDB7DEB736
:1017600064970FB6F894DEBF0FBECDBF8C01FC01AD
:101770008781898B80858A8B918120E030E0399642
:10178000402F40955AE01CC08191682F60536A3009
:1017900068F03C8B2B8B5E01F1E1AF0EB11CC501F3
:1017A0000E94C404982E882381F099C0B901569FE5
:1017B0009001579F300D112420533109280F311DFE
:1017C000842F8E0F891700F3E4CFF801E380F480B3
:1017D000FE24EF24FE2424E6C22E21E0D22E00E0D7
:1017E00010E03CE0832E7A2C6B2C20C0809EB00150
:1017F000819E700D1124605A7E4F44E050E0872D89
:10180000962D0E947913009709F467C0AE14BF04A7
:1018100021F4E114F10409F059C00F5F1F4FFCE0FF
:10182000CF0ED11C0C30110509F450C0F601A08078
:10183000B180FFEFAF16BF06C9F64BC049895A8980
:101840006B897C8949835A836B837C83CE010196A3
:101850000E940D04982E811139C0FE82ED828CE029
:10186000809FD001819FB00D1124A05ABE4FFE0170
:10187000319601900D928A95E1F700E010E0BE01EB
:10188000635F7F4FC8010E947F0044E050E0BE01CB
:10189000635F7F4FCE0141960E9479130097F9F064
:1018A0008D8581508E3F38F0BE016F5E7F4FC8013D
:1018B0000E94860014C00C5F1F4F60E000331607C3
:1018C000F1F60DC0802F0E941D0B09C092E0992EE9
:1018D00006C0E114F104D1F3B1CFEF2899F3892DBB
:1018E00064960FB6F894DEBF0FBECDBFDF91CF91E7
:1018F0001F910F91FF90EF90DF90CF90BF90AF902E
:101900009F908F907F906F900895E091F0010097E5
:1019100049F02CE0E29FF0011124E05AFE4F95833C
:1019200084830895EC3018F48E2F0E941D0B1092C2
:10193000F0010895AF92BF92DF92EF92FF920F9362
:101940001F93CF93DF931F92CDB7DEB7D62E7A01C8
:10195000890163700E94CC0A5C01009709F454C0AD
:10196000DC011696ED91FC911797309709F44EC063
:10197000A801B7010995482FD7FE49C0811147C07A
:10198000C50149830E94A20A498187FF1DC08F7744
:1019900018C09801280F311DF901319790819111DC
:1019A00008C0F9013297908197FF0AC0F701808340
:1019B0002EC09F3FD9F7F9013297908197FFF6CF5C
:1019C0008150823030F7F2CF882309F1F801E80F17
:1019D000F11DDF0111979C9197FF04C010828F5F6A
:1019E00010C08150813069F09801280F311DF90134
:1019F00031979081911105C0F9013297908197FF3D
:101A0000F0CFD7018C9303C042E001C043E0842FA4
:101A10000F90DF91CF911F910F91FF90EF90DF908A
:101A2000BF90AF900895CF93DF9300D000D01F9266
:101A3000CDB7DEB71092F0018FE38093F101E4E6B9
:101A4000F1E080819181019651F582E08B839E01C6
:101A50002F5F3F4FAE014D5F5F4F61E081E19FEF30
:101A60000E949A0C9E012C5F3F4FAE014D5F5F4F6D
:101A700061E080E19FEF0E949A0C9E012B5F3F4F37
:101A8000AE014D5F5F4F61E082E19FEF0E949A0CD3
:101A900069817A814C818D810E94631008C0118216
:101AA00010823C9681E0E43FF80759F6CECF0F90C4
:101AB0000F900F900F900F90DF91CF910895EF92BC
:101AC000FF920F931F93CF93DF93E62EF42E89019D
:101AD00063700E94CC0AEC01009749F188859985D2
:101AE000892B39F1E7FE17C0CE010E94A20A8F7739
:101AF000F81678F4F801EF0DF11D31979081990FE8
:101B0000990BF801EF0DF11D9083F394F812F9CFC2
:101B100002C08111F82EE885F985A8016F2DCE014C
:101B2000DF91CF911F910F91FF90EF90099482E088
:101B300001C083E0DF91CF911F910F91FF90EF9053
:101B400008950F931F93CF93DF93CDB7DEB76097C0
:101B50000FB6F894DEBF0FBECDBF9E01205F3F4F92
:101B6000AE01415F5F4F61E082E19FEF0E949A0CFE
:101B700088898F3F69F587E0888B9E01205F3F4F02
:101B800041E061E080E19FEF0E945F0D188A9E01B5
:101B9000205F3F4F40E061E080E09FEF0E945F0DDB
:101BA00084ED9DE29E878D879E01235F3F4F42E03B
:101BB00061E081E19FEF0E945F0D8CE0888B9E01C8
:101BC000205F3F4F41E061E082E19FEF0E945F0DA7
:101BD00020E03CE08FEF9FEF329FF0011124E05AAC
:101BE000FE4F958384832F5F2C30B0F3288B1092A7
:101BF000F0018FE38093F1010E94E803188A10E05E
:101C00000CE027C024E0829FC0011124BE016F5F59
:101C10007F4F805090400E947F00898181508E3F8D
:101C2000A8F4CE0101960E940D0481110FC01E82FE
:101C30001D82019FD0011124A05ABE4FFE01319692
:101C4000802F01900D928A95E1F71F5F88898F5F41
:101C5000888B88898C30B0F20E940C0460960FB695
:101C6000F894DEBF0FBECDBFDF91CF911F910F91D2
:101C70000895FF920F931F93CF93DF93CDB7DEB7F5
:101C80006D970FB6F894DEBF0FBECDBF4CE0F42EBB
:101C900035C001151105E1F4BE016F5F7F4F0E9451
:101CA0008205AE014F5F5F4F682F80E090E00E9499
:101CB0006907811148C0E091F0012CE0E29FF0013A
:101CC0001124E05AFE4F80E090EF958384833BC05F
:101CD0000115A0EF1A0709F436C0DC011A96ED9140
:101CE000FC911B97309731F48091F0018F5F8093C6
:101CF000F00104C009958823B9F327C08091F00151
:101D00008C3068F4F89EC0011124805A9E4FFC016B
:101D1000048115810F3FFFEF1F0709F0BACF109222
:101D2000F0018091F101882371F081508093F101DD
:101D3000811109C083E28D8FAE01435E5F4F61E088
:101D400080E20E9430070FEF1FEFC8016D960FB6BB
:101D5000F894DEBF0FBECDBFDF91CF911F910F91E1
:101D6000FF9008952A989EBD0DB407FEFDCF8EBD4D
:101D70000DB407FEFDCF2A9A08952A981EBC0DB413
:101D800007FEFDCF2EB5922F80E01EBC0DB407FEDE
:101D9000FDCF2EB52A9AAC01422B9A01C9010895B4
:101DA0008CB581608CBD2A9880EB8EBD0DB407FE8A
:101DB000FDCF1EBC0DB407FEFDCF8EB52A9A9CB593
:101DC0009E7F9CBD0895CF93DF93EC01289A89E113
:101DD00092E80E94B20E87EE90E80E94B20ED09375
:101DE0000502C093040289818E5F809301021092E4
:101DF000020287E08093FE0189E392E8DF91CF91B0
:101E00000C94B20E2091FF013091000298E0B901CC
:101E100066277078672F7727482F407850E0220F89
:101E2000331F6417750719F045E024273058880FD1
:101E3000915069F7309300022093FF0108951F929B
:101E40000F920FB60F9211240F931F932F933F936E
:101E50004F935F936F937F938F939F93AF93BF93B2
:101E6000CF93DF93EF93FF934A9918C10E94BD0E61
:101E700096FF07C081E092E80E94B20E1092FE0128
:101E80000DC197FFF1C08091FE01853009F442C079
:101E900030F4833071F0843009F0E6C023C088301C
:101EA00009F4A8C0893009F4C7C0873009F0DCC044
:101EB00063C00E94D00EC82F84508E3108F0D4C069
:101EC0002FEF3FEF309300022093FF018C2F0E94F1
:101ED000020F84E08093FE01C150C0930102109272
:101EE0000202DCC00E94D00EC82F882321F080910E
:101EF0000302C813B9C00E949F05009709F4B4C03B
:101F00009093050280930402299A8C2F0E94020F5D
:101F100085E0C2C00E94D00ED82FC09102028091ED
:101F20000102C81758F48D2F0E94020FE09104029D
:101F3000F0910502EC0FF11DD08306C0C81308C054
:101F400080910002D81311C0CF5FC0930202A6C0D7
:101F50008091FF01D81309C080910402909105027D
:101F600090930702809306027FC0809104029091B3
:101F700005020E94BF0578C080910202882391F17A
:101F8000813019F4C09109022EC0823019F4C09139
:101F9000080229C0833081F4C09101022FEF3FEF86
:101FA000309300022093FF018C2F0E94020F8C2F90
:101FB00081508093010217C0843049F4E0910402FB
:101FC000F0910502C0818C2F0E94020F0CC0C091BD
:101FD00003028C2F0E94020F1092020288E080936D
:101FE000FE0101C0CAEA809102028F5F8093020263
:101FF0008C2F35C0C0910402D091050210910202CD
:10200000FE01E10FF11D00811F5F10930202802F7E
:1020100090E0986B0E94B20E802F0E94020F809178
:1020200001021817D8F189E08093FE011092020294
:10203000CE010E94BF0532C090910202892F8F5FAE
:1020400080930202911103C08091000208C0823087
:1020500019F48091FF0103C0833031F480E090E0F7
:10206000986B0E94B20E1AC085B18C7F85B989E148
:1020700092E80E94B20E81E89AEC0E94B20E87E6C6
:1020800090E80E94B20E89ED92E80E94B20E83E8B9
:102090009AEC0E94B20E83E08093FE01FF91EF91D3
:1020A000DF91CF91BF91AF919F918F917F916F9170
:1020B0005F914F913F912F911F910F910F900FBE04
:1020C0000F901F901895FF920F931F93CF93DF935C
:1020D000EB01F42E90E0805C9E4F25E0289F80016C
:1020E000299F100D112480910A0290910B020097F4
:1020F00039F08017910721F0C801906A0E94B20E52
:1021000010930B0200930A02809108029091090239
:10211000009741F08C179D0729F0CE0199279E6CFE
:102120000E94B20ED0930902C0930802F0920302FB
:10213000DF91CF911F910F91FF9008951DBA85E017
:1021400085B98FE284B981E58CBD81E08DBD52985F
:102150005A9A109269000E94BD0E81E092E80E9496
:10216000B20E80E098EB0E94B20E02C00E94BD0E3B
:102170004A9BFCCF87EE90E80E94B20E81E092E885
:102180000E94B20E80910A0290910B02906A0E9406
:10219000B20E88E096EC0E94B20E8AE695E90E94A3
:1021A000B20E8CEA92EC0E94B20E81E89AEC0E9488
:1021B000B20E809108029091090299279E6C0E94AC
:1021C000B20E87E994EC0E94B20E80E898E90E9472
:1021D000B20E86E79CEC0E94B20E80E090EE0E9468
:1021E000B20E80E098EC0E94B20E80E690EC0E9465
:1021F000B20E82E08093FE0189E192E80E94B20E65
:10220000109207021092060210920C0210920D0218
:1022100010920E028CB58E7F8CBD81E08DBB08952F
:1022200020910602309107022115310521F010920C
:10223000070210920602C9010895809103020895D1
:102240000F931F93CF93DF93EC0100910D02109138
:102250000C0201130FC08091FE01833059F40E94DB
:10226000BD0E90FD07C0CE01DF91CF911F910F9160
:102270000C94E30E812F8F5F843008F0845080131C
:1022800007C0CE01DF91CF911F910F910C94BF0534
:10229000E12FF0E0EE0FFF1FE15FFD4FD183C08320
:1022A00080930C028091030282958F708F5F8093E0
:1022B0000E02DF91CF911F910F910895CF938091DE
:1022C000FE01811103C0CF910C949E108091FE01FC
:1022D000833061F5C0910D0280910C02C81731F175
:1022E0000E94BD0E90FF06C080910E02882311F05F
:1022F000815019C0EC2FF0E0EE0FFF1FE15FFD4FA2
:10230000808191810E94E30E8C2F8F5F843018F4BE
:1023100080930D0203C0C350C0930D02809103024D
:1023200082958F708F5F80930E0210C08091FE01A6
:10233000823061F483E08093FE0189ED92E80E948F
:10234000B20E83E89AECCF910C94B20ECF9108951F
:102350001F920F920FB60F9211242F933F934F931A
:102360005F936F937F938F939F93AF93BF93CF931D
:10237000EF93FF93C091C6008091190290910001E4
:10238000C03CF1F489130EC080911A0290911B0297
:1023900090931D0280931C028091170284608093A9
:1023A000170208C0833030F080911A0290911B020E
:1023B0000E94BF051092190282E08093000140C084
:1023C0008917F0F5CB3D31F480911702816080933D
:1023D000170236C09091170290FF07C09091170224
:1023E0009E7F9093170290E2C927811104C0C09389
:1023F0001E0281E023C08130C9F48C2F82508F31BE
:1024000098F48D5F809300010E949F05009709F466
:102410000BC090931B0280931A0220911E02FC01B4
:102420002083C18382E00AC08FEF08C0E0911A02C6
:10243000F0911B02E80FF11DC0838F5F809319029A
:10244000FF91EF91CF91BF91AF919F918F917F912C
:102450006F915F914F913F912F910F900FBE0F9011
:102460001F9018951F920F920FB60F9211242F9361
:102470003F934F935F936F937F938F939F93AF930C
:10248000BF93EF93FF938091010190911F028917F1
:1024900070F5E0911802F0E0EE0FFF1FE05EFD4FD7
:1024A0000190F081E02DE80FF11D9081209117023D
:1024B00021FF0AC0209117022D7F2093170220E2EE
:1024C00029272093C6000FC0903C11F09B3D49F492
:1024D0008BED8093C6008091170282608093170273
:1024E00054C09093C6008F5F809301014EC0891342
:1024F00020C080EC8093C6008FEF80930101109282
:102500001F02E0911802F0E0EE0FFF1FE05EFD4FAA
:10251000808191810E94BF05809118028F5F809316
:102520001802843090F18091180284508093180230
:102530002CC09091180280912802981308C08091B5
:10254000C1008F7D8093C10010921F021EC081E0E8
:1025500080930101E0911802F0E0EE0FFF1FE05EB2
:10256000FD4F0190F081E02D81818F5F80931F02EC
:10257000E0911802F0E0EE0FFF1FE05EFD4F0190CA
:10258000F081E02D80818093C600FF91EF91BF9193
:10259000AF919F918F917F916F915F914F913F91FB
:1025A0002F910F900FBE0F901F90189520916400EF
:1025B0002D7F209364002BB123602BB9519A509842
:1025C0009C012227307F232B31F09F702091C00087
:1025D00022602093C0009093C5008093C40088E9D6
:1025E0008093C10086E08093C2001092180210927E
:1025F00028021092170208958091170282FF0AC0E4
:10260000809117028B7F8093170220911C023091DA
:102610001D0202C020E030E0C9010895E0912802C7
:102620002E2F2F5F243008F02450309118022313EE
:1026300002C00C94BF05F0E0EE0FFF1FE05EFD4FFF
:1026400091838083209328028091C10080628093CF
:10265000C1000895262F22952F702A3010F0295C92
:1026600001C0205DFC0120836F706A3010F0695C4E
:1026700001C0605DFC01618382E00895FC0181E09E
:1026800020E137E240E090E004C0621B730B9F5FE3
:1026900041E062177307C8F7283E53E0350789F019
:1026A000203157E2350721F02436310539F403C0D3
:1026B00028EE33E008C02AE030E005C021E030E039
:1026C00002C024E630E0442329F0905D91938F5FAF
:1026D00041E090E02A303105E0F6605D60830895C6
:1026E000FB01DC0102C005900D9241505040D8F72B
:1026F0000895FB01DC0104C08D910190801921F443
:1027000041505040C8F7881B990B0895FB01DC012C
:1027100002C001900D9241505040D8F70895DC015D
:10272000CB01FC01F999FECF06C0F2BDE1BDF89ADC
:10273000319600B40D9241505040B8F70895F99980
:10274000FECF92BD81BDF89A992780B50895DC012E
:10275000CB0103C02D910E94B21341505040D0F7DD
:102760000895262FF999FECF1FBA92BD81BD20BDD5
:102770000FB6F894FA9AF99A0FBE01960895F89454
:02278000FFCF89
:0C27820002FF00FFFFFFFFFFFFFF010050
:00000001FF
