:100000006AC0000085C0000083C000000C94251D5C
:100010007FC000007DC000000C9499180C948418D7
:1000200077C0000075C0000073C0000071C0000000
:100030006FC000006DC000006BC0000069C0000010
:1000400067C0000065C00000B6C600008AC6000098
:100050005FC000006CC200005BC0000059C000001F
:100060000C94530955C00000000102030405FF066B
:10007000FFFFFFFFFFFF07FFCF00670033001900FE
:100080000C004573320000FF97003D01000045570A
:10009000300001FF9700AF1800004542490010FFF3
:1000A00097003D01000045574B0011FF97003D01AF
:1000B00000004542480012FF97003D0100004673D2
:1000C000CA00C0FFE200000000000A4E44554E3155
:1000D000302E3235340011241FBECFEFD8E0DEBF02
:1000E000CDBF11E0A0E0B1E0E8EEF0E402C0059081
:1000F0000D92A034B107D9F724E0A0E4B1E001C02B
:100100001D92AB37B207E1F70E94C4170C9472201E
:1001100077CF9C01CB0144E050E0B9010C9443201F
:100120009C01CB0144E050E0B9010C945B20EF92BC
:10013000FF920F931F93CF93DF93EB017A01FC01A2
:100140000281138181818236B1F058F48434E9F060
:1001500018F4823479F50FC08735A9F0813651F54E
:1001600017C08337A9F018F4843621F50EC08737FD
:1001700051F08A37F9F481E08883C8010E94532046
:10018000F701808315C082E001C084E088830AC043
:10019000C8010E9453209881981708F4892F8883FA
:1001A0000F5F1F4F488150E0B801C7010E944320F4
:1001B00080E001C083E0DF91CF911F910F91FF900C
:1001C000EF9008950F931F93CF93DF93EB01DA0124
:1001D000FC016281738181818236D1F068F48434BC
:1001E00031F120F4823409F042C012C08735B1F0F9
:1001F000813609F03CC02DC0833759F120F4843694
:1002000009F035C014C0873749F08A3709F02FC08C
:1002100081E08883FB0164916C9319C082E088833C
:10022000FB01859194918C9311969C9310C084E06E
:100230008883FB0105911591259134910C931196BA
:100240001C93119712962C93129713963C9380E06F
:100250000FC0FB0114918881811708F4182F6F5F7C
:100260007F4F412F50E0CD010E942420188383E06E
:10027000DF91CF911F910F910895EF92FF920F930D
:100280001F93CF93DF931F92CDB7DEB7FC01262FCC
:100290008A01E280F38081818236B1F058F484349F
:1002A000A9F018F4823439F50FC08735D9F08136BA
:1002B00011F50EC0833761F018F48436E1F406C0FE
:1002C000873781F08A37B9F421E00DC024E00BC0F4
:1002D000622FC70129830E9464208FEFE81AF80A71
:1002E000298101C022E0422F50E0B701C8010E94DD
:1002F0005B2080E001C083E00F90DF91CF911F91E0
:100300000F91FF90EF9008958AD1DDD376D50C94AC
:10031000000A0C940C0AFC012081213538F42F349A
:1003200048F4213431F0293439F404C0233521F460
:1003300002C0C0C1FAC397C583E00895FC012081C3
:10034000213538F42F3448F4213431F0293439F48C
:1003500004C0233521F402C087C1C2C376C583E03F
:100360000895FC012081213538F42F3448F42134DC
:1003700031F0293439F404C0233521F402C0DFC13F
:100380004EC440C60895FC018081DB018C938181BD
:1003900011968C93CB010296628173812081213466
:1003A00011F46F7077270E947E1F8E5F08958F7003
:1003B00021E030E002C0220F331F8150E0F7C90175
:1003C00008958F70992788599F4FFC018491089553
:1003D000CF93DF931F92CDB7DEB7FC01828193816B
:1003E0006983EFDF69816623B9F0E82FF0E0E45913
:1003F000FE4F80E480838091640080FD0BC080E12B
:1004000080937A008FE080937C008091640081600B
:100410008093640080E03BC09091640090FF15C021
:100420009FEF9093430190934001909164009E7FD1
:10043000909364009FE090937C009FE990937A00F2
:1004400090917A00906490937A00E82FF0E0DF01B9
:10045000A459BE4F8C9181508C938111DBCFEE0F4C
:10046000FF1FDF01AC5BBE4F2D913C91285F3F4FDA
:1004700044E0369527954A95E1F7E45AFE4F80818E
:1004800091818217930731F23183208381E00F90AD
:10049000DF91CF910895CF93DF93EA01FC01828130
:1004A00093818FDF90E0FC01EE0FFF1FE45AFE4FB7
:1004B0002881398131832083FC01E459FE4F21E0FA
:1004C000208380E0DF91CF9108950F931F93CF9306
:1004D000DF938B01EA01FC018281938172DF92E05C
:1004E000F8019083E82FF0E0EE0FFF1FE45AFE4F73
:1004F000808191819983888380E0DF91CF911F91E2
:100500000F910895CF93DF935CDF8F3F61F0C0912F
:10051000FB02D091FC024BDFC823D92381E0CD2B15
:1005200019F480E001C082E0DF91CF9108951F921D
:100530000F920FB60F9211242F933F934F938F93E7
:100540009F93EF93FF932091780030917900409131
:100550004001403170F58091410190914201820F3C
:10056000931F9093420180934101411134C0209127
:100570007C002F3059F0E0914301E83038F4F0E08E
:10058000EE0FFF1FEC5BFE4F918380838091430150
:100590008F5F01C0822F883048F5282F2F5FE82F0A
:1005A000F0E0EC5AFE4F90819F30A1F3809343011D
:1005B00012C0403F81F41092420110924101E0913B
:1005C0004301E83028F4F0E0EC5AFE4F808101C08E
:1005D0008FE080937C0080914001815080934001A6
:1005E00080917A00806580937A000DC080934301EA
:1005F00080E180937A008FE080937C00809164009A
:10060000816080936400FF91EF919F918F914F9152
:100610003F912F910F900FBE0F901F90189580E182
:1006200080937A008FE080937C00E4E6F0E0908194
:10063000916090831092FC021092FB021092430191
:100640009FEF9093400180935401809355018093D4
:1006500056018093570180935801809359018093EC
:100660005A0180935B0108950F931F93CF93DF93FB
:100670008C01FC01C281D381C031D105A8F4CE0127
:1006800041DF823089F0F8018181893629F086378F
:1006900029F0853649F403C0C06C01C0C064F8017C
:1006A000D383C28380E001C083E0DF91CF911F91AB
:1006B0000F9108950F931F93CF93DF93EC011A814D
:1006C0000B81812F902F1EDF811133C0812F902F3E
:1006D00078DE25E632E03F832E832BE432E0398753
:1006E000288728EE31E03B872A87282F30E0F90160
:1006F000E459FE4F1082A901440F551FFA01E45A34
:10070000FE4F11821082FA01EC5BFE4F11821082C3
:10071000F901EC5AFE4F1083C091FB02D091FC020C
:1007200046DE8C2B9D2B9093FC028093FB0280E095
:1007300001C082E0DF91CF911F910F9108951F9327
:10074000CF93DF93FC01C281D381CE01DBDE813008
:1007500019F5CE0136DE182FC091FB02D091FC02B4
:1007600026DE809590958C239D239093FC028093A8
:10077000FB02892B59F480E180937A008FE080930B
:100780007C0090916400916090936400E12FF0E010
:10079000EC5AFE4F8FE08083DF91CF911F91089537
:1007A000887F992740978930910528F4FC01E05013
:1007B000FF4F808108958FEF08959C0127703327A4
:1007C00081E001C0880F21503109E0F708950F93AF
:1007D0001F93CF93DF931F92CDB7DEB78C01698350
:1007E000ECDF087F112769810031110521F0083104
:1007F0001105A1F40AC098B1662319F0982B98B995
:100800000DC08095892388B909C09BB1662319F072
:10081000982B9BB903C0809589238BB90F90DF91EA
:10082000CF911F910F9108950F931F93CF93DF9353
:100830001F92CDB7DEB78C016983BFDF087F112718
:1008400069810031110521F008311105A1F40AC0B8
:1008500097B1662319F0982B97B90DC0809589231D
:1008600087B909C09AB1662319F0982B9AB903C0C9
:10087000809589238AB90F90DF91CF911F910F91B5
:1008800008950F931F93CF93DF93FC01C281D3810F
:10089000DA011C9190818181993499F4CE0180DF35
:1008A000082FCE018ADFE02FF0E0EA58FE4F112337
:1008B00019F09081982B03C08095908198239083A4
:1008C0001FC09F3459F48E3611F4109502C0803742
:1008D000A9F4612F6170CE017ADF12C0903581F4E6
:1008E0008E3609F4109581E090E06D9711F480E068
:1008F00090E0FC01E658FE4F108302C083E001C087
:1009000080E0DF91CF911F910F9108951F93CF93B6
:10091000DF93EC0152DF182F9E01287F332720310F
:10092000310521F02831310579F402C0807C61F471
:10093000CE0136DFE82FF0E0EC58FE4F9081912396
:1009400081E019F480E001C082E0DF91CF911F9136
:100950000895887F99278031910519F0489729F4E7
:1009600002C086B1089589B1089580E00895FF928C
:100970000F931F93CF93DF93FC01C281D3818081BA
:100980001181893441F561116CC0CE01E2DF082F7D
:10099000CE0106DFF82ECE0110DF982F1E3609F4A7
:1009A00000950923EF2DF0E0DF01A858BE4F8C9190
:1009B000282F2923021719F098279C9352C0EA5830
:1009C000FE4F8081282F2923021709F44AC0982757
:1009D000908381E047C08F3479F4113619F01134D7
:1009E00009F03FC091E0611190E081E0113609F01B
:1009F00080E0692F68272FC0803599F5CD31D1056A
:100A0000C1F468B580917A01681759F1861710F41E
:100A1000615001C06F5F68BD862F81508E3F30F0FE
:100A200084B58F7D84BD8DE190E016C084B5806271
:100A300017C067B580917B01681799F0861710F48D
:100A4000615001C06F5F67BD862F81508E3F30F0CF
:100A500084B58F7784BDCE01BADE03C084B58068CB
:100A600084BD80E0DF91CF911F910F91FF90089599
:100A7000BF92CF92DF92EF92FF920F931F93CF938B
:100A8000DF93EC016B017A010A811B81C80161DFF0
:100A9000B82E89818E3609F4B09481E0F601808306
:100AA000C8018BDE8B2191E009F490E0F70190837F
:100AB00080E0DF91CF911F910F91FF90EF90DF9039
:100AC000CF90BF9008951092740110927601109209
:100AD00078011092750110927701109279010895B2
:100AE0000F931F93CF93DF93EC010A811B81C80101
:100AF0000DDF8230A1F089818E3631F0803721F010
:100B0000813411F0813659F48881803511F080E00C
:100B100007C00D311105D9F30E311105C1F383E082
:100B2000DF91CF911F910F910895DF92EF92FF9285
:100B30000F931F93CF93DF938C01FC01C281D3816C
:100B4000CE01E4DE882311F082E061C0CE0128DE10
:100B5000D82E811113C0CE01D5DC8130A9F38111CB
:100B60000DC0E090FB02F090FC02CE012ADC1FDCFD
:100B70008E299F299093FC028093FB02CE011DDEFB
:100B80002D2D30E0F901EC58FE4F9081982B908389
:100B90008095F901EA58FE4F908198239083F901DE
:100BA000E858FE4F908198239083F80180818F341C
:100BB00011F461E013C0803581F461E0CE0134DED0
:100BC00084B5807A69F4809164008F7D809364009D
:100BD00083E084BD84E085BD03C060E0CE0124DEF7
:100BE000F80181818E3611F0813419F461E0CE0173
:100BF000EEDD88E395E0F8019783868381E494E055
:100C00009187808787EB94E09387828780E0DF91EC
:100C1000CF911F910F91FF90EF90DF900895EF9289
:100C2000FF920F931F93CF93DF938C01FC01C2813E
:100C3000D381CE01B5DDF82ECE01BFDD2F2D30E002
:100C40008095F901EC58FE4F908198239083F9012B
:100C5000EA58FE4F908198239083F901E858FE4F9F
:100C6000908198239083F11013C0CE014BDC81302A
:100C700079F4E090FB02F090FC02CE01A2DB97DB5E
:100C8000809590958E219F219093FC028093FB028A
:100C9000F80180818035A1F4828193814D9719F408
:100CA00084B58F7D02C084B58F7784BD84B5807A8A
:100CB00039F414BC15BC8091640080628093640098
:100CC00060E0CE0184DD60E0CE01DF91CF911F9125
:100CD0000F91FF90EF90A8CDCA0120919A01FB01DE
:100CE000208340919A012CE731E050E0B9010E9445
:100CF0003A2010929A011092BC0180E008958091F0
:100D00009A01882371F080919A01883160F4909162
:100D10009A018091BC01981731F080919A018093DB
:100D2000BC0180E0089581E00895CF93C62FBA01F9
:100D300080919C01811112C02DE931E04C2F50E0CF
:100D4000C9010E943A2010929B01C0939C0180919E
:100D5000C10080628093C10080E001C081E0CF913A
:100D600008951F920F920FB60F9211248F939F93A5
:100D7000EF93FF9380919B0190919C01891758F408
:100D8000E82FF0E0E356FE4F90819093C6008F5F0E
:100D900080939B0107C010929C018091C1008F7DC0
:100DA0008093C100FF91EF919F918F910F900FBEA3
:100DB0000F901F9018951F920F920FB60F9211244B
:100DC0008F939F93EF93FF939091C60080919A0128
:100DD0008D3150F480919A01E82FF0E0E458FE4FF5
:100DE00090838F5F80939A01FF91EF919F918F91F4
:100DF0000F900FBE0F901F9018958091C1008F76B5
:100E00008093C1008091C100887129F480916400B1
:100E10008D7F809364008091C100877F8093C100A3
:100E20008091C100887129F4809164008260809370
:100E300064008FEF8093BB0110929B0110929C0184
:100E40001092BC0110929A010895FC0121818281C7
:100E50009381059730F4223711F480E00895243708
:100E6000E1F383E008950F931F93CF93DF93CDB702
:100E7000DEB72C970FB6F894DEBF0FBECDBF8C0146
:100E8000DC0111968C91843709F055C089E190E01E
:100E90003DDD882311F082E0AAC02091BB012F3FE5
:100EA00019F5809164008D7F80936400D8011296BB
:100EB000ED91FC911397E093BB01FF27EE0FFF1F0D
:100EC000E858FF4F859194919C012227307F232B76
:100ED00031F09F702091C00022602093C000909359
:100EE000C5008093C40007C030E0F801828193817F
:100EF0002817390781F68091C10088608093C1006E
:100F000086E08093C2008FE489838EE68A8389E13C
:100F100090E09C838B83D80117961C921E921697A3
:100F200085E996E019969C938E9318971B961C92D0
:100F30001E921A9758C0823709F0ADCF88E190E031
:100F4000E5DC8111A8CF2091BB012F3F19F58091DD
:100F500064008D7F80936400D8011296ED91FC911E
:100F60001397E093BB01FF27EE0FFF1FE858FF4FD9
:100F7000859194919C012227307F232B31F09F7023
:100F80002091C00022602093C0009093C500809300
:100F9000C40008C030E0F801828193812817390726
:100FA00009F079CF8091C10080698093C10086E00B
:100FB0008093C20089E489838EE68A8388E190E089
:100FC0009C838B838CE696E0D80117969C938E9336
:100FD000169719961C921E9218978FE796E01B960B
:100FE0009C938E931A97CE0101969FDD80E02C96FC
:100FF0000FB6F894DEBF0FBECDBFDF91CF911F912A
:101000000F910895FC0181818437A9F48091C1007A
:10101000877F8093C1008091C100887129F48091FD
:1010200064008260809364008FE480838EE6818315
:1010300089E190E016C08237C1F48091C1008F76BB
:101040008093C1008091C100887129F4809164006F
:101050008D7F8093640089E480838EE6818388E1BC
:1010600090E093838283CF01DACD089581E0FB0184
:1010700080838091BD018695FA01808380E0089588
:10108000FA0180818093C50180E00895662359F0BC
:101090001092BC00809164008068809364008FEFA0
:1010A0008093C60144C08091FD02811104C08FEF7E
:1010B0008093C5013CC08091BD019091C5019817F6
:1010C00029F08093C5011092C60131C02091C6015C
:1010D0002F5F2093C601203C39F08091FD02837878
:1010E00090E0813891055CF01092BC008091640022
:1010F00080688093640080E88093FD0216C021110F
:1011000016C0809164008F778093640080E28093A2
:10111000B8008FEF8093BB0094E09093BC001092D6
:10112000FD021092BD018093C50181E0089580E029
:1011300008950F931F93880F8093BD016093FD0264
:101140004093BE012093BF011093C1010093C001E1
:1011500064EA54E877C06093BC008091BC0087FFCC
:10116000FCCF8091B900883029F08091B90080319E
:1011700009F036C09091FD028091BD0191FD01C042
:1011800081608093BB005093BC008091BC0087FFBE
:10119000FCCF8091B900883129F08091B90080346A
:1011A00009F01EC08091FD0281FD20C040E041C0D9
:1011B000E091C001F091C101E80FF11D9081909381
:1011C000BB008F5F5093BC009091BC0097FFFCCF99
:1011D0009091BE01891758F49091B900983239F076
:1011E00084E98093BC008091B90039C080E090917F
:1011F000BE018917E8F28091FD028D7F21C0842F06
:1012000090E0019630E08217930714F484EC01C05B
:1012100084E88093BC008091BC0087FFFCCFE09104
:10122000C001F091C101E40FF11D8091BB008083EA
:101230004F5F2091BF01421710F38091FD028E7F16
:101240008093FD028091FD02837009F084CF84E9D0
:101250008093BC001092FD021092BD018FEF1F9190
:101260000F910895EF92FF920F931F939091FD02BB
:1012700097FD14C0880F8093BD016093FD024093D9
:10128000BE012093BF011093C1010093C001F092F1
:10129000C301E092C20185EA8093BC001F910F91C7
:1012A000FF90EF9008951F920F920FB60F921124A6
:1012B0002F933F934F935F936F937F938F939F935E
:1012C000AF93BF93EF93FF938091B900887F8832EB
:1012D00021F140F48031A1F08831F9F0883009F033
:1012E00076C00EC0803409F448C020F4803309F081
:1012F0006EC026C0803599F1883509F068C049C0B4
:101300001092C4019091FD028091BD0191FD01C038
:1013100081608093BB0085E860C08091C40190919A
:10132000BE01891768F4E091C001F091C101E80F96
:10133000F11D90819093BB008F5F8093C401EBCF30
:101340008091FD028D7F8093FD028091FD0280FFE0
:1013500002C085EA42C084E98093BC0030C080911D
:10136000C401E091C001F091C101E80FF11D90911D
:10137000BB0090838F5F8093C4012091C40130E053
:101380008091BF0190E001972817390724F685EC7A
:1013900024C08091C401E091C001F091C101E80F27
:1013A000F11D9091BB0090838F5F8093C40184E90D
:1013B0008093BC008091FD028E7F8093FD02E091BE
:1013C000C201F091C301309751F0099508C0809196
:1013D000FD0280688093FD0284E98093BC00FF9148
:1013E000EF91BF91AF919F918F917F916F915F919D
:1013F0004F913F912F910F900FBE0F901F90189516
:101400001092FD028FEF8093BD011092C5011092E2
:10141000C3011092C20108951F93CF93DF931092DE
:10142000BC008091640080688093640084E190E057
:101430006DDA81116FC085E190E068DA81116AC0D0
:1014400084E190E0BAD9C82F85E190E0B6D9C82BE5
:1014500084E190E07EDA8C238C135CC08091640080
:101460008F778093640080E28093B8008FEF809341
:10147000BB0084E08093BC000E94BE19EC01009781
:1014800009F448C01092C3011092C2012FEF84E307
:101490009CE0215080409040E1F700C000000ED455
:1014A000182FBBD5180FA4D6180F0E946212180F60
:1014B0000BD1810F61F48FEF9FEF9D838C8310928E
:1014C000BC008091640080688093640023C098DF32
:1014D00089E4888380E7898384E190E09B838A8321
:1014E000CE0123DB85E190E09B838A83CE011DDB67
:1014F00086E398E09F838E8380E498E099878887CD
:1015000086E498E09B878A8784E5888382E48983E0
:101510001B821A82DF91CF911F910895FA01DC019D
:1015200012968D919C91139783709927B081A18118
:10153000728163815481458136812781FC01EE0FE0
:10154000FF1FEE0FFF1FEE0FFF1FE953FE4FB0838B
:10155000A183728363835483458336832783FC018D
:10156000E951FE4F21E0208380E00895EF92FF9241
:101570000F931F93CF93DF93EC0161119DC0EA811C
:10158000FB81E370FF27DF01A951BE4F8C918230B0
:1015900021F41C921092FD028FC0813009F08CC0A2
:1015A0008091FD02811188C08F0193E0000F111F0F
:1015B0009A95E1F7D801A953BE4FBC912B2F30E08B
:1015C00040E050E060E070E090E0A3E60E940C2074
:1015D00009F459C00E940C2009F030F5A3E40E94E0
:1015E0000C2009F450C00E940C2009F058F4A1E42A
:1015F0000E940C2009F445C0A2E40E940C2009F0CE
:1016000048C04DC02B2F30E040E050E060E070E07B
:1016100080E090E0ACE40E940C20A9F1A7E50E94D4
:101620000C20D9F1A8E415C02B2F30E040E050E0A9
:1016300060E070E080E090E0AEE60E940C2019F1DE
:101640000E940C2009F048F4A6E60E940C20E9F064
:10165000A8E60E940C20E9F416C02B2F30E040E0F1
:1016600050E060E070E080E090E0A0E70E940C2095
:1016700051F00E940C2058F0A4E70E940C2049F47D
:1016800004C045E00DC044E00BC042E009C041E0A9
:1016900007C0E951FE4F10820FC048E001C046E08C
:1016A000E951FE4F82E0808309531E4FE12CF12C5B
:1016B00020E06AE08B81D6DD80E0DF91CF911F9141
:1016C0000F91FF90EF9008955F926F927F928F92AB
:1016D0009F92AF92BF92CF92DF92EF92FF920F93C1
:1016E0001F93CF93DF931F92CDB7DEB7512C58E0F5
:1016F000652E61E6962E7EE8C72E7AE0D72EE6EBC1
:10170000AE2EEAE0BE2EF4E58F2EA1E77A2E998266
:101710008E010F5F1F4F21E041E063E0862D09DD60
:101720008F3F79F5898186112CC00E94BE19FC017A
:10173000009779F117821682D186C086B386A28679
:1017400080827182252D30E0F62CE12CC701820FBA
:10175000931F93838283F90143E0EE0FFF1F4A95A5
:10176000E1F7E953FE4F1082118212821382148234
:10177000158216821782F901E951FE4F81E08083BC
:10178000539463948FE1681621F083E0851508F087
:10179000BECF852D0F90DF91CF911F910F91FF90BC
:1017A000EF90DF90CF90BF90AF909F908F907F9001
:1017B0006F905F900895FC01228120FF11C084E0AA
:1017C000FB0180838091EB019091EC01A091ED01F0
:1017D000B091EE01FA0180839183A283B3830AC0A2
:1017E00082E0FB0180838091EF019091F001FA018A
:1017F0009183808380E00895FC012281FA0120FF1B
:101800000DC080819181A281B3818093EB0190937F
:10181000EC01A093ED01B093EE0106C080819181AF
:101820009093F0018093EF0180E008954F925F92D2
:101830006F927F928F929F92AF92BF92CF92DF92E0
:10184000EF92FF920F931F93CF93DF93CDB7DEB745
:1018500028970FB6F894DEBF0FBECDBF8091F1017F
:101860008D3011F080E030C18EE08093F1018091E5
:10187000FE028090FF02912CA12CB12CBA2CA92C35
:10188000982C8824A82A80910003882AA5E0B69481
:10189000A79497948794AA95D1F71092FD02C090CF
:1018A0000802D0900902E0900A02F0900B0220EAB0
:1018B000C21A2FE0D20AE108F108A7019601C70178
:1018C000B6010E94B01FDC01CB011CE0B595A795C5
:1018D000979587951A95D1F789839A83AB83BC83B3
:1018E000A0910002B091010229813A814B815C8173
:1018F0000E9406202B013C01A091F401B091F5015A
:10190000A70196010E9406206D837E838F839887AE
:101910000091F2011091F301A091F601B091F7014D
:101920000E9406206B017C018DE0F594E794D7942A
:10193000C7948A95D1F7A091FE01B091FF0129814A
:101940003A814B815C810E940620BB2797FDB095B0
:10195000AB2FC80ED91EEA1EFB1E92E0C90ED11C89
:10196000E11CF11C32E0F594E794D794C7943A95C2
:10197000D1F7A0E8DA0EE11CF11CA091F801B091BA
:10198000F901A70196010E94FC1F6B017C014FE049
:10199000F694E794D794C7944A95D1F7C801AA273B
:1019A00097FDA095BA2F52E0880F991FAA1FBB1F61
:1019B0005A95D1F76BE075946794579447946A955C
:1019C000D1F72D813E814F8158857BE05595479514
:1019D000379527957A95D1F7420E531E641E751ED2
:1019E000840D951DA61DB71D880F991FAA1FBB1F2B
:1019F000881A990AAA0ABB0AAAE6B8E1A5019401C5
:101A00000E94FC1F97FD0BC0660F771F881F991F50
:101A1000A70196010E94BF1F49015A010AC0A701F0
:101A200096010E94BF1F49015A01880C991CAA1CEB
:101A3000BB1C9927B7FC9A958B2D7A2D692D9B019C
:101A4000AC010E94B01F9B01AC01AEEDBBE00E9457
:101A5000FC1F6C01FF24D7FCF094EF2CA3E4B3EE41
:101A6000A50194010E940820BB2797FDB095AB2FDC
:101A7000C80ED91EEA1EFB1E3FECC30E3EE0D31E6D
:101A8000E11CF11C44E0F594E794D794C7944A957F
:101A9000D1F7C80CD91CEA1CFB1C8091EB0190917A
:101AA000EC01A091ED01B091EE01C816D906EA064D
:101AB000FB0609F4D7CEC092EB01D092EC01E09284
:101AC000ED01F092EE0181E028960FB6F894DEBFAA
:101AD0000FBECDBFDF91CF911F910F91FF90EF907F
:101AE000DF90CF90BF90AF909F908F907F906F903E
:101AF0005F904F900895CF92DF92EF92FF920F93F5
:101B00001F93662311F08FEDCFC08091FD02807C82
:101B100079F08091F101811101C0C8C080E4809307
:101B2000F1019091FD0296FFC1C08093FD02BEC0FD
:101B30008091FD02837009F0B9C08091F101843079
:101B400039F148F48130F9F0B8F0823009F183308E
:101B500009F0A7C018C0883009F497C030F4853068
:101B600001F1863009F09DC083C0893009F480C03E
:101B70008B3009F096C089C08091FD0283FD96C02C
:101B800081E08093F10184EF8093FE028EE273C0C6
:101B900086EF8093FE02E12CF12C0EEF12E022E0A2
:101BA0007CC09091FE0280E02091FF02AC01422BAC
:101BB0009A0140E050E08091FC019091FD01281BCA
:101BC000390B41095109A091FA01B091FB010E9422
:101BD000FC1F6B017C01FFE0F594E794D794C79458
:101BE000FA95D1F76091040270910502882777FD7C
:101BF0008095982FABE0660F771F881F991FAA95D5
:101C0000D1F72091060230910702442737FD409515
:101C1000542F2C0D3D1D4E1D5F1D0E94E11F2C0DEC
:101C20003D1D4E1D5F1D2093080230930902409315
:101C30000A0250930B02BA01A901485F5F4F6F4F30
:101C40007F4FB4E07595679557954795BA95D1F74D
:101C50008091EF019091F0018417950711F186E0D2
:101C60008093F1015093F0014093EF0181E01FC098
:101C700084EF8093FE028093FF02E12CF12C0EEFA3
:101C800012E020E042E06AE00AC086EF8093FE02A4
:101C9000E12CF12C0EEF12E023E041E06BE087E74E
:101CA000E1DA8091F1018F5F8093F10180E01F9173
:101CB0000F91FF90EF90DF90CF900895BF92CF9259
:101CC000DF92EF92FF920F931F93CF93DF931F92B8
:101CD000CDB7DEB780ED89838E010F5F1F4F21E006
:101CE00041E063E087E725DA8F3F09F0C1C08981D1
:101CF000853509F0BDC08AEA90E09093F3018093A6
:101D0000F20102EF11E026E141E063E087E711DA3A
:101D10001092F1011092F0011092EF011092EB017C
:101D20001092EC011092ED011092EE018091F201FF
:101D30009091F3019827892798279093F301809336
:101D4000F2018091F4019091F50198278927982755
:101D50009093F5018093F4018091F6019091F70141
:101D60009827892798279093F7018093F60180910F
:101D7000F8019091F9019827892798279093F90104
:101D80008093F8018091FA019091FB0198278927AF
:101D900098279093FB018093FA018091FC01909128
:101DA000FD019827892798279093FD018093FC01D6
:101DB0008091FE019091FF019827892798279093A1
:101DC000FF018093FE01809100029091010298270B
:101DD0008927982790930102809300028091020244
:101DE0009091030298278927982790930302809364
:101DF0000202809104029091050298278927982772
:101E0000909305028093040280910602909107024C
:101E100098278927982790930702809306020E94AB
:101E2000BE198C01009721F18BEDC82E8BE0D82EC6
:101E3000F801D782C6829CEFE92E9BE0F92EF1864D
:101E4000E0868BE79DE09387828724E5B22EB082FF
:101E500087E7818380E097E7938382830E94BE199E
:101E6000FC01009739F48FEF9FEFF801958384838D
:101E700080E010C0D782C682F186E08686E19CE0D1
:101E800093878287B08284E4818381E097E793839C
:101E9000828382E00F90DF91CF911F910F91FF908D
:101EA000EF90DF90CF90BF900895FC01228120FF3A
:101EB00008C081E0FB01808380910C02FA018083DD
:101EC0000AC082E0FB01808380910D0290910E0296
:101ED000FA019183808380E00895FC012281FA0158
:101EE00020FF04C0808180930C0206C08081918114
:101EF00090930E0280930D0280E0089580910F026E
:101F0000873011F080E0089588E080930F0280917F
:101F1000010324E0829FC001112490910203929555
:101F2000969596959370982B1092FD0280910C02D5
:101F3000981741F390930C0281E00895EF92FF927D
:101F40000F931F93662311F08FED5FC08091FD0208
:101F5000807C79F080910F02811101C058C080E42B
:101F600080930F029091FD0296FF51C08093FD0275
:101F70004EC08091FD02837009F049C080910F022C
:101F8000813069F028F0843091F08530D9F519C09E
:101F90008091FD0283FD3BC081E080930F02E12C24
:101FA000F12C00E010E020E040E06AE007C0E12C06
:101FB000F12C01E013E024E040E069E087E252D92F
:101FC00021C080910103807C11F084E01EC020912B
:101FD0000403269526958091030330E4839FC00176
:101FE0001124822B20910D0230910E02821793074B
:101FF00049F090930E0280930D0286E080930F02C9
:1020000081E006C080910F028F5F80930F0280E015
:102010001F910F91FF90EF900895DF92EF92FF9242
:102020000F931F93CF93DF9300E010E020E040E098
:1020300062E087E27ED88F3F09F02DC010920F0238
:1020400010920C0210920E0210920D020E94BE1904
:10205000EC01009701F185E5E82E8FE0F82EFF8274
:10206000EE820DE61FE0198708878EE99FE09B87C7
:102070008A8794E5D92ED88287E7898380E097E222
:102080009B838A830E94BE19FC01009731F48FEF75
:102090009FEF9D838C8380E010C0F782E6821187DA
:1020A00000878EE79FE093878287D08282E48183D6
:1020B00081E097E29383828382E0DF91CF911F9149
:1020C0000F91FF90EF90DF90089522E0DB012C93B9
:1020D000DC011296ED91FC911397E770FF27EE0F4C
:1020E000FF1FE05FFD4F80819181FA019183808322
:1020F00080E00895DC011296ED91FC911397E77052
:10210000FF27EE0FFF1FE05FFD4FDA018D919C91DD
:102110009183808380E00895EF92FF920F931F9345
:10212000CF93DF93FC0182819381EC01C770DD279F
:10213000662321F0C05EDD4F8FED51C02091FD027E
:10214000207C79F0C05EDD4F8881811101C048C0DC
:1021500080E488839091FD0296FF42C08093FD0247
:102160003FC02091FD022370D9F5FE01E05EFD4FD6
:102170002081213061F028F02230A9F0233059F578
:1021800028C02091FD0223FD2BC021E02083109266
:102190000503E12CF12C05E013E022E041E06BE0C7
:1021A000892F60D818C09091050380E02091060324
:1021B000822B23E02083FE01EE0FFF1FE05FFD4F27
:1021C000208131818217930721F09183808381E000
:1021D00008C01092FD02C05EDD4F88818F5F88834A
:1021E00080E0DF91CF911F910F91FF90EF900895C4
:1021F0005F926F927F928F929F92AF92BF92CF9297
:10220000DF92EF92FF920F931F93CF93DF93C8E477
:10221000D0E0512C9924939450E8852E65E6E62E63
:1022200060E1F62E7AE7C72E70E1D72EECE8AE2EED
:10223000E0E1BE2EF4E57F2EA7E76A2E909205031B
:102240001092060305E013E020E042E062E08C2FEC
:102250000E9499088F3F09F5052D10E0F801E05E16
:10226000FD4F8082F801EE0FFF1FE05FFD4F1182EE
:1022700010820E94BE19FC010097B1F0F782E6823D
:10228000D186C086B386A286708261823C2F2227C7
:10229000202B312B338322835394CF34D10521F06B
:1022A000219687E0851550F6852DDF91CF911F91FE
:1022B0000F91FF90EF90DF90CF90BF90AF909F90E5
:1022C0008F907F906F905F90089522E0FB012083B4
:1022D000FC01228120FF05C08091290290912A02F1
:1022E00004C080912B0290912C02FA01918380838B
:1022F00080E00895FC012281FA018081918120FF14
:1023000005C090932A028093290204C090932C0266
:1023100080932B0280E00895809128028E3011F086
:1023200080E008958FE0809328021092FD022091B2
:102330000803269526958091070330E4839FC0010A
:102340001124822B20912B0230912C0282179307AB
:1023500039F390932C0280932B0281E00895EF9241
:10236000FF920F931F93662311F08FED80C0809131
:102370002802811109C08091FD028B7C09F079C08F
:1023800081E08093280213C08091FD02807C51F08F
:1023900080E4809328029091FD0296FF6AC08093AA
:1023A000FD0267C08091FD02837009F062C08091D8
:1023B0002802883071F168F48330D9F020F481303C
:1023C00009F052C011C08630C1F0873009F04CC00E
:1023D00050C08C3091F020F4893009F045C034C0F1
:1023E0008F3008F041C045C083E08093070381E34C
:1023F0002FC08093070381E02BC0109207038FE367
:10240000E82E82E1F82E07E013E021E041E06BE0E6
:1024100028C089E0809328022091080322952F701C
:102420008091070330E1839FC0011124822B20910A
:10243000290230912A0282179307D9F090932A0239
:102440008093290281E016C083E08093070381E135
:1024500080930803E12CF12C07E013E020E042E038
:102460006AE080E40E943209809128028F5F8093A5
:10247000280280E01F910F91FF90EF900895EF9256
:10248000FF920F931F938091070380FF04C08091F8
:102490002802815010C081E080930703E12CF12CC9
:1024A00007E013E022E041E06BE080E40E943209A3
:1024B000809128028F5F809328021F910F91FF90D7
:1024C000EF900895AF92BF92CF92DF92EF92FF927A
:1024D0000F931F93CF93DF931F92CDB7DEB781E1A8
:1024E00089838E010F5F1F4F21E041E063E080E4AC
:1024F0000E9499088F3F09F035C08981803591F598
:102500001092280210922C0210922B0210922A0292
:102510001092290233D78C01009721F195E6C92E3C
:1025200091E1D92EF801D782C6822AE7E22E21E175
:10253000F22EF186E0868FEA91E19387828734E577
:10254000A32EA08247E5B42EB18281E090E493836C
:10255000828314D7FC01009739F48FEF9FEFF801C5
:102560009583848380E00FC0D782C682F186E0869F
:102570008CE891E193878287A082B18280E090E429
:102580009383828382E00F90DF91CF911F910F910F
:10259000FF90EF90DF90CF90BF90AF900895E9E06B
:1025A000F3E01192119283E0ED31F807D1F708952D
:1025B000E9E0F3E080E090E021913191232B81F478
:1025C00043E2489F9001499F300D1124235E3C4F08
:1025D000FC01EE0FFF1FE75FFC4F3183208306C035
:1025E00001968A30910541F720E030E0C901089555
:1025F00020E030E063E2629FA001639F500D112450
:10260000435E5C4F8417950741F4F901EE0FFF1FFD
:10261000E75FFC4F1182108208952F5F3F4F2A30F1
:10262000310549F708958091490290914A02019637
:102630008F3F2FEF920709F002C081E090E0909366
:102640004A02809349022091490230914A0232277E
:1026500023273227C9010895E09136022E2F2F5FDC
:10266000243008F0245030913502231303C0C0DF1A
:102670008FEF0895F0E0EE0FFF1FE95CFD4F9183AF
:1026800080832093360280E00895109236021092E3
:1026900035021092400210923F0281DF10922E020A
:1026A0008FE380932F02109231021092300283E068
:1026B0008093320210924A02109249028FEF809367
:1026C0004D02E2C775DF009749F020912D02FC0111
:1026D000208322E0218326E12283BECF08950F9339
:1026E0001F93CF93DF931F92CDB7DEB78C01FC0110
:1026F00082818C3031F4F80183818076803231F42C
:1027000007C08231C1F38A30E1F502C08034C9F5D7
:1027100080914002282F2F5F243008F024508091B0
:102720003F022817A9F1298343DFAC0129810097D3
:1027300079F183E2F801DA0101900D928A95E1F7CF
:10274000F80182818C3009F402C0823121F4FA014F
:10275000838180688383E091400280913F02E81387
:1027600007C010923102109230028FE080932F0246
:10277000F0E0EE0FFF1FEF5BFD4F5183408320938E
:102780004002C8010F90DF91CF911F910F9164CF4C
:10279000C8012EDF8FEF0F90DF91CF911F910F9126
:1027A000089520913F0280914002821739F1E22F73
:1027B000F0E0EE0FFF1FEF5BFD4F808191812F5FF7
:1027C00020933F0215DF80913F02843018F084503F
:1027D00080933F029091400280913F0298130BC07A
:1027E0001092400210923F02109231021092300279
:1027F0008FE380932F0283E080933202089581E07B
:102800002091350290913602291301C080E008958D
:10281000E091350280913602E81789F08E2F8F5FA4
:10282000843008F402C08E2F835080933502F0E08C
:10283000EE0FFF1FE95CFD4F2081318102C020E0D7
:1028400030E0C901089590933402809333020895D3
:10285000CF92DF92EF92FF920F931F93CF93DF936C
:1028600000D0CDB7DEB78C017901842F885F843228
:10287000B8F54A8369839CDE6C014A8169810097BF
:1028800079F180912D02D6018C93842F895F119666
:102890008C9311978CE012968C93129713966C93ED
:1028A000139710270127102715961C930E93149742
:1028B0004A83B9DEF6019783868338964A8150E0D1
:1028C000B701CF010E943A20C6010F900F90DF910F
:1028D000CF911F910F91FF90EF90DF90CF90FFCE9F
:1028E0008FEF0F900F90DF91CF911F910F91FF907D
:1028F000EF90DF90CF900895EF92FF920F931F9388
:10290000CF93DF93E82E162FF42E052F862F8A5FA4
:10291000843210F54DDEEC010097F1F080912D022C
:102920008883812F8B5F898382E18A83EB827BDEC0
:102930009D838C839E012A5F3F4F412F50E06F2D76
:10294000702FC9010E943A20CE01DF91CF911F91D3
:102950000F91FF90EF90C3CE8FEFDF91CF911F913A
:102960000F91FF90EF900895DF92EF92FF920F93F7
:102970001F93CF93DF938C01F62ED42EE52E862F56
:10298000895F843238F514DEEC01009719F18091EB
:102990002D0288838F2D8A5F89838AE08A8310279E
:1029A000012710271C830B833EDE9E838D839E01AF
:1029B000295F3F4F4F2D50E06D2D7E2DC9010E94A4
:1029C0003A20CE01DF91CF911F910F91FF90EF90B0
:1029D000DF9085CE8FEFDF91CF911F910F91FF9008
:1029E000EF90DF90089551CEEF92FF920F931F93D7
:1029F000CF93DF9390912F02992321F091509093E0
:102A00002F0245C190912E02933009F4EAC050F490
:102A10002091300230913102913009F445C008F024
:102A2000A8C00CC0953009F405C108F4F7C0963071
:102A300009F416C1973009F02AC11FC121153105CB
:102A4000F1F02150310930933102209330022D30C2
:102A5000310509F41EC1232B09F019C180913202FE
:102A6000882341F08150809332028FE380932F02BC
:102A700083E010C1F89429980C94000008C18FE3FA
:102A800080932F028EE090E0909331028093300289
:102A90008FDD009709F4FBC0FC01108223E0218345
:102AA00021E0228313825DC08FE380932F022115E2
:102AB000310509F064C080913202882309F453C0C3
:102AC00081508093320289E090E0909331028093AC
:102AD00030026EDDEC01009709F4D9C080912D021F
:102AE00088838091490290914A02892B19F484E0ED
:102AF0008B8301C01B8281E08C8381E09CE29E83FA
:102B00008D837E01F7E0EF0EF11C84E189838E0155
:102B10000F5F1F4F9701A80161E080E09FEF3DD557
:102B200089818230C0F486E089839701A80161E041
:102B300080EC9FEF32D51981212F30E0CE01820F3A
:102B4000931FFC014FE547831F5F198308960E947E
:102B5000651F810F898389818A5F898384E08A83E5
:102B6000CE017ADD94C083E08093320210922E026F
:102B70008EC09FE390932F022115310539F021502B
:102B80003109309331022093300281C0909132029A
:102B9000992351F091509093320220913F029091ED
:102BA0004002291306C002C070DD71C081116FC0E0
:102BB00062C0FEDC009789F0E0913F02F0E0EE0F8A
:102BC000FF1FEF5BFD4F0190F081E02D23E2DC0160
:102BD00001900D922A95E1F73FDD8FE080932F025F
:102BE00056C08FE380932F02E3DC009779F024E056
:102BF000FC01218328E122832091330230913402A9
:102C00003227232732273483238326DD8091320223
:102C1000882321F081508093320239C085E080936F
:102C20002E0280913302909134029093310280936E
:102C300030022FC08091300290913102009731F024
:102C40000197909331028093300221C08FE38093EB
:102C50002F0286E080932E0283E0809332021AC016
:102C60008FE380932F0280913202882309F49CCF56
:102C700081508093320226DD0AC0882311F081E062
:102C800004C08FE380932F0284E080932E0280E0C3
:102C900001C082E0DF91CF911F910F91FF90EF90E3
:102CA00008950F931F93CF93DF93EC018A818B30AC
:102CB00009F498C078F4823069F130F4882351F136
:102CC000813009F053C118C0853099F18A3009F07C
:102CD0004DC16AC0833109F407C138F48C3009F45E
:102CE000A1C08D3009F042C1E2C0873109F412C1A0
:102CF000883109F03BC12FC180912E02811136C16C
:102D00008FE090E0909331028093300283E08093D3
:102D100032022CC180912E02811128C188818093BA
:102D20002D0281E080932E02109231021092300227
:102D30001DC180912E02813009F018C18FE380936C
:102D40002F028B8181112EC082E080932E0210927F
:102D500031021092300283E08093320210924C02D2
:102D600010924B028091490290914A02892B09F0FE
:102D7000FDC00E941F1F8F3F09F4F8C086E18983C0
:102D80008E010D5F1F4FAE014F5F5F4F980161E0F5
:102D900080EC9FEF02D49801498161E280EC9FEFC3
:102DA00057DDE4C072DC81C080912E02823008F4CD
:102DB000DDC08D819E8198278927982720914B021D
:102DC00030914C028217930741F090934C0280930C
:102DD0004B02CE01F0D280934D0287E089838BE0D5
:102DE0008A835EC080912E02823009F0BFC0E091DC
:102DF0003F02F0E0EE0FFF1FEF5BFD4F0190F0810F
:102E0000E02D82818A3009F0B1C08F81811106C026
:102E10008B819C8198278927982702C080E090E0C9
:102E2000A8D360C080912E02823019F0863009F05C
:102E30009DC08FE380932F0283E0809332028E81C6
:102E40009F8198278927982720914B0230914C0227
:102E50008217930709F48CC090934C0280934B0225
:102E60009E01285F3F4F498147506B8160688C818C
:102E70009D8198278927982737D480934D028B818D
:102E80008076803209F072C087E089838DE08A8382
:102E90008C819D819C838B838E819F819E838D837A
:102EA00080914D028F83CE01D7DB81E065C0809198
:102EB0002E02823009F05AC0E0913F02F0E0EE0F9E
:102EC000FF1FEF5BFD4F0190F081E02D82818C3080
:102ED00009F04CC0268137818D819E8128173907E2
:102EE00009F044C05EDC42C080912E028230F1F5D0
:102EF000E0913F02F0E0EE0FFF1FEF5BFD4F01900E
:102F0000F081E02D8281823189F5248135818E81A5
:102F10009F81E4CF80912E02863011F487E015C0A6
:102F2000823021F5909135028091360298131EC0AF
:102F30008CE291E0909331028093300280913302D1
:102F400090913402892B19F083E080932E0283E064
:102F50008093320208C080912E02833009F022CF84
:102F600084E080932E028FE380932F0280E004C0E0
:102F70008B8187FFFBCF83CFDF91CF911F910F9183
:102F8000089580912E0208951F92CDB7DEB7F89470
:102F9000A89588E10FB6F8948093600010926000C5
:102FA0000FBE80E880BF8BEA80936400F8DADCD340
:102FB0001ADDD9D610924E0282E08093B0001092B2
:102FC000B20099E79093B30087BB809370008FE0C5
:102FD0008093B10083B7817F83BF78940FEF1FEF99
:102FE00088E1D82E94E0C92E26E0B22E37E1A32E38
:102FF00029D77C01009729F054DE811102C0C70156
:10300000F7DAFDDB882329F02AD7882311F000DCCA
:1030100038D780914E0280FF6FC080914E028E7F24
:1030200080934E023FD7ADDF8983823009F50F3F91
:103030008FEF180739F480E036D48C010F3F9FEFF3
:103040001907F9F0B5DA7C010097D9F0A9829C0143
:10305000AE014F5F5F4F60E8C8019FD29701498181
:1030600060E2C801F5DBC701C3DA0FEF1FEF09C04B
:10307000863039F40F3F8FEF180719F480E013D42E
:103080008C0181E00F3F9FEF190709F480E0ACDC71
:103090008983823001F581E006D4C0924E028AE035
:1030A000B9D6A89584B7877F84BF80916000886176
:1030B00080936000B092600080916000806880938F
:1030C00060008091600080648093600083B7817F9E
:1030D000866083BF11C0833079F483B7817F83BF5B
:1030E0008BE098D6A8950FB6F894D0926000109215
:1030F00060000FBE10924E0283B7816083BF889537
:1031000083B78E7F83BF74CF1F920F920FB60F923B
:1031100011248F9380914E0282FD05C080914E0252
:10312000816080934E028F910F900FBE0F901F9081
:1031300018951F920F920FB60F9211248F93A89596
:1031400080914E0282FF05C080914E028160809383
:103150004E028F910F900FBE0F901F9018950F93F6
:103160001F93CF93DF9300D01F92CDB7DEB78C01B2
:10317000FA01808191814A835B83698364DB4A81A0
:103180005B816981C8010F900F900F90DF91CF9103
:103190001F910F910C943D01DC012C912F34C1F053
:1031A00028F4213441F0293441F412C0203591F043
:1031B000233519F40DC082E00895DC011196EC91DD
:1031C000E254E63328F4F0E0E75FFE4F8081089593
:1031D00080E0089581E00895FF920F931F93CF93AD
:1031E000DF938C0161111EC0E3E5F2E040E050E0A6
:1031F00012C08017910749F48CE0849F9001859F4D
:10320000300D1124215B3D4F30C04F5F5F4F3C9626
:103210004C30510541F1808191818F3F2FEF920712
:1032200041F721C06130F9F4C0E0D0E08CE0F82E25
:10323000FC9EB001FD9E700D11246E577F4F4CE037
:1032400050E081EE92E000D78091E5029091E60295
:103250008017910729F02196C630D10549F703C0A0
:1032600021EE32E002C020E030E0C901DF91CF91D1
:103270001F910F91FF900895BF92CF92DF92EF922E
:10328000FF920F931F93CF93DF9300D000D0CDB761
:10329000DEB7B82E00E010E0C82ED12C8CE0B89E2E
:1032A000700111248FE492E0E80EF91EBE016F5FF9
:1032B0007F4FC8010E94890044E050E0B701CE0171
:1032C0000196CBD6009771F48FEF89838A838FEFB5
:1032D0009FEF9C838B83BE016F5F7F4FC8010E946D
:1032E000900006C00C5F1F4F90E000331907F1F605
:1032F0002CE02C9DC0012D9D900D1124815B9D4FD4
:103300000E94B1016CE00DC0629FD001639FB00DBF
:103310001124A15BBD4F862F01900D928A95E1F794
:10332000B3948AE08B1558F49CE0B99EF001112407
:10333000E15BFD4F8FEF9FEF9583848311C02B2DB1
:1033400030E0C9010196689FF001699FF00D1124DA
:10335000E15BFD4F448155814F3F5F4FA9F6E4CFBC
:103360000F900F900F900F90DF91CF911F910F91C1
:10337000FF90EF90DF90CF90BF900895E3E5F2E0EB
:1033800020E030E080819181019659F48CE0829FA9
:10339000F001839FF00D1124E15BFD4F1582148233
:1033A00008C02F5F3F4F3C962C30310559F7E0E0C5
:1033B000F0E0CF0108956F927F928F929F92AF922B
:1033C000BF92CF92DF92EF92FF920F931F93CF9312
:1033D000DF93CDB7DEB728970FB6F894DEBF0FBEE8
:1033E000CDBF8C01FC0187818D8380858E83918187
:1033F00020E030E03996402F40955AE01CC0819182
:10340000682F60536A3068F038872F834E01F5E0EB
:103410008F0E911CC4010E949E01B82E882381F05A
:1034200092C0B901569F9001579F300D112420532F
:103430003109280F311D842F8E0F891700F3E4CF37
:10344000F801E380F480FE24EF24FE2423E5C22E5D
:1034500022E0D22E00E010E03CE0A32E782C692C74
:103460001FC0A09EB001A19E700D1124615B7D4F15
:1034700044E050E0872D962DF0D5009709F461C007
:103480008E149F0421F4E114F10409F053C00F5F7E
:103490001F4FFCE0CF0ED11C0C30110509F44AC0BF
:1034A000F60180809180FFEF8F169F06D1F645C010
:1034B0008CE0809F6001819FD00C11246FE472E04A
:1034C000C60ED71E4D815E816F817885F6014083DF
:1034D000518362837383C6010E948B0181112AC0CC
:1034E000F601F582E48200E010E0BE016F5F7F4FDD
:1034F000C8010E94890044E050E0BE016F5F7F4F29
:10350000CE010596AAD50097F1F0898181508E3FB2
:1035100038F0BE016B5F7F4FC8010E94900013C05E
:103520000C5F1F4FF0E000331F07F9F60CC0802F2F
:10353000A3DE09C092E0B92E06C0E114F104D1F374
:10354000B7CFEF28A1F38B2D28960FB6F894DEBFE6
:103550000FBECDBFDF91CF911F910F91FF90EF90E4
:10356000DF90CF90BF90AF909F908F907F906F90A3
:103570000895E091DF02009749F02CE0E29FF0010E
:103580001124E15BFD4F958384830895EC3010F4A2
:103590008E2F72DE1092DF020895AF92BF92DF92FB
:1035A000EF92FF920F931F93CF93DF931F92CDB7AC
:1035B000DEB7D62E7A01890163700EDE5C010097BA
:1035C00009F453C0DC011696ED91FC9117973097E2
:1035D00009F44DC0A801B7010995482FD7FE48C08E
:1035E000811146C0C5014983D7DD498187FF1DC0D0
:1035F0008F7718C09801280F311DF90131979081FC
:10360000911108C0F9013297908197FF0AC0F70124
:1036100080832EC09F3FD9F7F9013297908197FFA1
:10362000F6CF8150823030F7F2CF882309F1F801CC
:10363000E80FF11DDF0111979C9197FF04C01082E4
:103640008F5F10C08150813069F09801280F311DC3
:10365000F90131979081911105C0F901329790815C
:1036600097FFF0CFD7018C9303C042E001C043E045
:10367000842F0F90DF91CF911F910F91FF90EF90CA
:10368000DF90BF90AF900895CF93DF9300D01F924B
:10369000CDB7DEB71092DF028FE38093E002E3E55F
:1036A000F2E080819181019689F4FED282E08B83E1
:1036B0009E012F5F3F4FAE014D5F5F4F61E081E0A4
:1036C0009FEF6BDF89819A81BED808C0118210827A
:1036D0003C9682E0E33EF80721F7E7CF0F900F908A
:1036E0000F90DF91CF910895EF92FF920F931F9368
:1036F000CF93DF93E62EF42E890163706DDDEC012C
:10370000009741F188859985892B31F1E7FE16C034
:10371000CE0142DD8F77F81678F4F801EF0DF11D38
:1037200031979081990F990BF801EF0DF11D90835E
:10373000F394F812F9CF02C08111F82EE885F985CB
:10374000A8016F2DCE01DF91CF911F910F91FF90B6
:10375000EF90099482E001C083E0DF91CF911F9147
:103760000F91FF90EF900895EF92FF920F931F93A8
:10377000CF93DF9300D000D0CDB7DEB781E08B834D
:103780009E012C5F3F4FAE014D5F5F4F61E080E0D7
:103790009FEF03DF1C811F3F09F03BC01C829E018D
:1037A0002C5F3F4F40E061E080E09FEF9DDF1C8396
:1037B0009E012C5F3F4F41E061E080E19FEF94DF8D
:1037C0001C829E012C5F3F4F40E061E080E09FEF54
:1037D0008BDF84ED9DE29A8389839E012F5F3F4FAB
:1037E00042E061E081E19FEF7FDF8CE08C839E010E
:1037F0002C5F3F4F41E061E082E19FEF75DF1A826D
:1038000019829E012F5F3F4F42E061E081E09FEF10
:103810006BDF20E03CE08FEF9FEF329FF00111243F
:10382000E15BFD4F958384832F5F2C30B0F32C83B5
:103830001092DF028FE38093E0020E9484011C82D9
:10384000F12C4CE0E42E1FC0EF9C80011124015BA1
:103850001D4F24E0829FC0011124B8018050904088
:103860000E948900F801808181508E3F48F4C80190
:103870000E948B01811104C0F80115821482F39417
:103880008C818F5F8C838C818C30F0F20E94890157
:103890000F900F900F900F90DF91CF911F910F918C
:1038A000FF90EF900895DF92EF92FF920F931F9396
:1038B000CF93DF931F92CDB7DEB7E82E882309F4AC
:1038C00043C01092DF0240C00115110539F50E9476
:1038D000D8128C01009709F461C08091DF02F89E34
:1038E000C0011124B801815B9D4F0E94C3018983EF
:1038F000A801682F80E090E037D881110BC0E091DB
:10390000DF02FE9EF0011124E15BFD4F80E090EFAD
:1039100095838483C8010E94F81240C0011580EF8E
:103920001807E1F11A96ED91FC911B97309731F44D
:103930009091DF029F5F9093DF0208C06E2DCD0152
:1039400009958823A9F32CC06CE0D62EA091DF0244
:10395000AC3080F45CE0F52EDA9ED0011124A15B3E
:10396000BD4F14960D911C9115970F3F8FEF1807BF
:1039700009F0AACF1092DF028091E002882371F053
:1039800081508093E002811109C083E28983AE01F6
:103990004F5F5F4F61E080E20E947C140FEF1FEFEA
:1039A000C8010F90DF91CF911F910F91FF90EF9081
:1039B000DF9008952A989EBD0DB407FEFDCF8EBD01
:1039C0000DB407FEFDCF2A9A08952A981EBC0DB4A7
:1039D00007FEFDCF2EB5922F80E01EBC0DB407FE72
:1039E000FDCF2EB52A9AAC01422B9A01C901089548
:1039F0001DBC2A9880EB8EBD0DB407FEFDCF1EBC0A
:103A00000DB407FEFDCF8EB52A9A91E09DBD0895B5
:103A10002091EE023091EF0298E0B90166277078AC
:103A2000672F7727482F407850E0220F331F641705
:103A3000750719F045E024273058880F915069F731
:103A40003093EF022093EE0208951F920F920FB66B
:103A50000F9211240F931F932F933F934F935F93D4
:103A60006F937F938F939F93AF93BF93CF93DF9386
:103A7000EF93FF93189903C1A8DF96FF06C081E07A
:103A800092E898DF1092ED02FAC097FFE5C08091AE
:103A9000ED02853009F43EC030F4833071F084309B
:103AA00009F0DAC021C0883009F49FC0893009F4D8
:103AB000BCC0873009F0D0C05DC09ADFC82F8450E9
:103AC0008E3108F0C9C02FEF3FEF3093EF02209303
:103AD000EE028C2F9DDF84E08093ED02C150C093F5
:103AE000F0021092F102CBC083DFC82F882321F0AF
:103AF0008091F202C813B0C00E94D812009709F456
:103B0000ABC09093F4028093F30229988C2F80DF4E
:103B100085E0B3C06DDFD82FC091F1028091F00233
:103B2000C81750F48D2F74DFE091F302F091F40286
:103B3000EC0FF11DD08306C0C81308C08091EF02BE
:103B4000D81311C0CF5FC093F10299C08091EE02EB
:103B5000D81309C08091F3029091F4029093F60279
:103B60008093F50279C08091F3029091F4020E9453
:103B7000F81272C08091F102882379F1813019F432
:103B8000C091F8022BC0823019F4C091F70226C010
:103B9000833079F4C091F0022FEF3FEF3093EF02C2
:103BA0002093EE028C2F34DF8C2F81508093F00213
:103BB00015C0843041F4E091F302F091F402C08129
:103BC0008C2F26DF0BC0C091F2028C2F21DF1092C8
:103BD000F10288E08093ED0201C0CAEA8091F1020F
:103BE0008F5F8093F1028C2F33C0C091F302D0918C
:103BF000F4021091F102FE01E10FF11D00811F5F3F
:103C00001093F102802F90E0986BD4DE802F00DFBC
:103C10008091F002181798F189E08093ED021092DC
:103C2000F102CE010E94F8122AC09091F102892F70
:103C30008F5F8093F102911103C08091EF0208C061
:103C4000823019F48091EE0203C0833029F480E0C1
:103C500090E0986BAFDE13C0299A89E192E8AADE62
:103C600081E89AECA7DE87E690E8A4DE89ED92E889
:103C7000A1DE83E89AEC9EDE83E08093ED02FF9163
:103C8000EF91DF91CF91BF91AF919F918F917F91F4
:103C90006F915F914F913F912F911F910F910F90D5
:103CA0000FBE0F901F9018950F931F93CF93DF9324
:103CB00000D000D0CDB7DEB782E08B839E012F5FAE
:103CC0003F4FAE014D5F5F4F61E081E19FEF65DCEB
:103CD00022EF32E0AE014D5F5F4F61E080E19FEF88
:103CE0005CDC9E012C5F3F4FAE014D5F5F4F61E09A
:103CF00082E19FEF52DC8C8190E0805C9E4F25E05A
:103D0000289F8001299F100D11248091F902909124
:103D1000FA02009731F08017910719F0C801906AF4
:103D200049DE1093FA020093F9022091F7023091D4
:103D3000F8022115310541F089819A812817390748
:103D400019F099279E6C36DE89819A819093F8024A
:103D50008093F7020F900F900F900F90DF91CF910B
:103D60001F910F91089510926B0087E085B98EE244
:103D700084B980E58CBD1DBC81E08093680025DEA0
:103D800081E092E817DE80E098EB14DE01C01DDED2
:103D9000189BFDCF87EE90E80DDE81E092E80ADE09
:103DA0008091F9029091FA02906A04DE88E096EC24
:103DB00001DE8AE695E9FEDD8CEA92ECFBDD81E826
:103DC0009AECF8DD8091F7029091F80299279E6CA9
:103DD000F1DD87ED94ECEEDD80E898E9EBDD86E738
:103DE0009CECE8DD80E090EEE5DD80E098ECE2DD43
:103DF00080E690ECDFDD82E08093ED0289E192E8DD
:103E0000D9DD1092F6021092F50281E08DBD80930B
:103E10006B000895CF93C82F8A3031F481E092E887
:103E2000C9DDC093ED0209C08B3039F482E0809384
:103E3000ED0289E192E8CF91BDCDCF9108958091B7
:103E4000F20208952091F5023091F6022115310514
:103E500021F01092F6021092F502C90108958091A6
:103E6000ED02833011F080E00895AFDD90FDFBCFCF
:103E7000299889E192E89EDD87EE90E89BDD81E05C
:103E800008959093F4028093F302FC0181818E5F88
:103E90008093F0021092F10287E08093ED0289E3B3
:103EA00092E888CD8091ED02811101C05CCF8091B4
:103EB000ED02823049F483E08093ED0289ED92E8CF
:103EC00079DD83E89AEC76CD08956091F20202D014
:103ED00082E00895262F22952F702A3010F0295C59
:103EE00001C0205DFC0120836F706A3010F0695CB6
:103EF00001C0605DFC01618382E00895FC0181E006
:103F000020E137E240E090E004C0621B730B9F5F4A
:103F100041E062177307C8F7283E53E0350789F080
:103F2000203157E2350721F02436310539F403C03A
:103F300028EE33E008C02AE030E005C021E030E0A0
:103F400002C024E630E0442329F0905D91938F5F16
:103F500041E090E02A303105E0F6605D608308952D
:103F6000DB018F939F9348D0BF91AF91A29F800DAB
:103F7000911DA39F900DB29F900D11240895A1E271
:103F80001A2EAA1BBB1BFD010DC0AA1FBB1FEE1FD3
:103F9000FF1FA217B307E407F50720F0A21BB30B1E
:103FA000E40BF50B661F771F881F991F1A9469F79A
:103FB00060957095809590959B01AC01BD01CF01F6
:103FC0000895052E97FB16F4009406D057FD0CD0EB
:103FD000D6DF07FC09D07EF49095809570956195A9
:103FE0007F4F8F4F9F4F0895509540953095219565
:103FF0003F4F4F4F5F4F08951BD0A59F900DB49F2B
:10400000900DA49F800D911D11240895B7FFF4CF4A
:10401000F3DF821B930B08950024A7FD00942A1759
:104020003005400550056005700580059005089530
:10403000A29FB001B39FC001A39F01D0B29F700D9A
:10404000811D1124911D0895FB01DC0102C0059022
:104050000D9241505040D8F70895FB01DC0104C097
:104060008D910190801921F441505040C8F7881B70
:10407000990B0895FB01DC0102C001900D924150A3
:104080005040D8F70895DC01CB01FC01F999FECF2F
:1040900006C0F2BDE1BDF89A319600B40D924150D0
:1040A0005040B8F70895F999FECF92BD81BDF89AB6
:1040B000992780B50895DC01CB0102C02D9105D070
:1040C00041505040D8F70895262FF999FECF1FBAD6
:1040D00092BD81BD20BD0FB6F894FA9AF99A0FBE31
:0840E00001960895F894FFCF4A
:1040E80000FFFFFFFFFFFFFF0101000400000000C9
:1040F80000000000000000000000000000000200B6
:104108000000000000000000000000840000000023
:10411800000000000000000088000000000082008D
:00000001FF
