:100000000C9484000C94901C0C94A1000C94A100FE
:100010000C94A1000C94A1000C94A1000C94381134
:100020000C94A1000C94A1000C94A1000C94A100CC
:100030000C94A1000C94A1000C94A1000C94A100BC
:100040000C94A1000C94A1000C94300C0C94060CA0
:100050000C94A1000C94D60A0C94A1000C94A1005D
:100060000C945E0B0C94A100CF00670033001900C4
:100070000C000001020304050607FFFFFFFFFFFF5E
:1000800008FF4573320000FFB100570100004557DB
:10009000300001FFB100841700004542490010FF05
:1000A000B1005701000045574B0011FFB100570147
:1000B00000004542480012FFB1005701000046739E
:1000C000CA00C0FFFC00000000000A4E445053323A
:1000D000302E323530002E02060347063D07060853
:1000E000050B060D210E620F7610CA11831213152F
:1000F00035181819161B4320FB23E9242A2500264E
:100100001F2C812D352E090011241FBECFEFD8E002
:10011000DEBFCDBF11E0A0E0B1E0E6E4FFE302C046
:1001200005900D92AA30B107D9F724E0AAE0B1E01A
:1001300001C01D92AE31B207E1F70E94C1110C94CB
:10014000A11F0C9400009C01CB0144E050E0B901D8
:100150000C94711F9C01CB0144E050E0B9010C9458
:10016000891FEF92FF920F931F93CF93DF93EB01C1
:100170007A01FC010281138181818236B1F058F449
:100180008434E9F018F4823479F50FC08735A9F08A
:10019000813651F517C08337A9F018F4843621F55C
:1001A0000EC0873751F08A37F9F481E08883C8019F
:1001B0000E94811FF701808315C082E001C084E0A6
:1001C00088830AC0C8010E94811F9881981708F48B
:1001D000892F88830F5F1F4F488150E0B801C70106
:1001E0000E94711F80E001C083E0DF91CF911F91D9
:1001F0000F91FF90EF9008950F931F93CF93DF938C
:10020000EB01DA01FC016281738181818236D1F0D8
:1002100068F4843431F120F4823409F042C012C011
:100220008735B1F0813609F03CC02DC0833759F1D4
:1002300020F4843609F035C014C0873749F08A3776
:1002400009F02FC081E08883FB0164916C9319C091
:1002500082E08883FB01859194918C9311969C9305
:1002600010C084E08883FB0105911591259134919C
:100270000C9311961C93119712962C931297139628
:100280003C9380E00FC0FB0114918881811708F432
:10029000182F6F5F7F4F412F50E0CD010E94521FFA
:1002A000188383E0DF91CF911F910F910895EF9212
:1002B000FF920F931F93CF93DF931F92CDB7DEB7BB
:1002C000FC01262F8A01E280F38081818236B1F021
:1002D00058F48434A9F018F4823439F50FC0873506
:1002E000D9F0813611F50EC0833761F018F48436E9
:1002F000E1F406C0873781F08A37B9F421E00DC0F8
:1003000024E00BC0622FC70129830E94931F8FEF47
:10031000E81AF80A298101C022E0422F50E0B70113
:10032000C8010E94891F80E001C083E00F90DF9127
:10033000CF911F910F91FF90EF9008958F7021E062
:1003400030E002C0220F331F8150E0F7C901089549
:100350008F7099278E589F4FFC0184910895CF93F9
:10036000DF930E94A8018F3F69F0C0917701D0917F
:1003700078010E949E01C823D92381E0CD2B19F476
:1003800080E001C082E0DF91CF9108950F931F9329
:10039000CF93DF938B01EA01FC01828193810E945C
:1003A000A80192E0F8019083E82FF0E0EE0FFF1F24
:1003B000E253FE4F808191819983888380E0DF91B1
:1003C000CF911F910F910895CF93DF93EA01FC0124
:1003D000828193810E94A80190E0FC01EE0FFF1F33
:1003E000E253FE4F2881398131832083FC01EB5396
:1003F000FE4F21E0208380E0DF91CF91089520918E
:10040000640020FF10C02FEF20932D0120932A01BC
:10041000209164002E7F209364002FE020937C00C5
:100420002FED20937A00FC01828193810E94A80124
:1004300090E0FC01EB53FE4F2081215020832223CA
:1004400011F080E0089520E42083FC01EE0FFF1FEF
:10045000DF01A25DBE4F2D913C91285F3F4F54E0DC
:10046000369527955A95E1F7E253FE4F80819181A9
:100470008217930731F33183208381E008959C0133
:100480002770332781E001C0880F21503109E0F740
:100490000895887F992740978930910528F4FC01B9
:1004A000EF5FFE4F808108958FEF08951F93CF93E4
:1004B000DF93EC010E943F02182F9E01287F332713
:1004C0002031310521F02831310599F403C0807CB9
:1004D00081F402C082FD0DC0CE010E944902E82FC6
:1004E000F0E0E75BFE4F9081912381E019F480E01A
:1004F00001C082E0DF91CF911F9108950F931F9368
:10050000CF93DF931F92CDB7DEB78C0169830E9432
:100510003F02087F112769810031110521F0083160
:100520001105A1F40AC097B1662319F0982B97B969
:100530000DC08095892387B909C09AB1662319F047
:10054000982B9AB903C0809589238AB90F90DF91BF
:10055000CF911F910F9108950F931F93CF93DF9326
:100560001F92CDB7DEB78C0169830E943F02087FDE
:10057000112769810031110521F008311105A1F41D
:100580000AC098B1662319F0982B98B90DC08095D0
:10059000892388B909C09BB1662319F0982B9BB9B0
:1005A00003C0809589238BB90F90DF91CF911F9164
:1005B0000F9108950F931F93CF93DF93FC01C28196
:1005C000D381DA011C9180818934A9F4CE010E9483
:1005D0004902082FCE010E943F02E02FF0E0E55BC8
:1005E000FE4F112319F09081982B03C080959081C4
:1005F000982390831CC08F3451F481818E3609F486
:100600001095612F6170CE010E94AC0210C0803540
:1006100071F481818E3609F4109581E090E06D9738
:1006200011F480E090E0FC01ED53FE4F108380E078
:10063000DF91CF911F910F910895EF92FF920F9349
:100640001F93CF93DF938C01FC01C281D381808102
:10065000893499F5CE01887F99278031910519F069
:10066000489729F402C0F6B003C0F9B001C0F12CDC
:10067000CE010E944902E82ECE010E943F02F801FD
:1006800091819E3609F4F094F822EE2DF0E0DF011E
:10069000A35BBE4F9C91292F2823F21619F08927BE
:1006A0008C9341C0E55BFE4F9081292F2823F216E1
:1006B000D1F18927808381E037C08035A1F5CD3124
:1006C000D105C1F468B58091C301681761F186173F
:1006D00010F4615001C06F5F68BD862F81508E3F5E
:1006E00030F084B58F7D84BD8DE190E016C084B577
:1006F000806218C067B58091C4016817A1F08617A1
:1007000010F4615001C06F5F67BD862F81508E3F2E
:1007100038F084B58F7784BDCE010E94AC0203C04F
:1007200084B5806884BD80E0DF91CF911F910F91E7
:10073000FF90EF900895DF92EF92FF920F931F9337
:10074000CF93DF938C01FC01C281D381CE010E9443
:100750005602811169C0CE010E944902D82E811132
:1007600017C0CE010E94AF01813009F45DC0811134
:100770000FC0E0907701F0907801CE010E94A801AF
:100780000E949E018E299F29909378018093770182
:10079000CE010E943F022D2D30E0F901E75BFE4FB4
:1007A0009081982B90838095F901E55BFE4F9081B5
:1007B00098239083F901E35BFE4F90819823908307
:1007C000F80180818F3411F461E014C0803589F420
:1007D00061E0CE010E947E0284B5807A71F480913E
:1007E00064008F7D8093640083E084BD84E085BDD8
:1007F00004C060E0CE010E947E02F80181818E3645
:1008000021F461E0CE010E94AC0284EA9AE0F80192
:10081000978386838AED92E0918780878DE193E0CC
:100820009387828780E001C082E0DF91CF911F91A2
:100830000F91FF90EF90DF900895EF92FF920F934A
:100840001F93CF93DF938C01FC01C281D381CE0132
:100850000E944902F82ECE010E943F022F2D30E067
:100860008095F901E75BFE4F908198239083F90111
:10087000E55BFE4F908198239083F901E35BFE4F87
:10088000908198239083F11016C0CE010E94AF0191
:10089000813089F4E0907701F0907801CE010E94D8
:1008A000A8010E949E01809590958E219F21909392
:1008B000780180937701F8018081803591F484B5C7
:1008C000CD31D10511F48F7D01C08F7784BD84B502
:1008D000807A39F414BC15BC8091640080628093E6
:1008E000640060E0CE010E94AC0260E0CE01DF91C6
:1008F000CF911F910F91FF90EF900C947E020F9378
:100900001F93880F809350016093290140935101F8
:1009100020935601109353010093520164EA54E866
:1009200077C06093BC008091BC0087FFFCCF8091B2
:10093000B900883029F08091B900803109F036C0C3
:10094000909129018091500191FD01C081608093B7
:10095000BB005093BC008091BC0087FFFCCF80910E
:10096000B900883129F08091B900803409F01EC0A7
:100970008091290181FD20C040E041C0E0915201F9
:10098000F0915301E80FF11D90819093BB008F5FB0
:100990005093BC009091BC0097FFFCCF9091510107
:1009A000891758F49091B900983239F084E980930E
:1009B000BC008091B90039C080E090915101891745
:1009C000E8F2809129018D7F21C0842F90E001966B
:1009D00030E08217930714F484EC01C084E880931C
:1009E000BC008091BC0087FFFCCFE0915201F091E8
:1009F0005301E40FF11D8091BB0080834F5F209174
:100A00005601421710F3809129018E7F80932901AE
:100A100080912901837009F084CF84E98093BC0020
:100A200010922901109250018FEF1F910F9108959C
:100A3000FC01228120FF11C084E0FB0180838091B2
:100A4000960190919701A0919801B0919901FA01B6
:100A500080839183A283B3830AC082E0FB018083F9
:100A60008091940190919501FA019183808380E0B7
:100A70000895FC012281FA0120FF0DC0808191813F
:100A8000A281B3818093960190939701A0939801DE
:100A9000B093990106C080819181909395018093D4
:100AA000940180E008954F925F926F927F928F92AF
:100AB0009F92AF92BF92CF92DF92EF92FF92CF932D
:100AC000DF93CDB7DEB728970FB6F894DEBF0FBE21
:100AD000CDBF809193018D3011F080E03FC18EE059
:100AE0008093930120919A0180919B0190E0A0E076
:100AF000B0E0BA2FA92F982F8827A22B292F3A2FA1
:100B00004B2F55272D833E834F8358871092290101
:100B1000C0909E01D0909F01E090A001F090A101B3
:100B200030EAC31A3FE0D30AE108F108A7019601B1
:100B3000C701B6010E94E51E2B013C015CE07594E3
:100B40006794579447945A95D1F7A0918B01B0912F
:100B50008C01A30192010E943E1F4B015C01A091F8
:100B60007F01B0918001A70196010E943E1F698319
:100B70007A838B839C83E0917D01F0917E01A0912B
:100B80008101B09182010E943E1F6B017C016DE0EA
:100B9000F594E794D794C7946A95D1F7A091890109
:100BA000B0918A01A30192010E943E1FBB2797FDCD
:100BB000B095AB2FC80ED91EEA1EFB1E42E0C40E34
:100BC000D11CE11CF11CB2E0F594E794D794C794D2
:100BD000BA95D1F750E8D50EE11CF11CA091830124
:100BE000B0918401A70196010E94331F6B017C0123
:100BF0008FE0F694E794D794C7948A95D1F7CF0104
:100C0000AA2797FDA095BA2F22E0880F991FAA1F47
:100C1000BB1F2A95D1F73BE0B594A794979487948E
:100C20003A95D1F729813A814B815C816BE05595EA
:100C30004795379527956A95D1F7820E931EA41E86
:100C4000B51E880D991DAA1DBB1D0296A11DB11DC3
:100C500072E0B595A795979587957A95D1F72D81EF
:100C60003E814F815885281B390B4A0B5B0BA0E551
:100C7000B3EC0E94331F97FD0BC0660F771F881FD0
:100C8000991FA70196010E94F51E49015A010AC049
:100C9000A70196010E94F51E49015A01880C991C72
:100CA000AA1CBB1C9927B7FC9A958B2D7A2D692D10
:100CB0009B01AC010E94E51E9B01AC01AEEDBBE0C7
:100CC0000E94331F6C01FF24D7FCF094EF2CA3E4A7
:100CD000B3EEA50194010E94411FBB2797FDB0957B
:100CE000AB2FC80ED91EEA1EFB1E3FECC30E3EE022
:100CF000D31EE11CF11CA4E0F594E794D794C794AB
:100D0000AA95D1F7C80CD91CEA1CFB1C809196014E
:100D100090919701A0919801B09199018C159D0532
:100D2000AE05BF0548F4A7019601281B390B4A0BF5
:100D30005B0BDA01C90104C08C199D09AE09BF091A
:100D40004597A105B10508F4C8CEC0929601D0928E
:100D50009701E0929801F092990181E028960FB6F0
:100D6000F894DEBF0FBECDBFDF91CF91FF90EF9023
:100D7000DF90CF90BF90AF909F908F907F906F90BB
:100D80005F904F900895FC01228120FF08C081E010
:100D9000FB0180838091A301FA0180830AC082E075
:100DA000FB0180838091A4019091A501FA019183B8
:100DB000808380E00895FC012281FA0120FF04C0B5
:100DC00080818093A30106C0808191819093A501C9
:100DD0008093A40180E008958091A201873011F0F2
:100DE00080E0089588E08093A20180919A0124E038
:100DF000829FC001112440919B01429546954695E2
:100E00004370482B109229015091A301842F90E048
:100E1000252F30E0541718F4821B930B04C0B9013E
:100E2000681B790BCB010297D8F24093A30181E0B4
:100E3000089522E0FB012083FC01228120FF05C0F0
:100E40008091A9019091AA0104C08091A70190917D
:100E5000A801FA019183808380E00895FC0122813A
:100E6000FA018081918120FF05C09093AA018093AF
:100E7000A90104C09093A8018093A70180E0089580
:100E80008091A601813111F080E0089582E1809384
:100E9000A60120919B0122952F7080919A0130E14B
:100EA000839FC0011124822B109229012091A90156
:100EB0003091AA012817390728F4AC01421B530BC3
:100EC0009A0102C0281B390B26303105E8F29093B5
:100ED000AA018093A90181E0089522E0DB012C930F
:100EE000DC011296ED91FC911397E770FF27EE0F4E
:100EF000FF1FED54FE4F80819181FA019183808321
:100F000080E00895DC011296ED91FC911397E77053
:100F1000FF27EE0FFF1FED54FE4FDA018D919C91DC
:100F20009183808380E0089581E0FB01808380913C
:100F300050018695FA01808380E00895FA0180814E
:100F400080937B0180E00895CA0120912801FB0174
:100F50002083409128012AE031E050E0B9010E944D
:100F6000681F1092280110927A0180E00895809104
:100F70002901811101C028C08091500190917B010D
:100F8000981729F080937B0110927C0120C08091FA
:100F90002901837190E0419724F080EC80937C01DB
:100FA0000AC080917C018F5F80937C01803C41F47A
:100FB00084E98093BC0080E18093290181E0089559
:100FC000811105C0109229018FEF80937B0180E091
:100FD000089580912801882371F08091280188313B
:100FE00060F49091280180917A01981731F08091F6
:100FF000280180937A0180E0089581E00895CF93DD
:10100000C62FBA0180915801811112C029E531E043
:101010004C2F50E0C9010E94681F10925701C093E5
:1010200058018091C10080628093C10080E001C0BE
:1010300081E0CF9108950F931F939091290194FD22
:1010400014C0880F8093500160932901409351018F
:1010500020935601109353010093520110925501B1
:101060001092540185EA8093BC001F910F9108955E
:101070000F931F93CF93DF93FC0182819381EC0147
:10108000C770DD2720912901207381F0C555DE4FFF
:101090008881811101C057C080E488838091290133
:1010A00085FF51C080E2809329014DC02091290124
:1010B000237009F048C0FE01E555FE4F2081213024
:1010C00061F028F02230A1F02330C1F535C0209125
:1010D000290123FD38C021E0208310929A010AE9FA
:1010E00011E022E041E06BE0892F0E941B0826C03E
:1010F00090919A0180E020919B01822B23E0208334
:10110000AE01440F551FFA01ED54FE4F208131818D
:101110002817390728F4BC01621B730B9B0102C01E
:10112000281B390B2034310538F0FA01ED54FE4FFD
:101130009183808381E008C010922901C555DE4F5C
:1011400088818F5F888380E0DF91CF911F910F911D
:1011500008950F931F93CF93DF938091290180739C
:1011600081F08091A601811101C090C080E480933C
:10117000A6018091290185FF89C080E28093290121
:1011800085C080912901837009F080C08091A601FB
:10119000863001F148F48130E9F0A8F0843031F173
:1011A000853009F06EC02DC08B30C1F130F489302C
:1011B000E9F08A3009F065C024C08E30B9F08F3074
:1011C00009F05FC01EC08091290183FD5FC081E0EE
:1011D0008093A60183E080939A0181E180939B0133
:1011E0000AE911E020E042E06AE007C010929A01AB
:1011F0000AE911E021E041E06BE080E40E941B0875
:1012000040C090919A0190FF02C081503DC081E0A2
:1012100080939A010AE911E022E0EDCF80919B01D1
:10122000869586958695C0919A0120E2C29FE0013D
:101230001124C82B83E080939A0181E080939B0165
:101240000AE911E020E042E06AE080E40E941B0825
:101250008091A7019091A8018C179D0728F49E0109
:10126000281B390BC90102C08C1B9D0B069748F047
:10127000D093A801C093A7018CE08093A60181E0E0
:1012800006C08091A6018F5F8093A60180E0DF9168
:10129000CF911F910F9108950F931F938091290172
:1012A000807381F08091A201811101C061C080E44E
:1012B0008093A2018091290185FF5AC080E280932A
:1012C000290156C080912901837009F051C0809195
:1012D000A201813071F030F0843089F0853009F05E
:1012E00042C016C08091290183FD42C081E08093F5
:1012F000A20100E010E020E040E06AE005C00AE959
:1013000011E024E040E069E087E20E941B082BC066
:1013100080919A01807C11F084E028C020919D0189
:101320002695269580919C0130E4839FC00111246D
:10133000822B2091A4013091A5012817390728F4A8
:10134000AC01421B530B9A0102C0281B390B2730FA
:10135000310548F09093A5018093A40186E0809325
:10136000A20181E006C08091A2018F5F8093A2015B
:1013700080E01F910F910895CF92DF92EF92FF923C
:101380000F931F9380912901807381F080919301C5
:10139000811101C0D1C080E4809393018091290123
:1013A00085FFCAC080E280932901C6C080912901CF
:1013B000837009F0C1C080919301843039F148F401
:1013C0008130F9F0B8F0823009F1833009F0AFC014
:1013D00018C0883009F4A0C030F48530F1F08630B0
:1013E00009F0A5C08DC0893009F48AC08B3009F09E
:1013F0009EC092C08091290183FD9EC081E08093B0
:10140000930184EF80939A018EE27EC086EF8093F1
:101410009A010AE911E022E085C090919A0180E0EA
:1014200020919B01AC01422B9A0140E050E0809159
:10143000870190918801281B390B41095109A0911E
:101440008501B09186010E94331F6B017C010FE082
:10145000F594E794D794C7940A95D1F760918F01DA
:1014600070919001882777FD8095982F2BE0660F6B
:10147000771F881F991F2A95D1F7209191013091EC
:101480009201442737FD4095542F2C0D3D1D4E1DD4
:101490005F1D0E94171F2C0D3D1D4E1D5F1D2093CB
:1014A0009E0130939F014093A0015093A101DA0166
:1014B000C9010896A11DB11D34E0B595A795979572
:1014C00087953A95D1F79C014091940150919501EF
:1014D0004817590718F4841B950B03C0CA01821BD7
:1014E000930BA0E0B0E00297A105B10504F186E0FE
:1014F00080939301309395012093940181E01DC066
:1015000084EF80939A0184E380939B010AE911E0C0
:1015100020E042E06AE008C086EF80939A010AE981
:1015200011E023E041E06BE087E70E941B08809117
:1015300093018F5F8093930180E01F910F91FF9043
:10154000EF90DF90CF900895DF92EF92FF920F938C
:101550001F93CF93DF93EC017B018A018A819B81EA
:101560009C01287F33272031310521F028313105B6
:1015700029F402C0D6B003C0D9B001C0D12C0E945A
:101580003F0299819E3609F4D09491E0F70190834F
:10159000D82209F490E0F801908380E0DF91CF91A8
:1015A0001F910F91FF90EF90DF9008951F920F927F
:1015B0000FB60F9211242F933F934F938F939F93C6
:1015C000EF93FF93209178003091790040912A01A8
:1015D000403170F580912B0190912C01820F931F67
:1015E00090932C0180932B01411134C020917C00F9
:1015F0002F3059F0E0912D01E93038F4F0E0EE0F92
:10160000FF1FE25DFE4F9183808380912D018F5FEC
:1016100001C0822F893048F5282F2F5FE82FF0E096
:10162000E05CFE4F90819F30A1F380932D0112C0AA
:10163000403F81F410922C0110922B01E0912D017A
:10164000E93028F4F0E0E05CFE4F808101C08FE0DB
:1016500080937C0080912A01815080932A0180919F
:101660007A00806580937A0010C08FEF80932D01FF
:1016700080932A0180E180937A008FE080937C0040
:1016800080916400816080936400FF91EF919F914D
:101690008F914F913F912F910F900FBE0F901F9000
:1016A00018951092490110924B0110924D01109221
:1016B0004A0110924C0110924E0108951F920F9210
:1016C0000FB60F9211242F933F934F935F936F9315
:1016D0007F938F939F93AF93BF93EF93FF938091EB
:1016E000B900887F883221F140F48031A1F088313F
:1016F000F9F0883009F076C00EC0803409F448C093
:1017000020F4803309F06EC026C0803599F1883509
:1017100009F068C049C010924F0190912901809151
:10172000500191FD01C081608093BB0085E85BC0E2
:1017300080914F0190915101891768F4E091520115
:10174000F0915301E80FF11D90819093BB008F5FE2
:1017500080934F01EBCF809129018D7F80932901E8
:101760008091290180FF02C085EA3DC084E9809311
:10177000BC0030C080914F01E0915201F0915301C3
:10178000E80FF11D9091BB0090838F5F80934F0114
:1017900020914F0130E08091560190E00197281789
:1017A000390724F685EC1FC080914F01E09152016A
:1017B000F0915301E80FF11D9091BB0090838F5F72
:1017C00080934F0184E98093BC00809129018E7F32
:1017D00080932901E0915401F0915501309729F04F
:1017E000099503C084E98093BC00FF91EF91BF91FC
:1017F000AF919F918F917F916F915F914F913F91A9
:101800002F910F900FBE0F901F9018951F920F925F
:101810000FB60F9211248F939F93EF93FF938091B4
:10182000570190915801891758F4E82FF0E0E75AD2
:10183000FE4F90819093C6008F5F8093570107C041
:10184000109258018091C1008F7D8093C100FF915B
:10185000EF919F918F910F900FBE0F901F90189551
:101860001F920F920FB60F9211248F939F93EF93B5
:10187000FF939091C600809128018D3150F48091A2
:101880002801E82FF0E0E65FFE4F90838F5F8093A2
:101890002801FF91EF919F918F910F900FBE0F90B4
:1018A0001F90189580E180937A008FE080937C00F0
:1018B000809164008160809364001092780110929E
:1018C000770110922D018FEF80932A01E0E4F1E07F
:1018D0008FE0819391E0E934F907D9F70E94510B29
:1018E0008091C1008F768093C1008091C100887182
:1018F00029F4809164008D7F809364008091C10001
:10190000877F8093C1008091C100887129F4809104
:1019100064008260809364008FEF8093790110925D
:1019200057011092580110927A01109228011092DA
:1019300029018093500110927B0110925501109261
:10194000540108952F923F924F925F926F927F922F
:101950008F929F92AF92BF92CF92DF92EF92FF92BF
:101960000F931F93CF93DF931F92CDB7DEB71092E3
:10197000BC008091640080688093640084E190E002
:101980000E94560281113CC285E190E00E945602FD
:10199000811136C284E190E00E943F02182F85E158
:1019A00090E00E943F02812B96B19823981328C2A1
:1019B000809164008F778093640080E28093B80008
:1019C0008FEF8093BB0084E08093BC000E94A0183E
:1019D0007C01009709F414C280ED89838E010F5FAA
:1019E0001F4F21E041E063E087E70E947F048F3FC3
:1019F00009F0C0C08981853509F0BCC08AEA90E051
:101A000090937E0180937D010DE711E026E141E096
:101A100063E087E70E947F04109293011092950182
:101A200010929401109296011092970110929801D1
:101A30001092990180917D0190917E0198278927CC
:101A4000982790937E0180937D0180917F019091F2
:101A500080019827892798279093800180937F01A0
:101A600080918101909182019827892798279093EE
:101A70008201809381018091830190918401982754
:101A80008927982790938401809383018091850111
:101A900090918601982789279827909386018093B3
:101AA000850180918701909188019827892798273F
:101AB00090938801809387018091890190918A0198
:101AC00098278927982790938A018093890180918C
:101AD0008B0190918C0198278927982790938C01EE
:101AE00080938B0180918D0190918E019827892799
:101AF000982790938E0180938D0180918F01909112
:101B000090019827892798279093900180938F01BF
:101B1000809191019091920198278927982790931D
:101B20009201809391010E94A0186C01009711F11D
:101B300048E1A42E45E0B42EFC01B782A68209E359
:101B400015E0118700878CEB99E09387828754E535
:101B5000952E908287E7818380E097E79383828345
:101B60000E94A018FC01009739F48FEF9FEFF60157
:101B700095838483912C11C0B782A6821187008738
:101B800083E595E093878287908284E4818381E076
:101B900097E79383828332E0932E00E010E020E009
:101BA00040E062E087E20E947F048F3F09F02FC08F
:101BB0001092A2011092A3011092A5011092A4010B
:101BC0000E94A0186C01009711F193ECA92E96E0E9
:101BD000B92EF601B782A6820BED16E011870087B9
:101BE0008CE499E09387828724E5822E808287E7C0
:101BF000818380E097E2938382830E94A018FC0196
:101C0000009739F48FEF9FEFF6019583848380E08E
:101C100010C0B782A682118700878CEE96E093876A
:101C20008287808282E4818381E097E2938382834A
:101C300082E0582E590C81E189838E010F5F1F4F7E
:101C400021E041E063E080E40E947F048F3F09F0DF
:101C500034C08981803589F51092A6011092A801BF
:101C60001092A7011092AA011092A9010E94A01837
:101C70006C01009711F109E1A02E07E0B02EFC01E4
:101C8000B782A6820EE217E01187008789EA98E002
:101C90009387828784E5982E908287E7818380E00E
:101CA00090E4938382830E94A018FC01009739F48A
:101CB0008FEF9FEFF6019583848380E010C0B78299
:101CC000A6821187008780E497E0938782879082BD
:101CD00087E5818381E090E49383828382E0580EDC
:101CE00078E4C72ED12C412CEDE6AE2EE7E0BE2ED7
:101CF000F2E88F2EF7E09F2EA8E36A2EA8E07A2E56
:101D0000B4E53B2E17E7212EF1E0F0939A011092F3
:101D10009B010AE911E020E042E062E08C2D0E9484
:101D20007F048F3F11F5042D10E0F801E555FE4FBB
:101D300080E88083F801EE0FFF1FED54FE4F118203
:101D400010820E94A018FC010097C9F0B782A682F9
:101D50009186808673866286308221829C2D8827B8
:101D6000802B912B938382834394EFE4CE16D1048E
:101D700031F0FFEFCF1ADF0A87E0841528F6540C04
:101D800069F48FEF9FEFF701958384831092BC0075
:101D90008091640080688093640032C010922901B1
:101DA0008FEF8093500110927B0110925501109299
:101DB000540189E4F701808380E7818384E190E026
:101DC00093838283C7010E949B0385E190E0F70122
:101DD00093838283C7010E949B0384E997E0F70104
:101DE000978386838EE997E09187808787EB97E0DA
:101DF0009387828784E5808382E4818313821282C1
:101E00000F90DF91CF911F910F91FF90EF90DF9096
:101E1000CF90BF90AF909F908F907F906F905F908A
:101E20004F903F902F900895EF92FF920F931F9342
:101E3000CF93DF93CDB7DEB72C970FB6F894DEBF04
:101E40000FBECDBF8C01DC018C91813548F48F34FD
:101E500008F04EC0813441F0893409F007C148C010
:101E6000833509F003C148C0F801F280E3808F2D6B
:101E70009E2D0E94AF018111F7C08F2D9E2D0E94D3
:101E8000A80126EC31E0D80117963C932E931697C3
:101E900024EE31E019963C932E9318972FEF31E002
:101EA0001B963C932E931A97282F30E0F901EB53A1
:101EB000FE4F1082A901440F551FFA01E253FE4F55
:101EC00011821082FA01E25DFE4F11821082F90147
:101ED000E05CFE4FF08200917701109178010E9442
:101EE0009E01802B912B9093780180937701BAC04B
:101EF000C8010E949B03BBC0F8018181843709F0AF
:101F000055C089E190E00E9456028111ADC0209138
:101F100079012F3F19F5809164008D7F80936400D3
:101F2000D8011296ED91FC911397E0937901FF2768
:101F3000EE0FFF1FE859FF4F859194919C012227D6
:101F4000307F232B31F09F702091C00022602093BE
:101F5000C0009093C5008093C40008C030E0F80131
:101F6000828193812817390709F07EC08091C100D2
:101F700088608093C10086E08093C2008FE48983EB
:101F80008EE68A8389E190E09C838B83D801179643
:101F90001C921E9216978FEF97E019969C938E9342
:101FA00018971B961C921E921A9758C0823709F0F8
:101FB0005BC088E190E00E945602811155C02091DB
:101FC00079012F3F19F5809164008D7F8093640023
:101FD000D8011296ED91FC911397E0937901FF27B8
:101FE000EE0FFF1FE859FF4F859194919C01222726
:101FF000307F232B31F09F702091C000226020930E
:10200000C0009093C5008093C40007C030E0F80181
:10201000828193812817390739F58091C100806941
:102020008093C10086E08093C20089E489838EE6B4
:102030008A8388E190E09C838B8384EA97E0D801CF
:1020400017969C938E93169719961C921E9218972A
:1020500089EE97E01B969C938E931A97CE0101967A
:102060000E949B0380E003C082E001C083E02C96C5
:102070000FB6F894DEBF0FBECDBFDF91CF911F9199
:102080000F91FF90EF900895EF92FF920F931F939F
:10209000CF93DF931F92CDB7DEB77C01FC01208187
:1020A000213540F42F3428F5213441F0293409F04A
:1020B00046C01FC0233509F042C035C0FC01028173
:1020C000138100311105D8F5C8010E94AF0182309B
:1020D000B1F1F7018181893629F0863729F08536FB
:1020E00071F503C0006C01C00064F7011383028323
:1020F00022C0F70102811381C80129830E94560280
:1021000029818230E1F0F70181818E3611F080372C
:10211000B1F4203509F00FC00D31110561F00E3119
:10212000110549F00CC0FC01218182819381059742
:1021300030F4223711F480E003C02437E1F383E068
:102140000F90DF91CF911F910F91FF90EF90089525
:102150001F93CF93DF93FC018081813548F48F3446
:1021600008F068C0813441F0893409F069C062C068
:10217000833509F065C02EC0C281D381CE010E9493
:10218000AF01813009F05CC0CE010E94A801182F78
:10219000C0917701D09178010E949E018095909521
:1021A0008C239D239093780180937701892B59F498
:1021B00080E180937A008FE080937C0090916400AE
:1021C000916090936400E12FF0E0E05CFE4F8FE0BF
:1021D000808336C081818437A9F48091C100877FD4
:1021E0008093C1008091C100887129F480916400BE
:1021F0008260809364008FE480838EE6818389E12E
:1022000090E016C08237E1F48091C1008F76809310
:10221000C1008091C100887129F4809164008D7F94
:102220008093640089E480838EE6818388E190E076
:1022300093838283CF01DF91CF911F910C941D0472
:10224000DF91CF911F910895FC018081DB018C9378
:10225000818111968C93CB010296628173812081DA
:10226000213411F46F7077270E94B31E8E5F08959A
:102270001F920F920FB60F9211242F933F934F93FB
:102280005F936F937F938F939F93AF93BF93EF93DE
:10229000FF938091B50281FF1AC0809184009091D4
:1022A0008500109281008B3B2CE3920720F48091F3
:1022B00066008F5F06C088359D4328F080916600D8
:1022C0008150809366008091B5028D7F0EC0809111
:1022D000B50282FD0CC0109285001092840082E04D
:1022E000809381008091B50282608093B5028091D5
:1022F000B50281608093B5020E940E1CFF91EF91A0
:10230000BF91AF919F918F917F916F915F914F910D
:102310003F912F910F900FBE0F901F90189584E062
:102320008093B5028AE00E94D61D1092B00085E02D
:102330008093B1008091B6008F71E1F783B7817F00
:10234000866083BF089583B7817F83BF8BE00E943F
:10235000D61D80E28093B60082E08093B000109298
:10236000B2009FE39093B30087BB809370008AE034
:102370008093B1008091B6008F71E1F71092B502A1
:102380000895CF93DF9300D0CDB7DEB7F894A8952A
:1023900088E10FB6F89480936000109260000FBE41
:1023A00080E880BF83EA809364000E9470120E94DC
:1023B000AC1A0E94A5140E94D41B1092B50280E2B0
:1023C0008093B60082E08093B0001092B2009FE349
:1023D0009093B30087BB809370008AE08093B10034
:1023E0008091B6008F71E1F783B7817F83BF7894C6
:1023F0000E94101C0FEF1FEF87E1D82ECE0101962F
:102400000E94111C7C01009751F0BE016F5F7F4F4D
:102410000E940316811103C0C7010E949912CE01C8
:1024200001960E94A213009729F0BE016F5F7F4FB3
:102430000E94131C8091B50280FF4AC08091B502B2
:102440008E7F8093B5020E9481178A83823029F59E
:102450000F3F8FEF180739F40E945B1B8C010F3F71
:102460009FEF190719F10E9479127C010097F1F092
:10247000DA829C01AE014E5F5F4F60E8C8010E94A6
:10248000B71997014A8160E2C8010E94CD13C701C4
:102490000E9499120FEF1FEF09C0863039F40F3FE9
:1024A0008FEF180719F40E945B1B8C0181E00F3F2E
:1024B0009FEF190709F480E00E94A7148A838230F5
:1024C00019F40E948F1104C0833011F40E94A311EB
:1024D00083B7816083BF889583B78E7F83BF8ECF9C
:1024E000E6EBF2E01192119282E0EA3CF807D1F7B4
:1024F0000895E6EBF2E080E090E021913191232B0A
:1025000081F442E2489F9001499F300D11242653E7
:102510003D4FFC01EE0FFF1FEA54FD4F3183208336
:1025200006C001968A30910541F720E030E0C901EC
:10253000089520E030E062E2629FA001639F500DA9
:10254000112446535D4F8417950741F4F901EE0FAE
:10255000FF1FEA54FD4F1182108208952F5F3F4FF5
:102560002A30310549F708958091FC019091FD01D1
:1025700001968F3F2FEF920709F002C081E090E0B3
:102580009093FD018093FC012091FC013091FD01AD
:10259000322723273227C9010895E091E9012E2F20
:1025A0002F5F243008F024503091E801231304C039
:1025B0000E9499128FEF0895F0E0EE0FFF1FE65191
:1025C000FE4F918380832093E90180E0089510926B
:1025D000E9011092E8011092F3011092F2010E94B9
:1025E00070121092E1018FE38093E2011092E401F6
:1025F0001092E30183E08093E5011092FD011092B7
:10260000FC018FEF809300020C94301A0E94791223
:10261000009739F022E0FC01208326E121830C940D
:10262000CD1208950F931F93CF93DF931F92CDB7D1
:10263000DEB78C01FC0181818C3031F4F80182819C
:102640008076803231F407C08231C1F38A30E9F5F7
:1026500002C08034D1F58091F301282F2F5F243000
:1026600008F024508091F2012817B9F129830E94C3
:102670007912AC012981009781F182E2F801DA0137
:1026800001900D928A95E1F7F80181818C3009F46F
:1026900002C0823121F4FA01828180688283E09154
:1026A000F3018091F201E81307C01092E401109247
:1026B000E3018FE08093E201F0E0EE0FFF1FEC50AA
:1026C000FE4F518340832093F301C8010F90DF91A7
:1026D000CF911F910F910C94CD12C8010E949912B5
:1026E0008FEF0F90DF91CF911F910F91089520915F
:1026F000F2018091F301821721F1E22FF0E0EE0F59
:10270000FF1FEC50FE4F808191812F5F2093F201DB
:102710000E9499128091F201843018F084508093C5
:10272000F2019091F3018091F201981307C0109289
:10273000E4011092E3018FE38093E20183E0809350
:10274000E5010895E091E8012091E901E217E1F047
:102750002E2F2F5F243008F402C02E2F23502093F9
:10276000E801F0E0EE0FFF1FE651FE4F0190F0810F
:10277000E02D2181213019F4DC011C9207C0209149
:10278000E001DC012C9302C0E0E0F0E0CF0108950D
:102790009093E7018093E6010895CF92DF92EF9244
:1027A000FF920F931F93CF93DF9300D01F92CDB76B
:1027B000DEB78C017901542F595F5332B0F54B834A
:1027C00059836A830E9479126C014B8159816A8115
:1027D000009759F1DC015C938CE011968C93119772
:1027E00012966C93129710270127102714961C93AA
:1027F0000E9313974B830E94B412F6019683858340
:1028000037964B8150E0B701CF010E94681FC60187
:102810000F900F900F90DF91CF911F910F91FF902C
:10282000EF90DF90CF900C9412138FEF0F900F90DA
:102830000F90DF91CF911F910F91FF90EF90DF905C
:10284000CF900895DF92EF92FF920F931F93CF9353
:10285000DF93D82E162F7A01062F0B5F033200F577
:102860000E947912EC010097D9F0088382E18983F4
:10287000DA820E94B4129C838B839E012B5F3F4FB0
:10288000412F50E0B701C9010E94681FCE01DF91BE
:10289000CF911F910F91FF90EF90DF900C94121346
:1028A0008FEFDF91CF911F910F91FF90EF90DF900D
:1028B0000895AF92BF92DF92EF92FF920F931F9312
:1028C000CF93DF931F92CDB7DEB78C01F62ED42EB7
:1028D000E52E262F2A5F233260F529830E94791284
:1028E0005C012981009729F1FC0120838AE0818322
:1028F000102701271027138302830E94B412F501C9
:102900009583848395012A5F3F4F4F2D50E06D2DB5
:102910007E2DC9010E94681FC5010F90DF91CF91E4
:102920001F910F91FF90EF90DF90BF90AF900C94AC
:1029300012138FEF0F90DF91CF911F910F91FF90A6
:10294000EF90DF90BF90AF9008950C94E7120F9333
:102950001F93CF93DF939091E201992321F091503F
:102960009093E20148C19091E101933009F4EAC0EB
:1029700050F42091E3013091E401913009F445C015
:1029800008F0A5C00CC0953009F407C108F4F9C0DF
:10299000963009F418C1973009F02DC122C12115D4
:1029A0003105F1F0215031093093E4012093E30126
:1029B0002D30310509F421C1232B09F01CC1809170
:1029C000E501882341F081508093E5018FE38093F6
:1029D000E20183E013C1F894299A0C9400000BC122
:1029E0008FE38093E2018EE090E09093E401809386
:1029F000E3010E947912009709F4FDC023E0FC0175
:102A0000208321E02183128259C08FE38093E20169
:102A10002115310509F061C08091E501882309F491
:102A200050C081508093E50189E090E09093E401EB
:102A30008093E3010E947912EC01009709F4DBC056
:102A40008091FC019091FD01892B19F484E08A8327
:102A500001C01A8281E08B8381E09CE29D838C839C
:102A60008E010A5F1F4F84E188839801AE0161E007
:102A700080E09FEF0E94B71988818230C8F486E019
:102A800088839801AE0161E080EC9FEF0E94B71946
:102A90001881212F30E0CE01820F931FFC014FE5FA
:102AA00046831F5F188307960E94151C810F888339
:102AB00088818A5F888384E08983CE010E94CD1259
:102AC0009AC083E08093E5011092E10194C09FE3F6
:102AD0009093E2012115310539F0215031093093ED
:102AE000E4012093E30187C09091E501992351F01F
:102AF00091509093E5012091F2019091F3012913F7
:102B000007C003C00E94E71276C0811174C066C07E
:102B10000E947912009791F0E091F201F0E0EE0F3F
:102B2000FF1FEC50FE4F0190F081E02D22E2DC010E
:102B300001900D922A95E1F70E94CD128FE08093CB
:102B4000E20159C08FE38093E2010E94791200975D
:102B500081F024E0FC01208328E121832091E6011B
:102B60003091E701322723273227338322830E94C3
:102B7000CD128091E501882321F081508093E501F9
:102B80003AC085E08093E1018091E6019091E701F0
:102B90009093E4018093E30130C08091E301909130
:102BA000E401009731F001979093E4018093E301F1
:102BB00022C08FE38093E20186E08093E10183E00D
:102BC0008093E5011BC08FE38093E2018091E501D2
:102BD000882309F497CF81508093E5010E94061362
:102BE0000AC0882311F081E004C08FE38093E201E2
:102BF00084E08093E10180E001C082E0DF91CF9129
:102C00001F910F9108950F931F93CF93DF93EC01C2
:102C100089818B3009F49BC078F4823069F130F4FB
:102C2000882351F1813009F061C118C08530A1F1CC
:102C30008A3009F05BC16CC0833109F40EC138F4ED
:102C40008C3009F4A5C08D3009F050C1E8C087313F
:102C500009F41AC1883109F049C13DC18091E101EF
:102C6000811144C18FE090E09093E4018093E301EF
:102C700083E08093E5013AC18091E101811136C181
:102C8000FB0180818093E00181E08093E10110925B
:102C9000E4011092E3012AC18091E101813009F041
:102CA00025C18FE38093E2018A8181112EC082E0E9
:102CB0008093E1011092E4011092E30183E080939C
:102CC000E5011092FF011092FE010E94FE1D8F3F50
:102CD00009F40CC18091FC019091FD01892B09F050
:102CE00005C186E188838E010E5F1F4F9801AE01FA
:102CF00061E080EC9FEF0E94B7199801488161E282
:102D000080EC9FEF0E94CD13F1C00E94E71285C0B6
:102D10008091E101823008F4E9C08C819D8198277F
:102D2000892798272091FE013091FF018217930790
:102D300049F09093FF018093FE01CE010E94BD18DF
:102D40008093000287E088838BE0898360C0809154
:102D5000E101823009F0CAC0E091F201F0E0EE0F2B
:102D6000FF1FEC50FE4F0190F081E02D81818A30F1
:102D700009F0BCC08E81811106C08A819B81982791
:102D80008927982702C080E090E00E94A21962C0C3
:102D90008091E101823019F0863009F0A7C08FE3FD
:102DA0008093E20183E08093E5018D819E819827E5
:102DB000892798272091FE013091FF018217930700
:102DC00009F496C09093FF018093FE019E01295F54
:102DD0003F4F488147506A8160688B819C8198276A
:102DE000892798270E946A1A809300028A81807638
:102DF000803209F07BC087E088838DE089838B81F6
:102E00009C819B838A838D819E819D838C8380910D
:102E100000028E83CE010E94CD1281E06DC08091B0
:102E2000E101823009F062C0E091F201F0E0EE0FC2
:102E3000FF1FEC50FE4F0190F081E02D81818C301E
:102E400009F054C0258136818C819D81281739076E
:102E500009F04CC00E94771349C08091E101823093
:102E600009F044C0E091F201F0E0EE0FFF1FEC50DA
:102E7000FE4F0190F081E02D81818231B9F52381EF
:102E800034818D819E81E2CF9091E8018091E901AA
:102E900098132CC023E02093E5018FE38093E20197
:102EA0008091E101823089F48CE291E09093E40119
:102EB0008093E3018091E6019091E701892BB1F0C5
:102EC0002093E1011092E20111C0863079F487E08D
:102ED0008093E1010BC08091E101833009F015CFAF
:102EE00084E08093E1018FE38093E20180E004C0FD
:102EF0008A8187FFFBCF7ACFDF91CF911F910F910E
:102F000008958091E10108950F931F93CF93DF936C
:102F100000D01F92CDB7DEB78C01FA01808191817C
:102F20004A835B8369830E94C8134A815B816981FC
:102F3000C8010F900F900F90DF91CF911F910F91CB
:102F40000C945701FC0120812F3401F128F4213425
:102F5000B9F0293431F41AC02035E1F0233509F4F1
:102F600015C0FC018181873559F028F4823491F035
:102F7000843461F409C0843629F0873739F408C0F5
:102F800082E0089584E8089584E0089580E008953B
:102F900082E8089581E00895FF920F931F93CF93E5
:102FA000DF938C0161111EC0E5E0F2E040E050E0EB
:102FB00012C08017910749F48CE0849F9001859F8F
:102FC000300D11242F5F3D4F31C04F5F5F4F3C9656
:102FD0004C30510549F1808191818F3F2FEF92074D
:102FE00041F722C0613001F5C0E0D0E08CE0F82E5E
:102FF000FC9EB001FD9E700D11246E577F4F4CE07A
:1030000050E083E992E00E94521F809197029091D4
:1030100098028017910729F02196C630D10541F713
:1030200003C023E932E002C020E030E0C901DF91B3
:10303000CF911F910F91FF900895BF92CF92DF9291
:10304000EF92FF920F931F93CF93DF9300D000D0A6
:10305000CDB7DEB7B82E00E010E0C82ED12C8CE042
:10306000B89E7001112481E092E0E80EF91EBE01C5
:103070006F5F7F4FC8010E94A30044E050E0B7019A
:10308000CE0101960E945B1F009771F48FEF898338
:103090008A838FEF9FEF9C838B83BE016F5F7F4F8F
:1030A000C8010E94AA0006C00C5F1F4F90E00033C9
:1030B0001907E9F62CE02C9DC0012D9D900D1124DF
:1030C0008F5F9D4F0E94A8106CE00DC0629FD001E1
:1030D000639FB00D1124AF5FBD4F862F01900D92FD
:1030E0008A95E1F7B3948AE08B1558F49CE0B99E79
:1030F000F0011124EF5FFD4F8FEF9FEF95838483E5
:1031000011C02B2D30E0C9010196689FF001699F25
:10311000F00D1124EF5FFD4F448155814F3F5F4F0C
:10312000A9F6E4CF0F900F900F900F90DF91CF9101
:103130001F910F91FF90EF90DF90CF90BF90089577
:10314000E5E0F2E020E030E080819181019659F4E1
:103150008CE0829FF001839FF00D1124EF5FFD4F03
:103160001582148208C02F5F3F4F3C962C303105EA
:1031700059F7E0E0F0E0CF0108956F927F928F92CF
:103180009F92AF92BF92CF92DF92EF92FF920F93F6
:103190001F93CF93DF93CDB7DEB764970FB6F89444
:1031A000DEBF0FBECDBF8C01FC018681898B87817C
:1031B0008A8B908120E030E03896402F41955AE08C
:1031C0001CC08191682F60536A3068F03C8B2B8B58
:1031D0005E01F1E1AF0EB11CC5010E944410982EB2
:1031E000882381F099C0B901569F9001579F300DF7
:1031F000112420533109280F311D842F8E0F891778
:1032000000F3E4CFF801E280F380FE24EF24FE24F3
:1032100025E0C22E22E0D22E00E010E03CE0832E1A
:103220007A2C6B2C20C0809EB001819E700D1124E1
:103230006F5F7D4F44E050E0872D962D0E945B1F0D
:10324000009709F467C0AE14BF0421F4E114F1043F
:1032500009F059C00F5F1F4FFCE0CF0ED11C0C309E
:10326000110509F450C0F601A080B180FFEFAF1640
:10327000BF06C9F64BC049895A896B897C89498345
:103280005A836B837C83CE0101960E94140F982E83
:10329000811139C0FE82ED828CE0809FD001819F38
:1032A000B00D1124AF5FBD4FFE01319601900D921C
:1032B0008A95E1F700E010E0BE01635F7F4FC8012F
:1032C0000E94A30044E050E0BE01635F7F4FCE0147
:1032D00041960E945B1F0097F9F08D8581508E3FCB
:1032E00038F0BE016F5E7F4FC8010E94AA0014C073
:1032F0000C5F1F4F60E000331607F1F60DC0802F02
:103300000E941D1809C092E0992E06C0E114F10434
:10331000D1F3B1CFEF2899F3892D64960FB6F894C5
:10332000DEBF0FBECDBFDF91CF911F910F91FF90F8
:10333000EF90DF90CF90BF90AF909F908F907F9055
:103340006F900895E0919102009749F02CE0E29F80
:10335000F0011124EF5FFD4F958384830895EC30D5
:1033600018F48E2F0E941D18109291020895AF92AA
:10337000BF92DF92EF92FF920F931F93CF93DF9351
:103380001F92CDB7DEB7D62E7A01890163700E94F5
:10339000CC175C01009709F454C0DC011696ED913E
:1033A000FC911797309709F44EC0A801B701099511
:1033B000482FD7FE49C0811147C0C50149830E94EB
:1033C000A217498187FF1DC08F7718C09801280F69
:1033D000311DF90131979081911108C0F90132979F
:1033E000908197FF0AC0F70180832EC09F3FD9F7D5
:1033F000F9013297908197FFF6CF8150823030F7F4
:10340000F2CF882309F1F801E80FF11DDF011197D0
:103410009C9197FF04C010828F5F10C08150813053
:1034200069F09801280F311DF901319790819111B0
:1034300005C0F9013297908197FFF0CFD7018C93A7
:1034400003C042E001C043E0842F0F90DF91CF9191
:103450001F910F91FF90EF90DF90BF90AF90089574
:10346000CF93DF9300D01F92CDB7DEB710929102B9
:103470008FE38093920220E03CE023C0422F4F5F15
:10348000329FF0011124EF5FFD4F848195810196F9
:10349000A9F42B830E94D61B82E08B839E012F5FB1
:1034A0003F4FAE014D5F5F4F61E081E09FEF0E94B3
:1034B000B71989819A810E94C81306C015821482A7
:1034C000242F2C30D8F2E5CF0F900F900F90DF9182
:1034D000CF910895EF92FF920F931F93CF93DF93B5
:1034E000E62EF42E890163700E94CC17EC01009740
:1034F00049F188859985892B39F1E7FE17C0CE01FE
:103500000E94A2178F77F81678F4F801EF0DF11DDD
:1035100031979081990F990BF801EF0DF11D908370
:10352000F394F812F9CF02C08111F82EE885F985DD
:10353000A8016F2DCE01DF91CF911F910F91FF90C8
:10354000EF90099482E001C083E0DF91CF911F9159
:103550000F91FF90EF9008950F931F93CF93DF93F8
:10356000CDB7DEB760970FB6F894DEBF0FBECDBF04
:1035700081E08F879E01205F3F4FAE01415F5F4F2B
:1035800061E080E09FEF0E94B71918891F3F09F0A2
:1035900041C0188A9E01205F3F4F40E061E080E01B
:1035A0009FEF0E946A1A188B9E01205F3F4F41E0F7
:1035B00061E080E19FEF0E946A1A188A9E01205FF5
:1035C0003F4F40E061E080E09FEF0E946A1A84ED87
:1035D0009DE29E878D879E01235F3F4F42E061E021
:1035E00081E19FEF0E946A1A8CE0888B9E01205F28
:1035F0003F4F41E061E082E19FEF0E946A1A1E8620
:103600001D869E01235F3F4F42E061E081E09FEF16
:103610000E946A1A20E03CE08FEF9FEF329FF0019A
:103620001124EF5FFD4F958384832F5F2C30B0F31F
:10363000288B109291028FE3809392020E94520C89
:10364000188A10E00CE027C024E0829FC0011124FA
:10365000BE016F5F7F4F805090400E94A300898120
:1036600081508E3FA8F4CE0101960E94140F811163
:103670000FC01E821D82019FD0011124AF5FBD4F7C
:10368000FE013196802F01900D928A95E1F71F5F20
:1036900088898F5F888B88898C30B0F20E94A20C59
:1036A00060960FB6F894DEBF0FBECDBFDF91CF910D
:1036B0001F910F910895FF920F931F93CF93DF9364
:1036C000CDB7DEB76D970FB6F894DEBF0FBECDBF96
:1036D0004CE0F42E35C001151105E1F4BE016F5F19
:1036E0007F4F0E942411AE014F5F5F4F682F80E033
:1036F00090E00E945914811148C0E09191022CE0A1
:10370000E29FF0011124EF5FFD4F80E090EF958381
:1037100084833BC00115A0EF1A0709F436C0DC0111
:103720001A96ED91FC911B97309731F4809191029C
:103730008F5F8093910204C009958823B9F327C055
:10374000809191028C3068F4F89EC00111248F5F43
:103750009D4FFC01048115810F3FFFEF1F0709F00A
:10376000BACF1092910280919202882371F0815019
:1037700080939202811109C083E28D8FAE01435E76
:103780005F4F61E080E20E9422140FEF1FEFC8013B
:103790006D960FB6F894DEBF0FBECDBFDF91CF910F
:1037A0001F910F91FF9008950C94701DCF93DF939C
:1037B00000D000D01F92CDB7DEB782E08D839E018E
:1037C0002F5F3F4FAE014B5F5F4F61E081E19FEFA5
:1037D0000E94B7199E012D5F3F4FAE014B5F5F4FB7
:1037E00061E080E19FEF0E94B7199E012C5F3F4F7F
:1037F000AE014B5F5F4F61E082E19FEF0E94B7191E
:1038000069817A814B818C810E94321D0F900F90CB
:103810000F900F900F90DF91CF9108950C94521E4E
:1038200008950C94ED1D0C94011ECF93DF93EC01D1
:103830000E94FE1D682FCE010E949F1E82E0DF9134
:10384000CF9108952A981C99FECF8EBD0DB407FE26
:10385000FDCF2A9A08952A981C99FECF8EBD0DB4EB
:1038600007FEFDCF6EBD0DB407FEFDCF2A9A089569
:103870000F931F93CF93DF931F92CDB7DEB78C01C9
:10388000289A86E369830E94221C8BE30E94221CF3
:10389000F80180812A9869811C99FECF9FE79EBD1F
:1038A0000DB407FEFDCF982F9E5F9EBD0DB407FEA1
:1038B000FDCF6EBD0DB407FEFDCF9091A5029EBD5C
:1038C0000DB407FEFDCF202FF80105C091919EBDDC
:1038D0000DB407FEFDCF9E2F921B9817B8F32A9ABE
:1038E000C8010E94991285E30E94221C87E0809300
:1038F0009F020F90DF91CF911F910F9108951EBCF1
:103900000DB407FEFDCF8EB508952A981C99FECF01
:103910008EBD0DB407FEFDCF0E947F1C2A9A08952C
:103920001F920F920FB60F921124EF92FF920F93F6
:103930001F932F933F934F935F936F937F938F9337
:103940009F93AF93BF93CF93DF93EF93FF9385EF55
:103950000E94851C90919F02953061F0973009F488
:1039600054C0933009F055C08D3009F052C0299AE7
:1039700085E05FC0813009F04CC08BEF0E94851C50
:10398000C82F8BEF0E94851CC813FACF2C2F2F77DE
:1039900030E027303105ECF1C7FD3BC0C232C8F53D
:1039A0008BEFF82EFC0E0E947912EC01009789F142
:1039B0002A981C99FECF8FEF8EBD0DB407FEFDCF68
:1039C0000E947F1C0E947F1C0E947F1C8093A0028B
:1039D000EC2E0C2F1D2F05C00E947F1CF801819337
:1039E0008F01802F8E198F15B8F30E947F1C0E94C3
:1039F0007F1C2A9A87FF05C0D093A202C093A10220
:103A000008C0CE010E94991204C0833111F488E0ED
:103A100010C085B18C7F85B986E30E94221C8BE3A0
:103A20000E94221C8AE30E94221C84E30E94221C22
:103A300083E080939F02FF91EF91DF91CF91BF913F
:103A4000AF919F918F917F916F915F914F913F9136
:103A50002F911F910F91FF90EF900F900FBE0F903D
:103A60001F9018950F931F93CF93DF93082FEB01AF
:103A7000142F2091A3023091A4022115310559F091
:103A80002617370741F06D2F84E00E942B1C6C2F06
:103A900085E00E942B1CD093A402C093A3029091B6
:103AA000A502992331F0911721F0612F89E00E943E
:103AB0002B1C1093A502C02FC695C695C695809164
:103AC00000018F3F31F08C1721F06C2F8AE00E94AB
:103AD0002B1CC0930001DF91CF911F910F9108958E
:103AE000CF93DF931DBA84E185B98FE284B980E575
:103AF0008CBD81E08DBD52985A9A809369008DE00B
:103B00008A95F1F700002A988AE18A95F1F700C0BA
:103B10002A9A8AE68A95F1F700C02A981C99FECF66
:103B200080E38EBD0DB407FEFDCF1C99FECF2A9A0F
:103B3000C0E0D0E0CE01880F991FFC01EA52FF4F90
:103B40006491FC01EB52FF4F84910E942B1C219643
:103B5000C931D10579F7C091A3026091A40284E034
:103B60000E942B1C6C2F85E00E942B1C6091A502EB
:103B700089E00E942B1C609100018AE00E942B1CAE
:103B800060E58EE30E942B1C82E080939F021092DE
:103B9000A2021092A1021092A6021092A702109205
:103BA000A80281E08DBBDF91CF910895CF93C82FFC
:103BB0008A3049F486E30E94221C89E30E94221C79
:103BC000C0939F0208C08B3031F486E30E94221C10
:103BD00082E080939F02CF9108952091A1023091BD
:103BE000A2022115310541F04091A002FC01408361
:103BF0001092A2021092A102C90108958091A5021B
:103C00000895EF92FF920F931F93CF93DF93EC01F0
:103C10008B01E090A702F090A602EF1014C08091F3
:103C20009F02833081F488EF0E94851C84FF0BC0C3
:103C3000D8016C91CE01DF91CF911F910F91FF9030
:103C4000EF900C94381C8F2D8F5F843008F08450D7
:103C50008E1109C0CE01DF91CF911F910F91FF907E
:103C6000EF900C949912EF2DF0E09F0127553D4FF6
:103C7000D8019C91D9019C93EE0FFF1FE355FD4F96
:103C8000D183C0838093A6028091A50282958F7014
:103C90008F5F8093A802DF91CF911F910F91FF90CA
:103CA000EF900895CF9380919F02833099F5C09152
:103CB000A7028091A602C81769F188EF0E94851CAF
:103CC00084FD06C08091A802882311F081501FC096
:103CD000EC2FF0E0DF01A755BD4FEE0FFF1FE355BE
:103CE000FD4F6C91808191810E94381C8091A702C8
:103CF000982F9F5F943018F49093A70203C08350CD
:103D00008093A7028091A50282958F708F5F809328
:103D1000A80213C080919F02823079F486E30E944A
:103D2000221C8BE30E94221C8AE30E94221C84E353
:103D30000E94221C83E080939F02CF910895262F3A
:103D400022952F702A3010F0295C01C0205DFC0103
:103D500020836F706A3010F0695C01C0605DFC0107
:103D6000618382E00895FC0181E020E137E240E0D8
:103D700090E004C0621B730B9F5F41E06217730702
:103D8000C8F7283E53E0350789F0203157E2350760
:103D900021F02436310539F403C028EE33E008C0A1
:103DA0002AE030E005C021E030E002C024E630E047
:103DB000442329F0905D91938F5F41E090E02A3099
:103DC0003105E0F6605D60830895DB018F939F937A
:103DD0000E94331FBF91AF91A29F800D911DA39FA1
:103DE000900DB29F900D11240895A1E21A2EAA1BE6
:103DF000BB1BFD010DC0AA1FBB1FEE1FFF1FA2179B
:103E0000B307E407F50720F0A21BB30BE40BF50B97
:103E1000661F771F881F991F1A9469F76095709520
:103E2000809590959B01AC01BD01CF010895052EB1
:103E300097FB16F4009407D057FD0DD00E94F51E95
:103E400007FC09D07EF490958095709561957F4F21
:103E50008F4F9F4F089550954095309521953F4F36
:103E60004F4F5F4F08950E94461FA59F900DB49F2E
:103E7000900DA49F800D911D11240895B7FF0C94FF
:103E8000331F0E94331F821B930B0895A29FB00122
:103E9000B39FC001A39F01D0B29F700D811D11245B
:103EA000911D0895FB01DC0102C005900D92415067
:103EB0005040D8F70895FB01DC0104C08D910190BA
:103EC000801921F441505040C8F7881B990B089580
:103ED000FB01DC0102C001900D9241505040D8F727
:103EE0000895DC01CB01FC01F999FECF06C0F2BDBB
:103EF000E1BDF89A319600B40D9241505040B8F7A8
:103F00000895F999FECF92BD81BDF89A992780B5A1
:103F10000895DC01CB0103C02D910E94941F4150F4
:103F20005040D0F70895262FF999FECF1FBA92BDC1
:103F300081BD20BD0FB6F894FA9AF99A0FBE01968A
:063F40000895F894FFCF84
:0A3F4600FF00FFFFFFFFFFFFFF0178
:00000001FF
