:100000000C947B000C9498000C9498000C9498002D
:100010000C9498000C9498000C9498000C94DF11A8
:100020000C9498000C9498000C9498000C949800F0
:100030000C9498000C9498000C9498000C949800E0
:100040000C9498000C9498000C94320C0C94080CAE
:100050000C9498000C94D80A0C9498000C94980076
:100060000C94600B0C9498004401A10050002700F0
:100070001300000102030405FF06FFFFFFFFFFFF5F
:1000800007FF4573300000FFA8004E0100004561E6
:10009000560020FFA800CA1600004544520021FF68
:1000A000A800CA16000045444E0022FFA800CA1648
:1000B000000045444A0023FFA800CA16000045443A
:1000C000460024FFA800CA1600004673D600C0FFF1
:1000D000F300000000000A4E444C4E30302E323502
:1000E00032350103350101FF63825363450000820D
:1000F00000004000200011241FBECFEFD8E0DEBF7B
:10010000CDBF11E0A0E0B1E0E4EEF6E402C005905E
:100110000D92A432B107D9F725E0A4E2B1E001C005
:100120001D92A93FB207E1F70E9442110C9470237F
:100130000C9400009C01CB0144E050E0B9010C9408
:1001400040239C01CB0144E050E0B9010C945823BA
:10015000EF92FF920F931F93CF93DF93EB017A01FE
:10016000FC010281138181818236B1F058F484341C
:10017000E9F018F4823479F50FC08735A9F081369B
:1001800051F517C08337A9F018F4843621F50EC055
:10019000873751F08A37F9F481E08883C8010E94DB
:1001A0005023F701808315C082E001C084E088837A
:1001B0000AC0C8010E9450239881981708F4892F1B
:1001C00088830F5F1F4F488150E0B801C7010E942C
:1001D000402380E001C083E0DF91CF911F910F9118
:1001E000FF90EF9008950F931F93CF93DF93EB0150
:1001F000DA01FC016281738181818236D1F068F479
:10020000843431F120F4823409F042C012C08735C1
:10021000B1F0813609F03CC02DC0833759F120F48C
:10022000843609F035C014C0873749F08A3709F0A1
:100230002FC081E08883FB0164916C9319C082E038
:100240008883FB01859194918C9311969C9310C0A7
:1002500084E08883FB0105911591259134910C93DD
:1002600011961C93119712962C93129713963C9308
:1002700080E00FC0FB0114918881811708F4182FCA
:100280006F5F7F4F412F50E0CD010E9421231883E3
:1002900083E0DF91CF911F910F910895EF92FF922C
:1002A0000F931F93CF93DF931F92CDB7DEB7FC015F
:1002B000262F8A01E280F38081818236B1F058F4E2
:1002C0008434A9F018F4823439F50FC08735D9F099
:1002D000813611F50EC0833761F018F48436E1F4ED
:1002E00006C0873781F08A37B9F421E00DC024E0D9
:1002F0000BC0622FC70129830E9462238FEFE81A87
:10030000F80A298101C022E0422F50E0B701C8015C
:100310000E94582380E001C083E00F90DF91CF91CD
:100320001F910F91FF90EF9008958F7021E030E0C2
:1003300002C0220F331F8150E0F7C90108958F706A
:1003400099278E589F4FFC0184910895CF93DF9396
:100350000E949F018F3F69F0C0919201D09193015B
:100360000E949501C823D92381E0CD2B19F480E0A8
:1003700001C082E0DF91CF9108950F931F93CF9337
:10038000DF938B01EA01FC01828193810E949F012E
:1003900092E0F8019083E82FF0E0EE0FFF1FEC51A0
:1003A000FE4F808191819983888380E0DF91CF9196
:1003B0001F910F910895CF93DF93EA01FC01828191
:1003C00093810E949F0190E0FC01EE0FFF1FEC5112
:1003D000FE4F2881398131832083FC01E452FE4F96
:1003E00021E0208380E0DF91CF9108952091640087
:1003F00020FF10C02FEF20934B0120934801209144
:1004000064002E7F209364002FE020937C002FED6A
:1004100020937A00FC01828193810E949F0190E0E9
:10042000FC01E452FE4F208121502083222311F051
:1004300080E0089520E42083FC01EE0FFF1FDF0120
:10044000A45BBE4F2D913C91285F3F4F54E0369501
:1004500027955A95E1F7EC51FE4F808191818217E3
:10046000930731F33183208381E008959C01277045
:10047000332781E001C0880F21503109E0F708954A
:10048000887F992740978930910528F4FC01E65E22
:10049000FE4F808108958FEF08951F93CF93DF93D0
:1004A000EC010E943602182F9E01287F332720314D
:1004B000310521F02831310599F403C0807C81F4A5
:1004C00002C082FD0DC0CE010E944002E82FF0E084
:1004D000EC59FE4F9081912381E019F480E001C036
:1004E00082E0DF91CF911F9108950F931F93CF93D7
:1004F000DF931F92CDB7DEB78C0169830E9436026D
:10050000087F112769810031110521F0083111059B
:10051000A1F40AC097B1662319F0982B97B90DC0C2
:100520008095892387B909C09AB1662319F0982B61
:100530009AB903C0809589238AB90F90DF91CF9132
:100540001F910F9108950F931F93CF93DF931F92E5
:10055000CDB7DEB78C0169830E943602087F112770
:1005600069810031110521F008311105A1F40AC09B
:1005700098B1662319F0982B98B90DC080958923FE
:1005800088B909C09BB1662319F0982B9BB903C0A9
:10059000809589238BB90F90DF91CF911F910F9197
:1005A00008950F931F93CF93DF93FC01C281D381F2
:1005B000DA011C9180818934A9F4CE010E944002A5
:1005C000082FCE010E943602E02FF0E0EA59FE4FDC
:1005D000112319F09081982B03C080959081982366
:1005E00090831CC08F3451F481818E3609F41095AC
:1005F000612F6170CE010E94A30210C0803571F49A
:1006000081818E3609F4109581E090E06D9711F4A8
:1006100080E090E0FC01E652FE4F108380E0DF9125
:10062000CF911F910F910895EF92FF920F931F9317
:10063000CF93DF938C01FC01C281D3818081893407
:1006400099F5CE01887F99278031910519F0489757
:1006500029F402C0F6B003C0F9B001C0F12CCE01FC
:100660000E944002E82ECE010E943602F8019181DC
:100670009E3609F4F094F822EE2DF0E0DF01A8593F
:10068000BE4F9C91292F2823F21619F089278C93AD
:1006900041C0EA59FE4F9081292F2823F216D1F14B
:1006A0008927808381E037C08035A1F5CD31D10520
:1006B000C1F468B58091DA01681761F1861710F40A
:1006C000615001C06F5F68BD862F81508E3F30F052
:1006D00084B58F7D84BD8DE190E016C084B58062C5
:1006E00018C067B58091DB016817A1F0861710F478
:1006F000615001C06F5F67BD862F81508E3F38F01B
:1007000084B58F7784BDCE010E94A30203C084B557
:10071000806884BD80E0DF91CF911F910F91FF90A1
:10072000EF900895DF92EF92FF920F931F93CF9374
:10073000DF938C01FC01C281D381CE010E944D0266
:10074000811169C0CE010E944002D82E811117C0CC
:10075000CE010E94A601813009F45DC081110FC055
:10076000E0909201F0909301CE010E949F010E94BF
:1007700095018E299F299093930180939201CE0138
:100780000E9436022D2D30E0F901EC59FE4F908188
:10079000982B90838095F901EA59FE4F9081982318
:1007A0009083F901E859FE4F908198239083F801D6
:1007B00080818F3411F461E014C0803589F461E0E8
:1007C000CE010E94750284B5807A71F48091640034
:1007D0008F7D8093640083E084BD84E085BD04C088
:1007E00060E0CE010E947502F80181818E3621F40D
:1007F00061E0CE010E94A30286EA9AE0F8019783A5
:10080000868381ED92E09187808784E193E09387EE
:10081000828780E001C082E0DF91CF911F910F912C
:10082000FF90EF90DF900895EF92FF920F931F9348
:10083000CF93DF938C01FC01C281D381CE010E9452
:100840004002F82ECE010E9436022F2D30E0809516
:10085000F901EC59FE4F908198239083F901EA59F0
:10086000FE4F908198239083F901E859FE4F9081C3
:1008700098239083F11016C0CE010E94A60181300A
:1008800089F4E0909201F0909301CE010E949F01C3
:100890000E949501809590958E219F2190939301C0
:1008A00080939201F8018081803591F484B5CD3137
:1008B000D10511F48F7D01C08F7784BD84B5807A16
:1008C00039F414BC15BC809164008062809364008C
:1008D00060E0CE010E94A30260E0CE01DF91CF91E3
:1008E0001F910F91FF90EF900C9475020F931F933F
:1008F000880F80936B016093470140936C012093B4
:10090000710110936E0100936D0164EA54E877C0A1
:100910006093BC008091BC0087FFFCCF8091B90040
:10092000883029F08091B900803109F036C090916B
:10093000470180916B0191FD01C081608093BB00F4
:100940005093BC008091BC0087FFFCCF8091B90020
:10095000883129F08091B900803409F01EC080915F
:10096000470181FD20C040E041C0E0916D01F09160
:100970006E01E80FF11D90819093BB008F5F509343
:10098000BC009091BC0097FFFCCF90916C0189173F
:1009900058F49091B900983239F084E98093BC0002
:1009A0008091B90039C080E090916C018917E8F21C
:1009B000809147018D7F21C0842F90E0019630E027
:1009C0008217930714F484EC01C084E88093BC0080
:1009D0008091BC0087FFFCCFE0916D01F0916E012A
:1009E000E40FF11D8091BB0080834F5F2091710166
:1009F000421710F3809147018E7F809347018091C9
:100A00004701837009F084CF84E98093BC00109281
:100A1000470110926B018FEF1F910F910895FC0118
:100A2000228120FF11C084E0FB0180838091B1010D
:100A30009091B201A091B301B091B401FA01808309
:100A40009183A283B3830AC082E0FB0180838091FB
:100A5000AF019091B001FA019183808380E0089505
:100A6000FC012281FA0120FF0DC080819181A281C9
:100A7000B3818093B1019093B201A093B301B0937D
:100A8000B40106C0808191819093B0018093AF0141
:100A900080E008953F924F925F926F927F928F9283
:100AA0009F92AF92BF92CF92DF92EF92FF920F93FD
:100AB0001F93CF93DF9300D000D0CDB7DEB78091E6
:100AC000AE018D3011F080E038C18EE08093AE0130
:100AD000009143013090440110914501109247016B
:100AE000C090B501D090B601E090B701F090B80188
:100AF00020EAC21A2FE0D20AE108F108A701960104
:100B0000C701B6010E94B4222B013C018CE0759410
:100B10006794579447948A95D1F7A091A601B09114
:100B2000A701A30192010E940D234B015C01A0913A
:100B30009A01B0919B01A70196010E940D23698340
:100B40007A838B839C83E0919801F0919901A09125
:100B50009C01B0919D010E940D236B017C019DE0E1
:100B6000F594E794D794C7949A95D1F7A091A401EE
:100B7000B091A501A30192010E940D23BB2797FD0F
:100B8000B095AB2FC80ED91EEA1EFB1E32E0C30E75
:100B9000D11CE11CF11C32E0F594E794D794C79482
:100BA0003A95D1F740E8D40EE11CF11CA0919E01CA
:100BB000B0919F01A70196010E9402236B017C0165
:100BC0004FE0F694E794D794C7944A95D1F7832DD4
:100BD00090E0A0E0B0E02227382F492F5A2F402B79
:100BE000212B65E056954795379527956A95D1F75E
:100BF000CF01AA2797FDA095BA2F72E0880F991F01
:100C0000AA1FBB1F7A95D1F7EBE0B594A7949794F0
:100C10008794EA95D1F749805A806B807C80FBE00D
:100C20007594679457944794FA95D1F7840C951C62
:100C3000A61CB71C880D991DAA1DBB1D880F991FE6
:100C4000AA1FBB1F281B390B4A0B5B0BAAE6B8E196
:100C50000E94022397FD0BC0660F771F881F991F04
:100C6000A70196010E94C42249015A010AC0A701A6
:100C700096010E94C42249015A01880C991CAA1CA1
:100C8000BB1C9927B7FC9A958B2D7A2D692D9B015A
:100C9000AC010E94B4229B01AC01AEEDBBE00E940E
:100CA00002236C01FF24D7FCF094EF2CA3E4B3EEF5
:100CB000A50194010E941023BB2797FDB095AB2F8F
:100CC000C80ED91EEA1EFB1E2FECC20E2EE0D21E4D
:100CD000E11CF11CA4E0F594E794D794C794AA957D
:100CE000D1F7C80CD91CEA1CFB1C8091B101909172
:100CF000B201A091B301B091B4018C159D05AE0570
:100D0000BF0548F426013701481A590A6A0A7B0AC6
:100D1000D301C20104C08C199D09AE09BF094597D2
:100D2000A105B10508F4CFCEC092B101D092B201B5
:100D3000E092B301F092B40181E00F900F900F9018
:100D40000F90DF91CF911F910F91FF90EF90DF9067
:100D5000CF90BF90AF909F908F907F906F905F905B
:100D60004F903F900895FC01228120FF08C081E050
:100D7000FB0180838091BA01FA0180830AC082E07E
:100D8000FB0180838091BB019091BC01FA019183AA
:100D9000808380E00895FC012281FA0120FF04C0D5
:100DA00080818093BA0106C0808191819093BC01BB
:100DB0008093BB0180E008958091B901873011F0E4
:100DC00080E0089588E08093B901809143014091CB
:100DD000440124E0829FC001112442954695469526
:100DE0004370482B109247015091BA01842F90E034
:100DF000252F30E0541718F4821B930B04C0B9015F
:100E0000681B790BCB010297D8F24093BA0181E0BD
:100E1000089522E0FB012083FC01228120FF05C010
:100E20008091C0019091C10104C08091BE01909158
:100E3000BF01FA019183808380E00895FC01228143
:100E4000FA018081918120FF05C09093C1018093B8
:100E5000C00104C09093BF018093BE0180E008955B
:100E60008091BD01813111F080E0089582E180938D
:100E7000BD01809143012091440122952F7030E102
:100E8000839FC0011124822B109247012091C00141
:100E90003091C1012817390728F4AC01421B530BCC
:100EA0009A0102C0281B390B23303105E8F29093D8
:100EB000C1018093C00181E0089522E0DB012C9301
:100EC000DC011296ED91FC911397E770FF27EE0F6E
:100ED000FF1FE653FE4F80819181FA019183808349
:100EE00080E00895DC011296ED91FC911397E77074
:100EF000FF27EE0FFF1FE653FE4FDA018D919C9105
:100F00009183808380E0089581E0FB01808380915C
:100F10006B018695FA01808380E00895FA01808153
:100F20008093960180E00895CA0120914201FB015F
:100F300020834091420124E231E050E0B9010E9457
:100F40003723109242011092950180E0089580911C
:100F50004701811102C08FEF3AC080916B019091DF
:100F60009601981729F0809396011092970131C04D
:100F700080914701837190E0419724F080EC809349
:100F800097010EC0809197018F5F80939701803CFD
:100F900061F41092BC0080916400806880936400CA
:100FA00080E18093470181E00895811112C0809112
:100FB00064008F778093640086E38093B8008FEF9E
:100FC0008093BB0094E09093BC0010924701809303
:100FD000960180E0089580914201882371F080910C
:100FE0004201883160F490914201809195019817F7
:100FF00031F0809142018093950180E0089581E075
:101000000895CF93C62FBA0180917301811112C048
:1010100024E731E04C2F50E0C9010E9437231092A1
:101020007201C09373018091C10080628093C100FE
:1010300080E001C081E0CF9108950F931F939091BC
:10104000470194FD14C0880F80936B0160934701A2
:1010500040936C012093710110936E0100936D0118
:101060001092700110926F0185EA8093BC001F916D
:101070000F9108950F931F93CF93DF93FC0182810B
:101080009381EC01C770DD2720914701207381F027
:10109000CE53DE4F8881811101C058C080E488831F
:1010A0008091470185FF52C080E2809347014EC086
:1010B00020914701237009F049C0FE01EE53FE4F15
:1010C0002081213061F028F02230A1F02330C9F5D1
:1010D00036C02091470123FD39C021E020831092C2
:1010E000430103E411E022E041E06BE0892F0E941C
:1010F0001D0827C03091430120914401932F80E0C7
:10110000822B23E02083AE01440F551FFA01E653E2
:10111000FE4F208131812817390728F4BC01621B5A
:10112000730B9B0102C0281B390B2034310538F0AA
:10113000FA01E653FE4F9183808381E008C010924C
:101140004701CE53DE4F88818F5F888380E0DF9137
:10115000CF911F910F9108950F931F93CF93DF931A
:1011600080914701807381F08091BD01811101C0A0
:101170008FC080E48093BD018091470185FF88C0C6
:1011800080E28093470184C080914701837009F019
:101190007FC08091BD01863001F148F48130E9F0D3
:1011A000A8F0843031F1853009F06DC028C08B3053
:1011B000C1F130F48930E9F08A3009F064C01FC011
:1011C0008E30B9F08F3009F05EC019C080914701B0
:1011D00083FD5EC081E08093BD0183E08093430185
:1011E00081E18093440103E411E020E042E06AE001
:1011F00014C01092430103E411E021E00CC090916F
:10120000430190FF02C0815041C081E080934301BF
:1012100003E411E022E041E06BE080E40E941D085D
:1012200032C0C0914301809144018695869520E4A7
:10123000C29FE0011124C82B83E08093430181E029
:101240008093440103E411E020E042E06AE080E49E
:101250000E941D088091BE019091BF018C179D07CF
:1012600028F49E01281B390BC90102C08C1B9D0B61
:10127000069748F0D093BF01C093BE018CE08093E5
:10128000BD0181E006C08091BD018F5F8093BD01EB
:1012900080E0DF91CF911F910F9108950F931F93DD
:1012A00080914701807381F08091B901811101C063
:1012B00061C080E48093B9018091470185FF5AC0E5
:1012C00080E28093470156C080914701837009F006
:1012D00051C08091B901813071F030F0843089F0D3
:1012E000853009F042C016C08091470183FD42C09D
:1012F00081E08093B90100E010E020E040E06AE086
:1013000005C003E411E024E040E069E087E20E94C8
:101310001D082BC080914301807C11F084E028C01F
:1013200080914501209146012695269530E4839FC2
:10133000C0011124822B2091BB013091BC012817E0
:10134000390728F4AC01421B530B9A0102C0281B39
:10135000390B2730310548F09093BC018093BB01D5
:1013600086E08093B90181E006C08091B9018F5F6A
:101370008093B90180E01F910F910895CF92DF9281
:10138000EF92FF920F931F9380914701807381F03A
:101390008091AE01811101C0D1C080E48093AE0183
:1013A0008091470185FFCAC080E280934701C6C093
:1013B00080914701837009F0C1C08091AE018430F3
:1013C00039F148F48130F9F0B8F0823009F1833016
:1013D00009F0AFC018C0883009F4A0C030F48530DF
:1013E000F1F0863009F0A5C08EC0893009F48BC0B9
:1013F0008B3009F09EC092C08091470183FD9EC052
:1014000081E08093AE0184EF809343018EE27EC041
:1014100086EF8093430103E411E022E085C0309120
:10142000430120914401932F80E0AC01422B9A01AB
:1014300040E050E08091A2019091A301281B390B5C
:1014400041095109A091A001B091A1010E9402237C
:101450006B017C013FE0F594E794D794C7943A95EB
:10146000D1F76091AA017091AB01882777FD809533
:10147000982F4BE0660F771F881F991F4A95D1F769
:101480002091AC013091AD01442737FD4095542F98
:101490002C0D3D1D4E1D5F1D0E94E6222C0D3D1D95
:1014A0004E1D5F1D2093B5013093B6014093B701E7
:1014B0005093B801DA01C9010896A11DB11D54E08D
:1014C000B595A795979587955A95D1F79C01409129
:1014D000AF015091B0014817590718F4841B950BC0
:1014E00003C0CA01821B930BA0E0B0E00297A105E4
:1014F000B105FCF086E08093AE013093B0012093FB
:10150000AF0181E01CC084EF8093430180934401CC
:1015100003E411E020E042E06AE008C086EF809337
:10152000430103E411E023E041E06BE087E70E9420
:101530001D088091AE018F5F8093AE0180E01F9106
:101540000F91FF90EF90DF90CF900895DF92EF9290
:10155000FF920F931F93CF93DF93EC017B018A01DE
:101560008A819B819C01287F33272031310521F01E
:101570002831310529F402C0D6B003C0D9B001C06A
:10158000D12C0E94360299819E3609F4D09491E0C4
:10159000F7019083D82209F490E0F801908380E06D
:1015A000DF91CF911F910F91FF90EF90DF90089501
:1015B0001F920F920FB60F9211242F933F934F93C8
:1015C0008F939F93EF93FF93209178003091790050
:1015D00040914801403170F58091490190914A0154
:1015E000820F931F90934A0180934901411134C0A7
:1015F00020917C002F3059F0E0914B01E83038F415
:10160000F0E0EE0FFF1FE45BFE4F9183808380913B
:101610004B018F5F01C0822F883048F5282F2F5F44
:10162000E82FF0E0E45AFE4F90819F30A1F38093C1
:101630004B0112C0403F81F410924A0110924901BF
:10164000E0914B01E83028F4F0E0E45AFE4F80814D
:1016500001C08FE080937C0080914801815080938D
:10166000480180917A00806580937A0010C08FEFE6
:1016700080934B018093480180E180937A008FE052
:1016800080937C0080916400816080936400FF916E
:10169000EF919F918F914F913F912F910F900FBE9E
:1016A0000F901F901895109264011092660110928D
:1016B0006801109265011092670110926901089506
:1016C0001F920F920FB60F9211242F933F934F93B7
:1016D0005F936F937F938F939F93AF93BF93EF939A
:1016E000FF938091B900887F883221F140F48031E6
:1016F000A1F08831F9F0883009F076C00EC080344E
:1017000009F448C020F4803309F06EC026C080354B
:1017100099F1883509F068C049C010926A0190912A
:10172000470180916B0191FD01C081608093BB00F6
:1017300085E85BC080916A0190916C01891768F41B
:10174000E0916D01F0916E01E80FF11D9081909391
:10175000BB008F5F80936A01EBCF809147018D7F43
:10176000809347018091470180FF02C085EA3DC018
:1017700084E98093BC0030C080916A01E0916D01E2
:10178000F0916E01E80FF11D9091BB0090838F5F87
:1017900080936A0120916A0130E08091710190E0AC
:1017A00001972817390724F685EC1FC080916A013C
:1017B000E0916D01F0916E01E80FF11D9091BB0079
:1017C00090838F5F80936A0184E98093BC0080914D
:1017D00047018E7F80934701E0916F01F091700186
:1017E000309729F0099503C084E98093BC00FF91EC
:1017F000EF91BF91AF919F918F917F916F915F9189
:101800004F913F912F910F900FBE0F901F90189501
:101810001F920F920FB60F9211248F939F93EF9305
:10182000FF938091720190917301891758F4E82F0A
:10183000F0E0EC58FE4F90819093C6008F5F80934C
:10184000720107C0109273018091C1008F7D809357
:10185000C100FF91EF919F918F910F900FBE0F905C
:101860001F9018951F920F920FB60F9211248F930D
:101870009F93EF93FF939091C600809142018D3129
:1018800050F480914201E82FF0E0EC5DFE4F908330
:101890008F5F80934201FF91EF919F918F910F9005
:1018A0000FBE0F901F90189580E180937A008FE013
:1018B00080937C00909164009160909364001092FA
:1018C00093011092920110924B019FEF9093480167
:1018D00080935C0180935D0180935E0180935F0142
:1018E0008093600180936101809362018093630122
:1018F0000E94530B8091C1008F768093C10080912C
:10190000C100887129F4809164008D7F8093640008
:101910008091C100877F8093C1008091C100887150
:1019200029F4809164008260809364008FEF80933B
:10193000940110927201109273011092950110920D
:1019400042011092470180936B0110929601109210
:10195000700110926F0108952F923F924F925F9203
:101960006F927F928F929F92AF92BF92CF92DF92AF
:10197000EF92FF920F931F93CF93DF931F92CDB7F8
:10198000DEB71092BC008091640080688093640090
:1019900084E190E00E944D0281113CC285E190E01B
:1019A0000E944D02811136C284E190E00E9436020D
:1019B000182F85E190E00E943602812B96B1982382
:1019C000981328C2809164008F778093640086E327
:1019D0008093B8008FEF8093BB0084E08093BC00BD
:1019E0000E940D187C01009709F414C280ED8983D0
:1019F0008E010F5F1F4F21E041E063E087E70E9407
:101A000076048F3F09F0C0C08981853509F0BCC0DC
:101A10008AEA90E0909399018093980108E911E097
:101A200026E141E063E087E70E9476041092AE0170
:101A30001092B0011092AF011092B1011092B20158
:101A40001092B3011092B401809198019091990184
:101A500098278927982790939901809398018091DE
:101A60009A0190919B0198278927982790939B0131
:101A700080939A0180919C0190919D0198278927DC
:101A8000982790939D0180939C0180919E01909155
:101A90009F0198278927982790939F0180939E0103
:101AA0008091A0019091A101982789279827909370
:101AB000A1018093A0018091A2019091A301982798
:101AC000892798279093A3018093A2018091A40174
:101AD0009091A5019827892798279093A501809335
:101AE000A4018091A6019091A701982789279827A2
:101AF0009093A7018093A6018091A8019091A901DC
:101B00009827892798279093A9018093A80180910D
:101B1000AA019091AB019827892798279093AB0150
:101B20008093AA018091AC019091AD0198278927FB
:101B300098279093AD018093AC010E940D186C0121
:101B4000009711F15FE0A52E55E0B52EFC01B7829C
:101B5000A68200E315E0118700878EEB99E093875A
:101B6000828764E5962E908287E7818380E097E7FD
:101B7000938382830E940D18FC01009739F48FEF44
:101B80009FEFF60195838483912C11C0B782A682C2
:101B9000118700878AE495E093878287908284E4A6
:101BA000818381E097E79383828342E0942E00E073
:101BB00010E020E040E062E087E20E9476048F3F80
:101BC00009F02FC01092B9011092BA011092BC0115
:101BD0001092BB010E940D186C01009711F123EBCC
:101BE000A22E26E0B22EFC01B782A6820BEC16E0F4
:101BF000118700878EE499E09387828734E5832EEE
:101C0000808287E7818380E097E2938382830E94CA
:101C10000D18FC01009739F48FEF9FEFF6019583C3
:101C2000848380E010C0B782A682118700878CED84
:101C300096E093878287808282E4818381E097E2C5
:101C40009383828382E0582E590C81E189838E012F
:101C50000F5F1F4F21E041E063E080E40E947604C3
:101C60008F3F09F035C08981803591F51092BD0113
:101C70001092BF011092BE011092C1011092C001DA
:101C80000E940D186C01009719F1B9E0AB2EB7E076
:101C9000BB2EFC01B782A6820EE117E011870087F8
:101CA0008CEA98E09387828784E5882E808297E586
:101CB000992E918280E090E4938382830E940D1894
:101CC000FC01009739F48FEF9FEFF6019583848331
:101CD00080E00FC0B782A6821187008780E397E07B
:101CE000938782878082918281E090E493838283CC
:101CF00082E0580E58E4C52ED12C412C6DE5A62E5D
:101D000067E0B62E72E7872E77E0972EEAE36E2E15
:101D1000E8E07E2EF4E53F2EA7E72A2EF1E0F093CF
:101D200043011092440103E411E020E042E062E04C
:101D30008C2D0E9476048F3F11F5042D10E0F801E0
:101D4000EE53FE4F80E88083F801EE0FFF1FE6534D
:101D5000FE4F118210820E940D18FC010097C9F0FD
:101D6000B782A682918680867386628630822182BF
:101D70009C2D8827802B912B938382834394EFE4BF
:101D8000CE16D10431F0FFEFCF1ADF0A87E08415B9
:101D900028F6540C69F48FEF9FEFF7019583848345
:101DA0001092BC008091640080688093640032C00F
:101DB000109247018FEF80936B0110929601109261
:101DC000700110926F0189E4F701808380E78183BD
:101DD00084E190E093838283C7010E94920385E1AE
:101DE00090E0F70193838283C7010E94920384E805
:101DF00097E0F701978386838EE897E09187808745
:101E000087EA97E09387828784E5808382E48183F1
:101E1000138212820F90DF91CF911F910F91FF904B
:101E2000EF90DF90CF90BF90AF909F908F907F907A
:101E30006F905F904F903F902F900895EF92FF9298
:101E40000F931F93CF93DF93CDB7DEB72C970FB6C9
:101E5000F894DEBF0FBECDBF8C01DC018C918135C3
:101E600048F48F3408F04EC0813441F0893409F0D1
:101E700007C148C0833509F003C148C0F801F280AA
:101E8000E3808F2D9E2D0E94A6018111F7C08F2D1A
:101E90009E2D0E949F012DEB31E0D80117963C93B7
:101EA0002E9316972BED31E019963C932E931897AD
:101EB00026EF31E01B963C932E931A97282F30E0A3
:101EC000F901E452FE4F1082A901440F551FFA0197
:101ED000EC51FE4F11821082FA01E45BFE4F118239
:101EE0001082F901E45AFE4FF082009192011091A4
:101EF00093010E949501802B912B909393018093E5
:101F00009201BAC0C8010E949203BBC0F80181814E
:101F1000843709F055C089E190E00E944D0281119B
:101F2000ADC0209194012F3F19F5809164008D7F01
:101F300080936400D8011296ED91FC911397E09381
:101F40009401FF27EE0FFF1FE859FF4F85919491F1
:101F50009C012227307F232B31F09F702091C000FD
:101F600022602093C0009093C5008093C40008C0F5
:101F700030E0F801828193812817390709F07EC08B
:101F80008091C10088608093C10086E08093C20088
:101F90008FE489838EE68A8389E190E09C838B833A
:101FA000D80117961C921E92169781E098E0199618
:101FB0009C938E9318971B961C921E921A9758C04A
:101FC000823709F05BC088E190E00E944D028111E8
:101FD00055C0209194012F3F19F5809164008D7FA9
:101FE00080936400D8011296ED91FC911397E093D1
:101FF0009401FF27EE0FFF1FE859FF4F8591949141
:102000009C012227307F232B31F09F702091C0004C
:1020100022602093C0009093C5008093C40007C045
:1020200030E0F801828193812817390739F58091D2
:10203000C10080698093C10086E08093C20089E47A
:1020400089838EE68A8388E190E09C838B8384E990
:1020500097E0D80117969C938E93169719961C9229
:102060001E9218978BEE97E01B969C938E931A976F
:10207000CE0101960E94920380E003C082E001C07D
:1020800083E02C960FB6F894DEBF0FBECDBFDF9174
:10209000CF911F910F91FF90EF900895EF92FF92D3
:1020A0000F931F93CF93DF931F92CDB7DEB77C01C1
:1020B000FC012081213540F42F3428F5213441F0F2
:1020C000293409F046C01FC0233509F042C035C08D
:1020D000FC010281138100311105D8F5C8010E946D
:1020E000A6018230B1F1F7018181893629F0863766
:1020F00029F0853671F503C0006C01C00064F7015A
:102100001383028322C0F70102811381C80129834E
:102110000E944D0229818230E1F0F70181818E36E3
:1021200011F08037B1F4203509F00FC00D311105E1
:1021300061F00E31110549F00CC0FC012181828152
:102140009381059730F4223711F480E003C02437DF
:10215000E1F383E00F90DF91CF911F910F91FF90FA
:10216000EF9008951F93CF93DF93FC018081813519
:1021700048F48F3408F068C0813441F0893409F0A4
:1021800069C062C0833509F065C02EC0C281D381A9
:10219000CE010E94A601813009F05CC0CE010E94F0
:1021A0009F01182FC0919201D09193010E94950137
:1021B000809590958C239D23909393018093920119
:1021C000892B59F480E180937A008FE080937C0022
:1021D00090916400916090936400E12FF0E0E45AE4
:1021E000FE4F8FE0808336C081818437A9F48091CF
:1021F000C100877F8093C1008091C100887129F45C
:10220000809164008260809364008FE480838EE616
:10221000818389E190E016C08237E1F48091C100AA
:102220008F768093C1008091C100887129F48091DC
:1022300064008D7F8093640089E480838EE68183CF
:1022400088E190E093838283CF01DF91CF911F914A
:102250000C941404DF91CF911F910895FC018081AB
:10226000DB018C93818111968C93CB010296628164
:1022700073812081213411F46F7077270E948222AC
:102280008E5F0895CF93DF931F92CDB7DEB7F8949A
:10229000A89588E10FB6F8948093600010926000D2
:1022A0000FBE80E880BF8BEA809364000E942F12EB
:1022B0000E94DC190E9454140E94B421109222043E
:1022C00082E08093B0001092B2009DEB9093B30037
:1022D00087BB809370008FE08093B10083B7817FCC
:1022E00083BF78940E94B8218091220480618093FA
:1022F00022040FEF1FEF87E1D82E0E94CA217C0134
:10230000009769F080912204806480932204C701C1
:102310000E946815811103C0C7010E9458120E94D3
:102320005513009739F02091220420642093220451
:102330000E941B228091220480FFDFCF8091220423
:102340008E7F809322040E94C716823051F58091BF
:1023500022048062809322040F3F8FEF180739F424
:102360000E948E1A8C010F3F9FEF1907F9F00E940F
:1023700038127C010097D1F0D9829C01AE014F5FE9
:102380005F4F60E8C8010E9421199701498160E20E
:10239000C8010E947013C7010E9458120FEF1FEF6F
:1023A00005C0809122048F7D8093220481E00F3F3D
:1023B0009FEF190709F480E00E9456149ECF1F92E8
:1023C0000F920FB60F9211242F933F934F935F9369
:1023D0006F937F938F939F93AF93BF93EF93FF93ED
:1023E000809122048160809322040E944422809183
:1023F000F401882311F0815015C08091220484FFDC
:1024000016C08091220485FF10C08091220486FFAF
:1024100007C0289A809122048F7B8093220401C0F8
:10242000289882E08093F40109C080E101C082E035
:102430008093F40185B191E0892785B9FF91EF91EF
:10244000BF91AF919F918F917F916F915F914F91CC
:102450003F912F910F900FBE0F901F901895E3E2C0
:10246000F4E01192119284E0E733F807D1F7089570
:10247000E3E2F4E080E090E021913191232B81F4BC
:102480004CE2489F9001499F300D1124295C3B4F3D
:10249000FC01EE0FFF1FED5DFB4F3183208306C073
:1024A00001968A30910541F720E030E0C901089596
:1024B00020E030E06CE2629FA001639F500D112488
:1024C000495C5B4F8417950741F4F901EE0FFF1F3C
:1024D000ED5DFB4F1182108208952F5F3F4F2A3030
:1024E000310549F7089580911802909119020196DB
:1024F0008F3F2FEF920709F002C081E090E09093A8
:102500001902809318022091180230911902322783
:1025100023273227C9010895E09105022E2F2F5F4E
:10252000243008F0245030910402231304C00E9488
:1025300058128FEF0895F0E0EE0FFF1FEB50FE4FA3
:10254000928B818B2093050280E008951092050202
:102550001092040210920F0210920E020E942F128B
:102560001092FF018FE380930002109202021092FA
:10257000010283E080930302109219021092180264
:102580008FEF80931C020C94F8170F931F93CF9337
:10259000DF931F92CDB7DEB78C01FC0183858C30B1
:1025A00031F4F80184858076803231F407C08231BD
:1025B000C1F38A30E9F502C08034D1F580910F0271
:1025C000282F2F5F243008F0245080910E02281706
:1025D000B9F129830E943812AC012981009781F159
:1025E0008CE2F801DA0101900D928A95E1F7F80189
:1025F00083858C3009F402C0823121F4FA0184858C
:1026000080688487E0910F0280910E02E81307C072
:1026100010920202109201028FE080930002F0E01B
:10262000EE0FFF1FEB50FE4F548F438F20930F028E
:10263000C8010F90DF91CF911F910F910C948C12D4
:10264000C8010E9458128FEF0F90DF91CF911F9118
:102650000F91089520910E0280910F02821721F1AF
:10266000E22FF0E0EE0FFF1FEB50FE4F838D948DB5
:102670002F5F20930E020E94581280910E02843028
:1026800018F0845080930E0290910F0280910E02F8
:10269000981307C010920202109201028FE38093F8
:1026A000000283E0809303020895E0910402809188
:1026B0000502E81789F08E2F8F5F843008F402C07E
:1026C0008E2F835080930402F0E0EE0FFF1FEB503B
:1026D000FE4F2189328902C020E030E0C90108950F
:1026E000CF92DF92EF92FF920F931F93CF93DF93DE
:1026F00000D0CDB7DEB78C017901842F885F8D3291
:1027000008F03FC04A8369830E9438126C014A81F5
:1027100069810097B1F18AE0E5EFF1E0D60101901F
:102720000D928A95E1F7842F895FD6011A968C93D2
:102730001A978CE01B968C931B971C966C931C9796
:102740001027012710271E961C930E931D974A836E
:102750000E947312F601908B878771964A8150E030
:10276000B701CF010E943723C6010F900F90DF9170
:10277000CF911F910F91FF90EF90DF90CF900C942D
:10278000C5128FEF0F900F90DF91CF911F910F9196
:10279000FF90EF90DF90CF900895EF92FF920F930C
:1027A0001F93CF93DF93E82E162FF42E052F862F3D
:1027B0008A5F8D3250F50E943812EC01009729F1A2
:1027C0009AE0E5EFF1E0DE0101900D929A95E1F7D4
:1027D000812F8B5F8A8782E18B87EC860E94731240
:1027E0009E878D879E01215F3F4F412F50E06F2DC7
:1027F000702FC9010E943723CE01DF91CF911F9125
:102800000F91FF90EF900C94C5128FEFDF91CF9155
:102810001F910F91FF90EF900895DF92EF92FF923A
:102820000F931F93CF93DF938C01F62ED42EE52EBA
:10283000862F895F8D3278F50E943812EC0100975F
:1028400051F18AE0E5EFF1E0DE0101900D928A9509
:10285000E1F78F2D8A5F8A878AE08B87102701270F
:1028600010271D870C870E9473129F878E879E01F9
:10287000205F3F4F4F2D50E06D2D7E2DC9010E94EE
:102880003723CE01DF91CF911F910F91FF90EF90F1
:10289000DF900C94C5128FEFDF91CF911F910F91B4
:1028A000FF90EF90DF9008950C94A612EF92FF92A4
:1028B0000F931F93CF93DF9390910002992321F000
:1028C000915090930002FCC0C091FF01C130A1F172
:1028D00020F0C23009F0F4C0A3C08FE3809300025F
:1028E0008091010290910202009709F02EC08EE0C3
:1028F00090E090930202809301028091030288236A
:1029000021F081508093030203C0F8940C940000DE
:102910000E943812009709F4D3C02AE0E4E0F1E005
:10292000DC0101900D922A95E1F723E0FC0122875A
:1029300021E023871486A8C08FE380930002809152
:10294000010290910202009731F0019790930202E8
:1029500080930102B5C080910302882309F45AC014
:1029600081508093030289E090E09093020280936B
:1029700001020E943812EC01009709F4A1C08AE01C
:10298000E5EFF1E0DE0101900D928A95E1F780918B
:10299000180290911902892B19F484E08C8701C0E8
:1029A0001C8681E08D8781E09CE29F878E877E0177
:1029B000F0E1EF0EF11C84E18A878E01065F1F4F64
:1029C0009701A80161E080E09FEF0E9421198A85AC
:1029D0008230C8F486E08A879701A80161E080EC24
:1029E0009FEF0E9421191A85212F30E0CE01820F1E
:1029F000931FFC014FE5408B1F5F1A8741960E9491
:102A00005122810F8A878A858A5F8A8784E08B8733
:102A1000CE013AC083E0809303021092FF0150C0C0
:102A20009FE3909300022091010230910202211550
:102A3000310539F02150310930930202209301020F
:102A40003FC090910302992351F09150909303025B
:102A500020910E0290910F02291319C003C00E9409
:102A6000A6122EC081112CC00E943812009741F18D
:102A70002AE0E5EFF1E0DC0101900D922A95E1F703
:102A8000FC01C28726E123870E948C1219C00E9494
:102A90003812009791F0E0910E02F0E0EE0FFF1F68
:102AA000EB50FE4F038CF48DE02D2CE2DC01019005
:102AB0000D922A95E1F70E948C128FE0809300021C
:102AC00080E0DF91CF911F910F91FF90EF900895DB
:102AD0000F931F93CF93DF93EC018B858B3009F419
:102AE00099C078F4823069F130F4882351F1813053
:102AF00009F042C118C08530C1F18A3009F03CC1EB
:102B00006AC0833109F407C138F48C3009F4A3C0DA
:102B10008D3009F031C1E3C0873109F412C1883129
:102B200009F02AC125C18091FF01811125C18FE0E3
:102B300090E0909302028093010283E0809303026D
:102B40001BC18091FF01811117C18AE0FE01A5EF31
:102B5000B1E001900D928A95E1F781E08093FF0149
:102B6000109202021092010207C18091FF01813090
:102B700009F002C18FE3809300028C858111F8C0B7
:102B800082E08093FF01109202021092010283E022
:102B90008093030210921B0210921A028091180275
:102BA00090911902892B09F0E7C086E18A878E018E
:102BB000045F1F4FAE01465F5F4F980161E080ECFC
:102BC0009FEF0E94211998014A8561E280EC9FEFF6
:102BD0000E947013D1C08091FF01823008F4CCC0F4
:102BE0008E859F8598278927982720911A023091F2
:102BF0001B028217930749F090931B0280931A02DD
:102C0000CE010E942A1880931C0287E08A878BE0FD
:102C10008B875EC08091FF01823009F0ADC0E091EA
:102C20000E02F0E0EE0FFF1FEB50FE4F038CF48D11
:102C3000E02D83858A3009F09FC08889811106C004
:102C40008C859D8598278927982702C080E090E091
:102C50000E940C195DC08091FF01823009F08CC088
:102C60008FE38093000283E0809303028F8598892D
:102C700098278927982720911A0230911B028217E2
:102C8000930709F47BC090931B0280931A029E0164
:102C90002F5E3F4F4A8547506C8560688D859E85C5
:102CA0009827892798270E949A1980931C028C855F
:102CB0008076803209F060C087E08A878DE08B875C
:102CC0008D859E859D878C878F8598899F878E8728
:102CD00080911C02888BCE010E948C124BC0809187
:102CE000FF01823009F048C0E0910E02F0E0EE0FE3
:102CF000FF1FEB50FE4F038CF48DE02D83858C304D
:102D0000D9F5278530898E859F8528173907A1F544
:102D10000E942A1331C08091FF01823069F5E09151
:102D20000E02F0E0EE0FFF1FEB50FE4F038CF48D10
:102D3000E02D8385823101F5258536858F8598893B
:102D4000E4CF9091040280910502981315C083E0AE
:102D5000809303028FE3809300028091FF01823011
:102D600059F48CE291E0909302028093010204C036
:102D70000E94A61281E006C080E004C08C8587FF17
:102D8000FBCF95CFDF91CF911F910F910895809147
:102D9000FF010895CF93DF93FC01228133812655F3
:102DA000304041F405C0FA01E60FF11D10826F5F5B
:102DB0006630C8F3C62FC1502C2F30E00DC0DA01A9
:102DC000A70FB11D7C91FA01E20FF11DD081DC93B8
:102DD00070832150711131E07C2F721B721778F3D0
:102DE000332321F0DF91CF910C944E0181E0DF91EC
:102DF000CF910895FC0120812F3401F128F4213472
:102E0000B9F0293431F41AC02035E1F0233509F442
:102E100015C0FC018181873559F028F4823491F086
:102E2000843461F409C0843629F0873739F408C046
:102E300082E0089584E8089584E0089580E008958C
:102E400082E8089581E00895FF920F931F93CF9336
:102E5000DF938C0161111EC0E1E2F2E040E050E03E
:102E600012C08017910749F48CE0849F9001859FE0
:102E7000300D1124235E3D4F31C04F5F5F4F3C96B4
:102E80004C30510549F1808191818F3F2FEF92079E
:102E900041F722C0613001F5C0E0D0E08CE0F82EAF
:102EA000FC9EB001FD9E700D11246E577F4F4CE0CB
:102EB00050E08FEA92E00E9421238091B30290912A
:102EC000B4028017910729F02196C730D10541F748
:102ED00003C02FEA32E002C020E030E0C901DF91F8
:102EE000CF911F910F91FF900895BF92CF92DF92E3
:102EF000EF92FF920F931F93CF93DF9300D000D0F8
:102F0000CDB7DEB7B82E00E010E0C82ED12C8CE093
:102F1000B89E700111248DE192E0E80EF91EBE0109
:102F20006F5F7F4FC8010E949A0044E050E0B701F4
:102F3000CE0101960E942A23009771F48FEF8983B6
:102F40008A838FEF9FEF9C838B83BE016F5F7F4FE0
:102F5000C8010E94A10006C00C5F1F4F90E0003323
:102F60001907E9F62CE02C9DC0012D9D900D112430
:102F7000835E9D4F0E94B2106CE00DC0629FD00135
:102F8000639FB00D1124A35EBD4F862F01900D925B
:102F90008A95E1F7B3948AE08B1558F49CE0B99ECA
:102FA000F0011124E35EFD4F8FEF9FEF9583848343
:102FB00011C02B2D30E0C9010196689FF001699F77
:102FC000F00D1124E35EFD4F448155814F3F5F4F6B
:102FD000A9F6E4CF0F900F900F900F90DF91CF9153
:102FE0001F910F91FF90EF90DF90CF90BF900895C9
:102FF0001092AD028FE38093AE02E1E2F2E08081B5
:103000009181019611F40C949321118210823C96C7
:1030100082E0E13BF80799F7F6CFE1E2F2E020E049
:1030200030E080819181019659F48CE0829FF0011B
:10303000839FF00D1124E35EFD4F1582148208C0BA
:103040002F5F3F4F3C962C30310559F7E0E0F0E020
:10305000CF0108956F927F928F929F92AF92BF920D
:10306000CF92DF92EF92FF920F931F93CF93DF9354
:10307000CDB7DEB728970FB6F894DEBF0FBECDBF31
:103080008C01FC0180898D8381898E8342857296B3
:1030900020E030E088E08E1B5AE01CC09191692F3F
:1030A00060536A3068F038872F835E01F5E0AF0E19
:1030B000B11CC5010E944E10982E882381F096C045
:1030C000B901569F9001579F300D112420533109AB
:1030D000290F311D982F9E0F941700F3E4CFF801AC
:1030E000E484F584FE24EF24FE2421E2C22E22E0B3
:1030F000D22E00E010E03CE0832E7A2C6B2C20C016
:10310000809EB001819E700D1124635E7D4F44E06E
:1031100050E0872D962D0E942A23009709F464C061
:10312000AE14BF0421F4E114F10409F056C00F5F9E
:103130001F4FFCE0CF0ED11C0C30110509F44DC01F
:10314000F601A080B180FFEFAF16BF06C9F648C0F8
:103150008CE0809F6001819FD00C11246DE172E0B2
:10316000C60ED71E4D815E816F817885F601408342
:10317000518362837383C6010E941E0F982E8111B2
:103180002CC0F601F582E48200E010E0BE016F5F22
:103190007F4FC8010E949A0044E050E0BE016F5F7B
:1031A0007F4FCE0105960E942A230097F9F089816E
:1031B00081508E3F38F0BE016B5F7F4FC8010E9487
:1031C000A10014C00C5F1F4FF0E000331F07F1F6A1
:1031D0000DC0802F0E94751709C092E0992E06C07D
:1031E000E114F104D1F3B4CFEF2899F3892D289697
:1031F0000FB6F894DEBF0FBECDBFDF91CF911F9108
:103200000F91FF90EF90DF90CF90BF90AF909F9085
:103210008F907F906F900895E091AD02009749F0F4
:103220002CE0E29FF0011124E35EFD4F958384833F
:103230000895EC3018F48E2F0E9475171092AD028D
:103240000895AF92BF92DF92EF92FF920F931F9378
:10325000CF93DF931F92CDB7DEB7D62E7A018901C7
:1032600063700E9424175C01009709F454C0DC01CC
:103270001696ED91FC911797309709F44EC0A8016E
:10328000B7010995482FD7FE49C0811147C0C50134
:1032900049830E94FA16498187FF1DC08F7718C0A5
:1032A0009801280F311DF90131979081911108C0C3
:1032B000F9013297908197FF0AC0F70180832EC0F1
:1032C0009F3FD9F7F9013297908197FFF6CF815050
:1032D000823030F7F2CF882309F1F801E80FF11DB1
:1032E000DF0111979C9197FF04C010828F5F10C07F
:1032F0008150813069F09801280F311DF901319713
:103300009081911105C0F9013297908197FFF0CF1C
:10331000D7018C9303C042E001C043E0842F0F909B
:10332000DF91CF911F910F91FF90EF90DF90BF90B1
:10333000AF900895EF92FF920F931F93CF93DF9377
:10334000E62EF42E890163700E942417EC01009789
:1033500049F188859985892B39F1E7FE17C0CE019F
:103360000E94FA168F77F81678F4F801EF0DF11D28
:1033700031979081990F990BF801EF0DF11D908312
:10338000F394F812F9CF02C08111F82EE885F9857F
:10339000A8016F2DCE01DF91CF911F910F91FF906A
:1033A000EF90099482E001C083E0DF91CF911F91FB
:1033B0000F91FF90EF900895EF92FF920F931F935C
:1033C000CF93DF93CDB7DEB72C970FB6F894DEBF5F
:1033D0000FBECDBF81E08B879E01245F3F4FAE01C2
:1033E000455F5F4F61E080E09FEF0E9421198C856F
:1033F0008F3F09F047C01C869E01245F3F4F40E08D
:1034000061E080E09FEF0E949A1986E0EEE0F1E033
:10341000DE01119601900D928A95E1F79E012F5FD2
:103420003F4F46E061E080E29FEF0E949A198FEFE4
:103430009FEFDC018F839887A987BA879E01295F58
:103440003F4F44E061E081E29FEF0E949A199E01A4
:10345000295F3F4F44E061E082E29FEF0E949A19AA
:103460009E01295F3F4F44E061E083E29FEF0E94AD
:103470009A199E01295F3F4F44E061E084E29FEF8B
:103480000E949A1920E03CE08FEF9FEF329FF001FD
:103490001124E35EFD4F958384832F5F2C30B0F3BE
:1034A0002C871092AD028FE38093AE020E94540CE1
:1034B0001C86F12C4CE0E42E1FC0EF9C80011124EF
:1034C000035E1D4F24E0829FC0011124B80180508B
:1034D00090400E949A00F801808181508E3F48F40C
:1034E000C8010E941E0F811104C0F80115821482C8
:1034F000F3948C858F5F8C878C858C30F0F20E94E2
:10350000AC0C2C960FB6F894DEBF0FBECDBFDF918A
:10351000CF911F910F91FF90EF900895EF92FF923E
:103520000F931F93CF93DF931F92CDB7DEB76CE05D
:10353000E62E40C00115110541F50E9438128C019C
:10354000009709F45FC08091AD02F89EC00111247C
:10355000B801835E9D4F0E942E118983A801682FB8
:1035600080E090E00E940D1481110BC0E091AD024B
:10357000FE9EF0011124E35EFD4F80E090EF958305
:103580008483C8010E9458123DC0011580EF1807BE
:10359000C9F11A96ED91FC911B97309731F4809107
:1035A000AD028F5F8093AD0205C0CD0109958823E0
:1035B000B1F32AC0A091AD02AC3080F45CE0F52EEE
:1035C000EA9ED0011124A35EBD4F14960D911C916B
:1035D00015970F3F8FEF180709F0ACCF1092AD028F
:1035E0008091AE02882371F081508093AE028111E8
:1035F00009C083E28983AE014F5F5F4F61E080E2E3
:103600000E94CD130FEF1FEFC8010F90DF91CF91F4
:103610001F910F91FF90EF9008952A98962F9F7118
:10362000982B9EBD0DB407FEFDCF1EBC0DB407FE4A
:10363000FDCF67FD03C02A9A8EB508951EBC0DB458
:1036400007FEFDCFF8CF2A986F71682B6EBD0DB4C1
:1036500007FEFDCF4EBD0DB407FEFDCF2A9A08959B
:10366000CF93C82FC0768091BE02C81779F043E08F
:103670006FE180EA0E94231B4C2F429546954770CC
:103680006FE180E80E94231BC093BE02CF91089592
:10369000CF93DF931F92CDB7DEB7682F69830E9467
:1036A000301B698180E00F90DF91CF910C940D1B4E
:1036B0001F93CF93DF931F92CDB7DEB7182F698387
:1036C0000E94301B4981612F80E40F90DF91CF91E0
:1036D0001F910C94231B0F931F93CF93DF93FB0138
:1036E000413061F4AB0160E070E0475F5F4F6F4FC6
:1036F0007F4F8A019B01AF01DC011DC0423051F4B4
:10370000AB014850510960E070E04A5F5F4F6F4F76
:103710007F4FEFCF40E050E0BA01EBCF6C91D62F56
:1037200011966C911197C62F0C0F1D1F211D311D75
:103730001296425051094230510580F7DF01AE7FA9
:10374000A80FB91FA801B901E0FF0DC09C9180E04E
:10375000B901A801480F591F611D711D04C0480F10
:10376000591F60E070E0CB010097C9F74095509574
:10377000CA01DF91CF911F910F910895CF93DF93ED
:10378000EC01188E198E80E48C8B1D8A8E8B40E0A4
:1037900064E170E0CE010E960E946B1B988F898FBA
:1037A000DF91CF9108952AE131E017C0FC01E20FCB
:1037B000F31FA181AA23B9F02A0F311DD901119657
:1037C0006A177B0780F0E081E53329F4FC01E40F00
:1037D000F51F808108952E5F3F4FA9014E5F5F4F17
:1037E0004617570718F380E00895FC016D317140CA
:1037F000A0F083A1833489F482A5823071F42091F2
:10380000BF028091F205822797A5981306C0909178
:10381000F305922781E020A9291380E008959C01F7
:103820002A5F3F4F46E0F901DC0101900D924A9575
:10383000E1F786E0EFEEF5E0D90101900D928A956F
:10384000E1F708951F93CF93DF931F92CDB7DEB7B3
:10385000162F682F84ED79830E94581B612F86ED07
:103860000E94581B7981672F87ED0E94581B04C066
:1038700089E28A95F1F700C08AEE0E94481B80FD1C
:10388000F7CF0F90DF91CF911F9108958F929F9264
:10389000AF92BF92CF92DF92EF92FF920F931F935E
:1038A000CF93DF932AE131E0C5E0D0E00FEF1FEFC7
:1038B00079C0F9013196DC01AE0FBF1FBC90BB206F
:1038C00009F477C0AB2DB0E0EA0FFB1F6E177F073E
:1038D00008F46FC0FC01E20FF31FA0800F2EF3E38A
:1038E0009F2EF02DA91441F0E6E3AE1609F443C073
:1038F000AA2009F453C053C06894992492F8B910CF
:1039000026C0C580D480E380FC01E40FF51FF08061
:103910004FEFC416D406E406F40629F4109302010E
:10392000009301013CC0E7E0F694E794D794C79474
:10393000EA95D1F7EFEFCE16DE06E104F10468F068
:103940005EEFC52EDD24DA94E12CF12C06C040EAAE
:10395000C42E45E0D42EE12CF12C45E0C416D10450
:1039600028F0D0920201C092010119C0D093020147
:10397000C093010114C0E4E0BE1211C0FC01E40FC9
:10398000F51F80809180A280B3808092C0029092C7
:10399000C102A092C202B092C30201C09B01129662
:1039A0002A0F3B1FA9014E5F5F4F4617570708F4C8
:1039B00080CFDF91CF911F910F91FF90EF90DF901B
:1039C000CF90BF90AF909F908F900895CF93DF934B
:1039D000EC0185B1856085B9249884B18D6284B984
:1039E00052985A9A80E58CBD8DB581608DBD4FEFA0
:1039F00060E08FEF0E94231B83E294EF0197F1F7C1
:103A000000C0000062E085E70E94581B83E294EF4B
:103A10000197F1F700C000001092BD021092BC02A5
:103A200060E088E00E94581B60E089E00E94581B1B
:103A300060E08CE00E94581B60E08DE00E94581B03
:103A40006FEF8AE00E94581B69E18BE00E94581BCF
:103A500060E084E00E94581B6AE185E00E94581BE8
:103A60006FEF86E00E94581B6FE187E00E94581BB1
:103A700060EB88E30E94581B6FE388E20E94581BAA
:103A800060E389E20E94581B69EF80E30E94581BA3
:103A900067EF81E30E94581B6DE080EC0E94581B89
:103AA00060E081EC0E94581B42E362EC80E80E94D7
:103AB000231B62E186EC0E94581B6CE087EC0E949D
:103AC000581B62E184EC0E94581B6CED8AEC0E944A
:103AD000581B65E08BEC0E94581B688184EE0E94A5
:103AE000581B698185EE0E94581B6A8182EE0E94F4
:103AF000581B6B8183EE0E94581B6C8180EE0E94E4
:103B0000581B6D8181EE0E94581B60E071E080E1DE
:103B10000E94221C8FE10E94301B44E06FE180E88C
:103B20000E94231B66E774E084E1DF91CF910C943F
:103B3000221C88E30E94481B682F616088E30C9474
:103B4000581B88E30E94481B682F6E7F88E30C9403
:103B5000581B61E184ED0E94581B61E082ED0E94D8
:103B6000581B8AEE0E94481B80FDFBCF60E082ED6F
:103B70000E94581B89ED0E94481B82FB882780F910
:103B800008950F931F93CF93DF938C01EB010FC028
:103B90008CE10E94481B81FF0AC040E86FE180E889
:103BA0000E94231B40E86FE180EA0E94231B6FE123
:103BB00080E00E940D1B83FDEBCF60E082E00E945D
:103BC000581B6AE183E00E94581B602F86E00E9428
:103BD000581BC801965E692F87E00E94581B40E081
:103BE00060E08AE70E94231B2A988AE78EBD0DB405
:103BF00007FEFDCF0C0F1D1F05C089918EBD0DB4B2
:103C000007FEFDCFC017D107C1F72A9A48E06FE140
:103C100080E8DF91CF911F910F910C94231BCF92DD
:103C2000DF92EF92FF920F931F93CF93DF938C015C
:103C3000EB0189E30E94481B882309F47CC0E090D3
:103C4000BC02F090BD026E2D80E00E94581B6F2DCB
:103C5000772767FD7A9581E00E94581B60E08AE330
:103C60000E940D1BF82E60E08AE30E940D1B382F86
:103C700020E02F293093BD022093BC0260E08AE34C
:103C80000E940D1BD82E60E08AE30E940D1BC82EF7
:103C900060E08AE30E940D1BE82EF12C60E08AE3CD
:103CA0000E940D1B382F20E02E293F2927FF1FC01F
:103CB0003C2D20E02D29245031090217130708F468
:103CC00098012A988AE38EBD0DB407FEFDCFCE0180
:103CD000820F931F06C01EBC0DB407FEFDCF4EB56C
:103CE0004993C817D907B9F72A9AE90102C0C0E079
:103CF000D0E00091BC021091BD0201308AE11807AA
:103D000034F06FEF8CE00E94581B69E10BC0602F0C
:103D100061508CE00E94581B01501109612F7727D8
:103D200067FD7A958DE00E94581B40E46EE180E8C3
:103D30000E94231B02C0C0E0D0E0CE01DF91CF91F2
:103D40001F910F91FF90EF90DF90CF900895AF9269
:103D5000BF92CF92DF92EF92FF920F931F93CF9378
:103D6000DF9300D0CDB7DEB75C01D62EC72E7A0127
:103D700086E0F801D50101900D928A95E1F786E081
:103D8000EFEEF5E0D501169601900D928A95E1F7D8
:103D900088E0F5018487158649E050E06CEE70E01C
:103DA000C5010E9629833A830E9421238091000148
:103DB000F501838B8F5F80930001108A81E1878BEF
:103DC000F70180819181A281B381F501868F978F60
:103DD000A0A3B1A34091F5055091F6056091F705B8
:103DE0007091F805428F538F648F758F3A8134A399
:103DF000298125A3C2A2D3A216A210A611A60F90B4
:103E00000F90DF91CF911F910F91FF90EF90DF9076
:103E1000CF90BF90AF900895EF92FF920F931F93B2
:103E2000CF93DF9300D000D000D0CDB7DEB77C01B8
:103E300086E0E4E1F1E0DE01119601900D928A95B1
:103E4000E1F78E010F5F1F4F23E430E0A80164E427
:103E500070E0C7010E94A71EF701128E138E148E08
:103E6000158E81E082A783A796E094A715A686A762
:103E70009091BF028091F205892787A78091F30571
:103E8000892780AB8091F405892781ABF29684E184
:103E900011928150E9F7D701AA5BBF4FF70136961F
:103EA00086E001900D928A95E1F7F701E45BFF4F00
:103EB0008AEC11928150E9F744E050E068EE70E03E
:103EC000C7018A5E9E4F0E94212326960FB6F89462
:103ED000DEBF0FBECDBFDF91CF911F910F91FF903D
:103EE000EF9008950F931F93CF93DF93EC018B0115
:103EF000CB014C96898B988BCE010E94BE1BC801CA
:103F000008968FA39EA3B801605F7F4F41E0CE016A
:103F10004A960E946B1B89A798A7BE01C8018A9682
:103F2000DF91CF911F910F910C94C11D0F931F939F
:103F3000CF93DF93EC018B018091BB02853478F045
:103F40001092BB02809101019091020101978E3F76
:103F50002FEF920720F49093020180930101011545
:103F6000110509F040C08091010190910201039771
:103F700008F037C00E94A91D882399F18091BF02E3
:103F80008F5F8093BF02CE010E940C1F82E08EA73C
:103F90004091F5055091F6056091F7057091F8058F
:103FA0004A8F5B8F6C8F7D8F4EAB5FAB68AF79AF05
:103FB00043E050E061EE70E0CE01865E9E4F0E94CD
:103FC0002123FE01E35EFE4F8FEF808364EF70E0FC
:103FD000CE010E94721F85E090E0909302018093D1
:103FE000010180E0AEC00932110508F444C08C859F
:103FF000883009F040C08D858630E9F544E050E016
:1040000065EF75E0CE0186960E942A23009799F508
:104010008D89813031F7CE010E940F1C1C8A82E00D
:104020008D8BDE019096CE01469626E0FC01019034
:104030000D922A95E1F726E0EFEEF5E0DC01019024
:104040000D922A95E1F78C8D9D8DAE8DBF8D8EA33F
:104050009FA3A8A7B9A78091F5059091F605A09117
:10406000F705B091F8058C8F9D8FAE8FBF8FBE0185
:104070008AE290E059C0B801CE010E94F51B882366
:1040800089F0B801CE010E94D31B853009F0A9CF79
:104090008EA5823009F0A5CF4EC0B801CE010E9496
:1040A000461C9FCF0A32110508F441C08C85883028
:1040B000F1F58D8581113BC08E858534C1F544E0D5
:1040C00050E065EF75E0CE014E960E942A230097DE
:1040D00071F58F89813069F58AA1883051F5CE015B
:1040E0000E940F1C8A8D9B8DAC8DBD8D8E8F9F8FF6
:1040F000A8A3B9A34091F5055091F6056091F70585
:104100007091F8054A8F5B8F6C8F7D8FCE010E9476
:10411000BE1B1AA29CA1983F18F08DA18F5F8DA3A2
:10412000985F9CA3BE01C8010E94C11D5ACF82E0C6
:1041300008C081E006C00D3181E0180708F451CFB6
:10414000ACCFDF91CF911F910F9108950F931F93E3
:10415000CF93DF93EC018B010E94A91D811103C055
:104160001092BB02D5C001151105C9F58091BB02A3
:104170008230C8F489E18093BB028091EF05909171
:10418000BF02890F9091F005890F9091F105890F79
:104190009091F205890F9091F305890F8093BF02EA
:1041A0000E94991DACC08091BB02803208F4A7C068
:1041B00082E08093BB028091BF028F5F8093BF0239
:1041C000CE010E940C1F44E050E064EE70E0CE018E
:1041D000865E9E4F0E94212364EF70E083C0B80189
:1041E000CE010E94F51B882309F489C08EA5823078
:1041F00009F087C084C08093BB028AAD882361F038
:104200008AAD9BADACADBDAD8093F5059093F60541
:10421000A093F705B093F8050D3181E0180720F061
:10422000B801CE010E94461CCE010E940C1F43E043
:1042300050E061EE70E0CE01865E9E4F0E94212329
:104240008091C0028823D9F0FE01E35EFE4F86E331
:104250008083FE01E25EFE4F84E08083FE01E15E2A
:10426000FE4F8091C0029091C102A091C202B09114
:10427000C30280839183A283B38319E001C013E05A
:104280008091F5058F3FE9F0CE01810F911DFC0172
:10429000E65EFE4F22E32083FC01E55EFE4F24E054
:1042A0002083FC01E45EFE4F4091F5055091F60538
:1042B0006091F7057091F8054083518362837383A1
:1042C0001A5F812F90E0865E9E4F41E050E067EEDE
:1042D00070E08C0F9D1F0E9421231F5F612F70E0F3
:1042E00060517F4FCE010E94721F09C0853039F4A2
:1042F00082E08093BB020E94A11D81E009C080E0A2
:1043000007C0B801CE010E94D31B823079F773CF6A
:10431000DF91CF911F910F9108958091BB028F5F24
:104320008093BB020895CF93DF931F92CDB7DEB782
:1043300086E089832FEE35E0AE014F5F5F4F61E08D
:1043400080E29FEF0E94211984E0898325EF35E008
:10435000AE014F5F5F4F61E081E29FEF0E94211944
:104360000F90DF91CF9108958FEE95E00C94E61CAD
:104370008091F5058F3F69F464EC72E08EE591E081
:104380000E940F1EBC0184EC92E00E94A6208823AC
:1043900099F30895EF92FF920F931F93CF93DF93BA
:1043A00064EC72E08EE591E00E940F1E7C01BC017E
:1043B00084EC92E00E94961F811103C0C0E0D0E01F
:1043C00032C08091E8028730C9F78091E9028B35CD
:1043D000A9F78AE2E81AF1088DE2E816F10470F70D
:1043E0000E943812EC01009749F386E0EAECF2E013
:1043F000DE0101900D928A95E1F70091DE021091A5
:10440000DF022091E0023091E1020E831F832887B2
:1044100039879E01265F3F4F8EEE92E0A701BC01D7
:10442000C9010E943723CE01DF91CF911F910F91D7
:10443000FF90EF9008950F931F93CF93DF93EC01BC
:10444000AC014A5F5F4F8C012BE537E06BE577E00D
:1044500084EC92E00E94A71E1A852EEE32E0CE0177
:104460000A96412F50E0BC01C9010E943723CE01BA
:104470000E945812612F70E084EC92E0DF91CF919E
:104480001F910F910C94721F80910301882321F0DA
:1044900081508093030108958FE3809303010C946E
:1044A0008D21CF93DF93EC016091F5050E946E2280
:1044B0006091F605CE0102960E946E226091F7058A
:1044C000CE0104960E946E226091F805CE010696F8
:1044D0000E946E2288E0DF91CF910895262F2295C9
:1044E0002F702A3010F0295C01C0205DFC01208370
:1044F0006F706A3010F0695C01C0605DFC0161831F
:1045000082E00895FC0181E020E137E240E090E0A4
:1045100004C0621B730B9F5F41E062177307C8F70B
:10452000283E53E0350789F0203157E2350721F066
:104530002436310539F403C028EE33E008C02AE000
:1045400030E005C021E030E002C024E630E0442342
:1045500029F0905D91938F5F41E090E02A30310522
:10456000E0F6605D60830895DB018F939F930E9466
:104570000223BF91AF91A29F800D911DA39F900D2B
:10458000B29F900D11240895A1E21A2EAA1BBB1B05
:10459000FD010DC0AA1FBB1FEE1FFF1FA217B3070F
:1045A000E407F50720F0A21BB30BE40BF50B661F25
:1045B000771F881F991F1A9469F7609570958095E9
:1045C00090959B01AC01BD01CF010895052E97FB8D
:1045D00016F4009407D057FD0DD00E94C42207FCAA
:1045E00009D07EF490958095709561957F4F8F4F9F
:1045F0009F4F089550954095309521953F4F4F4FCF
:104600005F4F08950E941523A59F900DB49F900DB4
:10461000A49F800D911D11240895B7FF0C940223CF
:104620000E940223821B930B0895A29FB001B39FA7
:10463000C001A39F01D0B29F700D811D1124911D57
:104640000895FB01DC0102C005900D9241505040DD
:10465000D8F70895FB01DC0104C08D910190801909
:1046600021F441505040C8F7881B990B0895FB0175
:10467000DC0102C001900D9241505040D8F70895DE
:10468000DC01CB01FC01F999FECF06C0F2BDE1BD12
:10469000F89A319600B40D9241505040B8F7089501
:1046A000F999FECF92BD81BDF89A992780B50895FA
:1046B000DC01CB0103C02D910E9463234150504087
:1046C000D0F70895262FF999FECF1FBA92BD81BD6C
:1046D00020BD0FB6F894FA9AF99A0FBE0196089584
:0446E000F894FFCF7C
:1046E40002FFFF3FFFFFFFFFFFFFFFFFFFFF010090
:1046F40000A30400FFFFFFFFFFFF00FFFFFFFFFF1A
:04470400FFFF0100B2
:00000001FF
